:100000000C94FE020C941B030C941B030C941B0316
:100010000C941B030C941B030C941B030C941B03E8
:100020000C941B030C941B030C942A0D0C94BE120D
:100030000C9437220C941B030C941B030C941B038D
:100040000C941B030C941B030C941B030C941B03B8
:100050000C941B030C94030E0C941B030C941B03B5
:100060000C941B030C941B030C941B030C941B0398
:100070000C941B030C941B030C941B030C941B0388
:100080000C941B030C941B030C941B030C941B0378
:100090000C941B030C941B030C941B030C941B0368
:1000A0000C941B030C941B030C941B030501098087
:1000B000A101850319012AB700150126B700950192
:1000C00075108100C0050C0901A101850419012AE0
:1000D000A002150126A002950175108100C00660DE
:1000E000FF0961A1010962150026FF00952075082E
:1000F00081020963150026FF00952075089102C052
:1001000005010906A101050719E029E715002501E8
:10011000950875018102950175088101050719008F
:1001200029FF150026FF00950675088100050819AE
:10013000012905950575019102950175039101C08D
:1001400000DA0281FFD9F1DB20A4A62EAF00A0C007
:1001500000A1C800AED580A81FD300408D14200098
:10016000FD377A585A000004E6D6B4460200210151
:1001700016000000742FE5A3E003AA01655D003DB1
:100180008889C65436C3174FE4F5602D3B56DF21EE
:1001900044B4FF40F91849E5B259552B74A4282BF3
:1001A00052BA4EE1D329566E894CBE8A86793225E1
:1001B000DE38527A68E2ACA3787F1AA530E1877303
:1001C00035CA4B3A82E9046FD6B8AFECC64737A1BF
:1001D0009C656835CE7A8C262B11871502FAE84784
:1001E000F1AADE73BEA755EFE67FE65B2FB30442AC
:1001F0009E627BBCA8235D1A1C0E6C2D35E9F3486A
:10020000B3108AF43FF19D2321848E707EB8706E06
:1002100046E916FFED5133E0EB4BC6F5EA4B2647B6
:100220002CDB7824171DA3507DD1D9387E9A79AA6A
:1002300068268A6FAECD3B584EB9F6C90FB8E4EFC9
:10024000ACFB4001878582DCE86A7424FD6EDB7AB2
:100250001F8A4095C8D124D4BACB1C5AE34F7A8464
:10026000E4A117F0A392E8B04A3544E49FFE530599
:10027000144E08C1B3F7EF9FE35565B1FF0EDE568C
:10028000592693878777871272FFD3B09682E5C38A
:10029000755DED984F1F928F3A1399F5235C02C25A
:1002A000759024ACE615FE78F39EEBA65E22A57C45
:1002B000E8F6666AE461794EF348819E71A7488941
:1002C0004742D03191D85C381EA400213CBE15B6FF
:1002D0003D71D988B310F55A8BE3BA76460E706F2C
:1002E000701524000000000024C46F803DF88F5F6B
:1002F00000018103AB070000F1E13CCEB1C467FB14
:10030000020000000004595AA900AA00AB00AC008A
:10031000AB00AC00AB00AC0029001A0015001C00BB
:100320000C001300140008001700180012002A0027
:100330002B00160009000B000E003300040007001C
:100340000A000D000F00280035621D0006000500A0
:100350001000370038001B00190011003600E500BE
:10036000E000E2002C412C41E700AE00E300000079
:100370000251E600E400A80029001F00210023002C
:10038000250027001E0020002200240026002A004D
:1003900001000100010052002D00340001000100A5
:1003A000010052002E002800010001000100500051
:1003B0004F00380001000100010051002E00010033
:1003C00001000100010001000100AE000100000079
:1003D000010001000100A8000100C85C010001004B
:1003E00052000100C75C0100010001000100010092
:1003F0000100C35C0100010051000100C25CC45C4B
:10040000010050004F0001000100CA5C0100010022
:1004100001005200C95C010001000100010052000E
:100420000100010001000100510001000100000075
:10043000010050004F000100010001000100010017
:1004400001000100010001000100010001000100A4
:100450000100010001000100010001000100010094
:100460000100010001000100010001000100010084
:100470000100010001000100010001000100010074
:100480000100010001000100010001000100000065
:10049000010001000100010000AF00AE09025B0095
:1004A000030100A0FA090400000103010100092171
:1004B0001101000122400007058103080001090421
:1004C00001000203000000092111010001222200A5
:1004D000070582032000010705030320000109042A
:1004E0000200010300000009211101000122320075
:1004F00007058403200001120100020000000886A5
:100500008053530001010203011C0376006900615E
:10051000006C003A0066003600340063003200626E
:10052000003300630000000A036C00690074006C73
:1005300000000012035300540048004C004D0020FE
:10054000006B0062000000040309040000000000CA
:10055000000000000000000000000000000000009B
:100560000000000000000000000000000000007E0D
:100570000F00D4FFFFFFC70000007800000000005C
:100580000000002A2B2800000000000000000000EE
:1005900000000000000029000000002C1E34202173
:1005A0002224342627252E362D3738271E1F2021BA
:1005B00022232425263333362E37381F0405060719
:1005C00008090A0B0C0D0E0F101112131415161733
:1005D00018191A1B1C1D2F3130232D350405060751
:1005E00008090A0B0C0D0E0F101112131415161713
:1005F00018191A1B1C1D2F3130354C0011241FBE39
:10060000CFEFDAE0DEBFCDBF11E0A0E0B1E0E8EC73
:10061000F8E502C005900D92A438B107D9F726E09D
:10062000A4E8B1E001C01D92AB31B207E1F70E942E
:100630005E220C943E2C0C940000E8EDF0E08081EA
:100640008E7F80831092E2001092DA001092E10017
:10065000A0EEB0E08C9181608C9380818F77808355
:1006600019BCA7EDB0E08C918E7F8C9380818F7E3A
:1006700080831092000608952091E4003091E500F7
:1006800095E6A9012091EC00822F817020FF06C021
:100690008091E80080FF06C080E008952091E80086
:1006A00022FD1AC080911606882389F0853089F0D2
:1006B0008091EB0085FD0FC02091E4003091E500B2
:1006C00042175307F9F29150E1F684E0089582E071
:1006D000089583E0089581E00895EF92FF920F93CB
:1006E0001F93CF937C018B010E943C03C82F811183
:1006F00017C08091E80085FD0BC08091E8008E77DF
:100700008093E8000E943C03882399F3C82F08C017
:10071000F70181917F018093F1000150110949F7A0
:100720008C2FCF911F910F91FF90EF900895CF9351
:10073000FC0180911606843001F5C091E900CF706C
:100740002091EC00922F917020FD90E8C92B82E05F
:100750008093E9008091E80080FF0CC050E040E009
:1007600060E270E0CF010E946D038091E8008E7717
:100770008093E800CF70C093E900CF9108958091F5
:100780000E0687FF13C08091E80082FF06C08091AB
:10079000E8008B778093E80004C0809116068111F1
:1007A000F2CF0895809116068823D9F38091E8004E
:1007B00080FFF8CF8091E8008E77ECCF982F909350
:1007C000E900242F762F50E0891731F07091EC006A
:1007D0002091ED005091F00021FD07C09F5F973000
:1007E00071F78093E90081E008953091EB003E7F3E
:1007F0003093EB003091ED003D7F3093ED00309170
:10080000EB0031603093EB007093EC002093ED002F
:100810005093F0002091EE0027FDE0CF80E0089596
:10082000B0E0A0E0E6E1F4E00C94792BC8EDD0E074
:1008300088818F7E8883E7EDF0E08081816080830E
:1008400084E082BF81E08093000688818E7F888368
:1008500002EE10E0F80110821092DA0081EEC82E4C
:10086000D12CF601108288818F77888388818068F7
:10087000888388818F7D888319BC10921606109218
:100880000D0610920C0610920B0690EEE92EF12C3C
:10089000F70180818B7F808388818160888342E03B
:1008A00060E080E00E94DE03F60180818E7F80831D
:1008B000F801808181608083808188608083F70176
:1008C00080818E7F8083888180618883CDB7DEB709
:1008D000E8E00C94952BFC0180911406909115068C
:1008E00086179707A0F06115710529F49091E8002B
:1008F0009E779093E80090E06115710551F4911195
:1009000008C08091E80082FF34C080E00895BC01F7
:10091000F2CF809116068823C1F18530C1F1809114
:10092000E80083FD30C08091E80082FDEACF80912D
:10093000E80080FFE1CF8091F3002091F200382F92
:100940006115710519F02830310558F091E0283013
:10095000310509F090E02091E8002E772093E8001F
:10096000CBCF81918093F100615071092F5F3F4F90
:10097000E7CF80911606882341F0853041F08091C1
:10098000E80083FFBECF81E0089582E0089583E010
:1009900008950895089580910206089587E797E7DE
:1009A000909301088093000888E19AE00FB6F894CC
:1009B000A895809360000FBE90936000FFCF2FB783
:1009C000F8946091F9057091FA058091FB0590917A
:1009D000FC052FBF08959C01FC0132969FEF80E03B
:1009E0004191461751F09F3F19F4411101C0982FD2
:1009F0008F5F8630A9F79F3F09F40895290F311DB5
:100A000097FD3A95F901628308952091F60530919A
:100A1000F7052817390771F09093F7058093F605CD
:100A2000E091F405F091F505309721F00084F1850F
:100A3000E02D099508952091F2053091F3052817CE
:100A4000390771F09093F3058093F205E091F40576
:100A5000F091F505309721F00680F781E02D09959A
:100A60000895E091F405F091F505309729F0019093
:100A7000F081E02D0995089580E00895CF93DF93EC
:100A8000EC014091E7055091E8056091E90570910E
:100A9000EA052FB7F8948091F9059091FA05A09195
:100AA000FB05B091FC052FBF841B950BA60BB70B64
:100AB000843F9140A105B10518F58091E70590911B
:100AC000E805A091E905B091EA058093E3059093CC
:100AD000E405A093E505B093E60584EF91E0A0E07E
:100AE000B0E08093DF059093E005A093E105B0931B
:100AF000E205D093EF05C093EE05DF91CF91089505
:100B00000E94DF046093E3057093E4058093E5059C
:100B10009093E60582E390E0A0E0B0E0E2CFFC0134
:100B20008481862351F492819923B9F069238085C9
:100B300083FF05C081E061110FC080E00895892F17
:100B40008F7092959F70982B862F8F7062956F7023
:100B5000682B81E09613F1CF089581E0FDCFDC0191
:100B60006091DB058091DC05962F891301C0089503
:100B7000292F30E0F901EE0FFF1FED52FA4F4081AF
:100B800051814A175B07A1F487E08A9FA0018B9FE0
:100B9000500D112445565A4F81E0FA018483961373
:100BA000E6CF2F5F3F4F237033272093DB05089557
:100BB0002F5F3F4F922F9370D8CF1092370510922E
:100BC0003605EBE9F5E08581811102C014821682B9
:100BD000379685E0E33DF807B1F7089580E0089582
:100BE000F894E82FE295EF70F0E031A1282F2F70F4
:100BF00081E090E001C0880F2A95EAF7982F909540
:100C0000932391A392A1892B82A378940895909124
:100C10000C0292FF06C0282F28712830F9F4877F34
:100C2000846093FF06C0282F28712831F1F4877E55
:100C3000846120910D0220FF06C0382F38713830B2
:100C4000D9F4877F816021FF06C0282F28712831C1
:100C5000D1F4877E816194FD877E0895282F2471C9
:100C60002430F9F68B7F8860DCCF282F2471243163
:100C700001F78B7E8861DDCF382F3171313019F764
:100C80008E7F8860E0CF282F2171213121F78E7E61
:100C90008861E1CFCF93DF93EC0182389105B1F108
:100CA00008F040C08133910509F49DC048F58932B0
:100CB000910509F48DC08A9709F49CC0C11522E5FD
:100CC000D20708F0BDC0C11531E5D30708F025C132
:100CD000C83ED10508F0A3C0C13ED10588F5C83A89
:100CE000D10508F08EC0C53AD10508F0F6C0C13074
:100CF000D10531F1209721F1C430D10508F545C067
:100D00008533910509F45FC0C997C1F680910C0243
:100D1000837009F037C180910D0283FF11C0C9E2D1
:100D2000D0E00EC0833E910599F170F4803E9105AC
:100D300001F1823E910511F680910C0282FD21C0E5
:100D4000CE01DF91CF910895863E910561F1873EF6
:100D5000910571F1843E910509F0B0CF80910D02AB
:100D600081FFEECF80910C02C7EED0E084FD0DC074
:100D7000E7CF80910C0280FD33C090910D0290FF6F
:100D8000DFCFC3EED0E084FFDBCFD0E0C0E0D8CF30
:100D900080910C0282FDF3C090910D0290FDF2C093
:100DA00084FFCECFF2CF80910C0283FDDDCFC8CF80
:100DB00080910C0283FDE9C090910D0291FFF0CF6C
:100DC000C4EED0E0BDCF80910C0285FFB9CFA7CF94
:100DD00080910C0285FDDCC080910D0283FFB0CFB5
:100DE000C9E3D0E0ADCF80910C0286FFA9CFCAE263
:100DF000D0E0A6CF80910C0286FFA2CFC1E3D0E065
:100E00009FCFCF3BD10508F6C85AD0E0CC0FDD1FED
:100E1000CF5DDE4F0990D881C02DD46491CFC1152C
:100E200040E5D40708F064C0C11580E4D80708F095
:100E30005CC0CE019A9581159F4108F481CFA5CF62
:100E4000C11536E5D30718F5C11545E5D40708F0F7
:100E50007DC0C11584E5D80708F073C09C2F969516
:100E600096959E0123703327C115D34508F45AC0C7
:100E7000C1E0D0E002C0CC0FDD1F2A95E2F730E2DE
:100E8000939FC0011124C82BD92BDA6859CFC11503
:100E90008AE5D80778F4C11529E5D20708F061C0C2
:100EA000C11538E5D30708F470CFDC2FCC27C06F0D
:100EB000D06A46CFCE0190568115904208F065CF9A
:100EC0008D2F8F710E94070690E0982F8827882722
:100ED0009F719C012C2BE90142C0C55AD0E0C25E33
:100EE000DE4FC881D0E0D0642BCFDF70D06A28CF2E
:100EF0002C2F26952695237080E2289F900111249F
:100F00008C2F8370C1E0D0E002C0CC0FDD1F8A952A
:100F1000E2F7C22BD32BDD6813CFDC2FCC27C16FB8
:100F2000D06A0ECFC1E0D0E002C0CC0FDD1F2A9501
:100F3000E2F720E2929FC0011124C82BD92BDC6874
:100F4000FFCEDC2FCC27C46FD06AFACE8C2F0E9444
:100F50000706C82FD0E0DC2FCC27CC27DF71D0626A
:100F6000EFCE8C2F8F700E94070634E0D695C79580
:100F70003A95E1F7CF709C2FEC01D069E1CEC2EE3B
:100F8000D0E0DECEC0EED0E0DBCEC6EED0E0D8CEF4
:100F9000C5E3D0E0D5CE8091FF01882331F01092D7
:100FA000FF011092FE011092FD010895809590912D
:100FB000FC0198239093FC0108951092F301109284
:100FC000F2011092F1010895E8E8F1E0919189139E
:100FD00003C0DF0111971C9291E0EE38F907B1F7D9
:100FE00008958091F0019091AF01981301C0089588
:100FF0008F5F8770FACFA82FA77023E0969587950B
:101000002A95E1F7FC01EE0FFF1FE80FF91FE60F2D
:10101000F71F50E040E080E0219130E00A2E02C04E
:10102000369527950A94E2F721703327042E01C0E4
:10103000220F0A94EAF7822B4F5F5F4F433051052E
:1010400059F70895903FC9F0983080F48630A8F49D
:10105000282F30E065E971E0A901E6E09E9F400D90
:10106000511D1124CA010E94FB0708959C5F923014
:1010700020F462E971E090E0F6CF80E00895262F39
:10108000277091E001C0990F2A95EAF723E0769541
:1010900067952A95E1F7FB01EE0FFF1FE60FF71F9B
:1010A000E40FF51F50E040E0682F70E08191DF0110
:1010B00011979B01042E02C0369527950A94E2F7FA
:1010C000217021952827292328272C934F5F5F4FD4
:1010D0004330510559F70895282F862F903F79F016
:1010E000983070F4263058F4622F70E026E0929F1A
:1010F000600D711D112445E951E00E943F080895DB
:101100009C5F9230E0F7622F70E042E951E0F5CF4A
:101110009C013A9521153F4150F5FC01EE27F170F5
:10112000BC0166277270AC01442754709C012227D1
:10113000387094FF0EC080E1EF2B09F480E0672B3C
:1011400009F08062452B09F08064232B89F08068C8
:10115000089581E0EF2B09F480E0672B09F08260AD
:10116000452B09F08460232B19F08860089580E0F6
:1011700008958093FD057093FF056093FE058091AF
:1011800016068430F9F48093E9008FEF9091E8001F
:10119000815095FD06C095ED9A95F1F700008111FB
:1011A000F5CF8091E80085FF0DC050E040E063E09E
:1011B00070E08DEF95E00E946D038091E8008E77DE
:1011C0008093E8000895BC0184E00E94B908089566
:1011D000BC0183E00E94B9080895CF93DF93EC012E
:1011E00081E08093E9008FEF9091E800815095FDB8
:1011F00006C095ED9A95F1F700008111F5CF809129
:10120000E80085FF14C050E040E068E070E0CE01E7
:101210000E946D038091E8008E778093E80088E05B
:10122000FE01A3E0B6E001900D928A95E1F7DF910F
:10123000CF910895B0E0A0E0E0E2F9E00C94792BC2
:101240006C017B0164E670E088E70E94752AEC017E
:1012500097FD12C010E000E0F601E00FF11F84914D
:1012600064E670E00E94E12AEC01892B29F40F5F0B
:101270001F4F0E151F0581F70E94572BCE01CDB7CA
:10128000DEB7E8E00C94952B8091340590913505FC
:10129000911103C091E089270895882369F062E0E5
:1012A00070E08AE994E00E941A09892B19F0809174
:1012B000340508951092340580913405EBCFCF9317
:1012C000C0913405809135058823D1F00E94DF0458
:1012D000605A75418F4F9F4F609330057093310571
:1012E0008093320590933305C11108C062E070E02D
:1012F00088E994E00E941A09892B29F0C0913405ED
:101300008C2FCF91089581E080933405F7CFCF9350
:10131000DF93C7E5D2E060E0CE010E94022C219667
:10132000C11584E0D807B9F7DF91CF9108950F93E5
:101330001F93CF93DF93142F022F8430F0F46111A9
:101340001CC094E0899FE0011124C955DE4F82E062
:1013500090E0442311F090E080E0632F8C0F9D1FFC
:101360000E94022C83E090E0112311F081E090E0D4
:10137000602F8C0F9D1F0E94022CDF91CF911F9137
:101380000F9108951F93CF93DF93122F8430E0F4D1
:101390006830D0F44630C0F4C42FD0E0CC0FDD1F4D
:1013A0009CE0699FC00DD11D112490E6899FC00D5E
:1013B000D11D1124632FCE0187960E94022C612F2C
:1013C000CE0188960E94022CDF91CF911F91089543
:1013D000CF93C82F6FEF811169E983E290E00E94FB
:1013E000022C6FEFC1116EEA84E290E00E94022CA1
:1013F0006FEFC11165E585E290E00E94022CCF916C
:101400000895A4E1B0E0E7E0FAE00C94702B60905E
:101410002A0570902B0581E090E090932B05809336
:101420002A0588E0C82E83E0D82E9AE0A92E93E002
:10143000B92E28E1E22E23E0F22E512C8701412C17
:1014400015C0F40125913491432D642D852D0E9402
:10145000C20982E0880E911C339496E03912F1CFD4
:10146000045F1F4F4394E8E04E1619F04801312CF9
:10147000E8CFF6012591349141E060E0852D0E948E
:101480009709F5012591349140E060E0852D0E9497
:101490009709F4E0CF0ED11C539484E0A80EB11C40
:1014A00090E6E90EF11CE4E05E12C8CFCE01019691
:1014B0007C018AE0F70111928A95E9F707EB11E0C8
:1014C0004AE050E0B801C7010E94262C065F1F4F7A
:1014D0000730F2E01F07A1F77E018BE0E80EF11C58
:1014E0008AE0F70111928A95E9F78FEF9FEF988BC9
:1014F0008F8787E08C8B4AE050E0B801C7010E94DB
:10150000262C065F1F4F0735F2E01F07A1F77092E8
:101510002B0560922A056496E1E10C948C2B80E007
:101520000E94E80960E086E290E00E94022C0E949E
:10153000010A0E94870981E00E94E8090895FF924C
:101540000F931F93CF93DF93F42E843040F56111F6
:1015500026C024E0829F8001112409551E4F82E09D
:1015600090E0442311F090E080E0800F911F0E94F2
:10157000F42BC82FD0E0DC2FCC2783E090E0FF20B5
:1015800011F081E090E0800F911F0E94F42B9E01EA
:10159000282BC901CDB7DEB7E5E00C94982B90E07D
:1015A00080E0F8CF0F931F93CF93DF93843030F513
:1015B000683020F5463010F5C42FD0E0CC0FDD1F89
:1015C0002CE0629FC00DD11D112430E6839FC00D19
:1015D000D11D1124CE0187960E94F42B082F10E014
:1015E000102F0027CE0188960E94F42B9801282BFB
:1015F000C901DF91CF911F910F91089590E080E094
:10160000F8CF462F672F20912E0530912F05232BE1
:10161000F9F4703F39F4403FD9F480912C05909152
:101620002D0508958430A0F4783028F4463080F4F5
:101630000E94D20A08957D3F39F4411109C041E06A
:1016400060E00E949F0A08957C3F11F44423C1F397
:1016500090E080E00895CF92DF92FF920F931F9366
:10166000CF93DF936C010091170680910002082B45
:10167000C7E0D0E010E0FC2EC8010C2E02C095950A
:1016800087950A94E2F780FD0CC02197A0F7F12C12
:101690008F2DDF91CF911F910F91FF90DF90CF9011
:1016A0000895B6018C2F0E94010B0E944A060197F3
:1016B00061F3EECFCF93DF93EC010E942B0BBE01C1
:1016C0000E94010B0E944A06DF91CF910895FC0110
:1016D00083819481892B29F08081918189238F3F97
:1016E000F1F480E008950E944A0692959F7096302A
:1016F00089F058F4925F9F70923098F7803F19F00C
:1017000030F4883E70F781E008959A5FF4CF843F0B
:1017100041F7F9CF883EB8F3813F19F7F4CF8681BE
:101720009781009701F7808191810E945A0BDDCF4C
:10173000A5E0B0E0EEE9FBE00C947E2B9C01FC01FF
:10174000868197810097E1F485E0DE011196019092
:101750000D928A95E1F7F901228189819A812223EC
:1017600099F0662389F00E942B0B182F682F89812E
:101770009A810E946C0869817A81812F0E94010BF5
:101780002596E3E00C949A2B0E942208182FF3CFA1
:1017900083E290E00E94F42B893989F484E290E09E
:1017A0000E94F42B8E3A59F485E290E00E94F42BCB
:1017B00091E0853509F090E0892F8170089580E0EF
:1017C000FCCFCF9384E090E00E94F42BC82F82E2FC
:1017D00090E00E94F42B982F8C2FCF910895AAE0CF
:1017E000B0E0E5EFFBE00C94752B02EB14E080EA2F
:1017F000C82E84E0D82E97E0E92E92E0F92E27E05B
:10180000922E3FE9A32E34E0B32E88248394D60190
:101810000D931D936D014AE050E0B701CE01019692
:101820000E94E42BF8013896DF01892D1D928A95DC
:10183000E9F789819A81D80111969C938E938F81C3
:1018400012968C9312978D8113968C93139788859B
:1018500014968C931497898515968C9315978B8184
:101860009C8117969C938E93169718961C921897A6
:101870008A8587FF3CC01E961C921E921D9780FF92
:1018800003C0D80118968C9281FF04C0F80190859E
:101890009260908782FF07C0D80118969C91189794
:1018A000946018969C9383FF04C0F801908598601B
:1018B000908784FF07C0D80118969C911897906173
:1018C00018969C9385FF04C0F8018085806280870C
:1018D000015F1F4FFAE0EF0EF11C87E5E81682E08A
:1018E000F80609F094CF2A96ECE00C94912BF801BD
:1018F000B686A586C4CFAAE0B0E0E1E8FCE00C948F
:10190000792BEFE4F4E080E5DF011D928A95E9F799
:10191000EBE9F5E088E3DF011D928A95E9F78FE4B2
:10192000C82E84E0D82E7F0107EB11E0F701D182A9
:10193000C0824AE050E0B801CE0101960E94E42B3B
:1019400088E0FE013196D60101900D928A95E1F76B
:1019500089859A85D70113969C938E931297BAE046
:10196000CB0ED11CE7E0EE0EF11C065F1F4F0730D7
:10197000F2E01F07D9F62A96E8E00C94952B68EE62
:101980007EEF90E080E00E94202C60E082E090E01A
:101990000E94022C60E083E090E00E94022C1092F2
:1019A000000260E084E090E00E94022C64E082E2A9
:1019B00090E00E94022C60E085E090E00E94022C02
:1019C00060E086E090E00E94022C6FEF87E090E0FC
:1019D0000E94022C40E050E0BA0188E090E00E94B2
:1019E000142C60E08DE090E00E94022C40E050E07A
:1019F000BA0188E190E00E94142C60E087E190E059
:101A00000E94022C40E050E0BA018CE190E00E947C
:101A1000142C70E060E080E290E00E94202C40E016
:101A200050E0BA0188E190E00E94142C80E00E940E
:101A3000E8090E948F0A40E050E0BA018FE090E090
:101A40000E94142C40E050E0BA0183E190E00E9433
:101A5000142C08951F920F920FB60F9211242F93FA
:101A60003F934F935F936F937F938F939F93AF9326
:101A7000BF93EF93FF938091E10082FF09C08091B3
:101A8000E20082FF05C08091E1008B7F8093E1003E
:101A90008091DA0080FF24C08091D80080FF20C0B0
:101AA0008091DA008E7F8093DA008091D90080FFE8
:101AB0009DC080E189BD82E189BD09B400FEFDCFF2
:101AC00081E08093160680910006811109C00E9472
:101AD0001D030E9410048091E20084608093E20064
:101AE0008091E10080FF17C08091E20080FF13C069
:101AF0008091E2008E7F8093E2008091E20080611D
:101B00008093E2008091D80080628093D80019BC55
:101B100085E0809316068091E10084FF2BC08091C0
:101B2000E20084FF27C080E189BD82E189BD89B5DB
:101B3000982F917080FFFBCF8091D8008F7D80938C
:101B4000D8008091E1008F7E8093E1008091E200D7
:101B50008F7E8093E2008091E20081608093E200BA
:101B600080910D06882309F447C084E0809316060F
:101B7000809116068091E10083FF27C08091E200EA
:101B800083FF23C08091E100877F8093E10082E0A2
:101B90008093160610920D068091E1008E7F80934F
:101BA000E1008091E2008E7F8093E2008091E2006C
:101BB00080618093E20042E060E080E00E94DE030A
:101BC0008091F00088608093F000FF91EF91BF91C9
:101BD000AF919F918F917F916F915F914F913F91C5
:101BE0002F910F900FBE0F901F90189519BC109257
:101BF00016061092000674CF8091E30087FD93E0F3
:101C000090931606B5CF78941F921FB61F92112499
:101C10008F939F93AF93BF938091F9059091FA05AD
:101C2000A091FB05B091FC050196A11DB11D80930B
:101C3000F9059093FA05A093FB05B093FC05BF91BD
:101C4000AF919F918F911F901FBE1F9018959C017F
:101C50004FB7F8948091F9059091FA05A091FB0592
:101C6000B091FC054FBF821B930B08952FB7F894DA
:101C70008091F9059091FA05A091FB05B091FC05C2
:101C80002FBF08954F925F927F928F929F92AF9253
:101C9000BF92CF92DF92EF92FF920F931F93CF9359
:101CA000DF93CDB7DEB728970FB6F894DEBF0FBE2F
:101CB000CDBF8E010F5F1F4F88E0F80111928A950A
:101CC000E9F79FE4E92E91E0F92E25E5C22E21E007
:101CD000D22E77247394AA24A394B12C4DE5842E9C
:101CE00041E0942EF70181917F018F3F09F447C0B5
:101CF000F894E82FE295EF70F0E021A18F70A50134
:101D000002C0440F551F8A95E2F7CA01922F982B03
:101D100091A392A18095892382A3789400C085E540
:101D2000482E81E0582ED801672D6095F20151911F
:101D30002F014D919D01215031095F3F09F45DC094
:101D4000852F82958F7090E0FC0180A190E05F70FC
:101D500002C0959587955A95E2F780FD4EC04729B8
:101D6000F90140838414950409F7F70131978081C4
:101D70008F3F11F00E94F005F0EAFA95F1F7770C29
:101D8000CE14DF0409F0AECF48E050E0B80184E0A3
:101D900092E00E94D02B892B91F188E0F801A4E019
:101DA000B2E001900D928A95E1F781E08093030201
:101DB0000E94360E909302028093010280910102EC
:101DC000909102020E94270E0597E8F048E050E04B
:101DD00064E072E087E494E00E94D02B892B51F1FB
:101DE00088E0E4E0F2E0A7E4B4E001900D928A9587
:101DF000E1F781E01092030207C04623B1CF809142
:101E000003028111DBCF80E028960FB6F894DEBF85
:101E10000FBECDBFDF91CF911F910F91FF90EF903B
:101E2000DF90CF90BF90AF909F908F907F905F900A
:101E30004F90089580E0DECF8091FC0190913805AD
:101E4000892B809386018091FF01882319F10E94DC
:101E5000360E2091FD013091FE01821B930B8838D4
:101E6000934110F00E94CB07809186019091FF0171
:101E7000892B8093860120E088E891E0FC01319174
:101E8000CF0131112F5FF1E08E389F07B9F7211193
:101E90000E94CB078091EB05809590918601892364
:101EA0009091EC05892B8093860148E050E064EF27
:101EB00071E086E891E00E94D02B892BA9F088E0A0
:101EC000E6E8F1E0A4EFB1E001900D928A95E1F728
:101ED000E091F405F091F505309731F00280F3813F
:101EE000E02D86E891E00995089590E080E00E9459
:101EF0001B0590E080E00E940505109238050E94C5
:101F00001C0F0895809317060E94750F0895809105
:101F10001706982F9670963021F488600E94820FE1
:101F20000895877FFBCF21E030E001C0220F8A9522
:101F3000EAF720958091170682230E94820F089568
:101F40009091F301809589238093F301282F2770C6
:101F500091F4282F082E000C330B9217130659F01A
:101F600090910D0292FF07C08595859585950E94F9
:101F7000930F0E94DD070895CF93C0910D02C2FB1D
:101F8000992790F9981791F080FBC2F9C0930D0240
:101F900060910C0284E090E00E94022C6C2F82E29F
:101FA00090E00E94022C82E00E94A00FCF91089541
:101FB00021E030E001C0220F8A95EAF780911706F0
:101FC000822B0E94820F0895809300020E94750F59
:101FD00008951092FC01E8E8F1E086E0DF011D922F
:101FE0008A95E9F70E94750F0895AAE2B0E0EBEF39
:101FF000FFE00C947E2B8EE096E02091F100DC0156
:102000002D93CD01B6E086319B07B9F780910F067D
:10201000833009F472C0B8F4813009F449C08230C9
:1020200009F4B3C08091E80083FF96C280910E0648
:1020300090910F069A3008F08FC2E92FF0E0E05C33
:10204000F34D0C94BA2B8A3009F48EC08B3009F40E
:1020500071C0893039F780910E06813219F780916D
:10206000120690911306009711F00297D9F680910D
:10207000E800877F8093E8008091E80082FF38C005
:102080009091F3008091F200029731F48091F10079
:10209000813011F0863021F48091F10080930206A6
:1020A0008091E8008B778093E8000E94BF03BACF4D
:1020B00080910E06813A09F0B5CF8091E800877FC4
:1020C0008093E8008091120690911306892B61F4A9
:1020D00068E083E096E070E00E946B048091E80085
:1020E0008B778093E8009ECF60E090E080E0F3CFB4
:1020F000809116068111C0CF95CF80910E06813A4E
:1021000009F090CF8091120690911306892B09F067
:1021100089CF8091E800877F8093E8008091E80074
:1021200080FFFCCF809115018093F1008091E80041
:102130008E77B9CF80910E06813209F073CF8091EE
:10214000120690911306892B09F06CCF8091E8005C
:10215000877F8093E8000E94BF03809110068093E0
:1021600015010E94E90F5ECF80910E06813209F0C1
:1021700059CF8091E800877F8093E8000E94BF03D9
:1021800080911106809301064DCF80910E06813A11
:1021900009F048CF8091E800877F8093E800809124
:1021A000E80080FFFCCF80910106BECF803899F017
:1021B000823809F0D1C1809112068F70873008F003
:1021C000CBC18093E9008091EB0085FB882780F9E3
:1021D0001092E90006C080910B0690910C069111B7
:1021E00082609091E800977F9093E8008093F100DF
:1021F0001092F1008091E8008E77AAC1882309F43B
:1022000098C1823009F0A8C18091100681119BC14C
:10221000809112068F702FEF280F263008F09CC196
:102220008093E9002091EB0020FF8DC1933031F4C1
:102230008091EB0080628093EB0085C19091EB0070
:1022400090619093EB0021E030E001C0220F8A956D
:10225000EAF72093EA001092EA008091EB00886090
:10226000EACF811179C1109110061F778091E300A8
:102270008078812B8093E3008091E800877F8093B2
:10228000E8000E94BF038091E80080FFFCCF8091AE
:10229000E30080688093E30082E0111183E0809383
:1022A00016065AC18058823008F056C12091100697
:1022B000309111062C3DE3E03E07A1F583E08A83CF
:1022C0008AE289834FB7F894DE01139620E03EE05E
:1022D00051E2E32FF0E050935700E49120FF03C058
:1022E000E295EF703F5FEF708E2F90E0EA30C0F024
:1022F000C7968D939D932F5F243159F74FBF8091DF
:10230000E800877F8093E8006AE270E0CE010196E2
:102310000E946B048091E8008B778093E8001CC1D9
:10232000C096E7CF8091120690911306432F552750
:102330004330510509F44AC078F54130510509F49C
:1023400085C08BE590E0ECE9F4E04230510509F0FE
:1023500003C12091E800277F2093E8002091140614
:10236000309115068217930708F49C0140E021156F
:10237000310509F070C041116EC08091E80082FD06
:10238000C9CF80911606882329F2853019F28091F1
:10239000E80083FFF2CFBECF4132510509F447C0B8
:1023A0004232510509F0D8C08330910508F0D4C0FD
:1023B000FC01EE0FFF1FE858FE4F0190F081E02D69
:1023C0008B589E4FDC018C9190E01DC0332721304B
:1023D0003105E9F02115310579F022303105F9F0A8
:1023E0002330310509F0B8C0E9E0F5E0E4918E2F23
:1023F00090E0E9E0F5E007C0E7E4F5E0E4918E2F36
:1024000090E0E7E4F5E0009709F4A6C0A2CFE3E38B
:10241000F5E0E4918E2F90E0E3E3F5E0F4CFE7E21E
:10242000F5E0E4918E2F90E0E7E2F5E0ECCF833029
:10243000910508F091C0880F991FFC01E258FE4FEA
:102440000190F081E02D89E090E083CF82E190E07F
:10245000E7EFF4E07ECF80911606882309F45ACF87
:10246000853009F457CF8091E80083FD53CF8091E8
:10247000E80082FD82CF8091E80080FF78CF9091C4
:10248000F3008091F2002115310519F08830910593
:1024900050F041E0089709F040E08091E8008E7725
:1024A0008093E80064CF44914093F100319621502D
:1024B00031090196E8CF803809F04EC08091E800DC
:1024C000877F8093E80080910D068093F10092CE83
:1024D000811142C0109110061230F0F58091E80091
:1024E000877F8093E80010930D060E94BF0311239D
:1024F00011F084E005C08091E30087FDFACF81E010
:102500008093160642E061EC81E00E94DE0342E225
:1025100061EC84E00E94DE0342E261EC82E00E9412
:10252000DE0342E260EC83E00E94DE038091160647
:1025300013C080911006813079F481E0933009F066
:1025400080E080930C061092E9008091E800877F7C
:102550008093E8000E94BF038091E80083FF0AC0D7
:102560008091E800877F8093E8008091EB00806293
:102570008093EB00AA96E3E00C949A2B1F920F92A3
:102580000FB60F9211242F933F934F935F936F9346
:102590007F938F939F93AF93BF93CF93DF93EF93EB
:1025A000FF93D091E900DF708091EC00C82FC170DB
:1025B00080FDC0E81092E9008091F000877F809351
:1025C000F00078940E94F50F1092E9008091F000DD
:1025D00088608093F000CD2BCF70C093E900FF910D
:1025E000EF91DF91CF91BF91AF919F918F917F91AB
:1025F0006F915F914F913F912F910F900FBE0F9070
:102600001F9018950E94E90F2FEF84E39CE0215062
:1026100080409040E1F700C0000088E19AE00FB6EA
:10262000F894A895809360000FBE90936000FFCF50
:10263000882341F08095909138058923809338054F
:102640000E941C0F0895882339F090913805982B2B
:10265000909338050E941C0F0895882321F00E9452
:10266000D6070E941C0F0895882339F09091FC0131
:10267000982B9093FC010E941C0F0895882339F138
:102680009CEF980F913A28F40E94E4070E941C0FD7
:10269000089590E2980F983050F4877091E001C04F
:1026A000990F8A95EAF7892F0E94D607EFCF9BE50D
:1026B000980F933028F490E080E00E941B05089565
:1026C000885A873120F490E080E00E940505089543
:1026D000FF920F931F93CF93DF93F82E0091F00595
:1026E0001091F1050115110509F449C01092EF058B
:1026F0001092EE051092EB051092EC05D80116969B
:10270000CD91DC919E013A9521153F4108F4D07E90
:10271000D1E0C11101C0D0E0D8011996ED91FC9132
:102720001A97309731F01B966D917C9180E0099556
:10273000D823DD2339F08CEF8C0F813A30F58C2FC4
:102740000E94E407FF2099F0E091F005F091F10577
:10275000808584FD0CC08091ED05882341F0808147
:1027600091819C0121503109203B3D45A0F00E9400
:102770001C0F1092F1051092F0051092ED05C801A2
:10278000CDB7DEB7E5E00C94982B0E941C0F8C2F80
:102790000E943E13D7CF0E943E05E9CFCF93C82FAA
:1027A0008823A9F08CEF8C0F813A98F4E8E8F1E0E7
:1027B0008EE891E02191C217B9F18E179F07D1F7EA
:1027C0006C2F86E891E00E94EB040E941C0FCF91D1
:1027D000089580E28C0F883068F4C77021E030E003
:1027E00001C0220FCA95EAF78091FC01822B8093E9
:1027F000FC01EBCFEBE5EC0FE33040F4F0E0E25E00
:10280000FE4F808190E00E941B05E1CFC85AC7317E
:10281000F0F6EC2FF0E0EE0FFF1FEF5DFE4F808132
:1028200091810E940505D3CF8C2F0E94E4070E945E
:102830001C0FC6CF1F93CF93DF93182FD0E0C0E0BB
:10284000893311F4C0E5D0E0812F0E94CE13209788
:1028500039F4812F0E943E13DF91CF911F9108958B
:102860008FE99FE00197F1F700C000002197EFCFBB
:102870000F931F93CF93DF93C62FD42F022FFC010A
:1028800082818823A9F060931A060E94360E9093E5
:10289000190680931806C77081E001C0880FCA9599
:1028A000EAF70E943413DF91CF911F910F910895A1
:1028B00080911A06681332C080911806909119060B
:1028C0000E94270E883C910548F510E21D0FCD1798
:1028D000B9F080E28C0F883040F4C77081E001C00D
:1028E000880FCA95EAF70E942D13183048F481E04A
:1028F0009D2F977001C0880F9A95EAF70E943413B4
:10290000802F0E941A14183070F6D77081E001C031
:10291000880FDA95EAF70E942D13C5CFC77081E0C2
:1029200001C0880FCA95EAF7F6CFB0E0A0E0EBE966
:10293000F4E10C94772BEC018AE0A82E2881222365
:1029400009F48FC02130C9F599818A81913021F431
:1029500022960E941A1405C0923029F422960E94F1
:10296000CE132196EBCF933021F422960E943E1392
:10297000F8CF943011F02196F4CF229630E020E089
:10298000AE014F5F5F4F8053990B8A30910550F035
:102990002150310930F38FE99FE00197F1F700C032
:1029A0000000F6CFA29EB001A39E700D11249C01E1
:1029B000260F371F8981EA01E3CFE22FF0E0E558C7
:1029C000FA4FB490822F86958695869590E0FC010B
:1029D000E559FA4FE4902770F12C022E02C0F594CD
:1029E000E7940A94E2F731E0E322FF24FC01E55A80
:1029F000FA4FC490D12C022E02C0D594C7940A94E9
:102A0000E2F731E0C322DD24FC01E55BFA4F0491DB
:102A100010E002C0159507952A95E2F7017011277D
:102A2000E114F10419F081EE0E94CE13C114D10417
:102A300019F086EE0E94CE138B2D0E941A14C11439
:102A4000D10419F086EE0E943E13E114F10419F04E
:102A500081EE0E943E130115110509F482CF8CE22C
:102A600078CFCDB7DEB7EAE00C94932BCF93DF930A
:102A7000EC010E9488089E01205E31092830310552
:102A800010F0209741F40E9434138C2F0E94CE1333
:102A9000DF91CF9108950E942313F7CF90910D02FB
:102AA00092FF10C098E0899F90011124622B6093DF
:102AB000F3010E94D80F0E94360E9093F20180938A
:102AC000F10108950E94D80F0895A9E1B0E0EBE666
:102AD000F5E10C946F2B498B5A8B6B8B7C8B8D8B18
:102AE0006111109238051D861E861F86188A85E0A2
:102AF000FE017196DE01199601900D928A95E1F71B
:102B000080910D0282FF1CC00E94360E2091F101BF
:102B10003091F201821B930B8838934120F0809111
:102B2000F30182FFEBC10E94360E2091FD0130912E
:102B3000FE01821B930B8838934110F00E94CB0753
:102B40008C859D85892B31F089859A8589238F3FD6
:102B500009F0C0C129853A854B855C856D857E85E8
:102B60008F8598890E94CE20C3C048EFC4164CE5DB
:102B7000D40629F4882379F00E949421EBCF69EFE1
:102B8000C6166CE5D60639F4882329F08091140125
:102B90008111F2CFAFC10BE915E0E12CB12CA12CD2
:102BA00088248394912C2EEF522E44244394F801D0
:102BB0004081518166246A94762C20E0822F90E037
:102BC000FC01EE0FFF1FE40FF51F6081718161159D
:102BD000710531F0C616D70609F43C012F5FEECF20
:102BE000F12CFFEF6F167F0609F444C0F801448111
:102BF000F09014018F2D411180E0F82FF170FF2E1D
:102C0000F801258086819B85992309F4F2C0FF2075
:102C100009F4EFC0211014C0A401062C01C0440F18
:102C20000A94EAF7842B86838091360590913705C4
:102C3000C29730F462E370E0709337056093360515
:102C4000C40102C0880F991F2A95E2F70197F80185
:102C500026812817190671F48091DD059091DE0513
:102C6000009709F449C00E94270EC39708F444C096
:102C7000F8014482EF28FFEFAF1ABF0A095F1F4F28
:102C800028E0A216B10409F092CF8B85882309F4BD
:102C90000CC1EE2009F409C10E94360E9093DE05A6
:102CA0008093DD0580913A05883010F591E0980F0A
:102CB00090933A0598E0FE013996DE011196019055
:102CC0000D929A95E1F73CE0839FC0011124855C49
:102CD0009A4F28E0FE013196DC0101900D922A9571
:102CE000E1F72FEF3FEFFC0131872087D386C286C3
:102CF0006996E2E10C948B2B8091DB055091DC0509
:102D0000982FF0E0E0E0851314C09093DB050E17D8
:102D10001F0709F4AFCF90E0FC01EE0FFF1FED524B
:102D2000FA4FB182A0820196837099278093DC05C7
:102D3000A1CF282E312CF101EE0FFF1FED52FA4FDB
:102D400020813181F7E0F29FD001F39FB00D112473
:102D5000A556BA4F2D913C911197398F288F40E09D
:102D600020E030E0E32FF0E0EE0FFF1F688D798D5B
:102D7000E60FF71F6080718061147104E1F0F801C3
:102D80000190F081E02DFF8BEE8B20E005C06616F0
:102D9000770609F44F2D2F5FE22FF0E0EE0FFF1FB3
:102DA0006E897F89E60FF71F60817181611571055A
:102DB00071F73F5FD7CF4423C9F0F801231708F01C
:102DC000FD014482E017F10721F49093DB05F42E16
:102DD00051CF981305C0EA17FB0711F49F5F93705A
:102DE00091012F5F3F4F822F83708DCFF0E0E0E0A5
:102DF000F7CF90E0211020C0B40102C0660F771F0A
:102E00002A95E2F79B01215031098217930731F48B
:102E1000442309F448C0C5010E94AF05C401062C33
:102E200001C0880F0A94EAF7982F9095F8018681DF
:102E300089238683F22C1ECF9C01062C02C0359577
:102E400027950A94E2F7A90141705527BC0161500A
:102E5000710986239723892B11F5452B01F1F80180
:102E600082819381892BC1F01B821C821D821E826C
:102E700059825A820E94360E8160582F9D838C831E
:102E8000F801828193818F83988729813A814B81D0
:102E90006D817E810E94CE20F8011582BFCFF22F76
:102EA000F1702F2EBBCF2F2CB9CF9091DB058091E5
:102EB000DC05981731F00E94A321EE2009F44ACED8
:102EC00017CF0E943E211092DE051092DD050E9470
:102ED000DD05F3CF61E0CE0109960E94980B6C01ED
:102EE0008B85F7EFCF16FCE5DF0609F03ECE882391
:102EF00009F451CE81E0809314012CCE82E00E942F
:102F0000A00F11CEA5E0B0E0E8E8F7E10C947D2B2E
:102F10008C0190932D0580932C05011580E21807F4
:102F2000C0F4802F0E943E13C8010E9488089801B7
:102F3000205E31092830310518F00115110531F4F2
:102F40000E942D132596E4E00C94992B0E941813EF
:102F5000F9CF80EF89838A831B820E94360E8160BD
:102F6000782F9D838C8349815A816B818D810E944A
:102F70006515E8CFA5E0B0E0E0ECF7E10C947F2B1D
:102F800090932D0580932C05811520E2920730F453
:102F90000E9436152596E2E00C949B2B80EF8983E6
:102FA0008A8381E08B830E94360E8160782F9D8317
:102FB0008C8349815A816B818D810E946515EACF8E
:102FC000A7E0B0E0E6EEF7E10C946F2B7C01DC01AA
:102FD00013968D919C911497892B39F08C911196B1
:102FE0009C9189238F3F09F0C1C52796E2E10C949B
:102FF0008B2BC80182519F45409708F095C58FEFF4
:1030000093E00E94F42B8111A8C06EEED62ED00E54
:1030100007E512E0D11036C019821A821B821C8289
:1030200099249A946801EFEFCE1ADE0AC8010E9433
:10303000F42B89831A82882309F48FC0813009F028
:1030400081C05801F2E0AF0EB11CC6010E94F42B02
:10305000C82E8A83882309F480C0C5010E94F42BFE
:10306000D82E8FEF8C0D8330D8F4580123E0A20EB8
:10307000B11CDB82DD2021F0CE0101960E94951467
:103080008501D0CF0115B4E01B0709F466C0C80163
:103090000E94F42B811101C0DA940F5F1F4FBACF49
:1030A0008BEF8C0D833040F5C8010396DB825C0109
:1030B000DD2031F3580134E0A30EB11C0E94F42B43
:1030C0008C838823E9F20B811C8101304FEF1407B8
:1030D00010F0102F002756E0C51651F087E0C816F3
:1030E00019F0C8010E94BA17C8010E948217C8CF00
:1030F000C8010E94BA17C4CF94E0C912C1CF5801C9
:10310000A4E0AA0EB11CC80103960E94F42BDD2096
:1031100021F1882311F18150990B989E9001999E7D
:10312000300D1124ED2DE150FF0BCF01820F931FC5
:10313000019708F4A5CFAFE9BFE01197F1F700C000
:103140000000F6CFCE0101960E949514560198CF4B
:1031500081E00E94D80F0E94870F8091F301877051
:1031600009F443CFD70112968C91882309F43DCFFF
:1031700080910D0282FF39CF82E00E94A00F35CFEF
:1031800081E00E94930FE7CF82E0E3CF82E0F9CFA6
:1031900081E080930001E1CF809548221EC5552033
:1031A00009F447C410938F0100938E010E94DF043D
:1031B0006093E7057093E8058093E9059093EA052D
:1031C0001092EF051092EE0508C582FB882780F962
:1031D00047C5552001F1817043C50E943E13A2C529
:1031E0000497813A910558F46A2D86E891E00E948F
:1031F000EB04552009F404C40E941C0FAECF0E94BA
:103200001C0F8FE39CE90197F1F700C000008A2DA5
:103210000E94CE13EECF9D819F5F9D83F6C4FC017B
:10322000208131810217130709F0E3C35110E3C372
:103230001092ED0580E00E946813E2C3053F4CE563
:103240001407C9F0A0F027E245EE66EE063F8CE5D4
:10325000180709F018C4C7010E9438147ECF27E26E
:1032600045EE65EEF8CF26E241EE60EEF4CF27E2C0
:1032700045EE64EEF0CF26E241EE62EEECCF28E2BE
:1032800041E0EFCF053AFDE51F0709F413C4D0F480
:1032900001363DE5130709F40DC406314CE514076A
:1032A00009F074C58091FC018A7A91E009F490E0FC
:1032B0009093900169E2811165E386E891E00E94B4
:1032C000EB049ACFC8018D5A9D45039730F7F2C39E
:1032D00080910C02806207303CE51307B9F18091C0
:1032E0000C02806108304CE5140780F180910C02DB
:1032F00080642CC00D305CE5150709F4C0C090F463
:1033000080910C028E7F0B309CE51907F9F08091BB
:103310000C028C600C30ACE51A07C0F080910C02F6
:103320008D7F14C00F30BCE51B0709F4B8C008F44A
:10333000AAC00031FCE51F0709F4B5C080910C025A
:103340008F7B01312CE5120709F0DEC380930C025C
:10335000DBC30F3F3CE5130709F4B3C0A8F50A3FF0
:103360005CE5150709F479C0C0F404319CE5190740
:1033700009F4B5C008F4A1C00531BCE51B0709F08C
:10338000C3C380910C0282FB992790F921E0922718
:1033900090FB82F990FB83F9D9CF0C3FECE51E0737
:1033A00009F475C008F45DC00D3F2CE5120709F45F
:1033B00072C080910D0283600E3F3CE5130709F057
:1033C000A3C380930D02A0C301364DE5140709F491
:1033D00091C090F401308DE5180709F489C008F414
:1033E00074C060E00230ADE51A0709F08DC38EE0CD
:1033F00090E00E94022C88C30D3ABDE51B07E9F05E
:1034000060F490910C02892F8E7F90FF8160053AC5
:10341000FDE51F0709F49ACF77C30E3A2DE5120791
:1034200051F10F3A3DE5130709F06EC390910D027B
:10343000892F877F93FF8860C4CF80910D028860B9
:10344000C0CF80910C02826081CF80910C02846099
:103450007DCF80910C02886079CF80910D028160D0
:10346000B0CF80910D028260ACCF0E94E90F8091B5
:103470000C0280686BCF80910D02877FA2CF809174
:103480000C028B7F63CF80910C02877F5FCF80918E
:103490000D028E7F96CF80910D028D7F92CF80910D
:1034A0000C028F7E53CF80910C028F7D4FCF0E94F4
:1034B000E90F80910C028F7749CF80910C02837FB6
:1034C00045CF80910D028C7F7CCF80910D02982F8B
:1034D000909591708E7F892B90FB81F972CF0E941D
:1034E000E90F90910C02892F97FB87F980582ECF16
:1034F00061E07DCF90910C02892F8F7E94FF8061D7
:1035000025CF85E3E8C30E94E90F5FEF84E39CE0E9
:10351000515080409040E1F700C000000E94CE046E
:1035200080910D0282FB882780F991E089270E9413
:10353000BC0FF701868197810097C1F10E944A066E
:103540008C01F701C280B580B2943FE0B322809134
:10355000F3018770C1F0AC2CCC20B1F0812F807FBB
:10356000803421F080E2800F883068F080910D0275
:1035700082FF09C082E00E94A00F8091F301877052
:10358000AA24A3948111A12C912E92942FE092222F
:10359000FBE0F91508F488C0E92DF0E0E65BF34D97
:1035A0000C94BA2B81E0C3CF80E0C1CF828100812F
:1035B0001181882369F0C8010E942B0BD82E682F37
:1035C000C8010E946C08B8018D2D0E94010BB6CF76
:1035D000C8010E942208D82EF6CF212F2F70D22E9C
:1035E000107F19F0D29490EFD922CC20B9F0DD20D1
:1035F00069F080E2800F883010F0011109C08091DD
:10360000FC01D82AD092FC010E941C0F802F4AC0D6
:1036100080913805D82AD0923805F6CF802F0E94A5
:103620003E13DD2009F440C080E2800F883010F0A6
:10363000011104C08D2D0E94D60706C0D094809140
:103640003805D822D09238050E941C0F2DC0312F8A
:103650003F70D32E107F103219F0D29480EFD82211
:10366000002381F0013009F495C0CC2009F49EC0FC
:10367000BB2009F46BC0F701858180FFC7CF8F7035
:10368000858364C080910D0282FD39C0CC2089F110
:10369000DD2039F08091FC01D82AD092FC010E94F3
:1036A0001C0F80E00E94CE13292D2850330B2430AC
:1036B000310510F40E943105AA20B1F08091F30188
:1036C00080FD12C0D70112961C928595859585952F
:1036D0000E94D80FC7010E94E0178091F3018595E1
:1036E000859585950E94930F60E0C7010E94980B15
:1036F0007CCC80E00E943E13DD20B1F29BCFCC2039
:1037000049F1B11004C08091FF018D2920C041E032
:10371000B41210C082FFC8CF8091FF01D82AD816FA
:1037200019F20E94360E9093FE018093FD01D09213
:10373000FF01BACF55E0B512E6CF0E94CB079091BA
:1037400091018D2D892B8913809391018D2D0E94DC
:103750003413AACFB11003C00E94CB0712C081E07E
:10376000B81213C08091FC018D2109F49DCF0E94F5
:10377000CB07909191018D2D80958923891380939A
:1037800091018D2D0E942D138FCF95E0B91609F46C
:103790008BCFE2CFCC2029F0A5E0AB1508F484CF85
:1037A000D5CFB4E0BB1508F47FCFEBCFBB2049F3F6
:1037B000093349F4FFEF27EE33E0F1502040304069
:1037C000E1F700C00000802F0E943E136DCF812FD3
:1037D00086958695837061F0813009F065CFC801C8
:1037E0009370C11002C090E080E00E9405055CCF9C
:1037F000C8019370C11002C090E080E00E941B05D8
:1038000053CF812F837089F5C1104ECF402F429541
:1038100046954770440F440F802F8F70042E01C0CF
:10382000880F0A94EAF7202F207104FF07C02FE0C9
:1038300030E001C0220F4A95EAF7209516951695BB
:103840001370123069F050F430910002113029F0F9
:10385000822B83230E94E40F27CF832B822BFACF66
:10386000282B809100028227F5CF8695CC2011F07D
:10387000812F8170882309F417CF402F42954695F8
:103880004770440F440F802F8F70042E01C0880FA3
:103890000A94EAF7202F207104FF07C02FE030E0E0
:1038A00001C0220F4A95EAF72095169516951370D8
:1038B000123069F050F430911706113029F0822B44
:1038C00083230E94820FF0CE832B822BFACF282BEA
:1038D000809117068227F5CF1F70CC2029F0812F09
:1038E0000E94D80F802F33CF802F0E942D13812F5D
:1038F0000E94930FD9CE023F89F160F4003FB9F0E6
:10390000013F81F0CC2009F464C0B1107FCE812F3B
:103910008F7128C0033F49F1043FA1F780910D0248
:1039200082FD2FC0812F8F71CC2011F31BC0CC20C2
:1039300081F044E04B1508F4B7CE1F7181E090E0B0
:10394000012E01C0880F0A94EAF790911706892783
:10395000B8CF55E05B1508F4A7CEEFCF812F8F715C
:10396000C110C6CF0E94D80F9FCE80E0CC2009F4B2
:10397000A8CF1F7181E0012E01C0880F0A94EAF7D9
:10398000A0CFCC20C9F08091F3018770843041F43E
:103990000E94DD07812F8F710E94930FA12C84CE8E
:1039A00084E08B15D8F31F71812F0E94D80F63E03C
:1039B000812F0E944E15F2CF94E09B1530F40E94A7
:1039C000DD0764E0812F8F71F4CF81E00E94A00FAA
:1039D000E5CFBB2059F0093309F0F5CEAFEFB7EED4
:1039E000E3E0A150B040E040E1F7EBCE812F8F71D2
:1039F0007FCF552029F0DC0118968C9185FF1ACCD9
:103A0000033FBCE51B0709F42ECC08F017CC083D9A
:103A1000FCE51F0709F423CC093D2CE5120709F446
:103A20002ECC073D3CE5130771F526E241EE61EE31
:103A300012CC80918E0190918F010817190781F4A3
:103A400010928F0110928E011092E7051092E805F6
:103A50001092E9051092EA051092EF051092EE051A
:103A60008091F0059091F105009751F2A8E08A1637
:103A7000910408F0D4CB642D0E948F058111C0CF32
:103A800081E00E946813D70112968C91882309F473
:103A900018C110921A060330BDE51B0708F0F2CBDF
:103AA0000A3FECE51E0730F4C80182509C4544975C
:103AB00008F0F3CB0E94E10B90930D0280930C026F
:103AC00002314CE5140709F4F2CC08F042CC09307D
:103AD0008CE5180709F4C9CC08F00CCC0530ACE52E
:103AE0001A0709F4B6CC08F0F3CB0330ECE51E0757
:103AF00009F4A7CC08F0A9CC80910C0281600230B7
:103B00002CE5120709F422CC60910C0210910D02F1
:103B100084E090E00E94022C612F82E290E00E94FB
:103B2000022C0E94E90F19CB0031FFE51F0709F4B1
:103B30000FCB01312FE5120709F426CB0F35EDE548
:103B40001E0709F425CB0036FDE51F0749F00E35A9
:103B50002DE51207F9F480910001882309F418CBB0
:103B60001092000180E00E946813F7CA61E0C7016B
:103B70000E94980B8C01D70112965C90511039CAA3
:103B800000313FE5130709F4FBCA01314FE5140783
:103B900009F4FCCA80910001882309F431CF48015F
:103BA00030EE831A91084090FF0180919101482ADC
:103BB0008091FC01482A48E08416910408F0EFCA7D
:103BC00098012770332781E090E001C0880F2A9583
:103BD000EAF7552009F4E0CA482AD7018D919C9153
:103BE0000E94220821E030E0190102C0220C331C9F
:103BF0008A95E2F7E091F005F091F105FF83EE83FD
:103C000060908E0170908F011D822D81E22FF0E077
:103C1000EE0FFF1FE056FB4FC080D180C114D104CE
:103C200009F41ECF411005C0D60112968C91811166
:103C3000F2CAF601838190E082219321892B09F455
:103C4000EACA8085982F977009F487E0F8E08F160C
:103C5000910408F0BECA552009F4B7CA8695817050
:103C6000882309F4D8CAD601AD90BC900A151B056B
:103C700019F4552009F4CFCAEE81FF81CE16DF0674
:103C800009F4C9CAD6011D96ED91FC91309721F037
:103C90008081882309F4BFCA642DC6010E948F0564
:103CA000882309F4B8CA0A151B05C1F401151105CA
:103CB000C9F0511019C0A614B70409F0ACCA512CB0
:103CC00013C00631BCE51B0709F033CC809190018D
:103CD000811117CC89E20E94E4078ECAA114B104B5
:103CE00051F7512CB12CA12C80E00E946813D09286
:103CF000F105C092F00581E08093ED05F601858124
:103D00008093EB0551100EC0AB2861F0F601808165
:103D100091819C0124503109213A310508F05DCA96
:103D20000E94E407D6011696AD90BC90C5019A9505
:103D300081159F4110F4E0EEBE2277247394C501F3
:103D40000197803B9D4508F0712CD6011996ED91A5
:103D5000FC911A97309731F01B966D917C9181E020
:103D600009957822772079F0F601868197810E9463
:103D700088088093EC05C501F8E08F16910408F0DF
:103D80002FCA0E943E050E941C0F33CA0A35EDE57A
:103D90001E0709F407CC68F401152CE5120709F495
:103DA000B2CB0E3D1C4509F0C4CB0E94BF0C0E9453
:103DB00002130C354DE5140709F4B2CB08F4F4CB2B
:103DC000073A1D45A1F3B5CBCF93DF938091AC01AA
:103DD000807F09F049C08091A901882309F444C07B
:103DE0008091F001D091AF016091A7017091A8017D
:103DF000A091AA01B091AB01C62FC723D817A1F19A
:103E000090E0109711F0CF3F19F401968770F6CF2C
:103E10009C0143E0220F331F4A95E1F7F901E05579
:103E2000FE4F41814713F1CF40814613EECF4281CF
:103E30004111EBCF438154814A1B5B0B483C510538
:103E400020F78091AC018F7080618093AC01F90103
:103E5000EB54FE4F80818F708061808387EA91E010
:103E60000E94E0170E94F107DF91CF910895A5E12C
:103E7000B0E0EDE3FFE10C94772B8C0185E0F801D5
:103E8000DE01519601900D928A95E1F7F801E280EA
:103E900067EAA62E61E0B62E6091AA017091AB018F
:103EA0006115710509F45CC19091A7014091A801C9
:103EB000892F84238F3F09F453C120813181C3802E
:103EC000D480F090A901F601E61BF70BFF2009F45E
:103ED00011C18091AC01582F507FE83CF10508F0EA
:103EE000C4C0511175C0FE2C43131EC092131CC0D8
:103EF0006091AD017091AE01F80146815781641760
:103F0000750791F4E11010C08F7080618093AC014F
:103F1000C5010E94E0178091AC01F80185838F2DC7
:103F20006596EAE00C94932BC114D10429F0822FFA
:103F300083238F3F09F02FC180E0F82FF170DF2E2F
:103F400080FF3CC08091F0014091AF01841315C007
:103F5000298B3A8B89899A890E945A0B292F22959D
:103F60002F702230F8F0243020F59F70F9F0F8011E
:103F70009581907FD9F4D12C1FC090E0FC0153E0D3
:103F8000EE0FFF1F5A95E1F7E055FE4F51813513B3
:103F900006C05081251303C05281E5120FC001965F
:103FA0008770D4CF9F7011F0882329F3805E88300A
:103FB00010F3C8010E94E017FD2CB1CFEE2009F4E8
:103FC000AECF8091AC0181608093AC01F12CA7CF82
:103FD00043131BC0921319C04091AD015091AE0123
:103FE000F801268137814217530779F4E1100DC09B
:103FF0008583C8010E94E01788E0F801A7EAB1E0D4
:1040000001900D928A95E1F78ACFC8010E94670B53
:10401000882339F1EE2029F18091AC018032A0F0A3
:104020002091A7013091A8013A8729871B86DD8658
:10403000CC868E878091AD019091AE01988B8F8751
:10404000CE0109960E94E01788E0F801A7EAB1E0E6
:1040500001900D928A95E1F70E94E41EFF24F394EB
:104060005ECFC8010E94E017F9CF51110AC087EA5C
:1040700091E00E94E01788E0F50111928A95E9F736
:10408000A5CF431318C0921316C04091AD015091B3
:10409000AE01F801268137814217530761F4E11020
:1040A0000AC08583C8010E94E01788E0F5011192DB
:1040B0008A95E9F734CFC8010E94670B882389F2FB
:1040C000EE2079F28091AC01803208F4BDCF2091CE
:1040D000A7013091A8013A8329831B82DD82CC821B
:1040E0008E838091AD019091AE0198878F83CE0130
:1040F0000196A8CFE83CF105C0F6FE2CEE2009F4AD
:10410000B0CF43131FC092131DC02091AD01309159
:10411000AE01F801868197812817390799F49091AB
:10412000AC0190FD69CF907F09F466CF8091AC011E
:104130008583903F09F45DCF982F907F905F8F70BB
:10414000892B56CFC8010E94670B81117DCF8091CA
:10415000AC0181608093AC01C8010E94E017DFCE02
:10416000EE2009F47ECFC8010E94670BF82E882349
:1041700009F477CF88E0F801A7EAB1E001900D9249
:104180008A95E1F78091A7019091A8010E945A0BAE
:104190000E94E41EC4CE81E08E25CFCEA0E1B0E027
:1041A000E4EDF0E20C947F2B29873A874B875C87FC
:1041B0006D877E878F87988BCE0109960E94371F67
:1041C000811112C088E0FE013996DE01119601903E
:1041D0000D928A95E1F78C859D85892B29F089853B
:1041E0009A8589238F3F81F58091F0019091AF01ED
:1041F000891317C06096E2E00C949B2B93E0AA0F02
:10420000BB1F9A95E1F7A055BE4F98E0FE0131968D
:1042100001900D929A95E1F78093AF010E94F1070A
:10422000E3CFB8E08B9FC001112480559E4F0E94C0
:10423000371F8823F9F28091F00190E00196877092
:1042400099278093F001D0CFA091AF01B0E0CD01CC
:104250000196877099272091F0012817190671F6A9
:104260000E94E90F1092AF011092F00188E0E7EA96
:10427000F1E0DF011D928A95E9F7B6CF0F931F9306
:10428000CF93DF9380913A05E0913905CCE081111D
:104290001AC0DF91CF911F910F910895D1E0DE0FE9
:1042A000D09339050E2F10E0EC9FF0011124E55C4E
:1042B000FA4F83819481892B29F080819181892310
:1042C0008F3F51F4ED2F80913A05E81738F31092A3
:1042D0003A0510923905DDCFC09FD001C19FB00DC6
:1042E0001124A55CBA4F16968D919C911797892B36
:1042F00029F418968D919C91019651F42081318179
:104300004281538164817581868197810E94CE208C
:10431000C09FF001C19FF00D1124E55CFA4F14829B
:10432000138210923805CECF1092DE051092DD0573
:10433000109214018091DC058093DB050E94DD055D
:104340000E943E210895B0E0A0E0E9EAF1E20C9479
:10435000702BC091DB0597E0892E01E010E02CE086
:10436000322E3EEF932E442443948091DC058C132F
:1043700009C00E943E210E94DD05CDB7DEB7E1E114
:104380000C948C2BD0E0FE01EE0FFF1FED52FA4F84
:1043900080819181889ED001899EB00D1124A556FF
:1043A000BA4F14962C911497211158C050903A0589
:1043B000EBE3F5E030E020E0712C5D01251508F01D
:1043C0004BC0E284F384D501CD90DC906FEF7FEF9A
:1043D000612C462D50E0DA01AA0FBB1FAC0DBD1DAC
:1043E0000D90BC91A02D109731F0EA16FB0609F450
:1043F000BA016394EECF6F3F7607A9F1D80102C0EE
:10440000AA0FBB1F6A95E2F77A2AB801062C02C0F0
:10441000660F771F0A94E2F7AB01415051097416F9
:104420001506F9F4329EF001339EF00D1124E55C7F
:10443000FA4F889ED001899EB00D1124A556BA4F1F
:1044400012962D913C911397378326839082918207
:104450009187808715964C920E94AF052196C37074
:1044600084CF148213822F5F3F4F3C96A7CF1F92B9
:104470001FB61F9211248F939F93AF93BF93809188
:10448000F805811113C08091F9059091FA05A0916A
:10449000FB05B091FC054196A11DB11D8093F90566
:1044A0009093FA05A093FB05B093FC05BF91AF91E3
:1044B0009F918F911F901FBE1F901895CDB7DEB7AB
:1044C000CB54D1090FB6F894DEBF0FBECDBF85B770
:1044D000806885BF85B7806885BF84B7877F84BFC4
:1044E0000FB6F894A8958091600088618093600071
:1044F000109260000FBE80E890E00FB6F8948093B1
:104500006100909361000FBE8EEE95E0909385015F
:10451000809384010E947B0C0E94EF0B0E941D037C
:104520000E9410048091E20084608093E2007894FD
:10453000809116068823A1F01091E9001F709091D8
:10454000EC00892F817090FD80E8182B1092E90013
:104550008091E80083FD0E94F50F1F701093E90021
:1045600082E084BD93E095BD9AEF97BD80936E0085
:104570000E94C80B811102C00E948F0A0FE411E053
:1045800025E5E22E21E0F22ED8018D918D018F3F9D
:1045900011F00E94F005E016F106B1F705E511E013
:1045A000F80181918F018F3F11F00E94F005F1E039
:1045B0000D351F07A9F788E0E7E4F4E0DF01282FB5
:1045C0001D922A95E9F7E4E0F2E0DF011D928A9559
:1045D000E9F790E080E00E94FC2B883E9E4F21F49A
:1045E0000E94C80B811102C00E94BF0C82E090E0C3
:1045F0000E94F42B809310020E94E10B90930D0215
:1046000080930C020E94420EEFEFF6E721E0E150AA
:10461000F0402040E1F700C000000E94420E80916F
:10462000470480FF08C06FEF7FEF90E080E00E94BA
:10463000202C0E94CE0483E090E00E94F42B0E9484
:10464000E40F10923E0480E880931D020E946F2ABE
:104650006DE070E083E591E00E941A09892BC9F5AD
:1046600080913E0463E070E081FDBBC080E591E095
:104670000E941A09892B69F56DE070E080E491E0F1
:104680000E941A09892B29F50E94DF04605A75419E
:104690008F4F9F4F609330057093310580933205A3
:1046A00090933305EEE3F2E080E092E0DF019C01BD
:1046B0001D9221503040E1F78FEF9FEF909341041E
:1046C0008093400481E080933505809334051092F7
:1046D0003F0481E080931B0253985B9A52985A9A48
:1046E0008FE891E00197F1F700C0000020911B02D4
:1046F0004CE152E0FA018E2F841B821708F474C03B
:1047000081E091E09093F5058093F40587E494E0CF
:10471000A8E0A80F2A96AFAF2A978091160690E4DA
:10472000F92E00E112E1853009F4A3C00E94420E87
:1047300001E1A02E02E0B02E87E4C82E84E0D82E3E
:10474000D601F50191918D9132E0E931F30709F439
:104750009AC09817B9F310E0D6010D916D01F501DB
:1047600081915F018017A1F1982E9026F12CEE2403
:10477000E394892D8E2121F12596FFAE259726966B
:104780001FAF269791E0802F8E2109F490E02796A5
:104790009FAF27970E94360E8160782F29969FAF92
:1047A0008EAF299725964FAD259726965FAD269714
:1047B00027966FAD279729968FAD29970E9465158B
:1047C000F394EE0CF6E0FF12D4CFF501319700839D
:1047D0001F5F183009F0C0CF0E94DF04EE24E3947D
:1047E0007FC08DE491E044CF89B183FB882780F9B5
:1047F0004A9904C090E0892B81937DCF92E0FBCF52
:1048000080911606843029F10E9444091092F8051F
:10481000E8E1F0E00FB6F894A895E09360000FBED1
:10482000F092600083B7817F846083BF83B781602B
:1048300083BF7894889583B78E7F83BF0FB6F89433
:10484000A89580916000886180936000109260005C
:104850000FBE80910C06882361F00E94420EE7E4AF
:10486000F4E0819181111DC62A962FAD2A972E134F
:10487000F8CF80911606853009F4C2CF0E94E90F67
:104880000E94310553CF981366CF0E94360E8C01DB
:1048900080910E0290910F020817190701F18FEF16
:1048A0008FAF21968FAF219722961FAE22970E943D
:1048B000360E8160782F24969FAF8EAF24974FAD30
:1048C00021965FAD219722966FAD229724968FADEA
:1048D00024970E94651510930F0200930E02E12C9D
:1048E0008091EE059091EF05892B09F43EC040912F
:1048F000E3055091E4056091E5057091E6052FB759
:10490000F8948091F9059091FA05A091FB05B0917A
:10491000FC052FBF841B950BA60BB70B4091DF0541
:104920005091E0056091E1057091E20584179507CB
:10493000A607B707D0F08091EE059091EF050E9491
:1049400036151092EF051092EE051092E3051092C5
:10495000E4051092E5051092E6051092DF0510922D
:10496000E0051092E1051092E20580911401882380
:10497000F9F08091DD059091DE050097C9F00E9465
:10498000270E20913605309137052817390780F416
:104990009091DB058091DC059817B1F00E94A3216E
:1049A00010923705109236051092DE051092DD0543
:1049B000912CF12CA4E0AA2EB12CBDEF8B2E7724E4
:1049C00073941CEF612EA2C00E943E211092DE055E
:1049D0001092DD050E94DD05EBCF092D10E0E9B155
:1049E000E3FBEE27E0F94A9910C180E08E2BD80155
:1049F000A45EBD4FEC919E2F9370891709F485C07A
:104A0000EE0FEE0FE82BEC93EF70F0E0E35AFE4F61
:104A10009801265E3D4F69018081D9019C91890FE3
:104A20008C9320E084308CF1F801E75EFD4F8081AB
:104A30008F5F80830E94360E9DAA6EAA7FAA816036
:104A4000782F99AF88AF492D5CEF61E089AD0E9466
:104A50006515EFE3FFE13197F1F700C000000E9418
:104A6000360E9AAE6BAE1CAE8160782F9EAF8DAFC6
:104A7000492D5CEF60E08EAD0E9465158FE39FE1EC
:104A80000197F1F700C0000021E0D6018C918D3F25
:104A90008CF5F801E75EFD4F8081815080830E9494
:104AA000360E9BA68CA67DA68160782F9FA78EA729
:104AB000492D5DEF61E08FA50E946515EFE3FFE1F1
:104AC0003197F1F700C000000E94360E98AA89AA1B
:104AD0001AAA8160782F9CAB8BAB492D5DEF60E00B
:104AE0008CA90E9465158FE39FE10197F1F700C043
:104AF000000021E0D6018C91082E000C990BB50125
:104B00000E94A62BF6018083F22A939480911B02C7
:104B1000981608F462CFF1100E94DF0480913505E9
:104B2000882339F120914004309141042115310549
:104B300039F080913F0461E070E0882309F468C097
:104B4000809134058823A9F00E94DF04009130058C
:104B5000109131052091320530913305601B710BA6
:104B6000820B930B6F3F7F4F8F4F9F4710F40E9434
:104B70004409E11001C0F1100E945F090E94310553
:104B800090914204891721F0809342040E94DF042F
:104B900080911606843009F0C0CD83E08093E9004F
:104BA0008091E80082FFB9CD8091E80090E085FF18
:104BB00006C00E943C03882309F4FDC091E0809167
:104BC000E8008B778093E800992309F4A6CD009143
:104BD0002E0510912F0589810115110509F408C1D1
:104BE0008E3F09F08DC18A81833020F0855083305B
:104BF00008F086C1EA81EE3008F082C1F0E0EA5A9E
:104C0000F34DCE0101960C94BA2B82E0EFCE8F5F6C
:104C1000082F10E02B01082E02C0440C551C0A94EA
:104C2000E2F7A90144215521452B89F390913E04D7
:104C300090FD44C08295880F807680930F01980183
:104C4000369527953695279520931201815E80939E
:104C500010011092130124E630E047E050E06DE0CF
:104C600071E088E70E940F2B892B09F069CFA8011A
:104C7000E5E0440F551FEA95E1F780913E0480FD81
:104C80002BC0425C5D4F04E610E020E230E060E4BF
:104C900088E70E94302B892B09F052CF0E945F09D0
:104CA000C201809590954090400450904104482264
:104CB0005922509241044092400442CF880F880FFD
:104CC000880F80930F0110921201895F8093100169
:104CD00083E080931301BFCFEEE1F2E080E2DF01D9
:104CE0001D928A95E9F7E1E7F1E02C96FFAFEEAF70
:104CF0002C970DE611E075E7672E71E0772E992469
:104D000093942C96AEADBFAD2C972D912C96BFAF42
:104D1000AEAF2C97F80121908F01240E352E311C57
:104D2000C101825C9D4F1C01E22FF0E0E25EFD4F6D
:104D300030E020E067E0A62EA21AB92C022E01C0B6
:104D4000BB0C0A94EAF7610190E0D6018D916D01E8
:104D50008B216A2D691B6770862E062E000C770B3F
:104D6000B82F01C0BB0F8A94EAF78B2E719561951D
:104D700071096770772701C086956A95EAF7882AD6
:104D80008081882A80829F5F9830F9F62F5F3F4F9D
:104D900031962830310571F62C96EEADFFAD2C978B
:104DA0006E167F0609F0ADCF04E610E020E230E099
:104DB0004EE152E06CCF00E210E09E012F5F3F4FCA
:104DC00079018091E80085FD0AC08091E8008B7729
:104DD0008093E8000E943C03882399F3EFCE8091F2
:104DE000F100D7018D937D010150110951F7E6CEF5
:104DF0008C3009F4D1C058F5843009F4B4C058F4AB
:104E0000823009F46CC008F09FC0813009F463C09F
:104E10008FEF898375C0863009F4BBC008F4AEC03B
:104E20008B30B1F780912A0590912B05892B09F4DD
:104E300067C0CE0101960E9497033FEF81EE94E098
:104E4000315080409040E1F700C00000F2CB80314B
:104E500009F4D5C0A0F58E3009F4A5C008F49FC0B0
:104E600080912A0590912B05892B09F449C08C81EA
:104E7000E82EF12C2DE1E216F10408F041C0CA80C1
:104E8000DB80DC24CD24DC248E010F5F1F4FE00E7D
:104E9000F11EC601895A9D4F0E151F0589F139EA89
:104EA000C31631E0D30628F4D80114966C910E9401
:104EB000022C0F5F1F4FBFEFCB1ADB0AEACF823104
:104EC00009F4A2C008F49EC0833109F4C8C08E3F23
:104ED00009F09ECF8FCE1A8289E08B8311C08A8120
:104EE000823009F4F4C2833081F0813009F090CF30
:104EF0000E94DF040E94C02B6B837C838D839E8382
:104F0000CE0101960E94970308CC80912A059091CA
:104F10002B05892BA9F3809147048B83809148044A
:104F20008C83809149048D8380914A048E83809183
:104F30004B048F8380914C04888780914D0489872E
:104F400080914E048A87DCCF8A81823009F060CF5D
:104F50006B817C818D819E810E94C02B86E290E0D6
:104F60000E94022CCDCF4C816B818A810E94D20A93
:104F70009827892798279E838D83C2CF2D813E81D4
:104F80003227232732274C816B818A810E94C209F4
:104F9000B7CF0E94010AB4CF80E18A83B1CF81E00C
:104FA0008A8389EA9ACF8C81E82EF12CBDE1EB1639
:104FB000F10408F0A5CFCA80DB80DC24CD24DC24FA
:104FC0008E010F5F1F4FE00EF11EC601895A9D4FE3
:104FD0000E151F0509F494CFE9EACE16E1E0DE06CE
:104FE00058F40E94F42BD80114968C93FFEFCF1A3B
:104FF000DF0A0F5F1F4FE9CFF8011482F7CF0E943D
:1050000087097ECF84E0C9CF8C81E82EF12CEDE1B9
:10501000EE16F10408F074CFCA80DB80DC24CD24C6
:10502000DC248E010F5F1F4FE00EF11EC601879634
:10503000E016F10609F464CFF0E8CF16F1E0DF06E0
:1050400058F40E94F42BD80114968C93FFEFCF1ADA
:10505000DF0A0F5F1F4FEACFF8011482F7CFEC8011
:10506000F12C2DE1E216F10408F04ACF0A811B81F0
:10507000102701271027003831E0130708F040CF30
:1050800080E891E0801B910B8E159F0508F438CFC6
:10509000480187E2880E911C80912A0590912B058A
:1050A00038016E0C7F1C892BB9F5680191E0C9228B
:1050B000DD2400FF0DC0C80186960E94F42B9D815F
:1050C00089279827892781159C4511F48FEF8D83B7
:1050D000570160FE17C0B1E0AB1AB10855E0452E8C
:1050E000512C4C0E5D1E4A0C5B1CC4018E0D9F1D85
:1050F0000E94F42BF201908181159C4519F48FEFE9
:10510000D2018C93E1E0F0E0EC0FFD1FEC0DFD1DF2
:105110002FEFCA14DB0428F09E012F5F3F4F790167
:1051200019C09481858181159C4511F424832583C0
:1051300032E0C30ED11C3296ECCF0038A1E01A0742
:1051400020F4F70164810E94022CFFEFEF1AFF0A9E
:105150000F5F1F4FC80187960615170571F7D0CE50
:1051600028E0E6E1F1E0DE01919601900D922A95AA
:10517000E1F720E2DC011D922A95E9F785E08983B9
:1051800088E0FE01B196DE01159601900D928A9598
:10519000E1F7B6CE88EA898381E08A831B821C828C
:1051A000AFCE0C81602F70E0762F66270B81060F43
:1051B000172F111D012E000C220B330B45E0000FA1
:1051C000111F221F331F4A95D1F7B901A801405E74
:1051D0005F4F6F4F7F4F401751076207730708F407
:1051E0008FCE083AB1E01B072105310508F088CEC3
:1051F000493AE1E05E076105710520F048EA51E0B7
:1052000060E070E0401B510BB801605A7E4F0E9475
:10521000C72B76CE1B810C8140E0602F812F0E942E
:105220009F0A9827892798279A83898341E0602FCE
:10523000812F0E949F0A9827892798279C838B8318
:105240005FCE2E813F813227232732272115FCE5AF
:105250003F0741F480912A0590912B05892B11F489
:1052600030E020E041E08D81811101C040E06C819F
:105270008B810E94970944CE4AE150E06FEF70E0C5
:10528000CE0107960E94DD2B80912A0589830A832F
:105290001B821C8287E08D8384E08E8331CE81E087
:1052A00090E090932F0580932E0582E390E09093F9
:1052B0004604809345040E94360E909344048093E4
:1052C00043041ECE012B61F11091470400914E045E
:1052D00080914304909144040E94270E85369105E5
:1052E00040F104FF26C010FF24C00E94360E9093A8
:1052F00044048093430480914504909146040197AF
:105300009093460480934504892B51F410922F0505
:1053100010922E0581E090E090932B0580932A0552
:1053200080912A05898380912E058A838091450486
:10533000D4CD82E390E09093460480934504F0CF6F
:1053400010922B0510922A05DBCD40E250E06FEF62
:1053500070E00E94DD2BD4CD2B81243009F460C095
:1053600018F5222309F454C0233009F0C9CD6C810B
:105370002AE0CE018196FC01322F11923A95E9F78D
:10538000683008F08CC0629FB001112469547E4FD0
:105390004AE050E00E94E42B80E089838AE0FE012D
:1053A000B196DE011296F1CE253009F467C02630A1
:1053B00009F0A6CD6C818AE0FE013596DE0191965A
:1053C00001900D928A95E1F78BA19CA18115ACE526
:1053D0009A0741F420912A0530912B05232B11F4D3
:1053E00090E080E09CA38BA38FEF683068F4BAE074
:1053F0006B9FB0011124695F7D4F4AE050E0CE0100
:1054000081960E94262C80E089830E94EF0B78CD44
:1054100020E2DC011D922A95E9F788E08A835DCDC0
:105420006C818AE0FE013596DE01919601900D9225
:105430008A95E1F789A59AA58115ACE59A0741F40B
:1054400020912A0530912B05232B11F490E080E068
:105450009AA789A78FEF683068F4BAE06B9FB00114
:10546000112469547E4F4AE050E0CE0181960E949B
:10547000262C80E089830E947B0C42CD6C812AE03F
:10548000CE018196FC01322F11923A95E9F76830EE
:1054900030F4629FB0011124695F7D4F79CF8FEFA7
:1054A0007CCF09BD19BD09B400FEFDCF8091D800A5
:1054B0008F7D8093D8008091E00082608093E0002F
:1054C0008091E00081FDFCCF0E94E90FD2C986E205
:1054D00090E00E94F42B1B821C821D82DECE109273
:1054E000B9008CE08093B8000895B0E0A0E0EBE74D
:1054F000FAE20C94762BB82EEB010E94360E6C016A
:10550000EE24E394F12CC431D10560F025E0E22EC5
:10551000F12CCF3FDC0731F0CE0164E170E00E9456
:105520005B2B7B0184EAA82E94E8992E1092BC0094
:10553000A092BC000E94360E8C018091BC0087FFB7
:105540000DC08091B900887F8830F9F08091B90052
:10555000887F8031D1F00FEF1FEF08C0C8010E9493
:10556000270EE816F90648F70EEF1FEFCF3FDC07CE
:10557000E9F2C6010E94270EC817D907B8F6C8017C
:10558000CDB7DEB7EBE00C94922BB092BB009092BB
:10559000BC000E94360E8C018091BC0087FF0AC0BF
:1055A0008091B900887F883111F08034A1F610E035
:1055B00000E0E5CFC8010E94270EE816F90660F763
:1055C000D3CF0F931F93CF93DF93EB018093BB0057
:1055D00084E88093BC000E94360E8C018091BC0050
:1055E00087FF11C02091B900287F81E090E0283228
:1055F00011F490E080E0919581959109DF91CF9130
:105600001F910F910895CF3FDC0741F3C8010E941D
:10561000270EC817D90710F78EEF9FEFEFCFB0E036
:10562000A0E0E5E1FBE20C94792B6B018A017901A2
:10563000B9010E94752AE6010C0D1D1DC017D10786
:1056400011F097FF08C024E92093BC00CDB7DEB766
:10565000E8E00C94952BB70189910E94E12AEECFE6
:10566000B0E0A0E0E6E3FBE20C94792BC62F6A01E0
:105670007901B8010E94752A97FD0CC0B8018C2FE2
:105680000E94E12AE601EC0CFD1CCE15DF0511F0AD
:1056900097FF08C024E92093BC00CDB7DEB7E8E04F
:1056A0000C94952BB80189910E94E12AEECF84E9F0
:1056B0008093BC000895AA1BBB1B51E107C0AA1F21
:1056C000BB1FA617B70710F0A61BB70B881F991FA3
:1056D0005A95A9F780959095BC01CD0108952F9218
:1056E0003F924F925F926F927F928F929F92AF9272
:1056F000BF92CF92DF92EF92FF920F931F93CF93BF
:10570000DF93CDB7DEB7CA1BDB0B0FB6F894DEBF55
:105710000FBECDBF09942A88398848885F846E847B
:105720007D848C849B84AA84B984C884DF80EE80C5
:10573000FD800C811B81AA81B981CE0FD11D0FB6CE
:10574000F894DEBF0FBECDBFED01089597FB072E85
:1057500016F4009407D077FD09D00E945B2B07FC5C
:1057600005D03EF4909581959F4F08957095619571
:105770007F4F0895EE0FFF1F0590F491E02D0994DF
:105780006927962769277827872778270895FB01B7
:10579000DC0102C005900D9241505040D8F70895A9
:1057A000FB01DC0104C08D910190801921F441506E
:1057B0005040C8F7881B990B0895DC0101C06D9318
:1057C00041505040E0F70895DC01CB01FC01F9990C
:1057D000FECF06C0F2BDE1BDF89A319600B40D923D
:1057E00041505040B8F70895F999FECF92BD81BD60
:1057F000F89A992780B50895A8E1B0E042E050E01A
:105800000C94E62B262FF999FECF92BD81BDF89A14
:10581000019700B4021639F01FBA20BD0FB6F894F4
:10582000FA9AF99A0FBE08950396272F0E94032C27
:105830000E94022C252F0E94032C242F0C94032C51
:105840000196272F0E94032C0C94022CDC01CB0123
:1058500003C02D910E94312C41505040D0F7089543
:10586000262FF999FECF1FBA92BD81BD20BD0FB67C
:10587000F894FA9AF99A0FBE01960895F894FFCF1A
:10588000D610FE10AC12FE10AC1231115211AC1237
:105890005B126812ED1AED1A271B271BE71B541B1E
:1058A000541B541B011C6C1C7B1C7B1CB028CA287D
:1058B000D1280A2921293C294F296229A029A52973
:0858C000802780278027AC2916
:1058C80001CB04ED08CA04E808E308C90400210074
:1058D8007F22000301015C69A059D30DCF098182A1
:1058E80083E200E900EA00B500B600B700CD008306
:1058F80001CC008A0192019401210223022402258D
:1059080002260227022A02B300B4006F007000F6D4
:10591800F7313332363435946697C6F5F400FF0113
:1059280000010000FFFF0000010001FF0000081057
:1059380018181008004022320001DE00AC00AE0446
:04594800C704E704A5
:00000001FF
