:100000000C946C050C9489050C9489050C94890555
:100010000C9489050C9489050C9489050C94890528
:100020000C9489050C9489050C94BE110C945217FC
:100030000C9423270C9489050C9489050C9489054C
:100040000C9489050C9489050C9489050C948905F8
:100050000C9489050C9497120C9489050C948905CD
:100060000C9489050C9489050C9489050C948905D8
:100070000C9489050C9489050C9489050C948905C8
:100080000C9489050C9489050C9489050C948905B8
:100090000C9489050C9489050C9489050C948905A8
:1000A0000C9489050C9489050C9489050501098037
:1000B000A101850319012AB700150126B700950192
:1000C00075108100C0050C0901A101850419012AE0
:1000D000A002150126A002950175108100C00660DE
:1000E000FF0961A1010962150026FF00952075082E
:1000F00081020963150026FF00952075089102C052
:1001000005010906A101050719E029E715002501E8
:10011000950875018102950175088101050719008F
:1001200029FF150026FF00950675088100050819AE
:10013000012905950575019102950175039101C08D
:1001400000DA0281FFD9F1DB20A4A62EAF00A0C007
:1001500000A1C800AED580A81FD300408D14200098
:10016000FD377A585A000004E6D6B4460200210151
:1001700016000000742FE5A3E003AA01655D003DB1
:100180008889C65436C3174FE4F5602D3B56DF21EE
:1001900044B4FF40F91849E5B259552B74A4282BF3
:1001A00052BA4EE1D329566E894CBE8A86793225E1
:1001B000DE38527A68E2ACA3787F1AA530E1877303
:1001C00035CA4B3A82E9046FD6B8AFECC64737A1BF
:1001D0009C656835CE7A8C262B11871502FAE84784
:1001E000F1AADE73BEA755EFE67FE65B2FB30442AC
:1001F0009E627BBCA8235D1A1C0E6C2D35E9F3486A
:10020000B3108AF43FF19D2321848E707EB8706E06
:1002100046E916FFED5133E0EB4BC6F5EA4B2647B6
:100220002CDB7824171DA3507DD1D9387E9A79AA6A
:1002300068268A6FAECD3B584EB9F6C90FB8E4EFC9
:10024000ACFB4001878582DCE86A7424FD6EDB7AB2
:100250001F8A4095C8D124D4BACB1C5AE34F7A8464
:10026000E4A117F0A392E8B04A3544E49FFE530599
:10027000144E08C1B3F7EF9FE35565B1FF0EDE568C
:10028000592693878777871272FFD3B09682E5C38A
:10029000755DED984F1F928F3A1399F5235C02C25A
:1002A000759024ACE615FE78F39EEBA65E22A57C45
:1002B000E8F6666AE461794EF348819E71A7488941
:1002C0004742D03191D85C381EA400213CBE15B6FF
:1002D0003D71D988B310F55A8BE3BA76460E706F2C
:1002E000701524000000000024C46F803DF88F5F6B
:1002F00000018103AB070000F1E13CCEB1C467FB14
:10030000020000000004595AA900AA00AB00AC008A
:10031000AB00AC0029001A0015001C000C001300F3
:10032000140008001700180012002A002B00160005
:1003300009000B000E003300040007000A000D0046
:100340000F00280035621D00060005001000370070
:1003500038001B00190011003600E500E000E20043
:100360002C412C41E700AE00E30000000251E60002
:10037000E400A80029001F00210023002500270019
:100380001E0020002200240026002A000100010097
:10039000010052002D003400010001000100520054
:1003A0002E00280001000100010050004F0038001D
:1003B00001000100010051002E00010001000100B8
:1003C000010001000100AE00010000000100010079
:1003D0000100A8000100C85C0100010052000100FA
:1003E000C75C010001000000010001000100C35CC6
:1003F0000100000051000100C25CC45C010050001B
:100400004F0001000100CA5C010001000100520020
:10041000C95C01000100010001005200010001005F
:100420000100010051000100010000000100500026
:100430004F00010000AF00AE09025B00030100A005
:10044000FA09040000010301010009211101000162
:10045000224000070581030800010904010002038E
:10046000000000092111010001222200070582037A
:100470002000010705030320000109040200010315
:100480000000000921110100012232000705840348
:100490002000011201000200000008868053530072
:1004A00001010203011C037600690061006C003A3F
:1004B00000660036003400630032006200330063DF
:1004C0000000000A036C00690074006C0000001258
:1004D000035300540048004C004D0020006B0062A4
:1004E00000000004030904000000000000000000F8
:1004F00000000000000000000000000000000000FC
:1005000000000000000000000000007E0F00D4FF8B
:10051000FFFFC70000007800000000000000002A74
:100520002B28000000000000000000000000000078
:10053000000029000000002C1E3420212224342633
:1005400027252E362D3738271E1F2021222324252C
:10055000263333362E37381F0405060708090A0BE1
:100560000C0D0E0F101112131415161718191A1B53
:100570001C1D2F3130232D350405060708090A0BF1
:100580000C0D0E0F101112131415161718191A1B33
:100590001C1D2F3130354C07087F0807003E5B4F8C
:1005A0005B3E003E6B4F6B3E001C3E7C3E1C0018C9
:1005B0003C7E3C18001C577D571C001C5E7F5E1C57
:1005C0000000183C180000FFE7C3E7FF00001824F4
:1005D000180000FFE7DBE7FF0030483A060E002670
:1005E0002979292600407F05050700407F05253F22
:1005F000005A3CE73C5A007F3E1C1C0800081C1CAB
:100600003E7F0014227F2214005F5F005F5F0006C0
:10061000097F017F00006689956A00606060606004
:100620000094A2FFA2940008047E04080010207E1B
:1006300020100008082A1C0800081C2A0808001EB0
:1006400010101010000C1E0C1E0C0030383E3830FC
:1006500000060E3E0E060000000000000000005FD5
:10066000000000000700070000147F147F1400241E
:100670002A7F2A120023130864620036495620504C
:1006800000000807030000001C2241000000412276
:100690001C00002A1C7F1C2A0008083E08080000D5
:1006A0008070300000080808080800000060600042
:1006B000002010080402003E5149453E0000427FE0
:1006C0004000007249494946002141494D33001814
:1006D00014127F10002745454539003C4A494931ED
:1006E0000041211109070036494949360046494968
:1006F000291E00000014000000004034000000002B
:100700000814224100141414141400004122140887
:10071000000201590906003E415D594E007C12114C
:10072000127C007F49494936003E41414122007F09
:100730004141413E007F49494941007F0909090182
:10074000003E41415173007F0808087F0000417F4F
:100750004100002040413F01007F08142241007FFA
:1007600040404040007F021C027F007F0408107F51
:10077000003E4141413E007F09090906003E4151CA
:10078000215E007F091929460026494949320003A4
:10079000017F0103003F4040403F001F2040201FD9
:1007A000003F4038403F006314081463000304789E
:1007B0000403006159494D4300007F41414100025B
:1007C0000408102000004141417F0004020102049E
:1007D00000404040404000000307080000205454FF
:1007E0007840007F28444438003844444428003886
:1007F0004444287F0038545454180000087E0902ED
:100800000018A4A49C78007F080404780000447DAC
:100810004000002040403D00007F102844000000C0
:10082000417F4000007C04780478007C0804047850
:1008300000384444443800FC1824241800182424A8
:1008400018FC007C08040408004854545424000494
:10085000043F4424003C4040207C001C2040201CDD
:10086000003C4030403C004428102844004C90900C
:10087000907C004464544C44000008364100000061
:100880000077000000004136080000020102040267
:10089000003C2623263C00000000000000404040B1
:1008A000F0F8F8FF38FFF8F83FF8F8FF38FFF8F8ED
:1008B000F040404000000000000080C0C0C0800048
:1008C00000C0C08000000080C0C000C0C000008028
:1008D000C0C00000000000C0C0C0C0C000C0C00058
:1008E0000000000000000000000000000000000008
:1008F00000000000000000000000000000000000F8
:1009000000000000000000000000000000000000E7
:10091000000000000000C0F0F8FC3E1E06010000D0
:10092000007F4141417F007F4141417F000080C005
:10093000E07E5B4F5BFEC00000C000DCD7DEDEDE89
:10094000D7DC00C000000000000000000000000034
:1009500000000000000000000000000000494949BC
:10096000FFFFFFFFE0DFBFBF00BFBFDFE0FFFFFF14
:10097000FF49494900000000001F3F6060E0BF1FC1
:10098000007F7F071E381E077F7F007F7F0E1F3B83
:10099000716000000000007F7F0C0C0C007E7E0068
:1009A0007F7E0303007F7E03037E7E03037F7E0042
:1009B0000F3E703C063C703E0F00327B49493F7E43
:1009C000007F7E0303001E3F69696F260000000060
:1009D000000000000000030F1F3F3C787060000023
:1009E000007F4141417F007F4141417F00307B7F5B
:1009F0007830202030787F3B0003000F7F0F0F0FEF
:100A00007F0F000300000000000000000000000055
:100A100000000000000000000000000000010101D3
:100A2000070F0F7F0F7F0F0F7E0F0F7F0F7F0F0FAF
:100A300007010101000000000000000000000101AA
:100A400000000000000000000000000000000000A6
:100A50000000000000000000000000000000000096
:100A60000000000000000000000000000000000086
:100A70000000000000000000000000000000000076
:100A80000000000000000000000000000000000066
:100A90000000000000000000000000000000000056
:100AA0000000000000000000000000000000000046
:100AB0000000000000000000000000000000000036
:100AC0000000000000000000000000000000000026
:100AD000000000000000000011241FBECFEFDAE08C
:100AE000DEBFCDBF11E0A0E0B1E0E8EBF6E602C06A
:100AF00005900D92AA38B107D9F727E0AAE8B1E02E
:100B000001C01D92A832B207E1F70E944A270C9457
:100B100036330C940000E8EDF0E080818E7F808316
:100B20001092E2001092DA001092E100A0EEB0E024
:100B30008C9181608C9380818F77808319BCA7ED25
:100B4000B0E08C918E7F8C9380818F7E8083109219
:100B5000020508952091E4003091E50095E6A90191
:100B60002091EC00822F817020FF06C08091E80068
:100B700080FF06C080E008952091E80022FD1AC0A1
:100B800080911805882389F0853089F08091EB00E9
:100B900085FD0FC02091E4003091E5004217530716
:100BA000F9F29150E1F684E0089582E0089583E03F
:100BB000089581E00895EF92FF920F931F93CF93D2
:100BC0007C018B010E94AA05C82F811117C080915A
:100BD000E80085FD0BC08091E8008E778093E800E7
:100BE0000E94AA05882399F3C82F08C0F7018191B4
:100BF0007F018093F1000150110949F78C2FCF91AB
:100C00001F910F91FF90EF900895CF93FC01809179
:100C10001805843001F5C091E900CF702091EC00F7
:100C2000922F917020FD90E8C92B82E08093E9001B
:100C30008091E80080FF0CC050E040E060E270E08E
:100C4000CF010E94DB058091E8008E778093E80059
:100C5000CF70C093E900CF9108958091100587FF70
:100C600013C08091E80082FF06C08091E8008B7776
:100C70008093E80004C0809118058111F2CF089597
:100C8000809118058823D9F38091E80080FFF8CF80
:100C90008091E8008E77ECCF982F9093E900242F75
:100CA000762F50E0891731F07091EC002091ED0023
:100CB0005091F00021FD07C09F5F973071F780933E
:100CC000E90081E008953091EB003E7F3093EB0026
:100CD0003091ED003D7F3093ED003091EB003160BD
:100CE0003093EB007093EC002093ED005093F000F4
:100CF0002091EE0027FDE0CF80E00895B0E0A0E075
:100D0000E4E8F6E00C940232C8EDD0E088818F7EF2
:100D10008883E7EDF0E080818160808384E082BF9A
:100D200081E08093020588818E7F888302EE10E047
:100D3000F80110821092DA0081EEC82ED12CF60153
:100D4000108288818F7788838881806888838881F2
:100D50008F7D888319BC1092180510920F05109290
:100D60000E0510920D0590EEE92EF12CF701808111
:100D70008B7F808388818160888342E060E080E0AF
:100D80000E944C06F60180818E7F8083F80180816D
:100D900081608083808188608083F70180818E7F7D
:100DA0008083888180618883CDB7DEB7E8E00C94CA
:100DB0001E32FC0180911605909117058617970742
:100DC000A0F06115710529F49091E8009E77909349
:100DD000E80090E06115710551F4911108C080910F
:100DE000E80082FF34C080E00895BC01F2CF80911A
:100DF00018058823C1F18530C1F18091E80083FD99
:100E000030C08091E80082FDEACF8091E80080FF49
:100E1000E1CF8091F3002091F200382F6115710528
:100E200019F02830310558F091E02830310509F0EB
:100E300090E02091E8002E772093E800CBCF8191BD
:100E40008093F100615071092F5F3F4FE7CF809190
:100E50001805882341F0853041F08091E80083FF38
:100E6000BECF81E0089582E0089583E0089508955B
:100E7000089580910405089587E797E79093010806
:100E80008093000888E19AE00FB6F894A8958093C3
:100E900060000FBE90936000FFCF2FB7F894609171
:100EA000FB047091FC048091FD049091FE042FBF1F
:100EB00008959C01FC0132969FEF80E04191461716
:100EC00051F09F3F19F4411101C0982F8F5F863078
:100ED000A9F79F3F09F40895290F311D97FD3A9511
:100EE000F901628308952091F8043091F9042817DC
:100EF000390771F09093F9048093F804E091F604B7
:100F0000F091F704309721F00084F185E02D0995E8
:100F100008952091F4043091F5042817390771F0F1
:100F20009093F5048093F404E091F604F091F704B3
:100F3000309721F00680F781E02D09950895E09122
:100F4000F604F091F704309729F00190F081E02D3C
:100F50000995089580E00895CF93DF93EC014091C7
:100F6000E9045091EA046091EB047091EC042FB70E
:100F7000F8948091FB049091FC04A091FD04B09141
:100F8000FE042FBF841B950BA60BB70B843F91402B
:100F9000A105B10518F58091E9049091EA04A091AA
:100FA000EB04B091EC048093E5049093E604A093E5
:100FB000E704B093E80484EF91E0A0E0B0E0809310
:100FC000E1049093E204A093E304B093E404D0938B
:100FD000F104C093F004DF91CF9108950E944D0772
:100FE0006093E5047093E6048093E7049093E8042B
:100FF00082E390E0A0E0B0E0E2CFFC0184818623B0
:1010000051F492819923B9F06923808583FF05C04B
:1010100081E061110FC080E00895892F8F70929553
:101020009F70982B862F8F7062956F70682B81E070
:101030009613F1CF089581E0FDCFDC016091DD04CE
:101040008091DE04962F891301C00895292F30E086
:10105000F901EE0FFF1FEB52FB4F408151814A1700
:101060005B07A1F487E08A9FA0018B9F500D11249C
:1010700043565B4F81E0FA0184839613E6CF2F5FDE
:101080003F4F237033272093DD0408952F5F3F4F98
:10109000922F9370D8CF1092390410923804EDE952
:1010A000F4E08581811102C014821682379684E0B3
:1010B000E53DF807B1F7089530911D058317A0F5B8
:1010C00090E0262F269526952695239F800D911D2D
:1010D0001124811522E092073CF5FC01E05EFA4FF5
:1010E0005081677021E030E001C0220F6A95EAF775
:1010F0004423D9F0252B2517B9F0208325E09695B8
:1011000087952A95E1F721E030E002C0220F331FD6
:101110008A95E2F780911E0590911F05822B932BF3
:1011200090931F0580931E05089520952523E3CFF6
:1011300080E00895F894E82FE295EF70F0E031A197
:10114000282F2F7081E090E001C0880F2A95EAF7E0
:10115000982F9095932391A392A1892B82A37894A1
:1011600008959091CB0292FF06C0282F2871283055
:10117000F9F4877F846093FF06C0282F28712831F7
:10118000F1F4877E84612091CC0220FF06C0382FC5
:1011900038713830D9F4877F816021FF06C0282F4D
:1011A00028712831D1F4877E816194FD877E08956E
:1011B000282F24712430F9F68B7F8860DCCF282F0C
:1011C0002471243101F78B7E8861DDCF382F317196
:1011D000313019F78E7F8860E0CF282F21712131BF
:1011E00021F78E7E8861E1CFCF93DF93EC018238C7
:1011F0009105B1F108F040C08133910509F49DC01B
:1012000048F58932910509F48DC08A9709F49CC08C
:10121000C11522E5D20708F0BDC0C11531E5D307DD
:1012200008F025C1C83ED10508F0A3C0C13ED105D4
:1012300088F5C83AD10508F08EC0C53AD10508F046
:10124000F6C0C130D10531F1209721F1C430D1056C
:1012500008F545C08533910509F45FC0C997C1F60B
:101260008091CB02837009F037C18091CC0283FF5B
:1012700011C0C9E2D0E00EC0833E910599F170F42F
:10128000803E910501F1823E910511F68091CB02DD
:1012900082FD21C0CE01DF91CF910895863E910558
:1012A00061F1873E910571F1843E910509F0B0CF5F
:1012B0008091CC0281FFEECF8091CB02C7EED0E0CF
:1012C00084FD0DC0E7CF8091CB0280FD33C09091AB
:1012D000CC0290FFDFCFC3EED0E084FFDBCFD0E0C5
:1012E000C0E0D8CF8091CB0282FDF3C09091CC02B8
:1012F00090FDF2C084FFCECFF2CF8091CB0283FD70
:10130000DDCFC8CF8091CB0283FDE9C09091CC02A4
:1013100091FFF0CFC4EED0E0BDCF8091CB0285FF2E
:10132000B9CFA7CF8091CB0285FDDCC08091CC02E4
:1013300083FFB0CFC9E3D0E0ADCF8091CB0286FF71
:10134000A9CFCAE2D0E0A6CF8091CB0286FFA2CF80
:10135000C1E3D0E09FCFCF3BD10508F6C85AD0E01B
:10136000CC0FDD1FC95DDE4F0990D881C02DD4643C
:1013700091CFC11540E5D40708F064C0C11580E4E1
:10138000D80708F05CC0CE019A9581159F4108F4FA
:1013900081CFA5CFC11536E5D30718F5C11545E5B1
:1013A000D40708F07DC0C11584E5D80708F073C0E4
:1013B0009C2F969596959E0123703327C115D34592
:1013C00008F45AC0C1E0D0E002C0CC0FDD1F2A955E
:1013D000E2F730E2939FC0011124C82BD92BDA68C1
:1013E00059CFC1158AE5D80778F4C11529E5D20788
:1013F00008F061C0C11538E5D30708F470CFDC2FC1
:10140000CC27C06FD06A46CFCE019056811590424E
:1014100008F065CF8D2F8F710E94B10890E0982F52
:10142000882788279F719C012C2BE90142C0C55A4F
:10143000D0E0CC5DDE4FC881D0E0D0642BCFDF7030
:10144000D06A28CF2C2F26952695237080E2289FDE
:10145000900111248C2F8370C1E0D0E002C0CC0F2A
:10146000DD1F8A95E2F7C22BD32BDD6813CFDC2F6B
:10147000CC27C16FD06A0ECFC1E0D0E002C0CC0F44
:10148000DD1F2A95E2F720E2929FC0011124C82BAC
:10149000D92BDC68FFCEDC2FCC27C46FD06AFACE04
:1014A0008C2F0E94B108C82FD0E0DC2FCC27CC278E
:1014B000DF71D062EFCE8C2F8F700E94B10834E0C4
:1014C000D695C7953A95E1F7CF709C2FEC01D0697E
:1014D000E1CEC2EED0E0DECEC0EED0E0DBCEC6EE96
:1014E000D0E0D8CEC5E3D0E0D5CE8091BE0288232F
:1014F00031F01092BE021092BD021092BC0208950B
:1015000080959091BB0298239093BB02089510920E
:10151000B2021092B1021092B0020895EEE8F1E02A
:101520009191891303C0DF0111971C9291E0E43976
:10153000F907B1F708958091AF0290916E02981368
:1015400001C008958F5F8770FACFA82FA77023E09E
:10155000969587952A95E1F7FC01EE0FFF1FE80F9E
:10156000F91FE60FF71F50E040E080E0219130E0E6
:101570000A2E02C0369527950A94E2F72170332788
:10158000042E01C0220F0A94EAF7822B4F5F5F4FAF
:101590004330510559F70895903FC9F0983080F4D1
:1015A0008630A8F4282F30E064E572E0A901E6E077
:1015B0009E9F400D511D1124CA010E94A50A089545
:1015C0009C5F923020F461E572E090E0F6CF80E01D
:1015D0000895262F277091E001C0990F2A95EAF708
:1015E00023E0769567952A95E1F7FB01EE0FFF1F43
:1015F000E60FF71FE40FF51F50E040E0682F70E0A2
:101600008191DF0111979B01042E02C03695279529
:101610000A94E2F7217021952827292328272C9363
:101620004F5F5F4F4330510559F70895282F862F9C
:10163000903F79F0983070F4263058F4622F70E0C3
:1016400026E0929F600D711D112444E552E00E9436
:10165000E90A08959C5F9230E0F7622F70E041E55F
:1016600052E0F5CF9C013A9521153F4150F5FC0120
:10167000EE27F170BC0166277270AC0144275470EC
:101680009C012227387094FF0EC080E1EF2B09F4F3
:1016900080E0672B09F08062452B09F08064232BE2
:1016A00089F08068089581E0EF2B09F480E0672BD2
:1016B00009F08260452B09F08460232B19F08860C3
:1016C000089580E00895EF92FF920F931F93CF93B8
:1016D000DF9380914B029091210391111FC09FE1F4
:1016E000F92EF81AC1E705E010E031E7E32EDE2D10
:1016F000DC1B07C06F2D6D1B41E08C2F0E945C0826
:10170000DF5FD0171106B4F301501109C150CE3676
:1017100071F7CDB7DEB7E6E00C94203290914A0223
:10172000282F291B1216DCF4DFE1D91BD53088F3F2
:10173000C0E021E7F22E1AE1191B0F2D0C1B6D2FB3
:101740006C1B40E0802F0E945C08612F6C0F41E011
:10175000802F0E945C08CF5FC33079F7DACF222355
:10176000C1F2DFE1D81BD530A0F2C0E091E7F92E3D
:101770001AE1181B0F2D0C1B612F6C0F40E0802FFE
:101780000E945C086D2F6C1B41E0802F0E945C085A
:10179000CF5FC33079F7BDCFB0E0A0E0E2EDFBE072
:1017A0000C940132D82F80912103882309F442C080
:1017B00084E9E82E81E0F82E00EF11E0C0E19FE11E
:1017C000C92EF801D1808081BD2CB81AB7FE06C0A1
:1017D0006C2D681B40E08C2F0E945C08F701818112
:1017E00081937F01F801D1928F01BB2031F06C2DE4
:1017F0006D1941E08C2F0E945C08CF5FCB3609F752
:101800008091EF01C0914B028D1710F5CF3100F59B
:10181000CF5FC0934B02D093EF0180914B02909128
:101820004A02891781F06FE1681B41E08BE60E9454
:101830005C0809C0C0E141E06FE18C2F0E945C08A8
:10184000CF5FCC36C1F7CDB7DEB7E9E00C941D32DF
:10185000D81710F0D111DFCFCC23E9F26FE16C1B68
:1018600040E08BE60E945C08C150D3CFEF92FF921C
:101870000F931F93CF93DF938C01809121038111EC
:1018800021C0C1E041E06EE08C2F0E945C0841E085
:101890006FE18C2F0E945C08CF5FCD3099F7CFE0CD
:1018A00041E06C2F80E00E945C0841E06C2F8DE0ED
:1018B0000E945C08CF5FCF3199F7CDB7DEB7E6E085
:1018C0000C942032F801D181C081DD0FCC0F8FE064
:1018D000F82EFD0EEE24E394EC0E42816F2D8E2D3A
:1018E0000E945C08D05FF80142816D2F8E2D0E940E
:1018F0005C08CE5FF80142816F2D8C2F0E945C083E
:10190000F80142816D2F8C2F0E945C08D6CFCF93B7
:10191000DF93C0912607D09127078A30C1F4209128
:101920001D05CE0180529540622F70E00E94E43187
:10193000281B822F66E00E942F32C82FC15018F456
:10194000DF91CF91089580E20E94870CF7CF8D3010
:10195000E9F4C052D54020911D05622F70E0CE0100
:101960000E94E431281B822F9E01280F311D211572
:10197000324018F080E0D0E0C0E0C80FD11DC05E5A
:10198000DA4FD0932707C0932607DACF96E0FE01FF
:10199000A0E2B7E001900D929A95E1F7803E08F43D
:1019A00058C086E0FE0111928A95E9F7C09126079A
:1019B000D091270746E050E0BE0180E297E00E9408
:1019C000C8329E0120523540892B41F1C90145E0C2
:1019D000969587954A95E1F741E050E0BA0102C03B
:1019E000660F771F8A95E2F7CB0160911E05709113
:1019F0001F05862B972BB9016B5F7F4FE5E076952E
:101A00006795EA95E1F702C0440F551F6A95E2F722
:101A1000842B952B90931F0580931E052A5F3F4FC3
:101A200040911D05642F70E0C9010E94E431481BFC
:101A3000463010F4240F311D211572E0370710F0E5
:101A400030E020E0205E3A4F3093270720932607AE
:101A500077CFF6E08F9FB001112469567A4F46E0A8
:101A600050E0CE010E94BF32A1CF0F931F93CF93BE
:101A7000DF93EC01FC0101900020E9F78F01015098
:101A80001109C017D10728F0DF91CF911F910F9155
:101A9000089589910E94870CF4CF8093FF0470937E
:101AA000010560930005809118058430F9F4809356
:101AB000E9008FEF9091E800815095FD06C095ED0B
:101AC0009A95F1F700008111F5CF8091E80085FF2C
:101AD0000DC050E040E063E070E08FEF94E00E94C2
:101AE000DB058091E8008E778093E8000895BC01C3
:101AF00084E00E944D0D0895BC0183E00E944D0DCD
:101B00000895CF93DF93EC0181E08093E9008FEF9C
:101B10009091E800815095FD06C095ED9A95F1F7FA
:101B200000008111F5CF8091E80085FF14C050E0DE
:101B300040E068E070E0CE010E94DB058091E800A3
:101B40008E778093E80088E0FE01A5E0B5E0019083
:101B50000D928A95E1F7DF91CF910895B0E0A0E072
:101B6000E4EBFDE00C9402326C017B0164E670E072
:101B700088E70E94FE30EC0197FD12C010E000E003
:101B8000F601E00FF11F849164E670E00E946A3173
:101B9000EC01892B29F40F5F1F4F0E151F0581F7EC
:101BA0000E94E031CE01CDB7DEB7E8E00C941E32E2
:101BB0008091360490913704911103C091E08927F8
:101BC0000895882369F062E070E086E394E00E9463
:101BD000AE0D892B19F080913604089510923604C9
:101BE00080913604EBCFCF93C091360480913704B7
:101BF0008823D1F00E944D07605A75418F4F9F4F47
:101C000060933204709333048093340490933504CA
:101C1000C11108C062E070E084E394E00E94AE0D60
:101C2000892B29F0C09136048C2FCF91089581E043
:101C300080933604F7CFCF93DF93C3EFD1E060E01A
:101C4000CE010E94FA322196C11584E0D807B9F777
:101C5000DF91CF9108950F931F93CF93DF93142FAC
:101C6000022F8330F0F461111CC094E0899FE001E1
:101C70001124C95BDE4F82E090E0442311F090E034
:101C800080E0632F8C0F9D1F0E94FA3283E090E06A
:101C9000112311F081E090E0602F8C0F9D1F0E94B6
:101CA000FA32DF91CF911F910F9108951F93CF9337
:101CB000DF93122F8330E0F46830D0F44630C0F464
:101CC000C42FD0E0CC0FDD1F9CE0699FC00DD11D5B
:101CD000112490E6899FC00DD11D1124632FCE01E0
:101CE00087960E94FA32612FCE0188960E94FA32BE
:101CF000DF91CF911F910895CF93C82F6FEF81117E
:101D00006BE683E290E00E94FA326FEFC11160EC63
:101D100084E290E00E94FA326FEFC11166E985E239
:101D200090E00E94FA32CF910895A4E1B0E0EBE98F
:101D3000FEE00C94F93160902C0470902D0481E049
:101D400090E090932D0480932C0488E0C82E83E0CB
:101D5000D82E9AE0A92E93E0B92E24E1E22E23E0BA
:101D6000F22E512C8701412C15C0F401259134919C
:101D7000432D642D852D0E94560E82E0880E911C05
:101D8000339496E03912F1CF045F1F4F4394E8E09B
:101D90004E1619F04801312CE8CFF6012591349107
:101DA00041E060E0852D0E942B0EF50125913491D4
:101DB00040E060E0852D0E942B0EF4E0CF0ED11C98
:101DC000539484E0A80EB11C90E6E90EF11CE3E008
:101DD0005E12C8CFCE0101967C018AE0F701119214
:101DE0008A95E9F703E511E04AE050E0B801C70140
:101DF0000E941E33065F1F4F033AF1E01F07A1F751
:101E00007E018BE0E80EF11C8AE0F70111928A95C1
:101E1000E9F78FEF9FEF988B8F8787E08C8B4AE0F5
:101E200050E0B801C7010E941E33065F1F4F033FF9
:101E3000F1E01F07A1F770922D0460922C046496C4
:101E4000E1E10C94153280E00E947C0E60E086E2B5
:101E500090E00E94FA320E94950E0E941B0E81E0D3
:101E60000E947C0E0895FF920F931F93CF93DF93F0
:101E7000F42E833040F5611126C024E0829F80015A
:101E80001124095B1E4F82E090E0442311F090E0A2
:101E900080E0800F911F0E94EC32C82FD0E0DC2F31
:101EA000CC2783E090E0FF2011F081E090E0800FEC
:101EB000911F0E94EC329E01282BC901CDB7DEB7DD
:101EC000E5E00C94213290E080E0F8CF0F931F936F
:101ED000CF93DF93833030F5683020F5463010F52E
:101EE000C42FD0E0CC0FDD1F2CE0629FC00DD11DB0
:101EF000112430E6839FC00DD11D1124CE01879699
:101F00000E94EC32082F10E0102F0027CE01889697
:101F10000E94EC329801282BC901DF91CF911F91CB
:101F20000F91089590E080E0F8CF462F672F209121
:101F3000300430913104232BF9F4703F39F4403FE1
:101F4000D9F480912E0490912F0408958330A0F449
:101F5000783028F4463080F40E94660F08957D3F63
:101F600039F4411109C041E060E00E94330F089547
:101F70007C3F11F44423C1F390E080E00895CF92B8
:101F8000DF92FF920F931F93CF93DF936C01009129
:101F900019058091BF02082BC7E0D0E010E0FC2EAD
:101FA000C8010C2E02C0959587950A94E2F780FD32
:101FB0000CC02197A0F7F12C8F2DDF91CF911F91AD
:101FC0000F91FF90DF90CF900895B6018C2F0E9463
:101FD000950F0E94F408019761F3EECFCF93DF9342
:101FE000EC010E94BF0FBE010E94950F0E94F408F1
:101FF000DF91CF910895FC0183819481892B29F091
:102000008081918189238F3FF1F480E008950E94BF
:10201000F40892959F70963089F058F4925F9F7003
:10202000923098F7803F19F030F4883E70F781E0E5
:1020300008959A5FF4CF843F41F7F9CF883EB8F313
:10204000813F19F7F4CF86819781009701F780814E
:1020500091810E94EE0FDDCFA5E0B0E0E2E3F0E178
:102060000C9407329C01FC01868197810097E1F472
:1020700085E0DE01119601900D928A95E1F7F90154
:10208000228189819A81222399F0662389F00E9416
:10209000BF0F182F682F89819A810E94160B6981C2
:1020A0007A81812F0E94950F2596E3E00C942332CC
:1020B0000E94CC0A182FF3CF83E290E00E94EC320A
:1020C0008B3689F484E290E00E94EC32803C59F433
:1020D00085E290E00E94EC3291E0863909F090E0D0
:1020E000892F8170089580E0FCCFCF9384E090E049
:1020F0000E94EC32C82F82E290E00E94EC32982FCE
:102100008C2FCF910895AAE0B0E0E9E8F0E10C94BB
:10211000FE3104EB13E082EAC82E83E0D82E93EA66
:10212000E92EFF24F39427E0922E31EAA32E33E028
:10213000B32E88248394D6010D931D936D014AE03C
:1021400050E0B701CE0101960E94DC32F8013896CA
:10215000DF01892D1D928A95E9F789819A81D8013D
:1021600011969C938E938F8112968C9312978D81EA
:1021700013968C931397888514968C93149789855E
:1021800015968C9315978B819C8117969C938E93B3
:10219000169718961C9218978A8587FF3CC01E9642
:1021A0001C921E921D9780FF03C0D80118968C9236
:1021B00081FF04C0F80190859260908782FF07C07C
:1021C000D80118969C911897946018969C9383FF59
:1021D00004C0F80190859860908784FF07C0D801FB
:1021E00018969C911897906118969C9385FF04C04F
:1021F000F801808580628087015F1F4FFAE0EF0E53
:10220000F11C83EFE81681E0F80609F094CF2A96D6
:10221000ECE00C941A32F801B686A586C4CFAAE089
:10222000B0E0E5E1F1E10C940232E1E5F3E080E5B4
:10223000DF011D928A95E9F7EDE9F4E088E3DF011B
:102240001D928A95E9F781E5C82E83E0D82E7F019B
:1022500003E511E0F701D182C0824AE050E0B80105
:10226000CE0101960E94DC3288E0FE013196D60153
:1022700001900D928A95E1F789859A85D701139689
:102280009C938E931297BAE0CB0ED11CE7E0EE0E32
:10229000F11C065F1F4F033AF1E01F07D9F62A969B
:1022A000E8E00C941E3268EE7EEF90E080E00E9441
:1022B000183360E082E090E00E94FA3260E083E050
:1022C00090E00E94FA321092BF0260E084E090E059
:1022D0000E94FA3264E082E290E00E94FA3260E00A
:1022E00085E090E00E94FA3260E086E090E00E9493
:1022F000FA326FEF87E090E00E94FA3240E050E05F
:10230000BA0188E090E00E940C3360E08DE090E03C
:102310000E94FA3240E050E0BA0188E190E00E9469
:102320000C3360E087E190E00E94FA3240E050E038
:10233000BA018CE190E00E940C3370E060E080E232
:1023400090E00E94183340E050E0BA0188E190E04C
:102350000E940C3380E00E947C0E0E94230F40E01C
:1023600050E0BA018FE090E00E940C3340E050E072
:10237000BA0183E190E00E940C3308951F920F92FE
:102380000FB60F9211242F933F934F935F936F9348
:102390007F938F939F93AF93BF93EF93FF9380911E
:1023A000E10082FF09C08091E20082FF05C08091B8
:1023B000E1008B7F8093E1008091DA0080FF24C0F0
:1023C0008091D80080FF20C08091DA008E7F8093BA
:1023D000DA008091D90080FF9DC080E189BD82E153
:1023E00089BD09B400FEFDCF81E08093180580917E
:1023F0000205811109C00E948B050E947E06809112
:10240000E20084608093E2008091E10080FF17C0C9
:102410008091E20080FF13C08091E2008E7F809364
:10242000E2008091E20080618093E2008091D80018
:1024300080628093D80019BC85E080931805809154
:10244000E10084FF2BC08091E20084FF27C080E17F
:1024500089BD82E189BD89B5982F917080FFFBCF3E
:102460008091D8008F7D8093D8008091E1008F7E8D
:102470008093E1008091E2008F7E8093E200809162
:10248000E20081608093E20080910F05882309F4C7
:1024900047C084E080931805809118058091E10081
:1024A00083FF27C08091E20083FF23C08091E10079
:1024B000877F8093E10082E08093180510920F05DA
:1024C0008091E1008E7F8093E1008091E2008E7F19
:1024D0008093E2008091E20080618093E20042E01C
:1024E00060E080E00E944C068091F000886080935C
:1024F000F000FF91EF91BF91AF919F918F917F91EC
:102500006F915F914F913F912F910F900FBE0F9060
:102510001F90189519BC109218051092020574CFDF
:102520008091E30087FD93E090931805B5CF7894F0
:102530001F921FB61F9211248F939F93AF93BF9347
:102540008091FB049091FC04A091FD04B091FE04E5
:102550000196A11DB11D8093FB049093FC04A093F0
:10256000FD04B093FE04BF91AF919F918F911F9096
:102570001FBE1F9018959C014FB7F8948091FB04E3
:102580009091FC04A091FD04B091FE044FBF821B0A
:10259000930B08952FB7F8948091FB049091FC045D
:1025A000A091FD04B091FE042FBF08954F925F9259
:1025B0007F928F929F92AF92BF92CF92DF92EF92D3
:1025C000FF920F931F93CF93DF93CDB7DEB728977A
:1025D0000FB6F894DEBF0FBECDBF8E010F5F1F4F49
:1025E00088E0F80111928A95E9F795E5E92E91E0E6
:1025F000F92E2BE5C22E21E0D22E77247394AA2443
:10260000A394B12C43E6842E41E0942EF7018191EE
:102610007F018F3F09F447C0F894E82FE295EF70EF
:10262000F0E021A18F70A50102C0440F551F8A95CB
:10263000E2F7CA01922F982B91A392A1809589234A
:1026400082A3789400C08BE5482E81E0582ED801F3
:10265000672D6095F20151912F014D919D012150FF
:1026600031095F3F09F45DC0852F82958F7090E03E
:10267000FC0180A190E05F7002C0959587955A9506
:10268000E2F780FD4EC04729F90140838414950488
:1026900009F7F701319780818F3F11F00E949A0866
:1026A000F0EAFA95F1F7770CCE14DF0409F0AECF1B
:1026B00048E050E0B80183EC92E00E94C832892BD8
:1026C00091F188E0F801A3ECB2E001900D928A95B7
:1026D000E1F781E08093C2020E94CA129093C10286
:1026E0008093C0028091C0029091C1020E94BB12EF
:1026F0000597E8F048E050E063EC72E089E493E08D
:102700000E94C832892B51F188E0E3ECF2E0A9E4A1
:10271000B3E001900D928A95E1F781E01092C20238
:1027200007C04623B1CF8091C2028111DBCF80E088
:1027300028960FB6F894DEBF0FBECDBFDF91CF91C4
:102740001F910F91FF90EF90DF90CF90BF90AF90CF
:102750009F908F907F905F904F90089580E0DECFA4
:102760008091BB0290913A04892B80938C018091D7
:10277000BE02882319F10E94CA122091BC02309136
:10278000BD02821B930B8838934110F00E94750A9A
:1027900080918C019091BE02892B80938C0120E066
:1027A0008EE891E0FC013191CF0131112F5FF1E012
:1027B00084399F07B9F721110E94750A8091ED04B1
:1027C000809590918C0189239091EE04892B8093C0
:1027D0008C0148E050E063EB72E08CE891E00E94ED
:1027E000C832892BA9F088E0ECE8F1E0A3EBB2E075
:1027F00001900D928A95E1F7E091F604F091F704CB
:10280000309731F00280F381E02D8CE891E009955A
:10281000089590E080E00E94890790E080E00E94A7
:10282000730710923A040E94B0130895809319051B
:102830000E940914089580911905982F967096307A
:1028400021F488600E9416140895877FFBCF21E051
:1028500030E001C0220F8A95EAF720958091190592
:1028600082230E94161408959091B20280958923C4
:102870008093B202282F277091F4282F082E000C85
:10288000330B9217130659F09091CC0292FF07C0B8
:102890008595859585950E9427140E94870A08953D
:1028A000CF93C091CC02C2FB992790F9981791F071
:1028B00080FBC2F9C093CC026091CB0284E090E02F
:1028C0000E94FA326C2F82E290E00E94FA3282E09B
:1028D0000E943414CF91089521E030E001C0220F0E
:1028E0008A95EAF780911905822B0E9416140895A3
:1028F0008093BF020E94091408951092BB02EEE873
:10290000F1E086E0DF011D928A95E9F70E94091443
:102910000895AAE2B0E0EFE8F4E10C94073280E118
:1029200095E02091F100DC012D93CD01B5E08831D7
:102930009B07B9F780911105833009F472C0B8F490
:10294000813009F449C0823009F4B3C08091E800B5
:1029500083FF96C280911005909111059A3008F07E
:102960008FC2E92FF0E0E85CFC4C0C9490328A3086
:1029700009F48EC08B3009F471C0893039F7809129
:102980001005813219F78091140590911505009773
:1029900011F00297D9F68091E800877F8093E800D4
:1029A0008091E80082FF38C09091F3008091F2009E
:1029B000029731F48091F100813011F0863021F4DA
:1029C0008091F100809304058091E8008B778093DB
:1029D000E8000E942D06BACF80911005813A09F0D7
:1029E000B5CF8091E800877F8093E800809114053F
:1029F00090911505892B61F468E085E095E070E021
:102A00000E94D9068091E8008B778093E8009ECFE2
:102A100060E090E080E0F3CF809118058111C0CF95
:102A200095CF80911005813A09F090CF80911405DF
:102A300090911505892B09F089CF8091E800877F57
:102A40008093E8008091E80080FFFCCF809117011F
:102A50008093F1008091E8008E77B9CF80911005C6
:102A6000813209F073CF8091140590911505892B5F
:102A700009F06CCF8091E800877F8093E8000E9486
:102A80002D0680911205809317010E947D145ECF60
:102A900080911005813209F059CF8091E800877F3D
:102AA0008093E8000E942D06809113058093030512
:102AB0004DCF80911005813A09F048CF8091E80010
:102AC000877F8093E8008091E80080FFFCCF8091B1
:102AD0000305BECF803899F0823809F0D1C18091CA
:102AE00014058F70873008F0CBC18093E900809186
:102AF000EB0085FB882780F91092E90006C08091E1
:102B00000D0590910E05911182609091E800977FDC
:102B10009093E8008093F1001092F1008091E8001A
:102B20008E77AAC1882309F498C1823009F0A8C120
:102B30008091120581119BC1809114058F702FEF38
:102B4000280F263008F09CC18093E9002091EB000B
:102B500020FF8DC1933031F48091EB00806280932F
:102B6000EB0085C19091EB0090619093EB0021E028
:102B700030E001C0220F8A95EAF72093EA00109214
:102B8000EA008091EB008860EACF811179C1109151
:102B900012051F778091E3008078812B8093E300FA
:102BA0008091E800877F8093E8000E942D06809145
:102BB000E80080FFFCCF8091E30080688093E30011
:102BC00082E0111183E0809318055AC18058823049
:102BD00008F056C120911205309113052C3DE3E019
:102BE0003E07A1F583E08A838AE289834FB7F89490
:102BF000DE01139620E03EE051E2E32FF0E0509337
:102C00005700E49120FF03C0E295EF703F5FEF7043
:102C10008E2F90E0EA30C0F0C7968D939D932F5F82
:102C2000243159F74FBF8091E800877F8093E800F7
:102C30006AE270E0CE0101960E94D9068091E80018
:102C40008B778093E8001CC1C096E7CF8091140574
:102C500090911505432F55274330510509F44AC07B
:102C600078F54130510509F485C08BE590E0E8E343
:102C7000F4E04230510509F003C12091E800277FBC
:102C80002093E800209116053091170582179307CD
:102C900008F49C0140E02115310509F070C0411194
:102CA0006EC08091E80082FDC9CF8091180588230D
:102CB00029F2853019F28091E80083FFF2CFBECF70
:102CC0004132510509F447C04232510509F0D8C0DC
:102CD0008330910508F0D4C0FC01EE0FFF1FE258CD
:102CE000FE4F0190F081E02D85589E4FDC018C91C4
:102CF00090E01DC0332721303105E9F02115310561
:102D000079F022303105F9F02330310509F0B8C0EF
:102D1000E5EAF4E0E4918E2F90E0E5EAF4E007C004
:102D2000E3EEF4E0E4918E2F90E0E3EEF4E0009720
:102D300009F4A6C0A2CFEFECF4E0E4918E2F90E06E
:102D4000EFECF4E0F4CFE3ECF4E0E4918E2F90E0CC
:102D5000E3ECF4E0ECCF8330910508F091C0880FEC
:102D6000991FFC01EC57FE4F0190F081E02D89E0A6
:102D700090E083CF82E190E0E3E9F4E07ECF8091C0
:102D80001805882309F45ACF853009F457CF80916C
:102D9000E80083FD53CF8091E80082FD82CF8091CF
:102DA000E80080FF78CF9091F3008091F200211528
:102DB000310519F08830910550F041E0089709F08D
:102DC00040E08091E8008E778093E80064CF4491E2
:102DD0004093F1003196215031090196E8CF8038B7
:102DE00009F04EC08091E800877F8093E8008091D1
:102DF0000F058093F10092CE811142C0109112050F
:102E00001230F0F58091E800877F8093E8001093FE
:102E10000F050E942D06112311F084E005C080915A
:102E2000E30087FDFACF81E08093180542E061EC72
:102E300081E00E944C0642E261EC84E00E944C0674
:102E400042E261EC82E00E944C0642E260EC83E0E8
:102E50000E944C068091180513C0809112058130A4
:102E600079F481E0933009F080E080930E051092B0
:102E7000E9008091E800877F8093E8000E942D069A
:102E80008091E80083FF0AC08091E800877F8093EB
:102E9000E8008091EB0080628093EB00AA96E3E06B
:102EA0000C9423321F920F920FB60F9211242F937E
:102EB0003F934F935F936F937F938F939F93AF93C2
:102EC000BF93CF93DF93EF93FF93D091E900DF702F
:102ED0008091EC00C82FC17080FDC0E81092E9001D
:102EE0008091F000877F8093F00078940E9489148D
:102EF0001092E9008091F00088608093F000CD2B63
:102F0000CF70C093E900FF91EF91DF91CF91BF9116
:102F1000AF919F918F917F916F915F914F913F9171
:102F20002F910F900FBE0F901F9018950E947D1447
:102F30002FEF84E39CE0215080409040E1F700C0F7
:102F4000000088E19AE00FB6F894A895809360009D
:102F50000FBE90936000FFCF882341F08095909141
:102F60003A04892380933A040E94B0130895882379
:102F700039F090913A04982B90933A040E94B01340
:102F80000895882321F00E94800A0E94B0130895BA
:102F9000882339F09091BB02982B9093BB020E943A
:102FA000B0130895882339F19CEF980F913A28F4D3
:102FB0000E948E0A0E94B013089590E2980F9830F4
:102FC00050F4877091E001C0990F8A95EAF7892F34
:102FD0000E94800AEFCF9BE5980F933028F490E091
:102FE00080E00E9489070895885A873120F490E094
:102FF00080E00E9473070895FF920F931F93CF9371
:10300000DF93F82E0091F2041091F30401151105DD
:1030100009F449C01092F1041092F0041092ED04EA
:103020001092EE04D8011696CD91DC919E013A954E
:1030300021153F4108F4D07ED1E0C11101C0D0E09C
:10304000D8011996ED91FC911A97309731F01B96A3
:103050006D917C9180E00995D823DD2339F08CEFC8
:103060008C0F813A30F58C2F0E948E0AFF2099F048
:10307000E091F204F091F304808584FD0CC080910E
:10308000EF04882341F0808191819C012150310916
:10309000203B3D45A0F00E94B0131092F304109223
:1030A000F2041092EF04C801CDB7DEB7E5E00C944E
:1030B00021320E94B0138C2F0E94D217D7CF0E94CA
:1030C000AC07E9CFCF93C82F8823A9F08CEF8C0FE2
:1030D000813A98F4EEE8F1E084E991E02191C21799
:1030E000B9F18E179F07D1F76C2F8CE891E00E9401
:1030F00059070E94B013CF91089580E28C0F883059
:1031000068F4C77021E030E001C0220FCA95EAF7E9
:103110008091BB02822B8093BB02EBCFEBE5EC0FDF
:10312000E33040F4F0E0EC5DFE4F808190E00E94DF
:103130008907E1CFC85AC731F0F6EC2FF0E0EE0F67
:10314000FF1FE95DFE4F808191810E947307D3CFFD
:103150008C2F0E948E0A0E94B013C6CF1F93CF936C
:10316000DF93182FD0E0C0E0893311F4C0E5D0E040
:10317000812F0E946218209739F4812F0E94D21764
:10318000DF91CF911F9108958FE99FE00197F1F7AB
:1031900000C000002197EFCF0F931F93CF93DF93D1
:1031A000C62FD42F022FFC0182818823A9F06093BF
:1031B0001C050E94CA1290931B0580931A05C770C4
:1031C00081E001C0880FCA95EAF70E94C817DF9115
:1031D000CF911F910F91089580911C05681332C003
:1031E00080911A0590911B050E94BB12883C9105A5
:1031F00048F510E21D0FCD17B9F080E28C0F883032
:1032000040F4C77081E001C0880FCA95EAF70E94B8
:10321000C117183048F481E09D2F977001C0880FC6
:103220009A95EAF70E94C817802F0E94AE181830AE
:1032300070F6D77081E001C0880FDA95EAF70E9436
:10324000C117C5CFC77081E001C0880FCA95EAF7E2
:10325000F6CFB0E0A0E0EFE2F9E10C940032EC012F
:103260008AE0A82E2881222309F48FC02130C9F5D5
:1032700099818A81913021F422960E94AE1805C06E
:10328000923029F422960E9462182196EBCF933057
:1032900021F422960E94D217F8CF943011F0219693
:1032A000F4CF229630E020E0AE014F5F5F4F8053B5
:1032B000990B8A30910550F02150310930F38FE994
:1032C0009FE00197F1F700C00000F6CFA29EB00189
:1032D000A39E700D11249C01260F371F8981EA01DE
:1032E000E3CFE22FF0E0E95EFA4FB490822F8695AB
:1032F0008695869590E0FC01E95FFA4FE49027708F
:10330000F12C022E02C0F594E7940A94E2F731E022
:10331000E322FF24FC01E950FB4FC490D12C022E84
:1033200002C0D594C7940A94E2F731E0C322DD24A9
:10333000FC01E951FB4F049110E002C0159507957F
:103340002A95E2F701701127E114F10419F081EEDA
:103350000E946218C114D10419F086EE0E9462180E
:103360008B2D0E94AE18C114D10419F086EE0E9474
:10337000D217E114F10419F081EE0E94D217011561
:10338000110509F482CF8CE278CFCDB7DEB7EAE041
:103390000C941C32CF93DF93EC010E94320B9E0100
:1033A000205E31092830310510F0209741F40E9449
:1033B000C8178C2F0E946218DF91CF9108950E9448
:1033C000B717F7CF9091CC0292FF10C098E0899F79
:1033D00090011124622B6093B2020E946C140E942F
:1033E000CA129093B1028093B00208950E946C14A7
:1033F0000895A9E1B0E0EFEFF9E10C94F831498BC1
:103400005A8B6B8B7C8B8D8B611110923A041D86CD
:103410001E861F86188A85E0FE017196DE011996C8
:1034200001900D928A95E1F78091CC0282FF1CC039
:103430000E94CA122091B0023091B102821B930BFC
:103440008838934120F08091B20282FFEBC10E9444
:10345000CA122091BC023091BD02821B930B8838A6
:10346000934110F00E94750A8C859D85892B31F05F
:1034700089859A8589238F3F09F0C0C129853A85BE
:103480004B855C856D857E858F8598890E94BA25E0
:10349000C3C048EFC4164CE5D40629F4882379F05C
:1034A0000E948026EBCF69EFC6166CE5D60639F48C
:1034B000882329F0809116018111F2CFAFC10DE967
:1034C00014E0E12CB12CA12C88248394912C2EEFB4
:1034D000522E44244394F8014081518166246A9419
:1034E000762C20E0822F90E0FC01EE0FFF1FE40F0E
:1034F000F51F608171816115710531F0C616D7061F
:1035000009F43C012F5FEECFF12CFFEF6F167F0621
:1035100009F444C0F8014481F09016018F2D411147
:1035200080E0F82FF170FF2EF801258086819B85C1
:10353000992309F4F2C0FF2009F4EFC0211014C050
:10354000A401062C01C0440F0A94EAF7842B868359
:103550008091380490913904C29730F462E370E0AE
:103560007093390460933804C40102C0880F991F16
:103570002A95E2F70197F80126812817190671F4B8
:103580008091DF049091E004009709F449C00E9403
:10359000BB12C39708F444C0F8014482EF28FFEF40
:1035A000AF1ABF0A095F1F4F28E0A216B10409F045
:1035B00092CF8B85882309F40CC1EE2009F409C150
:1035C0000E94CA129093E0048093DF0480913C042F
:1035D000883010F591E0980F90933C0498E0FE013C
:1035E0003996DE01119601900D929A95E1F73CE033
:1035F000839FC0011124835C9B4F28E0FE0131961C
:10360000DC0101900D922A95E1F72FEF3FEFFC01CD
:1036100031872087D386C2866996E2E10C94143202
:103620008091DD045091DE04982FF0E0E0E08513F6
:1036300014C09093DD040E171F0709F4AFCF90E07C
:10364000FC01EE0FFF1FEB52FB4FB182A0820196EF
:10365000837099278093DE04A1CF282E312CF101AD
:10366000EE0FFF1FEB52FB4F20813181F7E0F29FFD
:10367000D001F39FB00D1124A356BB4F2D913C9167
:103680001197398F288F40E020E030E0E32FF0E001
:10369000EE0FFF1F688D798DE60FF71F6080718038
:1036A00061147104E1F0F8010190F081E02DFF8BCD
:1036B000EE8B20E005C06616770609F44F2D2F5FCC
:1036C000E22FF0E0EE0FFF1F6E897F89E60FF71FF4
:1036D000608171816115710571F73F5FD7CF442318
:1036E000C9F0F801231708F0FD014482E017F10743
:1036F00021F49093DD04F42E51CF981305C0EA17FE
:10370000FB0711F49F5F937091012F5F3F4F822F52
:1037100083708DCFF0E0E0E0F7CF90E0211020C083
:10372000B40102C0660F771F2A95E2F79B01215072
:1037300031098217930731F4442309F448C0C501C5
:103740000E941D08C401062C01C0880F0A94EAF7E4
:10375000982F9095F801868189238683F22C1ECFBD
:103760009C01062C02C0359527950A94E2F7A90121
:1037700041705527BC016150710986239723892B1D
:1037800011F5452B01F1F80182819381892BC1F05C
:103790001B821C821D821E8259825A820E94CA127A
:1037A0008160582F9D838C83F801828193818F8360
:1037B000988729813A814B816D817E810E94BA254B
:1037C000F8011582BFCFF22FF1702F2EBBCF2F2C17
:1037D000B9CF9091DD048091DE04981731F00E94FA
:1037E0008F26EE2009F44ACE17CF0E942A26109287
:1037F000E0041092DF040E944B08F3CF61E0CE0199
:1038000009960E942C106C018B85F7EFCF16FCE512
:10381000DF0609F03ECE882309F451CE81E0809383
:1038200016012CCE82E00E94341411CEA5E0B0E047
:10383000ECE1FCE10C9406328C0190932F04809310
:103840002E04011580E21807C0F4802F0E94D217C1
:10385000C8010E94320B9801205E310928303105E1
:1038600018F00115110531F40E94C1172596E4E006
:103870000C9422320E94AC17F9CF80EF89838A839F
:103880001B820E94CA128160782F9D838C8349819C
:103890005A816B818D810E94F919E8CFA5E0B0E0D3
:1038A000E4E5FCE10C94083290932F0480932E04FD
:1038B000811520E2920730F40E94CA192596E2E0B1
:1038C0000C94243280EF89838A8381E08B830E9469
:1038D000CA128160782F9D838C8349815A816B81C4
:1038E0008D810E94F919EACFA7E0B0E0EAE7FCE198
:1038F0000C94F8317C01DC0113968D919C91149706
:10390000892B39F08C9111969C9189238F3F09F076
:103910005FC62796E2E10C9414320115E4E01E071D
:1039200009F468C0C8010E94EC32811101C0DA9428
:103930000F5F1F4F78C68BEF8C0D833050F5C80199
:103940000396DB825C01DD2009F4A4C6580144E043
:10395000A40EB11C0E94EC328C83882309F49AC611
:103960000B811C8101305FEF150710F0102F00272D
:1039700086E0C81651F097E0C91619F0C8010E94F8
:103980004E1CC8010E94161C85C6C8010E944E1C10
:1039900081C6A4E0CA127EC65801B4E0AB0EB11CC9
:1039A000C80103960E94EC32DD2021F1882311F139
:1039B0008150990B989E9001999E300D1124ED2D08
:1039C000E150FF0BCF01820F931F019708F462C6ED
:1039D000AFE9BFE01197F1F700C00000F6CFCE01CC
:1039E00001960E942919560155C681E00E946C1467
:1039F0000E941B148091B202877009F48ACFD7010C
:103A000012968C91882309F484CF8091CC0282FF96
:103A100080CF82E00E9434147CCF81E00E94271482
:103A2000E7CF222309F4D2C582E0E0CF80914C0297
:103A3000082E000C990B01966FE170E00E943B325A
:103A40005C0180934C02892B11F18FE1D82EDA189A
:103A500041E06D2D8CE70E945C0841E06D2D8DE703
:103A60000E945C0841E06D2D8EE70E945C0806C54F
:103A700040E06D2D8C2D0E945C08D394BFE1DB12D9
:103A8000F7CFC394EFE7CE1601F3D12CF1CF5CE76B
:103A9000C52EFBCF0F35FDE51F0799F000362DE54C
:103AA000120749F00E353DE5130709F0ECC480918B
:103AB0000001882331F01092000180E00E94FC1781
:103AC00099CF81E08093000195CF80954822FEC474
:103AD000552009F447C410934E0200934D020E94F2
:103AE0004D076093E9047093EA048093EB0490938C
:103AF000EC041092F1041092F004E8C482FB8827D1
:103B000080F927C5552001F1817023C50E94D21785
:103B1000F5C50497813A910558F46A2D8CE891E037
:103B20000E945907552009F404C40E94B01362CFC3
:103B30000E94B0138FE39CE90197F1F700C00000E9
:103B40008A2D0E946218EECF9D819F5F9D83D6C40F
:103B5000FC01208131810217130709F0E3C35110E2
:103B6000E3C31092EF0480E00E94FC17E2C3053F1C
:103B70004CE51407C9F0A0F027E245EE66EE063FDB
:103B80008CE5180709F018C4C7010E94CC1832CF81
:103B900027E245EE65EEF8CF26E241EE60EEF4CF87
:103BA00027E245EE64EEF0CF26E241EE62EEECCF86
:103BB00028E241E0EFCF053AFDE51F0709F413C401
:103BC000D0F401363DE5130709F40DC406314CE588
:103BD000140709F0C7C58091BB028A7A91E009F405
:103BE00090E090934F0269E2811165E38CE891E0E7
:103BF0000E9459079ACFC8018D5A9D45039730F707
:103C0000F2C38091CB02806207303CE51307B9F123
:103C10008091CB02806108304CE5140780F18091DF
:103C2000CB0280642CC00D305CE5150709F4C0C0E0
:103C300090F48091CB028E7F0B309CE51907F9F050
:103C40008091CB028C600C30ACE51A07C0F08091FB
:103C5000CB028D7F14C00F30BCE51B0709F4B8C040
:103C600008F4AAC00031FCE51F0709F4B5C0809133
:103C7000CB028F7B01312CE5120709F0DEC3809364
:103C8000CB02DBC30F3F3CE5130709F4B3C0A8F533
:103C90000A3F5CE5150709F479C0C0F404319CE5DE
:103CA000190709F4B5C008F4A1C00531BCE51B072C
:103CB00009F0C3C38091CB0282FB992790F921E0E0
:103CC000922790FB82F990FB83F9D9CF0C3FECE56A
:103CD0001E0709F475C008F45DC00D3F2CE51207FE
:103CE00009F472C08091CC0283600E3F3CE513075B
:103CF00009F0A3C38093CC02A0C301364DE514079D
:103D000009F491C090F401308DE5180709F489C0D9
:103D100008F474C060E00230ADE51A0709F08DC305
:103D20008EE090E00E94FA3288C30D3ABDE51B0791
:103D3000E9F060F49091CB02892F8E7F90FF816033
:103D4000053AFDE51F0709F49ACF77C30E3A2DE532
:103D5000120751F10F3A3DE5130709F06EC3909138
:103D6000CC02892F877F93FF8860C4CF8091CC02DB
:103D70008860C0CF8091CB02826081CF8091CB02DE
:103D800084607DCF8091CB02886079CF8091CC0216
:103D90008160B0CF8091CC028260ACCF0E947D1454
:103DA0008091CB0280686BCF8091CC02877FA2CFBD
:103DB0008091CB028B7F63CF8091CB02877F5FCFD7
:103DC0008091CC028E7F96CF8091CC028D7F92CF56
:103DD0008091CB028F7E53CF8091CB028F7D4FCFCE
:103DE0000E947D148091CB028F7749CF8091CB02C6
:103DF000837F45CF8091CC028C7F7CCF8091CC0299
:103E0000982F909591708E7F892B90FB81F972CFBE
:103E10000E947D149091CB02892F97FB87F98058DF
:103E20002ECF61E07DCF9091CB02892F8F7E94FFC2
:103E3000806125CF85E33AC40E947D145FEF84E35F
:103E40009CE0515080409040E1F700C000000E948B
:103E50003C078091CC0282FB882780F991E089277A
:103E60000E945014F701868197810097C1F10E944A
:103E7000F4088C01F701C280B580B2943FE0B32210
:103E80008091B2028770C1F0AC2CCC20B1F0812FB0
:103E9000807F803421F080E2800F883068F080914C
:103EA000CC0282FF09C082E00E9434148091B202E9
:103EB0008770AA24A3948111A12C912E92942FE0B3
:103EC0009222FBE0F91508F488C0E92DF0E0EE5BE2
:103ED000FC4C0C94903281E0C3CF80E0C1CF828152
:103EE00000811181882369F0C8010E94BF0FD82E7C
:103EF000682FC8010E94160BB8018D2D0E94950FE6
:103F0000B6CFC8010E94CC0AD82EF6CF212F2F7031
:103F1000D22E107F19F0D29490EFD922CC20B9F094
:103F2000DD2069F080E2800F883010F0011109C0B7
:103F30008091BB02D82AD092BB020E94B013802F7E
:103F40004AC080913A04D82AD0923A04F6CF802F02
:103F50000E94D217DD2009F440C080E2800F883033
:103F600010F0011104C08D2D0E94800A06C0D0946B
:103F700080913A04D822D0923A040E94B0132DC006
:103F8000312F3F70D32E107F103219F0D29480EF72
:103F9000D822002381F0013009F495C0CC2009F427
:103FA0009EC0BB2009F46BC0F701858180FFC7CF9D
:103FB0008F70858364C08091CC0282FD39C0CC2093
:103FC00089F1DD2039F08091BB02D82AD092BB0262
:103FD0000E94B01380E00E946218292D2850330BF4
:103FE0002430310510F40E949F07AA20B1F080917F
:103FF000B20280FD12C0D70112961C92859585955C
:1040000085950E946C14C7010E94741C8091B202B5
:104010008595859585950E94271460E0C7010E94CB
:104020002C1077CC80E00E94D217DD20B1F29BCF1C
:10403000CC2049F1B11004C08091BE028D2920C06E
:1040400041E0B41210C082FFC8CF8091BE02D82ACE
:10405000D81619F20E94CA129093BD028093BC0236
:10406000D092BE02BACF55E0B512E6CF0E94750AD3
:10407000909150028D2D892B8913809350028D2DA4
:104080000E94C817AACFB11003C00E94750A12C0BF
:1040900081E0B81213C08091BB028D2109F49DCF3D
:1040A0000E94750A909150028D2D80958923891365
:1040B000809350028D2D0E94C1178FCF95E0B916C5
:1040C00009F48BCFE2CFCC2029F0A5E0AB1508F4A2
:1040D00084CFD5CFB4E0BB1508F47FCFEBCFBB20A6
:1040E00049F3093349F4FFEF27EE33E0F150204064
:1040F0003040E1F700C00000802F0E94D2176DCF42
:10410000812F86958695837061F0813009F065CFA7
:10411000C8019370C11002C090E080E00E94730754
:104120005CCFC8019370C11002C090E080E00E9493
:10413000890753CF812F837089F5C1104ECF402F4F
:10414000429546954770440F440F802F8F70042E80
:1041500001C0880F0A94EAF7202F207104FF07C0DE
:104160002FE030E001C0220F4A95EAF7209516951E
:1041700016951370123069F050F43091BF0211306F
:1041800029F0822B83230E94781427CF832B822B44
:10419000FACF282B8091BF028227F5CF8695CC20BD
:1041A00011F0812F8170882309F417CF402F429599
:1041B00046954770440F440F802F8F70042E01C026
:1041C000880F0A94EAF7202F207104FF07C02FE020
:1041D00030E001C0220F4A95EAF720951695169512
:1041E0001370123069F050F430911905113029F034
:1041F000822B83230E941614F0CE832B822BFACFBE
:10420000282B809119058227F5CF1F70CC2029F02B
:10421000812F0E946C14802F33CF802F0E94C117F2
:10422000812F0E942714D9CE023F89F160F4003F0C
:10423000B9F0013F81F0CC2009F464C0B1107FCE09
:10424000812F8F7128C0033F49F1043FA1F780916E
:10425000CC0282FD2FC0812F8F71CC2011F31BC0A7
:10426000CC2081F044E04B1508F4B7CE1F7181E0FB
:1042700090E0012E01C0880F0A94EAF79091190589
:104280008927B8CF55E05B1508F4A7CEEFCF812F73
:104290008F71C110C6CF0E946C149FCE80E0CC20DD
:1042A00009F4A8CF1F7181E0012E01C0880F0A9484
:1042B000EAF7A0CFCC20C9F08091B2028770843099
:1042C00041F40E94870A812F8F710E942714A12C2C
:1042D00084CE84E08B15D8F31F71812F0E946C145B
:1042E00063E0812F0E94E219F2CF94E09B1530F435
:1042F0000E94870A64E0812F8F71F4CF81E00E94D1
:104300003414E5CFBB2059F0093309F0F5CEAFEFF7
:10431000B7EEE3E0A150B040E040E1F7EBCE812FF3
:104320008F717FCF552029F0DC0118968C9185FF85
:104330001ACC033FBCE51B0709F42ECC08F017CCC0
:10434000083DFCE51F0709F423CC093D2CE51207C5
:1043500009F42ECC073D3CE5130771F526E241EE4A
:1043600061EE12CC80914D0290914E020817190710
:1043700081F410924E0210924D021092E9041092B4
:10438000EA041092EB041092EC041092F1041092E3
:10439000F0048091F2049091F304009751F2A8E0A8
:1043A0008A16910408F0D4CB642D0E94FD07811178
:1043B000C0CF81E00E94FC17D70112968C91882310
:1043C00009F46AC110921C050330BDE51B0708F013
:1043D000F2CB0A3FECE51E0730F4C80182509C4541
:1043E000449708F0F3CB0E9475109093CC02809311
:1043F000CB0202314CE5140709F4F2CC08F042CCB0
:1044000009308CE5180709F4C9CC08F00CCC05304C
:10441000ACE51A0709F4B6CC08F0F3CB0330ECE5B1
:104420001E0709F4A7CC08F0A9CC8091CB028160CB
:1044300002302CE5120709F422CC6091CB021091D6
:10444000CC0284E090E00E94FA32612F82E290E098
:104450000E94FA320E947D14CDCA0031FFE51F0789
:1044600009F4C3CA01313FE5130709F4DACAC701E9
:104470000E94360CF70182818111D8CAD7011296A9
:104480005C90511007CB80910001882309F451CF33
:10449000480140EE841A91084090BE02809150027B
:1044A000482A8091BB02482A58E08516910408F0FA
:1044B0000FCB98012770332781E090E001C0880F6F
:1044C0002A95EAF7552009F400CB482AD7018D91A7
:1044D0009C910E94CC0A21E030E0190102C0220C1C
:1044E000331C8A95E2F7E091F204F091F304FF8324
:1044F000EE8360904D0270904E021D822D81E22F5E
:10450000F0E0EE0FFF1FEE55FC4FC080D180C114CC
:10451000D10409F43ECF411005C0D60112968C910A
:10452000811112CBF601838190E082219321892BA6
:1045300009F40ACB8085982F977009F487E0F8E09A
:104540008F16910408F0DECA552009F4D7CA869563
:104550008170882309F4F8CAD601AD90BC900A1581
:104560001B0519F4552009F4EFCAEE81FF81CE1620
:10457000DF0609F4E9CAD6011D96ED91FC9130974A
:1045800021F08081882309F4DFCA642DC6010E94CE
:10459000FD07882309F4D8CA0A151B0509F089C04C
:1045A0000115110509F48AC051108AC0A614B70478
:1045B00009F0CACA512C84C000314FE5140709F430
:1045C0002CCA01315FE5150709F051CF82E026CAF8
:1045D00061E0C7010E942C108C01D70112962C912A
:1045E000222351F3E091DE02F0E0EE0FFF1FED51C8
:1045F000FD4F808191818F3FBFE79B0719F00196A6
:1046000091838083C80182519F45409708F025CF50
:104610008FEF93E00E94EC328111ECC97EEED72E31
:10462000D00E03EF11E0D11078C919821A821B82D3
:104630001C8299249A946801FFEFCF1ADF0AC801FF
:104640000E94EC3289831A82882309F4D3C981300D
:1046500009F0C5C9580122E0A20EB11CC6010E9492
:10466000EC32C82E8A83882309F4C4C9C5010E948C
:10467000EC32D82E8FEF8C0D833008F05CC95801D6
:1046800033E0A30EB11CDB82DD2021F0CE010196C8
:104690000E9429198501CFCF0631BCE51B0709F01F
:1046A000E1CB80914F028111C5CB89E20E948E0A35
:1046B0003CCAA114B10409F079CF512CB12CA12C22
:1046C00080E00E94FC17D092F304C092F20481E0D3
:1046D0008093EF04F60185818093ED0451100EC0A4
:1046E000AB2861F0F601808191819C012450310951
:1046F000213A310508F00ACA0E948E0AD6011696A0
:10470000AD90BC90C5019A9581159F4110F4E0EEE3
:10471000BE2277247394C5010197803B9D4508F024
:10472000712CD6011996ED91FC911A97309731F0C2
:104730001B966D917C9181E009957822772079F024
:10474000F601868197810E94320B8093EE04C501A9
:10475000F8E08F16910408F0DCC90E94AC070E94B3
:10476000B013E0C90A35EDE51E0709F4B4CB68F4CF
:1047700001152CE5120709F45FCB0E3D1C4509F02D
:1047800071CB0E9453110E9496170C354DE514070A
:1047900009F45FCB08F4A1CB073A1D45A1F362CB26
:1047A000CF93DF9380916B02807F09F049C08091A5
:1047B0006802882309F444C08091AF02D0916E0250
:1047C0006091660270916702A0916902B0916A02DD
:1047D000C62FC723D817A1F190E0109711F0CF3F53
:1047E00019F401968770F6CF9C0143E0220F331F26
:1047F0004A95E1F7F901E159FD4F41814713F1CFA6
:1048000040814613EECF42814111EBCF4381548169
:104810004A1B5B0B483C510520F780916B028F705F
:10482000806180936B02F901EC58FD4F80818F709D
:104830008061808386E692E00E94741C0E949B0A3D
:10484000DF91CF910895A5E1B0E0E9E2F4E20C94A4
:1048500000328C0185E0F801DE01519601900D9245
:104860008A95E1F7F801E28066E6A62E62E0B62EB0
:104870006091690270916A026115710509F45CC169
:104880009091660240916702892F84238F3F09F43B
:1048900053C120813181C380D480F0906802F60139
:1048A000E61BF70BFF2009F411C180916B02582F12
:1048B000507FE83CF10508F0C4C0511175C0FE2CD2
:1048C00043131EC092131CC060916C0270916D0264
:1048D000F801468157816417750791F4E11010C003
:1048E0008F70806180936B02C5010E94741C80915F
:1048F0006B02F80185838F2D6596EAE00C941C32DB
:10490000C114D10429F0822F83238F3F09F02FC1D6
:1049100080E0F82FF170DF2E80FF3CC08091AF0265
:1049200040916E02841315C0298B3A8B89899A892C
:104930000E94EE0F292F22952F702230F8F024309C
:1049400020F59F70F9F0F8019581907FD9F4D12C72
:104950001FC090E0FC0153E0EE0FFF1F5A95E1F7F6
:10496000E159FD4F5181351306C05081251303C015
:104970005281E5120FC001968770D4CF9F7011F05D
:10498000882329F3805E883010F3C8010E94741CCC
:10499000FD2CB1CFEE2009F4AECF80916B02816087
:1049A00080936B02F12CA7CF43131BC0921319C045
:1049B00040916C0250916D02F801268137814217B7
:1049C000530779F4E1100DC08583C8010E94741C5F
:1049D00088E0F801A6E6B2E001900D928A95E1F731
:1049E0008ACFC8010E94FB0F882339F1EE2029F1FC
:1049F00080916B028032A0F02091660230916702B4
:104A00003A8729871B86DD86CC868E8780916C024B
:104A100090916D02988B8F87CE0109960E94741C2D
:104A200088E0F801A6E6B2E001900D928A95E1F7E0
:104A30000E94D023FF24F3945ECFC8010E94741C0F
:104A4000F9CF51110AC086E692E00E94741C88E0FA
:104A5000F50111928A95E9F7A5CF431318C0921377
:104A600016C040916C0250916D02F8012681378189
:104A70004217530761F4E1100AC08583C8010E9400
:104A8000741C88E0F50111928A95E9F734CFC801CA
:104A90000E94FB0F882389F2EE2079F280916B024D
:104AA000803208F4BDCF20916602309167023A83CC
:104AB00029831B82DD82CC828E8380916C0290914F
:104AC0006D0298878F83CE010196A8CFE83CF1054F
:104AD000C0F6FE2CEE2009F4B0CF43131FC0921392
:104AE0001DC020916C0230916D02F8018681978182
:104AF0002817390799F490916B0290FD69CF907F48
:104B000009F466CF80916B028583903F09F45DCFF5
:104B1000982F907F905F8F70892B56CFC8010E948D
:104B2000FB0F81117DCF80916B02816080936B02BE
:104B3000C8010E94741CDFCEEE2009F47ECFC801AC
:104B40000E94FB0FF82E882309F477CF88E0F80144
:104B5000A6E6B2E001900D928A95E1F78091660297
:104B6000909167020E94EE0F0E94D023C4CE81E094
:104B70008E25CFCEA0E1B0E0E0ECF5E20C94083257
:104B800029873A874B875C876D877E878F87988BCD
:104B9000CE0109960E942324811112C088E0FE01F3
:104BA0003996DE01119601900D928A95E1F78C8578
:104BB0009D85892B29F089859A8589238F3F81F5E9
:104BC0008091AF0290916E02891317C06096E2E067
:104BD0000C94243293E0AA0FBB1F9A95E1F7A159D8
:104BE000BD4F98E0FE01319601900D929A95E1F744
:104BF00080936E020E949B0AE3CFB8E08B9FC001B6
:104C0000112481599D4F0E9423248823F9F2809119
:104C1000AF0290E00196877099278093AF02D0CFC2
:104C2000A0916E02B0E0CD01019687709927209186
:104C3000AF022817190671F60E947D1410926E02B9
:104C40001092AF0288E0E6E6F2E0DF011D928A955D
:104C5000E9F7B6CF0F931F93CF93DF9380913C0476
:104C6000E0913B04CCE081111AC0DF91CF911F91FC
:104C70000F910895D1E0DE0FD0933B040E2F10E08A
:104C8000EC9FF0011124E35CFB4F83819481892B1D
:104C900029F08081918189238F3F51F4ED2F8091FC
:104CA0003C04E81738F310923C0410923B04DDCF2B
:104CB000C09FD001C19FB00D1124A35CBB4F1696BD
:104CC0008D919C911797892B29F418968D919C9121
:104CD000019651F420813181428153816481758133
:104CE000868197810E94BA25C09FF001C19FF00D77
:104CF0001124E35CFB4F1482138210923A04CECF4E
:104D00001092E0041092DF04109216018091DE04EC
:104D10008093DD040E944B080E942A260895B0E08B
:104D2000A0E0E5E9F6E20C94F931C091DD0497E0EA
:104D3000892E01E010E02CE0322E3EEF932E442429
:104D400043948091DE048C1309C00E942A260E949D
:104D50004B08CDB7DEB7E1E10C941532D0E0FE018F
:104D6000EE0FFF1FEB52FB4F80819181889ED00197
:104D7000899EB00D1124A356BB4F14962C91149705
:104D8000211158C050903C04EDE3F4E030E020E005
:104D9000712C5D01251508F04BC0E284F384D50128
:104DA000CD90DC906FEF7FEF612C462D50E0DA0163
:104DB000AA0FBB1FAC0DBD1D0D90BC91A02D10976F
:104DC00031F0EA16FB0609F4BA016394EECF6F3FA7
:104DD0007607A9F1D80102C0AA0FBB1F6A95E2F7B6
:104DE0007A2AB801062C02C0660F771F0A94E2F7F0
:104DF000AB014150510974161506F9F4329EF001C9
:104E0000339EF00D1124E35CFB4F889ED001899EF8
:104E1000B00D1124A356BB4F12962D913C911397C0
:104E200037832683908291829187808715964C9252
:104E30000E941D082196C37084CF148213822F5FB5
:104E40003F4F3C96A7CF1F921FB61F9211248F93FE
:104E50009F93AF93BF938091FA04811113C0809107
:104E6000FB049091FC04A091FD04B091FE044196D6
:104E7000A11DB11D8093FB049093FC04A093FD043D
:104E8000B093FE04BF91AF919F918F911F901FBE71
:104E90001F901895CDB7DEB7CB54D1090FB6F89453
:104EA000DEBF0FBECDBF85B7806885BF85B7806880
:104EB00085BF84B7877F84BF0FB6F894A89580918B
:104EC0006000886180936000109260000FBE80E8EF
:104ED00090E00FB6F89480936100909361000FBE4C
:104EE00088E998E090938B0180938A010E940F11CA
:104EF0000E9483100E948B050E947E068091E20032
:104F000084608093E2007894809118058823A1F052
:104F10001091E9001F709091EC00892F817090FD35
:104F200080E8182B1092E9008091E80083FD0E9430
:104F300089141F701093E90082E084BD93E095BD51
:104F40009AEF97BD80936E000E945C10811102C0A1
:104F50000E94230F05E511E09BE5E92E91E0F92E73
:104F6000D8018D918D018F3F11F00E949A08E016B3
:104F7000F106B1F70BE511E083E6E82E81E0F82EAB
:104F8000F80181918F018F3F11F00E949A08E0167D
:104F9000F106B1F788E0E9E4F3E0DF01282F1D9284
:104FA0002A95E9F7E3ECF2E0DF011D928A95E9F733
:104FB00090E080E00E94F432883E9E4F21F40E94EF
:104FC0005C10811102C00E94531182E090E00E94A7
:104FD000EC328093CF020E9475109093CC028093A4
:104FE000CB020E94D612EFEFF6E721E0E150F0404D
:104FF0002040E1F700C000000E94D61280914903D2
:1050000080FF08C06FEF7FEF90E080E00E941833D0
:105010000E943C0783E090E00E94EC320E947814EA
:105020001092420380E880931D050E94F8306DE0E5
:1050300070E083E591E00E94AE0D892BE9F5809147
:10504000420363E070E081FDC0C080E591E00E9412
:10505000AE0D892B89F56DE070E080E491E00E944F
:10506000AE0D892B49F50E944D07605A75418F4F4F
:105070009F4F609332047093330480933404909371
:105080003504E0E2F5E080E092E0DF019C011D9252
:1050900021503040E1F7F0932707E09326078FEF88
:1050A0009FEF90931F0580931E0581E08093370446
:1050B000809336041092430381E080931703539842
:1050C0005B9A52985A9A8FE891E00197F1F700C0E5
:1050D00000002091170348E153E0FA018E2F841B52
:1050E000821708F475C081E091E09093F7048093F3
:1050F000F60489E493E0A8E0A80F2A96AFAF2A97B8
:1051000080911805B0E4FB2E00E112E1853009F42E
:10511000A4C00E94D612F0EDAF2EF2E0BF2EA9E49B
:10512000CA2EA3E0DA2E28ED32E0D601F5019191E6
:105130008D912E173F0709F49AC09817C1F310E01C
:10514000D6010D916D01F50181915F018017A1F1EB
:10515000982E9026F12CEE24E394892D8E2121F1B6
:105160002596FFAE259726961FAF269791E0802FB4
:105170008E2109F490E027969FAF27970E94CA12CC
:105180008160782F29969FAF8EAF299725964FADD6
:10519000259726965FAD269727966FAD2797299678
:1051A0008FAD29970E94F919F394EE0CF6E0FF12E7
:1051B000D4CFF501319700831F5F183009F0C0CFBD
:1051C0000E944D07EE24E3947FC08DE491E03FCF31
:1051D00089B183FB882780F94A9904C090E0892B24
:1051E00081937CCF92E0FBCF80911805843029F128
:1051F0000E94D80D1092FA04E8E1F0E00FB6F8949E
:10520000A895E09360000FBEF092600083B7817FA5
:10521000846083BF83B7816083BF7894889583B7A8
:105220008E7F83BF0FB6F894A89580916000886147
:1052300080936000109260000FBE80910E0588235D
:1052400061F00E94D612E9E4F3E081918111B2C7C6
:105250002A962FAD2A972E13F8CF80911805853006
:1052600009F4C2CF0E947D140E949F0752CF981369
:1052700066CF0E94CA128C018091CD029091CE021D
:105280000817190701F18FEF8FAF21968FAF219784
:1052900022961FAE22970E94CA128160782F249610
:1052A0009FAF8EAF24974FAD21965FAD2197229689
:1052B0006FAD229724968FAD24970E94F919109311
:1052C000CE020093CD02E12C8091F0049091F10484
:1052D000892B09F43EC04091E5045091E6046091A9
:1052E000E7047091E8042FB7F8948091FB04909143
:1052F000FC04A091FD04B091FE042FBF841B950B0C
:10530000A60BB70B4091E1045091E2046091E304D5
:105310007091E40484179507A607B707D0F0809131
:10532000F0049091F1040E94CA191092F1041092B5
:10533000F0041092E5041092E6041092E704109233
:10534000E8041092E1041092E2041092E304109237
:10535000E40480911601882301F18091DF0490918B
:10536000E0040097D1F00E94BB12209138043091E4
:1053700039042817390788F49091DD048091DE0400
:10538000981709F415C20E948F26109239041092C2
:1053900038041092E0041092DF044090E302509031
:1053A000E402052C000C6608770880910D0190E05E
:1053B000E3EEF2E021E030E03296821793070CF042
:1053C00000C28091DF029091E002A091E102B091D1
:1053D000E2026FB7F8948090FB049090FC04A090D8
:1053E000FD04B090FE046FBF881A990AAA0ABB0A8E
:1053F00010910D0129EC82169104A104B10414F15D
:105400008091DE0290E0019669E170E00E943B32FB
:105410008093DE02880F991FFC01ED51FD4F118230
:105420001082812F183108F087E18F5F80930D0182
:105430000E944D076093DF027093E0028093E102C7
:105440009093E20232E043165104610471040CF4BB
:10545000C5C1A0E6BAEEA30192010E949D322B01C4
:105460003C0188EC189F90011124032E000C440B82
:10547000550B280D391D4A1D5B1DA5E0B0E00E94AB
:105480009D329B01AC01C301B2010E944F32290140
:105490003A0191EF49165104610471042CF070EF48
:1054A000472E512C612C712C8091DA029091DB02F5
:1054B000A091DC02B091DD022FB7F8948090FB043C
:1054C0009090FC04A090FD04B090FE042FBF881AB9
:1054D000990AAA0ABB0AA5E68A169104A104B10496
:1054E00084F00E944D076093DA027093DB02809390
:1054F000DC029093DD02809119038093D9024092DF
:10550000D8021091D902A091D802A11BBB0BA50112
:1055100094010E94A83224E630E040E050E00E946E
:105520007132120F10931903912CF12C44E0A42E28
:10553000B12C5DEF852E772473946CEF662E8091ED
:105540001703981608F44EC1F1100E944D07809180
:105550003704882309F4E0C080E295E090932707A0
:10556000809326070091190380912103811130C097
:105570000E94CC0B0E94630B90E080E00E94360CEE
:1055800010E09FE1A92E2FE0922E3AE7832EBA2C4D
:10559000B11A812F692D0E942F32B2E0CB2E9111CA
:1055A00007C041E06B2D85E70E945C0883E0C82EB0
:1055B000D12C41E06B2D882D8D190E945C08D3946D
:1055C000DC10F7CF1D5F113211F781E080932103CA
:1055D00080E291E00E94350D80911D0590E0805E93
:1055E0009A4F909327078093260780910E01081306
:1055F00005C080911E03803309F44BC000930E0157
:1056000080E380931E03802E912CB12CA12C10924C
:105610001D03C501B4012AE030E040E050E00E94E3
:105620004F32605D603331F081149104A104B10404
:1056300009F460E360931C0360E3FAE08F169104C1
:10564000A104B10490F0AAE04A2E512C612C712CD7
:10565000C501B401A30192010E944F32CA01B901F0
:10566000A30192010E944F32605D60931B0324E608
:1056700082169104A104B10408F450C1C501B4011B
:1056800024E630E040E050E00E944F32205D20935D
:105690001A038AE193E00E94350D80911F039091D7
:1056A00020030E94BB128D32914058F0802F0E943F
:1056B000CC0B0E94630B0E94CA129093200380932C
:1056C0001F0380913704882371F020911E053091CB
:1056D0001F052115310539F08091430361E070E029
:1056E000882309F41EC1809136048823A9F00E9402
:1056F0004D0700913204109133042091340430910D
:105700003504601B710B820B930B6F3F7F4F8F4FE4
:105710009F4710F40E94D80DE11001C0F1100E94C3
:10572000F30D0E949F0790914403891721F0809305
:1057300044030E944D0780911805843009F0E0CCA5
:1057400083E08093E9008091E80082FFD9CC8091CA
:10575000E80090E085FF06C00E94AA05882309F4AE
:10576000B3C191E08091E8008B778093E8009923A2
:1057700009F4C6CC009130041091310489810115DF
:10578000110509F4BEC18E3F09F043C28A818330FE
:1057900020F08550833008F03CC2EA81EE3008F0FA
:1057A00038C2F0E0E25BFC4CCE0101960C949032E2
:1057B0000E942A261092E0041092DF040E944B08F7
:1057C000ECCD40815181052E000C660B770B440E09
:1057D000551E661E771E2F5F3F4FEECD412C512C7C
:1057E000320162CE092D10E0E9B1E3FBEE27E0F9CA
:1057F0004A9992C080E08E2BD801A85EBC4FEC91F4
:105800009E2F9370891709F485C0EE0FEE0FE82BD9
:10581000EC93EF70F0E0ED59FE4F98012A5E3C4F9B
:1058200069018081D9019C91890F8C9320E084309B
:105830008CF1F801EB5EFC4F80818F5F80830E94CA
:10584000CA129DAA6EAA7FAA8160782F99AF88AFED
:10585000492D5CEF61E089AD0E94F919EFE3FFE1AA
:105860003197F1F700C000000E94CA129AAE6BAEE9
:105870001CAE8160782F9EAF8DAF492D5CEF60E04C
:105880008EAD0E94F9198FE39FE10197F1F700C0F7
:10589000000021E0D6018C918D3F8CF5F801EB5E84
:1058A000FC4F8081815080830E94CA129BA68CA6E7
:1058B0007DA68160782F9FA78EA7492D5DEF61E0BF
:1058C0008FA50E94F919EFE3FFE13197F1F700C0CE
:1058D00000000E94CA1298AA89AA1AAA8160782F89
:1058E0009CAB8BAB492D5DEF60E08CA90E94F91950
:1058F0008FE39FE10197F1F700C0000021E0D6019E
:105900008C91082E000C990BB5010E943B32F601D8
:105910008083F22A939413CE82E06DCF20E3B7CE3A
:105920008F5F082F10E02B01082E02C0440C551C7D
:105930000A94E2F7A90144215521452B89F390915E
:10594000420390FD44C08295880F807680931101B8
:105950009801369527953695279520931401815EF9
:10596000809312011092150124E630E047E050E0E8
:105970006FE071E088E70E949831892B09F0B3CE7F
:10598000A801E5E0440F551FEA95E1F78091420335
:1059900080FD2BC0405E5A4F04E610E020E230E06C
:1059A00060E488E70E94B931892B09F09CCE0E94FF
:1059B000F30DC2018095909540901E0550901F05F3
:1059C0004822592250921F0540921E058CCE880F06
:1059D000880F880F8093110110921401895F8093C2
:1059E000120183E080931501BFCFE2E2F3E080E291
:1059F000DF011D928A95E9F7E7E7F1E02C96FFAF0A
:105A0000EEAF2C9703E711E07BE7672E71E0772E6E
:105A1000992493942C96AEADBFAD2C972D912C96D6
:105A2000BFAFAEAF2C97F80121908F01240E352E19
:105A3000311CC101805E9A4F1C01E22FF0E0EE5D47
:105A4000FC4F30E020E067E0A62EA21AB92C022E0F
:105A500001C0BB0C0A94EAF7610190E0D6018D9178
:105A60006D018B216A2D691B6770862E062E000C36
:105A7000770BB82F01C0BB0F8A94EAF78B2E719574
:105A8000619571096770772701C086956A95EAF775
:105A9000882A8081882A80829F5F9830F9F62F5F5C
:105AA0003F4F31962830310571F62C96EEADFFADA3
:105AB0002C976E167F0609F0ADCF04E610E020E2C9
:105AC00030E042E253E06CCF00E210E09E012F5F35
:105AD0003F4F79018091E80085FD0AC08091E80080
