:100000000C946C0D0C94890D0C94890D0C94890D35
:100010000C94890D0C94890D0C94890D0C94890D08
:100020000C94890D0C94890D0C94C4160C944D1CE1
:100030000C9428270C94890D0C94890D0C94890D2F
:100040000C94890D0C94890D0C94890D0C94890DD8
:100050000C94890D0C949D170C94890D0C94890DAA
:100060000C94890D0C94890D0C94890D0C94890DB8
:100070000C94890D0C94890D0C94890D0C94890DA8
:100080000C94890D0C94890D0C94890D0C94890D98
:100090000C94890D0C94890D0C94890D0C94890D88
:1000A0000C94890D0C94890D0C94890D050109801F
:1000B000A101850319012AB700150126B700950192
:1000C00075108100C0050C0901A101850419012AE0
:1000D000A002150126A002950175108100C00660DE
:1000E000FF0961A1010962150026FF00952075082E
:1000F00081020963150026FF00952075089102C052
:1001000005010906A101050719E029E715002501E8
:10011000950875018102950175088101050719008F
:1001200029FF150026FF00950675088100050819AE
:10013000012905950575019102950175039101C08D
:1001400000000000000000000000000000000000AF
:10015000000000000000000000000000000000009F
:10016000000000000000000000000000000000008F
:10017000000000808000000000008040402020201F
:1001800020101010100804020101020C3040800001
:10019000000000000000F8F8F8F8000000000080FF
:1001A00080000000000000000000000000000000CF
:1001B00000000000000000000000000000808080BF
:1001C000000000000000000000000000000000002F
:1001D000000000000000000000000000000000001F
:1001E000000000000000000000000000000000000F
:1001F000001EE10000010102028180800000808079
:10020000000000000000000000800030300000010D
:100210000102040810204387070100B8BCBE9F5F9D
:100220005F4F4C20202020101010100808080808EC
:10023000040404040402020202010101010000009E
:1002400000000000000000000000000000000000AE
:10025000000000000000000000000000000000009E
:10026000000000000000000000000000000000008E
:1002700080700C030000180605989984437C414166
:100280004040202122121111110908080808040415
:1002900008081010101010110F013D7CFCFCFCFC34
:1002A000FC3C0C000000000000000000000000000A
:1002B000000000000000000000000000000000003E
:1002C000000000000000000000000000000000002E
:1002D00000808080808040404040402020202020BE
:1002E0001010101010080808080804040404040280
:1002F00003020201010101010100000000000000F1
:1003000000000000000000000000000000000000ED
:1003100000000000000000000000000000010303D6
:1003200000000000000000000000000000000000CD
:1003300000000000000000000000000000000000BD
:1003400000000000000000000000000000000000AD
:10035000000000000000000000000000000000009D
:10036000000000000000000000000000000000008D
:10037000000000808000000000008040402020201D
:1003800020101010100804020101020C30408000FF
:10039000000000000000000000000000000000005D
:1003A000000000000000000000000000000000004D
:1003B00000000000000000000000000000808080BD
:1003C000000000000000000000000000000000002D
:1003D000000000000000000000000000000000001D
:1003E000000000000000000000000000000000000D
:1003F000001EE100000101020201000000008080F7
:10040000000000000000000000800030300000010B
:10041000E11A06093135018A7C0000808080804025
:100420004040402020202010101010080808080824
:10043000040404040402020202010101010000009C
:1004400000000000000000000000000000000000AC
:10045000000000000000000000000000000000009C
:10046000000000000000000000000000000000008C
:1004700080700C030000000000000000000001017B
:100480000040A021221211111109080808080404D3
:100490000404040402020201010101000000000042
:1004A000000000000000000000000000000000004C
:1004B000000000000000000000000000000000003C
:1004C000000000000000000000000000000000002C
:1004D00000808080808040404040402020202020BC
:1004E000101010101008080808080404040404027E
:1004F000037A7A7979797939310202040408080893
:1005000088888780000000000000000000000000D4
:1005100000000000000000000000000000000000DB
:1005200000000000000000000000000000000000CB
:1005300000000000000000000000000000000000BB
:1005400000000000000000000000000000000000AB
:10055000000000000000000000000000000000009B
:10056000000000000000000000000000000000008B
:10057000000000808000000000008040402020201B
:1005800020101010100804020101020C30408000FD
:10059000000000000000000000000000000000005B
:1005A000000000000000000000000000000000004B
:1005B00000000000000000000000000000808080BB
:1005C000000000000000000000000000000000002B
:1005D000000000000000000000000000000000001B
:1005E000000000000000000000000000000000000B
:1005F000001EE10000010102028180800000808075
:100600000000000000000000008000303000000109
:10061000E11A06093135018A7C0000808080804023
:100620004040402020202010101010080808080822
:10063000040404040402020202010101010000009A
:1006400000000000000000000000000000000000AA
:10065000000000000000000000000000000000009A
:10066000000000000000000000000000000000008A
:1006700080700C030000180605989984C37C4141E2
:100680004040202122121111110908080808040411
:100690000404040402020201010101000000000040
:1006A000000000000000000000000000000000004A
:1006B000000000000000000000000000000000003A
:1006C000000000000000000000000000000000002A
:1006D00000808080808040404040402020202020BA
:1006E000101010101008080808080404040404027C
:1006F00003020201010101010100000000000000ED
:1007000000000000000000000000000000000000E9
:1007100000000000000000000000000000000000D9
:1007200000000000000000000000000000000000C9
:1007300000000000000000000000000000000000B9
:1007400000000000000000000000000000000000A9
:100750000000000000000000000000000000000099
:100760000000000000000000000000000000000089
:100770000000000000000000000080404020202019
:1007800020101010101008080404040830408000E5
:100790000000000000000000000000000000000059
:1007A0000000000000000000000000000000000049
:1007B00000000000000000000000000000808080B9
:1007C0000000000000000000000000000000000029
:1007D0000000000000000000000000000000000019
:1007E0000000000000000000000000000000000009
:1007F00000186482020202020201000000008080F0
:100800000000000000000000008000303000C0C187
:10081000C1C2040810204080000000808080804019
:100820004040402020202010101010080808080820
:100830000404040404020202020101010100000098
:1008400000000000000000000000000000000000A8
:100850000000000000000000000000000000000098
:100860000000000000000000000000000000000088
:10087000C0380403000000000000000C0C0C0D0147
:100880000040A021221211111109080808080404CF
:1008900008081010101010110F01010000000000D6
:1008A0000000000000000000000000000000000048
:1008B0000000000000000000000000000000000038
:1008C0000000000000000000000000000000000028
:1008D00000808080808040404040402020202020B8
:1008E000101010101008080808080404040404027A
:1008F00003020201010101010102020404080808C7
:1009000008080700000000000000000000000000D0
:1009100000000000000000000000000000000000D7
:1009200000000000000000000000000000000000C7
:1009300000000000000000000000000000000000B7
:1009400000000000000000000000000000000000A7
:100950000000000000000000000000000000000097
:100960000000000000000000000000000000000087
:100970000000000000000000000080404020202017
:1009800020101010101008080404040830408000E3
:100990000000000000000000000000000000000057
:1009A0000000000000000000000000000000000047
:1009B00000000000000000000000000000808080B7
:1009C0000000000000000000000000000000000027
:1009D0000000000000000000000000000000000017
:1009E0000000000000000000000000000000000007
:1009F00000186482020202020201000000008080EE
:100A00000000000000000000008000303000C0C185
:100A1000C1C2040810204080000000808080804017
:100A2000404040202020201010101008080808081E
:100A30000404040404020202020101010100000096
:100A400000000000000000000000000000000000A6
:100A50000000000000000000000000000000000096
:100A60000000000000000000000000000000000086
:100A7000C0380403000000000000000C0C0C0D0145
:100A80000040A021221211111109080808080404CD
:100A900008081010101010110F01010000000000D4
:100AA0000000000000000000000000000000000046
:100AB0000000000000000000000000000000000036
:100AC0000000000000000000000000000000000026
:100AD00000808080808040404040402020202020B6
:100AE0001010101010080808080804040404040278
:100AF00003020201010101010102020404080808C5
:100B000008080700000000000000000000000000CE
:100B100000000000000000000000000000000000D5
:100B200000000000000000000000000000000000C5
:100B300000000000000000000000000000000000B5
:100B400000000000000000000000000000000000A5
:100B50000000000000000000000000000000000095
:100B60000000000000000000000000000000000085
:100B700000000000000000000000008080404040B5
:100B80004020202020100804020204186080000089
:100B90000000000000000000000000000000000055
:100BA0000000000000000000000000000000000045
:100BB00000000000000000000000000000808080B5
:100BC0000000000000000000000000000000000025
:100BD0000000000000000000000000000000000015
:100BE0000000000000000000000000000000000005
:100BF000003CC201010202040402010000000000E6
:100C00000000000000000000000000606000818221
:100C10008284081020408000000000808080804096
:100C2000404040202020201010101008080808081C
:100C30000404040404020202020101010100000094
:100C400000000000000000000000000000000000A4
:100C50000000000000000000000000000000000094
:100C60000000000000000000000000000000000084
:100C700080701906000000000000001818181B03FF
:100C80000040A02224141212120B080808080505BF
:100C900009091010101010110F01010000000000D0
:100CA0000000000000000000000000000000000044
:100CB0000000000000000000000000000000000034
:100CC0000000000000000000000000000000000024
:100CD00000808080808040404040402020202020B4
:100CE0001010101010080808080804040404040276
:100CF00003020201010101010102020404080808C3
:100D000008080700000000000000000000000000CC
:100D100000000000000000000000000000000000D3
:100D200000000000000000000000000000000000C3
:100D300000000000000000000000000000000000B3
:100D400000000000000000000000000000000000A3
:100D50000000000000000000000000000000000093
:100D60000000000000000000000000000000000083
:100D70000000008080000000000080404020202013
:100D800020101010100804020101020C30408000F5
:100D90000000000000000000000000000000000053
:100DA0000000000000000000000000000000000043
:100DB00000000000000000000000000000808080B3
:100DC0000000000000000000000000000000000023
:100DD0000000000000000000000000000000000013
:100DE0000000000000000000000000000000000003
:100DF000001EE100000101020201000000008080ED
:100E00000000000000000000008000303000C0C181
:100E1000C1C2040810204080000000808080804013
:100E2000404040202020201010101008080808081A
:100E30000404040404020202020101010100000092
:100E400000000000000000000000000000000000A2
:100E50000000000000000000000000000000000092
:100E60000000000000000000000000000000000082
:100E700080700C03000000000000000C0C0C0D0141
:100E80000040A021221211111109080808080404C9
:100E900008081010101010110F01010000000000D0
:100EA0000000000000000000000000000000000042
:100EB0000000000000000000000000000000000032
:100EC0000000000000000000000000000000000022
:100ED00000808080808040404040402020202020B2
:100EE0001010101010080808080804040404040274
:100EF00003020201010101010102020404080808C1
:100F000008080700000000000000000000000000CA
:100F100000000000000000000000000000000000D1
:100F200000000000000000000000000000000000C1
:100F300000000000000000000000000000000000B1
:100F400000000000000000000000000000000000A1
:100F50000000000000000000000000000000000091
:100F60000000000000000000000000000000000081
:100F70000000000000000000000080404020202011
:100F800020101010100808040202020438408000EB
:100F90000000000000000000000000000000000051
:100FA0000000000000000000000000000000000041
:100FB00000000000000000000000000000808080B1
:100FC0000000000000000000000000000000000021
:100FD0000000000000000000000000000000000011
:100FE0000000000000000000000000000000000001
:100FF000001CE201010202020201000000008080E8
:101000000000000000000000008000303000C0C17F
:10101000C1C2040810204080000000808080804011
:101020004040402020202010101010080808080818
:101030000404040404020202020101010100000090
:1010400000000000000000000000000000000000A0
:101050000000000000000000000000000000000090
:101060000000000000000000000000000000000080
:1010700080700C03000000000000000C0C0C0D013F
:101080000040A021221211111109080808080404C7
:1010900008081010101010110F01010000000000CE
:1010A0000000000000000000000000000000000040
:1010B0000000000000000000000000000000000030
:1010C0000000000000000000000000000000000020
:1010D00000808080808040404040402020202020B0
:1010E0001010101010080808080804040404040272
:1010F00003020201010101010102020404080808BF
:1011000008080700000000000000000000000000C8
:1011100000000000000000000000000000000000CF
:1011200000000000000000000000000000000000BF
:1011300000000000000000000000000000000000AF
:1011400000DA0281FFD9F1DB20A4A62EAF00A0C0F7
:1011500000A1C800AED580A81FD300408D14200088
:10116000FD377A585A000004E6D6B4460200210141
:1011700016000000742FE5A3E003AA01655D003DA1
:101180008889C65436C3174FE4F5602D3B56DF21DE
:1011900044B4FF40F91849E5B259552B74A4282BE3
:1011A00052BA4EE1D329566E894CBE8A86793225D1
:1011B000DE38527A68E2ACA3787F1AA530E18773F3
:1011C00035CA4B3A82E9046FD6B8AFECC64737A1AF
:1011D0009C656835CE7A8C262B11871502FAE84774
:1011E000F1AADE73BEA755EFE67FE65B2FB304429C
:1011F0009E627BBCA8235D1A1C0E6C2D35E9F3485A
:10120000B3108AF43FF19D2321848E707EB8706EF6
:1012100046E916FFED5133E0EB4BC6F5EA4B2647A6
:101220002CDB7824171DA3507DD1D9387E9A79AA5A
:1012300068268A6FAECD3B584EB9F6C90FB8E4EFB9
:10124000ACFB4001878582DCE86A7424FD6EDB7AA2
:101250001F8A4095C8D124D4BACB1C5AE34F7A8454
:10126000E4A117F0A392E8B04A3544E49FFE530589
:10127000144E08C1B3F7EF9FE35565B1FF0EDE567C
:10128000592693878777871272FFD3B09682E5C37A
:10129000755DED984F1F928F3A1399F5235C02C24A
:1012A000759024ACE615FE78F39EEBA65E22A57C35
:1012B000E8F6666AE461794EF348819E71A7488931
:1012C0004742D03191D85C381EA400213CBE15B6EF
:1012D0003D71D988B310F55A8BE3BA76460E706F1C
:1012E000701524000000000024C46F803DF88F5F5B
:1012F00000018103AB070000F1E13CCEB1C467FB04
:10130000020000000004595AA900AA00AB00AC007A
:10131000AB00AC0029001A0015001C000C001300E3
:10132000140008001700180012002A002B001600F5
:1013300009000B000E003300040007000A000D0036
:101340000F00280035621D00060005001000370060
:1013500038001B00190011003600E500E000E20033
:101360002C412C41E700AE00E30000000251E600F2
:10137000E400A80029001F00210023002500270009
:101380001E0020002200240026002A000100010087
:10139000010052002D003400010001000100520044
:1013A0002E00280001000100010050004F0038000D
:1013B00001000100010051002E00010001000100A8
:1013C000010001000100AE00010000000100010069
:1013D0000100A8000100C85C0100010052000100EA
:1013E000C75C010001000000010001000100C35CB6
:1013F0000100000051000100C25CC45C010050000B
:101400004F0001000100CA5C010001000100520010
:10141000C95C01000100010001005200010001004F
:101420000100010051000100010000000100500016
:101430004F00010000AF00AE09025B00030100A0F5
:10144000FA09040000010301010009211101000152
:10145000224000070581030800010904010002037E
:10146000000000092111010001222200070582036A
:101470002000010705030320000109040200010305
:101480000000000921110100012232000705840338
:101490002000011201000200000008868053530062
:1014A00001010203011C037600690061006C003A2F
:1014B00000660036003400630032006200330063CF
:1014C0000000000A036C00690074006C0000001248
:1014D000035300540048004C004D0020006B006294
:1014E00000000004030904000000000000000000E8
:1014F00000000000000000000000000000000000EC
:1015000000000000000000000000007E0F00D4FF7B
:10151000FFFFC70000007800000000000000002A64
:101520002B28000000000000000000000000000068
:10153000000029000000002C1E3420212224342623
:1015400027252E362D3738271E1F2021222324251C
:10155000263333362E37381F0405060708090A0BD1
:101560000C0D0E0F101112131415161718191A1B43
:101570001C1D2F3130232D350405060708090A0BE1
:101580000C0D0E0F101112131415161718191A1B23
:101590001C1D2F3130354C07087F0807003E5B4F7C
:1015A0005B3E003E6B4F6B3E001C3E7C3E1C0018B9
:1015B0003C7E3C18001C577D571C001C5E7F5E1C47
:1015C0000000183C180000FFE7C3E7FF00001824E4
:1015D000180000FFE7DBE7FF0030483A060E002660
:1015E0002979292600407F05050700407F05253F12
:1015F000005A3CE73C5A007F3E1C1C0800081C1C9B
:101600003E7F0014227F2214005F5F005F5F0006B0
:10161000097F017F00006689956A006060606060F4
:101620000094A2FFA2940008047E04080010207E0B
:1016300020100008082A1C0800081C2A0808001EA0
:1016400010101010000C1E0C1E0C0030383E3830EC
:1016500000060E3E0E060000000000000000005FC5
:10166000000000000700070000147F147F1400240E
:101670002A7F2A120023130864620036495620503C
:1016800000000807030000001C2241000000412266
:101690001C00002A1C7F1C2A0008083E08080000C5
:1016A0008070300000080808080800000060600032
:1016B000002010080402003E5149453E0000427FD0
:1016C0004000007249494946002141494D33001804
:1016D00014127F10002745454539003C4A494931DD
:1016E0000041211109070036494949360046494958
:1016F000291E00000014000000004034000000001B
:101700000814224100141414141400004122140877
:10171000000201590906003E415D594E007C12113C
:10172000127C007F49494936003E41414122007FF9
:101730004141413E007F49494941007F0909090172
:10174000003E41415173007F0808087F0000417F3F
:101750004100002040413F01007F08142241007FEA
:1017600040404040007F021C027F007F0408107F41
:10177000003E4141413E007F09090906003E4151BA
:10178000215E007F09192946002649494932000394
:10179000017F0103003F4040403F001F2040201FC9
:1017A000003F4038403F006314081463000304788E
:1017B0000403006159494D4300007F41414100024B
:1017C0000408102000004141417F0004020102048E
:1017D00000404040404000000307080000205454EF
:1017E0007840007F28444438003844444428003876
:1017F0004444287F0038545454180000087E0902DD
:101800000018A4A49C78007F080404780000447D9C
:101810004000002040403D00007F102844000000B0
:10182000417F4000007C04780478007C0804047840
:1018300000384444443800FC182424180018242498
:1018400018FC007C08040408004854545424000484
:10185000043F4424003C4040207C001C2040201CCD
:10186000003C4030403C004428102844004C9090FC
:10187000907C004464544C44000008364100000051
:101880000077000000004136080000020102040257
:10189000003C2623263C00000000000000404040A1
:1018A000F0F8F8FF38FFF8F83FF8F8FF38FFF8F8DD
:1018B000F040404000000000000080C0C0C0800038
:1018C00000C0C08000000080C0C000C0C000008018
:1018D000C0C00000000000C0C0C0C0C000C0C00048
:1018E00000000000000000000000000000000000F8
:1018F00000000000000000000000000000000000E8
:1019000000000000000000000000000000000000D7
:10191000000000000000C0F0F8FC3E1E06010000C0
:10192000007F4141417F007F4141417F000080C0F5
:10193000E07E5B4F5BFEC00000C000DCD7DEDEDE79
:10194000D7DC00C000000000000000000000000024
:1019500000000000000000000000000000494949AC
:10196000FFFFFFFFE0DFBFBF00BFBFDFE0FFFFFF04
:10197000FF49494900000000001F3F6060E0BF1FB1
:10198000007F7F071E381E077F7F007F7F0E1F3B73
:10199000716000000000007F7F0C0C0C007E7E0058
:1019A0007F7E0303007F7E03037E7E03037F7E0032
:1019B0000F3E703C063C703E0F00327B49493F7E33
:1019C000007F7E0303001E3F69696F260000000050
:1019D000000000000000030F1F3F3C787060000013
:1019E000007F4141417F007F4141417F00307B7F4B
:1019F0007830202030787F3B0003000F7F0F0F0FDF
:101A00007F0F000300000000000000000000000045
:101A100000000000000000000000000000010101C3
:101A2000070F0F7F0F7F0F0F7E0F0F7F0F7F0F0F9F
:101A3000070101010000000000000000000001019A
:101A40000000000000000000000000000000000096
:101A50000000000000000000000000000000000086
:101A60000000000000000000000000000000000076
:101A70000000000000000000000000000000000066
:101A80000000000000000000000000000000000056
:101A90000000000000000000000000000000000046
:101AA0000000000000000000000000000000000036
:101AB0000000000000000000000000000000000026
:101AC0000000000000000000000000000000000016
:101AD000000000000000000011241FBECFEFDAE07C
:101AE000DEBFCDBF11E0A0E0B1E0EAE9F9E602C057
:101AF00005900D92AE38B107D9F724E0AEE8B1E019
:101B000001C01D92A53DB207E1F70E944F270C943A
:101B1000A7340C940000CF93DF934091D3045091ED
:101B2000D404435D52409A013E5F21303240C0F000
:101B300020E032E0241B350B6091D1027091D2027B
:101B4000FC01CA01240F351FC1E0D0E082179307C2
:101B500050F07093D2026093D102DF91CF9108953B
:101B600020E032E0E9CF4491DC01AD52BD4F5C9101
:101B7000451781F04C93AC01A5E056954795AA9581
:101B8000E1F7DE0102C0AA0FBB1F4A95E2F7AD01E3
:101B90006A2B752B01963196D9CFE8EDF0E0808164
:101BA0008E7F80831092E2001092DA001092E100A2
:101BB000A0EEB0E08C9181608C9380818F778083E0
:101BC00019BCA7EDB0E08C918E7F8C9380818F7EC5
:101BD00080831092AF0208952091E4003091E500D7
:101BE00095E6A9012091EC00822F817020FF06C0AC
:101BF0008091E80080FF06C080E008952091E80011
:101C000022FD1AC08091C502882389F0853089F0B1
:101C10008091EB0085FD0FC02091E4003091E5003C
:101C200042175307F9F29150E1F684E0089582E0FB
:101C3000089583E0089581E00895EF92FF920F9355
:101C40001F93CF937C018B010E94EC0DC82F811153
:101C500017C08091E80085FD0BC08091E8008E7769
:101C60008093E8000E94EC0D882399F3C82F08C0E8
:101C7000F70181917F018093F1000150110949F72B
:101C80008C2FCF911F910F91FF90EF900895CF93DC
:101C9000FC018091C502843001F5C091E900CF704C
:101CA0002091EC00922F917020FD90E8C92B82E0EA
:101CB0008093E9008091E80080FF0CC050E040E094
:101CC00060E270E0CF010E941D0E8091E8008E77E7
:101CD0008093E800CF70C093E900CF910895809180
:101CE000BD0287FF13C08091E80082FF06C080918B
:101CF000E8008B778093E80004C08091C5028111D1
:101D0000F2CF08958091C5028823D9F38091E8002D
:101D100080FFF8CF8091E8008E77ECCF982F9093DA
:101D2000E900242F762F50E0891731F07091EC00F4
:101D30002091ED005091F00021FD07C09F5F97308A
:101D400071F78093E90081E008953091EB003E7FC8
:101D50003093EB003091ED003D7F3093ED003091FA
:101D6000EB0031603093EB007093EC002093ED00BA
:101D70005093F0002091EE0027FDE0CF80E0089521
:101D8000B0E0A0E0E6ECFEE00C94F930C8EDD0E065
:101D900088818F7E8883E7EDF0E080818160808399
:101DA00084E082BF81E08093AF0288818E7F888348
:101DB00002EE10E0F80110821092DA0081EEC82ED7
:101DC000D12CF601108288818F7788838881806882
:101DD000888388818F7D888319BC1092C5021092F8
:101DE000BC021092BB021092BA0290EEE92EF12CC6
:101DF000F70180818B7F808388818160888342E0C6
:101E000060E080E00E948E0EF60180818E7F8083EC
:101E1000F801808181608083808188608083F70100
:101E200080818E7F8083888180618883CDB7DEB793
:101E3000E8E00C941531FC018091C3029091C4023A
:101E400086179707A0F06115710529F49091E800B5
:101E50009E779093E80090E06115710551F491111F
:101E600008C08091E80082FF34C080E00895BC0182
:101E7000F2CF8091C5028823C1F18530C1F18091F4
:101E8000E80083FD30C08091E80082FDEACF8091B8
:101E9000E80080FFE1CF8091F3002091F200382F1D
:101EA0006115710519F02830310558F091E028309E
:101EB000310509F090E02091E8002E772093E800AA
:101EC000CBCF81918093F100615071092F5F3F4F1B
:101ED000E7CF8091C502882341F0853041F08091A1
:101EE000E80083FFBECF81E0089582E0089583E09B
:101EF0000895089508958091B102089587E797E7BE
:101F0000909301088093000888E19AE00FB6F89456
:101F1000A895809360000FBE90936000FFCF2FB70D
:101F2000F8946091A8027091A9028091AA02909100
:101F3000AB022FBF08959C01FC0132969FEF80E019
:101F40004191461751F09F3F19F4411101C0982F5C
:101F50008F5F8630A9F79F3F09F40895290F311D3F
:101F600097FD3A95F901628308952091A502309179
:101F7000A6022817390771F09093A6028093A50254
:101F8000E091A302F091A402309721F00084F18542
:101F9000E02D099508952091A1023091A202281701
:101FA000390771F09093A2028093A102E091A302FD
:101FB000F091A402309721F00680F781E02D099579
:101FC0000895E091A302F091A402309729F00190C6
:101FD000F081E02D0995089580E0089580E008954E
:101FE000F894E82FE295EF70F0E031A1282F2F70E0
:101FF00081E090E001C0880F2A95EAF7982F90952C
:10200000932391A392A1892B82A378940895909110
:10201000050292FF06C0282F28712830F9F4877F27
:10202000846093FF06C0282F28712831F1F4877E41
:1020300084612091060220FF06C0382F38713830A5
:10204000D9F4877F816021FF06C0282F28712831AD
:10205000D1F4877E816194FD877E0895282F2471B5
:102060002430F9F68B7F8860DCCF282F247124314F
:1020700001F78B7E8861DDCF382F3171313019F750
:102080008E7F8860E0CF282F2171213121F78E7E4D
:102090008861E1CFCF93DF93EC0182389105B1F1F4
:1020A00008F040C08133910509F49DC048F589329C
:1020B000910509F48DC08A9709F49CC0C11522E5E9
:1020C000D20708F0BDC0C11531E5D30708F025C11E
:1020D000C83ED10508F0A3C0C13ED10588F5C83A75
:1020E000D10508F08EC0C53AD10508F0F6C0C13060
:1020F000D10531F1209721F1C430D10508F545C053
:102100008533910509F45FC0C997C1F68091050236
:10211000837009F037C18091060283FF11C0C9E2C4
:10212000D0E00EC0833E910599F170F4803E910598
:1021300001F1823E910511F68091050282FD21C0D8
:10214000CE01DF91CF910895863E910561F1873EE2
:10215000910571F1843E910509F0B0CF809106029E
:1021600081FFEECF80910502C7EED0E084FD0DC067
:10217000E7CF8091050280FD33C09091060290FF69
:10218000DFCFC3EED0E084FFDBCFD0E0C0E0D8CF1C
:102190008091050282FDF3C09091060290FDF2C08D
:1021A00084FFCECFF2CF8091050283FDDDCFC8CF73
:1021B0008091050283FDE9C09091060291FFF0CF66
:1021C000C4EED0E0BDCF8091050285FFB9CFA7CF87
:1021D0008091050285FDDCC08091060283FFB0CFAF
:1021E000C9E3D0E0ADCF8091050286FFA9CFCAE256
:1021F000D0E0A6CF8091050286FFA2CFC1E3D0E058
:102200009FCFCF3BD10508F6C85AD0E0CC0FDD1FD9
:10221000C65DDE4F0990D881C02DD46491CFC11521
:1022200040E5D40708F064C0C11580E4D80708F081
:102230005CC0CE019A9581159F4108F481CFA5CF4E
:10224000C11536E5D30718F5C11545E5D40708F0E3
:102250007DC0C11584E5D80708F073C09C2F969502
:1022600096959E0123703327C115D34508F45AC0B3
:10227000C1E0D0E002C0CC0FDD1F2A95E2F730E2CA
:10228000939FC0011124C82BD92BDA6859CFC115EF
:102290008AE5D80778F4C11529E5D20708F061C0AE
:1022A000C11538E5D30708F470CFDC2FCC27C06FF9
:1022B000D06A46CFCE0190568115904208F065CF86
:1022C0008D2F8F710E94071090E0982F8827882704
:1022D0009F719C012C2BE90142C0C55AD0E0C95D19
:1022E000DE4FC881D0E0D0642BCFDF70D06A28CF1A
:1022F0002C2F26952695237080E2289F900111248B
:102300008C2F8370C1E0D0E002C0CC0FDD1F8A9516
:10231000E2F7C22BD32BDD6813CFDC2FCC27C16FA4
:10232000D06A0ECFC1E0D0E002C0CC0FDD1F2A95ED
:10233000E2F720E2929FC0011124C82BD92BDC6860
:10234000FFCEDC2FCC27C46FD06AFACE8C2F0E9430
:102350000710C82FD0E0DC2FCC27CC27DF71D0624C
:10236000EFCE8C2F8F700E94071034E0D695C79562
:102370003A95E1F7CF709C2FEC01D069E1CEC2EE27
:10238000D0E0DECEC0EED0E0DBCEC6EED0E0D8CEE0
:10239000C5E3D0E0D5CE8091F801882331F01092CA
:1023A000F8011092F7011092F6010895809590912E
:1023B000F50198239093F50108951092EB01109286
:1023C000EA011092E90108958091E8019091B70126
:1023D000981301C008958F5F8770FACFA82FA77058
:1023E00023E0969587952A95E1F7FC01EE0FFF1FF4
:1023F000E80FF91FE60FF71F50E040E080E0219161
:1024000030E00A2E02C0369527950A94E2F7217033
:102410003327042E01C0220F0A94EAF7822B4F5F64
:102420005F4F4330510559F70895903FC9F09830F8
:1024300080F48630A8F4282F30E06FE971E0A9011C
:10244000E6E09E9F400D511D1124CA010E94EE112D
:1024500008959C5F923020F46CE971E090E0F6CF33
:1024600080E00895262F277091E001C0990F2A95EA
:10247000EAF723E0769567952A95E1F7FB01EE0FE1
:10248000FF1FE60FF71FE40FF51F50E040E0682F35
:1024900070E08191DF0111979B01042E02C03695F7
:1024A00027950A94E2F721702195282729232827C8
:1024B0002C934F5F5F4F4330510559F70895282FF4
:1024C000862F903F79F0983070F4263058F4622FC0
:1024D00070E026E0929F600D711D11244FE951E0DC
:1024E0000E94321208959C5F9230E0F7622F70E0F4
:1024F0004CE951E0F5CF9C013A9521153F4150F54B
:10250000FC01EE27F170BC0166277270AC01442714
:1025100054709C012227387094FF0EC080E1EF2B8D
:1025200009F480E0672B09F08062452B09F0806494
:10253000232B89F08068089581E0EF2B09F480E077
:10254000672B09F08260452B09F08460232B19F07A
:102550008860089580E0089580915B028F31D8F4FF
:102560008091990190E0019665E070E00E9432311F
:102570008093990124E030E0A901481B590BCA015E
:10258000982F8827990F805C984F0E948B0D089593
:1025900080E495E0FACF8832D8F32091980130E0BA
:1025A0002F5F3F4F217033272093980181E090E007
:1025B000821B930B982F8827990F805C9E4FE5CF45
:1025C000B0E0A0E0E6EEF2E10C94F9306C017B01A2
:1025D00064E670E088E70E94F52FEC0197FD12C0D9
:1025E00010E000E0F601E00FF11F849164E670E076
:1025F0000E946130EC01892B29F40F5F1F4F0E15EB
:102600001F0581F70E94D730CE01CDB7DEB7E8E0D5
:102610000C94153180919F029091A002911103C0FA
:1026200091E089270895882369F062E070E086E3ED
:1026300094E10E94E012892B19F080919F02089585
:1026400010929F0280919F02EBCFCF93C0919F0287
:102650008091A0028823D1F00E948F0F605A7541AB
:102660008F4F9F4F60939B0270939C0280939D02BB
:1026700090939E02C11108C062E070E084E394E18F
:102680000E94E012892B29F0C0919F028C2FCF91DC
:10269000089581E080939F02F7CFCF93DF93C0919D
:1026A000D304D091D4048A30C1F42091CA02CE015F
:1026B000835D9240622F70E00E94DB30281B822FE6
:1026C00066E00E942631C82FC15018F4DF91CF91E7
:1026D000089580E20E944D13F7CF8D30E9F4C35D79
:1026E000D2402091CA02622F70E0CE010E94DB30FE
:1026F000281B822F9E01280F311D2115324018F012
:1027000080E0D0E0C0E0C80FD11DCD52DD4FD093A6
:10271000D404C093D304DACF96E0FE01ABECB2E070
:1027200001900D929A95E1F7803E08F458C086E03A
:10273000FE0111928A95E9F7C091D304D091D40497
:1027400046E050E0BE018BEC92E00E94BF319E015A
:10275000235D3240892B41F1C90145E0969587956B
:102760004A95E1F741E050E0BA0102C0660F771FD9
:102770008A95E2F7CB016091D1027091D202862B4B
:10278000972BB9016B5F7F4FE5E076956795EA95EA
:10279000E1F702C0440F551F6A95E2F7842B952B91
:1027A0009093D2028093D1022A5F3F4F4091CA0298
:1027B000642F70E0C9010E94DB30481B463010F4E2
:1027C000240F311D211572E0370710F030E020E0B2
:1027D0002D523D4F3093D4042093D30477CFF6E0AD
:1027E0008F9FB001112469567A4E46E050E0CE0129
:1027F0000E94B631A1CF8093AC027093AE02609379
:10280000AD028091C5028430F9F48093E9008FEF26
:102810009091E800815095FD06C095ED9A95F1F7ED
:1028200000008111F5CF8091E80085FF0DC050E0D8
:1028300040E063E070E08CEA92E00E941D0E80911F
:10284000E8008E778093E8000895BC0184E00E9440
:10285000FB130895BC0183E00E94FB130895CF93FE
:10286000DF93EC0181E08093E9008FEF9091E80025
:10287000815095FD06C095ED9A95F1F70000811104
:10288000F5CF8091E80085FF14C050E040E068E09B
:1028900070E0CE010E941D0E8091E8008E7780933B
:1028A000E80088E0FE01A2EBB2E001900D928A956B
:1028B000E1F7DF91CF910895CF93DF93C3E5D1E0A6
:1028C00060E0CE010E9473342196C11584E0D807E0
:1028D000B9F7DF91CF9108950F931F93CF93DF93B3
:1028E000142F022F8330F0F461111CC094E0899FF3
:1028F000E0011124C95BDE4F82E090E0442311F037
:1029000090E080E0632F8C0F9D1F0E94733483E062
:1029100090E0112311F081E090E0602F8C0F9D1F5B
:102920000E947334DF91CF911F910F9108951F93EF
:10293000CF93DF93122F8330E0F46830D0F4463029
:10294000C0F4C42FD0E0CC0FDD1F9CE0699FC00D08
:10295000D11D112490E6899FC00DD11D1124632F34
:10296000CE0187960E947334612FCE0188960E9413
:102970007334DF91CF911F910895B0E0A0E0E3ECB4
:10298000F4E10C94F230809095029090960281E0F0
:1029900090E0909396028093950288E0E82E83E180
:1029A000F82E9AE0C92E93E1D92E04E113E1712C9F
:1029B000E801612C14C0F50125913491452D662D57
:1029C000872D0E94971482E0A80EB11C539486E0D4
:1029D0005812F1CF2C96639488E0681619F05E01C6
:1029E000512CE9CFF7012591349141E060E0872D2A
:1029F0000E946C14F6012591349140E060E0872D2F
:102A00000E946C1484E0E80EF11C739484E0C80EFC
:102A1000D11C005A1F4F83E07812CACF90929602C1
:102A200080929502CDB7DEB7EFE00C940E31CF93D4
:102A3000C82F6FEF811163EA83E290E00E94733444
:102A40006FEFC11164E784E290E00E9473346FEF8E
:102A5000C11165E185E290E00E947334CF91089541
:102A600080E00E94171560E086E290E00E947334D7
:102A70000E94BD140E945C1481E00E941715089505
:102A8000FF920F931F93CF93DF93F42E833040F583
:102A9000611126C024E0829F80011124095B1E4F32
:102AA00082E090E0442311F090E080E0800F911FDD
:102AB0000E946534C82FD0E0DC2FCC2783E090E063
:102AC000FF2011F081E090E0800F911F0E9465349B
:102AD0009E01282BC901CDB7DEB7E5E00C94183173
:102AE00090E080E0F8CF0F931F93CF93DF93833074
:102AF00030F5683020F5463010F5C42FD0E0CC0F0B
:102B0000DD1F2CE0629FC00DD11D112430E6839F94
:102B1000C00DD11D1124CE0187960E946534082F67
:102B200010E0102F0027CE0188960E94653498018E
:102B3000282BC901DF91CF911F910F91089590E04B
:102B400080E0F8CF462F672F2091990230919A02AA
:102B5000232BF9F4703F39F4403FD9F48091970268
:102B60009091980208958330A0F4783028F446308C
:102B700080F40E94731508957D3F39F4411109C016
:102B800041E060E00E94401508957C3F11F4442329
:102B9000C1F390E080E00895CF92DF92FF920F930F
:102BA0001F93CF93DF936C010091C9028091F901CB
:102BB000082BC7E0D0E010E0FC2EC8010C2E02C0AC
:102BC000959587950A94E2F780FD0CC02197A0F7B0
:102BD000F12C8F2DDF91CF911F910F91FF90DF90FE
:102BE000CF900895B6018C2F0E94A2150E944A1022
:102BF000019761F3EECFCF93DF93EC010E94CC15E8
:102C0000BE010E94A2150E944A10DF91CF91089543
:102C1000FC0183819481892B29F080819181892312
:102C20008F3F51F480E00895843FE1F717C0883E5C
:102C3000A8F0813FB9F712C0808191810E94FB15F5
:102C400092959F70963099F358F4925F9F709230EE
:102C500048F7803F19F040F7883E20F781E008955B
:102C60009A5FF4CF83E290E00E946534833A89F45E
:102C700084E290E00E946534843759F485E290E064
:102C80000E94653491E0853109F090E0892F8170D0
:102C9000089580E0FCCFCF9384E090E00E946534FB
:102CA000C82F82E290E00E946534982F8C2FCF913C
:102CB000089568EE7EEF90E080E00E94913460E03D
:102CC00082E090E00E94733460E083E090E00E9434
:102CD00073341092F90160E084E090E00E94733454
:102CE00064E082E290E00E94733460E085E090E06E
:102CF0000E94733460E086E090E00E9473346FEFCE
:102D000087E090E00E94733440E050E0BA0188E030
:102D100090E00E94853460E08DE090E00E94733482
:102D200040E050E0BA0188E190E00E94853460E024
:102D300087E190E00E94733440E050E0BA018CE1FA
:102D400090E00E94853470E060E080E290E00E94B4
:102D5000913440E050E0BA0188E190E00E9485346F
:102D600080E00E9417150E94301540E050E0BA0143
:102D70008FE090E00E94853440E050E0BA0183E1AA
:102D800090E00E94853408951F920F920FB60F9223
:102D900011242F933F934F935F936F937F938F9360
:102DA0009F93AF93BF93EF93FF938091E10082FFD6
:102DB00009C08091E20082FF05C08091E1008B7F15
:102DC0008093E1008091DA0080FF24C08091D800D8
:102DD00080FF20C08091DA008E7F8093DA0080919E
:102DE000D90080FF9DC080E189BD82E189BD09B421
:102DF00000FEFDCF81E08093C5028091AF0281117A
:102E000009C00E94CD0D0E94C00E8091E200846036
:102E10008093E2008091E10080FF17C08091E20082
:102E200080FF13C08091E2008E7F8093E20080914A
:102E3000E20080618093E2008091D80080628093FC
:102E4000D80019BC85E08093C5028091E10084FF21
:102E50002BC08091E20084FF27C080E189BD82E120
:102E600089BD89B5982F917080FFFBCF8091D800E4
:102E70008F7D8093D8008091E1008F7E8093E10068
:102E80008091E2008F7E8093E2008091E200816079
:102E90008093E2008091BC02882309F447C084E05B
:102EA0008093C5028091C5028091E10083FF27C015
:102EB0008091E20083FF23C08091E100877F8093AF
:102EC000E10082E08093C5021092BC028091E10093
:102ED0008E7F8093E1008091E2008E7F8093E200FC
:102EE0008091E20080618093E20042E060E080E057
:102EF0000E948E0E8091F00088608093F000FF9118
:102F0000EF91BF91AF919F918F917F916F915F9161
:102F10004F913F912F910F900FBE0F901F901895DA
:102F200019BC1092C5021092AF0274CF8091E300D9
:102F300087FD93E09093C502B5CF78941F921FB69A
:102F40001F9211248F939F93AF93BF938091A802F8
:102F50009091A902A091AA02B091AB020196A11D85
:102F6000B11D8093A8029093A902A093AA02B093E6
:102F7000AB02BF91AF919F918F911F901FBE1F9089
:102F800018959C014FB7F8948091A8029091A902DE
:102F9000A091AA02B091AB024FBF821B930B089580
:102FA0002FB7F8948091A8029091A902A091AA024B
:102FB000B091AB022FBF08954F925F927F928F9294
:102FC0009F92AF92BF92CF92DF92EF92FF920F93B8
:102FD0001F93CF93DF93CDB7DEB728970FB6F89442
:102FE000DEBF0FBECDBF8E010F5F1F4F88E0F8011F
:102FF00011928A95E9F798E5E92E91E0F92E2EE5F0
:10300000C22E21E0D22E77247394AA24A394B12C4B
:1030100046E6842E41E0942EF70181917F018F3F97
:1030200009F447C0F894E82FE295EF70F0E021A191
:103030008F70A50102C0440F551F8A95E2F7CA019F
:10304000922F982B91A392A18095892382A37894A3
:1030500000C08EE5482E81E0582ED801672D60957E
:10306000F20151912F014D919D01215031095F3F96
:1030700009F45DC0852F82958F7090E0FC0180A1DE
:1030800090E05F7002C0959587955A95E2F780FDB4
:103090004EC04729F90140838414950409F7F701CC
:1030A000319780818F3F11F00E94F00FF0EAFA957E
:1030B000F1F7770CCE14DF0409F0AECF48E050E012
:1030C000B8018DEF91E00E94BF31892B91F188E02A
:1030D000F801ADEFB1E001900D928A95E1F781E042
:1030E0008093FC010E94D0179093FB018093FA011A
:1030F0008091FA019091FB010E94C1170597E8F0B9
:1031000048E050E06DEF71E08DE892E00E94BF3141
:10311000892B51F188E0EDEFF1E0ADE8B2E00190EC
:103120000D928A95E1F781E01092FC0107C04623D9
:10313000B1CF8091FC018111DBCF80E028960FB6E2
:10314000F894DEBF0FBECDBFDF91CF911F910F91DD
:10315000FF90EF90DF90CF90BF90AF909F908F90B7
:103160007F905F904F90089580E0DECF8091F501D1
:103170009091F401892B809390018091F80188232C
:1031800019F10E94D0172091F6013091F701821BAE
:10319000930B8838934110F00E94CB1180919001DD
:1031A0009091F801892B8093900120E082E991E0D1
:1031B000FC013191CF0131112F5FF1E088399F0778
:1031C000B9F721110E94CB1148E050E06CEE71E09C
:1031D00080E991E00E94BF31892BA9F088E0E0E905
:1031E000F1E0ACEEB1E001900D928A95E1F7E0914B
:1031F000A302F091A402309731F00280F381E02D18
:1032000080E991E00995089590E080E00E94CB0F5D
:1032100090E080E00E94B50F1092F4010E94B61871
:1032200008958093C9020E94041908958091C902EB
:10323000982F9670963021F488600E941119089595
:10324000877FFBCF21E030E001C0220F8A95EAF7AB
:1032500020958091C90282230E94111908959091AE
:10326000EB01809589238093EB01282F277091F43F
:10327000282F082E000C330B9217130659F090914B
:10328000060292FF07C08595859585950E942219B3
:103290000E94DD110895CF93C0910602C2FB9927C9
:1032A00090F9981791F080FBC2F9C09306026091E3
:1032B000050284E090E00E9473346C2F82E290E07B
:1032C0000E94733482E00E942F19CF91089521E06B
:1032D00030E001C0220F8A95EAF78091C902822B63
:1032E0000E94111908958093F9010E94041908950C
:1032F0001092F501E2E9F1E086E0DF011D928A9586
:10330000E9F70E9404190895AAE2B0E0EAE8F9E1B9
:103310000C94FE308DEB92E02091F100DC012D93B6
:10332000CD01B2E0853C9B07B9F78091BE028330A6
:1033300009F472C0B8F4813009F449C0823009F44C
:10334000B3C08091E80083FF96C28091BD02909146
:10335000BE029A3008F08FC2E92FF0E0E755FB4C2F
:103360000C9487318A3009F48EC08B3009F471C017
:10337000893039F78091BD02813219F78091C102FD
:103380009091C202009711F00297D9F68091E8005F
:10339000877F8093E8008091E80082FF38C0909199
:1033A000F3008091F200029731F48091F1008130B6
:1033B00011F0863021F48091F1008093B102809168
:1033C000E8008B778093E8000E946F0EBACF80915F
:1033D000BD02813A09F0B5CF8091E800877F8093E4
:1033E000E8008091C1029091C202892B61F468E0EB
:1033F00082EB92E070E00E941B0F8091E8008B77D7
:103400008093E8009ECF60E090E080E0F3CF809171
:10341000C5028111C0CF95CF8091BD02813A09F0DC
:1034200090CF8091C1029091C202892B09F089CF7F
:103430008091E800877F8093E8008091E80080FF1A
:10344000FCCF809114018093F1008091E8008E7789
:10345000B9CF8091BD02813209F073CF8091C10252
:103460009091C202892B09F06CCF8091E800877F90
:103470008093E8000E946F0E8091BF028093140138
:103480000E9478195ECF8091BD02813209F059CF38
:103490008091E800877F8093E8000E946F0E809102
:1034A000C0028093B0024DCF8091BD02813A09F0F5
:1034B00048CF8091E800877F8093E8008091E80002
:1034C00080FFFCCF8091B002BECF803899F0823867
:1034D00009F0D1C18091C1028F70873008F0CBC153
:1034E0008093E9008091EB0085FB882780F910929A
:1034F000E90006C08091BA029091BB0291118260EE
:103500009091E800977F9093E8008093F1001092EB
:10351000F1008091E8008E77AAC1882309F498C150
:10352000823009F0A8C18091BF0281119BC18091B6
:10353000C1028F702FEF280F263008F09CC18093B6
:10354000E9002091EB0020FF8DC1933031F4809190
:10355000EB0080628093EB0085C19091EB0090615D
:103560009093EB0021E030E001C0220F8A95EAF74A
:103570002093EA001092EA008091EB008860EACF85
:10358000811179C11091BF021F778091E30080788B
:10359000812B8093E3008091E800877F8093E8008F
:1035A0000E946F0E8091E80080FFFCCF8091E300C5
:1035B00080688093E30082E0111183E08093C5026C
:1035C0005AC18058823008F056C12091BF02309114
:1035D000C0022C3DE3E03E07A1F583E08A838AE246
:1035E00089834FB7F894DE01139620E03EE051E264
:1035F000E32FF0E050935700E49120FF03C0E295E1
:10360000EF703F5FEF708E2F90E0EA30C0F0C7960A
:103610008D939D932F5F243159F74FBF8091E80020
:10362000877F8093E8006AE270E0CE0101960E94F5
:103630001B0F8091E8008B778093E8001CC1C09637
:10364000E7CF8091C1029091C202432F55274330AA
:10365000510509F44AC078F54130510509F485C097
:103660008BE590E0E8E3F4E14230510509F003C155
:103670002091E800277F2093E8002091C302309139
:10368000C4028217930708F49C0140E0211531051C
:1036900009F070C041116EC08091E80082FDC9CF71
:1036A0008091C502882329F2853019F28091E800C3
:1036B00083FFF2CFBECF4132510509F447C04232F9
:1036C000510509F0D8C08330910508F0D4C0FC0141
:1036D000EE0FFF1FEF57FE4F0190F081E02D825853
:1036E0009E4FDC018C9190E01DC0332721303105C5
:1036F000E9F02115310579F022303105F9F0233058
:10370000310509F0B8C0E5EAF4E1E4918E2F90E0CC
:10371000E5EAF4E107C0E3EEF4E1E4918E2F90E0F6
:10372000E3EEF4E1009709F4A6C0A2CFEFECF4E1D8
:10373000E4918E2F90E0EFECF4E1F4CFE3ECF4E1D0
:10374000E4918E2F90E0E3ECF4E1ECCF833091052F
:1037500008F091C0880F991FFC01E957FE4F0190B6
:10376000F081E02D89E090E083CF82E190E0E3E911
:10377000F4E17ECF8091C502882309F45ACF8530C9
:1037800009F457CF8091E80083FD53CF8091E80082
:1037900082FD82CF8091E80080FF78CF9091F30086
:1037A0008091F2002115310519F08830910550F013
:1037B00041E0089709F040E08091E8008E7780931F
:1037C000E80064CF44914093F100319621503109D3
:1037D0000196E8CF803809F04EC08091E800877FDD
:1037E0008093E8008091BC028093F10092CE811119
:1037F00042C01091BF021230F0F58091E800877F3F
:103800008093E8001093BC020E946F0E112311F008
:1038100084E005C08091E30087FDFACF81E08093CA
:10382000C50242E061EC81E00E948E0E42E261EC52
:1038300084E00E948E0E42E261EC82E00E948E0ED5
:1038400042E260EC83E00E948E0E8091C50213C0BC
:103850008091BF02813079F481E0933009F080E0FB
:103860008093BB021092E9008091E800877F8093EB
:10387000E8000E946F0E8091E80083FF0AC08091EB
:10388000E800877F8093E8008091EB00806280935E
:10389000EB00AA96E3E00C941A311F920F920FB638
:1038A0000F9211242F933F934F935F936F937F93C6
:1038B0008F939F93AF93BF93CF93DF93EF93FF9338
:1038C000D091E900DF708091EC00C82FC17080FDBD
:1038D000C0E81092E9008091F000877F8093F000AB
:1038E00078940E9484191092E9008091F000886019
:1038F0008093F000CD2BCF70C093E900FF91EF9142
:10390000DF91CF91BF91AF919F918F917F916F91F7
:103910005F914F913F912F910F900FBE0F901F908D
:1039200018950E9478192FEF84E39CE02150804085
:103930009040E1F700C0000088E19AE00FB6F894EB
:10394000A895809360000FBE90936000FFCF8823FE
:1039500041F080959091F40189238093F4010E94B5
:10396000B6180895882339F09091F401982B90931C
:10397000F4010E94B6180895882321F00E94D61100
:103980000E94B6180895882339F09091F501982B7C
:103990009093F5010E94B6180895882391F19CEF49
:1039A000980F913A80F4E2E9F1E028E931E0919151
:1039B000891303C0DF0111971C922E173F07B9F737
:1039C0000E94B618089590E2980F983050F48770CE
:1039D00091E001C0990F8A95EAF7892F0E94D611CC
:1039E000EFCF9BE5980F933028F490E080E00E94A1
:1039F000CB0F0895885A873120F490E080E00E9430
:103A0000B50F0895CF93C82F8823B1F08CEF8C0F9A
:103A1000813A00F5E2E9F1E088E991E0DF012D91DA
:103A2000C21761F08A179B07D1F76C2F80E991E0EC
:103A30000E949B0F0E94B618CF9108952191C21346
:103A400003C0DF0111971C928E179F07B9F70E94E0
:103A5000B618EBCF80E28C0F883068F4C77021E095
:103A600030E001C0220FCA95EAF78091F501822B60
:103A70008093F501DFCFEBE5EC0FE33040F4F0E0AD
:103A8000E95DFE4F808190E00E94CB0FD5CFC85AF0
:103A9000C73190F6EC2FF0E0EE0FFF1FE65DFE4F12
:103AA000808191810E94B50FC7CF1F93CF93DF9381
:103AB000182FD0E0C0E0893311F4C0E5D0E0812FA9
:103AC0000E94021D209739F4812F0E94CD1CDF91A6
:103AD000CF911F9108958FE99FE00197F1F700C002
:103AE00000002197EFCF0F931F93CF93DF93C62F43
:103AF000D42F022FFC0182818823A9F06093C80291
:103B00000E94D0179093C7028093C602C77081E0CD
:103B100001C0880FCA95EAF70E94C31CDF91CF91BC
:103B20001F910F9108958091C802681332C080914F
:103B3000C6029091C7020E94C117883C910548F5C2
:103B400010E21D0FCD17B9F080E28C0F883040F4E1
:103B5000C77081E001C0880FCA95EAF70E94BC1CBB
:103B6000183048F481E09D2F977001C0880F9A9516
:103B7000EAF70E94C31C802F0E94551D183070F672
:103B8000D77081E001C0880FDA95EAF70E94BC1C6B
:103B9000C5CFC77081E001C0880FCA95EAF7F6CF9C
:103BA000B0E0A0E0E6EDFDE10C94F730EC018AE036
:103BB000A82E2881222309F48FC02130C9F59981CC
:103BC0008A81913021F422960E94551D05C09230C1
:103BD00029F422960E94021D2196EBCF933021F406
:103BE00022960E94CD1CF8CF943011F02196F4CF8C
:103BF000229630E020E0AE014F5F5F4F8053990B7B
:103C00008A30910550F02150310930F38FE99FE05F
:103C10000197F1F700C00000F6CFA29EB001A39E6D
:103C2000700D11249C01260F371F8981EA01E3CF13
:103C3000E22FF0E0E95EFA4EB490822F86958695E9
:103C4000869590E0FC01E95FFA4EE4902770F12C34
:103C5000022E02C0F594E7940A94E2F731E0E322E1
:103C6000FF24FC01E950FB4EC490D12C022E02C06F
:103C7000D594C7940A94E2F731E0C322DD24FC0115
:103C8000E951FB4E049110E002C0159507952A9565
:103C9000E2F701701127E114F10419F081EE0E949E
:103CA000021DC114D10419F086EE0E94021D8B2D55
:103CB0000E94551DC114D10419F086EE0E94CD1C3E
:103CC000E114F10419F081EE0E94CD1C01151105DB
:103CD00009F482CF8CE278CFCDB7DEB7EAE00C945E
:103CE00013319091060292FF10C098E0899F9001D5
:103CF0001124622B6093EB010E9467190E94D01778
:103D00009093EA018093E90108950E94671908954C
:103D1000A7E1B0E0EEE8FEE10C94FE304B8B5C8B4B
:103D20006D8B7E8B8F8B61111092F4011A8A198A28
:103D300085E0FE017396DE011D9601900D928A9535
:103D4000E1F78091060282FF1CC00E94D0172091EB
:103D5000E9013091EA01821B930B8838934120F0EE
:103D60008091EB0182FF79C00E94D0172091F6016B
:103D70003091F701821B930B8838934110F00E9419
:103D8000CB1186E0FE013D96DE01179601900D9263
:103D90008A95E1F7CE0107960E94C725882359F03E
:103DA00016E08091E8019091B701891343C06796AE
:103DB000E3E00C941A3186E0FE013796DE0111969D
:103DC00001900D928A95E1F78A859B85892B41F3B5
:103DD0008F81988589238F3F19F32091B70130E0B7
:103DE000C9010196877099274091E8014817190683
:103DF00071F40E9478191092B7011092E80186E0E0
:103E0000E1EBF1E0DF011D928A95E9F7C9CF96E079
:103E1000929FD001939FB00D1124A854BE4FFE0174
:103E2000319601900D929A95E1F78093B7010E9427
:103E3000E411B6CF819FC001112488549E4F0E9487
:103E4000C725882309F4B3CF8091E80190E001965B
:103E5000877099278093E801A4CF82E00E942F19F0
:103E600083CFA5E0B0E0E7E3FFE10C94FD308C01E7
:103E70009093980280939702011580E21807C0F48E
:103E8000802F0E94CD1CC8010E947B129801205EE9
:103E900031092830310518F00115110531F40E945F
:103EA000BC1C2596E4E00C9419310E94A71CF9CFA4
:103EB00080EF89838A831B820E94D0178160782FCC
:103EC0009D838C8349815A816B818D810E94881EDC
:103ED000E8CFA5E0B0E0EFE6FFE10C94FD308C0107
:103EE0009093980280939702011580E21807C0F41E
:103EF000C8010E947B129801205E310928303105EB
:103F000018F00115110549F40E94C31C802F0E946E
:103F1000021D2596E4E00C9419310E94B21CF6CFE4
:103F200080EF89838A8381E08B830E94D017816030
:103F3000782F9D838C8349815A816B818D810E946A
:103F4000881EE7CFA5E0B0E0E8EAFFE10C94F53089
:103F50006C01FC0183819481892B31F080819181F6
:103F600089238F3F09F077C52596ECE00C94113139
:103F70000E94CC15182F682F89819A810E945F12A8
:103F800069817A81812F0E94A2158C01F60122811C
:103F9000222309F456C590568115F0E29F0750F090
:103FA000905E811530E1930728F0915C81159F4167
:103FB00008F064C0C8019927AC014450510944324B
:103FC000510518F08B970E9780F4E0911802F0E0FD
:103FD000EE0FFF1FE35EFD4F808191818F3F5FE712
:103FE000950719F0019691838083C80182519F45FE
:103FF000409708F0FFC48FEF93E00E946534811171
:10400000B1C05EEEF52EF00E03E511E0F1103FC0F9
:1040100019821A821B821C8299249A9478019FEF3C
:10402000E91AF90AC8010E94653489831A82882333
:1040300009F498C0813009F08AC05801E2E0AE0E60
:10404000B11CC7010E946534E82E8A83882309F4D5
:1040500089C0C5010E946534F82E8FEF8E0D833024
:1040600020F55801F3E0AF0EB11CFB82FF2021F0D8
:10407000CE0101960E94D01D8501D0CF90E080E056
:104080000F3F110511F008F097CFC80195CF01152A
:1040900084E0180709F466C0C8010E9465348111E4
:1040A00001C0FA940F5F1F4FB1CF8BEF8E0D83309D
:1040B00040F5C8010396FB825C01FF20E9F258013C
:1040C00024E0A20EB11C0E9465348C838823A1F2E7
:1040D0000B811C8101303FEF130710F0102F0027D8
:1040E00046E0E41651F057E0E51619F0C8010E94C9
:1040F000691FC8010E94311FBFCFC8010E94691FFC
:10410000BBCF84E0E812B8CF580194E0A90EB11CEF
:10411000C80103960E946534FF2021F1882311F124
:104120008150990B989E9001999E300D1124EF2D8E
:10413000E150FF0BCF01820F931F019708F49CCF32
:10414000EFE9FFE03197F1F700C00000F6CFCE01B4
:1041500001960E94D01D57018FCF81E00E94671900
:104160000E9416198091EB01877009F4FDCEF601CB
:104170008281882309F4F8CE8091060282FFF4CE72
:1041800082E00E942F19F0CE81E00E942219E8CF30
:10419000222309F45EC482E0E1CF053FECE51E076F
:1041A00009F461C008F45BC0063F3CE5130709F45D
:1041B0005EC0222309F460C41092C80203304DE5AA
:1041C000140708F05BC00A3F5CE5150730F4C8012E
:1041D00082509C45449708F05CC00E944B16909317
:1041E0000602809305020231FCE51F0709F45FC156
:1041F00008F0ABC009303CE5130709F432C108F000
:1042000077C005305CE5150709F41FC108F05EC0F2
:1042100003309CE5190709F410C108F012C1809120
:10422000050281600230FCE51F0709F48BC0609134
:1042300005021091060284E090E00E947334612F21
:1042400082E290E00E9473340E9478198BCF27E2BB
:1042500045EE65EEF2C326E241EE60EEEEC327E2E4
:1042600045EE64EEEAC326E241EE62EEE6C327E2E3
:1042700045EE66EEE2C328E241E0EBCF053A8DE57C
:10428000180709F4AACFE0F40136EDE51E0709F49A
:10429000A4CF0631FCE51F0709F006C48091F501A3
:1042A0008A7A91E009F490E090939A0169E2811191
:1042B00065E380E991E00E949B0F0E94B61852CFFF
:1042C000C8018D5A9D45039720F787CF809105023D
:1042D000806207302CE51207A9F180910502806108
:1042E00008303CE5130770F18091050280642AC014
:1042F0000D304CE5140709F4C2C080F40B308CE596
:10430000180709F4B4C0809105028C600C309CE55C
:104310001907C0F0809105028D7F14C00F30ECE5C5
:104320001E0709F4BCC008F4AEC000312CE512072A
:1043300009F4B9C0809105028F7B01313CE5130778
:1043400009F075CF8093050272CF0F3F4CE514073B
:1043500009F4B7C098F50A3F8CE5180709F479C04D
:10436000C0F40431ECE51E0709F4B9C008F4A5C097
:1043700005312CE5120709F05ACF8091050282FB26
:10438000992790F921E0922790FB82F990FB83F91D
:10439000D9CF0C3F3CE5130709F479C008F45DC0A0
:1043A0000D3F5CE5150709F476C00E3F8CE5180754
:1043B00009F03DCF8091060283603CC001369DE547
:1043C000190709F497C090F40130FDE51F0709F4BF
:1043D0008FC008F47AC060E002303DE5130709F0B1
:1043E00026CF8EE090E00E94733421CF0D3A4DE548
:1043F0001407E9F060F4053A8DE5180709F017CFC6
:1044000090910502892F8E7F90FF81609BCF0E3A9D
:104410009DE5190781F10F3AEDE51E0709F007CF79
:1044200090910602892F877F93FF886003C0809157
:104430000602886080930602FACE809105028260AF
:1044400081CF8091050284607DCF809105028860D4
:1044500079CF809106028160EDCF80910602826063
:10446000E9CF0E9478198091050280686BCF809116
:1044700005028E7F67CF80910602877FDBCF809118
:1044800005028B7F5FCF80910502877F5BCF809194
:1044900006028E7FCFCF809106028D7FCBCF809199
:1044A00005028F7E4FCF809105028F7D4BCF0E94FA
:1044B0007819809105028F7745CF80910502837F1F
:1044C00041CF809106028C7FB5CF80910602982F54
:1044D000909591708E7F892B90FB81F9ABCF0E94D4
:1044E000781990910502892F97FB87F980582ACF78
:1044F00061E077CF90910502892F8F7E94FF8061D4
:1045000021CF85E3C3C20E9478192FEF34E34CE03A
:10451000215030404040E1F700C000000E947E0F73
:104520008091060282FB882780F991E089270E940A
:104530004B19F601828100811181882309F445C05D
:10454000C8010E94CC15F82E682FC8010E945F1286
:10455000B8018F2D0E94A2150E944A108C01882E4E
:10456000F601E280B580B2943FE0B3228091EB0186
:104570008770C1F0AE2CEE20B1F0812F807F8034A7
:1045800021F080E2800F883068F08091060282FF7F
:1045900009C082E00E942F198091EB018770AA2444
:1045A000A3948111A12C912E92942FE09222FBE0F2
:1045B000F91508F476C0E92DF0E0ED54FB4C0C94AD
:1045C000873181E0B4CF80E0B2CFC8010E941512DC
:1045D000F82EBECF212F2F70F22E107F19F0F294FB
:1045E00090EFF922EE20B9F0FF2069F080E2800F11
:1045F000883010F0811009C08091F501F82AF092FE
:10460000F5010E94B618802F4AC08091F401F82A63
:10461000F092F401F6CF802F0E94CD1CFF2009F408
:1046200040C0005E083010F0811004C08F2D0E9441
:10463000D61106C0F0948091F401F822F092F401B2
:104640000E94B6182EC0312F3F70F32E107F10320B
:1046500019F0F29480EFF822882089F041E0841666
:1046600009F491C0EE2009F49AC0BB2009F467C098
:10467000F601858180FFC7CF8F70858360C08091F0
:10468000060282FD35C0EE2069F1FF2039F08091ED
:10469000F501F82AF092F5010E94B61880E00E9418
:1046A000021D292D2850330B2430310510F40E94AF
:1046B000E10FAA2009F458CC8091EB0180FD54CC85
:1046C000F60112828595859585950E946719C60128
:1046D0000E94A21F8091EB018595859585950E948A
:1046E000221942CC80E00E94CD1CFF20D1F29ECF47
:1046F000EE2049F1B11004C08091F8018F2920C04B
:1047000051E0B51210C082FFCCCF8091F801F82A99
:10471000F81639F20E94D0179093F7018093F601B2
:10472000F092F801BECF85E0B812E6CF0E94CB111F
:1047300090919B018F2D892B891380939B018F2D45
:104740000E94C31CAECFB11003C00E94CB1112C097
:1047500091E0B91213C08091F5018F2109F4A1CF26
:104760000E94CB1190919B018F2D809589238913F5
:1047700080939B018F2D0E94BC1C93CFE5E0BE1659
:1047800009F48FCFE2CFEE2029F0F5E0FB1508F415
:1047900088CFD5CF24E02B1508F483CFEBCFBB20F7
:1047A00049F3F9E38F1209C02FEF37EE43E02150B0
:1047B00030404040E1F700C00000802F0E94CD1C37
:1047C00070CF812F86958695837061F0813009F0D6
:1047D00068CFC8019370E11002C090E080E00E94B1
:1047E000B50F5FCFC8019370E11002C090E080E088
:1047F0000E94CB0F56CF812F837089F5E11051CFE6
:10480000402F429546954770440F440F802F8F707C
:10481000042E01C0880F0A94EAF7202F207104FFAC
:1048200007C02FE030E001C0220F4A95EAF720953B
:10483000169516951370123069F050F43091F90105
:10484000113029F0822B83230E9473192ACF832BE6
:10485000822BFACF282B8091F9018227F5CF8695FC
:10486000EE2011F0812F8170882309F41ACF402F98
:10487000429546954770440F440F802F8F70042E49
:1048800001C0880F0A94EAF7202F207104FF07C0A7
:104890002FE030E001C0220F4A95EAF720951695E7
:1048A00016951370123069F050F43091C90211302E
:1048B00029F0822B83230E941119F3CE832B822BA4
:1048C000FACF282B8091C9028227F5CF1F70EE20E6
:1048D00029F0812F0E946719802F32CF802F0E94EC
:1048E000BC1C812F0E942219DCCE802F52EF85162E
:1048F000B1F1581570F090EF8916D1F0E1EF8E16F6
:1049000091F0EE2009F466C0B1107DCE812F8F7139
:104910002AC0F3EF8F1651F124EF8212F2CF80916B
:10492000060282FD2FC0812F8F71EE20D9F21BC0AD
:10493000EE2081F034E03B1508F4B3CE1F7181E026
:1049400090E0012E01C0880F0A94EAF79091C90205
:104950008927B1CF45E04B1508F4A3CEEFCF812FC7
:104960008F71E110BFCF0E9467199BCE80E0EE20CF
:1049700009F4A1CF1F7181E0012E01C0880F0A94B4
:10498000EAF799CFEE20C9F08091EB01877084306F
:1049900041F40E94DD11812F8F710E942219A12CF8
:1049A00080CE54E05B15D8F31F71812F0E946719E8
:1049B00063E0812F0E94711EF2CF84E08B1530F4EA
:1049C0000E94DD1164E0812F8F71F4CF81E00E949D
:1049D0002F19E5CFBB2059F0893309F0EECE9FEFB8
:1049E000E7EEF3E09150E040F040E1F7E4CE812FB4
:1049F0008F7178CF0031FFE51F0709F4AECB01318D
:104A00003FE5130709F4C4CB033F3CE5130709F462
:104A100022CC08F0C2CB083D5CE5150709F417CCA1
:104A2000093D8CE5180709F426CC073D9CE51907DC
:104A300009F0BFCB26E241EE61EEC6010E94731D74
:104A400091CB80314FE5940709F49ECB81319F458E
:104A5000D9F682E09ACB85E0DE01119601900D92A5
:104A60008A95E1F7F601228189819A81211180CA14
:104A70000E941512182F84CA0631FCE51F0709F0A1
:104A800058CD80919A0181113CCD89E2E2E9F1E0B3
:104A900028E931E09191891303C0DF0111971C923D
:104AA0002E173F07B9F709CC0A352DE5120709F48F
:104AB00088CD68F401154CE5140709F424CD0E3DAA
:104AC0001C4509F036CD0E9459160E94911C0C35E8
:104AD0008DE5180709F424CD08F475CD073A1D4576
:104AE000A1F327CD1F93CF93DF938091B601807FF1
:104AF00009F049C08091B301882309F444C0809132
:104B0000E801D091B7016091B1017091B201A0911B
:104B1000B401B091B501C62FC72316E0D81799F19B
:104B200090E0109711F0CF3F19F401968770F6CFFF
:104B3000189F9001199F300D1124F901E854FE4F80
:104B400041814713F2CF40814613EFCF428141119B
:104B5000ECCF438154814A1B5B0B483C510528F73D
:104B60008091B6018F7080618093B601F901E354A2
:104B7000FE4F80818F708061808381EB91E00E9485
:104B8000A21F0E94E411DF91CF911F910895A1E12E
:104B9000B0E0EDECF5E20C94F7308C0185E0F80123
:104BA000DE011D9601900D928A95E1F7F801E280F1
:104BB00081EBA82E81E0B82E6091B4017091B5010F
:104BC0006115710509F426C19091B1014091B201BE
:104BD000892F84238F3F09F41DC120813181C38037
:104BE000D480F090B301F601E61BF70BFF2009F427
:104BF000DCC08091B601582F507FE83CF10508F0E9
:104C00009FC051116BC0FE2C431314C0921312C0ED
:104C1000E11010C08F7080618093B601C5010E94C1
:104C2000A21F8091B601F80185838F2D6196EAE07D
:104C30000C941331C114D10429F0822F83238F3FA8
:104C400009F003C180E0F82FF170DF2E80FF3CC037
:104C50008091E8014091B70156E0841315C02D877B
:104C60003E878D859E850E94FB15292F22952F70EA
:104C70002230F0F0243018F59F70F1F0F8019581A2
:104C8000907FD1F4D12C1EC090E0589FF001599F25
:104C9000F00D1124E854FE4F6181361306C0608187
:104CA000261303C06281E6120FC001968770D5CF2C
:104CB0009F7011F0882331F3805E883018F3C801AB
:104CC0000E94A21FFD2CB1CFEE2009F4AECF80913F
:104CD000B60181608093B601F12CA7CF431306C0C3
:104CE000921304C0F801EE2009F479C0C8010E94B3
:104CF0000816882309F1EE20F9F08091B601803280
:104D000070F02091B1013091B20138872F8319865C
:104D1000DB86CA868C87CE0107960E94A21F86E09A
:104D2000F801A1EBB1E001900D928A95E1F70E94A4
:104D30007225FF24F39479CFC8010E94A21FF9CFF6
:104D400051110AC081EB91E00E94A21F86E0F5019B
:104D500011928A95E9F7C0CF43130FC092130DC08B
:104D6000E1100BC0F8018583C8010E94A21F86E0F4
:104D7000F50111928A95E9F758CFC8010E940816EB
:104D80008823D1F2EE20C1F28091B601803238F250
:104D90002091B1013091B2013A8329831B82DD82D7
:104DA000CC828E83CE010196B8CFE83CF105F8F6AF
:104DB000FE2CEE2009F243131FC092131DC08091F8
:104DC000B60180FD10C0982F907F69F0F8018583AF
:104DD000903F31F0982F907F905F8F70892B858363
:104DE000C8010E94A21F86E0F801A1EBB1E001908A
:104DF0000D928A95E1F719CFC8010E94081681111A
:104E00008ECF8091B60181608093B601C8010E9467
:104E1000A21F0BCFEE2009F48FCFC8010E94081605
:104E2000F82E882309F488CF86E0F801A1EBB1E0E1
:104E300001900D928A95E1F78091B1019091B201B4
:104E40000E94FB150E947225F0CE81E08E25FBCEDC
:104E50001F921FB61F9211248F939F93AF93BF93FE
:104E60008091A702811113C08091A8029091A9029C
:104E7000A091AA02B091AB024196A11DB11D8093F1
:104E8000A8029093A902A093AA02B093AB02BF918B
:104E9000AF919F918F911F901FBE1F901895CDB716
:104EA000DEB7C954D1090FB6F894DEBF0FBECDBF2F
:104EB00085B7806885BF85B7806885BF84B7877FE1
:104EC00084BF0FB6F894A8958091600088618093A4
:104ED0006000109260000FBE80E890E00FB6F8947A
:104EE00080936100909361000FBE8EEE9FE09093DF
:104EF0008F0180938E010E94CD0D0E94C00E809183
:104F0000E20084608093E20078948091C502882357
:104F1000A1F01091E9001F709091EC00892F817031
:104F200090FD80E8182B1092E9008091E80083FD45
:104F30000E9484191F701093E90082E084BD93E001
:104F400095BD9AEF97BD80936E000E943216811135
:104F500002C00E94301508E511E07EE5E72E71E001
:104F6000F72ED8018D918D018F3F11F00E94F00F27
:104F7000E016F106B1F70EE511E066E6E62E61E017
:104F8000F62EF80181918F018F3F11F00E94F00FF2
:104F9000E016F106B1F788E0EDE8F2E0DF01282F36
:104FA0001D922A95E9F7EDEFF1E0DF011D928A9558
:104FB000E9F790E080E00E946D34883E9E4F21F436
:104FC0000E943216811102C00E94591682E090E0C0
:104FD0000E946534809309020E944B16909306024A
:104FE000809305020E94DC17EFEFF6E721E0E15025
:104FF000F0402040E1F700C000000E94DC178091E3
:105000008D0280FF08C06FEF7FEF90E080E00E948C
:1050100091340E947E0F83E090E00E9465340E94EC
:1050200073191092860280E88093CA020E94EF2FC3
:105030006DE070E083E591E10E94E012892BE9F5D3
:105040008091860263E070E081FDC0C080E591E15F
:105050000E94E012892B89F56DE070E080E491E117
:105060000E94E012892B49F50E948F0F605A75410A
:105070008F4F9F4F60939B0270939C0280939D0281
:1050800090939E02E3EDF2E080E092E0DF019C016C
:105090001D9221503040E1F7F093D404E093D30403
:1050A0008FEF9FEF9093D2028093D10281E08093A3
:1050B000A00280939F021092870281E080935102A8
:1050C00053985B9A52985A9A8FE891E00197F1F7BA
:1050D00000C000002091510242E552E0FA018E2FFB
:1050E000841B821708F475C080E091E09093A402BD
:1050F0008093A3028DE892E0A8E0A80F2896AFAFB6
:1051000028978091C50250E4F52E00E112E1853028
:1051100009F4A4C00E94DC173AE0A32E32E0B32EBB
:105120004DE8C42E42E0D42E22E132E0D601F50152
:1051300091918D912E173F0709F49AC09817C1F3EA
:1051400010E0D6010D916D01F50181915F0180178D
:10515000A1F1982E9026F12CEE24E394892D8E2136
:1051600021F12396FFAE239724961FAF249791E059
:10517000802F8E2109F490E025969FAF25970E94FD
:10518000D0178160782F27969FAF8EAF27972396F1
:105190004FAD239724965FAD249725966FAD259745
:1051A00027968FAD27970E94881EF394EE0CF6E0A9
:1051B000FF12D4CFF501319700831F5F183009F03B
:1051C000C0CF0E948F0FEE24E39477C08DE491E16D
:1051D0003FCF89B183FB882780F94A9904C090E0CA
:1051E000892B81937CCF92E0FBCF8091C5028430E4
:1051F00029F10E940A131092A702E8E1F0E00FB62D
:10520000F894A895E09360000FBEF092600083B719
:10521000817F846083BF83B7816083BF78948895E2
:1052200083B78E7F83BF0FB6F894A89580916000F6
:10523000886180936000109260000FBE8091BB0275
:10524000882361F00E94DC17EDE8F2E08191811182
:10525000A8C628962FAD28972E13F8CF8091C502A7
:10526000853009F4C2CF0E9478190E94E10F52CF15
:10527000981366CF0E94D0178C01809107029091FD
:10528000080208171907C1F08FEF8DAF8EAF1FAE60
:105290000E94D0178160782F22969FAF8EAF229701
:1052A0004DAD5EAD6FAD22968FAD22970E94881EE8
:1052B0001093080200930702E12C40901D025090C9
:1052C0001E02052C000C6608770880910C0190E006
:1052D000EDE1F2E021E030E03296821793070CF026
:1052E000B6C18091190290911A02A0911B02B0914F
:1052F0001C026FB7F8948090A8029090A902A09029
:10530000AA02B090AB026FBF881A990AAA0ABB0A18
:1053100010910C0129EC82169104A104B10414F13E
:105320008091180290E0019669E170E00E943231AC
:1053300080931802880F991FFC01E35EFD4F1182D4
:105340001082812F183108F087E18F5F80930C0164
:105350000E948F0F6093190270931A0280931B02B0
:1053600090931C0232E043165104610471040CF462
:105370007BC1A0E6BAEEA30192010E9494312B01F9
:105380003C0188EC189F90011124032E000C440B63
:10539000550B280D391D4A1D5B1DA5E0B0E00E948C
:1053A00094319B01AC01C301B2010E944631290135
:1053B0003A0191EF49165104610471042CF080EF19
:1053C000482E512C612C712C809114029091150261
:1053D000A0911602B09117022FB7F8948090A802FE
:1053E0009090A902A090AA02B090AB022FBF881A99
:1053F000990AAA0ABB0AA5E68A169104A104B10477
:1054000084F00E948F0F60931402709315028093B2
:1054100016029093170280915B02809313024092D0
:10542000120210911302A0911202A11BBB0BA50145
:1054300094010E949F3124E630E040E050E00E9459
:105440006831120F10935B02912CF12CB4E0AB2E5B
:10545000B12C1DEF812E772473940CEF602E809178
:105460005102981608F404C1F1100E948F0F809128
:10547000A002882309F49FC083ED92E09093D404A6
:105480008093D30480915B02882309F48DC10E942C
:105490002513409157025091580260915902709122
:1054A0005A022FB7F8948091A8029091A902A09176
:1054B000AA02B091AB022FBF841B950BA60BB70BB2
:1054C000893C9105A105B10560F00E948F0F6093A2
:1054D0005702709358028093590290935A020E9487
:1054E000AC120E948F0F609353027093540280930A
:1054F0005502909356028091CA0224E0829FC00117
:105500001124811532E0930714F090E080E08D5271
:105510009D4F9093D4048093D30480915B021F929B
:105520008F938DE191E09F938F930CE512E01F9391
:105530000F930E94D331D8010D900020E9F78D011F
:10554000015011090F900F900F900F900F900F9036
:10555000ACE5CA2EA2E0DA2EC016D10608F46DC161
:105560008091A002882371F02091D1023091D20263
:105570002115310539F08091870261E070E08823C0
:1055800009F462C180919F028823A9F00E948F0FC5
:1055900000919B0210919C0220919D0230919E02ED
:1055A000601B710B820B930B6F3F7F4F8F4F9F4799
:1055B00010F40E940A13E11001C0F1100E9425139B
:1055C0000E94E10F90918802891721F08093880250
:1055D0000E948F0F8091C502843009F092CD83E044
:1055E0008093E9008091E80082FF8BCD8091E800F4
:1055F00090E085FF06C00E94EC0D882309F4F7C1F6
:1056000091E08091E8008B778093E800992309F47A
:1056100078CD0091990210919A02898101151105A6
:1056200009F402C28E3F09F087C28A81833020F0DC
:105630008550833008F080C2EA81EE3008F07CC2E9
:10564000F0E0E154FB4CCE0101960C94873140818F
:105650005181052E000C660B770B440E551E661EFD
:10566000771E2F5F3F4F38CE412C512C3201ACCEEC
:10567000092D10E0E9B1E3FBEE27E0F94A9992C069
:1056800080E08E2BD801AE5ABD4FEC919E2F9370C7
:10569000891709F485C0EE0FEE0FE82BEC93EF703D
:1056A000F0E0EA59FE4F9801205B3D4F690180818F
:1056B000D9019C91890F8C9320E084308CF1F80102
:1056C000E15BFD4F80818F5F80830E94D0179BAA92
:1056D0006CAA7DAA8160782F9FAB8EAB492D5CEFC1
:1056E00061E08FA90E94881EEFE3FFE13197F1F797
:1056F00000C000000E94D01798AE69AE1AAE81605B
:10570000782F9CAF8BAF492D5CEF60E08CAD0E9491
:10571000881E8FE39FE10197F1F700C0000021E0B0
:10572000D6018C918D3F8CF5F801E15BFD4F8081B6
:10573000815080830E94D01799A68AA67BA681609B
:10574000782F9DA78CA7492D5DEF61E08DA50E9464
:10575000881EEFE3FFE13197F1F700C000000E94DF
:10576000D0179EA68FA618AA8160782F9AAB89AB16
:10577000492D5DEF60E08AA90E94881E8FE39FE1BA
:105780000197F1F700C0000021E0D6018C91082EAE
:10579000000C990BB5010E943231F6018083F22A88
:1057A00093945DCE82E06DCF4091530250915402AC
:1057B00060915502709156022FB7F8948091A8021B
:1057C0009091A902A091AA02B091AB022FBF841BB5
:1057D000950BA60BB70B813C9742A940B10518F079
:1057E0000E940A1388CE409157025091580260914E
:1057F000590270915A022FB7F8948091A8029091A3
:10580000A902A091AA02B091AB022FBF841B950BF5
:10581000A60BB70B893C9105A105B10508F46BCE29
:105820000E948F0F60935702709358028093590221
:1058300090935A020E94AC125ECEF60181916F01E4
:105840000E944D1389CE8F5F082F10E02B01082E88
:1058500002C0440C551C0A94E2F7A90144215521C9
:10586000452B89F39091860290FD44C08295880F64
:10587000807680930F019801369527953695279568
:1058800020931201815E809310011092130124E68F
:1058900030E047E050E06DE071E088E70E948F3033
:1058A000892B09F06FCEA801E5E0440F551FEA955A
:1058B000E1F78091860280FD2BC04D525D4F04E6DA
:1058C00010E020E230E060E488E70E94B030892BED
:1058D00009F058CE0E942513C20180959095409002
:1058E000D1025090D202482259225092D2024092C4
:1058F000D10248CE880F880F880F80930F01109235
:105900001201895F8093100183E080931301BFCF60
:10591000E6E6F2E080E2DF011D928A95E9F7EAE728
:10592000F1E02A96FFAFEEAF2A9706E711E07EE797
:10593000672E71E0772E992493942A96AEADBFAD71
:105940002A972D912A96BFAFAEAF2A97F8012190E2
:105950008F01240E352E311CC1018D529D4F1C012B
:10596000E22FF0E0EA59FD4F30E020E067E0A62E9C
:10597000A21AB92C022E01C0BB0C0A94EAF76101ED
:1059800090E0D6018D916D018B216A2D691B6770A6
:10599000862E062E000C770BB82F01C0BB0F8A9401
:1059A000EAF78B2E7195619571096770772701C0B1
:1059B00086956A95EAF7882A8081882A80829F5F87
:1059C0009830F9F62F5F3F4F31962830310571F648
:1059D0002A96EEADFFAD2A976E167F0609F0ADCF81
:1059E00004E610E020E230E046E652E06CCF00E250
:1059F00010E09E012F5F3F4F79018091E80085FD07
:105A00000AC08091E8008B778093E8000E94EC0D3B
:105A1000882399F3F5CD8091F100D7018D937D0115
:105A20000150110951F7ECCD8C3009F4D1C058F573
:105A3000843009F4B4C058F4823009F46CC008F022
:105A40009FC0813009F463C08FEF898375C08630B1
:105A500009F4BBC008F4AEC08B30B1F78091950259
:105A600090919602892B09F467C0CE0101960E949D
:105A7000470E3FEF81EE94E0315080409040E1F7D7
:105A800000C00000C6CA803109F4D5C0A0F58E3030
:105A900009F4A5C008F49FC08091950290919602E8
:105AA000892B09F449C08C81E82EF12C2DE1E216F6
:105AB000F10408F041C0CA80DB80DC24CD24DC2462
:105AC0008E010F5F1F4FE00EF11EC6018D5A9E4FD3
:105AD0000E151F0589F13DEAC31632E0D30628F4FE
