:100000000C946A010C9487010C9487010C9487016D
:100010000C9487010C9487010C9487010C94870140
:100020000C9487010C9487010C94BB1B0C948F1CBF
:100030000C94D2160C9487010C9487010C948701C0
:100040000C9487010C9487010C9487010C94870110
:100050000C9487010C9459170C9487010C94870118
:100060000C9487010C9487010C9487010C948701F0
:100070000C9487010C9487010C9487010C948701E0
:100080000C9487010C9487010C9487010C948701D0
:100090000C9487010C9487010C9487010C948701C0
:1000A0000C9487010C9487010C94870129001A0095
:1000B00015001C000C0013001400080017001800A5
:1000C00012002A002B00160009000B000E0033005E
:1000D000040007000A000D000F00280035621D0013
:1000E000060005001000370038001B001900110041
:1000F0003600E500E000E2002C412C41E700AE00B4
:10010000E30000000251E600E400A80029001F00FF
:1001100021002300250027001E00200022002400CB
:1001200026002A0001000100010052002D003400C9
:1001300001000100010052002E0028000100010012
:10014000010050004F003800010001000100510083
:100150002E00010001000100010001000100AE00BD
:1001600001000000010001000100A8000100C95CBD
:100170000100010052000100C85C01000100000004
:10018000010001000100C45C0100000051000100F9
:10019000C35CC55C010050004F0001000100CB5C56
:1001A0000100010001005200CA5C010001000100D1
:1001B0000100520001000100010001005100010096
:1001C00001000000010050004F00010000AE00AF30
:1001D00000DA0281FFD9F1DB20A4A62EAF00A0C077
:1001E00000A1C800AED580A81FD300408D14200008
:1001F0000A036C00690074006C00000012035300D5
:10020000540048004C004D0020006B0062000000CC
:100210000403090409023B00020100A0FA090400DA
:100220000001030101000921110100012240000722
:100230000581030800010904010001030000000911
:100240002111010001223200070582032000011262
:1002500001000200000008868053530001010200E3
:100260000105010980A101850319012AB7001501C3
:1002700026B700950175108100C0050C0901A10188
:10028000850419012AA002150126A0029501751006
:100290008100C005010906A101050719E029E7153C
:1002A00000250195087501810295017508810105F8
:1002B00007190029FF150026FF0095067508810023
:1002C0000508190129059505750191029501750328
:1002D0009101C00011241FBECFEFDAE0DEBFCDBF19
:1002E00011E0A0E0B1E0E6E1FEE302C005900D926E
:1002F000AE39B107D9F724E0AEE9B1E001C01D92F3
:10030000A539B207E1F70E9414100C94F31E0C9467
:1003100000001F93CF93DF93182FD62F0E949E13B8
:10032000C82F882351F0111108C06AE070E0DD2366
:1003300049F089EA0E945203CD2F8C2FDF91CF9193
:100340001F9108958AEA0E945203F7CF81E0089531
:1003500081E008950E94A801089508950E94AD01CA
:100360000895A5E0B0E0E7EBF1E00C94731E49833B
:100370005A833091A50189819A81311119C0662370
:1003800099F0222389F00E941B07182F682F89817A
:100390009A810E94F70669817A81812F0E949D0DC2
:1003A0002596E3E00C948F1E0E940907182FF3CFC7
:1003B0000E941B0769817A81F1CFFC01262F4081C1
:1003C00051816281738184810E94B101089581E02D
:1003D0000895CF93DF93EC0160E00E94DD01BE0140
:1003E0000E94AE01DF91CF9108950E94C40E08953E
:1003F0000E94C80E089508950E94C2050E94FB0144
:100400002FEF84E39CE0215080409040E1F700C052
:10041000000008950E94FC010E947D1708950E942B
:10042000FC010E948E1708950F931F93CF93DF93C3
:100430008C0161E00E94DD01EC01B8010E94AA017B
:10044000811106C080E0DF91CF911F910F91089537
:10045000B801CE010E94AC148823A1F3B801CE01EB
:100460000E942912882371F3B801CE010E941E1444
:10047000882341F3F8018281882361F0CB35FDE5C3
:10048000DF0701F158F4C115ECE5DE0791F0CF3D2F
:10049000DC4591F0C8010E94A601D5CFCD358DE590
:1004A000D80769F090F0C83ADD45A1F70E940F0225
:1004B000C9CF0E940A02C6CF0E94CE0BF7CF0E947E
:1004C000130BE8CF0E941D0BE5CF0E94210BE2CF5A
:1004D0000E94AF160E9487020E94DF1108950E94B9
:1004E0008B020E94B416089508950E947402089524
:1004F00081E008950E94780208950895CF93C82F4F
:100500000E9475028C2F0E947A02CF91089580E09C
:100510000E947E0208950E94F4150E947E020895B2
:10052000CF930E94F415C82F8091A0018C1779F009
:10053000C093A0010E943E176093A1017093A20195
:100540008093A3019093A4018C2F0E947E02CF91EF
:100550000895ABE0B0E0EFEAF2E00C94741E4F8334
:10056000588769877A878B8761110E945E0A1E828D
:100570001D8285E0FE013796DE01119601900D92F5
:100580008A95E1F78C819D81892B61F449815A819B
:100590006B817C818D819E810E9487092B96E2E090
:1005A0000C94901E89819A8189238F3F79F3CE0123
:1005B00001960E94E7018111E9CFF0CFFC01808113
:1005C00091810E944D070895CF93C82F8823B9F0D9
:1005D0008CEF8C0F813AA8F46C2F809100019091E0
:1005E00001010E944A16882329F08C2F0E941E0ABE
:1005F0000E947F0A8C2F0E94160A0E947F0ACF91C8
:10060000089580E28C0F883048F4C77081E001C003
:10061000880FCA95EAF70E94410AEFCFEBE5EC0F8D
:10062000E33040F4F0E0EC5BFE4F808190E00E940C
:100630000C16E5CFC85AC73110F7EC2FF0E0EE0FDB
:10064000FF1FEA5EFE4F808191810E942216D7CF64
:10065000882339F19CEF980F913A28F40E941E0AE2
:100660000E947F0A089590E2980F983050F48770A6
:1006700091E001C0990F8A95EAF7892F0E94470AF5
:10068000EFCF9BE5980F933028F490E080E00E9434
:100690000C160895885A873120F490E080E00E947B
:1006A000221608951F93CF93DF93182FEB010E941A
:1006B000E402209739F4812F0E942803DF91CF9123
:1006C0001F9108958FE99FE00197F1F700C00000A6
:1006D0002197EFCF70E060E0893311F460E570E0BE
:1006E0000E9452030895882321F00E94410A0E942B
:1006F0007F0A0895882321F00E94470A0E947F0AFA
:100700000895B0E0A0E0E7E8F3E00C946D1E6C0102
:10071000D62FC72FFC011281F580F2949FE0F922B9
:100720000E94370AE82E8823B9F0E12E1123A1F0A8
:100730008C2F807F803421F080E28D0F8830D0F0C4
:1007400080916D0282FF16C082E00E94E20A0E9440
:10075000370A91E0E82EE926BC2EB2948FE0B82249
:10076000FBE0FB1508F468C0EB2DF0E0EB50F14E18
:100770000C945E1EE12CF0CF0C2F0F70C07F11F097
:100780000295007F112399F0002359F080E28D0F2C
:10079000883010F0D11107C0802F0E94410A0E94BA
:1007A0007F0A8D2F41C0802F0E94510AF8CF8D2FD4
:1007B0000E942803002309F43FC080E28D0F883097
:1007C00010F0D11104C0802F0E94470A03C0802F6F
:1007D0000E94570A0E947F0A2FC00C2F0F70C07F03
:1007E000C03211F00295007FDD2381F0D13009F491
:1007F00063C0112309F46DC0FF2009F463C0F60142
:10080000858180FFCECF8F7085835CC080916D0223
:1008100082FD33C0112359F0002329F0802F0E945C
:10082000410A0E947F0A80E00E94E40205C080E045
:100830000E9428030111C7CFEB2DE850FF0B34971E
:1008400020F40E94F4150E947E02EE2089F00E949E
:10085000330A80FD0DC0F60112820E942D0A0E940B
:100860005506C6010E9486050E942D0A0E94650653
:10087000CDB7DEB7E9E00C94891E112389F0F110A1
:1008800006C00E94610A802B0E947303D5CF21E02D
:10089000F212F7CF0E94610A802B0E94680ACCCF27
:1008A000F11006C00E94750A802F0E947A03C4CFFF
:1008B00031E0F31609F2F6CF112331F085E08F1500
:1008C00008F4BACF802FE0CF94E09F1508F4B4CF9E
:1008D000EBCFFF2049F3D93349F4FFEF27EE33E0A4
:1008E000F15020403040E1F700C000008D2F0E9401
:1008F0002803A2CF8C2F86958695837069F081306E
:1009000009F09ACF8D2F9C2F9370111102C090E0A7
:1009100080E00E94221690CF8D2F9C2F9370111192
:1009200002C090E080E00E940C1686CF8C2F83706E
:10093000A1F5111181CF4D2F429546954770440F77
:10094000440F2D2F2F7030E0042E02C0220F331FD2
:100950000A94E2F790E080E0D4FF09C08FE090E0D5
:1009600002C0880F991F4A95E2F780959095C69529
:10097000C695C370822B932BC23049F058F4C13016
:1009800019F00E94230658CF0E941A0655CF0E94E4
:100990002C0652CF0E9417064FCF8695112311F0D7
:1009A0008C2F8170882309F447CF4D2F42954695AF
:1009B0004770440F440F2D2F2F7030E0042E02C0DB
:1009C000220F331F0A94E2F790E080E0D4FF09C0C1
:1009D0008FE090E002C0880F991F4A95E2F780955A
:1009E0009095C695C695C370822B932BC23049F063
:1009F00058F4C13019F00E9490061ECF0E9487065D
:100A00001BCF0E94990618CF0E943B0615CFCF70CE
:100A1000112329F08C2F0E9455068D2F35CF8D2F55
:100A20000E947A038C2F0E94650606CFD23F51F1B7
:100A300060F4D03FB9F0D13F81F0112309F449C0EF
:100A4000F110AFCE8C2F8F7121C0D33F11F1D43F65
:100A5000A1F780916D0282FD26C08C2F8F7111232A
:100A600011F314C0112349F084E08F1508F4E4CE8B
:100A70008C2F8F710E947706DFCE95E09F1508F4CA
:100A8000DBCEF6CF8C2F8F711111CDCF0E94550682
:100A9000D3CE112329F08C2F8F710E944906CCCE22
:100AA0000E944406C9CE112349F0CF718C2F0E94B9
:100AB000550663E08C2F0E94C40ABECE81E00E94DE
:100AC000E20AE1E0EF1508F0B7CE82E00E94E20A08
:100AD000B3CEF11000CF8C2F8F71A5CF0F931F9342
:100AE000CF93DF93EC01688179818A810E94580756
:100AF0008C010E94A2060E941606B801CE010E9437
:100B00008103DF91CF911F910F910895CF93DF93D0
:100B1000EC018B819C81892B29F088819981892323
:100B20008F3F51F4DF91CF910895CE010E946E0561
:100B3000CE010E94E901F6CFCE010E94140281117C
:100B4000F4CF0E94370A882369F38A81882351F3FE
:100B500080916D0282FFE6CF82E00E94E20AE2CF3E
:100B600090E080E00E940C1690E080E00E94221647
:100B70000E945E0A0E947F0A08950E94260A0E942F
:100B8000B00508950E944E0A0E94BD0508959295F1
:100B90009F70963091F058F4925F9F70923058F4A5
:100BA000803F19F030F4883E30F481E008959A5F78
:100BB000F4CF843FD1F380E00895883EB0F3813FC5
:100BC000D1F7F3CFFC0183819481892B29F08081B7
:100BD000918189238F3F11F480E008958081918174
:100BE0000E944D070E94C7050895A5E0B0E0EBEF15
:100BF000F5E00C94741E2596E2E00C94901EA6E09D
:100C0000B0E0E5E0F6E00C94741E2696E2E00C9469
:100C1000901E08950E94090608950E940A06909366
:100C2000C1018093C0010E94B005089508950E94FB
:100C30000D0608952091C0013091C101822B932BA4
:100C40000E940D0608952091C0013091C1018223B8
:100C500093230E940D0608952091C0013091C10197
:100C6000822793270E940D0608950E940906089581
:100C70000E94350608950E9438069093BF01809324
:100C8000BE010E94B005089590E080E00E943B06FE
:100C9000089521E030E0A90102C0440F551F8A9554
:100CA000E2F7CA010E943B06089521E030E002C04D
:100CB000220F331F8A95E2F78091BE019091BF0108
:100CC000822B932B0E943B06089521E030E002C066
:100CD000220F331F8A95E2F7209530958091BE014F
:100CE0009091BF01822393230E943B06089521E047
:100CF00030E002C0220F331F8A95E2F78091BE01D7
:100D00009091BF01822793270E943B06089520916E
:100D1000BE013091BF01822B932B0E943B060895A8
:100D20002091BE013091BF01822393230E943B0694
:100D300008952091BE013091BF01822793270E9420
:100D40003B0608950895262F277091E001C0990F62
:100D50002A95EAF723E0769567952A95E1F7660FDD
:100D6000771F660F771FFA01E60FF71F50E040E08C
:100D7000682F70E08191DF0111979B01042E02C062
:100D8000369527950A94E2F7217021952827292383
:100D900028272C934F5F5F4F4430510559F7089532
:100DA000A82FA77023E0969587952A95E1F7880FDD
:100DB000991F880F991FFB01E80FF91F50E040E0D1
:100DC00080E0219130E00A2E02C0369527950A94E2
:100DD000E2F721703327042E01C0220F0A94EAF7AC
:100DE000822B4F5F5F4F4430510559F70895262FEE
:100DF000983070F4863060F4682F70E086E0989F39
:100E0000600D711D112446EA51E0822F0E94A30655
:100E10000895292F983068F4863058F490E066EAF7
:100E200071E036E0239F800D911D11240E94D006B1
:100E3000089580E00895B0E0A0E0E1E2F7E00C94CE
:100E40006D1E7C010091BE011091BF018091C00117
:100E50009091C101082B192BCFE0D0E0CC24C39492
:100E6000D12CBC2EC6010C2E02C0880F991F0A94EB
:100E7000E2F780239123892B49F4219790F7B12C35
:100E80008B2DCDB7DEB7E9E00C94891EB7018C2F0E
:100E90000E94B80D019789F3F3CFCF93DF93EC0154
:100EA0000E941B07BE010E94B80DDF91CF910895EB
:100EB0001F93CF93DF93EB019091A501992339F014
:100EC000CB010E944D07DF91CF911F910895882398
:100ED00069F0CB010E941B07182F682FCE010E94DA
:100EE000F706BE01812F0E94B80DEDCFCB010E9405
:100EF0000907182FF6CF1F93CF93DF93C091C2013C
:100F000016E08091C3018C1304C0DF91CF911F9133
:100F10000895D0E01C9FF0011D9FF00D1124EC53AB
:100F2000FE4F4081518162817381848195810E944D
:100F3000FF052196C770E5CF4091F4015091F5016E
:100F40006091F6017091F7018091F8019091F9019B
:100F50000E94FF0508951F93CF93DF938091F901BD
:100F6000807F09F049C08091F601882309F444C0CC
:100F70008091C201C091C3016091F4017091F501AB
:100F8000A091F701B091F801D62FD72316E0C8172A
:100F900099F190E0109711F0DF3F19F401968770F6
:100FA000F6CF189F9001199F300D1124F901EC53D1
:100FB000FE4F41814713F2CF40814613EFCF42816C
:100FC0004111ECCF438154814A1B5B0B483C5105D6
:100FD00028F78091F9018F7080618093F901F90100
:100FE000E753FE4F80818F708061808384EF91E0B2
:100FF0000E9486050E947B07DF91CF911F91089583
:10100000A1E1B0E0E6E0F8E00C946C1E8C0185E014
:10101000F801DE011D9601900D928A95E1F7F80125
:10102000E28084EFC82E81E0D82E6091F7017091A4
:10103000F8016115710509F44EC19091F4012091F8
:10104000F501892F82238F3F09F445C140815181E9
:10105000A380B480F090F601F501E61BF70BFF20AA
:1010600009F4EAC08091F901382F307FE83CF1059E
:1010700008F0A3C031116DC0FE2C251316C09413C7
:1010800014C0E11012C08F7080618093F9010E943A
:101090009C07C6010E9486058091F901F8018583AD
:1010A0008F2D6196EAE00C94881EA114B10429F0FA
:1010B000842F85238F3F09F027C180E0F82FF1703E
:1010C000DF2E80FF3CC08091C2012091C30136E039
:1010D000821315C04D875E878D859E850E944D07C2
:1010E000292F22952F702230F0F0243018F59F70B0
:1010F000F1F0F8019581907FD1F4D12C1EC090E0E1
:10110000389FF001399FF00D1124EC53FE4F61819F
:10111000651306C06081641303C06281E6120FC0CC
:1011200001968770D5CF9F7011F0882331F3805ED0
:10113000883018F3C8010E948605FD2CB1CFEE203F
:1011400009F4AECF8091F90181608093F901F12C0F
:10115000A7CF251306C0941304C0F801EE2009F4AC
:1011600087C0C8010E94E205882319F1EE2009F129
:101170008091F901803270F02091F4013091F501F5
:1011800038872F831986BB86AA868C87CE0107965F
:101190000E94860586E0F801A4EFB1E001900D926F
:1011A0008A95E1F70E94AB070E949C07FF24F39405
:1011B00077CFC8010E948605F9CF311113C07A2D6F
:1011C000B98AA88A6E2D89890E94F50584EF91E07D
:1011D0000E94860586E0F60111928A95E9F70E9441
:1011E0009C07B5CF25130FC094130DC0E1100BC0A1
:1011F000F8018583C8010E94860586E0F6011192F8
:101200008A95E9F74DCFC8010E94E205882389F24B
:10121000EE2079F28091F901803208F4BBCF209161
:10122000F4013091F5013A8329831B82BD82AC829F
:101230008E83CE010196ACCFE83CF10508F03EC0AC
:10124000FE2CEE2009F4B5CF25132AC0941328C034
:101250008091F90180FD1BC0982F907FC1F0F801AB
:101260008583903F31F0982F907F905F8F70892B0E
:101270008583C8010E94860586E0F801A4EFB1E0ED
:1012800001900D928A95E1F70E949C0709CF86E0B4
:10129000F801A4EFB1E001900D928A95E1F700CF3B
:1012A000C8010E94E205811175CF8091F90181602A
:1012B0008093F901C8010E948605F2CE7A2DB98A81
:1012C000A88A6E2D89890E94F50586E0F6011192A3
:1012D0008A95E9F7D9CFEE2009F46BCFC8010E94B7
:1012E000E205F82E882309F464CF86E0F801A4EF24
:1012F000B1E001900D928A95E1F784EF91E00E94B0
:10130000DE020E94AB07C0CF81E08E25D7CEACE0D5
:10131000B0E0EDE8F9E00C94731E4F8358876987BD
:101320007A878B879C87CE0107960E9400088823C6
:1013300069F08A859B85892B39F04F815885842FE8
:1013400085238F3F09F06BC016E05FC086E0FE0189
:101350003796DE01119601900D928A95E1F78A8504
:101360009B85892B89F38F81988589238F3F61F332
:101370002091C30130E0C9010196877099274091FF
:10138000C2014817190671F40E94C2051092C301E8
:101390001092C20186E0E4EFF1E0DF011D928A9530
:1013A000E9F7D2CF96E0929FD001939FB00D112420
:1013B000AC53BE4FFE01319601900D929A95E1F724
:1013C0008093C3010E947B07BFCF819FC00111247E
:1013D0008C539E4F0E9400088823E9F0E091C201DF
:1013E0001E9FF0011124EC53FE4F40815181628118
:1013F0007381848195810E94FF058091C20190E0F4
:101400000196877099278093C2018091C2019091C3
:10141000C3018913DACF2C96E3E00C948F1E698503
:101420007A858B859C850E94FF058ECF682F8091E1
:101430000001909101010E9480160895682F80910B
:101440000001909101010E9483160895809100018E
:10145000909101010E94861608958091020285955F
:1014600085958595089580910202877008959091E1
:101470000202977081E009F480E0089580910D02E6
:10148000089590910D02892B80930D020895809507
:1014900090910D02982390930D02089510920D02E1
:1014A000089590910C02892B80930C0208958095E9
:1014B00090910C02982390930C02089510920C02C4
:1014C000089580910302089508950E94640A089582
:1014D00090916D0292FF08C090910302981721F03D
:1014E000809303020E94650A089580910302882375
:1014F00029F01092030280E00E94650A0895CF93BC
:10150000DF93E0910001F091010180910D02808351
:10151000E0910001F0910101808190910C02892BF2
:10152000808390910302992381F0E0910001F09172
:1015300001018081892B80838091000190910101BC
:101540000E94381681110E94750AC0910001D09145
:10155000010148E050E06AEF71E0CE010E949B1E5D
:10156000892B59F088E0FE01AAEFB1E001900D92BD
:101570008A95E1F7CE010E940116DF91CF9108957F
:1015800008950E94C00A089590916D0292FF11C0C3
:1015900098E0899F90011124622B609302020E94BF
:1015A0005506809102028595859585950E94C10A10
:1015B00008950E94550608951092020280E00E944C
:1015C000C10A0895909102028095892380930202B6
:1015D000282F277091F4282F082E000C330B921718
:1015E000130659F090916D0292FF07C0859585957D
:1015F00085950E9465060E94DC0A089590916D020F
:1016000092FB222720F9281769F080FB92F990932A
:101610006D0280916C0290916D020E94480B82E0F5
:101620000E94E20A089580916D0282FB882780F96A
:1016300091E089270E94FE0A089581E00E94FE0A37
:10164000089580E00E94FE0A089590E080E00E94E4
:10165000B91E21E0883E9E4F09F020E0822F0895B8
:1016600082E090E00E94B11E089583E090E00E9425
:10167000B11E0895CF9384E090E00E94B11EC82F60
:1016800082E290E00E94B11E982F8C2FCF91089596
:10169000CF93C92F682F84E090E00E94BF1E6C2F6B
:1016A00082E290E00E94BF1ECF910895AB01BC0181
:1016B0008FE090E00E94D11E0895AB01BC0183E150
:1016C00090E00E94D11E089560E070E0CB010E947E
:1016D0005D0B089560E070E0CB010E94560B0E9404
:1016E000640B089568EE7EEF90E080E00E94DD1EBE
:1016F00060E082E090E00E94BF1E60E083E090E046
:101700000E94BF1E1092C1011092C00160E084E0EF
:1017100090E00E94BF1E64E082E290E00E94BF1E43
:1017200060E085E090E00E94BF1E60E086E090E00F
:101730000E94BF1E6FEF87E090E00E94BF1E40E056
:1017400050E0BA0188E090E00E94D11E60E08DE098
:1017500090E00E94BF1E40E050E0BA0188E190E0B6
:101760000E94D11E60E087E190E00E94BF1E40E031
:1017700050E0BA018CE190E00E94D11E70E060E080
:1017800080E290E00E94DD1E40E050E0BA0188E176
:1017900090E00E94D11E0E946A0B08950E94720B75
:1017A0000895682F8EE090E00E94BF1E08950E9469
:1017B0003E1760932002709321028093220290933F
:1017C000230260931C0270931D0280931E0290936B
:1017D0001F0208950E943E17609320027093210219
:1017E000809322029093230260931802709319024F
:1017F00080931A0290931B020895089508950E9401
:10180000FE0B089508950E94020C089582EA9EE05E
:101810000E94EA150E94FD0B0E94FF0B089581E0D3
:1018200008950E940F0C0895089508950E94140CC5
:101830000E94150C08950E94A50E0E947D02089535
:101840000E9429170E94730F0E941B0C80E00E94C7
:1018500064100E94A0130E94030C0895AAE0B0E057
:10186000E4E3FCE00C946C1E0E94890F80E1A82E3A
:1018700082E0B82E750110E0F70101917F01812F00
:101880000E94CB0E1F5F183009F441C00817A1F366
:101890008091240281FD0E94D10E0E94110CC82E5D
:1018A00010E0812F0E94CB0E082FF50181915F017E
:1018B000081731F1D02ED826F12CEE24E3948D2D8B
:1018C0008E21B1F0CC20A1F0FE821F8391E0802F09
:1018D0008E2109F490E098870E9432178160782F5A
:1018E0009A8789874E815F8168858A850E94A902CF
:1018F000F394EE0CF6E0FF12E2CFF501319700838E
:101900001F5F183071F60E94D70B11E021C0081339
:10191000BFCF0E9432178C0180910E0290910F026E
:1019200008171907A1F08FEF89838A831B820E9411
:1019300032178160782F9D838C8349815A816B8116
:101940008D810E94A90210930F0200930E0210E0F5
:101950000E94BF13082F81110E94EA0B0E94FF1101
:10196000111101C001110E94C3100E9490022A9619
:10197000EAE00C94881ECF93DF930E94BD0DEC012A
:10198000811522E59207E8F5811531E5930708F006
:10199000A3C0883E910510F5803E910570F5883A08
:1019A000910570F4853A910508F078C08130910571
:1019B00021F1009711F1049700F5D0E0C0E01DC0BF
:1019C0008F3B9105D0F7C85AD0E0CC0FDD1FC95B23
:1019D000DE4F0990D881C02DD4640FC0811540E539
:1019E000940708F066C0C11580E4D80708F05EC00F
:1019F000CE019A9581159F4100F7CE01DF91CF91DD
:101A00000895811536E5930718F5811545E5940786
:101A100008F07BC0C11584E5D80708F071C09E01AD
:101A2000237033279C2F96959695C115D34508F4BE
:101A300058C0C1E0D0E002C0CC0FDD1F2A95E2F70C
:101A400030E2939FC0011124C82BD92BDA68D5CF7F
:101A5000C1158AE5D80778F4C11529E5D20708F041
:101A60005EC0C11538E5D30708F4A7CFDC2FCC271B
:101A7000C06FD06AC2CFCE0190568115904208F057
:101A80009CCF8D2F8F710E945F0E90E0982F88273A
:101A900088279F719C012C2BE9013FC0C55AD0E0DB
:101AA000CB58DE4FC881D0E0D064A7CFDF70D06ABA
:101AB000A4CF8370992721E030E002C0220F331FAA
:101AC0008A95E2F7C695C69580E2C89FE001112489
:101AD000C22BD32BDD6891CFD82FCC27C16FD06A12
:101AE0008CCFC1E0D0E002C0CC0FDD1F2A95E2F719
:101AF00020E2929FC0011124C82BD92BDC687DCF36
:101B0000DC2FCC27C46FD06A78CF0E945F0EC82F1D
:101B1000D0E0DC2FCC27CC27DF71D0626ECF8C2FAA
:101B20008F700E945F0E34E0D695C7953A95E1F725
:101B3000CF709C2FEC01D06960CF972F7830A8F43C
:101B4000663098F470E026E0929F600D711D1124BC
:101B5000FB0190E3899FE00DF11D1124EE0FFF1FA3
:101B6000E455FF4F85919491089580E090E00895A9
:101B70000E949D0D0E94BB0C089582389105B9F119
:101B8000B0F48133910509F47DC048F489329105A0
:101B900009F46DC08A32910509F47BC0089585333C
:101BA000910509F45FC08933910509F10895833ED9
:101BB0009105D9F138F4803E910529F1823E9105D5
:101BC00079F10895863E9105D9F1873E910509F492
:101BD0003EC0843E910541F520916D0221FF24C055
:101BE00080916C0284FD19C087EE90E008952091E9
:101BF0006C02237009F05AC020916D0223FF14C0BB
:101C000089E290E0089520916C0220FD38C0309167
:101C10006D0230FF09C024FF43C090E080E00895CA
:101C200020916C0222FDF7CF089520916C0222FDD5
:101C30003AC030916D0230FD39C024FFF5CFEDCFB1
:101C400020916C0223FFF0CF24FDE7CFCDCF209170
:101C50006C0223FD2EC030916D0231FFEECF84EE79
:101C600090E0089520916C0225FFDECFC9CF20912E
:101C70006C0225FD21C020916D0223FFD5CF89E3A1
:101C800090E0D2CF20916C0226FFCECF8AE290E086
:101C9000089520916C0226FFC7CF81E390E008955C
:101CA00083EE90E0089582EE90E0089580EE90E05B
:101CB000089586EE90E0089585E390E00895909170
:101CC0006C0292FF06C0282F28712830F9F4877F14
:101CD000846093FF06C0282F28712831F1F4877E95
:101CE000846120916D0220FF06C0382F3871383092
:101CF000D9F4877F816021FF06C0282F2871283101
:101D0000D1F4877E816194FD877E0895282F247108
:101D10002430F9F68B7F8860DCCF282F24712431A2
:101D200001F78B7E8861DDCF382F3171313019F7A3
:101D30008E7F8860E0CF282F2171213121F78E7EA0
:101D40008861E1CF80E0089508950E94250B8111FC
:101D500002C00E94CE0B0E94300B809324020E948E
:101D60003A0B90936D0280936C020E94A40E0E9425
:101D7000350B90E00E9417068091BE019091BF0143
:101D80000E943806089508950E94C30E089508958C
:101D90000E94C70E0895E82FF0E0EA58FD4F8081B9
:101DA0000895089580EA8A95F1F7089500C008958E
:101DB0000E94D20E0895F894E82FE295EF70F0E0BB
:101DC00031A1282F2F7081E090E001C0880F2A9563
:101DD000EAF7982F9095932391A392A1892B82A340
:101DE00078940895CF93DF93C8E7D1E089918F3F2E
:101DF00011F00E94DB0E81E0CE37D807B9F7CEE7AD
:101E0000D1E089918F3F11F00E94DB0E81E0C6384E
:101E1000D807B9F7DF91CF910895B0E0A0E0E3E1F2
:101E2000FFE00C946E1E7C01162F042FC62FD0E00D
:101E3000C858DE4F28812F3F09F44CC0F894E22F98
:101E4000E295EF70F0E031A12F7081E090E001C0E9
:101E5000880F2A95EAF7932F982B91A392A180954A
:101E6000892382A378940E94D60E8EE7C82E81E043
:101E7000D82EF701A701485F5F4FF12CE02EE094C8
:101E8000D6019D916D0181919F01215031099F3FA4
:101E900031F1692F62956F7070E0DB0190966C9163
:101EA00070E09F7002C0759567959A95E2F760FDA6
:101EB00016C0802BD9018C93FF24F394E417F50707
:101EC000F9F688818F3F11F00E94DB0E6F2D812F74
:101ED0000E94D80ECDB7DEB7E8E00C948A1E8E21A2
:101EE000D9018C93EBCF0E94F20E88E0E6E7F2E096
:101EF000DF01982F1D929A95E9F7EEE6F2E0DF01F7
:101F00001D928A95E9F788E00E94C80F0E94F501AA
:101F10000895A8E0B0E0EFE8FFE00C94701E8E0199
:101F20000F5F1F4F88E0F80111928A95E9F7F12CB5
:101F3000EE24E3944E2D6F2DC8010E940D0FF394F3
:101F4000EE0CF6E0FF12F6CF48E050E0B8018EE666
:101F500092E00E949B1E21E0009709F420E0892B6B
:101F600041F088E0F801AEE6B2E001900D928A956A
:101F7000E1F748E066E772E08EE692E00E94C90F62
:101F8000182F0E94F801812F2896E6E00C948C1EF1
:101F90000895CF92DF92EF92FF920F931F93CF930A
:101FA0006C017B01042F222349F081E080932702FA
:101FB0000E9432179093260280932502C091270237
:101FC000C1110AC0C0E08C2FCF911F910F91FF90DB
:101FD000EF90DF90CF900895809125029091260296
:101FE0000E944A17059770F310E0A801B601C701D7
:101FF0000E949B1E892B41F0A801B601C7010E94D7
:10200000A81E10922702DFCFC0E0FBCF0E9411195B
:102010000E94200C0E941E1908950E9423190E94FC
:102020002E0C0E943D1908950E94CB160E94F718AD
:102030000E94060C0E9406100E940D100E94160CB1
:10204000FBCFB0E0A0E0E7E2F0E10C946E1E6C0183
:102050007B0164E670E088E70E940415EC0197FDBF
:1020600012C010E000E0F601E00FF11F849164E679
:1020700070E00E947015EC01892B29F40F5F1F4F4F
:102080000E151F0581F70E94E615CE01CDB7DEB70C
:10209000E8E00C948A1E08950E944B100895EEE724
:1020A000F2E080E092E0DF019C011D92215030407F
:1020B000E1F7F0938304E09382048FEF9FEF909316
:1020C0004E0280934D0208950E944B100E944C10C6
:1020D0008093490280FD0FC080E8809348020E94EF
:1020E000FE146DE070E083EE91E00E942110892BD8
:1020F00021F080E0089580E2F0CF8091490263E012
:1021000070E081FD26C080EE91E00E942110892BB5
:1021100081F76DE070E080ED91E00E942110892B45
:1021200041F70E943E17605A75418F4F9F4F609351
:102130007E0470937F0480938004909381040E94B6
:102140004F1081E080934C0280934B0210924A0220
:1021500008958DED91E0D9CF2091480236E0839F1C
:10216000C0011124629F800D911D1124811522E070
:10217000920714F090E080E082589D4F9093830482
:1021800080938204089580914C02811103C0809154
:102190004B0208950E943E17605A75418F4F9F4F22
:1021A00060937E0470937F048093800490938104F5
:1021B00080914B028111EBCF62E070E08EEC91E0F8
:1021C0000E942110892B19F781E080934B02DFCF09
:1021D0002F923F925F926F927F928F929F92AF92D7
:1021E000BF92CF92DF92EF92FF920F931F93CF9304
:1021F000DF9380914C02882369F020914D02309149
:102200004E022115310531F080914A0261E070E003
:10221000882399F0DF91CF911F910F91FF90EF905C
:10222000DF90CF90BF90AF909F908F907F906F90F6
:102230005F903F902F9008958F5F082F10E01B0153
:10224000082E02C0220C331C0A94E2F7A901422195
:102250005321452B89F39091490290FD44C082950A
:10226000880F8076809304019801369527953695DE
:10227000279520930701815E809305011092080144
:1022800024E630E047E050E062E071E088E70E9439
:102290009E15892B09F0BECFA80125E0440F551FDC
:1022A0002A95E1F78091490280FD2BC042585D4F8D
:1022B00004E610E020E230E060E488E70E94BF1509
:1022C000892B09F0A7CF0E94C310E101C095D095DA
:1022D00080914D0290914E02C823D923D0934E0293
:1022E000C0934D0297CF880F880F880F8093040109
:1022F00010920701895F8093050183E080930801B4
:10230000BFCFE8E2F2E080E2DF011D928A95E9F7B3
:10231000AAE8B1E006E811E08EE8C82E81E0D82EE8
:1023200097E0592E772473948D91E80129918E01BD
:10233000240F352F311D22583D4FE82FF0E0E85D86
:10234000FD4F90E080E0652C681A872C082E01C0B4
:10235000880C0A94EAF77901A12CE701B9907E0173
:10236000B820662D6A196770962E062E000C770B22
:10237000DB2D01C0DD0F9A94EAF771956195710923
:102380006770772701C0B6946A95EAF7BD2A608125
:10239000962E9B289082A39468E0A612DECF019629
:1023A00031968830910579F6CA16DB0609F0BCCF64
:1023B00004E610E020E230E048E252E07DCF809178
:1023C0004B0290914C02911103C091E0892708952E
:1023D000882369F062E070E08CEC91E00E942110AB
:1023E000892B19F080914B02089510924B02809135
:1023F0004B02EBCF81E008950E94FA1108950F93EC
:102400001F9380914C02882309F160E080E00E94D4
:10241000AC100E94FC110E94E81080914B028823AE
:10242000A9F00E943E1700917E0410917F04209134
:10243000800430918104601B710B820B930B6F3F02
:102440007F4F8F4F9F4710F40E94DF111F910F9114
:102450000895CF93DF93EC01FB018281882309F477
:1024600064C1C430FDE5DF07E0F5CB3F9CE5D9074B
:1024700030F49E0122503C4524313105D8F50E94AC
:102480003A0B90936D0280936C02C231ECE5DE074B
:1024900009F41FC108F06EC0C9308CE5D80709F4F3
:1024A000F2C008F03FC0C530ECE5DE0709F4DBC040
:1024B00058F5C3308CE5D80709F4CDC008F0CFC07B
:1024C00080916C028160C230DC4509F4AEC080911D
:1024D0006C0290916D020E94480B0E94C20580E040
:1024E00009C0C63AEDE5DE0751F238F4C2369DE583
:1024F000D90729F2DF91CF9108959E012E5A3D45CB
:1025000023303105B8F7BBCF80916C028062C730B1
:10251000FCE5DF0709F489C008F4B1C080916C02C2
:10252000806483C0CD309CE5D90709F4BAC070F44B
:1025300080916C028E7FCB30FCE5DF0709F475C01B
:1025400008F4A7C080916C028D7F6FC0CF309CE5EE
:10255000D90709F4B6C008F4A8C0C031FCE5DF070C
:1025600009F4B3C0C131DC4509F0B1CF80916C02F0
:102570008F7B5BC0C1159DE5D90709F4B4C098F500
:10258000CB3FFCE5DF0709F472C0B8F4C4319CE529
:10259000D90709F4B6C008F4A2C0C531DC4509F07A
:1025A00096CF80916C0282FB992790F921E09227C7
:1025B00090FB82F990FB83F938C0CD3F8CE5D807BA
:1025C00009F477C008F457C0CE3FECE5DE0709F404
:1025D00074C080916D028360CF3FDC4509F077CFF6
:1025E00080936D0274CFC2368DE5D80709F496C08A
:1025F00068F4C230EDE5DE0709F48CC008F477C05A
:10260000C330DD4509F063CF80E085C0CE3A9DE55B
:10261000D907E9F068F490916C02892F8E7F90FFC2
:102620008160C63ADD4509F052CF80936C024FCFEE
:10263000CF3A8DE5D80789F1C03BDD4509F047CF9A
:1026400090916D02892F877F93FF8860C9CF809119
:102650006D028860C5CF80916C028260E6CF809168
:102660006C028460E2CF80916C028860DECF809142
:102670006D028160B5CF80916D028260B1CF809193
:102680006C028061D2CF0E94C20580916C0280688A
:10269000CCCF80916C028C60C8CF80916D02877F17
:1026A0009FCF80916C028B7FC0CF80916C02877F1F
:1026B000BCCF80916D028E7F93CF80916D028D7F14
:1026C0008FCF80916C028F7EB0CF80916C028F7D16
:1026D000ACCF0E94C20580916C028F77A6CF80910B
:1026E0006C02837FA2CF80916D028C7F79CF809125
:1026F0006D02982F909591708E7F892B90FB81F9B8
:102700006FCF0E94C20590916C02892F97FB87F9C9
:1027100080588BCF81E00E94D10BD9CE90916C0272
:10272000892F8F7E94FF806180CF81E0E3CE8FE898
:1027300091E00197F1F700C00000089581E008954D
:1027400081E08093500253985B9A52985A9A0E9463
:1027500097132091500242E552E0FA018E2F841B1C
:10276000821708F0089589B183FB882780F94A9978
:1027700004C090E0892B8193F1CF92E0FBCFB0E0D1
:10278000A0E0E5ECF3E10C946E1EF12CE12C84E06A
:10279000C82ED12C80915002F81630F08E2DCDB776
:1027A000DEB7E8E00C948A1E0F2D10E0E9B1E3FBE0
:1027B000EE27E0F94A9940C080E08E2BD801AE5A4E
:1027C000BD4FEC919E2F93709817A1F1EE0FEE0F75
:1027D000E82BEC93EF70F0E0E257FE4FE801CF5AA0
:1027E000DD4F80819881890F888320E084305CF000
:1027F000F801E15BFD4F80818F5F808360E08F2D6A
:102800000E94890121E088818D3F5CF4F801E15B41
:10281000FD4F80818150808361E08F2D0E9489016E
:1028200021E08881082E000C990BB6010E944A1EF7
:102830008883E22AF394AECF82E0BFCFCF93DF93B9
:10284000EB0186319C4511F50E943E0A9A8199233D
:1028500099F08A7A91E009F490E090935302811103
:1028600009C089E20E94160A0E947F0A80E0DF9177
:10287000CF91089585E3F6CF80915302811104C072
:1028800089E20E941E0AF0CF85E3FBCF81E0EFCF03
:102890000F931F93CF93DF93C42FD22FFC0182811C
:1028A0008823C9F0409356020E9432179093550234
:1028B0008093540280E28C0F883040F4C77081E02E
:1028C00001C0880FCA95EAF70E947303DF91CF9188
:1028D0001F910F91089510915602141332C08091E8
:1028E0005402909155020E944A17883C910548F580
:1028F000C0E2CD0F1D17B9F080E2810F883040F49F
:10290000177081E001C0880F1A95EAF70E947A03D8
:10291000C83048F481E09D2F977001C0880F9A95C8
:10292000EAF70E947303802F0E946A03C83070F692
:10293000D77081E001C0880FDA95EAF70E947A0328
:10294000C5CF80E28C0F883008F6C77081E001C0E7
:10295000880FCA95EAF7F2CF0F939C01CB01243F71
:102960004CE5340759F1A8F4293DFCE53F0701F196
:102970002A3D4CE53407D1F1283D3C4591F406E26F
:1029800021EE41EE68ED7CE50E94481480E00F9155
:102990000895263FFCE53F07E9F0B0F0273F3C45AE
:1029A000F9F0FC018281882339F110925602EFCFB1
:1029B00007E225EE45EE69ED7CE5E6CF06E221EE85
:1029C00040EE64EF7CE5E0CF07E225EE44EE65EFF4
:1029D0007CE5DACF06E221EE42EE66EF7CE5D4CF6D
:1029E00007E225EE46EE67EF7CE5CECF08E221E078
:1029F00045EE6AED7CE5C8CF81E0C9CF1092B90001
:102A00008CE08093B8000895B0E0A0E0EAE0F5E142
:102A10000C946B1EB82EEB010E9432176C01EE2451
:102A2000E394F12CC431D10560F025E0E22EF12CC5
:102A3000CF3FDC0731F0CE0164E170E00E94361E2A
:102A40007B0184EAA82E94E8992E1092BC00A092F3
:102A5000BC000E9432178C018091BC0087FF0DC022
:102A60008091B900887F8830F9F08091B900887F23
:102A70008031D1F00FEF1FEF08C0C8010E944A1744
:102A8000E816F90648F70EEF1FEFCF3FDC07E9F233
:102A9000C6010E944A17C817D907B8F6C801CDB7B2
:102AA000DEB7EBE00C94871EB092BB009092BC00A6
:102AB0000E9432178C018091BC0087FF0AC0809170
:102AC000B900887F883111F08034A1F610E000E071
:102AD000E5CFC8010E944A17E816F90660F7D3CF80
:102AE0000F931F93CF93DF93EB018093BB0084E898
:102AF0008093BC000E9432178C018091BC0087FF3C
:102B000011C02091B900287F81E090E0283211F4B3
:102B100090E080E0919581959109DF91CF911F918F
:102B20000F910895CF3FDC0741F3C8010E944A1777
:102B3000C817D90710F78EEF9FEFEFCFB0E0A0E0F6
:102B4000E4EAF5E10C946E1E6B018A017901B9018A
:102B50000E940415E6010C0D1D1DC017D10711F0D0
:102B600097FF08C024E92093BC00CDB7DEB7E8E0AA
:102B70000C948A1EB70189910E947015EECFB0E0C7
:102B8000A0E0E5ECF5E10C946E1EC62F6A01790118
:102B9000B8010E94041597FD0CC0B8018C2F0E944B
:102BA0007015E601EC0CFD1CCE15DF0511F097FF4A
:102BB00008C024E92093BC00CDB7DEB7E8E00C9450
:102BC0008A1EB80189910E947015EECF84E9809326
:102BD000BC00089590939F0180939E010895909367
:102BE0005C0280935B020895E0915B02F0915C02CD
:102BF000309729F00190F081E02D0995089580E04B
:102C00000895E0915B02F0915C02309721F0028020
:102C1000F381E02D099508952091590230915A02CF
:102C20002817390771F090935A0280935902E09166
:102C30005B02F0915C02309721F00680F781E02D75
:102C400009950895209157023091580228173907A5
:102C500071F09093580280935702E0915B02F091DB
:102C60005C02309721F00084F185E02D09950895EC
:102C70009C012E5F3F4FAC01485F5F4F80E02417FF
:102C8000350709F40895F90191919F019923B9F34A
:102C90008F5FF5CF662349F0FC01329608962191AB
:102CA000261729F0E817F907D1F780E0089581E0A9
:102CB00008959C01FC0132969FEF80E041914617F8
:102CC00051F09F3F19F4411101C0982F8F5F86305A
:102CD000A9F79F3F09F40895290F311D97FD3A95F3
:102CE000F90162830895FC0132960896219126131A
:102CF00003C0DF0111971C92E817F907B9F708958F
:102D00000E94591608950E9473160895029626E0AF
:102D1000FC0111922A95E9F7089508950E948D16F5
:102D20000895811106C081E080935D020E948E1695
:102D3000089582E0F9CF83E080935D020E948E16B1
:102D400008950E949116089581E080935D020E948B
:102D50008E1608950E94A4160895089508950E945D
:102D6000AE160895089508950E94AD160895CF9364
:102D70000E94B2160E94890F0E94B316C0E08C2FE9
:102D80000E94CB0E811105C0CF5FC830C1F7CF9133
:102D9000089581E0FCCF85B7806885BF85B78068DE
:102DA00085BF08951F921FB61F9211248F939F9382
:102DB000AF93BF9380915E02811113C08091840410
:102DC00090918504A0918604B09187044196A11D3D
:102DD000B11D8093840490938504A0938604B093DE
:102DE0008704BF91AF919F918F911F901FBE1F903D
:102DF000189580918C04843031F10E946802109201
:102E00005E0288E190E020E40FB6F894A8958093E4
:102E100060000FBE2093600083B7817F846083BF12
:102E200083B7816083BF7894889583B78E7F83BF93
:102E30000FB6F894A8958091600088618093600037
:102E4000109260000FBE08950E94C2050E946F029A
:102E5000089582E084BD93E095BD9AEF97BD80937D
:102E60006E0008952FB7F8948091840490918504A2
:102E7000A0918604B09187042FBF08952FB7F894CE
:102E800060918404709185048091860490918704F8
:102E90002FBF08959C014FB7F894809184049091BE
:102EA0008504A0918604B09187044FBF821B930BC9
:102EB000089578941F921FB61F9211248F939F93A9
:102EC000AF93BF938091840490918504A091860470
:102ED000B09187040196A11DB11D80938404909345
:102EE0008504A0938604B0938704BF91AF919F910E
:102EF0008F911F901FBE1F90189587E797E79093BB
:102F000001088093000888E19AE00FB6F894A8952C
:102F1000809360000FBE90936000FFCF88E19AE03D
:102F20000FB6F894A895809360000FBE9093600050
:102F3000FFCF80916A0208950895CF93DF93EC014B
:102F400081E08093E9008FEF9091E800815095FD3A
:102F500006C095ED9A95F1F700008111F5CF8091AB
:102F6000E80085FF14C050E040E068E070E0CE016A
:102F70000E94AF198091E8008E778093E80088E086
:102F8000FE01A2E6B2E001900D928A95E1F7DF9191
:102F9000CF91089580935F02709361026093600205
:102FA00080918C04843001F582E08093E9008FEFFA
:102FB0009091E800815095FD06C095ED9A95F1F746
:102FC00000008111F5CF8091E80085FF0DC050E031
:102FD00040E063E070E08FE592E00E94AF198091DD
:102FE000E8008E778093E8000895BC0184E00E9499
:102FF000CA170895BC0183E00E94CA170895089576
:1030000080918B04811109C00E943F1B0E949C1B70
:103010008091E20084608093E200089510928B0416
:1030200008950E94A41608956091880481E06111BA
:1030300001C080E00E949B16089590918C0481E06D
:10304000943009F080E0609188040E94A1160895F0
:1030500042E061EC81E00E94BB1A42E261EC82E056
:103060000E94BB1A90918C0481E0943009F080E0BA
:10307000609188040E949116089580918E04833097
:1030800009F461C030F48130D1F1823009F49EC07E
:1030900008958A3009F48AC08B3009F46FC08930F2
:1030A00009F050C080918D04813209F04BC08091AD
:1030B000910490919204029708F044C08091E80036
:1030C000877F8093E8008091E80082FF37C090916D
:1030D000F3008091F200029731F48091F100813089
:1030E00011F0863021F48091F10080936A02809182
:1030F000E8008B778093E8000E94EF1A23C080914C
:103100008D04813AF9F48091E800877F8093E8008C
:103110008091910490919204892B61F468E082E699
:1031200092E070E00E94FE198091E8008B77809316
:10313000E800089560E090E080E0F3CF80918C0497
:103140008111C1CF089580918D04813AD9F7809182
:10315000910490919204892BA9F78091E800877FD0
:103160008093E8008091E80080FFFCCF80911501FA
:103170008093F1008091E8008E77BCCF80918D0420
:10318000813201F78091910490919204892BD1F6BC
:103190008091E800877F8093E8000E94EF1A809179
:1031A0008F04809315010E94C205089580918D04BB
:1031B000813241F68091E800877F8093E8000E9489
:1031C000EF1A8091900480936B02089580918D0492
:1031D000813A09F0B7CF8091E800877F8093E800BB
:1031E0008091E80080FFFCCF80916B02C1CF84B753
:1031F000877F84BF0FB6F894A8958091600088619E
:1032000080936000109260000FBE80E890E00FB6DF
:10321000F89480936100909361000FBE0E94AA16FB
:1032200008950E943F1B0E949C1BE2EEF0E080810B
:103230008460808378940E941B1E089589E091E049
:103240000E94EF15089580918C04853031F48091AF
:103250008C04853019F00E94241708950E94F916F5
:1032600080918A04882399F30E94B716882379F302
:103270000E9499190E94C205EACF08950E9441193F
:103280000895292F33272330310519F168F42130AF
:10329000310509F444C02230310509F445C090E0FD
:1032A00080E030E020E025C02132310549F12232B2
:1032B0003105A9F780E490E023E932E0611571055A
:1032C000C1F082E390E021E632E06130710589F0DF
:1032D000E6CF99278130910581F0009729F0029778
:1032E000F1F6E0EFF1E002C0E0E1F2E0849190E07D
:1032F0009F01FA01318320830895ECEFF1E0F6CFCE
:1033000089E090E026E232E06115710591F389E0F1
:1033100090E02FE332E06130710559F3C0CF82E1D4
:1033200090E02FE432E0E5CF8BE390E024E132E05F
:10333000E0CF80E189BD82E189BD09B400FEFDCF07
:103340008091D8008F7D8093D8008091E0008260CA
:103350008093E0008091E00081FDFCCF0895AF9262
:10336000BF92CF92DF92FF920F931F93CF93DF9381
:103370006C01EB018A010E940E1BF82E811123C003
:103380000115110539F0F80180819181C81BD90B15
:10339000C80ED91EB12CA12C2097A9F08091E8006D
:1033A00085FD22C08091E8008E778093E8000115AA
:1033B0001105A1F0F80180819181A80EB91EB1829A
:1033C000A08285E0F82E8F2DDF91CF911F910F9174
:1033D000FF90DF90CF90BF90AF9008950E940E1B9A
:1033E0008823D1F2F82EEFCFF60181916F018093FF
:1033F000F1002197FFEFAF1ABF0ACECFFC018091F9
:1034000093049091940486179707A0F061157105B5
:1034100029F49091E8009E779093E80090E0611580
:10342000710551F4911108C08091E80082FF34C009
:1034300080E00895BC01F2CF80918C048823C1F113
:103440008530C1F18091E80083FD30C08091E800B3
:1034500082FDEACF8091E80080FFE1CF8091F30008
:103460002091F200382F6115710519F028303105CF
:1034700058F091E02830310509F090E02091E80003
:103480002E772093E800CBCF81918093F10061509B
:1034900071092F5F3F4FE7CF80918C04882341F063
:1034A000853041F08091E80083FFBECF81E0089530
:1034B00082E0089583E00895FC0180919304909147
:1034C000940486179707A0F06115710529F480917F
:1034D000E8008E778093E80090E06115710551F463
:1034E000911108C08091E80082FF35C080E0089506
:1034F000BC01F2CF80918C048823C9F18530C9F1D9
:103500008091E80083FD31C08091E80082FDEACF20
:103510008091E80080FFE1CF8091F3002091F200DC
:10352000382F6115710519F02830310558F091E0F8
:103530002830310509F090E08091E8008E77809383
:10354000E800CBCF84918093F100319661507109EE
:103550002F5F3F4FE6CF80918C04882341F0853068
:1035600041F08091E80083FFBDCF81E0089582E0C3
:10357000089583E00895982F973028F08F708093F6
:10358000E90081E008959093E900242F762F50E020
:10359000981731F07091EC002091ED005091F000FF
:1035A00021FD02C09F5FE8CF3091EB003E7F30935A
:1035B000EB003091ED003D7F3093ED003091EB005A
:1035C00031603093EB007093EC002093ED0050934A
:1035D000F0002091EE0027FDE5CF80E00895809176
:1035E0008D0487FF13C08091E80082FF06C08091A0
:1035F000E8008B778093E80004C080918C048111EF
:10360000F2CF089580918C048823D9F38091E8004B
:1036100080FFF8CF8091E8008E77ECCF2091E40016
:103620003091E50095E6A9012091EC00822F817090
:1036300020FF06C08091E80080FF06C080E008956A
:103640002091E80022FD1AC080918C04882389F023
:10365000853089F08091EB0085FD0FC02091E4005A
:103660003091E50042175307F9F29150E1F684E0FA
:10367000089582E0089583E0089581E008950E940E
:10368000AE1B0E94B61BE0EEF0E08081816080837B
:10369000E8EDF0E080818F77808319BCA7EDB0E082
:1036A0008C918E7F8C9380818F7E808310928B048F
:1036B00008950F931F93CF93DF930E94AE1B0E9438
:1036C000B61BC8EDD0E088818F77888388818068B9
:1036D000888388818F7D888319BC10928C04109216
:1036E000880410928A041092890400EE10E0F80118
:1036F00080818B7F808388818160888342E060E065
:1037000080E00E94BB1AE1EEF0E080818E7F808332
:10371000E2EEF0E080818160808380818860808338
:10372000F80180818E7F8083888180618883DF912A
:10373000CF911F910F910895E8EDF0E080818F7E89
:103740008083E7EDF0E080818160808384E082BF48
:1037500081E080938B040E94591B0895E8EDF0E00E
:1037600080818E7F80831092E20008951092DA00AB
:103770001092E10008951F920F920FB60F9211243C
:103780002F933F934F935F936F937F938F939F9369
:10379000AF93BF93EF93FF938091E10082FF0BC043
:1037A0008091E20082FF07C08091E1008B7F8093CF
:1037B000E1000E941A1E8091DA0080FF19C08091FA
:1037C000D80080FF15C08091DA008E7F8093DA00E8
:1037D0008091D90080FF96C080E189BD82E189BDDA
:1037E00009B400FEFDCF81E080938C040E94001894
:1037F0008091E10080FF19C08091E20080FF15C038
:103800008091E2008E7F8093E2008091E2008061EF
:103810008093E2008091D80080628093D80019BC28
:1038200085E080938C040E9414188091E10084FF4D
:103830002BC08091E20084FF27C080E189BD82E136
:1038400089BD89B5982F917080FFFBCF8091D800FA
:103850008F7D8093D8008091E1008F7E8093E1007E
:103860008091E2008F7E8093E2008091E20081608F
:103870008093E20080918804882309F449C084E0A1
:1038800080938C040E941D188091E10083FF29C061
:103890008091E20083FF25C08091E100877F8093C3
:1038A000E10082E080938C04109288048091E10012
:1038B0008E7F8093E1008091E2008E7F8093E20012
:1038C0008091E20080618093E20042E060E080E06D
:1038D0000E94BB1A8091F00088608093F0000E94E3
:1038E0001118FF91EF91BF91AF919F918F917F91AF
:1038F0006F915F914F913F912F910F900FBE0F905D
:103900001F90189519BC10928C040E940E1870CF4D
:103910008091E30087FD93E090938C04B3CF1F92D6
:103920000F920FB60F9211242F933F934F935F93F3
:103930006F937F938F939F93AF93BF93CF93DF93B7
:10394000EF93FF93D091E900DF708091EC00C82FD6
:10395000C17080FDC0E81092E9008091F000877F7F
:103960008093F00078940E94D31C1092E90080911B
:10397000F00088608093F000CD2BCF70C093E900F9
:10398000FF91EF91DF91CF91BF91AF919F918F9177
:103990007F916F915F914F913F912F910F900FBE4B
:1039A0000F901F901895AAE2B0E0E9EDFCE10C94AD
:1039B000731E8DE894E02091F100FC012193CF016A
:1039C000F4E085399F07B9F70E943D188091E8001F
:1039D00083FF1EC180918D0490918E049A3008F06F
:1039E00017C1E92FF0E0EF5FF04E0C945E1E8038B7
:1039F00099F0823809F00CC1809191048F70873062
:103A000008F006C18093E9008091EB0085FB8827D0
:103A100080F91092E90006C08091890490918A048F
:103A2000911182609091E800977F9093E8008093D5
:103A3000F1001092F1008091E8008E77E5C08823B4
:103A400009F4D3C0823009F0E3C080918F04811162
:103A5000D6C0809191048F702FEF280F263008F088
:103A6000D7C08093E9002091EB0020FFC8C09330BD
:103A700031F48091EB0080628093EB00C0C09091A4
:103A8000EB0090619093EB0021E030E001C0220F49
:103A90008A95EAF72093EA001092EA008091EB0001
:103AA0008860EACF8111B4C010918F041F77809194
:103AB000E3008078812B8093E3008091E800877F8A
:103AC0008093E8000E94EF1A8091E80080FFFCCF0D
:103AD0008091E30080688093E30082E0111183E02D
:103AE00080938C0495C08058823008F091C08091FA
:103AF0008F04909190048C3D23E09207A1F583E020
:103B00008A838AE289834FB7F894DE01139620E016
:103B10003EE051E2E32FF0E050935700E49120FFA4
:103B200003C0E295EF703F5FEF708E2F90E0EA30B8
:103B3000C0F0C7968D939D932F5F243159F74FBFE7
:103B40008091E800877F8093E8006AE270E0CE0110
:103B500001960E94FE198091E8008B778093E8001F
:103B600057C0C096E7CF6091910470919204AE0166
:103B70004F5F5F4F0E943E19BC01892B09F448C07A
:103B80009091E800977F9093E80089819A810E9444
:103B90005C1AE1CF8038E1F58091E800877F80935F
:103BA000E800809188048093F10045CF811130C0F6
:103BB00090918F04923060F58091E800877F809328
:103BC000E800909388040E94EF1A8091880488236B
:103BD00011F084E005C08091E30087FDFACF81E019
:103BE00080938C040E94281813C080918F04813028
:103BF00079F481E0933009F080E080938A04109298
:103C0000E9008091E800877F8093E8000E94EF1A26
:103C10008091E80083FF0AC08091E800877F80934D
:103C2000E8008091EB0080628093EB00AA96E3E0CD
:103C30000C948F1E0895CF9380918C048823A1F05B
:103C4000C091E900CF709091EC00892F817090FDB8
:103C500080E8C82B1092E9008091E80083FD0E9463
:103C6000D31CCF70C093E900CF910895AA1BBB1B52
:103C700051E107C0AA1FBB1FA617B70710F0A61B6C
:103C8000B70B881F991F5A95A9F780959095BC018D
:103C9000CD01089597FB072E16F4009407D077FD09
:103CA00009D00E94361E07FC05D03EF49095819500
:103CB0009F4F0895709561957F4F0895EE0FFF1FF8
:103CC0000590F491E02D09942F923F924F925F92CC
:103CD0006F927F928F929F92AF92BF92CF92DF921C
:103CE000EF92FF920F931F93CF93DF93CDB7DEB781
:103CF000CA1BDB0B0FB6F894DEBF0FBECDBF099415
:103D00002A88398848885F846E847D848C849B846B
:103D1000AA84B984C884DF80EE80FD800C811B8179
:103D2000AA81B981CE0FD11D0FB6F894DEBF0FBEA8
:103D3000CDBFED010895FB01DC0104C08D91019020
:103D4000801921F441505040C8F7881B990B089501
:103D5000FB01DC0102C001900D9241505040D8F7A8
:103D60000895F999FECF92BD81BDF89A992780B543
:103D70000895A8E1B0E042E050E00C94E51E262F43
:103D8000F999FECF92BD81BDF89A019700B4021651
:103D900039F01FBA20BD0FB6F894FA9AF99A0FBEFF
:103DA00008950396272F0E94C01E0E94BF1E252F34
:103DB0000E94C01E242F0C94C01E0196272F0E9423
:103DC000C01E0C94BF1EDC01CB01FC01F999FECF93
:103DD00006C0F2BDE1BDF89A319600B40D92415093
:103DE0005040B8F70895F894FFCFBC03BC03ED032F
:103DF000ED037A041C041C041C0496040705160534
:103E00001605F71C1F1D081E1F1D081E521D731DC1
:063E1000081ECA1DD61DAC
:103E160004020021007F22000399179D17FF17FA5D
:103E260017F5179C1701E200E900EA00B500B60095
:103E3600B700CD008301CC008A01920194012102D2
:103E4600230224022502260227022A02B300B40016
:103E56006F007000818283E200E900EA00B500B6D7
:103E660000B700CD008301CC008A019201940121A4
:103E760002230224022502260227022A02B300B4E4
:103E8600006F007000818283F6F7313332363435A5
:103E9600946697C6F5F4000810181810080000FF7D
:0E3EA6000100010000FFFF0000010001FF000D
:00000001FF
