:100000000C94EA020C9407030C9407030C94070366
:100010000C9407030C9407030C9407030C94070338
:100020000C9407030C9407030C94DB210C94972188
:100030000C94D8220C9407030C9407030C94070328
:100040000C9407030C9407030C9407030C94070308
:100050000C9407030C94B4220C9407030C9407032C
:100060000C9407030C9407030C9407030C940703E8
:100070000C9407030C9407030C9407030C940703D8
:100080000C9407030C9407030C9407030C940703C8
:100090000C9407030C9407030C9407030C940703B8
:1000A0000C9407030C9407030C94070305010980C3
:1000B000A101850319012AB700150126B700950192
:1000C00075108100C0050C0901A101850419012AE0
:1000D000A002150126A002950175108100C00660DE
:1000E000FF0961A1010962150026FF00952075082E
:1000F00081020963150026FF00952075089102C052
:1001000005010906A101050719E029E715002501E8
:10011000950875018102950175088101050719008F
:1001200029FF150026FF00950675088100050819AE
:10013000012905950575019102950175039101C08D
:1001400000000000000000000000000000000000AF
:10015000000000000000000000000000000000009F
:10016000000000007E0F00D4FFFFFFC700000078F2
:1001700000000000000000002A2B28000000000002
:100180000000000000000000000000290000000046
:100190002C1E3420212224342627252E362D3738B4
:1001A000271E1F202122232425263333362E3738BD
:1001B0001F0405060708090A0B0C0D0E0F1011127B
:1001C000131415161718191A1B1C1D2F3130232D47
:1001D000350405060708090A0B0C0D0E0F10111245
:1001E000131415161718191A1B1C1D2F3130354CF6
:1001F000FD377A585A000004E6D6B44602002101C1
:1002000016000000742FE5A3E003AA01655D003D20
:100210008889C65436C3174FE4F5602D3B56DF215D
:1002200044B4FF40F91849E5B259552B74925092E5
:10023000C7D59B8E55F76A5219C834EB335A64857B
:10024000505C584F3CA629B8381BD0C58C9AF6C7CD
:10025000EFF4B0C05D5DC8AB5D5EE6357F4E98D70C
:10026000A73145D85F956022A08E4AA000FC945F1C
:10027000998E13004D1180E382B6445C1762E6E468
:10028000564EA8C42FC49D558408A19E9BF7B23634
:1002900026F332535D9A115D52E66E57C8C7BB58BC
:1002A00039E0F387EA85830A8744AD990AC6F6E800
:1002B000EB7B9F51CC6B34E101EF24EE10DFBCB43B
:1002C0005D973F4A14A0A52C60F9D71F0EF29351F9
:1002D000830412CB06F29B17F95FA7E64CB138CB2B
:1002E00069FCD4FC9FA07F26E000D6CFAC855BD90B
:1002F0000A6BDB8614359D6ACF0F3396FD20ECAE7A
:100300009BB0C9D99D08BAF2791D1295C394545A6D
:100310004F0A4B0EEC4EB5A12BE9C95E907EBE276D
:100320003139C35BB17954402AA1835B0AA2537A65
:1003300006441FBE82AB4528154028D7CAABA55F2F
:1003400032C1391A258213070F7750E82C53E28403
:1003500088B6D65394BDAC04DE380516A75FB23E0E
:10036000A0BAC9EE8BB2A24C6D4A825B49E91C2C43
:10037000BE53970000000000D19F7925B7EEF52805
:1003800000018103AB070000F1E13CCEB1C467FB83
:10039000020000000004595AAA00A900010001004F
:1003A000010001000100010029001A0015001C00D5
:1003B0000C001300140008001700180012002A0097
:1003C0002B00160009000B000E003300040007008C
:1003D0000A000D000F00280035621D000600050010
:1003E0001000370038001B00190011003600E5002E
:1003F000E000E2002C412C41E700AE00E3000000E9
:100400000251E600E400A80029001F00210023009B
:10041000250027001E0020002200240026002A00BC
:1004200001000100010052002D0034000100010014
:10043000010052002E0028000100010001005000C0
:100440004F00380001000100010051002E000100A2
:1004500001000100010001000100AE0001000000E8
:10046000010001000100A8000100C85C01000100BA
:1004700052000100C75C0100010001000100010001
:100480000100C35C0100010051000100C25CC45CBA
:10049000010050004F0001000100CA5C0100010092
:1004A00001005200C95C010001000100010052007E
:1004B00001000100010001005100010001000000E5
:1004C000010050004F000100010001000100010087
:1004D0000100010001000100010001000100010014
:1004E0000100010001000100010001000100010004
:1004F00001000100010001000100010001000100F4
:1005000001000100010001000100010001000100E3
:1005100001000100010001000100010001000000D4
:10052000010001000100010009025B00030100A0BD
:10053000FA09040000010301010009211101000171
:10054000224000070581030800010904010002039D
:100550000000000921110100012222000705820389
:100560002000010705030320000109040200010324
:100570000000000921110100012232000705840357
:100580002000011201000200000008291753530146
:1005900000010203011C037600690061006C003A4F
:1005A00000660036003400630032006200330063EE
:1005B0000000000A036C00690074006C0000000E6B
:1005C000036D006F0068006F007900740000000484
:1005D0000309040011241FBECFEFDAE0DEBFCDBF58
:1005E00011E0A0E0B1E0ECE9F3E502C005900D9266
:1005F000A637B107D9F723E0A6E7B1E001C01D9205
:10060000AC3DB207E1F70E94FF220C94A8290C949C
:100610000000E8EDF0E080818E7F80831092E200A0
:100620001092DA001092E100A0EEB0E08C918160AF
:100630008C9380818F77808319BCA7EDB0E08C917B
:100640008E7F8C9380818F7E80831092C00308956B
:100650002091E4003091E50095E6A9012091EC009D
:10066000822F817020FF06C08091E80080FF06C0C5
:1006700080E008952091E80022FD1AC08091D60301
:10068000882389F0853089F08091EB0085FD0FC0CB
:100690002091E4003091E50042175307F9F29150A0
:1006A000E1F684E0089582E0089583E0089581E012
:1006B0000895EF92FF920F931F93CF937C018B01CC
:1006C0000E942803C82F811117C08091E80085FD82
:1006D0000BC08091E8008E778093E8000E94280389
:1006E000882399F3C82F08C0F70181917F01809377
:1006F000F1000150110949F78C2FCF911F910F91F3
:10070000FF90EF900895CF93FC018091D603843041
:1007100001F5C091E900CF702091EC00922F91700B
:1007200020FD90E8C92B82E08093E9008091E800E9
:1007300080FF0CC050E040E060E270E0CF010E941A
:1007400059038091E8008E778093E800CF70C093C2
:10075000E900CF9108958091CE0387FF13C0809167
:10076000E80082FF06C08091E8008B778093E80064
:1007700004C08091D6038111F2CF08958091D603F1
:100780008823D9F38091E80080FFF8CF8091E800BA
:100790008E77ECCF982F9093E900242F762F50E09E
:1007A000891731F07091EC002091ED005091F0002C
:1007B00021FD07C09F5F973071F78093E90081E0CA
:1007C00008953091EB003E7F3093EB003091ED00C7
:1007D0003D7F3093ED003091EB0031603093EB00C2
:1007E0007093EC002093ED005093F0002091EE0008
:1007F00027FDE0CF80E00895CF92DF92EF92FF9245
:100800000F931F93CF93DF93C8EDD0E088818F7E45
:100810008883E7EDF0E080818160808384E082BF9F
:1008200081E08093C00388818E7F888302EE10E090
:10083000F80110821092DA0081EEC82ED12CF60158
:10084000108288818F7788838881806888838881F7
:100850008F7D888319BC1092D6031092CD0310921D
:10086000CC031092CB0390EEE92EF12CF70180819E
:100870008B7F808388818160888342E060E080E0B4
:100880000E94CA03F60180818E7F8083F8018081F7
:1008900081608083808188608083F70180818E7F82
:1008A0008083888180618883DF91CF911F910F9130
:1008B000FF90EF90DF90CF900895FC018091D403DA
:1008C0009091D50386179707A0F06115710529F45B
:1008D0009091E8009E779093E80090E06115710593
:1008E00051F4911108C08091E80082FF34C080E08B
:1008F0000895BC01F2CF8091D6038823C1F18530E1
:10090000C1F18091E80083FD30C08091E80082FD54
:10091000EACF8091E80080FFE1CF8091F300209141
:10092000F200382F6115710519F02830310558F0A3
:1009300091E02830310509F090E02091E8002E7711
:100940002093E800CBCF81918093F1006150710931
:100950002F5F3F4FE7CF8091D603882341F085304A
:1009600041F08091E80083FFBECF81E0089582E0EE
:10097000089583E00895089508958091C20308952D
:1009800087E797E7909301088093000888E19AE051
:100990000FB6F894A895809360000FBE9093600006
:1009A000FFCF9C014FB7F8948091B9039091BA039F
:1009B000A091BB03B091BC034FBF821B930B089562
:1009C0002FB7F8946091B9037091BA038091BB037B
:1009D0009091BC032FBF08952FB7F8948091B9036D
:1009E0009091BA03A091BB03B091BC032FBF0895AF
:1009F0002091B6033091B7032817390771F090930F
:100A0000B7038093B603E091B403F091B503309738
:100A100021F00084F185E02D099408952091B2031E
:100A20003091B3032817390771F09093B303809383
:100A3000B203E091B403F091B503309721F0068042
:100A4000F781E02D09940895E091B403F091B50386
:100A5000309721F00190F081E02D099480E0089515
:100A6000CF93DF93EC014091A7035091A8036091CD
:100A7000A9037091AA032FB7F8948091B9039091BC
:100A8000BA03A091BB03B091BC032FBF841B950B8D
:100A9000A60BB70B843F9140A105B10518F58091D5
:100AA000A7039091A803A091A903B091AA038093F2
:100AB000A3039093A403A093A503B093A60384EF8C
:100AC00091E0A0E0B0E080939F039093A003A093F7
:100AD000A103B093A203D093AF03C093AE03DF9101
:100AE000CF9108950E94E0046093A3037093A40340
:100AF0008093A5039093A60382E390E0A0E0B0E08A
:100B0000E2CFFC018481862351F492819923B9F0CC
:100B10006923808583FF05C081E061110FC080E0FB
:100B20000895892F8F7092959F70982B862F8F70C4
:100B300062956F70682B81E09613F1CF089581E084
:100B4000FDCFDC0160919B0380919C03962F89135C
:100B500001C00895292F30E0F901EE0FFF1FED5677
:100B6000FC4F408151814A175B07A1F487E08A9FBF
:100B7000A0018B9F500D1124455A5C4F81E0FA0172
:100B800084839613E6CF2F5F3F4F23703327209344
:100B90009B0308952F5F3F4F922F9370D8CF1092F1
:100BA000F7021092F602EBE5F3E08581811102C0B5
:100BB00014821682379683E0E339F807B1F7089577
:100BC00080E00895F894E82FE295EF70F0E031A10D
:100BD000282F2F7081E090E001C0880F2A95EAF756
:100BE000982F9095932391A392A1892B82A3789417
:100BF00008959091FA0192FF06C0282F287128309D
:100C0000F9F4877F846093FF06C0282F287128316C
:100C1000F1F4877E84612091FB0120FF06C0382F0C
:100C200038713830D9F4877F816021FF06C0282FC2
:100C300028712831D1F4877E816194FD877E0895E3
:100C4000282F24712430F9F68B7F8860DCCF282F81
:100C50002471243101F78B7E8861DDCF382F31710B
:100C6000313019F78E7F8860E0CF282F2171213134
:100C700021F78E7E8861E1CFCF93DF93EC0182383C
:100C80009105A9F1D8F58133910509F496C048F58D
:100C90008932910509F48AC08A9709F495C0C11573
:100CA00022E5D20708F0B6C0C11531E5D30708F038
:100CB00026C1C83ED10508F09CC0C03ED10560F5F4
:100CC000C83AD10508F087C0C53AD10508F0EFC091
:100CD000C130D10509F12097F9F0C430D105E0F415
:100CE00040C08533910509F45AC0C997C1F6809177
:100CF000FA01837089F0C0EED0E00EC0833E91050A
:100D000099F170F4803E910501F1823E910539F62A
:100D10008091FA0182FD21C0CE01DF91CF9108952B
:100D2000863E910561F1873E910571F1843E910502
:100D300009F0B5CF8091FB0181FFEECF8091FA01E0
:100D4000C7EED0E084FD0DC0E7CF8091FA0180FDB1
:100D500007C19091FB0190FFDFCFC3EED0E084FF8D
:100D6000DBCFD0E0C0E0D8CF8091FA0182FDFBC09C
:100D70009091FB0190FDBFCF84FFCECFF2CF809149
:100D8000FA0183FDDDCFC8CF8091FA0183FDEEC06B
:100D90009091FB0191FFF0CFC4EED0E0BDCF8091E8
:100DA000FA0185FFB9CFC9E2D0E0B6CF8091FA0150
:100DB00085FFB2CFC5E3D0E0AFCF8091FA0186FFC7
:100DC000ABCFCAE2D0E0A8CF8091FA0186FFA4CFD2
:100DD000C1E3D0E0A1CFCF3BD10518F6C85AD0E08F
:100DE000CC0FDD1FC65EDE4F0990D881C02DD464C4
:100DF00093CFC11540E5D40708F064C0C11580E465
:100E0000D80708F05CC0CE019A9581159F4108F47F
:100E100083CFA7CFC11536E5D30718F5C11545E532
:100E2000D40708F084C0C11584E5D80708F07AC05B
:100E30009C2F969596959E0123703327C115D34517
:100E400008F462C0C1E0D0E002C0CC0FDD1F2A95DB
:100E5000E2F730E2939FC0011124C82BD92BDA6846
:100E60005BCFC1158AE5D80778F4C11599E5D90794
:100E700008F068C0C11528E5D20708F472CFDC2F4E
:100E8000CC27C06FD06A48CFCE01905681159042D2
:100E900008F067CF8D2F8F710E94F90590E0982F91
:100EA000882788279F719C012C2BE90149C0C55ACE
:100EB000D0E0C95EDE4FC881D0E0D0642DCFDF70B6
:100EC000D06A2ACFCE01E4E096958795EA95E1F7BE
:100ED00083702C2F26952695237040E2249F900145
:100EE0001124382B8C2F8370C1E0D0E002C0CC0FCE
:100EF000DD1F8A95E2F7C22BD32BDC680DCFDC2FE8
:100F0000CC27C16FD06A08CFC1E0D0E002C0CC0FBF
:100F1000DD1F2A95E2F720E2929FC0011124C82B21
:100F2000D92BEBCFDC2FCC27C46FD06AF5CE8C2F1A
:100F30000E94F905C82FD0E0DC2FCC27CC27DF7129
:100F4000D062EACE8C2F8F700E94F90534E0D695DE
:100F5000C7953A95E1F7CF709C2FEC01D069DCCEB4
:100F6000C9E3D0E0D9CEC2EED0E0D6CEC6EED0E016
:100F7000D3CE8091EE01882331F01092EE011092D1
:100F8000ED011092EC01089580959091EB0198236A
:100F90009093EB0108951092E2011092E1011092FA
:100FA000E00108958091DF0181111092DF01089521
:100FB000EAE7F1E09191891303C0DF0111971C92D8
:100FC00091E0E038F907B1F70895AAE7B1E0EFEF53
:100FD00090E02D91821751F0EF3F19F4211101C0DB
:100FE000E92F9F5F9630A9F7EF3F09F408950E2E81
:100FF000000CFF0BE858FE4F828308958091DE01BC
:1010000090919D01981301C008958F5F8770FACF6A
:101010009E3F51F1292F220FE22FE90FEE0FE80F2B
:101020009E2F9770E695E695E69583E0E89FF001A0
:101030001124ED57FE4F50E040E080E0219130E078
:10104000092E02C0369527950A94E2F721703327BE
:10105000042E01C0220F0A94EAF7822B4F5F5F4FE4
:101060004330510559F7089580E008959E3F71F18E
:10107000292F220FE22FE90FEE0FE80F8E2F877036
:1010800041E001C0440F8A95EAF7E695E695E695BA
:1010900083E0E89FF0011124ED57FE4F30E020E09F
:1010A00070E05191DF011197CB01022E02C096959D
:1010B00087950A94E2F78170819585278423852797
:1010C0008C932F5F3F4F2330310559F708959C01D2
:1010D0003A9521153F4150F5FC01EE27F170BC0116
:1010E00066277270AC01442754709C012227387027
:1010F00094FF0EC080E1EF2B09F480E0672B09F02C
:101100008062452B09F08064232B89F08068089564
:1011100081E0EF2B09F480E0672B09F08260452B1A
:1011200009F08460232B19F08860089580E0089509
:101130008093BD037093BF036093BE038091D60379
:101140008430F9F48093E9008FEF9091E8008150AA
:1011500095FD06C095ED9A95F1F700008111F5CF48
:101160008091E80085FF0DC050E040E063E070E052
:101170008DEB93E00E9459038091E8008E77809375
:10118000E8000895BC0184E00C949808BC0183E059
:101190000C949808CF93DF93EC0181E08093E900F1
:1011A0008FEF9091E800815095FD06C095ED9A95DE
:1011B000F1F700008111F5CF8091E80085FF14C0A0
:1011C00050E040E068E070E0CE010E945903809159
:1011D000E8008E778093E80088E0FE01A3ECB3E09E
:1011E00001900D928A95E1F7DF91CF910895CF9309
:1011F000DF93C7E5D2E060E0CE010E946C29219622
:10120000C11584E0D807B9F7DF91CF9108951F93F6
:10121000CF93DF93122F8430D8F4611119C042307C
:10122000B8F494E0899FE001112450E0440F551F69
:10123000C40FD51FC955DE4F632FCE010E946C2904
:10124000612FCE010196DF91CF911F910C946C29F3
:10125000DF91CF911F9108950F931F93CF93DF9349
:101260008901843048F5683038F5463028F5211575
:101270003C4531F42091F0023091F102232BE1F052
:10128000C42FD0E0CC0FDD1F9CE0699FC00DD11DA5
:10129000112490E6899FC00DD11D1124612FCE012C
:1012A00087960E946C29602FCE018896DF91CF919E
:1012B0001F910F910C946C29DF91CF911F910F9189
:1012C0000895CF93C82F6FEF81116FED83E290E007
:1012D0000E946C296FEFC11163E284E290E00E94EA
:1012E0006C296FEFC11163E685E290E0CF910C9419
:1012F0006C295F926F927F928F929F92AF92BF9272
:10130000CF92DF92EF92FF920F931F93CF93DF93D1
:10131000CDB7DEB764970FB6F894DEBF0FBECDBF72
:10132000C090F002D090F10281E090E09093F10241
:101330008093F00288E9E82E83E0F82E98EAA92E3F
:1013400093E0B92E10E0450100E015C0F3012591AE
:101350003491452D602F812F0E942C0982E0680E68
:10136000711C539496E05912F1CFECE08E0E911C53
:101370000F5F083019F03401512CE8CFF7012591A7
:10138000349140E060E0812F0E940709F701329616
:101390002591349141E060E0812F0E940709F4E03B
:1013A000EF0EF11C1F5F80E6A80EB11C143009F08F
:1013B000CACFFE0131967F018AE011928A95E9F742
:1013C00007EB11E04AE050E0B801C7010E94902904
:1013D000065F1F4F0730F2E01F07A1F77E018BE089
:1013E000E80EF11C8AE0F70111928A95E9F78FEF78
:1013F0009FEF988B8F8787E08C8B4AE050E0B80195
:10140000C7010E949029065F1F4F0735F2E01F07B2
:10141000A1F7D092F102C092F00264960FB6F89450
:10142000DEBF0FBECDBFDF91CF911F910F91FF9017
:10143000EF90DF90CF90BF90AF909F908F907F9074
:101440006F905F90089580E00E94610960E086E2FD
:1014500090E00E946C290E9479090E94F70881E0BF
:101460000C9461090F931F93CF93DF93843000F5A1
:1014700061111EC024E0829F8001112450E0440FBE
:10148000551F040F151F09551E4FC8010E945E29E4
:10149000C82FD0E0DC2FCC27C80101960E945E291E
:1014A0009E01282BC901DF91CF911F910F910895C3
:1014B00090E080E0F8CF0F931F93CF93DF938430B9
:1014C00030F5683020F5463010F5C42FD0E0CC0F51
:1014D000DD1F2CE0629FC00DD11D112430E6839FDB
:1014E000C00DD11D1124CE0187960E945E29082FC0
:1014F00010E0102F0027CE0188960E945E299801E7
:10150000282BC901DF91CF911F910F91089590E091
:1015100080E0F8CF462F2091F4023091F502232B82
:1015200091F47E3F39F46E3F71F48091F202909114
:10153000F3020895843038F4783028F4663018F4D3
:10154000672F0C945B0A90E080E00895CF92DF92C1
:10155000FF920F931F93CF93DF936C010091D803F9
:101560008091D703082BC7E0D0E010E0FC2EC80123
:101570000C2E02C0959587950A94E2F780FD0CC069
:101580002197A0F7F12C8F2DDF91CF911F910F9113
:10159000FF90DF90CF900895B6018C2F0E948A0AA9
:1015A0000E943C06019761F3EECFCF93DF93EC01ED
:1015B0000E94A60ABE010E948A0ADF91CF910C9474
:1015C0003C06FC0186819781009791F00E943C06C1
:1015D00092959F709630B9F080F4925F9F70923030
:1015E00080F4803F19F058F4883E58F481E0089563
:1015F000808191810E94D50AEBCF9A5FEFCF843F23
:10160000A9F380E00895883E88F3813FD1F7EECFBB
:101610001F93CF93DF9300D000D00F92CDB7DEB7EA
:10162000FC01268137812115310541F525E0DE01D8
:10163000119601900D922A95E1F7FC012281898192
:101640009A812223B9F06623A9F00E94A60A182FD6
:10165000682F89819A810E94360869817A81812F59
:101660000F900F900F900F900F90DF91CF911F91DF
:101670000C948A0A0E940808182FEFCFC9010F9016
:101680000F900F900F900F90DF91CF911F910895C1
:1016900083E290E00E945E298F3D89F484E290E02D
:1016A0000E945E29833259F485E290E00E945E290F
:1016B00091E0833609F090E0892F8170089580E0F1
:1016C000FCCFCF9384E090E00E945E29C82F82E295
:1016D00090E00E945E29982F8C2FCF9108958F92D1
:1016E0009F92AF92BF92CF92DF92EF92FF920F93B1
:1016F0001F93CF93DF93CDB7DEB72A970FB6F89439
:10170000DEBF0FBECDBF08E712E086E6C82E82E03E
:10171000D82E97E0E92E92E0F92E27E0922E35E6BA
:10172000A32E32E0B32E88248394D6010D931D930B
:101730006D014AE050E0B701CE0101960E944E29AA
:10174000F8013896DF01892D1D928A95E9F7898184
:101750009A81D80111969C938E938F8112968C93C7
:1017600012978D8113968C931397888514968C937A
:101770001497898515968C9315978B819C81179664
:101780009C938E93169718961C9218978A8587FFBC
:101790004BC01E961C921E921D9780FF03C0D8015D
:1017A00018968C9281FF04C0F80190859260908712
:1017B00082FF07C0D80118969C91189794601896DC
:1017C0009C9383FF04C0F80190859860908784FF04
:1017D00007C0D80118969C911897906118969C9311
:1017E00085FF04C0F801808580628087015F1F4FFC
:1017F000FAE0EF0EF11C87E5E81682E0F80609F042
:1018000094CF2A960FB6F894DEBF0FBECDBFDF91FE
:10181000CF911F910F91FF90EF90DF90CF90BF90ED
:10182000AF909F908F900895F801B686A586B5CFAA
:10183000CF92DF92EF92FF920F931F93CF93DF939C
:10184000CDB7DEB72A970FB6F894DEBF0FBECDBF77
:10185000E5E1F2E080E5DF011D928A95E9F7EBE52D
:10186000F3E088E3DF011D928A95E9F785E1C82E50
:1018700082E0D82E7F0107EB11E0F701D182C08210
:101880004AE050E0B801CE0101960E944E2988E05E
:10189000FE013196D60101900D928A95E1F7898576
:1018A0009A85D70113969C938E931297BAE0CB0E2C
:1018B000D11CE7E0EE0EF11C065F1F4F0730F2E08F
:1018C0001F07D9F62A960FB6F894DEBF0FBECDBF1C
:1018D000DF91CF911F910F91FF90EF90DF90CF900C
:1018E00008958F929F92BF92CF92DF92EF92FF92D4
:1018F0000F931F93CF93DF93CDB7DEB728970FB623
:10190000F894DEBF0FBECDBF8E010F5F1F4F88E082
:10191000F80111928A95E9F798E4E92E91E0F92E01
:10192000BB24B394CC24C394D12CF70181917F01C3
:101930008F3F09F449C0F894E82FE295EF70F0E08A
:1019400021A18F70A60102C0440F551F8A95E2F7AE
:10195000CA01922F982B91A392A18095892382A3EB
:10196000789400C08EE4882E81E0982ED8016B2DEB
:101970006095F40191914F018D919D0121503109A4
:101980009F3F09F45DC0492F42954F7050E0FA0126
:1019900040A150E09F7002C0559547959A95E2F797
:1019A00040FD4EC08B29F9018083F6E58F16F1E0EA
:1019B0009F06F9F6F701319780818F3F11F00E9461
:1019C000E20540EA4A95F1F7BB0C5EE4E51651E00A
:1019D000F50609F0AACF48E050E0B80182EF91E0A7
:1019E0000E943A29FF24F394009709F4F12C892BE3
:1019F00049F188E0F801A2EFB1E001900D928A95DB
:101A0000E1F781E08093F1010E94EC049093F001F2
:101A10008093EF018091EF019091F0010E94D10439
:101A20000597A0F0E2EFF1E0ADE0B2E08AEF91E0DF
:101A300021912D938E179F07D9F71092F10106C0BF
:101A40008623B1CF8091F1018111E4CF8F2D2896AB
:101A50000FB6F894DEBF0FBECDBFDF91CF911F91BF
:101A60000F91FF90EF90DF90CF90BF909F908F905D
:101A700008958091EB019091F802892B8093780171
:101A80008091EE01882319F10E94EC042091EC0171
:101A90003091ED01821B930B8838934110F00E9426
:101AA000B907809178019091EE01892B809378019C
:101AB00020E08AE791E0FC013191CF0131112F5FE5
:101AC000F1E080389F07B9F721110E94B907809192
:101AD000AB0380959091780189239091AC03892B79
:101AE0008093780148E050E063EE71E088E791E090
:101AF0000E943A29892BA9F088E0E8E7F1E0A3EEFB
:101B0000B1E001900D928A95E1F7E091B403F09174
:101B1000B503309731F00280F381E02D88E791E042
:101B20000994089590E080E00E940E0590E080E026
:101B30000E94F8041092F8020C94390D8093D80397
:101B40000C94920D8091D803982F9670963019F4CA
:101B500088600C949E0D877FFCCF21E030E001C0AF
:101B6000220F8A95EAF720958091D80382230C945E
:101B70009E0D9091E201809589238093E201282FA8
:101B8000277091F4282F082E000C330B92171306A0
:101B900059F09091FB0192FD07C08595859585953B
:101BA0000E94AD0D0C94CB070895CF93C091FB011B
:101BB000C2FB992790F9981799F080FBC2F9C0935E
:101BC000FB016091FA0184E090E00E946C296C2F87
:101BD00082E290E00E946C2982E0CF910C94B90DD2
:101BE000CF91089521E030E001C0220F8A95EAF7F5
:101BF0008091D803822B0C949E0D9091FB0192FD55
:101C000010C098E0899F90011124622B6093E2013B
:101C10000E94F20D0E94EC049093E1018093E00198
:101C200008950C94F20D8093D7030C94920D1092AA
:101C3000EB01EAE7F1E086E0DF011D928A95E9F722
:101C40000C94920D1F93CF93DF93CDB7DEB7AA9775
:101C50000FB6F894DEBF0FBECDBF8EEC93E020919F
:101C6000F100DC012D93CD01B3E0863D9B07B9F770
:101C70008091CF03833009F472C0B8F4813009F445
:101C800049C0823009F4B3C08091E80083FF96C256
:101C90008091CE039091CF039A3008F08FC2E92F44
:101CA000F0E0E655F64D0C9410298A3009F48EC008
:101CB0008B3009F471C0893039F78091CE038132BD
:101CC00019F78091D2039091D303009711F00297F6
:101CD000D9F68091E800877F8093E8008091E80042
:101CE00082FF38C09091F3008091F200029731F4A6
:101CF0008091F100813011F0863021F48091F10063
:101D00008093C2038091E8008B778093E8000E9463
:101D1000AB03BACF8091CE03813A09F0B5CF809161
:101D2000E800877F8093E8008091D2039091D303ED
:101D3000892B61F468E083EC93E070E00E945D041D
:101D40008091E8008B778093E8009ECF60E090E080
:101D500080E0F3CF8091D6038111C0CF95CF8091E1
:101D6000CE03813A09F090CF8091D2039091D303B2
:101D7000892B09F089CF8091E800877F8093E80064
:101D80008091E80080FFFCCF80910E018093F100EC
:101D90008091E8008E77B9CF8091CE03813209F02F
:101DA00073CF8091D2039091D303892B09F06CCF2C
:101DB0008091E800877F8093E8000E94AB038091C8
:101DC000D00380930E010E94170E5ECF8091CE0348
:101DD000813209F059CF8091E800877F8093E80035
:101DE0000E94AB038091D1038093C1034DCF8091BA
:101DF000CE03813A09F048CF8091E800877F809335
:101E0000E8008091E80080FFFCCF8091C103BECF45
:101E1000803899F0823809F0D1C18091D2038F7057
:101E2000873008F0CBC18093E9008091EB0085FBFF
:101E3000882780F91092E90006C08091CB03909129
:101E4000CC03911182609091E800977F9093E80015
:101E50008093F1001092F1008091E8008E77AAC182
:101E6000882309F498C1823009F0A8C18091D00379
:101E700081119BC18091D2038F702FEF280F2630E4
:101E800008F09CC18093E9002091EB0020FF8DC1F8
:101E9000933031F48091EB0080628093EB0085C138
:101EA0009091EB0090619093EB0021E030E001C055
:101EB000220F8A95EAF72093EA001092EA008091B7
:101EC000EB008860EACF811179C11091D0031F77B0
:101ED0008091E3008078812B8093E3008091E8007B
:101EE000877F8093E8000E94AB038091E80080FF29
:101EF000FCCF8091E30080688093E30082E01111C1
:101F000083E08093D6035AC18058823008F056C1CE
:101F10002091D0033091D1032C3DE3E03E07A1F5A1
:101F200083E08A838AE289834FB7F894DE011396AF
:101F300020E03EE051E2E32FF0E050935700E491BF
:101F400020FF03C0E295EF703F5FEF708E2F90E0AF
:101F5000EA30C0F0C7968D939D932F5F243159F7D7
:101F60004FBF8091E800877F8093E8006AE270E0CD
:101F7000CE0101960E945D048091E8008B778093EA
:101F8000E8001CC1C096E7CF8091D2039091D303A3
:101F9000432F55274330510509F44AC078F54130A5
:101FA000510509F485C08BE590E0E8E2F5E04230A8
:101FB000510509F003C12091E800277F2093E80034
:101FC0002091D4033091D5038217930708F49C0124
:101FD00040E02115310509F070C041116EC08091BB
:101FE000E80082FDC9CF8091D603882329F285308D
:101FF00019F28091E80083FFF2CFBECF4132510544
:1020000009F447C04232510509F0D8C08330910528
:1020100008F0D4C0FC01EE0FFF1FE759FE4F0190FE
:10202000F081E02D8A599E4FDC018C9190E01DC01B
:10203000332721303105E9F02115310579F02230BF
:102040003105F9F02330310509F0B8C0E5E9F5E0D4
:10205000E4918E2F90E0E5E9F5E007C0EFECF5E0C4
:10206000E4918E2F90E0EFECF5E0009709F4A6C024
:10207000A2CFEFEBF5E0E4918E2F90E0EFEBF5E0EF
:10208000F4CFE3EBF5E0E4918E2F90E0E3EBF5E0A5
:10209000ECCF8330910508F091C0880F991FFC01A7
:1020A000E159FE4F0190F081E02D89E090E083CF6F
:1020B00082E190E0E3E8F5E07ECF8091D6038823CB
:1020C00009F45ACF853009F457CF8091E80083FD99
:1020D00053CF8091E80082FD82CF8091E80080FF9D
:1020E00078CF9091F3008091F2002115310519F01D
:1020F0008830910550F041E0089709F040E0809168
:10210000E8008E778093E80064CF44914093F1001B
:102110003196215031090196E8CF803809F04EC040
:102120008091E800877F8093E8008091CD038093C1
:10213000F10092CE811142C01091D0031230F0F51F
:102140008091E800877F8093E8001093CD030E9480
:10215000AB03112311F084E005C08091E30087FDFB
:10216000FACF81E08093D60342E061EC81E00E94E7
:10217000CA0342E261EC84E00E94CA0342E261ECDD
:1021800082E00E94CA0342E260EC83E00E94CA033C
:102190008091D60313C08091D003813079F481E01F
:1021A000933009F080E08093CC031092E900809195
:1021B000E800877F8093E8000E94AB038091E800ED
:1021C00083FF0AC08091E800877F8093E8008091B8
:1021D000EB0080628093EB00AA960FB6F894DEBF06
:1021E0000FBECDBFDF91CF911F910895882341F09D
:1021F00080959091F80289238093F8020C94390D10
:102200000895882339F09091F802982B9093F80262
:102210000C94390D0895882321F00E94C4070C9472
:10222000390D0895882339F09091EB01982B909304
:10223000EB010C94390D0895882309F44BC08238C2
:1022400071F40E94240581FF45C089E30E94E507DF
:102250000E94390D89E30E94D8070C94390D833808
:1022600059F40E94240580FF35C083E50E94E507EC
:102270000E94390D83E5EFCF843859F40E9424057C
:1022800082FF28C087E40E94E5070E94390D87E499
:10229000E2CF9CEF980F913AF0F290E2980F9830CD
:1022A00050F4877091E001C0990F8A95EAF7892F61
:1022B0000E94C407D2CF9BE5980F933020F490E0A2
:1022C00080E00C940E05885A873120F490E080E07D
:1022D0000C94F8040895FF920F931F93CF93DF930C
:1022E000F82E0091B0031091B1030115110509F406
:1022F00049C01092AF031092AE031092AB0310923C
:10230000AC03D8011696CD91DC919E013A9521152A
:102310003F4108F4D07ED1E0C11101C0D0E0D80126
:102320001996ED91FC911A97309731F01B966D91AB
:102330007C9180E00995D823DD2339F08CEF8C0F58
:10234000813A38F58C2F0E94D807FF2099F0E09150
:10235000B003F091B103808584FD0CC08091AD0382
:10236000882341F0808191819C0121503109253AD7
:102370003D45A8F00E94390D1092B1031092B003B0
:102380001092AD03C801DF91CF911F910F91FF9083
:1023900008950E94390D8C2F0E941C11D6CF0E94E7
:1023A0003005E8CFCF93C82F882309F488C082383E
:1023B000C1F40E94240581FD82C089E30E94E507E3
:1023C0000E94390D2FEF81EE94E021508040904023
:1023D000E1F700C0000089E30E94D807CF910C9478
:1023E000390D8338A1F40E94240580FD68C083E57F
:1023F0000E94E5070E94390D2FEF81EE94E02150F5
:1024000080409040E1F700C0000083E5E5CF8438CC
:10241000A1F40E94240582FD52C087E40E94E507D2
:102420000E94390D2FEF81EE94E0215080409040C2
:10243000E1F700C0000087E4CFCF8CEF8C0F813A2A
:1024400068F4EAE7F1E08191C81799F121E0E038FA
:10245000F207C9F78C2F0E94E507C0CF80E28C0FEE
:10246000883068F4C77021E030E001C0220FCA95BF
:10247000EAF78091EB01822B8093EB01AFCFEBE584
:10248000EC0FE33040F4F0E0E95EFE4F808190E035
:10249000CF910C940E05C85AC73188F4EC2FF0E0A8
:1024A000EE0FFF1FE65EFE4F80819181CF910C946D
:1024B000F8048C2F0E94D8070E94390DCBCFCF9102
:1024C00008951F93CF93DF93182FD0E0C0E0893396
:1024D00011F4C0E5D0E0812F0E94D211209731F491
:1024E000812FDF91CF911F910C941C118FE99FE0F8
:1024F0000197F1F700C000002197F0CF0F931F93D1
:10250000CF93DF93C62FD42F022FFC018281882323
:10251000A1F06093DB030E94EC049093DA038093B4
:10252000D903C77081E001C0880FCA95EAF7DF912F
:10253000CF911F910F910C9412118091DB036813BE
:1025400035C08091D9039091DA030E94D104883C70
:10255000910560F510E21D0FCD17B9F080E28C0FE8
:10256000883040F4C77081E001C0880FCA95EAF74F
:102570000E940B11183048F481E09D2F977001C024
:10258000880F9A95EAF70E941211802F0E9461121B
:10259000183098F4D77081E001C0880FDA95EAF717
:1025A000DF91CF911F910F910C940B11C77081E0B7
:1025B00001C0880FCA95EAF7F3CFDF91CF911F9141
:1025C0000F910895AF92BF92CF92DF92EF92FF9258
:1025D0000F931F93CF93DF93EC018AE0A82E2881FD
:1025E000222309F48CC02130C9F599818A81913068
:1025F00021F422960E94611205C0923029F422969D
:102600000E94D2112196EBCF933021F422960E94A2
:102610001C11F8CF943011F02196F4CF229630E0BF
:1026200020E0AE014F5F5F4F8053990B8A309105D8
:1026300050F02150310930F38FE99FE00197F1F715
:1026400000C00000F6CFA29EB001A39E700D112421
:102650009C01260F371F8981EA01E3CFE22FF0E0CA
:10266000E059FE4FB490822F86958695869590E02E
:10267000FC01E05AFE4FE4902770F12C022E02C0BC
:10268000F594E7940A94E2F731E0E322FF24FC0199
:10269000E05BFE4FC490D12C022E02C0D594C794AB
:1026A0000A94E2F731E0C322DD24FC01E05CFE4F36
:1026B000049110E002C0159507952A95E2F7017084
:1026C0001127E114F10419F081EE0E94D211C11416
:1026D000D10419F086EE0E94D2118B2D0E94611256
:1026E000CD2819F086EE0E941C11EF2819F081EE1A
:1026F0000E941C11012B09F485CF8CE27BCFDF9166
:10270000CF911F910F91FF90EF90DF90CF90BF90EE
:10271000AF900895CF93DF93EC010E9467089E016C
:10272000205E31092830310510F0209739F40E94DD
:1027300012118C2FDF91CF910C94D2110E940111B4
:10274000F8CF69EE7EEF90E080E00E948A2960E099
:1027500082E090E00E946C2960E083E090E00E94BB
:102760006C291092D70360E084E090E00E946C290D
:1027700060E082E290E00E946C2960E085E090E0F9
:102780000E946C2960E086E090E00E946C296FEF67
:1027900087E090E00E946C2940E050E0BA0188E0B8
:1027A00090E00E947E2960E08DE090E00E946C291C
:1027B00040E050E0BA0188E190E00E947E2960E0AC
:1027C00087E190E00E946C2940E050E0BA018CE182
:1027D00090E00E947E2970E060E080E290E00E943C
:1027E0008A2940E050E0BA0188E190E00E947E2909
:1027F00080E00E9461090E94230A40E050E0BA0193
:102800008FE090E00E947E2940E050E0BA0183E131
:1028100090E00C947E292F923F924F925F926F929C
:102820007F928F929F92AF92BF92CF92DF92EF9260
:10283000FF920F931F93CF93DF9300D000D000D06F
:102840000F92CDB7DEB77C01DC0113968D919C9180
:102850001497892B39F08C9111969C9189238F3F85
:1028600009F059C527960FB6F894DEBF0FBECDBF4D
:10287000DF91CF911F910F91FF90EF90DF90CF905C
:10288000BF90AF909F908F907F906F905F904F9090
:102890003F902F900895C80182519F45409708F0BE
:1028A00018C58FEF93E00E945E296EEED62ED00EF3
:1028B00007E512E08823E1F08091E201877091F250
:1028C000F7018281882371F28091FB0182FDCACFDA
:1028D00082E00E94B90DC6CF0115B4E01B0761F379
:1028E000C8010E945E29811101C0DA940F5F1F4F59
:1028F000D110F2CF19821A821B821C8299249A94D9
:102900006801EFEFCE1ADE0AC8010E945E298983B2
:102910001A82882389F2813009F074C05801F2E0EC
:10292000AF0EB11CC6010E945E29C82E8A8388237F
:1029300019F2C5010E945E29D82E8FEF8C0D8330CD
:1029400068F4580123E0A20EB11CDB82DD2021F0E7
:10295000CE0101960E94E2128501D2CF8BEF8C0D41
:10296000833040F5C8010396DB825C01DD20A1F3D2
:10297000580134E0A30EB11C0E945E298C83882389
:1029800059F30B811C8101304FEF140710F0102F09
:10299000002756E0C51651F087E0C81619F0C801A7
:1029A0000E941621C8010E94C720D6CFC8010E94EC
:1029B0001621D2CF94E0C912CFCF5801A4E0AA0EBD
:1029C000B11CC80103960E945E29DD2009F474CF72
:1029D000882309F471CF8150990B989E9001999E9C
:1029E000300D1124ED2DE150FF0BCF01820F931F0D
:1029F000019708F4B1CFAFE9BFE01197F1F700C03C
:102A00000000F6CFCE0101960E94E2125601A4CF3B
:102A100081E00E94F20D0E94A20D4ECF81E00E9443
:102A2000AD0DF9CF82E0F5CF82E0F9CF81E0809360
:102A3000000142CF80954822A5C4552009F4CFC398
:102A400010938101009380010E94E0046093A7032A
:102A50007093A8038093A9039093AA031092AF03E5
:102A60001092AE038FC482FB882780F9CEC4552014
:102A7000F1F08170CAC40E941C1128C50497813AE4
:102A8000910548F48A2D0E94E507552009F48EC36C
:102A90000E94390D11CF0E94390D8FE39CE90197F7
:102AA000F1F700C000008A2D0E94D211EECF9D8167
:102AB0009F5F9D837FC4FC01208131810217130732
:102AC00009F06DC351106DC31092AD0380E00E94F8
:102AD0006B116CC3053F4CE51407C9F0A0F027E269
:102AE00045EE66EE063F8CE5180709F0A2C3C70164
:102AF0000E947E12E1CE27E245EE65EEF8CF26E297
:102B000041EE60EEF4CF27E245EE64EEF0CF26E230
:102B100041EE62EEECCF28E241E0EFCF0136FDE579
:102B20001F0709F49DC3053A2DE5120709F498C360
:102B300006318CE5180709F0FDC48091EB018A7A13
:102B400091E009F490E0909382018111EEC089E256
:102B50000E94E5079DCF8091FA01806207302CE545
:102B6000120709F497C08091FA01806108301C4572
:102B700008F490C08091FA0180648CC08091FA01C1
:102B80008B7F0D304CE5140709F484C080F40B30C2
:102B90008CE5180709F493C08091FA018C600C3021
:102BA0001C4508F477C08091FA018D7F73C0809135
:102BB000FA018F7E0F30ACE51A0709F46BC08091E3
:102BC000FA01877F00311C4508F464C08091FA0146
:102BD0008F7D60C00D3FECE51E0709F478C050F50D
:102BE00005312CE5120709F480C098F48091FA01B0
:102BF000837F03314CE5140709F44CC008F46FC01F
:102C00000E94170E9091FA01892F97FB87F980583F
:102C100041C00B3F8CE5180709F447C008F053C0CA
:102C20008091FB0181600A3F1C4509F042C38093FB
:102C3000FB013FC30130BDE51B0709F462C0B8F4D6
:102C40008091FB018C7F0F3FFCE51F0781F3809192
:102C5000FB01836001151D4550F38091FB01982F06
:102C6000909591708E7F892B90FB81F9E0CF013692
:102C70003DE5130709F44BC0053A4DE5140709F487
:102C80004DC002301D4509F014C360E03BC0809187
:102C9000FA0182608093FA010CC38091FA0184608A
:102CA000F9CF8091FA018860F5CF8091FB018260B5
:102CB000BECF0E94170E8091FA018068EBCF809101
:102CC000FA018E7FE7CF8091FB018E7FB0CF80919C
:102CD000FB018D7FACCF8091FA018F7BDBCF0E940F
:102CE000170E8091FA018F77D5CF8091FA0182FB80
:102CF000992790F921E0922790FB82F990FB83F9C4
:102D0000C9CF61E08EE090E00E946C29D2C2909120
:102D1000FA01892F8F7E94FF8061BCCF9091FA01D8
:102D2000892F8E7F90FF8160B5CF85E311CF85E33A
:102D3000A6C30E94170E9FEFA4E3BCE09150A040F1
:102D4000B040E1F700C000000E94C00481E012C45E
:102D500080E010C4F701828100811181882369F02D
:102D6000C8010E94A60AD82E682FC8010E94360802
:102D7000B8018D2D0E948A0A06C4C8010E94080865
:102D8000D82EF6CFE12FEF70DE2E107F19F0D294FF
:102D900090EFD922CC20B9F0DD2069F080E2800FDD
:102DA000883010F0011109C08091EB01D82AD0922F
:102DB000EB010E94390D802F4DC08091F802D82A76
:102DC000D092F802F6CF802F0E941C11DD2009F46A
:102DD00043C080E2800F883010F0011104C08D2DB7
:102DE0000E94C40706C0D0948091F802D822D092E5
:102DF000F8020E94390D30C0F12FFF70DF2E107FD6
:102E0000103219F0D29480EFD822002399F00130CB
:102E100009F48DC0CC2009F496C0BB2009F46BC026
:102E2000D70115968C91159780FFC5CF8F70159699
:102E30008C9361C08091FB0182FF38C0CC2081F16E
:102E4000DD2039F08091EB01D82AD092EB010E946D
:102E5000390D80E00E94D211E92DE850FF0B349724
:102E600010F40E942405AA20B1F08091E20180FDB7
:102E700012C0D70112961C928595859585950E9462
:102E8000F20DC7010E940B148091E2018595859592
:102E900085950E94AD0D60E0C7010E94080BE2CC51
:102EA00080E00E941C11DD20B9F299CFCC2039F1CD
:102EB000B11004C08091EE018D291EC021E0B21234
:102EC00010C082FDC9CF8091EE01D82AD81621F218
:102ED0000E94EC049093ED018093EC01D092EE01FE
:102EE000BBCF35E0B312E6CF0E94B9078091DF0176
:102EF000D812D092DF018D2D0E941211ADCFB110EA
:102F000006C00E94B9078D2D0E940B11A5CF41E08C
:102F1000B41208C08091EB018D2109F49DCF0E946D
:102F2000D207EFCF55E0B51609F496CFEACFCC2003
:102F300029F085E08B1508F48FCFDDCF94E09B1549
:102F400008F48ACFE0CFBB20F1F2093349F4BFEF98
:102F5000E7EEF3E0B150E040F040E1F700C00000E0
:102F6000802F0E941C1178CF812F869586958370C3
:102F700061F0813009F070CFC8019370C11002C0B8
:102F800090E080E00E94F80467CFC8019370C11000
:102F900002C090E080E00E940E055ECF812F83701A
:102FA00089F5C11059CF402F429546954770440F7F
:102FB000440F802F8F70042E01C0880F0A94EAF707
:102FC000202F207104FF07C02FE030E001C0220F46
:102FD0004A95EAF72095169516951370123069F008
:102FE00050F43091D703113029F0822B83230E94B3
:102FF000130E32CF832B822BFACF282B8091D7034D
:103000008227F5CF8695CC2011F0812F81708823FF
:1030100009F422CF402F429546954770440F440F44
:10302000802F8F70042E01C0880F0A94EAF7202F9A
:10303000207104FF07C02FE030E001C0220F4A9545
:10304000EAF72095169516951370123069F050F432
:103050003091D803113029F0822B83230E949E0DDA
:10306000FBCE832B822BFACF282B8091D80382278B
:10307000F5CF1F70CC2029F0812F0E94F20D802FF8
:103080003BCF802F0E940B11812F0E94AD0DE4CE0B
:10309000023F81F160F4003FB9F0013F81F0CC20A4
:1030A00009F46DC0B11087CE812F8F7127C0033F07
:1030B00041F1043FA1F78091FB0182FF2DC0812FD8
:1030C0008F71CC2011F31AC0CC2079F024E02B159D
:1030D00008F4C2CE1F7181E090E001C0880F1A95FC
:1030E000EAF79091D8038927B9CF35E03B1508F46A
:1030F000B3CEF0CF812F8F71C110C7CF0E94F20DD8
:10310000ABCE80E0CC2009F4A9CF1F7181E001C0D3
:10311000880F1A95EAF7A2CF8091DF01CC20D9F071
:103120000E94C4078091E2018770843041F40E94BC
:10313000CB07812F8F710E94AD0DA12C8DCE44E065
:103140004B15D8F31F71812F0E94F20D63E0812F80
:103150000E94FD0DF2CF9091EB01982B9093EB0123
:1031600054E05B1540F40E94CB070E94D20764E054
:10317000812F8F71EDCF81E00E94B90DDECFBB2092
:1031800059F0093309F0ECCE8FEF97EEA3E08150B0
:103190009040A040E1F7E2CE812F8F7176CF55208D
:1031A00029F0DC0118968C9185FF90CC033FBCE59B
:1031B0001B0709F4A4CC08F08DCC083DFCE51F07E3
:1031C00009F499CC093D2CE5120709F4A4CC073D7C
:1031D0003CE5130771F526E241EE61EE88CC809163
:1031E0008001909181010817190781F410928101E3
:1031F000109280011092A7031092A8031092A903C5
:103200001092AA031092AF031092AE038091B00304
:103210009091B103009751F2A8E08A16910408F04A
:103220004ACC642D0E9481058111C0CF81E00E94AB
:103230006B11D70112968C91882309F417C1109253
:10324000DB030330BDE51B0708F068CC0A3FECE563
:103250001E0730F4C80182509C45449708F068CCA2
:103260000E94610B9093FB018093FA0101313CE5D0
:10327000130709F430CD08F0ADCC09305CE5150733
:1032800009F417CD08F07ACC05309CE5190709F44C
:1032900008CD08F060CC0330BCE51B0709F4F7CC7F
:1032A00008F0FBCC8091FA01816002301C4509F4E2
:1032B000F1CC6091FA011091FB0184E090E00E9452
:1032C0006C29612F82E290E00E946C290E94170E07
:1032D000F3CA0031FFE51F0709F49ACB01312FE54E
:1032E000120709F49FCB0F35EDE51E0709F49ECBBD
:1032F0000036FDE51F0749F00E352DE51207F9F4FC
:1033000080910001882309F491CB1092000180E0A4
:103310000E946B11D1CA61E0C7010E94080B8C01A9
:10332000D70112965C905110B6CA00313FE51307E1
:1033300009F474CB01314FE5140709F475CB809182
:103340000001882309F432CF480130EE831A910836
:103350004090EE018091DF01482A8091EB01482ADC
:1033600048E08416910408F068CB98012770332751
:1033700081E090E001C0880F2A95EAF7552009F412
:1033800059CB482AD7018D919C910E94080821E0D1
:1033900030E0190102C0220C331C8A95E2F7E0915B
:1033A000B003F091B103FF83EE83609080017090D1
:1033B00081011D822D81E22FF0E0EE0FFF1FEA59FF
:1033C000FD4FC080D180C114D10409F41FCF41103A
:1033D00005C0D60112968C91811169CBF6018381CB
:1033E00090E082219321892B09F461CB8085982F6D
:1033F000977009F487E0F8E08F16910408F037CB56
:10340000552009F430CB86958170882309F44FCB81
:10341000D601AD90BC900A151B0519F4552009F48E
:1034200046CBEE81FF81CE16DF0609F440CBD601F4
:103430001D96ED91FC91309721F08081882309F44D
:1034400036CB642DC6010E948105882309F42FCB59
:103450000A151B05B9F401151105C1F0511018C06A
:10346000A614B70409F023CB512C12C006311C4519
:1034700009F082C080918201811159CC89E20E94B9
:10348000D80706CBA114B10459F7512CB12CA12CAB
:1034900080E00E946B11D092B103C092B00381E032
:1034A0008093AD03F60185818093AB0351100EC06C
:1034B000AB2861F0F601808191819C012450310993
:1034C000213A310508F0D7CA0E94D807D6011696CE
:1034D000AD90BC90C5019A9581159F4110F4E0EE26
:1034E000BE2277247394C5010197853A9D4508F063
:1034F000712CD6011996ED91FC911A97309731F005
:103500001B966D917C9181E009957822772079F066
:10351000F601868197810E9467088093AC03C501FC
:10352000F8E08F16910408F0A9CA0E9430050E94A5
:10353000390DABCA0A35EDE51E0709F407CC58F47E
:1035400001152CE5120709F4F4CB0E3D1C45A1F43E
:103550000E94A113B1C90B354DE5140709F4F8CB4E
:103560000C351D4549F48091FB0182FB882780F9C9
:1035700091E089270E94D50DD70116968D919C91D7
:10358000009709F4E7CB0E943C068C01D701129604
:10359000CC9012971596BC90B2943FE0B3228091E4
:1035A000E2018770C1F0AC2CCC20B1F0812F807F7C
:1035B000803421F080E2800F883068F08091FB0138
:1035C00082FD09C082E00E94B90D8091E2018770FE
:1035D000AA24A3948111A12C912E92942FE09222DF
:1035E000BBE0B91508F438CCE92DF0E0EC54F64D09
:1035F0000C941029CF93DF9380919A01807FA1F4DE
:1036000080919701882381F08091DE01D0919D0106
:103610006091950170919601A0919801B0919901E6
:10362000C62FC723D81303C0DF91CF91089590E030
:10363000109711F0CF3F19F401968770F3CF9C01DA
:1036400043E0220F331F4A95E1F7F901E256FE4F9E
:1036500041814713F1CF40814613EECF42814111A2
:10366000EBCF438154814A1B5B0B483C510520F74B
:1036700080919A018F70806180939A01F901ED55D4
:10368000FE4F80818F708061808385E991E00E9488
:103690000B14DF91CF910C94FE07AF92BF92CF92A3
:1036A000DF92EF92FF920F931F93CF93DF93CDB7EB
:1036B000DEB765970FB6F894DEBF0FBECDBF8C01A5
:1036C00085E0F801DE01519601900D928A95E1F7AF
:1036D000F801E28065E9A62E61E0B62E60919801BE
:1036E000709199016115710509F468C19091950176
:1036F00040919601892F84238F3F09F45FC1208177
:103700003181C380D480F0909701F601E61BF70B5E
:10371000FF2009F41DC180919A01582F507FE83C89
:10372000F10508F0D0C0511181C0FE2C43132BC00D
:10373000921329C060919B0170919C01F801468110
:10374000578164177507F9F4E1101DC08F7080610F
:1037500080939A01C5010E940B1480919A01F8018F
:1037600085838F2D65960FB6F894DEBF0FBECDBF53
:10377000DF91CF911F910F91FF90EF90DF90CF904D
:10378000BF90AF900895CD2829F0822F83238F3FDB
:1037900009F02FC180E0F82FF170DF2E80FF3CC0D0
:1037A0008091DE0140919D01841315C0298B3A8BD5
:1037B00089899A890E94D50A292F22952F70223053
:1037C000F8F0243020F59F70F9F0F8019581907F92
:1037D000D9F4D12C1FC090E0FC0153E0EE0FFF1F85
:1037E0005A95E1F7E256FE4F5181351306C05081DC
:1037F000251303C05281E5120FC001968770D4CF04
:103800009F7011F0882329F3805E883010F3C8017F
:103810000E940B14FD2CA5CFEE2009F4A2CF8091BD
:103820009A01816080939A01F12C9BCF43131BC0B6
:10383000921319C040919B0150919C01F80126817F
:1038400037814217530779F4E1100DC08583C80111
:103850000E940B1488E0F801A5E9B1E001900D92F7
:103860008A95E1F77ECFC8010E94E10A882339F1E9
:10387000EE2029F180919A018032A0F020919501EB
:10388000309196013A8729871B86DD86CC868E8704
:1038900080919B0190919C01988B8F87CE01099616
:1038A0000E940B1488E0F801A5E9B1E001900D92A7
:1038B0008A95E1F70E94FA1AFF24F39452CFC801C7
:1038C0000E940B14F9CF51110AC085E991E00E94C2
:1038D0000B1488E0F50111928A95E9F7A5CF4313FF
:1038E00018C0921316C040919B0150919C01F801A1
:1038F000268137814217530761F4E1100AC085839E
:10390000C8010E940B1488E0F50111928A95E9F72D
:1039100028CFC8010E94E10A882389F2EE2079F2BB
:1039200080919A01803208F4BDCF209195013091A9
:1039300096013A8329831B82DD82CC828E8380911B
:103940009B0190919C0198878F83CE010196A8CF0F
:10395000E83CF105C0F6FE2CEE2009F4B0CF43138D
:103960001FC092131DC020919B0130919C01F80152
:10397000868197812817390799F490919A0190FDD3
:1039800069CF907F09F466CF80919A018583903F3B
:1039900009F45DCF982F907F905F8F70892B56CF61
:1039A000C8010E94E10A81117DCF80919A01816056
:1039B00080939A01C8010E940B14D3CEEE2009F423
:1039C0007ECFC8010E94E10AF82E882309F477CF40
:1039D00088E0F801A5E9B1E001900D928A95E1F740
:1039E00080919501909196010E94D50A0E94FA1A41
:1039F000B8CE81E08E25CFCECF93DF93CDB7DEB7A3
:103A000060970FB6F894DEBF0FBECDBF29873A8707
:103A10004B875C876D877E878F87988BCE01099651
:103A20000E944D1B811112C088E0FE013996DE0113
:103A3000119601900D928A95E1F78C859D85892BD1
:103A400029F089859A8589238F3FA9F58091DE0128
:103A500090919D0189131CC060960FB6F894DEBF4B
:103A60000FBECDBFDF91CF91089593E0AA0FBB1F8A
:103A70009A95E1F7A256BE4F98E0FE01319601906B
:103A80000D929A95E1F780939D010E94FE07DECF8B
:103A9000B8E08B9FC001112482569E4F0E944D1B9F
:103AA0008823D1F28091DE0190E0019687709927FA
:103AB0008093DE01CBCFA0919D01B0E0CD010196B6
:103AC000877099272091DE012817190671F60E9448
:103AD000170E10929D011092DE0188E0E5E9F1E0F9
:103AE000DF011D928A95E9F7B1CF0F931F93CF9312
:103AF000DF938091FA02E091F902CCE081111AC0C3
:103B0000DF91CF911F910F910895D1E0DE0FD093F7
:103B1000F9020E2F10E0EC9FF0011124E550FD4F4B
:103B200083819481892B29F08081918189238F3F22
:103B300051F4ED2F8091FA02E81738F31092FA024F
:103B40001092F902DDCFC09FD001C19FB00D1124AA
:103B5000A550BD4F16968D919C911797892B29F4EE
:103B600018968D919C91019651F42081318142816A
:103B7000538164817581868197810E94FC1CC09F5E
:103B8000F001C19FF00D1124E550FD4F1482138206
:103B90001092F802CECF10929E0310929D031092C5
:103BA0000D0180919C0380939B030E94CF050C9490
:103BB000751D3F924F925F926F927F928F929F926C
:103BC000AF92BF92CF92DF92EF92FF920F931F932B
:103BD000CF93DF93C0919B0397E0892E01E010E023
:103BE0002CE0322E3EEF932E4424439480919C038C
:103BF0008C1315C00E94751DDF91CF911F910F91FD
:103C0000FF90EF90DF90CF90BF90AF909F908F90FC
:103C10007F906F905F904F903F900C94CF05D0E0D5
:103C2000FE01EE0FFF1FED56FC4F80819181889EB3
:103C3000D001899EB00D1124A55ABC4F14962C9129
:103C40001497211157C05090FA02EBEFF2E030E0E8
:103C500020E0712C5D01251508F04AC0E284F38450
:103C6000D501CD90DC906FEF7FEF612C462D50E0B9
:103C7000DA01AA0FBB1FAC0DBD1D0D90BC91A02D8C
:103C8000109731F0EA16FB0609F4BA016394EECFFF
:103C90006F3F7607A1F1D80102C0AA0FBB1F6A953A
:103CA000E2F77A2AB80102C0660F771F6A94E2F73A
:103CB000AB014150510974161506F9F4329EF0011A
:103CC000339EF00D1124E550FD4F889ED001899E52
:103CD000B00D1124A55ABC4F12962D913C9113970B
:103CE00037832683908291829187808715964C92A4
:103CF0000E94A1052196C37079CF148213822F5F91
:103D00003F4F3C96A8CF2F923F924F925F926F9277
:103D10007F928F929F92AF92BF92CF92DF92EF925B
:103D2000FF920F931F93CF93DF93CDB7DEB76997C1
:103D30000FB6F894DEBF0FBECDBF498B5A8B6B8B8D
:103D40007C8B8D8B61111092F8021D861E861F865A
:103D5000188A85E0FE017196DE01199601900D9298
:103D60008A95E1F78091FB0182FD1CC00E94EC0462
:103D70002091E0013091E101821B930B883893413F
:103D800020F08091E20182FFFEC10E94EC042091AC
:103D9000EC013091ED01821B930B8838934110F0B8
:103DA0000E94B9078C859D85892B31F089859A857C
:103DB00089238F3F09F0D3C129853A854B855C85DE
:103DC0006D857E858F8598890E94FC1CC2C048EF56
:103DD000C4164CE5D40629F4882379F00E94CB1D43
:103DE000EBCF69EFC6166CE5D60639F4882329F0C7
:103DF00080910D018111F2CFC2C10BE513E0E12CDE
:103E0000B12CA12C88248394912C2EEF522E442483
:103E10004394F8014081518166246A94762C20E015
:103E2000822F90E0FC01EE0FFF1FE40FF51F608171
:103E300071816115710531F0C616D70609F43C0190
:103E40002F5FEECFF12CFFEF6F167F0609F443C012
:103E5000F8014481F0900D018F2D411180E0F82F81
:103E6000F170FF2EF801258086819B85992309F446
:103E700006C1FF2009F403C1211013C0A40101C031
:103E8000440F6A94EAF7842B86838091F60290911E
:103E9000F702C29730F462E370E07093F702609328
:103EA000F602C40102C0880F991F2A95E2F7019714
:103EB000F80126812817190671F480919D039091CD
:103EC0009E03009709F45EC00E94D104C39708F4D2
:103ED00059C0F8014482EF28FFEFAF1ABF0A095F0B
:103EE0001F4F28E0A216B10409F093CF8B858823D9
:103EF00009F420C1EE2009F41DC10E94EC04909346
:103F00009E0380939D038091FA02883010F591E022
:103F1000980F9093FA0298E0FE013996DE0111960F
:103F200001900D929A95E1F73CE0839FC001112426
:103F300085509D4F28E0FE013196DC0101900D92E5
:103F40002A95E1F72FEF3FEFFC0131872087D386D9
:103F5000C28669960FB6F894DEBF0FBECDBFDF9163
:103F6000CF911F910F91FF90EF90DF90CF90BF9076
:103F7000AF909F908F907F906F905F904F903F9009
:103F80002F90089580919B0350919C03982FF0E00F
:103F9000E0E0851314C090939B030E171F0709F4EC
:103FA0009ACF90E0FC01EE0FFF1FED56FC4FB1825F
:103FB000A08201968370992780939C038CCF282E32
:103FC000312CF101EE0FFF1FED56FC4F20813181A6
:103FD000F7E0F29FD001F39FB00D1124A55ABC4F1A
:103FE0002D913C911197398F288F40E020E030E0EF
:103FF000E32FF0E0EE0FFF1F688D798DE60FF71FBE
:104000006080718061147104E1F0F8010190F08129
:10401000E02DFF8BEE8B20E005C06616770609F4D5
:104020004F2D2F5FE22FF0E0EE0FFF1F6E897F898B
:10403000E60FF71F608171816115710571F73F5FB0
:10404000D7CF4423C9F0F801231708F0FD014482BB
:10405000E017F10721F490939B03F42E3CCF9813C3
:1040600005C0EA17FB0711F49F5F937091012F5F62
:104070003F4F822F83708DCFF0E0E0E0F7CF90E0EC
:1040800021101FC0B40102C0660F771F2A95E2F706
:104090009B01215031098217930731F4442309F41D
:1040A00047C0C5010E94A105C40101C0880F6A94E0
:1040B000EAF7982F9095F801868189238683F22C60
:1040C0000ACF9C01062C02C0359527950A94E2F789
:1040D000A90141705527BC016150710986239723BE
:1040E000892B11F5452B01F1F80182819381892BF0
:1040F000C1F01B821C821D821E8259825A820E943C
:10410000EC048160582F9D838C83F8018281938118
:104110008F83988729813A814B816D817E810E94AE
:10412000FC1CF8011582C0CFF22FF1702F2EBCCFEE
:104130002F2CBACF90919B0380919C03981731F05C
:104140000E94D91DEE2009F437CE03CF0E94751DC1
:1041500010929E0310929D030E94CF05F3CF61E061
:10416000CE0109960E94080B6C018B85F7EFCF16E4
:10417000FCE5DF0609F02BCE882309F43ECE81E072
:1041800080930D0119CE82E00E94B90DFECD0F93F0
:104190001F93CF93DF9300D000D00F92CDB7DEB73F
:1041A0008C019093F3028093F202011580E21807CC
:1041B00020F5802F0E941C11C8010E9467089801F9
:1041C000205E31092830310510F0012B59F40F9091
:1041D0000F900F900F900F90DF91CF911F910F9143
:1041E0000C940B110F900F900F900F900F90DF9188
:1041F000CF911F910F910C94F6108EEF89838A83D3
:104200001B820E94EC048160782F9D838C834981FE
:104210005A816B818D810F900F900F900F900F90AE
:10422000DF91CF911F910F910C94831ECF93DF9359
:1042300000D000D00F92CDB7DEB79093F3028093F9
:10424000F202811520E2920748F40F900F900F9030
:104250000F900F90DF91CF910C948A138EEF89838A
:104260008A8381E08B830E94EC048160782F9D8398
:104270008C8349815A816B818D810F900F900F90B3
:104280000F900F90DF91CF910C94831EBF92CF922D
:10429000DF92EF92FF920F931F93CF93DF93B82E8D
:1042A000C090D8038091D703C82AC7E0D0E0D12CB2
:1042B000F12CE12CD701C6010C2E04C0B695A795B0
:1042C000979587950A94D2F780FF1FC04B2D60E029
:1042D0008C2F0E94320A8C0181309105B1F00E942E
:1042E00016218FE39CE90197F1F700C00000C80197
:1042F0000E94C72081E0DF91CF911F910F91FF9025
:10430000EF90DF90CF90BF900895219798F64B2DB6
:1043100060E080E00E94320AEC010E9416218FE3E7
:104320009CE90197F1F700C00000CE01E1CF1F9298
:104330000F920FB60F9211242F933F934F935F93D9
:104340006F937F938F939F93AF93BF93CF93DF939D
:10435000EF93FF93D091E900DF708091EC00C82FBC
:10436000C17080FDC0E81092E9008091F000877F65
:104370008093F00078940E94220E1092E9008091C0
:10438000F00088608093F000CD2BCF70C093E900DF
:10439000FF91EF91DF91CF91BF91AF919F918F915D
:1043A0007F916F915F914F913F912F910F900FBE31
:1043B0000F901F9018951F920F920FB60F92112415
:1043C0002F933F934F935F936F937F938F939F931D
:1043D000AF93BF93EF93FF938091E10082FF09C0F9
:1043E0008091E20082FF05C08091E1008B7F809385
:1043F000E1008091DA0080FF24C08091D80080FF26
:1044000020C08091DA008E7F8093DA008091D900FD
:1044100080FF9DC080E189BD82E189BD09B400FEB5
:10442000FDCF81E08093D6038091C003811109C044
:104430000E9409030E94FC038091E2008460809343
:10444000E2008091E10080FF17C08091E20080FFD0
:1044500013C08091E2008E7F8093E2008091E200A1
:1044600080618093E2008091D80080628093D800C0
:1044700019BC85E08093D6038091E10084FF2BC0B6
:104480008091E20084FF27C080E189BD82E189BD7F
:1044900089B5982F917080FFFBCF8091D8008F7DD8
:1044A0008093D8008091E1008F7E8093E10080911D
:1044B000E2008F7E8093E2008091E2008160809331
:1044C000E2008091CD03882309F447C084E0809303
:1044D000D6038091D6038091E10083FF27C08091AD
:1044E000E20083FF23C08091E100877F8093E10099
:1044F00082E08093D6031092CD038091E1008E7FFD
:104500008093E1008091E2008E7F8093E2008091B1
:10451000E20080618093E20042E060E080E00E947F
:10452000CA038091F00088608093F000FF91EF91C2
:10453000BF91AF919F918F917F916F915F914F91BB
:104540003F912F910F900FBE0F901F90189519BC9F
:104550001092D6031092C00374CF8091E30087FDC0
:1045600093E09093D603B5CF78941F921FB61F9215
:1045700011248F939F93AF93BF938091B903909130
:10458000BA03A091BB03B091BC030196A11DB11D5C
:104590008093B9039093BA03A093BB03B093BC0379
:1045A000BF91AF919F918F911F901FBE1F90189543
:1045B0001F921FB61F9211248F939F93AF93BF93A7
:1045C0008091B803811113C08091B9039091BA030F
:1045D000A091BB03B091BC034196A11DB11D809376
:1045E000B9039093BA03A093BB03B093BC03BF91EC
:1045F000AF919F918F911F901FBE1F901895CDB7BF
:10460000DEB7E7970FB6F894DEBF0FBECDBF84B715
:10461000877F84BF0FB6F894A89580916000886169
:1046200080936000109260000FBE80E890E00FB6AB
:10463000F89480936100909361000FBE85B7806805
:1046400085BF85B7806885BF80EE95E09093770140
:10465000809376010E94180C0E946F0B0E94090340
:104660000E94FC038091E20084608093E2007894D1
:104670008091D6038823A1F01091E9001F709091DA
:10468000EC00892F817090FD80E8182B1092E900D2
:104690008091E80083FD0E94220E1F701093E900B4
:1046A00082E084BD93E095BD9AEF97BD80936E0044
:1046B0000E94480B811102C00E94230A08E411E005
:1046C0007EE4E72E71E0F72ED8018D918D018F3FAA
:1046D00011F00E94E205E016F106B1F70EE411E0D8
:1046E00066E5E62E61E0F62EF80181918F018F3F9D
:1046F00011F00E94E205E016F106B1F788E0EDE066
:10470000F2E0DF01282F1D922A95E9F7E2EFF1E0B0
:10471000DF011D928A95E9F790E080E00E9466290A
:10472000893E9E4F21F40E94480B811102C00E94D5
:10473000A11382E090E00E945E298093FC010E9418
:10474000610B9093FB018093FA010E94710CEFE3DF
:10475000FCE93197F1F700C000000E94710C8091D4
:104760000D0280FF08C06FEF7FEF90E080E00E94B5
:104770008A290E94C00483E090E00E945E290E9482
:10478000130E53985B9A52985A9A8FE891E00197CA
:10479000F1F700C0000089B183FB882780F94A99AE
:1047A00045C190E0892B8093070281E091E09093CE
:1047B000B5038093B4038DE092E0A8E0A80FAFABFF
:1047C000FE0131967F018091D60350E4D52E00E1A1
:1047D00012E1853009F461C10E94710C81110E94BF
:1047E000E004ADE0B2E0EDEFF1E010E000E0302FEA
:1047F0008D919191981709F45FC1292F282790E096
:10480000DD24D394422F4D2109F451C19BA73CA72D
:104810008D2191E009F490E09DA70E94EC04816055
:10482000782F9FA78EA74BA55CA56DA58FA50E948D
:10483000831EF801E350FE4F8081D826D0828091FC
:10484000AE039091AF03892B09F43EC04091A303BE
:104850005091A4036091A5037091A6032FB7F8941B
:104860008091B9039091BA03A091BB03B091BC03AE
:104870002FBF841B950BA60BB70B40919F03509144
:10488000A0036091A1037091A20384179507A60766
:10489000B707D0F08091AE039091AF030E948A13C6
:1048A0001092AF031092AE031092A3031092A403D0
:1048B0001092A5031092A60310929F031092A003DA
:1048C0001092A1031092A20380910D01882301F19F
:1048D00080919D0390919E030097D1F00E94D10496
:1048E0002091F6023091F7022817390788F4909149
:1048F0009B0380919C03981709F4F5C00E94D91D71
:104900001092F7021092F60210929E0310929D03ED
:10491000E0910702EE0FEE0FE093070289B183FBEF
:10492000882780F98DAB1EAA4A99E6C080E0ADA920
:10493000BEA98A2BE82BE0930702EF70F0E0EA5A59
:10494000FE4F808190910602890F8093060220E03D
:1049500084304CF0809105028F5F8093050280E0E7
:104960000E94462121E0809106028D3F4CF4809107
:10497000050281508093050281E00E94462121E0DA
:1049800080910602082E000C990B64E070E00E94F2
:10499000FC288093060221110E94E0040E94240555
:1049A000909108028913809308028091D603843085
:1049B00009F009CF83E08093E9008091E80082FF4D
:1049C00002CF8091E80090E085FF0CC00E94280390
:1049D00040E2C42ED12C8E010F5F1F4F882309F4B3
:1049E00098C091E08091E8008B778093E80099234C
:1049F00009F4E9CE0091F4021091F50289810115C4
:104A0000110509F494C08E3F09F016C18A818330E4
:104A100020F08550833008F00FC1EA81EE3008F0B5
:104A20000BC1F0E0E054F64D0C94102992E0BACEA0
:104A30008091D603843019F11092B80328E130E058
:104A40000FB6F894A895209360000FBED092600036
:104A500083B7817F846083BF83B7816083BF78948D
:104A6000889583B78E7F83BF0FB6F894A895809101
:104A70006000886180936000109260000FBE80919A
:104A8000CC03882351F00E94710CEDE0F2E081919B
:104A9000811194C33FA93E13FACF8091D60385308C
:104AA00009F4C6CF0E94170E0E94240595CE9F5F81
:104AB000DD0C963009F0A6CE0F5F1F4F08301105B0
:104AC00009F095CE8FEF88AB89AB1AAA0E94EC044F
:104AD0008160782F9CAB8BAB48A959A96AA98CA996
:104AE0000E94831EACCE0E94751D10929E031092F0
:104AF0009D030E94CF050CCF82E090E018CF8091FB
:104B0000F100F80181938F01F1E0CF1AD10809F487
:104B100068CF8091E80085FDF2CF8091E8008B7727
:104B20008093E8000E942803882399F35ACF8C30A1
:104B300009F4CDC058F5843009F4B0C058F482307F
:104B400009F469C008F09BC0813009F460C08FEFA0
:104B5000898372C0863009F4B7C008F4AAC08B30CC
:104B6000B1F78091F0029091F102892B09F464C0B1
:104B7000CE0101960E9483032FEF31EE84E0215095
:104B800030408040E1F700C00000F3CD803109F4EF
:104B9000CEC088F58E3009F4A1C008F49BC0809186
:104BA000F0029091F102892B09F446C00C8110E0CB
:104BB0000D31110508F040C0CA80DB80DC24CD2413
:104BC000DC2457010E0D1F1DC601895A9D4F0A1581
:104BD0001B0591F139EAC31631E0D30628F4D5015B
:104BE00014966C910E946C29BFEFAB1ABB0AEFEFD1
:104BF000CE1ADE0AE9CF823109F49EC008F49AC0C9
:104C0000833109F4C1C08E3F09F0A1CF06CF1A82CB
:104C100089E08B8311C08A81823009F4E5C2833038
:104C200079F0813009F093CF0E94E0040E941629A8
:104C30006B837C838D839E83C7010E948303C3CDD6
:104C40008091F0029091F102892BB1F380910D02D5
:104C50008B8380910E028C8380910F028D838091D3
:104C600010028E83809111028F83809112028887B7
:104C7000809113028987809114028A87DDCF8A810F
:104C8000823009F064CF6B817C818D819E810E948E
:104C9000162986E290E00E946C29CECF4C816B8170
:104CA0008A810E945B0A9827892798279E838D8393
:104CB000C3CF2D813E813227232732274C816B8140
:104CC0008A810E942C09B8CF0E947909B5CF80E172
:104CD0008A83B2CF81E08A8389EA9BCF0C8110E07E
:104CE0000D31110508F0A8CFCA80DB80DC24CD246B
:104CF000DC2457010E0D1F1DC601895A9D4FA016B9
:104D0000B10609F499CF29EAC21621E0D20660F46F
:104D10000E945E29D50114968C93FFEFCF1ADF0A0B
:104D20002FEFA21AB20AE8CFF5011482F6CF0E9443
:104D3000F70882CF84E0CCCF0C8110E00D31110553
:104D400008F07ACFCA80DB80DC24CD24DC24570134
:104D50000E0D1F1DC60187960A151B0509F46CCFA1
:104D6000F0E8CF16F1E0DF0660F40E945E29D5017D
:104D700014968C93FFEFCF1ADF0A2FEFA21AB20A14
:104D8000E9CFF5011482F6CFCC80D12C3DE1C316DA
:104D9000D10408F051CF0A811B8110270127102769
:104DA000003881E0180708F047CF80E891E0801BC9
:104DB000910B8C159D0508F43FCF380197E2690EE1
:104DC000711C8091F0029091F10228014C0C5D1C45
:104DD000892BA1F55801A1E0AA22BB2400FF0DC038
:104DE000C80186960E945E299D8189279827892778
:104DF00081159C4511F48FEF8D83460140FE17C04D
:104E0000E1E08E1A910835E0232E312C2C0E3D1E48
:104E1000280C391CC3018C0D9D1D0E945E29D101F7
:104E20009C9181159C4519F48FEFF1018083F70166
:104E3000EA0DFB1D2FEFA814B90410F0670119C08B
:104E40009481858181159C4511F42483258382E01A
:104E5000A80EB11C3296EFCF0038A1E01A0720F45B
:104E6000F60164810E946C29FFEFCF1ADF0A0F5F01
:104E70001F4FC80187960415150571F7DDCE88E030
:104E8000EFE0F1E0DE01919601900D928A95E1F755
:104E900080E2D7011D928A95E9F785E0898388E051
:104EA000FE01B196DE01159601900D928A95E1F70B
:104EB000C3CE88EA898381E08A831B821C82BCCEB0
:104EC0008C81682F70E0762F66278B81860F972F55
:104ED000911D092E000CAA0BBB0B25E0880F991F12
:104EE000AA1FBB1F2A95D1F7AC01BD01405E5F4FE1
:104EF0006F4F7F4F481759076A077B0708F49CCE0E
:104F0000883AE1E09E07A105B10508F095CE493A3F
:104F1000F1E05F076105710520F048EA51E060E0CB
:104F200070E0481B590BBC0160517E4FC7010E94C5
:104F3000312982CE1B810C8140E0602F812F0E949D
:104F4000320A9827892798279A83898341E0602F1E
:104F5000812F0E94320A9827892798279C838B8368
:104F60006BCE2E813F8132272327322721158CE5F6
:104F7000380741F48091F0029091F102892B11F4ED
:104F800030E020E04D816C818B810E94070954CE76
:104F90004AE150E06FEF70E0CE0107960E9447298A
:104FA0008091F00289830A831B821C8287E08D83B3
:104FB00084E08E8341CE81E090E09093F50280936F
:104FC000F40282E390E090930C0280930B020E9423
:104FD000EC0490930A02809309022ECE012B61F11A
:104FE00010910D02009114028091090290910A0221
:104FF0000E94D1048536910540F104FF26C010FFC0
:1050000024C00E94EC0490930A02809309028091CC
:105010000B0290910C02019790930C0280930B026B
:10502000892B51F41092F5021092F40281E090E085
:105030009093F1028093F0028091F0028983809135
:10504000F4028A8380910B02E4CD82E390E0909396
:105050000C0280930B02F0CF1092F1021092F0023A
:10506000EBCD40E250E06FEF70E0C7010E944729AE
:10507000E3CD8B81843009F460C018F5882309F4EE
:1050800054C0833009F0D8CD6C812AE0CE018196DE
:10509000FC01322F11923A95E9F7683008F08CC084
:1050A000629FB001112469547E4F4AE050E00E9493
:1050B0004E2980E089838AE0FE01B196DE011296D6
:1050C000F3CE853009F467C0863009F0B5CD6C8128
:1050D0008AE0FE013596DE01919601900D928A9547
:1050E000E1F78BA19CA18115ACE59A0741F42091D1
:1050F000F0023091F102232B11F490E080E09CA3A8
:105100008BA38FEF683068F4BAE06B9FB001112475
:10511000695F7D4F4AE050E0CE0181960E94902960
:1051200080E089830E946F0B87CD80E2D7011D92BA
:105130008A95E9F788E08A836CCD6C818AE0FE016C
:105140003596DE01919601900D928A95E1F789A539
:105150009AA58115ACE59A0741F42091F0023091AF
:10516000F102232B11F490E080E09AA789A78FEF3A
:10517000683068F4BAE06B9FB001112469547E4F27
:105180004AE050E0CE0181960E94902980E0898318
:105190000E94180C51CD6C812AE0CE018196FC0151
:1051A000322F11923A95E9F7683030F4629FB001DE
:1051B0001124695F7D4F79CF8FEF7CCF09BD19BD79
:1051C00009B400FEFDCF8091D8008F7D8093D80078
:1051D0008091E00082608093E0008091E00081FD9A
:1051E000FCCF0E94170E59CC86E290E00E945E2907
:1051F0001B821C821D82DDCE97FB072E16F40094C5
:1052000007D077FD09D00E941D2907FC05D03EF488
:10521000909581959F4F0895709561957F4F089562
:10522000EE0FFF1F0590F491E02D09946927962752
:1052300069277827872778270895AA1BBB1B51E188
:1052400007C0AA1FBB1FA617B70710F0A61BB70BF6
:10525000881F991F5A95A9F780959095BC01CD019B
:105260000895FB01DC0102C005900D9241505040B1
:10527000D8F70895FB01DC0104C08D9101908019DD
:1052800021F441505040C8F7881B990B0895DC0168
:1052900001C06D9341505040E0F70895DC01CB010F
:1052A000FC01F999FECF06C0F2BDE1BDF89A319636
:1052B00000B40D9241505040B8F70895F999FECFCF
:1052C00092BD81BDF89A992780B50895A8E1B0E014
:1052D00042E050E00C945029262FF999FECF92BD60
:1052E00081BDF89A019700B4021639F01FBA20BDAB
:1052F0000FB6F894FA9AF99A0FBE08950396272FDD
:105300000E946D290E946C29252F0E946D29242F4F
:105310000C946D290196272F0E946D290C946C29FD
:10532000DC01CB0103C02D910E949B2941505040CC
:10533000D0F70895262FF999FECF1FBA92BD81BDEF
:1053400020BD0FB6F894FA9AF99A0FBE0196089507
:10535000F894FFCF080F300FDE10300FDE10630F10
:10536000840FDE108D109A10C216C216FC16FC16A1
:10537000B4172C172C172C17CE17391848184818A3
:105380003F27592760279A27B127C827DB27EE2711
:0C5390002C2831281C261C261C2639283D
:10539C0001BD04CA08BC04C608C208BB0401015CF8
:1053AC0069A059D30DCF09818283E200E900EA009C
:1053BC00B500B600B700CD008301CC008A01920184
:1053CC0094012102230224022502260227022A022A
:1053DC00B300B4006F007000F6F731333236343559
:1053EC00946697C6F5F400FF0100010000FFFF0072
:1053FC0000010001FF004022320001DE00AC003A47
:06540C00055305730500C5
:00000001FF
