:100000000C946C0D0C94890D0C94890D0C94890D35
:100010000C94890D0C94890D0C94890D0C94890D08
:100020000C94890D0C94890D0C949A160C94161C42
:100030000C94A4270C94890D0C94890D0C94890DB3
:100040000C94890D0C94890D0C94890D0C94890DD8
:100050000C94890D0C9473170C94890D0C94890DD4
:100060000C94890D0C94890D0C94890D0C94890DB8
:100070000C94890D0C94890D0C94890D0C94890DA8
:100080000C94890D0C94890D0C94890D0C94890D98
:100090000C94890D0C94890D0C94890D0C94890D88
:1000A0000C94890D0C94890D0C94890D050109801F
:1000B000A101850319012AB700150126B700950192
:1000C00075108100C0050C0901A101850419012AE0
:1000D000A002150126A002950175108100C00660DE
:1000E000FF0961A1010962150026FF00952075082E
:1000F00081020963150026FF00952075089102C052
:1001000005010906A101050719E029E715002501E8
:10011000950875018102950175088101050719008F
:1001200029FF150026FF00950675088100050819AE
:10013000012905950575019102950175039101C08D
:1001400000000000000000000000000000000000AF
:10015000000000000000000000000000000000009F
:10016000000000000000000000000000000000008F
:10017000000000808000000000008040402020201F
:1001800020101010100804020101020C3040800001
:10019000000000000000F8F8F8F8000000000080FF
:1001A00080000000000000000000000000000000CF
:1001B00000000000000000000000000000808080BF
:1001C000000000000000000000000000000000002F
:1001D000000000000000000000000000000000001F
:1001E000000000000000000000000000000000000F
:1001F000001EE10000010102028180800000808079
:10020000000000000000000000800030300000010D
:100210000102040810204387070100B8BCBE9F5F9D
:100220005F4F4C20202020101010100808080808EC
:10023000040404040402020202010101010000009E
:1002400000000000000000000000000000000000AE
:10025000000000000000000000000000000000009E
:10026000000000000000000000000000000000008E
:1002700080700C030000180605989984437C414166
:100280004040202122121111110908080808040415
:1002900008081010101010110F013D7CFCFCFCFC34
:1002A000FC3C0C000000000000000000000000000A
:1002B000000000000000000000000000000000003E
:1002C000000000000000000000000000000000002E
:1002D00000808080808040404040402020202020BE
:1002E0001010101010080808080804040404040280
:1002F00003020201010101010100000000000000F1
:1003000000000000000000000000000000000000ED
:1003100000000000000000000000000000010303D6
:1003200000000000000000000000000000000000CD
:1003300000000000000000000000000000000000BD
:1003400000000000000000000000000000000000AD
:10035000000000000000000000000000000000009D
:10036000000000000000000000000000000000008D
:10037000000000808000000000008040402020201D
:1003800020101010100804020101020C30408000FF
:10039000000000000000000000000000000000005D
:1003A000000000000000000000000000000000004D
:1003B00000000000000000000000000000808080BD
:1003C000000000000000000000000000000000002D
:1003D000000000000000000000000000000000001D
:1003E000000000000000000000000000000000000D
:1003F000001EE100000101020201000000008080F7
:10040000000000000000000000800030300000010B
:10041000E11A06093135018A7C0000808080804025
:100420004040402020202010101010080808080824
:10043000040404040402020202010101010000009C
:1004400000000000000000000000000000000000AC
:10045000000000000000000000000000000000009C
:10046000000000000000000000000000000000008C
:1004700080700C030000000000000000000001017B
:100480000040A021221211111109080808080404D3
:100490000404040402020201010101000000000042
:1004A000000000000000000000000000000000004C
:1004B000000000000000000000000000000000003C
:1004C000000000000000000000000000000000002C
:1004D00000808080808040404040402020202020BC
:1004E000101010101008080808080404040404027E
:1004F000037A7A7979797939310202040408080893
:1005000088888780000000000000000000000000D4
:1005100000000000000000000000000000000000DB
:1005200000000000000000000000000000000000CB
:1005300000000000000000000000000000000000BB
:1005400000000000000000000000000000000000AB
:10055000000000000000000000000000000000009B
:10056000000000000000000000000000000000008B
:10057000000000808000000000008040402020201B
:1005800020101010100804020101020C30408000FD
:10059000000000000000000000000000000000005B
:1005A000000000000000000000000000000000004B
:1005B00000000000000000000000000000808080BB
:1005C000000000000000000000000000000000002B
:1005D000000000000000000000000000000000001B
:1005E000000000000000000000000000000000000B
:1005F000001EE10000010102028180800000808075
:100600000000000000000000008000303000000109
:10061000E11A06093135018A7C0000808080804023
:100620004040402020202010101010080808080822
:10063000040404040402020202010101010000009A
:1006400000000000000000000000000000000000AA
:10065000000000000000000000000000000000009A
:10066000000000000000000000000000000000008A
:1006700080700C030000180605989984C37C4141E2
:100680004040202122121111110908080808040411
:100690000404040402020201010101000000000040
:1006A000000000000000000000000000000000004A
:1006B000000000000000000000000000000000003A
:1006C000000000000000000000000000000000002A
:1006D00000808080808040404040402020202020BA
:1006E000101010101008080808080404040404027C
:1006F00003020201010101010100000000000000ED
:1007000000000000000000000000000000000000E9
:1007100000000000000000000000000000000000D9
:1007200000000000000000000000000000000000C9
:1007300000000000000000000000000000000000B9
:1007400000000000000000000000000000000000A9
:100750000000000000000000000000000000000099
:100760000000000000000000000000000000000089
:100770000000000000000000000080404020202019
:1007800020101010101008080404040830408000E5
:100790000000000000000000000000000000000059
:1007A0000000000000000000000000000000000049
:1007B00000000000000000000000000000808080B9
:1007C0000000000000000000000000000000000029
:1007D0000000000000000000000000000000000019
:1007E0000000000000000000000000000000000009
:1007F00000186482020202020201000000008080F0
:100800000000000000000000008000303000C0C187
:10081000C1C2040810204080000000808080804019
:100820004040402020202010101010080808080820
:100830000404040404020202020101010100000098
:1008400000000000000000000000000000000000A8
:100850000000000000000000000000000000000098
:100860000000000000000000000000000000000088
:10087000C0380403000000000000000C0C0C0D0147
:100880000040A021221211111109080808080404CF
:1008900008081010101010110F01010000000000D6
:1008A0000000000000000000000000000000000048
:1008B0000000000000000000000000000000000038
:1008C0000000000000000000000000000000000028
:1008D00000808080808040404040402020202020B8
:1008E000101010101008080808080404040404027A
:1008F00003020201010101010102020404080808C7
:1009000008080700000000000000000000000000D0
:1009100000000000000000000000000000000000D7
:1009200000000000000000000000000000000000C7
:1009300000000000000000000000000000000000B7
:1009400000000000000000000000000000000000A7
:100950000000000000000000000000000000000097
:100960000000000000000000000000000000000087
:100970000000000000000000000080404020202017
:1009800020101010101008080404040830408000E3
:100990000000000000000000000000000000000057
:1009A0000000000000000000000000000000000047
:1009B00000000000000000000000000000808080B7
:1009C0000000000000000000000000000000000027
:1009D0000000000000000000000000000000000017
:1009E0000000000000000000000000000000000007
:1009F00000186482020202020201000000008080EE
:100A00000000000000000000008000303000C0C185
:100A1000C1C2040810204080000000808080804017
:100A2000404040202020201010101008080808081E
:100A30000404040404020202020101010100000096
:100A400000000000000000000000000000000000A6
:100A50000000000000000000000000000000000096
:100A60000000000000000000000000000000000086
:100A7000C0380403000000000000000C0C0C0D0145
:100A80000040A021221211111109080808080404CD
:100A900008081010101010110F01010000000000D4
:100AA0000000000000000000000000000000000046
:100AB0000000000000000000000000000000000036
:100AC0000000000000000000000000000000000026
:100AD00000808080808040404040402020202020B6
:100AE0001010101010080808080804040404040278
:100AF00003020201010101010102020404080808C5
:100B000008080700000000000000000000000000CE
:100B100000000000000000000000000000000000D5
:100B200000000000000000000000000000000000C5
:100B300000000000000000000000000000000000B5
:100B400000000000000000000000000000000000A5
:100B50000000000000000000000000000000000095
:100B60000000000000000000000000000000000085
:100B700000000000000000000000008080404040B5
:100B80004020202020100804020204186080000089
:100B90000000000000000000000000000000000055
:100BA0000000000000000000000000000000000045
:100BB00000000000000000000000000000808080B5
:100BC0000000000000000000000000000000000025
:100BD0000000000000000000000000000000000015
:100BE0000000000000000000000000000000000005
:100BF000003CC201010202040402010000000000E6
:100C00000000000000000000000000606000818221
:100C10008284081020408000000000808080804096
:100C2000404040202020201010101008080808081C
:100C30000404040404020202020101010100000094
:100C400000000000000000000000000000000000A4
:100C50000000000000000000000000000000000094
:100C60000000000000000000000000000000000084
:100C700080701906000000000000001818181B03FF
:100C80000040A02224141212120B080808080505BF
:100C900009091010101010110F01010000000000D0
:100CA0000000000000000000000000000000000044
:100CB0000000000000000000000000000000000034
:100CC0000000000000000000000000000000000024
:100CD00000808080808040404040402020202020B4
:100CE0001010101010080808080804040404040276
:100CF00003020201010101010102020404080808C3
:100D000008080700000000000000000000000000CC
:100D100000000000000000000000000000000000D3
:100D200000000000000000000000000000000000C3
:100D300000000000000000000000000000000000B3
:100D400000000000000000000000000000000000A3
:100D50000000000000000000000000000000000093
:100D60000000000000000000000000000000000083
:100D70000000008080000000000080404020202013
:100D800020101010100804020101020C30408000F5
:100D90000000000000000000000000000000000053
:100DA0000000000000000000000000000000000043
:100DB00000000000000000000000000000808080B3
:100DC0000000000000000000000000000000000023
:100DD0000000000000000000000000000000000013
:100DE0000000000000000000000000000000000003
:100DF000001EE100000101020201000000008080ED
:100E00000000000000000000008000303000C0C181
:100E1000C1C2040810204080000000808080804013
:100E2000404040202020201010101008080808081A
:100E30000404040404020202020101010100000092
:100E400000000000000000000000000000000000A2
:100E50000000000000000000000000000000000092
:100E60000000000000000000000000000000000082
:100E700080700C03000000000000000C0C0C0D0141
:100E80000040A021221211111109080808080404C9
:100E900008081010101010110F01010000000000D0
:100EA0000000000000000000000000000000000042
:100EB0000000000000000000000000000000000032
:100EC0000000000000000000000000000000000022
:100ED00000808080808040404040402020202020B2
:100EE0001010101010080808080804040404040274
:100EF00003020201010101010102020404080808C1
:100F000008080700000000000000000000000000CA
:100F100000000000000000000000000000000000D1
:100F200000000000000000000000000000000000C1
:100F300000000000000000000000000000000000B1
:100F400000000000000000000000000000000000A1
:100F50000000000000000000000000000000000091
:100F60000000000000000000000000000000000081
:100F70000000000000000000000080404020202011
:100F800020101010100808040202020438408000EB
:100F90000000000000000000000000000000000051
:100FA0000000000000000000000000000000000041
:100FB00000000000000000000000000000808080B1
:100FC0000000000000000000000000000000000021
:100FD0000000000000000000000000000000000011
:100FE0000000000000000000000000000000000001
:100FF000001CE201010202020201000000008080E8
:101000000000000000000000008000303000C0C17F
:10101000C1C2040810204080000000808080804011
:101020004040402020202010101010080808080818
:101030000404040404020202020101010100000090
:1010400000000000000000000000000000000000A0
:101050000000000000000000000000000000000090
:101060000000000000000000000000000000000080
:1010700080700C03000000000000000C0C0C0D013F
:101080000040A021221211111109080808080404C7
:1010900008081010101010110F01010000000000CE
:1010A0000000000000000000000000000000000040
:1010B0000000000000000000000000000000000030
:1010C0000000000000000000000000000000000020
:1010D00000808080808040404040402020202020B0
:1010E0001010101010080808080804040404040272
:1010F00003020201010101010102020404080808BF
:1011000008080700000000000000000000000000C8
:1011100000000000000000000000000000000000CF
:1011200000000000000000000000000000000000BF
:1011300000000000000000000000000000000000AF
:10114000000000000000000000000000000000009F
:10115000000000000000000000000000000000008F
:10116000000000007E0F00D4FFFFFFC700000078E2
:1011700000000000000000002A2B280000000000F2
:101180000000000000000000000000290000000036
:101190002C1E3420212224342627252E362D3738A4
:1011A000271E1F202122232425263333362E3738AD
:1011B0001F0405060708090A0B0C0D0E0F1011126B
:1011C000131415161718191A1B1C1D2F3130232D37
:1011D000350405060708090A0B0C0D0E0F10111235
:1011E000131415161718191A1B1C1D2F3130354CE6
:1011F00000DA0281FFD9F1DB20A4A62EAF00A0C047
:1012000000A1C800AED580A81FD300408D142000D7
:10121000FD377A585A000004E6D6B4460200210190
:1012200016000000742FE5A3E003AA01655D003DF0
:101230008889C65436C3174FE4F5602D3B56DF212D
:1012400044B4FF40F91849E5B259552B74925092B5
:10125000C7D59B8E55F76A5219C834EB335A64854B
:10126000505C584F3CA629B8381BD0C58C9AF6C79D
:10127000EFF4B0C05D5DC8AB5D5EE6357F4E98D7DC
:10128000A73145D85F956022A08E4AA000FC945FEC
:10129000998E13004D1180E382B6445C1762E6E438
:1012A000564EA8C42FC49D558408A19E9BF7B23604
:1012B00026F332535D9A115D52E66E57C8C7BB588C
:1012C00039E0F387EA85830A8744AD990AC6F6E8D0
:1012D000EB7B9F51CC6B34E101EF24EE10DFBCB40B
:1012E0005D973F4A14A0A52C60F9D71F0EF29351C9
:1012F000830412CB06F29B17F95FA7E64CB138CBFB
:1013000069FCD4FC9FA07F26E000D6CFAC855BD9DA
:101310000A6BDB8614359D6ACF0F3396FD20ECAE49
:101320009BB0C9D99D08BAF2791D1295C394545A3D
:101330004F0A4B0EEC4EB5A12BE9C95E907EBE273D
:101340003139C35BB17954402AA1835B0AA2537A35
:1013500006441FBE82AB4528154028D7CAABA55FFF
:1013600032C1391A258213070F7750E82C53E284D3
:1013700088B6D65394BDAC04DE380516A75FB23EDE
:10138000A0BAC9EE8BB2A24C6D4A825B49E91C2C13
:10139000BE53970000000000D19F7925B7EEF528D5
:1013A00000018103AB070000F1E13CCEB1C467FB53
:1013B000020000000004595AAA00A900010001001F
:1013C000010001000100010029001A0015001C00A5
:1013D0000C001300140008001700180012002A0067
:1013E0002B00160009000B000E003300040007005C
:1013F0000A000D000F00280035621D0006000500E0
:101400001000370038001B00190011003600E500FD
:10141000E000E2002C412C41E700AE00E3000000B8
:101420000251E600E400A80029001F00210023006B
:10143000250027001E0020002200240026002A008C
:1014400001000100010052002D00340001000100E4
:10145000010052002E002800010001000100500090
:101460004F00380001000100010051002E00010072
:1014700001000100010001000100AE0001000000B8
:10148000010001000100A8000100C85C010001008A
:1014900052000100C75C01000100000001000100D2
:1014A0000100C35C0100000051000100C25CC45C8B
:1014B000010050004F0001000100CA5C0100010062
:1014C00001005200C95C010001000100010052004E
:1014D00001000100010001005100010001000000B5
:1014E000010050004F00010000AF00AE09025B0098
:1014F000030100A0FA090400000103010100092111
:1015000011010001224000070581030800010904C0
:101510000100020300000009211101000122220044
:1015200007058203200001070503032000010904C9
:101530000200010300000009211101000122320014
:1015400007058403200001120100020000000829A1
:101550001753530100010203011C03760069006167
:10156000006C003A0066003600340063003200620E
:10157000003300630000000A036C00690074006C13
:101580000000000E036D006F0068006F00790074AA
:101590000000000403090407087F0807003E5B4FB2
:1015A0005B3E003E6B4F6B3E001C3E7C3E1C0018B9
:1015B0003C7E3C18001C577D571C001C5E7F5E1C47
:1015C0000000183C180000FFE7C3E7FF00001824E4
:1015D000180000FFE7DBE7FF0030483A060E002660
:1015E0002979292600407F05050700407F05253F12
:1015F000005A3CE73C5A007F3E1C1C0800081C1C9B
:101600003E7F0014227F2214005F5F005F5F0006B0
:10161000097F017F00006689956A006060606060F4
:101620000094A2FFA2940008047E04080010207E0B
:1016300020100008082A1C0800081C2A0808001EA0
:1016400010101010000C1E0C1E0C0030383E3830EC
:1016500000060E3E0E060000000000000000005FC5
:10166000000000000700070000147F147F1400240E
:101670002A7F2A120023130864620036495620503C
:1016800000000807030000001C2241000000412266
:101690001C00002A1C7F1C2A0008083E08080000C5
:1016A0008070300000080808080800000060600032
:1016B000002010080402003E5149453E0000427FD0
:1016C0004000007249494946002141494D33001804
:1016D00014127F10002745454539003C4A494931DD
:1016E0000041211109070036494949360046494958
:1016F000291E00000014000000004034000000001B
:101700000814224100141414141400004122140877
:10171000000201590906003E415D594E007C12113C
:10172000127C007F49494936003E41414122007FF9
:101730004141413E007F49494941007F0909090172
:10174000003E41415173007F0808087F0000417F3F
:101750004100002040413F01007F08142241007FEA
:1017600040404040007F021C027F007F0408107F41
:10177000003E4141413E007F09090906003E4151BA
:10178000215E007F09192946002649494932000394
:10179000017F0103003F4040403F001F2040201FC9
:1017A000003F4038403F006314081463000304788E
:1017B0000403006159494D4300007F41414100024B
:1017C0000408102000004141417F0004020102048E
:1017D00000404040404000000307080000205454EF
:1017E0007840007F28444438003844444428003876
:1017F0004444287F0038545454180000087E0902DD
:101800000018A4A49C78007F080404780000447D9C
:101810004000002040403D00007F102844000000B0
:10182000417F4000007C04780478007C0804047840
:1018300000384444443800FC182424180018242498
:1018400018FC007C08040408004854545424000484
:10185000043F4424003C4040207C001C2040201CCD
:10186000003C4030403C004428102844004C9090FC
:10187000907C004464544C44000008364100000051
:101880000077000000004136080000020102040257
:10189000003C2623263C00000000000000404040A1
:1018A000F0F8F8FF38FFF8F83FF8F8FF38FFF8F8DD
:1018B000F040404000000000000080C0C0C0800038
:1018C00000C0C08000000080C0C000C0C000008018
:1018D000C0C00000000000C0C0C0C0C000C0C00048
:1018E00000000000000000000000000000000000F8
:1018F00000000000000000000000000000000000E8
:1019000000000000000000000000000000000000D7
:10191000000000000000C0F0F8FC3E1E06010000C0
:10192000007F4141417F007F4141417F000080C0F5
:10193000E07E5B4F5BFEC00000C000DCD7DEDEDE79
:10194000D7DC00C000000000000000000000000024
:1019500000000000000000000000000000494949AC
:10196000FFFFFFFFE0DFBFBF00BFBFDFE0FFFFFF04
:10197000FF49494900000000001F3F6060E0BF1FB1
:10198000007F7F071E381E077F7F007F7F0E1F3B73
:10199000716000000000007F7F0C0C0C007E7E0058
:1019A0007F7E0303007F7E03037E7E03037F7E0032
:1019B0000F3E703C063C703E0F00327B49493F7E33
:1019C000007F7E0303001E3F69696F260000000050
:1019D000000000000000030F1F3F3C787060000013
:1019E000007F4141417F007F4141417F00307B7F4B
:1019F0007830202030787F3B0003000F7F0F0F0FDF
:101A00007F0F000300000000000000000000000045
:101A100000000000000000000000000000010101C3
:101A2000070F0F7F0F7F0F0F7E0F0F7F0F7F0F0F9F
:101A3000070101010000000000000000000001019A
:101A40000000000000000000000000000000000096
:101A50000000000000000000000000000000000086
:101A60000000000000000000000000000000000076
:101A70000000000000000000000000000000000066
:101A80000000000000000000000000000000000056
:101A90000000000000000000000000000000000046
:101AA0000000000000000000000000000000000036
:101AB0000000000000000000000000000000000026
:101AC0000000000000000000000000000000000016
:101AD000000000000000000011241FBECFEFDAE07C
:101AE000DEBFCDBF11E0A0E0B1E0E8E4F9E602C05E
:101AF00005900D92AE38B107D9F724E0AEE8B1E019
:101B000001C01D92AF3CB207E1F70E94CB270C94B5
:101B10007E340C940000CF93DF934091CD0450911C
:101B2000CE044D5C52409A013E5F21303240C0F0FD
:101B300020E032E0241B350B6091CB027091CC0287
:101B4000FC01CA01240F351FC1E0D0E082179307C2
:101B500050F07093CC026093CB02DF91CF91089547
:101B600020E032E0E9CF4491DC01A353BD4F5C910A
:101B7000451781F04C93AC01A5E056954795AA9581
:101B8000E1F7DE0102C0AA0FBB1F4A95E2F7AD01E3
:101B90006A2B752B01963196D9CFE8EDF0E0808164
:101BA0008E7F80831092E2001092DA001092E100A2
:101BB000A0EEB0E08C9181608C9380818F778083E0
:101BC00019BCA7EDB0E08C918E7F8C9380818F7EC5
:101BD00080831092A80208952091E4003091E500DE
:101BE00095E6A9012091EC00822F817020FF06C0AC
:101BF0008091E80080FF06C080E008952091E80011
:101C000022FD1AC08091BE02882389F0853089F0B8
:101C10008091EB0085FD0FC02091E4003091E5003C
:101C200042175307F9F29150E1F684E0089582E0FB
:101C3000089583E0089581E00895EF92FF920F9355
:101C40001F93CF937C018B010E94EC0DC82F811153
:101C500017C08091E80085FD0BC08091E8008E7769
:101C60008093E8000E94EC0D882399F3C82F08C0E8
:101C7000F70181917F018093F1000150110949F72B
:101C80008C2FCF911F910F91FF90EF900895CF93DC
:101C9000FC018091BE02843001F5C091E900CF7053
:101CA0002091EC00922F917020FD90E8C92B82E0EA
:101CB0008093E9008091E80080FF0CC050E040E094
:101CC00060E270E0CF010E941D0E8091E8008E77E7
:101CD0008093E800CF70C093E900CF910895809180
:101CE000B60287FF13C08091E80082FF06C0809192
:101CF000E8008B778093E80004C08091BE028111D8
:101D0000F2CF08958091BE028823D9F38091E80034
:101D100080FFF8CF8091E8008E77ECCF982F9093DA
:101D2000E900242F762F50E0891731F07091EC00F4
:101D30002091ED005091F00021FD07C09F5F97308A
:101D400071F78093E90081E008953091EB003E7FC8
:101D50003093EB003091ED003D7F3093ED003091FA
:101D6000EB0031603093EB007093EC002093ED00BA
:101D70005093F0002091EE0027FDE0CF80E0089521
:101D8000CF92DF92EF92FF920F931F93CF93DF9347
:101D9000C8EDD0E088818F7E8883E7EDF0E0808118
:101DA0008160808384E082BF81E08093A802888183
:101DB0008E7F888302EE10E0F80110821092DA0024
:101DC00081EEC82ED12CF601108288818F7788830E
:101DD00088818068888388818F7D888319BC109270
:101DE000BE021092B5021092B4021092B30290EEAD
:101DF000E92EF12CF70180818B7F808388818160BF
:101E0000888342E060E080E00E948E0EF6018081CF
:101E10008E7F8083F80180818160808380818860EB
:101E20008083F70180818E7F8083888180618883B1
:101E3000DF91CF911F910F91FF90EF90DF90CF90A6
:101E40000895FC018091BC029091BD02861797070E
:101E5000A0F06115710529F49091E8009E779093A8
:101E6000E80090E06115710551F4911108C080916E
:101E7000E80082FF34C080E00895BC01F2CF809179
:101E8000BE028823C1F18530C1F18091E80083FD55
:101E900030C08091E80082FDEACF8091E80080FFA9
:101EA000E1CF8091F3002091F200382F6115710588
:101EB00019F02830310558F091E02830310509F04B
:101EC00090E02091E8002E772093E800CBCF81911D
:101ED0008093F100615071092F5F3F4FE7CF8091F0
:101EE000BE02882341F0853041F08091E80083FFF5
:101EF000BECF81E0089582E0089583E008950895BB
:101F000008958091AA02089587E797E790930108C2
:101F10008093000888E19AE00FB6F894A895809322
:101F200060000FBE90936000FFCF2FB7F8946091D0
:101F3000A1027091A2028091A3029091A4022FBFEE
:101F4000089520919E0230919F022817390771F061
:101F500090939F0280939E02E0919C02F0919D02DB
:101F6000309721F00084F185E02D099408952091A7
:101F70009A0230919B022817390771F090939B02C7
:101F800080939A02E0919C02F0919D02309721F09B
:101F90000680F781E02D09940895E0919C02F0916C
:101FA0009D02309721F00190F081E02D099480E0AE
:101FB000089580E00895F894E82FE295EF70F0E03E
:101FC00031A1282F2F7081E090E001C0880F2A9561
:101FD000EAF7982F9095932391A392A1892B82A33E
:101FE000789408959091010292FF06C0282F2871DD
:101FF0002830F9F4877F846093FF06C0282F28716A
:102000002831F1F4877E84612091020220FF06C00E
:10201000382F38713830D9F4877F816021FF06C0AE
:10202000282F28712831D1F4877E816194FD877E25
:102030000895282F24712430F9F68B7F8860DCCF37
:10204000282F2471243101F78B7E8861DDCF382F52
:102050003171313019F78E7F8860E0CF282F2171E0
:10206000213121F78E7E8861E1CFCF93DF93EC01A0
:1020700082389105A9F1D8F58133910509F496C00C
:1020800048F58932910509F48AC08A9709F495C008
:10209000C11522E5D20708F0B6C0C11531E5D30756
:1020A00008F026C1C83ED10508F09CC0C03ED1054D
:1020B00060F5C83AD10508F087C0C53AD10508F0E7
:1020C000EFC0C130D10509F12097F9F0C430D10536
:1020D000E0F440C08533910509F45AC0C997C1F6B0
:1020E00080910102837089F0C0EED0E00EC0833E83
:1020F000910599F170F4803E910501F1823E9105C0
:1021000039F68091010282FD21C0CE01DF91CF918D
:102110000895863E910561F1873E910571F1843EF7
:10212000910509F0B5CF8091020281FFEECF809139
:102130000102C7EED0E084FD0DC0E7CF809101021F
:1021400080FD07C19091020290FFDFCFC3EED0E087
:1021500084FFDBCFD0E0C0E0D8CF8091010282FDC8
:10216000FBC09091020290FDBFCF84FFCECFF2CF93
:102170008091010283FDDDCFC8CF8091010283FDF4
:10218000EEC09091020291FFF0CFC4EED0E0BDCF3F
:102190008091010285FFB9CFC9E2D0E0B6CF80912E
:1021A000010285FFB2CFC5E3D0E0AFCF809101023D
:1021B00086FFABCFCAE2D0E0A8CF8091010286FFB4
:1021C000A4CFC1E3D0E0A1CFCF3BD10518F6C85AC8
:1021D000D0E0CC0FDD1FC65DDE4F0990D881C02D49
:1021E000D46493CFC11540E5D40708F064C0C1158D
:1021F00080E4D80708F05CC0CE019A9581159F4114
:1022000008F483CFA7CFC11536E5D30718F5C1155C
:1022100045E5D40708F084C0C11584E5D80708F067
:102220007AC09C2F969596959E0123703327C115F1
:10223000D34508F462C0C1E0D0E002C0CC0FDD1F7E
:102240002A95E2F730E2939FC0011124C82BD92BC5
:10225000DA685BCFC1158AE5D80778F4C11599E52E
:10226000D90708F068C0C11528E5D20708F472CF75
:10227000DC2FCC27C06FD06A48CFCE019056811595
:10228000904208F067CF8D2F8F710E94F20F90E07F
:10229000982F882788279F719C012C2BE90149C022
:1022A000C55AD0E0C95DDE4FC881D0E0D0642DCFE3
:1022B000DF70D06A2ACFCE01E4E096958795EA9543
:1022C000E1F783702C2F26952695237040E2249FFA
:1022D00090011124382B8C2F8370C1E0D0E002C014
:1022E000CC0FDD1F8A95E2F7C22BD32BDC680DCF14
:1022F000DC2FCC27C16FD06A08CFC1E0D0E002C08C
:10230000CC0FDD1F2A95E2F720E2929FC001112435
:10231000C82BD92BEBCFDC2FCC27C46FD06AF5CEDE
:102320008C2F0E94F20FC82FD0E0DC2FCC27CC27B7
:10233000DF71D062EACE8C2F8F700E94F20F34E0F2
:10234000D695C7953A95E1F7CF709C2FEC01D069EF
:10235000DCCEC9E3D0E0D9CEC2EED0E0D6CEC6EE18
:10236000D0E0D3CE8091F501882331F01092F501B1
:102370001092F4011092F301089580959091F2016A
:1023800098239093F20108951092E8011092E701CA
:102390001092E60108958091E50181111092E50106
:1023A0000895E2E9F1E09191891303C0DF011197EB
:1023B0001C9291E0E839F907B1F70895A2E9B1E07C
:1023C000EFEF90E02D91821751F0EF3F19F42111BA
:1023D00001C0E92F9F5F9630A9F7EF3F09F40895F8
:1023E0000E2E000CFF0BE057FE4F82830895809164
:1023F000E4019091B301981301C008958F5F877035
:10240000FACF9E3F51F1292F220FE22FE90FEE0F55
:10241000E80F9E2F9770E695E695E69583E0E89F96
:10242000F0011124E556FE4F50E040E080E021919C
:1024300030E0092E02C0369527950A94E2F7217004
:102440003327042E01C0220F0A94EAF7822B4F5F34
:102450005F4F4330510559F7089580E008959E3F3E
:1024600071F1292F220FE22FE90FEE0FE80F8E2FC7
:10247000877041E001C0440F8A95EAF7E695E6953A
:10248000E69583E0E89FF0011124E556FE4F30E029
:1024900020E070E05191DF011197CB01022E02C0C4
:1024A000969587950A94E2F7817081958527842314
:1024B00085278C932F5F3F4F2330310559F70895BF
:1024C0009C013A9521153F4150F5FC01EE27F17032
:1024D000BC0166277270AC01442754709C0122270E
:1024E000387094FF0EC080E1EF2B09F480E0672B79
:1024F00009F08062452B09F08064232B89F0806805
:10250000089581E0EF2B09F480E0672B09F08260E9
:10251000452B09F08460232B19F08860089580E032
:102520000895809154028F31D0F48091990190E008
:10253000019665E070E00E94D2308093990124E01A
:1025400030E0A901481B590BCA01982F8827990F21
:10255000805C984F0C948B0D80E495E0FBCF883223
:10256000D8F32091980130E02F5F3F4F217033273F
:102570002093980181E090E0821B930B982F88278D
:10258000990F805C9E4FE6CFCF92DF92EF92FF9241
:102590000F931F93CF93DF936C017B0164E670E090
:1025A00088E70E94B12FEC0197FD12C010E000E017
:1025B000F601E00FF11F849164E670E00E942B3079
:1025C000EC01892B29F40F5F1F4F0E151F0581F7B2
:1025D0000E94AE30CE01DF91CF911F910F91FF90FD
:1025E000EF90DF90CF90089580919802909199029A
:1025F000911103C091E089270895882369F062E072
:1026000070E08AEE94E10E94C412892B19F0809147
:10261000980208951092980280919802EBCFCF9380
:10262000C0919802809199028823D1F00E94950F61
:10263000605A75418F4F9F4F60939402709395023B
:102640008093960290939702C11108C062E070E0F7
:1026500088EE94E10E94C412892B29F0C09198025F
:102660008C2FCF91089581E080939802F7CFCF937C
:10267000DF93C091CD04D091CE048A30C1F4209173
:10268000C402CE018D5C9240622F70E00E94B23095
:10269000281B822F66E00E94C630C82FC15018F454
:1026A000DF91CF91089580E20E943713F7CF8D30EC
:1026B000E9F4CD5CD2402091C402622F70E0CE01DB
:1026C0000E94B230281B822F9E01280F311D211538
:1026D000324018F080E0D0E0C0E0C80FD11DC353F5
:1026E000DD4FD093CE04C093CD04DACF96E0FE0147
:1026F000A5ECB2E001900D929A95E1F7803E08F4C6
:1027000058C086E0FE0111928A95E9F7C091CD0488
:10271000D091CE0446E050E0BE0185EC92E00E94EC
:1027200096319E012D5C3240892B41F1C90145E073
:10273000969587954A95E1F741E050E0BA0102C0CD
:10274000660F771F8A95E2F7CB016091CB027091FB
:10275000CC02862B972BB9016B5F7F4FE5E0769516
:102760006795EA95E1F702C0440F551F6A95E2F7B5
:10277000842B952B9093CC028093CB022A5F3F4F02
:102780004091C402642F70E0C9010E94B230481B1E
:10279000463010F4240F311D211572E0370710F078
:1027A00030E020E023533D4F3093CE042093CD04FE
:1027B00077CFF6E08F9FB001112469567A4E46E03C
:1027C00050E0CE010E948D31A1CF8093A50270937D
:1027D000A7026093A6028091BE028430F9F4809330
:1027E000E9008FEF9091E800815095FD06C095EDCE
:1027F0009A95F1F700008111F5CF8091E80085FFEF
:102800000DC050E040E063E070E085EA92E00E9495
:102810001D0E8091E8008E778093E8000895BC013A
:1028200084E00C94E513BC0183E00C94E513CF9392
:10283000DF93EC0181E08093E9008FEF9091E80055
:10284000815095FD06C095ED9A95F1F70000811134
:10285000F5CF8091E80085FF14C050E040E068E0CB
:1028600070E0CE010E941D0E8091E8008E7780936B
:10287000E80088E0FE01ABEAB2E001900D928A9593
:10288000E1F7DF91CF910895CF93DF93C7EBD1E0CC
:1028900060E0CE010E944A342196C11584E0D80739
:1028A000B9F7DF91CF9108951F93CF93DF93122F44
:1028B0008430D8F4611119C04230B8F494E0899F93
:1028C000E001112450E0440F551FC40FD51FC95516
:1028D000DE4F632FCE010E944A34612FCE01019654
:1028E000DF91CF911F910C944A34DF91CF911F91CA
:1028F00008950F931F93CF93DF938901843048F598
:10290000683038F5463028F521153C4531F42091E2
:102910008E0230918F02232BE1F0C42FD0E0CC0F38
:10292000DD1F9CE0699FC00DD11D112490E6899F99
:10293000C00DD11D1124612FCE0187960E944A340B
:10294000602FCE018896DF91CF911F910F910C944B
:102950004A34DF91CF911F910F9108957F928F920A
:102960009F92AF92BF92CF92DF92EF92FF920F931E
:102970001F93CF93DF93C0908E02D0908F0281E09F
:1029800090E090938F0280938E0208EB13E188EC25
:10299000E82E83E1F82EC0E05701D0E015C0F40125
:1029A00025913491472D6D2F8C2F0E94791482E050
:1029B000880E911C739486E07812F1CF8CE0A80EFB
:1029C000B11CDF5FD83019F04501712CE8CFF80158
:1029D0002591349140E060E08C2F0E945414F8015E
:1029E00032962591349141E060E08C2F0E9454147E
:1029F0000C5F1F4FCF5F80E6E80EF11CC43009F07A
:102A0000CBCFD0928F02C0928E02DF91CF911F91D7
:102A10000F91FF90EF90DF90CF90BF90AF909F907D
:102A20008F907F900895CF93C82F6FEF811168E941
:102A300083E290E00E944A346FEFC11164EF84E2B8
:102A400090E00E944A346FEFC11167EE85E290E09A
:102A5000CF910C944A3480E00E94131560E086E226
:102A600090E00E944A340E94AE140E94441481E017
:102A70000C9413150F931F93CF93DF93843000F5BD
:102A800061111EC024E0829F8001112450E0440F98
:102A9000551F040F151F09551E4FC8010E943C34D5
:102AA000C82FD0E0DC2FCC27C80101960E943C340F
:102AB0009E01282BC901DF91CF911F910F9108959D
:102AC00090E080E0F8CF0F931F93CF93DF93843093
:102AD00030F5683020F5463010F5C42FD0E0CC0F2B
:102AE000DD1F2CE0629FC00DD11D112430E6839FB5
:102AF000C00DD11D1124CE0187960E943C34082FB1
:102B000010E0102F0027CE0188960E943C349801D7
:102B1000282BC901DF91CF911F910F91089590E06B
:102B200080E0F8CF462F2091920230919302232B20
:102B300091F47E3F39F46E3F71F480919002909150
:102B400091020895843038F4783028F4663018F40F
:102B5000672F0C94631590E080E00895CF92DF9288
:102B6000FF920F931F93CF93DF936C010091C302E9
:102B70008091BF02082BC7E0D0E010E0FC2EC80116
:102B80000C2E02C0959587950A94E2F780FD0CC043
:102B90002197A0F7F12C8F2DDF91CF911F910F91ED
:102BA000FF90DF90CF900895B6018C2F0E94921570
:102BB0000E943510019761F3EECFCF93DF93EC01C4
:102BC0000E94AE15BE010E949215DF91CF910C9428
:102BD0003510FC01808191810E94DD1592959F70D6
:102BE000963091F058F4925F9F70923058F4803F85
:102BF00019F030F4883E30F481E008959A5FF4CF04
:102C0000843FD1F380E00895883EB0F3813FD1F74F
:102C1000F3CF83E290E00E943C34883989F484E267
:102C200090E00E943C34843F59F485E290E00E9499
:102C30003C3491E0873E09F090E0892F817008953F
:102C400080E0FCCFCF9384E090E00E943C34C82F1A
:102C500082E290E00E943C34982F8C2FCF9108950F
:102C600069EE7EEF90E080E00E94683460E082E0F0
:102C700090E00E944A3460E083E090E00E944A3491
:102C80001092BF0260E084E090E00E944A3460E06D
:102C900082E290E00E944A3460E085E090E00E9489
:102CA0004A3460E086E090E00E944A346FEF87E0AB
:102CB00090E00E944A3440E050E0BA0188E090E0A1
:102CC0000E945C3460E08DE090E00E944A3440E075
:102CD00050E0BA0188E190E00E945C3460E087E156
:102CE00090E00E944A3440E050E0BA018CE190E06C
:102CF0000E945C3470E060E080E290E00E94683402
:102D000040E050E0BA0188E190E00E945C3480E04D
:102D10000E9413150E942B1540E050E0BA018FE08D
:102D200090E00E945C3440E050E0BA0183E190E022
:102D30000C945C341F920F920FB60F9211242F93B4
:102D40003F934F935F936F937F938F939F93AF9333
:102D5000BF93EF93FF938091E10082FF09C08091C0
:102D6000E20082FF05C08091E1008B7F8093E1004B
:102D70008091DA0080FF24C08091D80080FF20C0BD
:102D80008091DA008E7F8093DA008091D90080FFF5
:102D90009DC080E189BD82E189BD09B400FEFDCFFF
:102DA00081E08093BE028091A802811109C00E9437
:102DB000CD0D0E94C00E8091E20084608093E200FD
:102DC0008091E10080FF17C08091E20080FF13C076
:102DD0008091E2008E7F8093E2008091E20080612A
:102DE0008093E2008091D80080628093D80019BC63
:102DF00085E08093BE028091E10084FF2BC080912A
:102E0000E20084FF27C080E189BD82E189BD89B5E8
:102E1000982F917080FFFBCF8091D8008F7D809399
:102E2000D8008091E1008F7E8093E1008091E200E4
:102E30008F7E8093E2008091E20081608093E200C7
:102E40008091B502882309F447C084E08093BE02D4
:102E50008091BE028091E10083FF27C08091E20053
:102E600083FF23C08091E100877F8093E10082E0AF
:102E70008093BE021092B5028091E1008E7F809314
:102E8000E1008091E2008E7F8093E2008091E20079
:102E900080618093E20042E060E080E00E948E0E5C
:102EA0008091F00088608093F000FF91EF91BF91D6
:102EB000AF919F918F917F916F915F914F913F91D2
:102EC0002F910F900FBE0F901F90189519BC109264
:102ED000BE021092A80274CF8091E30087FD93E0B8
:102EE0009093BE02B5CF78941F921FB61F92112403
:102EF0008F939F93AF93BF938091A1029091A20271
:102F0000A091A302B091A4020196A11DB11D8093CE
:102F1000A1029093A202A093A302B093A402BF9136
:102F2000AF919F918F911F901FBE1F9018959C018C
:102F30004FB7F8948091A1029091A202A091A302B0
:102F4000B091A4024FBF821B930B08952FB7F89442
:102F50008091A1029091A202A091A302B091A4023B
:102F60002FBF08958F929F92BF92CF92DF92EF92E0
:102F7000FF920F931F93CF93DF93CDB7DEB72897C0
:102F80000FB6F894DEBF0FBECDBF8E010F5F1F4F8F
:102F900088E0F80111928A95E9F798E5E92E91E029
:102FA000F92EBB24B394CC24C394D12CF701819186
:102FB0007F018F3F09F449C0F894E82FE295EF7044
:102FC000F0E021A18F70A60102C0440F551F8A9521
:102FD000E2F7CA01922F982B91A392A180958923A1
:102FE00082A3789400C08EE5882E81E0982ED801C7
:102FF0006B2D6095F40191914F018D919D012150B0
:1030000031099F3F09F45DC0492F42954F7050E050
:10301000FA0140A150E09F7002C0559547959A95DE
:10302000E2F740FD4EC08B29F9018083F6E68F164A
:10303000F1E09F06F9F6F701319780818F3F11F09B
:103040000E94DB0F40EA4A95F1F7BB0C5EE5E516FE
:1030500051E0F50609F0AACF48E050E0B80189EF49
:1030600091E00E949631FF24F394009709F4F12C2B
:10307000892B49F188E0F801A9EFB1E001900D92A8
:103080008A95E1F781E08093F8010E94A61790935A
:10309000F7018093F6018091F6019091F7010E946B
:1030A00097170597A0F0E9EFF1E0A6E8B2E081E01C
:1030B00092E021912D938E179F07D9F71092F80176
:1030C00006C08623B1CF8091F8018111E4CF8F2D06
:1030D00028960FB6F894DEBF0FBECDBFDF91CF911B
:1030E0001F910F91FF90EF90DF90CF90BF909F9036
:1030F0008F9008958091F2019091F101892B809336
:1031000090018091F501882319F10E94A617209162
:10311000F3013091F401821B930B8838934110F036
:103120000E94B211809190019091F501892B8093BA
:10313000900120E082E991E0FC013191CF01311151
:103140002F5FF1E088399F07B9F721110E94B21172
:1031500048E050E069EE71E080E991E00E9496312C
:10316000892BA9F088E0E0E9F1E0A9EEB1E0019057
:103170000D928A95E1F7E0919C02F0919D023097C3
:1031800031F00280F381E02D80E991E00994089507
:1031900090E080E00E94B70F90E080E00E94A10FD5
:1031A0001092F1010C947A188093C3020C94C81801
:1031B0008091C302982F9670963019F488600C9411
:1031C000D418877FFCCF21E030E001C0220F8A9520
:1031D000EAF720958091C30282230C94D418909131
:1031E000E801809589238093E801282F277091F4C6
:1031F000282F082E000C330B9217130659F09091CC
:10320000020292FD07C08595859585950E94E31879
:103210000C94C4110895CF93C0910202C2FB992768
:1032200090F9981799F080FBC2F9C093020260915F
:10323000010284E090E00E944A346C2F82E290E028
:103240000E944A3482E0CF910C94EF18CF910895F8
:1032500021E030E001C0220F8A95EAF78091C30295
:10326000822B0C94D4188093BF020C94C81810922F
:10327000F201E2E9F1E086E0DF011D928A95E9F7CB
:103280000C94C8181F93CF93DF93CDB7DEB7AA97DE
:103290000FB6F894DEBF0FBECDBF86EB92E0209153
:1032A000F100DC012D93CD01B2E08E3B9B07B9F715
:1032B0008091B702833009F472C0B8F4813009F408
:1032C00049C0823009F4B3C08091E80083FF96C200
:1032D0008091B6029091B7029A3008F08FC2E92F20
:1032E000F0E0E058FB4C0C9427318A3009F48EC092
:1032F0008B3009F471C0893039F78091B602813280
:1033000019F78091BA029091BB02009711F00297D1
:10331000D9F68091E800877F8093E8008091E800EB
:1033200082FF38C09091F3008091F200029731F44F
:103330008091F100813011F0863021F48091F1000C
:103340008093AA028091E8008B778093E8000E9426
:103350006F0EBACF8091B602813A09F0B5CF809155
:10336000E800877F8093E8008091BA029091BB02C9
:10337000892B61F468E08BEA92E070E00E94210FF3
:103380008091E8008B778093E8009ECF60E090E02A
:1033900080E0F3CF8091BE028111C0CF95CF8091A4
:1033A000B602813A09F090CF8091BA029091BB02A7
:1033B000892B09F089CF8091E800877F8093E8000E
:1033C0008091E80080FFFCCF809114018093F10090
:1033D0008091E8008E77B9CF8091B602813209F0F2
:1033E00073CF8091BA029091BB02892B09F06CCF08
:1033F0008091E800877F8093E8000E946F0E8091A3
:10340000B802809314010E9437195ECF8091B602F2
:10341000813209F059CF8091E800877F8093E800DE
:103420000E946F0E8091B9028093A9024DCF8091C6
:10343000B602813A09F048CF8091E800877F8093F7
:10344000E8008091E80080FFFCCF8091A902BECF08
:10345000803899F0823809F0D1C18091BA028F701A
:10346000873008F0CBC18093E9008091EB0085FBA9
:10347000882780F91092E90006C08091B3029091EC
:10348000B402911182609091E800977F9093E800D8
:103490008093F1001092F1008091E8008E77AAC12C
:1034A000882309F498C1823009F0A8C18091B8023C
:1034B00081119BC18091BA028F702FEF280F2630A7
:1034C00008F09CC18093E9002091EB0020FF8DC1A2
:1034D000933031F48091EB0080628093EB0085C1E2
:1034E0009091EB0090619093EB0021E030E001C0FF
:1034F000220F8A95EAF72093EA001092EA00809161
:10350000EB008860EACF811179C11091B8021F7772
:103510008091E3008078812B8093E3008091E80024
:10352000877F8093E8000E946F0E8091E80080FF03
:10353000FCCF8091E30080688093E30082E011116A
:1035400083E08093BE025AC18058823008F056C191
:103550002091B8023091B9022C3DE3E03E07A1F57D
:1035600083E08A838AE289834FB7F894DE01139659
:1035700020E03EE051E2E32FF0E050935700E49169
:1035800020FF03C0E295EF703F5FEF708E2F90E059
:10359000EA30C0F0C7968D939D932F5F243159F781
:1035A0004FBF8091E800877F8093E8006AE270E077
:1035B000CE0101960E94210F8091E8008B778093C5
:1035C000E8001CC1C096E7CF8091BA029091BB027F
:1035D000432F55274330510509F44AC078F541304F
:1035E000510509F485C08BE590E0ECEEF4E1423042
:1035F000510509F003C12091E800277F2093E800DE
:103600002091BC023091BD028217930708F49C01FF
:1036100040E02115310509F070C041116EC0809164
:10362000E80082FDC9CF8091BE02882329F285304F
:1036300019F28091E80083FFF2CFBECF41325105ED
:1036400009F447C04232510509F0D8C083309105D2
:1036500008F0D4C0FC01EE0FFF1FEF57FE4F0190A2
:10366000F081E02D82589E4FDC018C9190E01DC0CE
:10367000332721303105E9F02115310579F0223069
:103680003105F9F02330310509F0B8C0E9E5F5E17D
:10369000E4918E2F90E0E9E5F5E107C0E3E9F5E17B
:1036A000E4918E2F90E0E3E9F5E1009709F4A6C0DC
:1036B000A2CFE3E8F5E1E4918E2F90E0E3E8F5E1B5
:1036C000F4CFE7E7F5E1E4918E2F90E0E7E7F5E14D
:1036D000ECCF8330910508F091C0880F991FFC0151
:1036E000E957FE4F0190F081E02D89E090E083CF13
:1036F00082E190E0E7E4F5E17ECF8091BE0288238D
:1037000009F45ACF853009F457CF8091E80083FD42
:1037100053CF8091E80082FD82CF8091E80080FF46
:1037200078CF9091F3008091F2002115310519F0C6
:103730008830910550F041E0089709F040E0809111
:10374000E8008E778093E80064CF44914093F100C5
:103750003196215031090196E8CF803809F04EC0EA
:103760008091E800877F8093E8008091B502809384
:10377000F10092CE811142C01091B8021230F0F5E2
:103780008091E800877F8093E8001093B5020E9443
:103790006F0E112311F084E005C08091E30087FDD6
:1037A000FACF81E08093BE0242E061EC81E00E94AA
:1037B0008E0E42E261EC84E00E948E0E42E261ECE9
:1037C00082E00E948E0E42E260EC83E00E948E0E48
:1037D0008091BE0213C08091B802813079F481E0FB
:1037E000933009F080E08093B4021092E900809158
:1037F000E800877F8093E8000E946F0E8091E800C8
:1038000083FF0AC08091E800877F8093E800809161
:10381000EB0080628093EB00AA960FB6F894DEBFAF
:103820000FBECDBFDF91CF911F9108951F920F92D0
:103830000FB60F9211242F933F934F935F936F9383
:103840007F938F939F93AF93BF93CF93DF93EF9328
:10385000FF93D091E900DF708091EC00C82FC17018
:1038600080FDC0E81092E9008091F000877F80938E
:10387000F00078940E9442191092E9008091F000C3
:1038800088608093F000CD2BCF70C093E900FF914A
:10389000EF91DF91CF91BF91AF919F918F917F91E8
:1038A0006F915F914F913F912F910F900FBE0F90AD
:1038B0001F901895882341F080959091F1018923FC
:1038C0008093F1010C947A180895882339F090912F
:1038D000F101982B9093F1010C947A1808958823A4
:1038E00021F00E94BD110C947A180895882339F0B4
:1038F0009091F201982B9093F2010C947A1808950C
:10390000882309F44BC0823871F40E94CD0F81FFE7
:1039100045C089E30E94DE110E947A1889E30E9463
:10392000D1110C947A18833859F40E94CD0F80FF7E
:1039300035C083E50E94DE110E947A1883E5EFCF3F
:10394000843859F40E94CD0F82FF28C087E40E947A
:10395000DE110E947A1887E4E2CF9CEF980F913A2B
:10396000F0F290E2980F983050F4877091E001C027
:10397000990F8A95EAF7892F0E94BD11D2CF9BE556
:10398000980F933020F490E080E00C94B70F885AA1
:10399000873120F490E080E00C94A10F0895CF933C
:1039A000C82F882309F488C08238C1F40E94CD0F43
:1039B00081FD82C089E30E94DE110E947A182FEFF8
:1039C00081EE94E0215080409040E1F700C000007B
:1039D00089E30E94D111CF910C947A188338A1F415
:1039E0000E94CD0F80FD68C083E50E94DE110E9419
:1039F0007A182FEF81EE94E0215080409040E1F75B
:103A000000C0000083E5E5CF8438A1F40E94CD0F0B
:103A100082FD52C087E40E94DE110E947A182FEFC7
:103A200081EE94E0215080409040E1F700C000001A
:103A300087E4CFCF8CEF8C0F813A68F4E2E9F1E0B4
:103A40008191C81799F121E0E839F207C9F78C2F65
:103A50000E94DE11C0CF80E28C0F883068F4C770FE
:103A600021E030E001C0220FCA95EAF78091F2010F
:103A7000822B8093F201AFCFEBE5EC0FE33040F403
:103A8000F0E0E95DFE4F808190E0CF910C94B70F9C
:103A9000C85AC73188F4EC2FF0E0EE0FFF1FE65D47
:103AA000FE4F80819181CF910C94A10F8C2F0E94A9
:103AB000D1110E947A18CBCFCF9108951F93CF9345
:103AC000DF93182FD0E0C0E0893311F4C0E5D0E0D7
:103AD000812F0E94CF1C209731F4812FDF91CF914D
:103AE0001F910C94801C8FE99FE00197F1F700C0B3
:103AF00000002197F0CF0F931F93CF93DF93C62F32
:103B0000D42F022FFC0182818823A1F06093C2028E
:103B10000E94A6179093C1028093C002C77081E0F3
:103B200001C0880FCA95EAF7DF91CF911F910F91DD
:103B30000C94761C8091C202681335C08091C0023B
:103B40009091C1020E949717883C910560F510E2A0
:103B50001D0FCD17B9F080E28C0F883040F4C7708C
:103B600081E001C0880FCA95EAF70E946F1C1830E7
:103B700048F481E09D2F977001C0880F9A95EAF76D
:103B80000E94761C802F0E945E1D183098F4D7701A
:103B900081E001C0880FDA95EAF7DF91CF911F919C
:103BA0000F910C946F1CC77081E001C0880FCA95FB
:103BB000EAF7F3CFDF91CF911F910F910895AF9264
:103BC000BF92CF92DF92EF92FF920F931F93CF930A
:103BD000DF93EC018AE0A82E2881222309F48CC00F
:103BE0002130C9F599818A81913021F422960E9471
:103BF0005E1D05C0923029F422960E94CF1C2196AA
:103C0000EBCF933021F422960E94801CF8CF9430A1
:103C100011F02196F4CF229630E020E0AE014F5F04
:103C20005F4F8053990B8A30910550F02150310934
:103C300030F38FE99FE00197F1F700C00000F6CF65
:103C4000A29EB001A39E700D11249C01260F371F68
:103C50008981EA01E3CFE22FF0E0E059FE4EB49013
:103C6000822F86958695869590E0FC01E05AFE4E5F
:103C7000E4902770F12C022E02C0F594E7940A9488
:103C8000E2F731E0E322FF24FC01E05BFE4EC4904A
:103C9000D12C022E02C0D594C7940A94E2F731E0E9
:103CA000C322DD24FC01E05CFE4E049110E002C062
:103CB000159507952A95E2F701701127E114F10493
:103CC00019F081EE0E94CF1CC114D10419F086EEC8
:103CD0000E94CF1C8B2D0E945E1DCD2819F086EE10
:103CE0000E94801CEF2819F081EE0E94801C012B9D
:103CF00009F485CF8CE27BCFDF91CF911F910F919B
:103D0000FF90EF90DF90CF90BF90AF90089590918B
:103D1000020292FD10C098E0899F90011124622B4D
:103D20006093E8010E9428190E94A6179093E7016A
:103D30008093E60108950C9428191F93CF93DF9385
:103D4000CDB7DEB767970FB6F894DEBF0FBECDBF15
:103D50004B8B5C8B6D8B7E8B8F8B61111092F10185
:103D60001A8A198A85E0FE017396DE011D9601907C
:103D70000D928A95E1F78091020282FD1CC00E949B
:103D8000A6172091E6013091E701821B930B88383A
:103D9000934120F08091E80182FF7FC00E94A61726
:103DA0002091F3013091F401821B930B88389341E9
:103DB00010F00E94B21186E0FE013D96DE011796DA
:103DC00001900D928A95E1F7CE0107960E942B266D
:103DD000882389F016E08091E4019091B301891362
:103DE00049C067960FB6F894DEBF0FBECDBFDF9116
:103DF000CF911F91089586E0FE013796DE0111965E
:103E000001900D928A95E1F78A859B85892B11F3A4
:103E10008F81988589238F3FE9F22091B30130E0AB
:103E2000C9010196877099274091E4014817190646
:103E300071F40E9437191092B3011092E40186E0E8
:103E4000EDEAF1E0DF011D928A95E9F7C3CF96E034
:103E5000929FD001939FB00D1124AC54BE4FFE0130
:103E6000319601900D929A95E1F78093B3010E94EB
:103E7000F711B0CF819FC00111248C549E4F0E9436
:103E80002B26882309F4ADCF8091E40190E00196C0
:103E9000877099278093E4019ECF82E00E94EF18FB
:103EA0007DCF0F931F93CF93DF9300D000D00F925D
:103EB000CDB7DEB78C0190939102809390020115EB
:103EC00080E2180720F5802F0E94801CC8010E9404
:103ED00060129801205E31092830310510F0012B65
:103EE00059F40F900F900F900F900F90DF91CF919A
:103EF0001F910F910C946F1C0F900F900F900F90CB
:103F00000F90DF91CF911F910F910C945A1C8EEF5F
:103F100089838A831B820E94A6178160782F9D83E4
:103F20008C8349815A816B818D810F900F900F9006
:103F30000F900F90DF91CF911F910F910C949D1EC8
:103F40000F931F93CF93DF9300D000D00F92CDB784
:103F5000DEB78C019093910280939002011580E26C
:103F60001807E8F4C8010E9460129801205E310928
:103F70002830310518F00115110571F40E94761CE6
:103F8000802F0F900F900F900F900F90DF91CF9197
:103F90001F910F910C94CF1C0E94651CF1CF8EEFE6
:103FA00089838A8381E08B830E94A6178160782FA2
:103FB0009D838C8349815A816B818D810F900F90F5
:103FC0000F900F900F90DF91CF911F910F910C9454
:103FD0009D1EBF92CF92DF92EF92FF920F931F939D
:103FE000CF93DF93B82EC090C3028091BF02C82A3E
:103FF000C7E0D0E0D12CF12CE12CD701C6010C2E6A
:1040000004C0B695A795979587950A94D2F780FF37
:104010001FC04B2D60E08C2F0E943A158C0181301F
:104020009105B1F00E94A01F8FE39CE90197F1F781
:1040300000C00000C8010E94511F81E0DF91CF91B4
:104040001F910F91FF90EF90DF90CF90BF90089558
:10405000219798F64B2D60E080E00E943A15EC0124
:104060000E94A01F8FE39CE90197F1F700C00000B8
:10407000CE01E1CF8F929F92AF92BF92CF92DF920B
:10408000EF92FF920F931F93CF93DF9300D000D056
:104090000F92CDB7DEB76C01FC0183819481892B2F
:1040A00031F08081918189238F3F09F0F8C40F900E
:1040B0000F900F900F900F90DF91CF911F910F9164
:1040C000FF90EF90DF90CF90BF90AF909F908F9038
:1040D00008950E94AE15182F682F89819A810E9439
:1040E0002F1269817A81812F0E9492158C01F6012D
:1040F0002281222309F4C9C490568115F0E29F075A
:1041000050F0905E811530E1930728F0915C8115A5
:104110009F4108F03EC0C8019927AC0144505109A5
:104120004432510518F08B970E9780F4E0911202FB
:10413000F0E0EE0FFF1FE95EFD4F808191818F3F20
:104140005FE7950719F0019691838083C80182513A
:104150009F45409708F072C48FEF93E00E943C3473
:104160005EEEF52EF00E07EB11E0882339F1809119
:10417000E801877009F49BCFF6018281882309F456
:1041800096CF8091020282FD92CF82E00E94EF18CA
:104190008ECF90E080E00F3F110511F008F0BDCF09
:1041A000C801BBCF011584E0180709F3C8010E94BC
:1041B0003C34811101C0FA940F5F1F4FF110F2CF10
:1041C00019821A821B821C8299249A9478019FEF8B
:1041D000E91AF90AC8010E943C3489831A828823AB
:1041E00031F2813009F075C05801E2E0AE0EB11C29
:1041F000C7010E943C34E82E8A83882309F4B7CF94
:10420000C5010E943C34F82E8FEF8E0D833068F488
:104210005801F3E0AF0EB11CFB82FF2021F0CE016C
:1042200001960E94DF1D8501D1CF8BEF8E0D83306B
:1042300040F5C8010396FB825C01FF20A1F3580101
:1042400024E0A20EB11C0E943C348C83882359F3D5
:104250000B811C8101303FEF130710F0102F002756
:1042600046E0E41651F057E0E51619F0C8010E9447
:10427000A01FC8010E94511FD6CFC8010E94A01FD5
:10428000D2CF84E0E812CFCF580194E0A90EB11C40
:10429000C80103960E943C34FF2009F468CF8823AC
:1042A00009F465CF8150990B989E9001999E300D2D
:1042B0001124EF2DE150FF0BCF01820F931F0197C7
:1042C00008F4B1CFEFE9FFE03197F1F700C000004B
:1042D000F6CFCE0101960E94DF1D5701A4CF81E0E9
:1042E0000E9428190E94D81842CF81E00E94E3184A
:1042F000F9CF222309F4D1C382E0F2CF053FECE5E8
:104300001E0709F460C008F45AC0063F3CE51307D5
:1043100009F45DC0222309F4D3C31092C202033012
:104320004DE5140708F05AC00A3F5CE5150730F464
:10433000C80182509C45449708F05AC00E9422163A
:1043400090930202809301020131ECE51E0709F40B
:1043500022C108F09FC009302CE5120709F409C1F9
:1043600008F06EC005304CE5140709F4FAC008F0F7
:1043700054C003308CE5180709F4E9C008F0EDC01B
:1043800080910102816002301C4509F4E3C0609114
:1043900001021091020284E090E00E944A34612FF1
:1043A00082E290E00E944A340E943719E0CE27E270
:1043B00045EE65EE66C326E241EE60EE62C327E29B
:1043C00045EE64EE5EC326E241EE62EE5AC327E29A
:1043D00045EE66EE56C328E241E0EBCF01368DE5AF
:1043E000180709F4ABCF053A9DE5190709F4A6CFE4
:1043F0000631FCE51F0709F06EC38091F2018A7A4D
:1044000091E009F490E090939A018111EEC089E265
:104410000E94DE110E947A18AACE80910102806269
:104420000730FCE51F0709F495C080910102806107
:1044300008301C4508F48EC08091010280648AC057
:10444000809101028B7F0D303CE5130709F482C097
:1044500070F4809101028E7F0B305CE5150709F442
:1044600079C008F48CC0809101028D7F73C0809167
:1044700001028F7E0F309CE5190709F46BC0809113
:104480000102877F00311C4508F464C0809101025D
:104490008F7D60C00D3FFCE51F0709F478C050F523
:1044A00005313CE5130709F480C098F480910102BE
:1044B000837F03315CE5150709F44CC008F46FC035
:1044C0000E94371990910102892F97FB87F9805834
:1044D00041C00B3F9CE5190709F447C008F053C0E1
:1044E0008091020281600A3F1C4509F050CF809301
:1044F00002024DCF01302DE5120709F462C0B8F475
:10450000809102028C7F0F3F4CE5140781F380916C
:104510000202836001151D4550F380910202982F1D
:10452000909591708E7F892B90FB81F9E0CF0136B9
:104530008DE5180709F44BC0053A9DE5190709F404
:104540004DC002301D4509F022CF60E03BC0809194
:1045500001028260809301021ACF8091010284607F
:10456000F9CF809101028860F5CF809102028260CC
:10457000BECF0E943719809101028068EBCF8091F5
:1045800001028C60E7CF809102028E7FB0CF8091D4
:1045900002028D7FACCF809101028F7BDBCF0E9426
:1045A0003719809101028F77D5CF8091010282FB6C
:1045B000992790F921E0922790FB82F990FB83F9EB
:1045C000C9CF61E08EE090E00E944A34E0CE909145
:1045D0000102892F8F7E94FF8061BCCF90910102F0
:1045E000892F8E7F90FF8160B5CF85E311CF85E362
:1045F0006FC20E9437192FEF34E34CE02150304056
:104600004040E1F700C000000E94840F81E083C2B7
:1046100080E081C2C8010E940112F82E8DC2212FB4
:104620002F70F22E107F19F0F29490EFF922EE2005
:10463000B9F0FF2069F080E2800F883010F081101F
:1046400009C08091F201F82AF092F2010E947A18D2
:10465000802F4AC08091F101F82AF092F101F6CF43
:10466000802F0E94801CFF2009F440C0005E0830AB
:1046700010F0811004C08F2D0E94BD1106C0F0946F
:104680008091F101F822F092F1010E947A182EC077
:10469000312F3F70F32E107F103219F0F29480EF1B
:1046A000F822882089F041E0841609F487C0EE20C2
:1046B00009F490C0BB2009F465C0F601858180FF34
:1046C000C7CF8F7085835EC08091020282FF35C0A4
:1046D000EE2069F1FF2039F08091F201F82AF09282
:1046E000F2010E947A1880E00E94CF1C292D2850E8
:1046F000330B2430310510F40E94CD0FAA2009F4A9
:10470000D6CC8091E80180FDD2CCF601128285954D
:10471000859585950E942819C6010E943A208091AE
:10472000E8018595859585950E94E318C0CC80E0C9
:104730000E94801CFF20D1F29ECFEE2039F1B110F3
:1047400004C08091F5018F291EC051E0B51210C040
:1047500082FDCCCF8091F501F82AF81639F20E943B
:10476000A6179093F4018093F301F092F501BECF68
:1047700085E0B812E6CF0E94B2118091E501F812EF
:10478000F092E5018F2D0E94761CB0CFB11006C0CB
:104790000E94B2118F2D0E946F1CA8CF91E0B91218
:1047A00008C08091F2018F2109F4A0CF0E94CB11A3
:1047B000EFCFE5E0BE1609F499CFEACFEE2029F05D
:1047C000F5E0FB1508F492CFDDCF24E02B1508F4BB
:1047D0008DCFE0CFBB20F1F2F9E38F1209C02FEFAC
:1047E00037EE43E0215030404040E1F700C0000088
:1047F000802F0E94801C7ACF812F869586958370AA
:1048000061F0813009F072CFC8019370E11002C0ED
:1048100090E080E00E94A10F69CFC8019370E11081
:1048200002C090E080E00E94B70F60CF812F8370BC
:1048300089F5E1105BCF402F429546954770440FB4
:10484000440F802F8F70042E01C0880F0A94EAF75E
:10485000202F207104FF07C02FE030E001C0220F9D
:104860004A95EAF72095169516951370123069F05F
:1048700050F43091BF02113029F0822B83230E9423
:10488000331934CF832B822BFACF282B8091BF0290
:104890008227F5CF8695EE2011F0812F8170882335
:1048A00009F424CF402F429546954770440F440F9A
:1048B000802F8F70042E01C0880F0A94EAF7202FF2
:1048C000207104FF07C02FE030E001C0220F4A959D
:1048D000EAF72095169516951370123069F050F48A
:1048E0003091C302113029F0822B83230E94D41807
:1048F000FDCE832B822BFACF282B8091C3028227F7
:10490000F5CF1F70EE2029F0812F0E942819802FEB
:104910003ACF802F0E946F1C812F0E94E318E6CEB1
:10492000802F52EF8516A9F1581570F090EF891677
:10493000D1F0E1EF8E1691F0EE2009F46FC0B110C6
:1049400087CE812F8F7129C0F3EF8F1649F124EFA5
:104950008212F2CF8091020282FF2DC0812F8F71CF
:10496000EE20D9F21AC0EE2079F034E03B1508F4BD
:10497000BDCE1F7181E090E001C0880F1A95EAF763
:104980009091C3028927B2CF45E04B1508F4AECE13
:10499000F0CF812F8F71E110C0CF0E942819A6CED1
:1049A00080E0EE2009F4A2CF1F7181E001C0880FE2
:1049B0001A95EAF79BCF8091E501EE20D9F00E948D
:1049C000BD118091E8018770843041F40E94C411C8
:1049D000812F8F710E94E318A12C88CE54E05B15C3
:1049E000D8F31F71812F0E94281963E0812F0E9444
:1049F000871EF2CF9091F201982B9093F20184E000
:104A00008B1540F40E94C4110E94CB1164E0812FE9
:104A10008F71EDCF81E00E94EF18DECFBB2059F0FF
:104A2000893309F0E5CE9FEFE7EEF3E09150E040E7
:104A3000F040E1F7DBCE812F8F716FCF0031FFE5C2
:104A40001F0709F44CCC01313FE5130709F451CCA1
:104A5000033F3CE5130709F4AECC08F04FCC083D0A
:104A60005CE5150709F4A3CC093D8CE5180709F4AA
:104A7000B2CC073D9CE5190709F04CCC26E241EE8B
:104A800061EEC6010E947B1D72CB80314FE5940719
:104A900009F42BCC81319F45D9F682E027CC85E003
:104AA000DE01119601900D928A95E1F7F6012281BF
:104AB00089819A8121110DCB0E940112182F11CBEF
:104AC00006311C4551F580919A01811190CD89E202
:104AD0000E94D1119FCC0A352DE5120709F496CD1D
:104AE00058F401154CE5140709F483CD0E3D1C451F
:104AF000A1F40E9430163BCB0B358DE5180709F465
:104B000087CD0C351D4549F48091020282FB882730
:104B100080F991E089270E940B19F60182810081BA
:104B20001181882309F476CDC8010E94AE15F82EB4
:104B3000682FC8010E942F12B8018F2D0E94921574
:104B40000E9435108C01882EF601E280B580B29467
:104B50003FE0B3228091E8018770C1F0AE2CEE20D7
:104B6000B1F0812F807F803421F080E2800F883087
:104B700068F08091020282FD09C082E00E94EF1875
:104B80008091E8018770AA24A3948111A12C912E11
:104B900092942FE09222FBE0F91508F4A7CDE92DBD
:104BA000F0E0E657FB4C0C9427311F93CF93DF9333
:104BB0008091B201807FA9F48091AF01882389F0B0
:104BC0008091E401D091B3016091AD017091AE018B
:104BD000A091B001B091B101C62FC72316E0D81340
:104BE00004C0DF91CF911F91089590E0109711F0CC
:104BF000CF3F19F401968770F2CF189F9001199F4B
:104C0000300D1124F901EC54FE4F41814713F2CFCE
:104C100040814613EFCF42814111ECCF4381548153
:104C20004A1B5B0B483C510528F78091B2018F70FD
:104C300080618093B201F901E754FE4F80818F704B
:104C4000806180838DEA91E00E943A20DF91CF91CC
:104C50001F910C94F711AF92BF92CF92DF92EF9217
:104C6000FF920F931F93CF93DF93CDB7DEB761977A
:104C70000FB6F894DEBF0FBECDBF8C0185E0F80102
:104C8000DE011D9601900D928A95E1F7F801E28010
:104C90008DEAA82E81E0B82E6091B0017091B1012B
:104CA0006115710509F432C19091AD014091AE01D9
:104CB000892F84238F3F09F429C120813181C3804A
:104CC000D480F090AF01F601E61BF70BFF2009F44A
:104CD000E8C08091B201582F507FE83CF10508F000
:104CE000ABC0511177C0FE2C431321C092131FC0DB
:104CF000E1101DC08F7080618093B201C5010E94D8
:104D00003A208091B201F80185838F2D61960FB60C
:104D1000F894DEBF0FBECDBFDF91CF911F910F91F1
:104D2000FF90EF90DF90CF90BF90AF900895CD2887
:104D300029F0822F83238F3F09F003C180E0F82FF1
:104D4000F170DF2E80FF3CC08091E4014091B301FF
:104D500056E0841315C02D873E878D859E850E9461
:104D6000DD15292F22952F702230F0F0243018F510
:104D70009F70F1F0F8019581907FD1F4D12C1EC085
:104D800090E0589FF001599FF00D1124EC54FE4F14
:104D90006181361306C06081261303C06281E6126A
:104DA0000FC001968770D5CF9F7011F0882331F323
:104DB000805E883018F3C8010E943A20FD2CA5CFF0
:104DC000EE2009F4A2CF8091B20181608093B201FC
:104DD000F12C9BCF431306C0921304C0F801EE20C0
:104DE00009F479C0C8010E94E915882309F1EE2071
:104DF000F9F08091B201803270F02091AD013091D4
:104E0000AE0138872F831986DB86CA868C87CE0150
:104E100007960E943A2086E0F801ADEAB1E00190E1
:104E20000D928A95E1F70E94D525FF24F3946DCF6A
:104E3000C8010E943A20F9CF51110AC08DEA91E0D1
:104E40000E943A2086E0F50111928A95E9F7C0CFD9
:104E500043130FC092130DC0E1100BC0F8018583FE
:104E6000C8010E943A2086E0F50111928A95E9F77F
:104E70004CCFC8010E94E9158823D1F2EE20C1F27F
:104E80008091B201803238F22091AD013091AE01B3
:104E90003A8329831B82DD82CC828E83CE010196E8
:104EA000B8CFE83CF105F8F6FE2CEE2009F24313EA
:104EB0001FC092131DC08091B20180FD10C0982FB9
:104EC000907F69F0F8018583903F31F0982F907FB3
:104ED000905F8F70892B8583C8010E943A2086E0FD
:104EE000F801ADEAB1E001900D928A95E1F70DCF9E
:104EF000C8010E94E91581118ECF8091B2018160B5
:104F00008093B201C8010E943A20FFCEEE2009F43E
:104F10008FCFC8010E94E915F82E882309F488CFA5
:104F200086E0F801ADEAB1E001900D928A95E1F7D3
:104F30008091AD019091AE010E94DD150E94D525B2
:104F4000E4CE81E08E25FBCE1F921FB61F92112466
:104F50008F939F93AF93BF938091A002811113C051
:104F60008091A1029091A202A091A302B091A4020B
:104F70004196A11DB11D8093A1029093A202A0931E
:104F8000A302B093A402BF91AF919F918F911F9004
:104F90001FBE1F901895CDB7DEB7E7970FB6F894F0
:104FA000DEBF0FBECDBF84B7877F84BF0FB6F89436
:104FB000A8958091600088618093600010926000E5
:104FC0000FBE80E890E00FB6F89480936100909354
:104FD00061000FBE85B7806885BF85B7806885BFD3
:104FE00089ED9FE090938F0180938E010E94CD0DFB
:104FF0000E94C00E8091E20084608093E200789469
:105000008091BE028823A1F01091E9001F70909159
:10501000EC00892F817090FD80E8182B1092E90038
:105020008091E80083FD0E9442191F701093E900EF
:1050300082E084BD93E095BD9AEF97BD80936E00AA
:105040000E940916811102C00E942B1508E511E08B
:105050009EE5E92E91E0F92ED8018D918D018F3FCB
:1050600011F00E94DB0FE016F106B1F70EE511E03A
:1050700086E6E82E81E0F82EF80181918F018F3FBE
:1050800011F00E94DB0FE016F106B1F788E0E6E8C8
:10509000F2E0DF01282F1D922A95E9F7E9EFF1E010
:1050A000DF011D928A95E9F790E080E00E94443488
:1050B000893E9E4F21F40E940916811102C00E9470
:1050C000301682E090E00E943C34809303020E94FC
:1050D000221690930202809301020E94B217EFE31E
:1050E000FCE93197F1F700C000000E94B2178091EF
:1050F000860280FF08C06FEF7FEF90E080E00E94A3
:1051000068340E94840F83E090E00E943C340E9447
:10511000331910927F0280E88093C4020E94AB2F63
:105120006DE070E083E092E10E94C412892BE9F502
:1051300080917F0263E070E081FD8FC280E092E1A8
:105140000E94C412892B89F56DE070E080EF91E137
:105150000E94C412892B49F50E94950F605A75412F
:105160008F4F9F4F609394027093950280939602A5
:1051700090939702EDECF2E080E092E0DF019C0179
:105180001D9221503040E1F7F093CE04E093CD041E
:105190008FEF9FEF9093CC028093CB0281E08093BE
:1051A0009902809398021092800253985B9A5298C9
:1051B0005A9AEFE8F1E03197F1F700C0000089B1A9
:1051C00083FB882780F94A994BC290E0892B809312
:1051D0004B0280E091E090939D0280939C0286E8D0
:1051E00092E038E0380F3DAB8091BE0210E4F12E22
:1051F00000E112E1853009F46CC20E94B217E82E7A
:1052000081110E94950FA6E8B2E0E4E0F2E010E020
:1052100000E0302F8D919191981709F469C2292FE0
:10522000282790E0FF24F394422F4F2109F45BC21A
:1052300099A73AA78F2191E009F490E09BA70E94DB
:10524000A6178160782F9DA78CA749A55AA56BA5A5
:105250008DA50E949D1EF801EC5FFD4F8081F82610
:10526000F0828090170290901802092C000CAA0876
:10527000BB0880910C0190E0E7E1F2E021E030E032
:105280003296821793070CF04AC2809113029091D4
:105290001402A0911502B09116026FB7F8944090D5
:1052A000A1025090A2026090A3027090A4026FBF6E
:1052B000481A590A6A0A7B0A10910C01A9EC4A168D
:1052C00051046104710414F18091120290E001967E
:1052D00069E170E00E94D23080931202880F991F1A
:1052E000FC01E95EFD4F11821082812F183108F018
:1052F00087E18F5F80930C010E94950F60931302EA
:10530000709314028093150290931602B2E08B16EC
:105310009104A104B1040CF40FC2A0E6BAEEA501F9
:1053200094010E9434314B015C01E8EC1E9F900116
:105330001124032E000C440B550B240D351D461D66
:10534000571DA5E0B0E00E9434319B01AC01C501BE
:10535000B4010E94E63029013A01F1EF4F165104E1
:10536000610471042CF0A0EF4A2E512C612C712C99
:1053700080910E0290910F02A0911002B091110243
:105380002FB7F8948090A1029090A202A090A3025F
:10539000B090A4022FBF881A990AAA0ABB0A25E670
:1053A00082169104A104B10484F00E94950F6093C9
:1053B0000E0270930F02809310029093110280915D
:1053C000540280930D0240920C0210910D02A091A4
:1053D0000C02A11BBB0BA50194010E943F3124E6E6
:1053E00030E040E050E00E940831120F1093540268
:1053F000E0914B02EE0FEE0FE0934B0289B183FB7D
:10540000882780F98BAB1CAA4A999AC180E0ABA986
:10541000BCA98A2BE82BE0934B02EF70F0E0EA592D
:10542000FE4F808190914A02890F80934A02F12CAD
:10543000843054F0809149028F5F8093490280E06C
:105440000E94E91FFF24F39480914A028D3F54F497
:105450008091490281508093490281E00E94E91FB6
:10546000FF24F39480914A02082E000C990B64E00B
:1054700070E00E94D23080934A02F1100E94950F92
:1054800080919902882309F49FC08DEC92E090935B
:10549000CE048093CD0480915402882309F453C133
:1054A0000E940F134091500250915102609152029C
:1054B000709153022FB7F8948091A1029091A202AB
:1054C000A091A302B091A4022FBF841B950BA60B41
:1054D000B70B893C9105A105B10560F00E94950FBD
:1054E0006093500270935102809352029093530242
:1054F0000E9491120E94950F60934C0270934D028E
:1055000080934E0290934F028091C402F4E08F9FEB
:10551000C0011124811522E0920714F090E080E090
:1055200083539D4F9093CE048093CD048091540279
:105530001F928F938DE191E09F938F9305E512E089
:105540001F930F930E94AA31D8010D900020E9F714
:105550008D01015011090F900F900F900F900F9037
:105560000F90F5E5CF2EF2E0DF2EC016D10608F43D
:1055700033C180919902882371F02091CB02309140
:10558000CC022115310539F08091800261E070E094
:10559000882309F428C1809198028823A9F00E94E9
:1055A000950F0091940210919502209196023091EE
:1055B0009702601B710B820B930B6F3F7F4F8F4FD6
:1055C0009F4710F40E94F412E11001C0F1100E94F4
:1055D0000F130E94CD0F9091810289138093810255
:1055E0008091BE02843009F0FFCD83E08093E90012
:1055F0008091E80082FFF8CD8091E80090E085FF7F
:1056000006C00E94EC0D882309F4B5C191E0809199
:10561000E8008B778093E800992309F4E5CD0091A9
:1056200092021091930289810115110509F4BFC1FD
:105630008E3F09F043C28A81833020F08550833049
:1056400008F03CC2EA81EE3008F038C2F0E0EA56D9
:10565000FB4CCE0101960C9427318DEF91E170CD7A
:1056600092E0B4CD8091BE02843029F10E94F41200
:105670001092A00288E190E00FB6F894A89580936C
:1056800060000FBEF092600083B7817F846083BFAB
:1056900083B7816083BF7894889583B78E7F83BFFB
:1056A0000FB6F894A895809160008861809360009F
:1056B000109260000FBE8091B402882351F00E94C6
:1056C000B217E6E8F2E08191811127C49DA99E13EB
:1056D000FACF8091BE02853009F4C4CF0E943719F9
:1056E0000E94CD0F8ACD9F5FFF0C963009F09CCDB4
:1056F0000F5F1F4F0830110509F08BCD8FEF8EA77C
:105700008FA718AA0E94A6178160782F9AAB89AB41
:105710004EA55FA568A98AA90E949D1EA2CD4081C1
:105720005181052E000C660B770B840E951EA61E6C
:10573000B71E2F5F3F4FA4CD412C512C320118CE04
:1057400082E090E064CE40914C0250914D02609115
:105750004E0270914F022FB7F8948091A102909160
:10576000A202A091A302B091A4022FBF841B950BAB
:10577000A60BB70B813C9742A940B10518F00E94D7
:10578000F412C2CE409150025091510260915202E7
:10579000709153022FB7F8948091A1029091A202C8
:1057A000A091A302B091A4022FBF841B950BA60B5E
:1057B000B70B893C9105A105B10508F4A5CE0E945F
:1057C000950F609350027093510280935202909310
:1057D00053020E94911298CEF60181916F010E94AE
:1057E0003713C3CE8F5F082F10E02B01082E02C0A5
:1057F000440C551C0A94E2F7A90144215521452B7C
:1058000089F390917F0290FD44C08295880F807645
:1058100080930F019801369527953695279520930B
:105820001201815E809310011092130124E630E092
:1058300047E050E06DE071E088E70E945A30892B24
:1058400009F0A9CEA80175E0440F551F7A95E1F73C
:1058500080917F0280FD2BC043535D4F04E610E032
:1058600020E230E060E488E70E948130892B09F073
:1058700092CE0E940F13C201809590954090CB026A
:105880005090CC02482259225092CC024092CB0236
:1058900082CE880F880F880F80930F01109212011B
:1058A000895F8093100183E080931301BFCFEFE500
:1058B000F2E080E2DF011D928A95E9F7EAE7F1E084
:1058C000FFABEEAB06E711E067E0A62E99249394B8
:1058D000AEA9BFA92D91BFABAEABF80121908F014E
:1058E000240E352E311CC10183539D4F1C01E22F24
:1058F000F0E0E15AFD4F30E020E07A2C721AB92C2A
:10590000022E01C0BB0C0A94EAF7610190E0D601B7
:105910008D916D018B21672D691B6770862E062E78
:10592000000C770BB82F01C0BB0F8A94EAF78B2EBF
:105930007195619571096770772701C086956A95A1
:10594000EAF7882A8081882A80829F5F9830F9F65A
:105950002F5F3F4F31962830310579F6EEA9FFA928
:10596000EE57F14009F0B4CF04E610E020E230E059
:105970004FE552E077CF00E210E0CE0101967C01C6
:105980008091E80085FD0AC08091E8008B778093C4
:10599000E8000E94EC0D882399F338CE8091F10045
:1059A000D7018D937D010150110951F72FCE8C3015
:1059B00009F4D0C058F5843009F4B3C058F48230EB
:1059C00009F46BC008F09EC0813009F462C08FEF0B
:1059D000898374C0863009F4BAC008F4ADC08B3036
:1059E000B1F780918E0290918F02892B09F466C0E5
:1059F000CE0101960E94470E3FEF81EE94E03150B8
:105A000080409040E1F700C000007BCB803109F47A
:105A1000D3C098F58E3009F4A4C008F49EC08091DC
:105A20008E0290918F02892B09F448C0EC80F12CF2
:105A30002DE1E216F10408F041C0CA80DB80DC24CD
:105A4000CD24DC248E010F5F1F4FE00EF11EC60136
:105A500089549E4F0E151F0589F139E4C31632E0B3
:105A6000D30628F4D80114966C910E944A340F5F33
:105A70001F4FBFEFCB1ADB0AEACF823109F4A1C076
:105A800008F49DC0833109F4C6C08E3F09F09FCF52
:105A9000D9CD1A8289E08B8311C08A81823009F4C2
:105AA00052C2833081F0813009F091CF0E94950F6E
:105AB0000E942D316B837C838D839E83CE01019662
:105AC0000E94470E91CB80918E0290918F02892B7C
:105AD000A9F3809186028B83809187028C838091C9
