:100000000C9456010C9473010C9473010C947301BD
:100010000C9473010C9473010C9473010C94730190
:100020000C9473010C9473010C9449190C941D1ACF
:100030000C9479140C9473010C9473010C94730157
:100040000C9473010C9473010C9473010C94730160
:100050000C9473010C94FF140C9473010C947301B1
:100060000C9473010C9473010C9473010C94730140
:100070000C9473010C9473010C9473010C94730130
:100080000C9473010C9473010C9473010C94730120
:100090000C9473010C9473010C9473010C94730110
:1000A0000C9473010C9473010C94730129001A00D1
:1000B00015001C000C0013001400080017001800A5
:1000C00012002A002B00160009000B000E0033005E
:1000D000040007000A000D000F00280035621D0013
:1000E000060005001000370038001B001900110041
:1000F0003600E500E000E2002C412C41E700AE00B4
:10010000E30000000251E600E400A80029001F00FF
:1001100021002300250027001E00200022002400CB
:1001200026002A0001000100010052002D003400C9
:1001300001000100010052002E0028000100010012
:10014000010050004F003800010001000100510083
:100150002E00010001000100010001000100AE00BD
:1001600001000000010001000100A8000100C95CBD
:100170000100010052000100C85C01000100000004
:10018000010001000100C45C0100000051000100F9
:10019000C35CC55C010050004F0001000100CB5C56
:1001A0000100010001005200CA5C010001000100D1
:1001B0000100520001000100010001005100010096
:1001C00001000000010050004F0001000A036C0014
:1001D000690074006C0000000E036D006F00680081
:1001E0006F007900740000000403090409023B0059
:1001F000020100A0FA090400000103010100092125
:1002000011010001224000070581030800010904D3
:100210000100010300000009211101000122320048
:1002200007058203200001120100020000000829D6
:1002300017535301000102000105010980A1018546
:100240000319012AB700150126B700950175108121
:1002500000C0050C0901A101850419012AA002159D
:100260000126A002950175108100C005010906A1B3
:1002700001050719E029E715002501950875018199
:10028000029501750881010507190029FF1500264F
:10029000FF009506750881000508190129059505D7
:1002A00075019102950175039101C00011241FBED3
:1002B000CFEFDAE0DEBFCDBF11E0A0E0B1E0E8ECC7
:1002C000F8E302C005900D92A239B107D9F722E0F8
:1002D000A2E9B1E001C01D92AF35B207E1F70E947B
:1002E0000C110C944C1C0C94000081110DC0662361
:1002F00039F06AE070E089EA0E948B0380E008959B
:100300006AE070E08AEAF8CF8130C1F78CEA6111C7
:1003100001C08BEA0E94A203F1CF81E0089581E041
:1003200008950C948F0108950C9493011F93CF931B
:10033000DF9300D000D00F92CDB7DEB749835A8348
:100340006B833091950189819A8131111DC066239B
:10035000B9F02223A9F00E94D007182F682F8981B5
:100360009A810E94790769817A81812F0F900F907D
:100370000F900F900F90DF91CF911F910C948F0EE3
:100380000E94A707182FEFCF0E94D00769817A81BA
:10039000EDCFFC01262F40815181628173818481E0
:1003A0000C94960181E00895CF93DF93EC0160E017
:1003B0000E94C901BE01DF91CF910C9494010C946D
:1003C000A90F0C94AC0F08950E9426060E94E30129
:1003D0002FEF84E39CE0215080409040E1F700C083
:1003E00000000C9423150F931F93CF93DF938C0180
:1003F00061E00E94C901EC01B8010E9491018823CB
:10040000A9F1B801CE010E945013882379F1B801F7
:10041000CE010E941911882349F1B801CE010E9432
:10042000BA12882319F1F8018281882361F0CB3553
:10043000FDE5DF0721F170F4C115ECE5DE07A1F061
:10044000CF3DDC45C9F0C801DF91CF911F910F91DD
:100450000C948D01CC358DE5D807A1F0CD35DD4567
:1004600091F70E94050CEFCF0E94E40180E0DF913C
:10047000CF911F910F9108950E94B90CF7CF0E9460
:100480000E0CE1CF0E94110CDECF0E945E140C9482
:100490005D020E9460020C94621408950C944D0257
:1004A00081E008950C9450020895CF93C82F0E94C4
:1004B0004E028C2FCF910C94520280E00C94550286
:1004C0000E94AC130C9455020E94AC1390919401BD
:1004D000981721F0809394010C9455020895CF93BE
:1004E000DF93CDB7DEB72B970FB6F894DEBF0FBE04
:1004F000CDBF4F83588769877A878B8761110E94A8
:10050000530B1E821D8285E0FE013796DE01119697
:1005100001900D928A95E1F78C819D81892B89F458
:1005200049815A816B817C818D819E810E94740AF0
:100530002B960FB6F894DEBF0FBECDBFDF91CF91E3
:10054000089589819A8189238F3F51F3CE010196C5
:100550000E94D2018111E4CFEBCFFC018081918117
:100560000C941208CF93C82F882309F483C08238D3
:10057000C1F40E94AC1381FD7DC089E30E940E0B83
:100580000E94730B2FEF81EE94E021508040904049
:10059000E1F700C0000089E30E94150BCF910C9495
:1005A000730B8338A1F40E94AC1380FD63C083E514
:1005B0000E940E0B0E94730B2FEF81EE94E02150EE
:1005C00080409040E1F700C0000083E5E5CF84382B
:1005D000A1F40E94AC1382FD4DC087E40E940E0B73
:1005E0000E94730B2FEF81EE94E0215080409040E9
:1005F000E1F700C0000087E4CFCF8CEF8C0F813A89
:1006000090F46C2F80910201909103010E940114DB
:10061000882329F08C2F0E94150B0E94730B8C2FBE
:100620000E940E0BBBCF80E28C0F883048F4C7705D
:1006300081E001C0880FCA95EAF70E94360BAECF61
:10064000EBE5EC0FE33040F4F0E0E15CFE4F80813D
:1006500090E0CF910C94C313C85AC73158F4EC2FD3
:10066000F0E0EE0FFF1FEF5EFE4F80819181CF9192
:100670000C94D913CF910895882309F44BC0823884
:1006800071F40E94AC1381FF45C089E30E940E0BF8
:100690000E94730B89E30E94150B0C94730B833833
:1006A00059F40E94AC1380FF35C083E50E940E0B05
:1006B0000E94730B83E5EFCF843859F40E94AC138A
:1006C00082FF28C087E40E940E0B0E94730B87E410
:1006D000E2CF9CEF980F913AF0F290E2980F9830A9
:1006E00050F4877091E001C0990F8A95EAF7892F3D
:1006F0000E943C0BD2CF9BE5980F933020F490E002
:1007000080E00C94C313885A873120F490E080E095
:100710000C94D91308951F93CF93DF93182FEB01F7
:100720000E94B202209731F4812FDF91CF911F9167
:100730000C943C038FE99FE00197F1F700C00000A3
:100740002197F0CF70E060E0893311F460E570E04C
:100750000C948B03882321F00E94360B0C94730BAE
:100760000895882321F00E943C0B0C94730B08958C
:10077000BF92CF92DF92EF92FF920F931F93CF938E
:10078000DF936C01D62FC72FFC011281F580F29404
:100790009FE0F9220E942C0BE82E8823B9F0E12E6D
:1007A0001123A1F08C2F807F803421F080E28D0F07
:1007B0008830D0F080913D0282FD16C082E00E9418
:1007C000D40B0E942C0B91E0E82EE926BC2EB294AB
:1007D0008FE0B822FBE0FB1508F468C0EB2DF0E0D9
:1007E000E25BF34E0C94E31BE12CF0CF0C2F0F7067
:1007F000C07F11F00295007F112399F0002359F07A
:1008000080E28D0F883010F0D11107C0802F0E9438
:10081000360B0E94730B8D2F41C0802F0E94460B18
:10082000F8CF8D2F0E943C03002309F43FC080E2E3
:100830008D0F883010F0D11104C0802F0E943C0B26
:1008400003C0802F0E944C0B0E94730B2FC00C2FF3
:100850000F70C07FC03211F00295007FDD2381F060
:10086000D13009F469C0112309F473C0FF2009F4E1
:1008700069C0F601858180FFCECF8F70858362C00D
:1008800080913D0282FF38C0112359F0002329F0E6
:10089000802F0E94360B0E94730B80E00E94B202F0
:1008A00005C080E00E943C030111C7CFEB2DE8504A
:1008B000FF0B349720F40E94AC130E945502EE20E7
:1008C00009F467C10E94280B80FD63C1F601128202
:1008D0000E94220B0E94DD06C6010E94EA050E94CA
:1008E000220BDF91CF911F910F91FF90EF90DF903E
:1008F000CF90BF900C94FE06112389F0F11006C032
:100900000E94560B802B0E94AA03D0CF21E0F21246
:10091000F7CF0E94560B802B0E945C0BC7CFF110C3
:1009200006C00E94690B802F0E94B103BFCF31E047
:10093000F31609F4BBCFF5CF112331F085E08F1505
:1009400008F4B4CF802FDFCF94E09F1508F4AECF2A
:10095000EACFFF2041F3D93349F4FFEF27EE33E02C
:10096000F15020403040E1F700C000008D2F0E9480
:100970003C039CCF8C2F86958695837069F08130DF
:1009800009F094CF8D2F9C2F9370111102C090E02D
:1009900080E00E94D9138ACF8D2F9C2F9370111164
:1009A00002C090E080E00E94C31380CF8C2F837040
:1009B00009F041C011117ACF4D2F429546954770ED
:1009C000440F440F0D2F0F7010E030E020E0042E94
:1009D00004C0000F111F221F331F0A94D2F760E0DA
:1009E00070E0CB01D4FF0FC06FE070E080E090E0DA
:1009F00004C0660F771F881F991F4A95D2F760952C
:100A0000709580959095C695C695C370602B712B97
:100A1000822B932BC23049F058F4C13019F00E9458
:100A20008F0644CF0E947D0641CF0E94A1063ECF93
:100A30000E947B063BCF8695112311F08C2F81708D
:100A4000882309F433CF4D2F429546954770440FC4
:100A5000440F0D2F0F7010E030E020E0042E04C092
:100A6000000F111F221F331F0A94D2F760E070E0BD
:100A7000CB01D4FF0FC06FE070E080E090E004C0D5
:100A8000660F771F881F991F4A95D2F7609570955A
:100A900080959095C695C695C370602B712B822B5F
:100AA000932BC23049F058F4C13019F00E9454071A
:100AB000FDCE0E944207FACE0E946607F7CE0E9442
:100AC000B706F4CECF70112329F08C2F0E94DD06DB
:100AD0008D2F19CF8D2F0E94B1038C2F0E94FE06FF
:100AE000E5CED23F51F160F4D03FB9F0D13F81F073
:100AF000112309F449C0F1108ECE8C2F8F7121C0C3
:100B0000D33F11F1D43FA1F780913D0282FF26C06F
:100B10008C2F8F71112311F314C0112349F084E03D
:100B20008F1508F4C3CE8C2F8F710E942107BECE83
:100B300095E09F1508F4BACEF6CF8C2F8F71111166
:100B4000CDCF0E94DD06B2CE112329F08C2F8F71FC
:100B50000E94C806ABCE0E94C306A8CE112349F05E
:100B6000CF718C2F0E94DD0663E08C2F0E94B90BA1
:100B70009DCE81E00E94D40BE1E0EF1508F096CE07
:100B800082E00E94D40B92CEF110E5CE8C2F8F71B3
:100B9000A5CFDF91CF911F910F91FF90EF90DF9044
:100BA000CF90BF9008950F931F93CF93DF93EC01E5
:100BB000688179818A810E941C088C010E947807D3
:100BC0000E947A06B801CE01DF91CF911F910F915B
:100BD0000C94B803CF93DF93EC018B819C81892B1C
:100BE00029F08881998189238F3F59F4DF91CF9132
:100BF0000895CE010E94D305CE01DF91CF910C94D0
:100C0000D401CE010E94F3018111F3CF0E942C0B7D
:100C1000882361F38A81882349F380913D0282FD14
:100C2000E5CF82E0DF91CF910C94D40B90E080E08F
:100C30000E94C31390E080E00E94D9130E94530BDE
:100C40000C94730B0E941C0B0C9416060E94430B11
:100C50000C94220692959F70963091F058F4925F12
:100C60009F70923058F4803F19F030F4883E30F491
:100C700081E008959A5FF4CF843FD1F380E0089536
:100C8000883EB0F3813FD1F7F3CFFC0180819181A1
:100C90000E9412080C942A06CF93DF9300D000D054
:100CA0000F92CDB7DEB70F900F900F900F900F906F
:100CB000DF91CF910895CF93DF9300D000D000D083
:100CC000CDB7DEB726960FB6F894DEBF0FBECDBF08
:100CD000DF91CF91089508950C946B060E946C06E5
:100CE0006093B8017093B9018093BA019093BB01EE
:100CF0000C94160608950C946E060F931F930091A2
:100D0000B8011091B9012091BA013091BB01602B5B
:100D1000712B822B932B1F910F910C946E060F93C6
:100D20001F930091B8011091B9012091BA0130913F
:100D3000BB0160237123822393231F910F910C9495
:100D40006E060F931F930091B8011091B901209185
:100D5000BA013091BB0160277127822793271F9129
:100D60000F910C946E060C946B060C94B3060E94C3
:100D7000B5066093B4017093B5018093B60190936A
:100D8000B7010C94160660E070E0CB010C94B70636
:100D90000F931F9341E050E060E070E08A019B01F7
:100DA00004C0000F111F221F331F8A95D2F7C901FB
:100DB000B8011F910F910C94B7060F931F9341E058
:100DC00050E060E070E004C0440F551F661F771FBD
:100DD0008A95D2F78091B4019091B501A091B601A6
:100DE000B091B7018A019B01082B192B2A2B3B2BB1
:100DF000C901B8011F910F910C94B7060F931F936F
:100E000041E050E060E070E004C0440F551F661FF1
:100E1000771F8A95D2F7CB01BA01609570958095BE
:100E200090950091B4011091B5012091B6013091D7
:100E3000B70160237123822393231F910F910C9498
:100E4000B7060F931F9341E050E060E070E004C0EC
:100E5000440F551F661F771F8A95D2F78091B40102
:100E60009091B501A091B601B091B7018A019B01A3
:100E7000082719272A273B27C901B8011F910F917D
:100E80000C94B7060F931F930091B4011091B50114
:100E90002091B6013091B701602B712B822B932BDF
:100EA0001F910F910C94B7060F931F930091B401FB
:100EB0001091B5012091B6013091B70160237123E3
:100EC000822393231F910F910C94B7060F931F93C6
:100ED0000091B4011091B5012091B6013091B70194
:100EE00060277127822793271F910F910C94B706D3
:100EF0000895E92FEE0FE90FEE0F8E0F982F9770E0
:100F000041E001C0440F9A95EAF78695869586954B
:100F100095E0899FF0011124EA56FE4F30E020E071
:100F200070E05191DF011197CB01022E02C096951E
:100F300087950A94E2F78170819585278423852718
:100F40008C932F5F3F4F2530310559F70895E92FD6
:100F5000EE0FE90FEE0F8E0F982F977086958695FE
:100F6000869525E0829FF0011124EA56FE4F50E05D
:100F700040E080E0219130E0092E02C036952795AF
:100F80000A94E2F721703327042E01C0220F0A943D
:100F9000EAF7822B4F5F5F4F4530510559F70895AF
:100FA000BF92CF92DF92EF92FF920F931F93CF9356
:100FB000DF938C01C090B401D090B501E090B601F0
:100FC000F090B7018091B8019091B901A091BA0158
:100FD000B091BB01C82AD92AEA2AFB2ACFE1D0E086
:100FE000BC2ED701C6010C2E04C0B695A7959795C7
:100FF00087950A94D2F780FD0EC0219788F7B12C0F
:101000008B2DDF91CF911F910F91FF90EF90DF908B
:10101000CF90BF900895B8018C2F0E94A30E019726
:1010200061F3EECFCF93DF93EC010E94D007BE01B6
:10103000DF91CF910C94A30E1F93CF93DF93EB011D
:1010400090919501992331F0CB01DF91CF911F91C0
:101050000C941208882379F0CB010E94D007182F36
:10106000682FCE010E947907BE01812FDF91CF91B9
:101070001F910C94A30ECB010E94A707182FF4CF49
:101080001F93CF93DF93C091BC0116E08091BD0107
:101090008C1304C0DF91CF911F910895D0E01C9F65
:1010A000F0011D9FF00D1124E254FE4F408151814B
:1010B00062817381848195810E945B062196C7704D
:1010C000E5CF4091EE015091EF016091F0017091F8
:1010D000F1018091F2019091F3010C945B06FF9273
:1010E0000F931F93CF93DF938091F301807FD1F40F
:1010F0008091F0018823B1F08091BC011091BD0175
:101100006091EE017091EF01A091F101B091F201B7
:10111000062F0723C0910001D091010196E0F92E1E
:10112000181306C0DF91CF911F910F91FF90089582
:1011300090E0109711F00F3F19F401968770F0CFEF
:10114000F89E9001F99E300D1124F901E254FE4FF2
:1011500041814713F2CF40814613EFCF42814111C5
:10116000ECCF438154814A1B5B0B4C175D0728F77A
:101170008091F3018F7080618093F301F901ED5349
:10118000FE4F80818F70806180838EEE91E00E949F
:10119000EA05DF91CF911F910F91FF900C944008C9
:1011A000AF92BF92CF92DF92EF92FF920F931F9375
:1011B000CF93DF93CDB7DEB761970FB6F894DEBF5C
:1011C0000FBECDBF8C0185E0F801DE011D960190B8
:1011D0000D928A95E1F7F801E2808EEEC82E81E04B
:1011E000D82E6091F1017091F2016115710509F439
:1011F0005FC19091EE012091EF01892F82238F3FF3
:1012000009F456C140815181A380B480F090F0016F
:10121000F501E61BF70BBF01E0910001F091010120
:10122000FF2009F4F6C08091F301382F307F6E174C
:101230007F0708F0AFC0311179C0FE2C251323C001
:10124000941321C0E1101FC08F7080618093F3015F
:101250000E946108C6010E94EA058091F301F8012D
:1012600085838F2D61960FB6F894DEBF0FBECDBF7C
:10127000DF91CF911F910F91FF90EF90DF90CF9072
:10128000BF90AF900895AB2829F0842F85238F3F1E
:1012900009F027C180E0F82FF170DF2E80FF3CC0FD
:1012A0008091BC012091BD0136E0821315C04D87AD
:1012B0005E878D859E850E941208292F22952F70AA
:1012C0002230F0F0243018F59F70F1F0F80195818C
:1012D000907FD1F4D12C1EC090E0389FF001399F4F
:1012E000F00D1124E254FE4F6181651306C0608148
:1012F000641303C062816E110FC001968770D5CF51
:101300009F7011F0882331F3805E883018F3C80194
:101310000E94EA05FD2CA5CFEE2009F4A2CF809112
:10132000F30181608093F301F12C9BCF251306C05C
:10133000941304C0F801EE2009F487C0C8010E948C
:101340004506882319F1EE2009F18091F3018032DE
:1013500070F02091EE013091EF0138872F831986CC
:10136000BB86AA868C87CE0107960E94EA0586E096
:10137000F801AEEEB1E001900D928A95E1F70E947E
:101380006F080E946108FF24F3946BCFC8010E948C
:10139000EA05F9CF311113C07A2DB98AA88A6E2DCA
:1013A00089890E944C068EEE91E00E94EA0586E053
:1013B000F60111928A95E9F70E946108B5CF2513CD
:1013C0000FC094130DC0E1100BC0F8018583C80154
:1013D0000E94EA0586E0F60111928A95E9F741CF6D
:1013E000C8010E944506882389F2EE2079F2809197
:1013F000F301803208F4BBCF2091EE013091EF0170
:101400003A8329831B82BD82AC828E83CE010196F2
:10141000ACCF6E177F0708F03EC0FE2CEE2009F41B
:10142000B5CF25132AC0941328C08091F30180FD05
:101430001BC0982F907FC1F0F8018583903F31F059
:10144000982F907F905F8F70892B8583C8010E94B1
:10145000EA0586E0F801AEEEB1E001900D928A95C2
:10146000E1F70E946108FDCE86E0F801AEEEB1E042
:1014700001900D928A95E1F7F4CEC8010E944506CD
:10148000811175CF8091F30181608093F301C801D0
:101490000E94EA05E6CE7A2DB98AA88A6E2D89893E
:1014A0000E944C0686E0F60111928A95E9F7D9CFA1
:1014B000EE2009F46BCFC8010E944506F82E882360
:1014C00009F464CF86E0F801AEEEB1E001900D9230
:1014D0008A95E1F78EEE91E00E94AD020E946F08BE
:1014E000C0CF81E08E25D7CE1F93CF93DF93CDB7AA
:1014F000DEB72C970FB6F894DEBF0FBECDBF4F837B
:10150000588769877A878B879C87CE0107960E94C8
:10151000D008882369F08A859B85892B39F04F8113
:101520005885842F85238F3F09F071C016E05FC076
:1015300086E0FE013796DE01119601900D928A95A4
:10154000E1F78A859B85892B89F38F81988589238B
:101550008F3F61F32091BD0130E0C9010196877092
:1015600099274091BC014817190671F40E9426067C
:101570001092BD011092BC0186E0EEEEF1E0DF01B9
:101580001D928A95E9F7D2CF96E0929FD001939F62
:10159000B00D1124A254BE4FFE01319601900D9260
:1015A0009A95E1F78093BD010E944008BFCF819FCB
:1015B000C001112482549E4F0E94D0088823E9F074
:1015C000E091BC011E9FF0011124E254FE4F4081C6
:1015D000518162817381848195810E945B06809133
:1015E000BC0190E00196877099278093BC0180919F
:1015F000BC019091BD018913DACF2C960FB6F894F7
:10160000DEBF0FBECDBFDF91CF911F9108956985D9
:101610007A858B859C850E945B0688CF682F809198
:101620000201909103010C943714682F80910201FC
:10163000909103010C94391480910201909103015F
:101640000C943B148091FC018595859585950895B2
:101650008091FC01877008959091FC01977081E062
:1016600009F480E00895809107020895909107029F
:10167000892B809307020895809590910702982303
:101680009093070208951092070208959091060220
:10169000892B8093060208958095909106029823E5
:1016A0009093060208951092060208958091FD011C
:1016B000089508950C94590B90913D0292FD08C035
:1016C0009091FD01981721F08093FD010C945A0B25
:1016D00008958091FD01882329F01092FD0180E09A
:1016E0000C945A0B0895CF93DF93E0910201F0918F
:1016F0000301809107028083E0910201F0910301D0
:10170000808190910602892B80839091FD0199231D
:1017100081F0E0910201F09103018081892B8083A7
:1017200080910201909103010E94EF1381110E94A8
:10173000690BC0910201D091030148E050E064EFD1
:1017400071E0CE010E94FD1B892B69F088E0FE014B
:10175000A4EFB1E001900D928A95E1F7CE01DF91FF
:10176000CF910C94B813DF91CF91089508950C9404
:10177000B60B90913D0292FD10C098E0899F9001B8
:101780001124622B6093FC010E94DD068091FC0114
:101790008595859585950C94B70B0C94DD06109274
:1017A000FC0180E00C94B70B9091FC01809589239B
:1017B0008093FC01282F277091F4282F082E000C0D
:1017C000330B9217130659F090913D0292FD07C01A
:1017D0008595859585950E94FE060C94CF0B0895FE
:1017E00090913D0292FB222720F9281769F080FB97
:1017F00092F990933D0280913C0290913D020E94AB
:10180000350C82E00C94D40B089580913D0282FB4C
:10181000882780F991E089270C94F00B81E00C94E3
:10182000F00B80E00C94F00B90E080E00E94121C22
:1018300021E0893E9E4F09F020E0822F089582E04A
:1018400090E00C940A1C83E090E00C940A1CCF9367
:1018500084E090E00E940A1CC82F82E290E00E947F
:101860000A1C982F8C2FCF910895CF93C92F682FE2
:1018700084E090E00E94181C6C2F82E290E0CF91EF
:101880000C94181CAB01BC018FE090E00C942A1C56
:10189000AB01BC0183E190E00C942A1C60E070E095
:1018A000CB010C94480C60E070E0CB010E94420C2C
:1018B0000C944E0C69EE7EEF90E080E00E94361CA6
:1018C00060E082E090E00E94181C60E083E090E01D
:1018D0000E94181C1092B8011092B9011092BA011E
:1018E0001092BB0160E084E090E00E94181C60E070
:1018F00082E290E00E94181C60E085E090E00E9487
:10190000181C60E086E090E00E94181C6FEF87E0F2
:1019100090E00E94181C40E050E0BA0188E090E09E
:101920000E942A1C60E08DE090E00E94181C40E0BC
:1019300050E0BA0188E190E00E942A1C60E087E153
:1019400090E00E94181C40E050E0BA018CE190E069
:101950000E942A1C70E060E080E290E00E94361C49
:1019600040E050E0BA0188E190E00E942A1C0C940B
:10197000530C0C945A0C682F8EE090E00C94181CB9
:101980000E94E414609318027093190280931A0263
:1019900090931B02609314027093150280931602B9
:1019A0009093170208950E94E414609318027093B4
:1019B000190280931A0290931B0260931002709395
:1019C00011028093120290931302089585B78068E4
:1019D00085BF85B7806885BF0895089508950C94E4
:1019E000EE0C08950C94F10C0E94E60C81E89FE047
:1019F0000E94A2130E94ED0C0C94EF0C81E008955C
:101A00000C94FE0C089508950E94020D0C94030D91
:101A10000E94840F0C9454020E94CF140E94631001
:101A20000E94080D0E945F120C94F20C9F92AF92DC
:101A3000BF92CF92DF92EF92FF920F931F93CF93BB
:101A4000DF93CDB7DEB72A970FB6F894DEBF0FBE8F
:101A5000CDBF0E947810C82E81110E94C00C88E072
:101A6000A82E82E0B82E10E000E0902E802F0E9479
:101A7000AE0FE82EF501F1905F01F81609F445C0AC
:101A800080911C0281FD0E94B40F8F2D8E25D12CD8
:101A9000FF24F394982F9F2199F10E94000D882331
:101AA00099F0DE829F82EF2081E009F480E0888750
:101AB0000E94D8148160782F9A8789874E815F8130
:101AC00068858A850E946F02F801E85FFD4F80817A
:101AD000F826F08281E0C11001C080E02A960FB69E
:101AE000F894DEBF0FBECDBFDF91CF911F910F9154
:101AF000FF90EF90DF90CF90BF90AF909F900895B0
:101B0000D394FF0CF6E0DF12C5CF0F5F1F4F0830F4
:101B1000110509F0AACF8FEF89838A831B820E9467
:101B2000D8148160782F9D838C8349815A816B8181
:101B30008D810E946F02CECF0E94160D0E947212FC
:101B400081110E94D30C0C946402CF93DF930E9406
:101B5000A70EEC01811522E59207E8F5811531E524
:101B6000930708F0ACC0883E910510F5803E9105C2
:101B700070F5883A910570F4853A910508F078C0BF
:101B80008130910521F1009711F1049700F5D0E023
:101B9000C0E01DC08F3B9105D0F7C85AD0E0CC0FF4
:101BA000DD1FCE5BDE4F0990D881C02DD4640FC0FD
:101BB000811540E5940708F066C0C11580E4D80798
:101BC00008F05EC0CE019A9581159F4100F7CE01C5
:101BD000DF91CF910895811536E5930718F58115AA
:101BE00045E5940708F083C0C11584E5D80708F0DF
:101BF00079C09C2F969596959E0123703327C11529
:101C0000D34508F461C0C1E0D0E002C0CC0FDD1FB5
:101C10002A95E2F730E2939FC0011124C82BD92BFB
:101C2000DA68D5CFC1158AE5D80778F4C11599E5EA
:101C3000D90708F066C0C11528E5D20708F4A7CF78
:101C4000DC2FCC27C06FD06AC2CFCE019056811551
:101C5000904208F09CCF8D2F8F710E943E0F90E034
:101C6000982F882788279F719C012C2BE90147C05A
:101C7000C55AD0E0C059DE4FC881D0E0D064A7CFAC
:101C8000DF70D06AA4CFE4E096958795EA95E1F7F6
:101C900083702C2F26952695237040E2249F900177
:101CA0001124382B8C2F8370C1E0D0E002C0CC0F00
:101CB000DD1F8A95E2F7C22BD32BDC6888CFD82FA3
:101CC000CC27C16FD06A83CFC1E0D0E002C0CC0F77
:101CD000DD1F2A95E2F720E2929FC0011124C82B54
:101CE000D92BEBCFDC2FCC27C46FD06A70CF0E94EA
:101CF0003E0FC82FD0E0DC2FCC27CC27DF71D0627D
:101D000066CF8C2F8F700E943E0F34E0D695C7951A
:101D10003A95E1F7CF709C2FEC01D06958CF972FFF
:101D200070E026E0929F600D711D1124FB0190E38D
:101D3000899FE00DF11D1124EE0FFF1FE455FF4FA9
:101D40008591949108950E948F0E0C94A50D823870
:101D50009105B1F1B0F48133910509F475C048F4EF
:101D60008932910509F469C08A32910509F473C07A
:101D700008958533910509F459C08933910501F11E
:101D80000895833E9105A9F138F4803E9105F9F05C
:101D9000823E910549F10895863E9105A9F1873E5D
:101DA0009105C9F1843E910519F520913D0221FF6D
:101DB0001FC080913C0284FD14C087EE90E008951E
:101DC00020913C022370A1F080EE90E008952091D4
:101DD0003C0220FD47C030913D0230FF09C024FF86
:101DE00044C090E080E004C020913C0222FDF7CF87
:101DF000089520913C0222FD3BC030913D0230FD10
:101E0000E3CF24FFF5CFEDCF20913C0223FFF0CFAD
:101E100024FDE7CFD2CF20913C0223FD2CC030918E
:101E20003D0231FFEECF84EE90E0089520913C0218
:101E300025FFDECF89E290E0089520913C0225FF46
:101E4000D7CF85E390E0089520913C0226FFD0CFC4
:101E50008AE290E0089520913C0226FFC9CF81E3F9
:101E600090E0089589E390E0089583EE90E008956E
:101E700082EE90E0089586EE90E0089590913C0205
:101E800092FF06C0282F28712830F9F4877F8460DC
:101E900093FF06C0282F28712831F1F4877E8461D2
:101EA00020913D0220FF06C0382F38713830D9F418
:101EB000877F816021FF06C0282F28712831D1F447
:101EC000877E816194FD877E0895282F24712430B8
:101ED000F9F68B7F8860DCCF282F2471243101F73D
:101EE0008B7E8861DDCF382F3171313019F78E7FCD
:101EF0008860E0CF282F2171213121F78E7E886103
:101F0000E1CF80E0089508950E94140C811102C071
:101F10000E94B90C0E941F0C80931C020E94270C87
:101F200090933D0280933C020E94830F0E94230CF9
:101F3000682F70E090E080E00E947B066091B40121
:101F40007091B5018091B6019091B7010C94B506DE
:101F500008950C94A80F08950C94AB0FE82FF0E0AF
:101F6000EA5BFD4F80810895089580EA8A95F1F734
:101F7000089500C008950C94B50FF894E82FE295E9
:101F8000EF70F0E031A1282F2F7081E090E001C0C8
:101F9000880F2A95EAF7982F9095932391A392A101
:101FA000892B82A378940895CF93DF93C3E7D1E080
:101FB00089918F3F11F00E94BD0F81E0C937D8078A
:101FC000B9F7C9E7D1E089918F3F11F00E94BD0FA9
:101FD00081E0C138D807B9F7DF91CF910895CF924A
:101FE000DF92EF92FF920F931F93CF93DF937C01C9
:101FF000162F042FC62FD0E0CD58DE4F28812F3F5B
:1020000009F458C0F894E22FE295EF70F0E031A1A6
:102010002F7081E090E001C0880F2A95EAF7932F96
:10202000982B91A392A18095892382A378940E94F2
:10203000B90F89E7C82E81E0D82EF701A701485FC4
:102040005F4FF12CE02EE094D6019D916D018191BE
:102050009F01215031099F3F49F1692F62956F70AF
:1020600070E0DB0190966C9170E09F7002C07595F6
:1020700067959A95E2F760FD19C0802BD9018C9382
:10208000FF24F394E417F507F9F688818F3F11F0E8
:102090000E94BD0F6F2D812FDF91CF911F910F9166
:1020A000FF90EF90DF90CF900C94BB0F8E21D90161
:1020B0008C93E8CFDF91CF911F910F91FF90EF901C
:1020C000DF90CF9008950E94D40F88E0E6E4F2E01C
:1020D000DF01982F1D929A95E9F7EEE3F2E0DF0118
:1020E0001D928A95E9F788E00E94C9100C94DF01DF
:1020F000EF92FF920F931F93CF93DF93CDB7DEB78D
:1021000028970FB6F894DEBF0FBECDBF8E010F5FCC
:102110001F4F88E0F80111928A95E9F7F12CEE241F
:10212000E3944E2D6F2DC8010E94EF0FF394EE0C37
:10213000F6E0FF12F6CF48E050E0B8018EE392E0FF
:102140000E94FD1BFF24F394009709F4F12C892BC6
:1021500041F088E0F801AEE3B2E001900D928A957B
:10216000E1F72F2D48E066E472E08EE392E00E94F2
:10217000CA100E94E1018F2D28960FB6F894DEBF99
:102180000FBECDBFDF91CF911F910F91FF90EF90C8
:1021900008950895FF920F931F93CF93DF93F82E26
:1021A000092F162FD72FC42F222349F081E08093C7
:1021B0001F020E94D81490931E0280931D028091EA
:1021C0001F028823A1F080911D0290911E020E949F
:1021D000F014059760F0EF2DF02FA12FBD2FCE0F3B
:1021E000DF2FD11DEC17FD0741F410921F02DF9184
:1021F000CF911F910F91FF90089581918D93F2CF10
:102200000E94A3160E940C0D0C94AF160E94B316E8
:102210000E949C0D0C94CD160E9478140E948A1680
:102220000E94F40C0E9400110E9406110E94040DED
:10223000FBCFCF93DF93EC01FB018281882309F46C
:1022400033C1C430FDE5DF07C0F5CB3F9CE5D907BE
:1022500030F49E0122503C4524313105B0F50E94F6
:10226000270C90933D0280933C02C1318CE5D80746
:1022700009F4EEC008F069C0C930ECE5DE0709F4E6
:10228000D5C0C8F5C5308CE5D80709F4C7C000F53E
:10229000C330ECE5DE0709F4B9C008F0BBC0C230BA
:1022A000DC4509F4ADC080913C0290913D020E9452
:1022B000350C0E94260680E008C0C236EDE5DE0738
:1022C00071F2C63AFDE5DF0751F2DF91CF91089533
:1022D00080913C028062C7309CE5D90709F493C025
:1022E00080913C028061C830DC4508F48CC080914C
:1022F0003C02806488C080913C028B7FCD30FCE53D
:10230000DF0709F480C098F480913C028E7FCB30C7
:102310009CE5D90709F477C080913C028C60CC30F1
:10232000DC4508F470C080913C028D7F6CC08091C8
:102330003C028F7ECF30FCE5DF0709F464C008F46F
:102340007BC080913C028F7D5EC0CE3F9CE5D9076B
:1023500009F47AC050F5C531FCE5DF0709F486C001
:1023600098F480913C02837FC3319CE5D90709F43E
:102370004AC008F471C00E94260690913C02892F41
:1023800097FB87F980583FC0CC3FFCE5DF0709F495
:1023900049C008F055C080913D028160CB3FDC45CB
:1023A00009F081CF80933D027ECFC230EDE5DE079C
:1023B00009F468C0A8F4C1158DE5D80709F452C026
:1023C00080913D028360C130DD4560F380913D0224
:1023D000982F909591708E7F892B90FB81F9E2CF99
:1023E000C236EDE5DE0709F451C0C63AFDE5DF0768
:1023F00009F453C0C330DD4509F055CF80E043C038
:1024000080913C02816080933C024DCF80913C02E0
:102410008260F9CF80913C028460F5CF80913C02CC
:102420008860F1CF80913D028260BCCF0E94260679
:1024300080913C028068E7CF80913C02877FE3CFA8
:1024400080913D028E7FAECF80913D028D7FAACFDD
:1024500080913C028F7BD7CF0E94260680913C0260
:102460008F77D1CF80913D028C7F9CCF80913C02B1
:1024700082FB992790F921E0922790FB82F990FB4B
:1024800083F9C1CF81E00E94BB0C0DCF90913C023B
:10249000892F8F7E94FF8061B6CF90913C02892F67
:1024A0008E7F90FF8160AFCF81E00FCF8FE891E00A
:1024B0000197F1F700C0000008950C94750153983E
:1024C0005B9A52985A9A0E94561289B183FB8827C8
:1024D00080F94A9905C090E0892B809322020895E3
:1024E00092E0FACFE0912202EE0FEE0FE09322028B
:1024F00049B143FB882780F949B142FB222720F9E3
:1025000042FF02C022E030E0822BE82BE09322025F
:10251000EF70F0E0EF57FE4F808190912102890F1C
:102520008093210220E0843054F0809120028F5F5C
:102530008093200260E080E00E945D1221E08091A3
:1025400021028D3F54F4809120028150809320021B
:1025500061E080E00E945D1221E080912102082E5E
:10256000000C990B64E070E00E94CF1B8093210265
:10257000822F0895CF93DF93EB0186319C4511F5AF
:102580000E94330B9A81992399F08A7A91E009F499
:1025900090E090932302811109C089E20E940E0B02
:1025A0000E94730B80E0DF91CF91089585E3F6CF11
:1025B00080912302811104C089E20E94150BF0CFA3
:1025C00085E3FBCF81E0EFCF0F931F93CF93DF9392
:1025D000C42FD22FFC0182818823C9F040932602A8
:1025E0000E94D814909325028093240280E28C0FDD
:1025F000883008F050C0C77081E001C0880FCA95CC
:10260000EAF7DF91CF911F910F910C94AA031091DB
:102610002602141335C080912402909125020E9455
:10262000F014883C910560F5C0E2CD0F1D17B9F09C
:1026300080E2810F883040F4177081E001C0880F7C
:102640001A95EAF70E94B103C83048F481E09D2F43
:10265000977001C0880F9A95EAF70E94AA03802F0D
:102660000E94A203C830B8F4D77081E001C0880F7F
:10267000DA95EAF7DF91CF911F910F910C94B10396
:1026800080E28C0F883038F4C77081E001C0880F79
:10269000CA95EAF7EFCFDF91CF911F910F9108957F
:1026A0000F939C01CB01243F4CE5340759F1A8F46A
:1026B000293DFCE53F0701F12A3D4CE53407D1F106
:1026C000283D3C4591F406E221EE41EE68ED7CE5C3
:1026D0000E94E41280E00F910895263FFCE53F0739
:1026E000E9F0B0F0273F3C45F9F0FC0182818823F6
:1026F00039F110922602EFCF07E225EE45EE69EDA3
:102700007CE5E6CF06E221EE40EE64EF7CE5E0CF2B
:1027100007E225EE44EE65EF7CE5DACF06E221EE36
:1027200042EE66EF7CE5D4CF07E225EE46EE67EF9A
:102730007CE5CECF08E221E045EE6AED7CE5C8CF2E
:1027400081E0C9CF90939301809392010895909373
:102750002C0280932B020895E0912B02F0912C0221
:10276000309721F00190F081E02D099480E00895E8
:10277000E0912B02F0912C02309721F00280F3813E
:10278000E02D099408952091290230912A022817FA
:10279000390771F090932A0280932902E0912B026D
:1027A000F0912C02309721F00680F781E02D0994FA
:1027B000089520912702309128022817390771F0D7
:1027C0009093280280932702E0912B02F0912C0233
:1027D000309721F00084F185E02D099408959C0143
:1027E0002E5F3F4FAC01485F5F4F80E024173507F5
:1027F00009F40895F90191919F019923B9F38F5F2D
:10280000F5CF662349F0FC013296089621912617F0
:1028100029F0E817F907D1F780E0089581E00895DD
:102820009C01FC0132969FEF80E04191461751F0E8
:102830009F3F19F4411101C0982F8F5F8630A9F78F
:102840009F3F09F40895290F311D97FD3A95F9012D
:1028500062830895FC01329608962191261303C0E5
:10286000DF0111971C92E817F907B9F708950C9446
:1028700010140C942A14029626E0FC0111922A9559
:10288000E9F7089508950C944214811105C081E080
:1028900080932D020C94431482E0FACF83E080935E
:1028A0002D020C9443140C94451481E080932D0266
:1028B0000C9443140C945514089508950C945D14CD
:1028C000089508950C945C14CF930E9460140E94A4
:1028D00078100E946114C0E08C2F0E94AE0F81110D
:1028E00005C0CF5FC830C1F7CF91089581E0FCCF1C
:1028F00008951F921FB61F9211248F939F93AF9339
:10290000BF9380912E02811113C080914E0290914D
:102910004F02A0915002B09151024196A11DB11DEC
:1029200080934E0290934F02A0935002B0935102B5
:10293000BF91AF919F918F911F901FBE1F901895CF
:1029400080915602843031F10E94450210922E028D
:1029500088E190E020E40FB6F894A8958093600099
:102960000FBE2093600083B7817F846083BF83B7ED
:10297000816083BF7894889583B78E7F83BF0FB6BD
:10298000F894A8958091600088618093600010920F
:1029900060000FBE08950E9426060C94490282E052
:1029A00084BD93E095BD9AEF97BD80936E00089526
:1029B0002FB7F89480914E0290914F02A09150024F
:1029C000B09151022FBF08952FB7F89460914E0235
:1029D00070914F0280915002909151022FBF089543
:1029E0009C014FB7F89480914E0290914F02A091B4
:1029F0005002B09151024FBF821B930B08957894FF
:102A00001F921FB61F9211248F939F93AF93BF9372
:102A100080914E0290914F02A0915002B0915102CC
:102A20000196A11DB11D80934E0290934F02A09379
:102A30005002B0935102BF91AF919F918F911F901F
:102A40001FBE1F90189587E797E790930108809322
:102A5000000888E19AE00FB6F894A895809360008A
:102A60000FBE90936000FFCF80913A0208950895C1
:102A7000CF93DF93EC0181E08093E9008FEF909199
:102A8000E800815095FD06C095ED9A95F1F700009C
:102A90008111F5CF8091E80085FF14C050E040E03F
:102AA00068E070E0CE010E943E178091E8008E77CA
:102AB0008093E80088E0FE01A2E3B2E001900D926D
:102AC0008A95E1F7DF91CF91089580932F0270935B
:102AD00031026093300280915602843001F582E029
:102AE0008093E9008FEF9091E800815095FD06C03A
:102AF00095ED9A95F1F700008111F5CF8091E800EE
:102B000085FF0DC050E040E063E070E08FE292E0AE
:102B10000E943E178091E8008E778093E800089528
:102B2000BC0184E00C946515BC0183E00C94651530
:102B3000089580915502811109C00E94CE180E940B
:102B40002B198091E20084608093E2000895109236
:102B5000550208950C9455146091520281E0611160
:102B600001C080E00C944E149091560281E09430A4
:102B700009F080E0609152020C94531442E061EC41
:102B800081E00E944A1842E261EC82E00E944A1809
:102B90009091560281E0943009F080E060915202F9
:102BA0000C94451480915802833009F460C030F4CD
:102BB0008130C9F1823009F49CC008958A3009F44B
:102BC00088C08B3009F46EC0893009F04FC0809105
:102BD0005702813209F04AC080915B0290915C02F9
:102BE000029708F043C08091E800877F8093E80057
:102BF0008091E80082FF36C09091F3008091F2004E
:102C0000029731F48091F100813011F0863021F487
:102C10008091F10080933A028091E8008B77809355
:102C2000E8000C947E1880915702813AF9F4809163
:102C3000E800877F8093E80080915B0290915C02BE
:102C4000892B61F468E082E392E070E00E948D17C6
:102C50008091E8008B778093E800089560E090E031
:102C600080E0F3CF809156028111C2CF0895809108
:102C70005702813AD9F780915B0290915C02892BCF
:102C8000A9F78091E800877F8093E8008091E800B1
:102C900080FFFCCF809110018093F1008091E800CB
:102CA0008E77BDCF80915702813201F780915B0210
:102CB00090915C02892BD1F68091E800877F809308
:102CC000E8000E947E1880915902809310010C94B4
:102CD000260680915702813249F68091E800877F6D
:102CE0008093E8000E947E1880915A0280933B02F4
:102CF000089580915702813A09F0B8CF8091E80099
:102D0000877F8093E8008091E80080FFFCCF80916E
:102D10003B02C2CF84B7877F84BF0FB6F894A895D3
:102D200080916000886180936000109260000FBE07
:102D300080E890E00FB6F894809361009093610072
:102D40000FBE0C945A140E94CE180E942B19E2EE6A
:102D5000F0E080818460808378940C94B41B84E0DC
:102D600091E00C94A713809156028530A9F48091CC
:102D70005602853011F00C94CB140E94A01480915F
:102D800054028823A1F30E946414882381F30E94D3
:102D900028170E942606EBCF089508950C94D016AC
:102DA000292F33272330310519F168F421303105FB
:102DB00009F444C02230310509F445C090E080E0B8
:102DC00030E020E025C02132310549F122323105C1
:102DD000A9F780E490E02BE632E061157105C1F0BF
:102DE00082E390E029E332E06130710589F0E6CFBB
:102DF00099278130910581F0009729F00297F1F62B
:102E0000ECECF1E002C0E8EEF1E0849190E09F018B
:102E1000FA01318320830895E8EDF1E0F6CF89E0EF
:102E200090E02EEF31E06115710591F389E090E0BB
:102E300027E132E06130710559F3C0CF82E190E0C3
:102E400027E232E0E5CF8BE390E02CEE31E0E0CFFB
:102E500080E189BD82E189BD09B400FEFDCF80918A
:102E6000D8008F7D8093D8008091E00082608093AD
:102E7000E0008091E00081FDFCCF0895AF92BF9209
:102E8000CF92DF92FF920F931F93CF93DF936C014A
:102E9000EB018A010E949D18F82E811123C00115B3
:102EA000110539F0F80180819181C81BD90BC80E3A
:102EB000D91EB12CA12C2097A9F08091E80085FDA6
:102EC00022C08091E8008E778093E80001151105FB
:102ED000A1F0F80180819181A80EB91EB182A08273
:102EE00085E0F82E8F2DDF91CF911F910F91FF90EC
:102EF000DF90CF90BF90AF9008950E949D188823D7
:102F0000D1F2F82EEFCFF60181916F018093F1009D
:102F10002197FFEFAF1ABF0ACECFFC0180915D026F
:102F200090915E0286179707A0F06115710529F44C
:102F30009091E8009E779093E80090E0611571050C
:102F400051F4911108C08091E80082FF34C080E004
:102F50000895BC01F2CF809156028823C1F18530DB
:102F6000C1F18091E80083FD30C08091E80082FDCE
:102F7000EACF8091E80080FFE1CF8091F3002091BB
:102F8000F200382F6115710519F02830310558F01D
:102F900091E02830310509F090E02091E8002E778B
:102FA0002093E800CBCF81918093F10061507109AB
:102FB0002F5F3F4FE7CF80915602882341F0853045
:102FC00041F08091E80083FFBECF81E0089582E068
:102FD000089583E00895FC0180915D0290915E0266
:102FE00086179707A0F06115710529F48091E80014
:102FF0008E778093E80090E06115710551F491118E
:1030000008C08091E80082FF35C080E00895BC01CF
:10301000F2CF809156028823C9F18530C9F18091A1
:10302000E80083FD31C08091E80082FDEACF809105
:10303000E80080FFE1CF8091F3002091F200382F6B
:103040006115710519F02830310558F091E02830EC
:10305000310509F090E08091E8008E778093E800D8
:10306000CBCF84918093F1003196615071092F5F2D
:103070003F4FE6CF80915602882341F0853041F0E2
:103080008091E80083FFBDCF81E0089582E008953C
:1030900083E00895982F973028F08F708093E9008F
:1030A00081E008959093E900242F762F50E098173F
:1030B00031F07091EC002091ED005091F00021FD75
:1030C00002C09F5FE8CF3091EB003E7F3093EB0072
:1030D0003091ED003D7F3093ED003091EB00316099
:1030E0003093EB007093EC002093ED005093F000D0
:1030F0002091EE0027FDE5CF80E0089580915702F2
:1031000087FF13C08091E80082FF06C08091E8002D
:103110008B778093E80004C0809156028111F2CF32
:103120000895809156028823D9F38091E80080FFAA
:10313000F8CF8091E8008E77ECCF2091E4003091B9
:10314000E50095E6A9012091EC00822F817020FF17
:1031500006C08091E80080FF06C080E008952091BD
:10316000E80022FD1AC080915602882389F085303C
:1031700089F08091EB0085FD0FC02091E400309133
:10318000E50042175307F9F29150E1F684E0089503
:1031900082E0089583E0089581E008950E943C193B
:1031A0000E944419E0EEF0E0808181608083E8EDC8
:1031B000F0E080818F77808319BCA7EDB0E08C911F
:1031C0008E7F8C9380818F7E80831092550208952C
:1031D0000F931F93CF93DF930E943C190E944419D1
:1031E000C8EDD0E088818F77888388818068888364
:1031F00088818F7D888319BC1092560210925202EA
:10320000109254021092530200EE10E0F8018081F7
:103210008B7F808388818160888342E060E080E0EA
:103220000E944A18E1EEF0E080818E7F8083E2EE1A
:10323000F0E0808181608083808188608083F801F4
:1032400080818E7F8083888180618883DF91CF91A8
:103250001F910F910895E8EDF0E080818F7E8083CB
:10326000E7EDF0E080818160808384E082BF81E0CF
:10327000809355020C94E818E8EDF0E080818E7F91
:1032800080831092E20008951092DA001092E1001B
:1032900008951F920F920FB60F9211242F933F9310
:1032A0004F935F936F937F938F939F93AF93BF934E
:1032B000EF93FF938091E10082FF0BC08091E200C9
:1032C00082FF07C08091E1008B7F8093E1000E9424
:1032D000B31B8091DA0080FF19C08091D80080FF75
:1032E00015C08091DA008E7F8093DA008091D9003A
:1032F00080FF96C080E189BD82E189BD09B400FEEE
:10330000FDCF81E0809356020E9499158091E100E3
:1033100080FF19C08091E20080FF15C08091E2001B
:103320008E7F8093E2008091E20080618093E200D2
:103330008091D80080628093D80019BC85E080938A
:1033400056020E94AC158091E10084FF2BC0809151
:10335000E20084FF27C080E189BD82E189BD89B593
:10336000982F917080FFFBCF8091D8008F7D809344
:10337000D8008091E1008F7E8093E1008091E2008F
:103380008F7E8093E2008091E20081608093E20072
:1033900080915202882309F449C084E08093560248
:1033A0000E94B4158091E10083FF29C08091E20062
:1033B00083FF25C08091E100877F8093E10082E058
:1033C00080935602109252028091E1008E7F80938A
:1033D000E1008091E2008E7F8093E2008091E20024
:1033E00080618093E20042E060E080E00E944A1841
:1033F0008091F00088608093F0000E94AA15FF91F0
:10340000EF91BF91AF919F918F917F916F915F915C
:103410004F913F912F910F900FBE0F901F901895D5
:1034200019BC109256020E94A71570CF8091E3003C
:1034300087FD93E090935602B3CF1F920F920FB681
:103440000F9211242F933F934F935F936F937F932A
:103450008F939F93AF93BF93CF93DF93EF93FF939C
:10346000D091E900DF708091EC00C82FC17080FD21
:10347000C0E81092E9008091F000877F8093F0000F
:1034800078940E94611A1092E9008091F00088609F
:103490008093F000CD2BCF70C093E900FF91EF91A6
:1034A000DF91CF91BF91AF919F918F917F916F915C
:1034B0005F914F913F912F910F900FBE0F901F90F2
:1034C00018951F93CF93DF93CDB7DEB7AA970FB6AA
:1034D000F894DEBF0FBECDBF87E592E02091F100EA
:1034E000FC012193CF01F2E08F359F07B9F70E94CD
:1034F000D2158091E80083FF1EC180915702909100
:1035000058029A3008F017C1E92FF0E0E65AF34E5E
:103510000C94E31B803899F0823809F00CC180913B
:103520005B028F70873008F006C18093E9008091BC
:10353000EB0085FB882780F91092E90006C0809196
:10354000530290915402911182609091E800977F0C
:103550009093E8008093F1001092F1008091E800D0
:103560008E77E5C0882309F4D3C0823009F0E3C028
:10357000809159028111D6C080915B028F702FEF2C
:10358000280F263008F0D7C08093E9002091EB0087
:1035900020FFC8C0933031F48091EB0080628093AB
:1035A000EB00C0C09091EB0090619093EB0021E0A4
:1035B00030E001C0220F8A95EAF72093EA001092CA
:1035C000EA008091EB008860EACF8111B4C01091CD
:1035D00059021F778091E3008078812B8093E3006C
:1035E0008091E800877F8093E8000E947E18809198
:1035F000E80080FFFCCF8091E30080688093E300C7
:1036000082E0111183E08093560295C08058823089
:1036100008F091C08091590290915A028C3D23E0AC
:103620009207A1F583E08A838AE289834FB7F894F1
:10363000DE01139620E03EE051E2E32FF0E05093EC
:103640005700E49120FF03C0E295EF703F5FEF70F9
:103650008E2F90E0EA30C0F0C7968D939D932F5F38
:10366000243159F74FBF8091E800877F8093E800AD
:103670006AE270E0CE0101960E948D178091E80009
:103680008B778093E80057C0C096E7CF60915B02CC
:1036900070915C02AE014F5F5F4F0E94CE16BC017D
:1036A000892B09F448C09091E800977F9093E80037
:1036B00089819A810E94EB17E1CF8038E1F58091F2
:1036C000E800877F8093E800809152028093F100A8
:1036D00045CF811130C090915902923060F58091B0
:1036E000E800877F8093E800909352020E947E1842
:1036F00080915202882311F084E005C08091E3009C
:1037000087FDFACF81E0809356020E94BE1513C058
:1037100080915902813079F481E0933009F080E0A2
:10372000809354021092E9008091E800877F809393
:10373000E8000E947E188091E80083FF0AC0809113
:10374000E800877F8093E8008091EB00806280939F
:10375000EB00AA960FB6F894DEBF0FBECDBFDF9187
:10376000CF911F9108950895CF9380915602882399
:10377000A1F0C091E900CF709091EC00892F817089
:1037800090FD80E8C82B1092E9008091E80083FD4D
:103790000E94611ACF70C093E900CF91089597FB02
:1037A000072E16F4009407D077FD09D00E94E91B7C
:1037B00007FC05D03EF4909581959F4F0895709534
:1037C00061957F4F0895EE0FFF1F0590F491E02D56
:1037D0000994AA1BBB1B51E107C0AA1FBB1FA61758
:1037E000B70710F0A61BB70B881F991F5A95A9F7AA
:1037F00080959095BC01CD010895FB01DC0104C0CA
:103800008D910190801921F441505040C8F7881BD8
:10381000990B0895F999FECF92BD81BDF89A992729
:1038200080B50895A8E1B0E042E050E00C943E1C61
:10383000262FF999FECF92BD81BDF89A019700B469
:10384000021639F01FBA20BD0FB6F894FA9AF99A09
:103850000FBE08950396272F0E94191C0E94181C62
:10386000252F0E94191C242F0C94191C0196272F18
:103870000E94191C0C94181CDC01CB01FC01F99965
:10388000FECF06C0F2BDE1BDF89A319600B40D92AC
:1038900041505040B8F70895F894FFCFF603F6036F
:1038A00027042704BA04560456045604D6046205B5
:1038B000710571058A1AB21A9B1BB21A9B1BE51A75
:0838C000061B9B1B5D1B691B2D
:1038C800C800FE013415381598159415901537154C
:1038D80001E200E900EA00B500B600B700CD0083B8
:1038E80001CC008A019201940121022302240225BD
:1038F80002260227022A02B300B4006F007000817A
:103908008283E200E900EA00B500B600B700CD0006
:103918008301CC008A01920194012102230224022E
:103928002502260227022A02B300B4006F007000A5
:10393800818283F6F7313332363435946697C6F58B
:10394800F400FF0100010000FFFF0000010001FF7B
:0239580000006D
:00000001FF
