:100000000C946C050C9489050C9489050C94890555
:100010000C9489050C9489050C9489050C94890528
:100020000C9489050C9489050C94F5110C947C179B
:100030000C9468280C9489050C9489050C94890506
:100040000C9489050C9489050C9489050C948905F8
:100050000C9489050C94CE120C9489050C94890596
:100060000C9489050C9489050C9489050C948905D8
:100070000C9489050C9489050C9489050C948905C8
:100080000C9489050C9489050C9489050C948905B8
:100090000C9489050C9489050C9489050C948905A8
:1000A0000C9489050C9489050C9489050501098037
:1000B000A101850319012AB700150126B700950192
:1000C00075108100C0050C0901A101850419012AE0
:1000D000A002150126A002950175108100C00660DE
:1000E000FF0961A1010962150026FF00952075082E
:1000F00081020963150026FF00952075089102C052
:1001000005010906A101050719E029E715002501E8
:10011000950875018102950175088101050719008F
:1001200029FF150026FF00950675088100050819AE
:10013000012905950575019102950175039101C08D
:1001400000000000000000000000000000000000AF
:10015000000000000000000000000000000000009F
:10016000000000007E0F00D4FFFFFFC700000078F2
:1001700000000000000000002A2B28000000000002
:100180000000000000000000000000290000000046
:100190002C1E3420212224342627252E362D3738B4
:1001A000271E1F202122232425263333362E3738BD
:1001B0001F0405060708090A0B0C0D0E0F1011127B
:1001C000131415161718191A1B1C1D2F3130232D47
:1001D000350405060708090A0B0C0D0E0F10111245
:1001E000131415161718191A1B1C1D2F3130354CF6
:1001F00000DA0281FFD9F1DB20A4A62EAF00A0C057
:1002000000A1C800AED580A81FD300408D142000E7
:10021000FD377A585A000004E6D6B44602002101A0
:1002200016000000742FE5A3E003AA01655D003D00
:100230008889C65436C3174FE4F5602D3B56DF213D
:1002400044B4FF40F91849E5B259552B74925092C5
:10025000C7D59B8E55F76A5219C834EB335A64855B
:10026000505C584F3CA629B8381BD0C58C9AF6C7AD
:10027000EFF4B0C05D5DC8AB5D5EE6357F4E98D7EC
:10028000A73145D85F956022A08E4AA000FC945FFC
:10029000998E13004D1180E382B6445C1762E6E448
:1002A000564EA8C42FC49D558408A19E9BF7B23614
:1002B00026F332535D9A115D52E66E57C8C7BB589C
:1002C00039E0F387EA85830A8744AD990AC6F6E8E0
:1002D000EB7B9F51CC6B34E101EF24EE10DFBCB41B
:1002E0005D973F4A14A0A52C60F9D71F0EF29351D9
:1002F000830412CB06F29B17F95FA7E64CB138CB0B
:1003000069FCD4FC9FA07F26E000D6CFAC855BD9EA
:100310000A6BDB8614359D6ACF0F3396FD20ECAE59
:100320009BB0C9D99D08BAF2791D1295C394545A4D
:100330004F0A4B0EEC4EB5A12BE9C95E907EBE274D
:100340003139C35BB17954402AA1835B0AA2537A45
:1003500006441FBE82AB4528154028D7CAABA55F0F
:1003600032C1391A258213070F7750E82C53E284E3
:1003700088B6D65394BDAC04DE380516A75FB23EEE
:10038000A0BAC9EE8BB2A24C6D4A825B49E91C2C23
:10039000BE53970000000000D19F7925B7EEF528E5
:1003A00000018103AB070000F1E13CCEB1C467FB63
:1003B000020000000004595AAA00A900010001002F
:1003C000010001000100010029001A0015001C00B5
:1003D0000C001300140008001700180012002A0077
:1003E0002B00160009000B000E003300040007006C
:1003F0000A000D000F00280035621D0006000500F0
:100400001000370038001B00190011003600E5000D
:10041000E000E2002C412C41E700AE00E3000000C8
:100420000251E600E400A80029001F00210023007B
:10043000250027001E0020002200240026002A009C
:1004400001000100010052002D00340001000100F4
:10045000010052002E0028000100010001005000A0
:100460004F00380001000100010051002E00010082
:1004700001000100010001000100AE0001000000C8
:10048000010001000100A8000100C85C010001009A
:1004900052000100C75C01000100000001000100E2
:1004A0000100C35C0100000051000100C25CC45C9B
:1004B000010050004F0001000100CA5C0100010072
:1004C00001005200C95C010001000100010052005E
:1004D00001000100010001005100010001000000C5
:1004E000010050004F00010000AF00AE09025B00A8
:1004F000030100A0FA090400000103010100092121
:1005000011010001224000070581030800010904D0
:100510000100020300000009211101000122220054
:1005200007058203200001070503032000010904D9
:100530000200010300000009211101000122320024
:1005400007058403200001120100020000000829B1
:100550001753530100010203011C03760069006177
:10056000006C003A0066003600340063003200621E
:10057000003300630000000A036C00690074006C23
:100580000000000E036D006F0068006F00790074BA
:100590000000000403090407087F0807003E5B4FC2
:1005A0005B3E003E6B4F6B3E001C3E7C3E1C0018C9
:1005B0003C7E3C18001C577D571C001C5E7F5E1C57
:1005C0000000183C180000FFE7C3E7FF00001824F4
:1005D000180000FFE7DBE7FF0030483A060E002670
:1005E0002979292600407F05050700407F05253F22
:1005F000005A3CE73C5A007F3E1C1C0800081C1CAB
:100600003E7F0014227F2214005F5F005F5F0006C0
:10061000097F017F00006689956A00606060606004
:100620000094A2FFA2940008047E04080010207E1B
:1006300020100008082A1C0800081C2A0808001EB0
:1006400010101010000C1E0C1E0C0030383E3830FC
:1006500000060E3E0E060000000000000000005FD5
:10066000000000000700070000147F147F1400241E
:100670002A7F2A120023130864620036495620504C
:1006800000000807030000001C2241000000412276
:100690001C00002A1C7F1C2A0008083E08080000D5
:1006A0008070300000080808080800000060600042
:1006B000002010080402003E5149453E0000427FE0
:1006C0004000007249494946002141494D33001814
:1006D00014127F10002745454539003C4A494931ED
:1006E0000041211109070036494949360046494968
:1006F000291E00000014000000004034000000002B
:100700000814224100141414141400004122140887
:10071000000201590906003E415D594E007C12114C
:10072000127C007F49494936003E41414122007F09
:100730004141413E007F49494941007F0909090182
:10074000003E41415173007F0808087F0000417F4F
:100750004100002040413F01007F08142241007FFA
:1007600040404040007F021C027F007F0408107F51
:10077000003E4141413E007F09090906003E4151CA
:10078000215E007F091929460026494949320003A4
:10079000017F0103003F4040403F001F2040201FD9
:1007A000003F4038403F006314081463000304789E
:1007B0000403006159494D4300007F41414100025B
:1007C0000408102000004141417F0004020102049E
:1007D00000404040404000000307080000205454FF
:1007E0007840007F28444438003844444428003886
:1007F0004444287F0038545454180000087E0902ED
:100800000018A4A49C78007F080404780000447DAC
:100810004000002040403D00007F102844000000C0
:10082000417F4000007C04780478007C0804047850
:1008300000384444443800FC1824241800182424A8
:1008400018FC007C08040408004854545424000494
:10085000043F4424003C4040207C001C2040201CDD
:10086000003C4030403C004428102844004C90900C
:10087000907C004464544C44000008364100000061
:100880000077000000004136080000020102040267
:10089000003C2623263C00000000000000404040B1
:1008A000F0F8F8FF38FFF8F83FF8F8FF38FFF8F8ED
:1008B000F040404000000000000080C0C0C0800048
:1008C00000C0C08000000080C0C000C0C000008028
:1008D000C0C00000000000C0C0C0C0C000C0C00058
:1008E0000000000000000000000000000000000008
:1008F00000000000000000000000000000000000F8
:1009000000000000000000000000000000000000E7
:10091000000000000000C0F0F8FC3E1E06010000D0
:10092000007F4141417F007F4141417F000080C005
:10093000E07E5B4F5BFEC00000C000DCD7DEDEDE89
:10094000D7DC00C000000000000000000000000034
:1009500000000000000000000000000000494949BC
:10096000FFFFFFFFE0DFBFBF00BFBFDFE0FFFFFF14
:10097000FF49494900000000001F3F6060E0BF1FC1
:10098000007F7F071E381E077F7F007F7F0E1F3B83
:10099000716000000000007F7F0C0C0C007E7E0068
:1009A0007F7E0303007F7E03037E7E03037F7E0042
:1009B0000F3E703C063C703E0F00327B49493F7E43
:1009C000007F7E0303001E3F69696F260000000060
:1009D000000000000000030F1F3F3C787060000023
:1009E000007F4141417F007F4141417F00307B7F5B
:1009F0007830202030787F3B0003000F7F0F0F0FEF
:100A00007F0F000300000000000000000000000055
:100A100000000000000000000000000000010101D3
:100A2000070F0F7F0F7F0F0F7E0F0F7F0F7F0F0FAF
:100A300007010101000000000000000000000101AA
:100A400000000000000000000000000000000000A6
:100A50000000000000000000000000000000000096
:100A60000000000000000000000000000000000086
:100A70000000000000000000000000000000000076
:100A80000000000000000000000000000000000066
:100A90000000000000000000000000000000000056
:100AA0000000000000000000000000000000000046
:100AB0000000000000000000000000000000000036
:100AC0000000000000000000000000000000000026
:100AD000000000000000000011241FBECFEFDAE08C
:100AE000DEBFCDBF11E0A0E0B1E0E0E7F7E602C075
:100AF00005900D92AA38B107D9F727E0AAE8B1E02E
:100B000001C01D92AA32B207E1F70E948F280C940F
:100B100092330C940000E8EDF0E080818E7F8083BA
:100B20001092E2001092DA001092E100A0EEB0E024
:100B30008C9181608C9380818F77808319BCA7ED25
:100B4000B0E08C918E7F8C9380818F7E8083109219
:100B5000030508952091E4003091E50095E6A90190
:100B60002091EC00822F817020FF06C08091E80068
:100B700080FF06C080E008952091E80022FD1AC0A1
:100B800080911905882389F0853089F08091EB00E8
:100B900085FD0FC02091E4003091E5004217530716
:100BA000F9F29150E1F684E0089582E0089583E03F
:100BB000089581E00895EF92FF920F931F93CF93D2
:100BC0007C018B010E94AA05C82F811117C080915A
:100BD000E80085FD0BC08091E8008E778093E800E7
:100BE0000E94AA05882399F3C82F08C0F7018191B4
:100BF0007F018093F1000150110949F78C2FCF91AB
:100C00001F910F91FF90EF900895CF93FC01809179
:100C10001905843001F5C091E900CF702091EC00F6
:100C2000922F917020FD90E8C92B82E08093E9001B
:100C30008091E80080FF0CC050E040E060E270E08E
:100C4000CF010E94DB058091E8008E778093E80059
:100C5000CF70C093E900CF9108958091110587FF6F
:100C600013C08091E80082FF06C08091E8008B7776
:100C70008093E80004C0809119058111F2CF089596
:100C8000809119058823D9F38091E80080FFF8CF7F
:100C90008091E8008E77ECCF982F9093E900242F75
:100CA000762F50E0891731F07091EC002091ED0023
:100CB0005091F00021FD07C09F5F973071F780933E
:100CC000E90081E008953091EB003E7F3093EB0026
:100CD0003091ED003D7F3093ED003091EB003160BD
:100CE0003093EB007093EC002093ED005093F000F4
:100CF0002091EE0027FDE0CF80E00895CF92DF92B3
:100D0000EF92FF920F931F93CF93DF93C8EDD0E044
:100D100088818F7E8883E7EDF0E080818160808329
:100D200084E082BF81E08093030588818E7F888381
:100D300002EE10E0F80110821092DA0081EEC82E67
:100D4000D12CF601108288818F7788838881806812
:100D5000888388818F7D888319BC10921905109231
:100D6000100510920F0510920E0590EEE92EF12C51
:100D7000F70180818B7F808388818160888342E056
:100D800060E080E00E944C06F60180818E7F8083C7
:100D9000F801808181608083808188608083F70191
:100DA00080818E7F8083888180618883DF91CF916D
:100DB0001F910F91FF90EF90DF90CF900895FC016D
:100DC000809117059091180586179707A0F0611577
:100DD000710529F49091E8009E779093E80090E0E7
:100DE0006115710551F4911108C08091E80082FFEE
:100DF00034C080E00895BC01F2CF809119058823AA
:100E0000C1F18530C1F18091E80083FD30C080914F
:100E1000E80082FDEACF8091E80080FFE1CF809179
:100E2000F3002091F200382F6115710519F0283078
:100E3000310558F091E02830310509F090E020911B
:100E4000E8002E772093E800CBCF81918093F100CA
:100E5000615071092F5F3F4FE7CF809119058823BB
:100E600041F0853041F08091E80083FFBECF81E002
:100E7000089582E0089583E008950895089580918B
:100E80000505089587E797E7909301088093000888
:100E900088E19AE00FB6F894A895809360000FBEA1
:100EA00090936000FFCF2FB7F8946091FC0470918D
:100EB000FD048091FE049091FF042FBF08952091BE
:100EC000F9043091FA042817390771F09093FA0465
:100ED0008093F904E091F704F091F804309721F041
:100EE0000084F185E02D099408952091F504309156
:100EF000F6042817390771F09093F6048093F504EF
:100F0000E091F704F091F804309721F00680F78122
:100F1000E02D09940895E091F704F091F8043097DA
:100F200021F00190F081E02D099480E00895CF93A5
:100F3000DF93EC014091EA045091EB046091EC04E2
:100F40007091ED042FB7F8948091FC049091FD040A
:100F5000A091FE04B091FF042FBF841B950BA60B3C
:100F6000B70B843F9140A105B10518F58091EA04C3
:100F70009091EB04A091EC04B091ED048093E60411
:100F80009093E704A093E804B093E90484EF91E020
:100F9000A0E0B0E08093E2049093E304A093E40423
:100FA000B093E504D093F204C093F104DF91CF91A4
:100FB00008950E9453076093E6047093E7048093BA
:100FC000E8049093E90482E390E0A0E0B0E0E2CF8F
:100FD000FC018481862351F492819923B9F069231D
:100FE000808583FF05C081E061110FC080E0089516
:100FF000892F8F7092959F70982B862F8F70629596
:101000006F70682B81E09613F1CF089581E0FDCFDA
:10101000DC016091DE048091DF04962F891301C00A
:101020000895292F30E0F901EE0FFF1FEA52FB4F20
:10103000408151814A175B07A1F487E08A9FA00194
:101040008B9F500D112442565B4F81E0FA0184833F
:101050009613E6CF2F5F3F4F237033272093DE0494
:1010600008952F5F3F4F922F9370D8CF10923A047C
:1010700010923904EEE9F4E08581811102C01482F6
:101080001682379684E0E63DF807B1F7089530916F
:101090001F058317A0F590E0262F26952695269507
:1010A000239F800D911D1124811522E092073CF5AC
:1010B000FC01EE5DFA4F5081677021E030E001C025
:1010C000220F6A95EAF74423D9F0252B2517B9F0AA
:1010D000208325E0969587952A95E1F721E030E079
:1010E00002C0220F331F8A95E2F78091200590916C
:1010F0002105822B932B9093210580932005089541
:1011000020952523E3CF80E00895F894E82FE29519
:10111000EF70F0E031A1282F2F7081E090E001C046
:10112000880F2A95EAF7982F9095932391A392A17F
:10113000892B82A3789408959091CF0292FF06C0E4
:10114000282F28712830F9F4877F846093FF06C028
:10115000282F28712831F1F4877E84612091D002F4
:1011600020FF06C0382F38713830D9F4877F81606E
:1011700021FF06C0282F28712831D1F4877E816194
:1011800094FD877E0895282F24712430F9F68B7FF3
:101190008860DCCF282F2471243101F78B7E886191
:1011A000DDCF382F3171313019F78E7F8860E0CF75
:1011B000282F2171213121F78E7E8861E1CFCF93D5
:1011C000DF93EC0182389105A9F1D8F581339105BF
:1011D00009F496C048F58932910509F48AC08A97C6
:1011E00009F495C0C11522E5D20708F0B6C0C115B3
:1011F00031E5D30708F026C1C83ED10508F09CC0F0
:10120000C03ED10560F5C83AD10508F087C0C53A9F
:10121000D10508F0EFC0C130D10509F12097F9F0F0
:10122000C430D105E0F440C08533910509F45AC0BB
:10123000C997C1F68091CF02837089F0C0EED0E0EB
:101240000EC0833E910599F170F4803E910501F145
:10125000823E910539F68091CF0282FD21C0CE01F8
:10126000DF91CF910895863E910561F1873E91050A
:1012700071F1843E910509F0B5CF8091D00281FFD4
:10128000EECF8091CF02C7EED0E084FD0DC0E7CF56
:101290008091CF0280FD07C19091D00290FFDFCFF7
:1012A000C3EED0E084FFDBCFD0E0C0E0D8CF8091A8
:1012B000CF0282FDFBC09091D00290FDBFCF84FF92
:1012C000CECFF2CF8091CF0283FDDDCFC8CF80910A
:1012D000CF0283FDEEC09091D00291FFF0CFC4EE1B
:1012E000D0E0BDCF8091CF0285FFB9CFC9E2D0E079
:1012F000B6CF8091CF0285FFB2CFC5E3D0E0AFCFAC
:101300008091CF0286FFABCFCAE2D0E0A8CF809118
:10131000CF0286FFA4CFC1E3D0E0A1CFCF3BD10560
:1013200018F6C85AD0E0CC0FDD1FC95DDE4F09901A
:10133000D881C02DD46493CFC11540E5D40708F0FF
:1013400064C0C11580E4D80708F05CC0CE019A954E
:1013500081159F4108F483CFA7CFC11536E5D30788
:1013600018F5C11545E5D40708F084C0C11584E51A
:10137000D80708F07AC09C2F969596959E01237009
:101380003327C115D34508F462C0C1E0D0E002C0E4
:10139000CC0FDD1F2A95E2F730E2939FC0011124A4
:1013A000C82BD92BDA685BCFC1158AE5D80778F44A
:1013B000C11599E5D90708F068C0C11528E5D2071D
:1013C00008F472CFDC2FCC27C06FD06A48CFCE0193
:1013D00090568115904208F067CF8D2F8F710E9433
:1013E0009C0890E0982F882788279F719C012C2BC0
:1013F000E90149C0C55AD0E0CC5DDE4FC881D0E0DC
:10140000D0642DCFDF70D06A2ACFCE01E4E096956C
:101410008795EA95E1F783702C2F26952695237002
:1014200040E2249F90011124382B8C2F8370C1E05F
:10143000D0E002C0CC0FDD1F8A95E2F7C22BD32B80
:10144000DC680DCFDC2FCC27C16FD06A08CFC1E09C
:10145000D0E002C0CC0FDD1F2A95E2F720E2929F78
:10146000C0011124C82BD92BEBCFDC2FCC27C46FA4
:10147000D06AF5CE8C2F0E949C08C82FD0E0DC2FBC
:10148000CC27CC27DF71D062EACE8C2F8F700E94E0
:101490009C0834E0D695C7953A95E1F7CF709C2F1C
:1014A000EC01D069DCCEC9E3D0E0D9CEC2EED0E009
:1014B000D6CEC6EED0E0D3CE8091C302882331F0E1
:1014C0001092C3021092C2021092C1020895809538
:1014D0009091C00298239093C00208951092B70291
:1014E0001092B6021092B50208958091B402811153
:1014F0001092B4020895EEE8F1E09191891303C0CF
:10150000DF0111971C9291E0E439F907B1F70895D2
:10151000AEE8B1E0EFEF90E02D91821751F0EF3F90
:1015200019F4211101C0E92F9F5F9630A9F7EF3F11
:1015300009F408950E2E000CFF0BE457FE4F828332
:1015400008958091B30290917202981301C008959A
:101550008F5F8770FACF9E3F51F1292F220FE22F24
:10156000E90FEE0FE80F9E2F9770E695E695E6954A
:1015700083E0E89FF0011124E85AFD4F50E040E07D
:1015800080E0219130E0092E02C0369527950A941B
:10159000E2F721703327042E01C0220F0A94EAF7E4
:1015A000822B4F5F5F4F4330510559F7089580E01C
:1015B00008959E3F71F1292F220FE22FE90FEE0FC0
:1015C000E80F8E2F877041E001C0440F8A95EAF73B
:1015D000E695E695E69583E0E89FF0011124E85A48
:1015E000FD4F30E020E070E05191DF011197CB0119
:1015F000022E02C0969587950A94E2F78170819534
:101600008527842385278C932F5F3F4F2330310517
:1016100059F708959C013A9521153F4150F5FC0179
:10162000EE27F170BC0166277270AC01442754703C
:101630009C012227387094FF0EC080E1EF2B09F443
:1016400080E0672B09F08062452B09F08064232B32
:1016500089F08068089581E0EF2B09F480E0672B22
:1016600009F08260452B09F08460232B19F0886013
:10167000089580E00895EF92FF920F931F93CF9308
:10168000DF938091530290912203911121C09FE139
:10169000F92EF81AC1E705E010E031E7E32EDE2D60
:1016A000DC1B07C06F2D6D1B41E08C2F0E9447088B
:1016B000DF5FD0171106B4F301501109C150CE36C7
:1016C00071F7DF91CF911F910F91FF90EF900895E7
:1016D00090915202282F291B1216DCF4DFE1D91B4E
:1016E000D53078F3C0E021E7F22E1AE1191B0F2D57
:1016F0000C1B6D2F6C1B40E0802F0E944708612F50
:101700006C0F41E0802F0E944708CF5FC33079F70C
:10171000D8CF2223B1F2DFE1D81BD53090F2C0E060
:1017200091E7F92E1AE1181B0F2D0C1B612F6C0F7E
:1017300040E0802F0E9447086D2F6C1B41E0802FF6
:101740000E944708CF5FC33079F7BBCFBF92CF92DB
:10175000DF92EF92FF920F931F93CF93DF93D82FD7
:1017600080912203882309F44AC084E9E82E81E0AD
:10177000F82E04EF11E0CCE09FE1C92EF801D180F2
:101780008081BD2CB81AB7FE06C06C2D681B40E0E6
:101790008C2F0E944708F701818181937F01F80116
:1017A000D1928F01BB2031F06C2D6D1941E08C2F4F
:1017B0000E944708CF5FCB3609F78091F301C091B3
:1017C00053028D1778F5CF3168F5CF5FC093530280
:1017D000D093F30180915302909152028917C1F086
:1017E0006FE1681B41E08BE6DF91CF911F910F9174
:1017F000FF90EF90DF90CF90BF900C944708CCE023
:1018000041E06FE18C2F0E944708CF5FCC36C1F7D3
:10181000DF91CF911F910F91FF90EF90DF90CF90CC
:10182000BF900895D81710F0D111D2CFCC2381F2F8
:101830006FE16C1B40E08BE60E944708C150C6CFA9
:10184000EF92FF920F931F93CF93DF938C018091C0
:101850002203811123C0C1E041E06EE08C2F0E9481
:10186000470841E06FE18C2F0E944708CF5FC930E5
:1018700099F7CFE041E06C2F80E00E94470841E0FB
:101880006C2F89E00E944708CF5FCF3199F7DF9135
:10189000CF911F910F91FF90EF900895F801D181A2
:1018A000C081C250DD0FCC0F8FE0F82EFD0EEE246C
:1018B000E394EC0E42816F2D8E2D0E944708D05F7D
:1018C000F80142816D2F8E2D0E944708CE5FF801EE
:1018D00042816F2D8C2F0E944708F80142816D2FA5
:1018E0008C2FDF91CF911F910F91FF90EF900C946F
:1018F0004708CF93DF93C0912807D09129078A30FA
:10190000C1F420911F05CE0182529540622F70E0F4
:101910000E947732281B822F66E00E948B32C82FEC
:10192000C15018F4DF91CF91089580E20E94790CA4
:10193000F7CF8D30E9F4C252D54020911F05622FB8
:1019400070E0CE010E947732281B822F9E01280F63
:10195000311D2115324018F080E0D0E0C0E0C80F02
:10196000D11DCE5DDA4FD0932907C0932807DACF77
:1019700096E0FE01A2E2B7E001900D929A95E1F7A0
:10198000803E08F458C086E0FE0111928A95E9F77E
:10199000C0912807D091290746E050E0BE0182E2BD
:1019A00097E00E9424339E0122523540892B41F159
:1019B000C90145E0969587954A95E1F741E050E0E9
:1019C000BA0102C0660F771F8A95E2F7CB016091DA
:1019D000200570912105862B972BB9016B5F7F4FF6
:1019E000E5E076956795EA95E1F702C0440F551F4B
:1019F0006A95E2F7842B952B90932105809320051F
:101A00002A5F3F4F40911F05642F70E0C9010E947B
:101A10007732481B463010F4240F311D211572E037
:101A2000370710F030E020E02E5D3A4F3093290761
:101A30002093280777CFF6E08F9FB00111246956D5
:101A40007A4F46E050E0CE010E941B33A1CF0F93A6
:101A50001F93CF93DF93EC01FC0101900020E9F785
:101A60008F0101501109C017D10728F0DF91CF91E4
:101A70001F910F91089589910E94790CF4CFCF9214
:101A8000DF92EF92FF920F931F93CF93DF936C013E
:101A90007B0164E670E088E70E947631EC0197FDF7
:101AA00012C010E000E0F601E00FF11F849164E63F
:101AB00070E00E94F031EC01892B29F40F5F1F4F79
:101AC0000E151F0581F70E947332CE01DF91CF9171
:101AD0001F910F91FF90EF90DF90CF90089580912C
:101AE000370490913804911103C091E0892708953B
:101AF000882369F062E070E08AEE94E00E943F0D76
:101B0000892B19F080913704089510923704809141
:101B10003704EBCFCF93C0913704809138048823EA
:101B2000D1F00E945307605A75418F4F9F4F6093C9
:101B30003304709334048093350490933604C111B8
:101B400008C062E070E088EE94E00E943F0D892BAF
:101B500029F0C09137048C2FCF91089581E08093B4
:101B60003704F7CF80930005709302056093010559
:101B7000809119058430F9F48093E9008FEF9091FA
:101B8000E800815095FD06C095ED9A95F1F70000AB
:101B90008111F5CF8091E80085FF0DC050E040E055
:101BA00063E070E080E095E00E94DB058091E80052
:101BB0008E778093E8000895BC0184E00C94B20D08
:101BC000BC0183E00C94B20DCF93DF93EC0181E074
:101BD0008093E9008FEF9091E800815095FD06C059
:101BE00095ED9A95F1F700008111F5CF8091E8000D
:101BF00085FF14C050E040E068E070E0CE010E9434
:101C0000DB058091E8008E778093E80088E0FE0194
:101C1000A6E0B5E001900D928A95E1F7DF91CF91B2
:101C20000895CF93DF93C7E5D2E060E0CE010E9434
:101C300056332196C11584E0D807B9F7DF91CF91CB
:101C400008951F93CF93DF93122F8430D8F461113E
:101C500019C04230B8F494E0899FE001112450E0AB
:101C6000440F551FC40FD51FC955DE4F632FCE013A
:101C70000E945633612FCE010196DF91CF911F91C3
:101C80000C945633DF91CF911F9108950F931F93BA
:101C9000CF93DF938901843048F5683038F54630BA
:101CA00028F521153C4531F420912D0430912E0466
:101CB000232BE1F0C42FD0E0CC0FDD1F9CE0699F07
:101CC000C00DD11D112490E6899FC00DD11D112496
:101CD000612FCE0187960E945633602FCE018896E1
:101CE000DF91CF911F910F910C945633DF91CF91DB
:101CF0001F910F910895CF93C82F6FEF811169E65F
:101D000083E290E00E9456336FEFC1116FE484E2EA
:101D100090E00E9456336FEFC11164EE85E290E0CF
:101D2000CF910C9456335F926F927F928F929F92D5
:101D3000AF92BF92CF92DF92EF92FF920F931F93D9
:101D4000CF93DF93CDB7DEB764970FB6F894DEBFBD
:101D50000FBECDBFC0902D04D0902E0481E090E046
:101D600090932E0480932D0488EBE82E83E0F82EC8
:101D700098ECA92E93E0B92E10E0450100E015C0C3
:101D8000F30125913491452D602F812F0E94460E3D
:101D900082E0680E711C539496E05912F1CFECE08A
:101DA0008E0E911C0F5F083019F03401512CE8CFD2
:101DB000F7012591349140E060E0812F0E94210ECF
:101DC000F70132962591349141E060E0812F0E9425
:101DD000210EF4E0EF0EF11C1F5F80E6A80EB11C8F
:101DE000143009F0CACFFE0131967F018AE01192CA
:101DF0008A95E9F707EB11E04AE050E0B801C70126
:101E00000E947A33065F1F4F0730F2E01F07A1F7E9
:101E10007E018BE0E80EF11C8AE0F70111928A95B1
:101E2000E9F78FEF9FEF988B8F8787E08C8B4AE0E5
:101E300050E0B801C7010E947A33065F1F4F073593
:101E4000F2E01F07A1F7D0922E04C0922D046496F1
:101E50000FB6F894DEBF0FBECDBFDF91CF911F91BB
:101E60000F91FF90EF90DF90CF90BF90AF909F9039
:101E70008F907F906F905F90089580E00E947B0E1E
:101E800060E086E290E00E9456330E94930E0E942A
:101E9000110E81E00C947B0E0F931F93CF93DF9371
:101EA000843000F561111EC024E0829F800111245E
:101EB00050E0440F551F040F151F09551E4FC80150
:101EC0000E944833C82FD0E0DC2FCC27C8010196F0
:101ED0000E9448339E01282BC901DF91CF911F91A9
:101EE0000F91089590E080E0F8CF0F931F93CF9368
:101EF000DF93843030F5683020F5463010F5C42F7C
:101F0000D0E0CC0FDD1F2CE0629FC00DD11D11244D
:101F100030E6839FC00DD11D1124CE0187960E940B
:101F20004833082F10E0102F0027CE0188960E941A
:101F300048339801282BC901DF91CF911F910F9150
:101F4000089590E080E0F8CF462F20913104309141
:101F50003204232B91F47E3F39F46E3F71F480916B
:101F60002F04909130040895843038F4783028F4A8
:101F7000663018F4672F0C94750F90E080E0089598
:101F8000CF92DF92FF920F931F93CF93DF936C0159
:101F900000911B0580911A05082BC7E0D0E010E0E6
:101FA000FC2EC8010C2E02C0959587950A94E2F785
:101FB00080FD0CC02197A0F7F12C8F2DDF91CF91E0
:101FC0001F910F91FF90DF90CF900895B6018C2F55
:101FD0000E94A40F0E94DF08019761F3EECFCF9318
:101FE000DF93EC010E94C00FBE010E94A40FDF919D
:101FF000CF910C94DF08FC0186819781009791F0C6
:102000000E94DF0892959F709630B9F080F4925F3D
:102010009F70923080F4803F19F058F4883E58F455
:1020200081E00895808191810E94EF0FEBCF9A5F4C
:10203000EFCF843FA9F380E00895883E88F3813F85
:10204000D1F7EECF1F93CF93DF9300D000D00F9244
:10205000CDB7DEB7FC01268137812115310541F569
:1020600025E0DE01119601900D922A95E1F7FC0121
:10207000228189819A812223B9F06623A9F00E94E6
:10208000C00F182F682F89819A810E94D90A69810F
:102090007A81812F0F900F900F900F900F90DF910A
:1020A000CF911F910C94A40F0E94AB0A182FEFCF71
:1020B000C9010F900F900F900F900F90DF91CF916B
:1020C0001F91089583E290E00E944833893689F495
:1020D00084E290E00E9448338F3459F485E290E026
:1020E0000E94483391E0843E09F090E0892F81708E
:1020F000089580E0FCCFCF9384E090E00E944833C5
:10210000C82F82E290E00E944833982F8C2FCF9105
:1021100008958F929F92AF92BF92CF92DF92EF92EB
:10212000FF920F931F93CF93DF93CDB7DEB72A971C
:102130000FB6F894DEBF0FBECDBF05EB13E083EA08
:10214000C82E83E0D82E97E0E92E92E0F92E27E002
:10215000922E32EAA32E33E0B32E88248394D60144
:102160000D931D936D014AE050E0B701CE01019639
:102170000E943833F8013896DF01892D1D928A9527
:10218000E9F789819A81D80111969C938E938F816A
:1021900012968C9312978D8113968C931397888542
:1021A00014968C931497898515968C9315978B812B
:1021B0009C8117969C938E93169718961C9218974D
:1021C0008A8587FF4BC01E961C921E921D9780FF2A
:1021D00003C0D80118968C9281FF04C0F801908545
:1021E0009260908782FF07C0D80118969C9118973B
:1021F000946018969C9383FF04C0F80190859860C2
:10220000908784FF07C0D80118969C911897906119
:1022100018969C9385FF04C0F801808580628087B2
:10222000015F1F4FFAE0EF0EF11C87E5E81682E030
:10223000F80609F094CF2A960FB6F894DEBF0FBEC9
:10224000CDBFDF91CF911F910F91FF90EF90DF9065
:10225000CF90BF90AF909F908F900895F801B68671
:10226000A586B5CFCF92DF92EF92FF920F931F9387
:10227000CF93DF93CDB7DEB72A970FB6F894DEBFC2
:102280000FBECDBFE2E5F3E080E5DF011D928A9548
:10229000E9F7EEE9F4E088E3DF011D928A95E9F7BA
:1022A00082E5C82E83E0D82E7F0107EB11E0F7010D
:1022B000D182C0824AE050E0B801CE0101960E946E
:1022C000383388E0FE013196D60101900D928A954F
:1022D000E1F789859A85D70113969C938E9312977F
:1022E000BAE0CB0ED11CE7E0EE0EF11C065F1F4FEB
:1022F0000730F2E01F07D9F62A960FB6F894DEBF32
:102300000FBECDBFDF91CF911F910F91FF90EF9046
:10231000DF90CF90089569EE7EEF90E080E00E941C
:10232000743360E082E090E00E94563360E083E026
:1023300090E00E94563310921A0560E084E090E02D
:102340000E94563360E082E290E00E94563360E0E3
:1023500085E090E00E94563360E086E090E00E94C5
:1023600056336FEF87E090E00E94563340E050E034
:10237000BA0188E090E00E94683360E08DE090E070
:102380000E94563340E050E0BA0188E190E00E949C
:10239000683360E087E190E00E94563340E050E00F
:1023A000BA018CE190E00E94683370E060E080E266
:1023B00090E00E94743340E050E0BA0188E190E080
:1023C0000E94683380E00E947B0E0E943D0F40E037
:1023D00050E0BA018FE090E00E94683340E050E0A6
:1023E000BA0183E190E00C9468331F920F920FB60C
:1023F0000F9211242F933F934F935F936F937F938B
:102400008F939F93AF93BF93EF93FF938091E100DE
:1024100082FF09C08091E20082FF05C08091E10047
:102420008B7F8093E1008091DA0080FF24C080914F
:10243000D80080FF20C08091DA008E7F8093DA0080
:102440008091D90080FF9DC080E189BD82E189BD76
:1024500009B400FEFDCF81E080931905809103054A
:10246000811109C00E948B050E947E068091E200C6
:1024700084608093E2008091E10080FF17C080912A
:10248000E20080FF13C08091E2008E7F8093E20023
:102490008091E20080618093E2008091D8008062A8
:1024A0008093D80019BC85E0809319058091E100E4
:1024B00084FF2BC08091E20084FF27C080E189BDAA
:1024C00082E189BD89B5982F917080FFFBCF809103
:1024D000D8008F7D8093D8008091E1008F7E80931B
:1024E000E1008091E2008F7E8093E2008091E20023
:1024F00081608093E20080911005882309F447C031
:1025000084E080931905809119058091E10083FF93
:1025100027C08091E20083FF23C08091E100877F84
:102520008093E10082E0809319051092100580915C
:10253000E1008E7F8093E1008091E2008E7F8093A6
:10254000E2008091E20080618093E20042E060E07E
:1025500080E00E944C068091F00088608093F0003B
:10256000FF91EF91BF91AF919F918F917F916F916B
:102570005F914F913F912F910F900FBE0F901F9041
:10258000189519BC109219051092030574CF80910B
:10259000E30087FD93E090931905B5CF78941F92DF
:1025A0001FB61F9211248F939F93AF93BF93809177
:1025B000FC049091FD04A091FE04B091FF040196EB
:1025C000A11DB11D8093FC049093FD04A093FE0413
:1025D000B093FF04BF91AF919F918F911F901FBE49
:1025E0001F9018959C014FB7F8948091FC0490912E
:1025F000FD04A091FE04B091FF044FBF821B930B1A
:1026000008952FB7F8948091FC049091FD04A09157
:10261000FE04B091FF042FBF08958F929F92BF9246
:10262000CF92DF92EF92FF920F931F93CF93DF939E
:10263000CDB7DEB728970FB6F894DEBF0FBECDBF7B
:102640008E010F5F1F4F88E0F80111928A95E9F71C
:1026500095E5E92E91E0F92EBB24B394CC24C394E4
:10266000D12CF70181917F018F3F09F449C0F89483
:10267000E82FE295EF70F0E021A18F70A60102C073
:10268000440F551F8A95E2F7CA01922F982B91A308
:1026900092A18095892382A3789400C08BE5882E2F
:1026A00081E0982ED8016B2D6095F40191914F0136
:1026B0008D919D01215031099F3F09F45DC0492F43
:1026C00042954F7050E0FA0140A150E09F7002C067
:1026D000559547959A95E2F740FD4EC08B29F90133
:1026E0008083F3E68F16F1E09F06F9F6F701319744
:1026F00080818F3F11F00E94850840EA4A95F1F7EA
:10270000BB0C5BE5E51651E0F50609F0AACF48E001
:1027100050E0B80187EC92E00E942433FF24F39448
:10272000009709F4F12C892B49F188E0F801A7EC16
:10273000B2E001900D928A95E1F781E08093C602A4
:102740000E9401139093C5028093C4028091C40239
:102750009091C5020E94F2120597A0F0E7ECF2E01A
:10276000AAE4B3E08FEC92E021912D938E179F079E
:10277000D9F71092C60206C08623B1CF8091C60257
:102780008111E4CF8F2D28960FB6F894DEBF0FBECF
:10279000CDBFDF91CF911F910F91FF90EF90DF9010
:1027A000CF90BF909F908F9008958091C00290919C
:1027B0003B04892B80938C018091C302882319F1FB
:1027C0000E9401132091C1023091C202821B930B1F
:1027D0008838934110F00E945C0A80918C0190919E
:1027E000C302892B80938C0120E08EE891E0FC01EC
:1027F0003191CF0131112F5FF1E084399F07B9F793
:1028000021110E945C0A8091EE04809590918C01C8
:1028100089239091EF04892B80938C0148E050E04C
:1028200068EB72E08CE891E00E942433892BA9F0D8
:1028300088E0ECE8F1E0A8EBB2E001900D928A9517
:10284000E1F7E091F704F091F804309731F002805D
:10285000F381E02D8CE891E00994089590E080E008
:102860000E94750790E080E00E945F0710923B0491
:102870000C94D51380931B050C942E1480911B058A
:10288000982F9670963019F488600C943A14877FCC
:10289000FCCF21E030E001C0220F8A95EAF72095B5
:1028A00080911B0582230C943A149091B702809575
:1028B00089238093B702282F277091F4282F082EA0
:1028C000000C330B9217130659F09091D00292FD31
:1028D00007C08595859585950E9449140C946E0ACC
:1028E0000895CF93C091D002C2FB992790F9981711
:1028F00099F080FBC2F9C093D0026091CF0284E0CE
:1029000090E00E9456336C2F82E290E00E94563392
:1029100082E0CF910C945514CF91089521E030E0DE
:1029200001C0220F8A95EAF780911B05822B0C9437
:102930003A1480931A050C942E141092C002EEE8FB
:10294000F1E086E0DF011D928A95E9F70C942E14E0
:102950001F93CF93DF93CDB7DEB7AA970FB6F89446
:10296000DEBF0FBECDBF81E195E02091F100DC011B
:102970002D93CD01B5E089319B07B9F78091120500
:10298000833009F472C0B8F4813009F449C0823050
:1029900009F4B3C08091E80083FF96C280911105CD
:1029A000909112059A3008F08FC2E92FF0E0EC56B2
:1029B000FC4C0C94EC328A3009F48EC08B3009F454
:1029C00071C0893039F780911105813219F78091F2
:1029D000150590911605009711F00297D9F6809190
:1029E000E800877F8093E8008091E80082FF38C08C
:1029F0009091F3008091F200029731F48091F10000
:102A0000813011F0863021F48091F100809305052A
:102A10008091E8008B778093E8000E942D06BACF62
:102A200080911105813A09F0B5CF8091E800877F48
:102A30008093E8008091150590911605892B61F42B
:102A400068E086E095E070E00E94DF068091E80093
:102A50008B778093E8009ECF60E090E080E0F3CF3A
:102A6000809119058111C0CF95CF80911105813AD0
:102A700009F090CF8091150590911605892B09F0EA
:102A800089CF8091E800877F8093E8008091E800FB
:102A900080FFFCCF809117018093F1008091E800C6
:102AA0008E77B9CF80911105813209F073CF809173
:102AB000150590911605892B09F06CCF8091E800DF
:102AC000877F8093E8000E942D06809113058093F4
:102AD00017010E949D145ECF80911105813209F08B
:102AE00059CF8091E800877F8093E8000E942D06EF
:102AF00080911405809304054DCF80911105813A92
:102B000009F048CF8091E800877F8093E8008091AA
:102B1000E80080FFFCCF80910405BECF803899F09B
:102B2000823809F0D1C1809115058F70873008F087
:102B3000CBC18093E9008091EB0085FB882780F969
:102B40001092E90006C080910E0590910F05911139
:102B500082609091E800977F9093E8008093F10065
:102B60001092F1008091E8008E77AAC1882309F4C1
:102B700098C1823009F0A8C18091130581119BC1D1
:102B8000809115058F702FEF280F263008F09CC11B
:102B90008093E9002091EB0020FF8DC1933031F448
:102BA0008091EB0080628093EB0085C19091EB00F7
:102BB00090619093EB0021E030E001C0220F8A95F4
:102BC000EAF72093EA001092EA008091EB00886017
:102BD000EACF811179C1109113051F778091E3002D
:102BE0008078812B8093E3008091E800877F809339
:102BF000E8000E942D068091E80080FFFCCF8091C4
:102C0000E30080688093E30082E0111183E0809309
:102C100019055AC18058823008F056C12091130519
:102C2000309114052C3DE3E03E07A1F583E08A8353
:102C30008AE289834FB7F894DE01139620E03EE0E4
:102C400051E2E32FF0E050935700E49120FF03C0DE
:102C5000E295EF703F5FEF708E2F90E0EA30C0F0AA
:102C6000C7968D939D932F5F243159F74FBF809165
:102C7000E800877F8093E8006AE270E0CE01019669
:102C80000E94DF068091E8008B778093E8001CC1EA
:102C9000C096E7CF8091150590911605432F5527D3
:102CA0004330510509F44AC078F54130510509F423
:102CB00085C08BE590E0ECEEF4E04230510509F080
:102CC00003C12091E800277F2093E8002091170599
:102CD000309118058217930708F49C0140E02115F4
:102CE000310509F070C041116EC08091E80082FD8D
:102CF000C9CF80911905882329F2853019F2809176
:102D0000E80083FFF2CFBECF4132510509F447C03E
:102D10004232510509F0D8C08330910508F0D4C083
:102D2000FC01EE0FFF1FE258FE4F0190F081E02DF5
:102D300085589E4FDC018C9190E01DC033272130D7
:102D40003105E9F02115310579F022303105F9F02E
:102D50002330310509F0B8C0E9E5F5E0E4918E2FA4
:102D600090E0E9E5F5E007C0E3E9F5E0E4918E2FB6
:102D700090E0E3E9F5E0009709F4A6C0A2CFE3E80C
:102D8000F5E0E4918E2F90E0E3E8F5E0F4CFE7E79B
:102D9000F5E0E4918E2F90E0E7E7F5E0ECCF8330AB
:102DA000910508F091C0880F991FFC01EC57FE4F68
:102DB0000190F081E02D89E090E083CF82E190E006
:102DC000E7E4F5E07ECF80911905882309F45ACF16
:102DD000853009F457CF8091E80083FD53CF80916F
:102DE000E80082FD82CF8091E80080FF78CF90914B
:102DF000F3008091F2002115310519F0883091051A
:102E000050F041E0089709F040E08091E8008E77AB
:102E10008093E80064CF44914093F10031962150B3
:102E200031090196E8CF803809F04EC08091E80062
:102E3000877F8093E800809110058093F10092CE07
:102E4000811142C0109113051230F0F58091E80015
:102E5000877F8093E800109310050E942D061123B0
:102E600011F084E005C08091E30087FDFACF81E096
:102E70008093190542E061EC81E00E944C0642E239
:102E800061EC84E00E944C0642E261EC82E00E9428
:102E90004C0642E260EC83E00E944C0680911905EA
:102EA00013C080911305813079F481E0933009F0EB
:102EB00080E080930F051092E9008091E800877F01
:102EC0008093E8000E942D068091E80083FF0AC0ED
:102ED0008091E800877F8093E8008091EB0080621A
:102EE0008093EB00AA960FB6F894DEBF0FBECDBF5D
:102EF000DF91CF911F9108951F920F920FB60F92FD
:102F000011242F933F934F935F936F937F938F93EE
:102F10009F93AF93BF93CF93DF93EF93FF93D091A2
:102F2000E900DF708091EC00C82FC17080FDC0E81F
:102F30001092E9008091F000877F8093F0007894F0
:102F40000E94A8141092E9008091F000886080939C
:102F5000F000CD2BCF70C093E900FF91EF91DF918E
:102F6000CF91BF91AF919F918F917F916F915F9121
:102F70004F913F912F910F900FBE0F901F9018957A
:102F8000882341F0809590913B04892380933B04F2
:102F90000C94D5130895882339F090913B04982B15
:102FA00090933B040C94D5130895882321F00E943C
:102FB000670A0C94D5130895882339F09091C002C4
:102FC000982B9093C0020C94D5130895882309F48C
:102FD0004BC0823871F40E948B0781FF45C089E3A2
:102FE0000E94880A0E94D51389E30E947B0A0C94F0
:102FF000D513833859F40E948B0780FF35C083E5D1
:103000000E94880A0E94D51383E5EFCF843859F4D3
:103010000E948B0782FF28C087E40E94880A0E94D2
:10302000D51387E4E2CF9CEF980F913AF0F290E24B
:10303000980F983050F4877091E001C0990F8A95ED
:10304000EAF7892F0E94670AD2CF9BE5980F933049
:1030500020F490E080E00C947507885A873120F4C2
:1030600090E080E00C945F070895FF920F931F9308
:10307000CF93DF93F82E0091F3041091F40401151F
:10308000110509F449C01092F2041092F104109253
:10309000EE041092EF04D8011696CD91DC919E01BA
:1030A0003A9521153F4108F4D07ED1E0C11101C00D
:1030B000D0E0D8011996ED91FC911A97309731F034
:1030C0001B966D917C9180E00995D823DD2339F022
:1030D0008CEF8C0F813A38F58C2F0E947B0AFF20F1
:1030E00099F0E091F304F091F404808584FD0CC024
:1030F0008091F004882341F0808191819C012150CE
:103100003109253A3D45A8F00E94D5131092F404E8
:103110001092F3041092F004C801DF91CF911F9137
:103120000F91FF9008950E94D5138C2F0E94E617EF
:10313000D6CF0E949707E8CFCF93C82F882309F4F2
:1031400088C08238C1F40E948B0781FD82C089E368
:103150000E94880A0E94D5132FEF81EE94E021503F
:1031600080409040E1F700C0000089E30E947B0AA4
:10317000CF910C94D5138338A1F40E948B0780FD66
:1031800068C083E50E94880A0E94D5132FEF81EE64
:1031900094E0215080409040E1F700C0000083E5BA
:1031A000E5CF8438A1F40E948B0782FD52C087E4EA
:1031B0000E94880A0E94D5132FEF81EE94E02150DF
:1031C00080409040E1F700C0000087E4CFCF8CEF53
:1031D0008C0F813A68F4EEE8F1E08191C81799F11B
:1031E00021E0E439F207C9F78C2F0E94880AC0CF8A
:1031F00080E28C0F883068F4C77021E030E001C0B5
:10320000220FCA95EAF78091C002822B8093C002F8
:10321000AFCFEBE5EC0FE33040F4F0E0EC5DFE4FB8
:10322000808190E0CF910C947507C85AC73188F41B
:10323000EC2FF0E0EE0FFF1FE95DFE4F80819181E2
:10324000CF910C945F078C2F0E947B0A0E94D513AC
:10325000CBCFCF9108951F93CF93DF93182FD0E05A
:10326000C0E0893311F4C0E5D0E0812F0E949C18A2
:10327000209731F4812FDF91CF911F910C94E617A5
:103280008FE99FE00197F1F700C000002197F0CF90
:103290000F931F93CF93DF93C62FD42F022FFC01E0
:1032A00082818823A1F060931E050E9401139093F0
:1032B0001D0580931C05C77081E001C0880FCA9569
:1032C000EAF7DF91CF911F910F910C94DC17809159
:1032D0001E05681335C080911C0590911D050E9444
:1032E000F212883C910560F510E21D0FCD17B9F080
:1032F00080E28C0F883040F4C77081E001C0880FF5
:10330000CA95EAF70E94D517183048F481E09D2F3E
:10331000977001C0880F9A95EAF70E94DC17802FFA
:103320000E942B19183098F4D77081E001C0880FE3
:10333000DA95EAF7DF91CF911F910F910C94D51791
:10334000C77081E001C0880FCA95EAF7F3CFDF911B
:10335000CF911F910F910895AF92BF92CF92DF92BC
:10336000EF92FF920F931F93CF93DF93EC018AE0CC
:10337000A82E2881222309F48CC02130C9F5998117
:103380008A81913021F422960E942B1905C0923037
:1033900029F422960E949C182196EBCF933021F4B9
:1033A00022960E94E617F8CF943011F02196F4CFC0
:1033B000229630E020E0AE014F5F5F4F8053990BC3
:1033C0008A30910550F02150310930F38FE99FE0A8
:1033D0000197F1F700C00000F6CFA29EB001A39EB6
:1033E000700D11249C01260F371F8981EA01E3CF5C
:1033F000E22FF0E0E059FE4FB490822F869586953B
:10340000869590E0FC01E05AFE4FE4902770F12C85
:10341000022E02C0F594E7940A94E2F731E0E32229
:10342000FF24FC01E05BFE4FC490D12C022E02C0B1
:10343000D594C7940A94E2F731E0C322DD24FC015D
:10344000E05CFE4F049110E002C0159507952A95A7
:10345000E2F701701127E114F10419F081EE0E94E6
:103460009C18C114D10419F086EE0E949C188B2D73
:103470000E942B19CD2819F086EE0E94E617EF283E
:1034800019F081EE0E94E617012B09F485CF8CE23A
:103490007BCFDF91CF911F910F91FF90EF90DF9045
:1034A000CF90BF90AF900895CF93DF93EC010E942F
:1034B0000A0B9E01205E31092830310510F020975B
:1034C00039F40E94DC178C2FDF91CF910C949C185B
:1034D0000E94CB17F8CF9091D00292FD10C098E0D7
:1034E000899F90011124622B6093B7020E948E1471
:1034F0000E9401139093B6028093B50208950C9434
:103500008E142F923F924F925F926F927F928F9282
:103510009F92AF92BF92CF92DF92EF92FF920F9362
:103520001F93CF93DF93CDB7DEB769970FB6F894AB
:10353000DEBF0FBECDBF498B5A8B6B8B7C8B8D8BC7
:10354000611110923B041D861E861F86188A85E035
:10355000FE017196DE01199601900D928A95E1F7B0
:103560008091D00282FD1CC00E9401132091B502FF
:103570003091B602821B930B8838934120F08091E2
:10358000B70282FFFEC10E9401132091C102309157
:10359000C202821B930B8838934110F00E945C0A90
:1035A0008C859D85892B31F089859A8589238F3F6C
:1035B00009F0D3C129853A854B855C856D857E856B
:1035C0008F8598890E94E126C2C048EFC4164CE559
:1035D000D40629F4882379F00E94B027EBCF69EF55
:1035E000C6166CE5D60639F4882329F080911601B9
:1035F0008111F2CFC2C10EE914E0E12CB12CA12C53
:1036000088248394912C2EEF522E44244394F80165
:103610004081518166246A94762C20E0822F90E0CC
:10362000FC01EE0FFF1FE40FF51F60817181611532
:10363000710531F0C616D70609F43C012F5FEECFB5
:10364000F12CFFEF6F167F0609F443C0F8014481A7
:10365000F09016018F2D411180E0F82FF170FF2EB0
:10366000F801258086819B85992309F406C1FF20F6
:1036700009F403C1211013C0A40101C0440F6A94CE
:10368000EAF7842B86838091390490913A04C2979B
:1036900030F462E370E070933A0460933904C4013B
:1036A00002C0880F991F2A95E2F70197F801268139
:1036B0002817190671F48091E0049091E1040097B5
:1036C00009F45EC00E94F212C39708F459C0F801D1
:1036D0004482EF28FFEFAF1ABF0A095F1F4F28E0AF
:1036E000A216B10409F093CF8B85882309F420C179
:1036F000EE2009F41DC10E9401139093E104809310
:10370000E00480913D04883010F591E0980F90938B
:103710003D0498E0FE013996DE01119601900D926C
:103720009A95E1F73CE0839FC0011124825C9B4F96
:1037300028E0FE013196DC0101900D922A95E1F717
:103740002FEF3FEFFC0131872087D386C286699631
:103750000FB6F894DEBF0FBECDBFDF91CF911F91A2
:103760000F91FF90EF90DF90CF90BF90AF909F9020
:103770008F907F906F905F904F903F902F90089523
:103780008091DE045091DF04982FF0E0E0E0851393
:1037900014C09093DE040E171F0709F49ACF90E02F
:1037A000FC01EE0FFF1FEA52FB4FB182A08201968F
:1037B000837099278093DF048CCF282E312CF10160
:1037C000EE0FFF1FEA52FB4F20813181F7E0F29F9D
:1037D000D001F39FB00D1124A256BB4F2D913C9107
:1037E0001197398F288F40E020E030E0E32FF0E0A0
:1037F000EE0FFF1F688D798DE60FF71F60807180D7
:1038000061147104E1F0F8010190F081E02DFF8B6B
:10381000EE8B20E005C06616770609F44F2D2F5F6A
:10382000E22FF0E0EE0FFF1F6E897F89E60FF71F92
:10383000608171816115710571F73F5FD7CF4423B6
:10384000C9F0F801231708F0FD014482E017F107E1
:1038500021F49093DE04F42E3CCF981305C0EA17B0
:10386000FB0711F49F5F937091012F5F3F4F822FF1
:1038700083708DCFF0E0E0E0F7CF90E021101FC023
:10388000B40102C0660F771F2A95E2F79B01215011
:1038900031098217930731F4442309F447C0C50165
:1038A0000E940808C40101C0880F6A94EAF7982FA3
:1038B0009095F801868189238683F22C0ACF9C019A
:1038C000062C02C0359527950A94E2F7A9014170AC
:1038D0005527BC016150710986239723892B11F567
:1038E000452B01F1F80182819381892BC1F01B8264
:1038F0001C821D821E8259825A820E94011381609D
:10390000582F9D838C83F801828193818F839887C0
:1039100029813A814B816D817E810E94E126F801E7
:103920001582C0CFF22FF1702F2EBCCF2F2CBACF23
:103930009091DE048091DF04981731F00E94BE2739
:10394000EE2009F437CE03CF0E945A271092E104EB
:103950001092E0040E943608F3CF61E0CE01099690
:103960000E9422106C018B85F7EFCF16FCE5DF0675
:1039700009F02BCE882309F43ECE81E08093160116
:1039800019CE82E00E945514FECD0F931F93CF9362
:10399000DF9300D000D00F92CDB7DEB78C019093AB
:1039A000300480932F04011580E2180720F5802F42
:1039B0000E94E617C8010E940A0B9801205E310997
:1039C0002830310510F0012B59F40F900F900F9013
:1039D0000F900F90DF91CF911F910F910C94D517FD
:1039E0000F900F900F900F900F90DF91CF911F913C
:1039F0000F910C94C0178EEF89838A831B820E94DB
:103A000001138160782F9D838C8349815A816B815A
:103A10008D810F900F900F900F900F90DF91CF91AD
:103A20001F910F910C94811ACF93DF9300D000D097
:103A30000F92CDB7DEB79093300480932F04811599
:103A400020E2920748F40F900F900F900F900F9084
:103A5000DF91CF910C94541A8EEF89838A8381E091
:103A60008B830E9401138160782F9D838C83498111
:103A70005A816B818D810F900F900F900F900F9056
:103A8000DF91CF910C94811ABF92CF92DF92EF9287
:103A9000FF920F931F93CF93DF93B82EC0901B0517
:103AA00080911A05C82AC7E0D0E0D12CF12CE12C76
:103AB000D701C6010C2E04C0B695A795979587959A
:103AC0000A94D2F780FF1FC04B2D60E08C2F0E941C
:103AD0004C0F8C0181309105B1F00E94141D8FE3D1
:103AE0009CE90197F1F700C00000C8010E94C51CC5
:103AF00081E0DF91CF911F910F91FF90EF90DF90C8
:103B0000CF90BF900895219798F64B2D60E080E00C
:103B10000E944C0FEC010E94141D8FE39CE9019759
:103B2000F1F700C00000CE01E1CF2F923F924F92FB
:103B30005F926F927F928F929F92AF92BF92CF923D
:103B4000DF92EF92FF920F931F93CF93DF9300D0FA
:103B500000D000D00F92CDB7DEB77C01DC01139608
:103B60008D919C911497892B39F08C9111969C9191
:103B700089238F3F09F020C627960FB6F894DEBF41
:103B80000FBECDBFDF91CF911F910F91FF90EF90AE
:103B9000DF90CF90BF90AF909F908F907F906F906D
:103BA0005F904F903F902F9008950115E4E01E071D
:103BB00009F42EC6C8010E944833811101C0DA946D
:103BC0000F5F1F4FD110F1CF19821A821B821C8206
:103BD00099249A946801FFEFCF1ADF0AC8010E9466
:103BE000483389831A82882309F412C6813009F088
:103BF00075C0580122E0A20EB11CC6010E944833D4
:103C0000C82E8A83882309F403C6C5010E9448335D
:103C1000D82E8FEF8C0D833068F4580133E0A30E5B
:103C2000B11CDB82DD2021F0CE0101960E94AC198F
:103C30008501D0CF8BEF8C0D833040F5C801039602
:103C4000DB825C01DD20A1F3580144E0A40EB11C2D
:103C50000E9448338C83882359F30B811C810130E7
:103C60005FEF150710F0102F002786E0C81651F0FF
:103C700097E0C91619F0C8010E94141DC8010E94DE
:103C8000C51CD6CFC8010E94141DD2CFA4E0CA1211
:103C9000CFCF5801B4E0AB0EB11CC80103960E940F
:103CA0004833DD2009F4B4C5882309F4B1C5815037
:103CB000990B989E9001999E300D1124ED2DE150A5
:103CC000FF0BCF01820F931F019708F4B1CFAFE92B
:103CD000BFE01197F1F700C00000F6CFCE010196CA
:103CE0000E94AC195601A4CF81E00E948E140E945C
:103CF0003E148EC581E00E944914F9CF222309F4B5
:103D000059C582E0F2CF80915402082E000C990B25
:103D100001966FE170E00E9497325C01809354023B
:103D2000892B11F18FE1D82EDA1841E06D2D8CE747
:103D30000E94470841E06D2D8DE70E94470841E051
:103D40006D2D8EE70E9447088DC440E06D2D8C2DAF
:103D50000E944708D394BFE1DB12F7CFC394EFE78B
:103D6000CE1601F3D12CF1CF5CE7C52EFBCF0F357A
:103D7000FDE51F0799F000362DE5120749F00E35D5
:103D80003DE5130709F073C480910001882331F0E9
:103D90001092000180E00E9435183AC581E08093BE
:103DA000000136C58095482285C4552009F4CFC34B
:103DB00010935602009355020E9453076093EA0441
:103DC0007093EB048093EC049093ED041092F20452
:103DD0001092F1046FC482FB882780F9AEC455208D
:103DE000F1F08170AAC40E94E61755C50497813A84
:103DF000910548F48A2D0E94880A552009F48EC343
:103E00000E94D51305C50E94D5138FE39CE9019745
:103E1000F1F700C000008A2D0E949C18EECF9D8112
:103E20009F5F9D835FC4FC012081318102171307CE
:103E300009F06DC351106DC31092F00480E00E9430
:103E400035186CC3053F4CE51407C9F0A0F027E214
:103E500045EE66EE063F8CE5180709F0A2C3C701E0
:103E60000E944819D5C427E245EE65EEF8CF26E258
:103E700041EE60EEF4CF27E245EE64EEF0CF26E2AD
:103E800041EE62EEECCF28E241E0EFCF0136FDE5F6
:103E90001F0709F49DC3053A2DE5120709F498C3DD
:103EA00006318CE5180709F02AC58091C0028A7A8C
:103EB00091E009F490E0909357028111EEC089E2FD
:103EC0000E94880A9DCF8091CF02806207302CE546
:103ED000120709F497C08091CF02806108301C4519
:103EE00008F490C08091CF0280648CC08091CF0292
:103EF0008B7F0D304CE5140709F484C080F40B303F
:103F00008CE5180709F493C08091CF028C600C30C7
:103F10001C4508F477C08091CF028D7F73C08091DB
:103F2000CF028F7E0F30ACE51A0709F46BC0809189
:103F3000CF02877F00311C4508F464C08091CF0216
:103F40008F7D60C00D3FECE51E0709F478C050F589
:103F500005312CE5120709F480C098F48091CF0256
:103F6000837F03314CE5140709F44CC008F46FC09B
:103F70000E949D149091CF02892F97FB87F980585A
:103F800041C00B3F8CE5180709F447C008F053C047
:103F90008091D00281600A3F1C4509F042C38093A2
:103FA000D0023FC30130BDE51B0709F462C0B8F47D
:103FB0008091D0028C7F0F3FFCE51F0781F3809139
:103FC000D002836001151D4550F38091D002982FD7
:103FD000909591708E7F892B90FB81F9E0CF01360F
:103FE0003DE5130709F44BC0053A4DE5140709F404
:103FF0004DC002301D4509F014C360E03BC0809104
:10400000CF0282608093CF020CC38091CF02846084
:10401000F9CF8091CF028860F5CF8091D002826085
:10402000BECF0E949D148091CF028068EBCF80911B
:10403000CF028E7FE7CF8091D0028E7FB0CF80916C
:10404000D0028D7FACCF8091CF028F7BDBCF0E94DF
:104050009D148091CF028F77D5CF8091CF0282FBC4
:10406000992790F921E0922790FB82F990FB83F940
:10407000C9CF61E08EE090E00E945633D2C29091A9
:10408000CF02892F8F7E94FF8061BCCF9091CF02A9
:10409000892F8E7F90FF8160B5CF85E311CF85E3B7
:1040A000D2C30E949D149FEFA4E3BCE09150A040B6
:1040B000B040E1F700C000000E94420781E03FC429
:1040C00080E03DC4F701828100811181882369F07D
:1040D000C8010E94C00FD82E682FC8010E94D90ABB
:1040E000B8018D2D0E94A40F33C4C8010E94AB0AF1
:1040F000D82EF6CFE12FEF70DE2E107F19F0D2947C
:1041000090EFD922CC20B9F0DD2069F080E2800F59
:10411000883010F0011109C08091C002D82AD092D5
:10412000C0020E94D513802F4DC080913B04D82A35
:10413000D0923B04F6CF802F0E94E617DD2009F4D1
:1041400043C080E2800F883010F0011104C08D2D33
:104150000E94670A06C0D09480913B04D822D09276
:104160003B040E94D51330C0F12FFF70DF2E107F6B
:10417000103219F0D29480EFD822002399F0013048
:1041800009F48DC0CC2009F496C0BB2009F46BC0A3
:10419000D70115968C91159780FFC5CF8F70159616
:1041A0008C9361C08091D00282FF38C0CC2081F115
:1041B000DD2039F08091C002D82AD092C0020E943E
:1041C000D51380E00E949C18E92DE850FF0B34972E
:1041D00010F40E948B07AA20B1F08091B70280FDF5
:1041E00012C0D70112961C928595859585950E94DF
:1041F0008E14C7010E94951D8091B7028595859503
:1042000085950E94491460E0C7010E942210B4CC39
:1042100080E00E94E617DD20B9F299CFCC2039F179
:10422000B11004C08091C3028D291EC021E0B212DA
:1042300010C082FDC9CF8091C302D82AD81621F2BE
:104240000E9401139093C2028093C102D092C302D4
:10425000BBCF35E0B312E6CF0E945C0A8091B40276
:10426000D812D092B4028D2D0E94DC17ADCFB110C0
:1042700006C00E945C0A8D2D0E94D517A5CF41E093
:10428000B41208C08091C0028D2109F49DCF0E9414
:10429000750AEFCF55E0B51609F496CFEACFCC20DA
:1042A00029F085E08B1508F48FCFDDCF94E09B15C6
:1042B00008F48ACFE0CFBB20F1F2093349F4BFEF15
:1042C000E7EEF3E0B150E040F040E1F700C000005D
:1042D000802F0E94E61778CF812F86958695837070
:1042E00061F0813009F070CFC8019370C11002C035
:1042F00090E080E00E945F0767CFC8019370C11013
:1043000002C090E080E00E9475075ECF812F83702D
:1043100089F5C11059CF402F429546954770440FFB
:10432000440F802F8F70042E01C0880F0A94EAF783
:10433000202F207104FF07C02FE030E001C0220FC2
:104340004A95EAF72095169516951370123069F084
:1043500050F430911A05113029F0822B83230E94EA
:10436000991432CF832B822BFACF282B80911A05F8
:104370008227F5CF8695CC2011F0812F817088237C
:1043800009F422CF402F429546954770440F440FC1
:10439000802F8F70042E01C0880F0A94EAF7202F17
:1043A000207104FF07C02FE030E001C0220F4A95C2
:1043B000EAF72095169516951370123069F050F4AF
:1043C00030911B05113029F0822B83230E943A146F
:1043D000FBCE832B822BFACF282B80911B058227C3
:1043E000F5CF1F70CC2029F0812F0E948E14802FD2
:1043F0003BCF802F0E94D517812F0E944914E4CE15
:10440000023F81F160F4003FB9F0013F81F0CC2020
:1044100009F46DC0B11087CE812F8F7127C0033F83
:1044200041F1043FA1F78091D00282FF2DC0812F7E
:104430008F71CC2011F31AC0CC2079F024E02B1519
:1044400008F4C2CE1F7181E090E001C0880F1A9578
:10445000EAF790911B058927B9CF35E03B1508F4A1
:10446000B3CEF0CF812F8F71C110C7CF0E948E14B1
:10447000ABCE80E0CC2009F4A9CF1F7181E001C050
:10448000880F1A95EAF7A2CF8091B402CC20D9F018
:104490000E94670A8091B7028770843041F40E94BD
:1044A0006E0A812F8F710E944914A12C8DCE44E099
:1044B0004B15D8F31F71812F0E948E1463E0812F5A
:1044C0000E946B1AF2CF9091C002982B9093C00279
:1044D00054E05B1540F40E946E0A0E94750A64E085
:1044E000812F8F71EDCF81E00E945514DECFBB206C
:1044F00059F0093309F0ECCE8FEF97EEA3E081502D
:104500009040A040E1F7E2CE812F8F7176CF552009
:1045100029F0DC0118968C9185FF90CC033FBCE517
:104520001B0709F4A4CC08F08DCC083DFCE51F075F
:1045300009F499CC093D2CE5120709F4A4CC073DF8
:104540003CE5130771F526E241EE61EE88CC8091DF
:104550005502909156020817190781F410925602DD
:10456000109255021092EA041092EB041092EC049F
:104570001092ED041092F2041092F1048091F30471
:104580009091F404009751F2A8E08A16910408F083
:104590004ACC642D0E94E8078111C0CF81E00E94BF
:1045A0003518D70112968C91882309F443C11092D3
:1045B0001E050330BDE51B0708F068CC0A3FECE59B
:1045C0001E0730F4C80182509C45449708F068CC1F
:1045D0000E947B109093D0028093CF0201313CE582
:1045E000130709F430CD08F0ADCC09305CE51507B0
:1045F00009F417CD08F07ACC05309CE5190709F4C9
:1046000008CD08F060CC0330BCE51B0709F4F7CCFB
:1046100008F0FBCC8091CF02816002301C4509F488
:10462000F1CC6091CF021091D00284E090E00E9422
:104630005633612F82E290E00E9456330E949D140F
:10464000E7C00031FFE51F0709F44ECB01313FE51C
:10465000130709F453CBC7010E94200CF701828194
:10466000811151CBD70112965C90511080CB809173
:104670000001882309F452CF480140EE841A9108C2
:104680004090C3028091B402482A8091C002482A17
:1046900058E08516910408F088CB980127703327DD
:1046A00081E090E001C0880F2A95EAF7552009F4CF
:1046B00079CB482AD7018D919C910E94AB0A21E0C9
:1046C00030E0190102C0220C331C8A95E2F7E09118
:1046D000F304F091F404FF83EE8360905502709030
:1046E00056021D822D81E22FF0E0EE0FFF1FED55E7
:1046F000FC4FC080D180C114D10409F43FCF4110D8
:1047000005C0D60112968C91811189CBF601838167
:1047100090E082219321892B09F481CB8085982F09
:10472000977009F487E0F8E08F16910408F057CBF2
:10473000552009F450CB86958170882309F46FCBFE
:10474000D601AD90BC900A151B0519F4552009F44B
:1047500066CBEE81FF81CE16DF0609F460CBD60171
:104760001D96ED91FC91309721F08081882309F40A
:1047700056CB642DC6010E94E807882309F44FCB6D
:104780000A151B0509F062C00115110509F463C083
:10479000511063C0A614B70409F041CB512C5DC081
:1047A00000314FE5140709F4A5CA01315FE515078B
:1047B00009F051CF82E09FCA61E0C7010E94221038
:1047C0008C01D70112962C91222351F3E091E00243
:1047D000F0E0EE0FFF1FEB51FD4F808191818F3F85
:1047E000BFE79B0719F0019691838083C80182512E
:1047F0009F45409708F025CF8FEF93E00E94483304
:104800007EEED72ED00E07E512E0882309F4DAC930
:104810008091B702877009F4AFC9F70182818823BC
:1048200009F4AAC98091D00282FDA6C982E00E9443
:104830005514A2C906311C4509F083C08091570266
:1048400081112DCC89E20E947B0ADACAA114B1043D
:1048500009F0A0CF512CB12CA12C80E00E9435187A
:10486000D092F404C092F30481E08093F004F60146
:1048700085818093EE0451100EC0AB2861F0F601E3
:10488000808191819C0124503109213A310508F041
:10489000AACA0E947B0AD6011696AD90BC90C501AB
:1048A0009A9581159F4110F4E0EEBE22772473940F
:1048B000C5010197853A9D4508F0712CD6011996DE
:1048C000ED91FC911A97309731F01B966D917C9188
:1048D00081E009957822772079F0F6018681978129
:1048E0000E940A0B8093EF04C501F8E08F16910433
:1048F00008F07CCA0E9497070E94D5137ECA0A3529
:10490000EDE51E0709F4DACB58F401152CE5120782
:1049100009F4C7CB0E3D1C45A1F40E948B1178CF42
:104920000B354DE5140709F4CBCB0C351D4549F487
:104930008091D00282FB882780F991E089270E942C
:104940007114D70116968D919C91009709F4BACBFA
:104950000E94DF088C01D7011296CC901297159611
:10496000BC90B2943FE0B3228091B7028770C1F04F
:10497000AC2CCC20B1F0812F807F803421F080E2FC
:10498000800F883068F08091D00282FD09C082E0FB
:104990000E9455148091B7028770AA24A3948111B4
:1049A000A12C912E92942FE09222BBE0B91508F42D
:1049B0000BCCE92DF0E0E256FC4C0C94EC32CF939A
:1049C000DF9380916F02807FA1F480916C02882335
:1049D00081F08091B302D091720260916A0270916D
:1049E0006B02A0916D02B0916E02C62FC723D8133F
:1049F00003C0DF91CF91089590E0109711F0CF3F61
:104A000019F401968770F3CF9C0143E0220F331F06
:104A10004A95E1F7F901ED58FD4F41814713F1CF78
:104A200040814613EECF42814111EBCF4381548147
:104A30004A1B5B0B483C510520F780916F028F7039
:104A4000806180936F02F901E858FD4F80818F707B
:104A5000806180838AE692E00E94951DDF91CF916C
:104A60000C94A10AAF92BF92CF92DF92EF92FF9285
:104A70000F931F93CF93DF93CDB7DEB765970FB634
:104A8000F894DEBF0FBECDBF8C0185E0F801DE01DA
:104A9000519601900D928A95E1F7F801E2806AE65D
:104AA000A62E62E0B62E60916D0270916E026115C5
:104AB000710509F468C190916A0240916B02892FD7
:104AC00084238F3F09F45FC120813181C380D4806A
:104AD000F0906C02F601E61BF70BFF2009F41DC1F4
:104AE00080916F02582F507FE83CF10508F0D0C04C
:104AF000511181C0FE2C43132BC0921329C0609129
:104B0000700270917102F801468157816417750730
:104B1000F9F4E1101DC08F70806180936F02C501B0
:104B20000E94951D80916F02F80185838F2D6596F7
:104B30000FB6F894DEBF0FBECDBFDF91CF911F91AE
:104B40000F91FF90EF90DF90CF90BF90AF900895BE
:104B5000CD2829F0822F83238F3F09F02FC180E0D9
:104B6000F82FF170DF2E80FF3CC08091B30240919E
:104B70007202841315C0298B3A8B89899A890E9405
:104B8000EF0F292F22952F702230F8F0243020F5D6
:104B90009F70F9F0F8019581907FD9F4D12C1FC056
:104BA00090E0FC0153E0EE0FFF1F5A95E1F7ED583E
:104BB000FD4F5181351306C05081251303C052812A
:104BC000E5120FC001968770D4CF9F7011F0882333
:104BD00029F3805E883010F3C8010E94951DFD2CDA
:104BE000A5CFEE2009F4A2CF80916F02816080935F
:104BF0006F02F12C9BCF43131BC0921319C040913D
:104C0000700250917102F8012681378142175307D3
:104C100079F4E1100DC08583C8010E94951D88E0DC
:104C2000F801AAE6B2E001900D928A95E1F77ECFF5
:104C3000C8010E94FB0F882339F1EE2029F18091F1
:104C40006F028032A0F020916A0230916B023A87A5
:104C500029871B86DD86CC868E8780917002909195
:104C60007102988B8F87CE0109960E94951D88E06E
:104C7000F801AAE6B2E001900D928A95E1F70E9450
:104C8000DF24FF24F39452CFC8010E94951DF9CF71
:104C900051110AC08AE692E00E94951D88E0F50154
:104CA00011928A95E9F7A5CF431318C0921316C045
:104CB0004091700250917102F801268137814217AC
:104CC000530761F4E1100AC08583C8010E94951D55
:104CD00088E0F50111928A95E9F728CFC8010E9472
:104CE000FB0F882389F2EE2079F280916F028032E7
:104CF00008F4BDCF20916A0230916B023A83298378
:104D00001B82DD82CC828E83809170029091710231
:104D100098878F83CE010196A8CFE83CF105C0F6B5
:104D2000FE2CEE2009F4B0CF43131FC092131DC018
:104D30002091700230917102F801868197812817C5
:104D4000390799F490916F0290FD69CF907F09F433
:104D500066CF80916F028583903F09F45DCF982FD5
:104D6000907F905F8F70892B56CFC8010E94FB0FF8
:104D700081117DCF80916F02816080936F02C801A5
:104D80000E94951DD3CEEE2009F47ECFC8010E946B
:104D9000FB0FF82E882309F477CF88E0F801AAE604
:104DA000B2E001900D928A95E1F780916A029091AC
:104DB0006B020E94EF0F0E94DF24B8CE81E08E25A7
:104DC000CFCECF93DF93CDB7DEB760970FB6F89411
:104DD000DEBF0FBECDBF29873A874B875C876D87C3
:104DE0007E878F87988BCE0109960E94322581118C
:104DF00012C088E0FE013996DE01119601900D92F5
:104E00008A95E1F78C859D85892B29F089859A857E
:104E100089238F3FA9F58091B30290917202891383
:104E20001CC060960FB6F894DEBF0FBECDBFDF91F9
:104E3000CF91089593E0AA0FBB1F9A95E1F7AD5863
:104E4000BD4F98E0FE01319601900D929A95E1F7E1
:104E5000809372020E94A10ADECFB8E08B9FC0014E
:104E600011248D589D4F0E9432258823D1F28091C4
:104E7000B30290E00196877099278093B302CBCF5D
:104E8000A0917202B0E0CD01019687709927209120
:104E9000B3022817190671F60E949D14109272022F
:104EA0001092B30288E0EAE6F2E0DF011D928A95F3
:104EB000E9F7B1CF0F931F93CF93DF9380913D0418
:104EC000E0913C04CCE081111AC0DF91CF911F9199
:104ED0000F910895D1E0DE0FD0933C040E2F10E027
:104EE000EC9FF0011124E25CFB4F83819481892BBC
:104EF00029F08081918189238F3F51F4ED2F80919A
:104F00003D04E81738F310923D0410923C04DDCFC5
:104F1000C09FD001C19FB00D1124A25CBB4F16965B
:104F20008D919C911797892B29F418968D919C91BE
:104F3000019651F4208131814281538164817581D0
:104F4000868197810E94E126C09FF001C19FF00DEC
:104F50001124E25CFB4F1482138210923B04CECFEB
:104F60001092E1041092E004109216018091DF0487
:104F70008093DE040E9436080C945A273F924F9289
:104F80005F926F927F928F929F92AF92BF92CF92D9
:104F9000DF92EF92FF920F931F93CF93DF93C09115
:104FA000DE0497E0892E01E010E02CE0322E3EEF87
:104FB000932E442443948091DF048C1315C00E94E7
:104FC0005A27DF91CF911F910F91FF90EF90DF90C3
:104FD000CF90BF90AF909F908F907F906F905F9099
:104FE0004F903F900C943608D0E0FE01EE0FFF1F6B
:104FF000EA52FB4F80819181889ED001899EB00D3D
:105000001124A256BB4F14962C911497211157C00E
:1050100050903D04EEE3F4E030E020E0712C5D01BF
:10502000251508F04AC0E284F384D501CD90DC90C8
:105030006FEF7FEF612C462D50E0DA01AA0FBB1F06
:10504000AC0DBD1D0D90BC91A02D109731F0EA164E
:10505000FB0609F4BA016394EECF6F3F7607A1F126
:10506000D80102C0AA0FBB1F6A95E2F77A2AB801DD
:1050700002C0660F771F6A94E2F7AB0141505109F5
:1050800074161506F9F4329EF001339EF00D1124CA
:10509000E25CFB4F889ED001899EB00D1124A25680
:1050A000BB4F12962D913C911397378326839082A4
:1050B00091829187808715964C920E9408082196CC
:1050C000C37079CF148213822F5F3F4F3C96A8CFD5
:1050D0001F921FB61F9211248F939F93AF93BF937C
:1050E0008091FB04811113C08091FC049091FD0418
:1050F000A091FE04B091FF044196A11DB11D8093C3
:10510000FC049093FD04A093FE04B093FF04BF91B0
:10511000AF919F918F911F901FBE1F901895CDB793
:10512000DEB7E7970FB6F894DEBF0FBECDBF84B7EA
:10513000877F84BF0FB6F894A8958091600088613E
:1051400080936000109260000FBE80E890E00FB680
:10515000F89480936100909361000FBE85B78068DA
:1051600085BF85B7806885BF83E898E090938B0101
:1051700080938A010E9432110E9489100E948B053F
:105180000E947E068091E20084608093E200789421
:10519000809119058823A1F01091E9001F7090916A
:1051A000EC00892F817090FD80E8182B1092E900A7
:1051B0008091E80083FD0E94A8141F701093E900FD
:1051C00082E084BD93E095BD9AEF97BD80936E0019
:1051D0000E946210811102C00E943D0F05E511E09E
:1051E0007BE5E72E71E0F72ED8018D918D018F3F81
:1051F00011F00E948508E016F106B1F70BE511E009
:1052000063E6E62E61E0F62EF80181918F018F3F73
:1052100011F00E948508E016F106B1F788E0EAE493
:10522000F3E0DF01282F1D922A95E9F7E7ECF2E081
:10523000DF011D928A95E9F790E080E00E945033EB
:10524000893E9E4F21F40E946210811102C00E948B
:105250008B1182E090E00E9448338093D1020E943B
:105260007B109093D0028093CF020E940D13EFE346
:10527000FCE93197F1F700C000000E940D13809106
:105280004A0380FF08C06FEF7FEF90E080E00E944C
:1052900074330E94420783E090E00E9448330E94EA
:1052A00099141092430380E880931F050E94703187
:1052B0006DE070E083E092E00E943F0D892BE9F5FC
:1052C0008091430363E070E081FD3BC380E092E0A6
:1052D0000E943F0D892B89F56DE070E080EF91E031
:1052E0000E943F0D892B49F50E945307605A754172
:1052F0008F4F9F4F60933304709334048093350431
:1053000090933604E2E2F5E080E092E0DF019C0158
:105310001D9221503040E1F7F0932907E0932807D0
:105320008FEF9FEF909321058093200581E080937C
:105330003804809337041092440353985B9A529830
:105340005A9AEFE8F1E03197F1F700C0000089B117
:1053500083FB882780F94A99F7C290E0892B8093D4
:10536000190381E091E09093F8048093F7048AE4B4
:1053700093E038E0380F3DAB8091190550E4F52EED
:1053800000E112E1853009F418C30E940D13E82EE4
:1053900081110E945307AAE4B3E0E2EDF2E010E0CD
:1053A00000E0302F8D919191981709F415C3292FA2
:1053B000282790E0FF24F394422F4F2109F407C3DC
:1053C0009BA73CA78F2191E009F490E09DA70E9444
:1053D00001138160782F9FA78EA74BA55CA56DA5B3
:1053E0008FA50E94811AF801EE52FD4F8081F826A8
:1053F000F0828091F1049091F204892B09F43EC06F
:105400004091E6045091E7046091E8047091E9044A
:105410002FB7F8948091FC049091FD04A091FE04B4
:10542000B091FF042FBF841B950BA60BB70B4091C7
:10543000E2045091E3046091E4047091E504841760
:105440009507A607B707D0F08091F1049091F20478
:105450000E94541A1092F2041092F1041092E60481
:105460001092E7041092E8041092E9041092E2040A
:105470001092E3041092E4041092E5048091160166
:10548000882301F18091E0049091E1040097D1F02C
:105490000E94F2122091390430913A0428173907FA
:1054A00088F49091DE048091DF04981709F4ABC270
:1054B0000E94BE2710923A04109239041092E1041F
:1054C0001092E0048090E5029090E602092C000C16
:1054D000AA08BB0880910D0190E0E5EEF2E021E022
:1054E00030E03296821793070CF096C28091E10269
:1054F0009091E202A091E302B091E4022FB7F894F8
:105500004090FC045090FD046090FE047090FF04F5
:105510002FBF481A590A6A0A7B0A10910D01A9EC9B
:105520004A1651046104710414F18091E00290E084
:10553000019669E170E00E9497328093E002880F43
:10554000991FFC01EB51FD4F11821082812F183100
:1055500008F087E18F5F80930D010E9453076093ED
:10556000E1027093E2028093E3029093E402B2E0DE
:105570008B169104A104B1040CF45BC2A0E6BAEE50
:10558000A50194010E94F9324B015C01E8EC1E9FD9
:1055900090011124032E000C440B550B240D351DD6
:1055A000461D571DA5E0B0E00E94F9329B01AC01F9
:1055B000C501B4010E94AB3229013A01F1EF4F1647
:1055C0005104610471042CF030EF432E512C612CF6
:1055D000712C8091DC029091DD02A091DE02B091ED
:1055E000DF022FB7F8948090FC049090FD04A09007
:1055F000FE04B090FF042FBF881A990AAA0ABB0ABA
:1056000025E682169104A104B10484F00E94530798
:105610006093DC027093DD028093DE029093DF02E0
:1056200080911A038093DB024092DA021091DB0230
:10563000A091DA02A11BBB0BA50194010E940433C7
:1056400024E630E040E050E00E94CD32120F10938B
:105650001A03E0911903EE0FEE0FE093190389B1DD
:1056600083FB222420F84A99E8C180E08229E82BB4
:10567000E0931903EF70F0E0ED59FE4F80819091B7
:105680001803890F80931803F12C843054F0809113
:1056900017038F5F8093170380E00E94441DFF244F
:1056A000F394809118038D3F54F480911703815037
:1056B0008093170381E00E94441DFF24F39480919E
:1056C0001803082E000C990B64E070E00E949732DA
:1056D00080931803F1100E945307809138048823A7
:1056E00009F4E0C082E295E09093290780932807AF
:1056F00010911A0380912203811130C00E94A60BE1
:105700000E943B0B90E080E00E94200C00E08FE1C3
:10571000A82E9FE0992E2AE7822EBA2CB01A802F4D
:10572000692D0E948B32A2E0CA2E911107C041E080
:105730006B2D85E70E944708B3E0CB2ED12C41E0CA
:105740006B2D882D8D190E944708D394DC10F7CF5C
:105750000D5F013211F781E08093220380E291E036
:105760000E94270D80911F0590E08E5D9A4F9093C7
:1057700029078093280780910E01181305C0809196
:105780001F03803309F44BC010930E0180E3809314
:105790001F03812E912CB12CA12C10921E03C50148
:1057A000B4012AE030E040E050E00E94AB32605D9E
:1057B000603331F081149104A104B10409F460E371
:1057C00060931D0360E33AE083169104A104B104E1
:1057D00090F0FAE04F2E512C612C712CC501B401D0
:1057E000A30192010E94AB32CA01B901A301920147
:1057F0000E94AB32605D60931C0320E384E6881650
:105800009104A104B10448F0C501B40124E630E0DC
:1058100040E050E00E94AB32205D20931B038BE1FF
:1058200093E00E94270D80912003909121030E9414
:10583000F2128D32914058F0812F0E94A60B0E94E7
:105840003B0B0E94011390932103809320038091CE
:105850003804882371F0209120053091210521150D
:10586000310539F08091440361E070E0882309F448
:10587000E8C0809137048823A9F00E945307009163
:105880003304109134042091350430913604601BA8
:10589000710B820B930B6F3F7F4F8F4F9F4710F41D
:1058A0000E946F0DE11001C0F1100E948A0D0E944C
:1058B0008B079091450389138093450380911905C7
:1058C000843009F059CD83E08093E9008091E800AD
:1058D00082FF52CD8091E80090E085FF0CC00E94CD
:1058E000AA0560E2E62EF12C8E010F5F1F4F882380
:1058F00009F478C191E08091E8008B778093E8000B
:10590000992309F439CD0091310410913204898131
:105910000115110509F474C18E3F09F0F8C18A819F
:10592000833020F08550833008F0F1C1EA81EE30F9
:1059300008F0EDC1F0E0E655FC4CCE0101960C9468
:10594000EC328DEF91E0C4CC92E008CD8091190546
:10595000843029F10E946F0D1092FB0488E190E0E1
:105960000FB6F894A895809360000FBEF092600087
:1059700083B7817F846083BF83B7816083BF78945E
:10598000889583B78E7F83BF0FB6F894A8958091D2
:105990006000886180936000109260000FBE80916B
:1059A0000F05882351F00E940D13EAE4F3E0819182
:1059B000811178C49DA99E13FACF80911905853075
:1059C00009F4C4CF0E949D140E948B07DECC9F5F18
:1059D000FF0C963009F0F0CC0F5F1F4F0830110517
:1059E00009F0DFCC8FEF88AB89AB1AAA0E940113B4
:1059F0008160782F9CAB8BAB48A959A96AA98CA967
:105A00000E94811AF6CC0E945A271092E10410924B
:105A1000E0040E94360856CD40815181052E000CCD
:105A2000660B770B840E951EA61EB71E2F5F3F4F89
:105A300058CD412C512C3201CCCD82E090E016CED5
:105A40008F5F882E912C3B01082E02C0660C771CBC
:105A50000A94E2F7A90146215721452B89F3909139
:105A6000430390FD44C08295880F80768093110196
:105A70009401369527953695279520931401815EDC
:105A8000809312011092150124E630E047E050E0C7
:105A90006FE071E088E70E941F32892B09F0E9CEA0
:105AA00075E0880C991C7A95E1F78091430380FD9D
:105AB0002CC0A4014E5D5A4F04E610E020E230E015
:105AC00060E488E70E944632892B09F0D2CE0E941A
:105AD0008A0DC301809590956090200570902105F6
