:100000000C94F6020C9413030C9413030C94130336
:100010000C9413030C9413030C9413030C94130308
:100020000C9413030C9413030C94760C0C940A1286
:100030000C9486210C9413030C9413030C94130357
:100040000C9413030C9413030C9413030C941303D8
:100050000C9413030C944F0D0C9413030C94130382
:100060000C9413030C9413030C9413030C941303B8
:100070000C9413030C9413030C9413030C941303A8
:100080000C9413030C9413030C9413030C94130398
:100090000C9413030C9413030C9413030C94130388
:1000A0000C9413030C9413030C941303050109809F
:1000B000A101850319012AB700150126B700950192
:1000C00075108100C0050C0901A101850419012AE0
:1000D000A002150126A002950175108100C00660DE
:1000E000FF0961A1010962150026FF00952075082E
:1000F00081020963150026FF00952075089102C052
:1001000005010906A101050719E029E715002501E8
:10011000950875018102950175088101050719008F
:1001200029FF150026FF00950675088100050819AE
:10013000012905950575019102950175039101C08D
:1001400000DA0281FFD9F1DB20A4A62EAF00A0C007
:1001500000A1C800AED580A81FD300408D14200098
:10016000FD377A585A000004E6D6B4460200210151
:1001700016000000742FE5A3E003AA01655D003DB1
:100180008889C65436C3174FE4F5602D3B56DF21EE
:1001900044B4FF40F91849E5B259552B74A4282BF3
:1001A00052BA4EE1D329566E894CBE8A86793225E1
:1001B000DE38527A68E2ACA3787F1AA530E1877303
:1001C00035CA4B3A82E9046FD6B8AFECC64737A1BF
:1001D0009C656835CE7A8C262B11871502FAE84784
:1001E000F1AADE73BEA755EFE67FE65B2FB30442AC
:1001F0009E627BBCA8235D1A1C0E6C2D35E9F3486A
:10020000B3108AF43FF19D2321848E707EB8706E06
:1002100046E916FFED5133E0EB4BC6F5EA4B2647B6
:100220002CDB7824171DA3507DD1D9387E9A79AA6A
:1002300068268A6FAECD3B584EB9F6C90FB8E4EFC9
:10024000ACFB4001878582DCE86A7424FD6EDB7AB2
:100250001F8A4095C8D124D4BACB1C5AE34F7A8464
:10026000E4A117F0A392E8B04A3544E49FFE530599
:10027000144E08C1B3F7EF9FE35565B1FF0EDE568C
:10028000592693878777871272FFD3B09682E5C38A
:10029000755DED984F1F928F3A1399F5235C02C25A
:1002A000759024ACE615FE78F39EEBA65E22A57C45
:1002B000E8F6666AE461794EF348819E71A7488941
:1002C0004742D03191D85C381EA400213CBE15B6FF
:1002D0003D71D988B310F55A8BE3BA76460E706F2C
:1002E000701524000000000024C46F803DF88F5F6B
:1002F00000018103AB070000F1E13CCEB1C467FB14
:10030000020000000004595A29001A0015001C00C0
:100310000C001300140008001700180012002A0037
:100320002B00160009000B000E003300040007002C
:100330000A000D000F00280035621D0006000500B0
:100340001000370038001B00190011003600E500CE
:10035000E000E2002C412C41E700AE00E300000089
:100360000251E600E400A80029001F00210023003C
:10037000250027001E0020002200240026002A005D
:1003800001000100010052002D00340001000100B5
:10039000010052002E002800010001000100500061
:1003A0004F00380001000100010051002E00010043
:1003B00001000100010001000100AE000100000089
:1003C000010001000100A8000100C85C010001005B
:1003D00052000100C75C01000100010001000100A2
:1003E0000100C35C0100010051000100C25CC45C5B
:1003F000010050004F0001000100CA5C0100010033
:1004000001005200C95C010001000100010052001E
:100410000100010001000100510001000100000085
:10042000010050004F000100010001000100010027
:1004300001000100010001000100010001000100B4
:1004400001000100010001000100010001000100A4
:100450000100010001000100010001000100010094
:100460000100010001000100010001000100010084
:100470000100010001000100010001000100000075
:10048000010001000100010000AF00AE09025B00A5
:10049000030100A0FA090400000103010100092181
:1004A0001101000122400007058103080001090431
:1004B00001000203000000092111010001222200B5
:1004C000070582032000010705030320000109043A
:1004D0000200010300000009211101000122320085
:1004E0000705840320000112010002000000082912
:1004F0001753530100010203011C037600690061D8
:10050000006C003A0066003600340063003200627E
:10051000003300630000000A036C00690074006C83
:1005200000000012035300540048004C004D00200E
:10053000006B0062000000040309040000000000DA
:1005400000000000000000000000000000000000AB
:100550000000000000000000000000000000007E1D
:100560000F00D4FFFFFFC70000007800000000006C
:100570000000002A2B2800000000000000000000FE
:1005800000000000000029000000002C1E34202183
:100590002224342627252E362D3738271E1F2021CA
:1005A00022232425263333362E37381F0405060729
:1005B00008090A0B0C0D0E0F101112131415161743
:1005C00018191A1B1C1D2F3130232D350405060761
:1005D00008090A0B0C0D0E0F101112131415161723
:1005E00018191A1B1C1D2F3130354C0011241FBE49
:1005F000CFEFDAE0DEBFCDBF11E0A0E0B1E0ECE08C
:10060000F6E502C005900D92A438B107D9F726E0AF
:10061000A4E8B1E001C01D92A831B207E1F70E9441
:10062000AD210C94E02A0C940000E8EDF0E080810C
:100630008E7F80831092E2001092DA001092E10027
:10064000A0EEB0E08C9181608C9380818F77808365
:1006500019BCA7EDB0E08C918E7F8C9380818F7E4A
:1006600080831092FD0508952091E4003091E5000B
:1006700095E6A9012091EC00822F817020FF06C031
:100680008091E80080FF06C080E008952091E80096
:1006900022FD1AC080911306882389F0853089F0E5
:1006A0008091EB0085FD0FC02091E4003091E500C2
:1006B00042175307F9F29150E1F684E0089582E081
:1006C000089583E0089581E00895EF92FF920F93DB
:1006D0001F93CF937C018B010E943403C82F81119B
:1006E00017C08091E80085FD0BC08091E8008E77EF
:1006F0008093E8000E943403882399F3C82F08C030
:10070000F70181917F018093F1000150110949F7B0
:100710008C2FCF911F910F91FF90EF900895CF9361
:10072000FC0180911306843001F5C091E900CF707F
:100730002091EC00922F917020FD90E8C92B82E06F
:100740008093E9008091E80080FF0CC050E040E019
:1007500060E270E0CF010E9465038091E8008E772F
:100760008093E800CF70C093E900CF910895809105
:100770000B0687FF13C08091E80082FF06C08091BE
:10078000E8008B778093E80004C080911306811104
:10079000F2CF0895809113068823D9F38091E80061
:1007A00080FFF8CF8091E8008E77ECCF982F909360
:1007B000E900242F762F50E0891731F07091EC007A
:1007C0002091ED005091F00021FD07C09F5F973010
:1007D00071F78093E90081E008953091EB003E7F4E
:1007E0003093EB003091ED003D7F3093ED00309180
:1007F000EB0031603093EB007093EC002093ED0040
:100800005093F0002091EE0027FDE0CF80E00895A6
:10081000B0E0A0E0EEE0F4E00C941B2AC8EDD0E0DC
:1008200088818F7E8883E7EDF0E08081816080831E
:1008300084E082BF81E08093FD0588818E7F88837C
:1008400002EE10E0F80110821092DA0081EEC82E5C
:10085000D12CF601108288818F7788838881806807
:10086000888388818F7D888319BC1092130610922B
:100870000A06109209061092080690EEE92EF12C55
:10088000F70180818B7F808388818160888342E04B
:1008900060E080E00E94D603F60180818E7F808335
:1008A000F801808181608083808188608083F70186
:1008B00080818E7F8083888180618883CDB7DEB719
:1008C000E8E00C94372AFC01809111069091120601
:1008D00086179707A0F06115710529F49091E8003B
:1008E0009E779093E80090E06115710551F49111A5
:1008F00008C08091E80082FF34C080E00895BC0108
:10090000F2CF809113068823C1F18530C1F1809127
:10091000E80083FD30C08091E80082FDEACF80913D
:10092000E80080FFE1CF8091F3002091F200382FA2
:100930006115710519F02830310558F091E0283023
:10094000310509F090E02091E8002E772093E8002F
:10095000CBCF81918093F100615071092F5F3F4FA0
:10096000E7CF80911306882341F0853041F08091D4
:10097000E80083FFBECF81E0089582E0089583E020
:100980000895089508958091FF05089587E797E7F2
:10099000909301088093000888E19AE00FB6F894DC
:1009A000A895809360000FBE90936000FFCF2FB793
:1009B000F8946091F6057091F7058091F805909193
:1009C000F9052FBF08959C01FC0132969FEF80E04E
:1009D0004191461751F09F3F19F4411101C0982FE2
:1009E0008F5F8630A9F79F3F09F40895290F311DC5
:1009F00097FD3A95F901628308952091F3053091AE
:100A0000F4052817390771F09093F4058093F305E6
:100A1000E091F105F091F205309721F00084F18525
:100A2000E02D099508952091EF053091F0052817E4
:100A3000390771F09093F0058093EF05E091F1058F
:100A4000F091F205309721F00680F781E02D0995AD
:100A50000895E091F105F091F205309729F00190A9
:100A6000F081E02D0995089580E00895CF93DF93FC
:100A7000EC014091E4055091E5056091E605709127
:100A8000E7052FB7F8948091F6059091F705A091AE
:100A9000F805B091F9052FBF841B950BA60BB70B7A
:100AA000843F9140A105B10518F58091E40590912E
:100AB000E505A091E605B091E7058093E0059093E8
:100AC000E105A093E205B093E30584EF91E0A0E097
:100AD000B0E08093DC059093DD05A093DE05B09334
:100AE000DF05D093EC05C093EB05DF91CF9108951E
:100AF0000E94D7046093E0057093E1058093E205BE
:100B00009093E30582E390E0A0E0B0E0E2CFFC0147
:100B10008481862351F492819923B9F069238085D9
:100B200083FF05C081E061110FC080E00895892F27
:100B30008F7092959F70982B862F8F7062956F7033
:100B4000682B81E09613F1CF089581E0FDCFDC01A1
:100B50006091D8058091D905962F891301C0089519
:100B6000292F30E0F901EE0FFF1FE053FA4F4081CB
:100B700051814A175B07A1F487E08A9FA0018B9FF0
:100B8000500D112448565A4F81E0FA018483961380
:100B9000E6CF2F5F3F4F237033272093D80508956A
:100BA0002F5F3F4F922F9370D8CF10923405109241
:100BB0003305E8E9F5E08581811102C014821682CF
:100BC000379685E0E03DF807B1F7089580E0089595
:100BD000F894E82FE295EF70F0E031A1282F2F7004
:100BE00081E090E001C0880F2A95EAF7982F909550
:100BF000932391A392A1892B82A378940895909135
:100C0000090292FF06C0282F28712830F9F4877F47
:100C1000846093FF06C0282F28712831F1F4877E65
:100C2000846120910A0220FF06C0382F38713830C5
:100C3000D9F4877F816021FF06C0282F28712831D1
:100C4000D1F4877E816194FD877E0895282F2471D9
:100C50002430F9F68B7F8860DCCF282F2471243173
:100C600001F78B7E8861DDCF382F3171313019F774
:100C70008E7F8860E0CF282F2171213121F78E7E71
:100C80008861E1CFCF93DF93EC0182389105B1F118
:100C900008F040C08133910509F49DC048F58932C0
:100CA000910509F48DC08A9709F49CC0C11522E50D
:100CB000D20708F0BDC0C11531E5D30708F025C142
:100CC000C83ED10508F0A3C0C13ED10588F5C83A99
:100CD000D10508F08EC0C53AD10508F0F6C0C13084
:100CE000D10531F1209721F1C430D10508F545C077
:100CF0008533910509F45FC0C997C1F68091090257
:100D0000837009F037C180910A0283FF11C0C9E2E4
:100D1000D0E00EC0833E910599F170F4803E9105BC
:100D200001F1823E910511F68091090282FD21C0F8
:100D3000CE01DF91CF910895863E910561F1873E06
:100D4000910571F1843E910509F0B0CF80910A02BE
:100D500081FFEECF80910902C7EED0E084FD0DC087
:100D6000E7CF8091090280FD33C090910A0290FF85
:100D7000DFCFC3EED0E084FFDBCFD0E0C0E0D8CF40
:100D80008091090282FDF3C090910A0290FDF2C0A9
:100D900084FFCECFF2CF8091090283FDDDCFC8CF93
:100DA0008091090283FDE9C090910A0291FFF0CF82
:100DB000C4EED0E0BDCF8091090285FFB9CFA7CFA7
:100DC0008091090285FDDCC080910A0283FFB0CFCB
:100DD000C9E3D0E0ADCF8091090286FFA9CFCAE276
:100DE000D0E0A6CF8091090286FFA2CFC1E3D0E078
:100DF0009FCFCF3BD10508F6C85AD0E0CC0FDD1FFE
:100E0000CF5DDE4F0990D881C02DD46491CFC1153C
:100E100040E5D40708F064C0C11580E4D80708F0A5
:100E20005CC0CE019A9581159F4108F481CFA5CF72
:100E3000C11536E5D30718F5C11545E5D40708F007
:100E40007DC0C11584E5D80708F073C09C2F969526
:100E500096959E0123703327C115D34508F45AC0D7
:100E6000C1E0D0E002C0CC0FDD1F2A95E2F730E2EE
:100E7000939FC0011124C82BD92BDA6859CFC11513
:100E80008AE5D80778F4C11529E5D20708F061C0D2
:100E9000C11538E5D30708F470CFDC2FCC27C06F1D
:100EA000D06A46CFCE0190568115904208F065CFAA
:100EB0008D2F8F710E94FF0590E0982F882788273B
:100EC0009F719C012C2BE90142C0C55AD0E0C25E43
:100ED000DE4FC881D0E0D0642BCFDF70D06A28CF3E
:100EE0002C2F26952695237080E2289F90011124AF
:100EF0008C2F8370C1E0D0E002C0CC0FDD1F8A953B
:100F0000E2F7C22BD32BDD6813CFDC2FCC27C16FC8
:100F1000D06A0ECFC1E0D0E002C0CC0FDD1F2A9511
:100F2000E2F720E2929FC0011124C82BD92BDC6884
:100F3000FFCEDC2FCC27C46FD06AFACE8C2F0E9454
:100F4000FF05C82FD0E0DC2FCC27CC27DF71D06283
:100F5000EFCE8C2F8F700E94FF0534E0D695C79599
:100F60003A95E1F7CF709C2FEC01D069E1CEC2EE4B
:100F7000D0E0DECEC0EED0E0DBCEC6EED0E0D8CE04
:100F8000C5E3D0E0D5CE8091FC01882331F01092EA
:100F9000FC011092FB011092FA0108958095909146
:100FA000F90198239093F90108951092F00110929D
:100FB000EF011092EE010895E8E8F1E091918913B4
:100FC00003C0DF0111971C9291E0EE38F907B1F7E9
:100FD00008958091ED019091AC01981301C008959E
:100FE0008F5F8770FACF292F983078F5863068F5B3
:100FF00090E036E0239F800D911D1124682F6770CB
:1010000023E0969587952A95E1F7FC01EE0FFF1FE7
:10101000E80FF91FEE56FE4F50E040E080E02191CE
:1010200030E0062E02C0369527950A94E2F721702B
:101030003327042E01C0220F0A94EAF7822B4F5F58
:101040005F4F4330510559F7089580E00895292FE7
:10105000983098F5863088F590E036E0239F800D33
:10106000911D1124282F277041E001C0440F2A95BB
:10107000EAF723E0969587952A95E1F7FC01EE0FB4
:10108000FF1FE80FF91FEE56FE4F30E020E070E042
:101090005191DF011197CB01022E02C096958795E1
:1010A0000A94E2F7817081958527842385278C93A4
:1010B0002F5F3F4F2330310559F708959C013A9532
:1010C00021153F4150F5FC01EE27F170BC01662768
:1010D0007270AC01442754709C012227387094FF31
:1010E0000EC080E1EF2B09F480E0672B09F08062ED
:1010F000452B09F08064232B89F08068089581E0F6
:10110000EF2B09F480E0672B09F08260452B09F092
:101110008460232B19F08860089580E008958093FF
:10112000FA057093FC056093FB05809113068430EB
:10113000F9F48093E9008FEF9091E800815095FDDC
:1011400006C095ED9A95F1F700008111F5CF8091D9
:10115000E80085FF0DC050E040E063E070E08AEFFA
:1011600095E00E9465038091E8008E778093E80007
:101170000895BC0184E00E948F080895BC0183E0BB
:101180000E948F080895CF93DF93EC0181E0809354
:10119000E9008FEF9091E800815095FD06C095ED34
:1011A0009A95F1F700008111F5CF8091E80085FF55
:1011B00014C050E040E068E070E0CE010E9465039A
:1011C0008091E8008E778093E80088E0FE01A0E03F
:1011D000B6E001900D928A95E1F7DF91CF910895E5
:1011E000B0E0A0E0E6EFF8E00C941B2A6C017B0174
:1011F00064E670E088E70E941729EC0197FD12C0B1
:1012000010E000E0F601E00FF11F849164E670E069
:101210000E948329EC01892B29F40F5F1F4F0E15C3
:101220001F0581F70E94F929CE01CDB7DEB7E8E0AE
:101230000C94372A8091310590913205911103C0A9
:1012400091E089270895882369F062E070E08AE8D8
:1012500094E00E94F008892B19F0809131050895DF
:101260001092310580913105EBCFCF93C0913105BC
:10127000809132058823D1F00E94D704605A7541CD
:101280008F4F9F4F60932D0570932E0580932F05F0
:1012900090933005C11108C062E070E088E894E0E6
:1012A0000E94F008892B29F0C09131058C2FCF9135
:1012B000089581E080933105F7CFCF93DF93C7E5A1
:1012C000D2E060E0CE010E94A42A2196C11584E0FC
:1012D000D807B9F7DF91CF9108951F93CF93DF938C
:1012E000122F8430E0F46830D0F44630C0F4C42FBC
:1012F000D0E0CC0FDD1F9CE0699FC00DD11D1124F3
:1013000090E6899FC00DD11D1124632FCE018796D1
:101310000E94A42A612FCE0188960E94A42ADF9100
:10132000CF911F910895CF93C82F6FEF811163E480
:1013300083E290E00E94A42A6FEFC11165EC84E281
:1013400090E00E94A42A6FEFC1116BEB85E290E060
:101350000E94A42ACF910895A4E1B0E0E2EBF9E065
:101360000C94162AA0902705B090280581E090E003
:10137000909328058093270588E0C82E83E0D82E17
:1013800000E0760110E015C0F40125913491472D5D
:10139000612F802F0E946D0982E0880E911C73944A
:1013A00096E07912F1CFECE0EE0EF11C1F5F1830E1
:1013B00019F04701712CE8CF0F5FF0E6CF0ED11C7A
:1013C0000430F9F6CE0101967C018AE0F701119212
:1013D0008A95E9F707EB11E04AE050E0B801C70150
:1013E0000E94C82A065F1F4F0730F2E01F07A1F7CF
:1013F0007E018BE0E80EF11C8AE0F70111928A95DC
:10140000E9F78FEF9FEF988B8F8787E08C8B4AE00F
:1014100050E0B801C7010E94C82A065F1F4F073578
:10142000F2E01F07A1F7B0922805A0922705649665
:10143000EDE00C94322A80E00E94930960E086E29D
:1014400090E00E94A42A0E94AC090E945D0981E0FC
:101450000E94930908950F931F93CF93DF938430D5
:1014600030F5683020F5463010F5C42FD0E0CC0FB1
:10147000DD1F2CE0629FC00DD11D112430E6839F3B
:10148000C00DD11D1124CE0187960E94962A082FE7
:1014900010E0102F0027CE0188960E94962A98010E
:1014A000282BC901DF91CF911F910F91089590E0F2
:1014B00080E0F8CF462F20912B0530912C05232B6F
:1014C00099F4703F39F4603F79F480912905909147
:1014D0002A050895843040F4783030F4663020F4E2
:1014E000672F0E942B0A089590E080E00895CF9224
:1014F000DF92FF920F931F93CF93DF936C010091C4
:1015000014068091FD01082BC7E0D0E010E0FC2E0E
:10151000C8010C2E02C0959587950A94E2F780FDCC
:101520000CC02197A0F7F12C8F2DDF91CF911F9147
:101530000F91FF90DF90CF900895B6018C2F0E94FD
:101540005A0A0E944206019761F3EECFCF93DF93D0
:10155000EC010E94770ABE010E945A0A0E944206CC
:10156000DF91CF910895FC0183819481892B29F02B
:101570008081918189238F3FF1F480E008950E945A
:10158000420692959F70963089F058F4925F9F7052
:10159000923098F7803F19F030F4883E70F781E080
:1015A00008959A5FF4CF843F41F7F9CF883EB8F3AE
:1015B000813F19F7F4CF86819781009701F78081E9
:1015C00091810E94A60ADDCFA5E0B0E0EAEEFAE044
:1015D0000C94202A9C01FC01868197810097E1F4FC
:1015E00085E0DE01119601900D928A95E1F7F901EF
:1015F000228189819A81222399F0662389F00E94B1
:10160000770A182F682F89819A810E94270869819B
:101610007A81812F0E945A0A2596E3E00C943C2A95
:101620000E94F307182FF3CF83E290E00E94962ADE
:10163000833489F484E290E00E94962A853C59F430
:1016400085E290E00E94962A91E08B3B09F090E0C1
:10165000892F8170089580E0FCCFCF9384E090E0E3
:101660000E94962AC82F82E290E00E94962A982F24
:101670008C2FCF910895AAE0B0E0E1E4FBE00C9458
:10168000172A0FEA14E08DE9C82E84E0D82E97E0DF
:10169000E92E92E0F92E27E0922E3CE9A32E34E0C9
:1016A000B32E88248394D6010D931D936D014AE0D7
:1016B00050E0B701CE0101960E94862AF8013896C3
:1016C000DF01892D1D928A95E9F789819A81D801D8
:1016D00011969C938E938F8112968C9312978D8185
:1016E00013968C931397888514968C9314978985F9
:1016F00015968C9315978B819C8117969C938E934E
:10170000169718961C9218978A8587FF3CC01E96DC
:101710001C921E921D9780FF03C0D80118968C92D0
:1017200081FF04C0F80190859260908782FF07C016
:10173000D80118969C911897946018969C9383FFF3
:1017400004C0F80190859860908784FF07C0D80195
:1017500018969C911897906118969C9385FF04C0E9
:10176000F801808580628087015F1F4FFAE0EF0EED
:10177000F11C87E5E81682E0F80609F094CF2A9676
:10178000ECE00C94332AF801B686A586C4CFAAE013
:10179000B0E0EDECFBE00C941B2AECE4F4E080E517
:1017A000DF011D928A95E9F7E8E9F5E088E3DF01BA
:1017B0001D928A95E9F78CE4C82E84E0D82E7F012B
:1017C00007EB11E0F701D182C0824AE050E0B80196
:1017D000CE0101960E94862A88E0FE013196D6014C
:1017E00001900D928A95E1F789859A85D701139624
:1017F0009C938E931297BAE0CB0ED11CE7E0EE0ECD
:10180000F11C065F1F4F0730F2E01F07D9F62A963A
:10181000E8E00C94372A68EE7EEF90E080E00E94CA
:10182000C22A60E082E090E00E94A42A60E083E0A7
:1018300090E00E94A42A1092FD0160E084E090E014
:101840000E94A42A64E082E290E00E94A42A60E060
:1018500085E090E00E94A42A60E086E090E00E948B
:10186000A42A6FEF87E090E00E94A42A40E050E0B5
:10187000BA0188E090E00E94B62A60E08DE090E036
:101880000E94A42A40E050E0BA0188E190E00E9462
:10189000B62A60E087E190E00E94A42A40E050E090
:1018A000BA018CE190E00E94B62A70E060E080E22C
:1018B00090E00E94C22A40E050E0BA0188E190E046
:1018C0000E94B62A80E00E9493090E941B0A40E011
:1018D00050E0BA018FE090E00E94B62A40E050E06C
:1018E000BA0183E190E00E94B62A08951F920F92F8
:1018F0000FB60F9211242F933F934F935F936F93E3
:101900007F938F939F93AF93BF93EF93FF938091B8
:10191000E10082FF09C08091E20082FF05C0809152
:10192000E1008B7F8093E1008091DA0080FF24C08A
:101930008091D80080FF20C08091DA008E7F809354
:10194000DA008091D90080FF9DC080E189BD82E1ED
:1019500089BD09B400FEFDCF81E08093130680911C
:10196000FD05811109C00E9415030E9408048091A1
:10197000E20084608093E2008091E10080FF17C064
:101980008091E20080FF13C08091E2008E7F8093FF
:10199000E2008091E20080618093E2008091D800B3
:1019A00080628093D80019BC85E0809313068091F3
:1019B000E10084FF2BC08091E20084FF27C080E11A
:1019C00089BD82E189BD89B5982F917080FFFBCFD9
:1019D0008091D8008F7D8093D8008091E1008F7E28
:1019E0008093E1008091E2008F7E8093E2008091FD
:1019F000E20081608093E20080910A06882309F466
:101A000047C084E080931306809113068091E10023
:101A100083FF27C08091E20083FF23C08091E10013
:101A2000877F8093E10082E08093130610920A067C
:101A30008091E1008E7F8093E1008091E2008E7FB3
:101A40008093E2008091E20080618093E20042E0B6
:101A500060E080E00E94D6038091F000886080936F
:101A6000F000FF91EF91BF91AF919F918F917F9186
:101A70006F915F914F913F912F910F900FBE0F90FB
:101A80001F90189519BC109213061092FD0574CF83
:101A90008091E30087FD93E090931306B5CF78948F
:101AA0001F921FB61F9211248F939F93AF93BF93E2
:101AB0008091F6059091F705A091F805B091F90590
:101AC0000196A11DB11D8093F6059093F705A09393
:101AD000F805B093F905BF91AF919F918F911F9039
:101AE0001FBE1F9018959C014FB7F8948091F60582
:101AF0009091F705A091F805B091F9054FBF821BB1
:101B0000930B08952FB7F8948091F6059091F705FF
:101B1000A091F805B091F9052FBF08954F925F92FB
:101B20007F928F929F92AF92BF92CF92DF92EF926D
:101B3000FF920F931F93CF93DF93CDB7DEB7289714
:101B40000FB6F894DEBF0FBECDBF8E010F5F1F4FE3
:101B500088E0F80111928A95E9F79FE4E92E91E077
:101B6000F92E25E5C22E21E0D22E77247394AA24E3
:101B7000A394B12C4DE5842E41E0942EF701819180
:101B80007F018F3F09F447C0F894E82FE295EF708A
:101B9000F0E021A18F70A50102C0440F551F8A9566
:101BA000E2F7CA01922F982B91A392A180958923E5
:101BB00082A3789400C085E5482E81E0582ED80194
:101BC000672D6095F20151912F014D919D0121509A
:101BD00031095F3F09F45DC0852F82958F7090E0D9
:101BE000FC0180A190E05F7002C0959587955A95A1
:101BF000E2F780FD4EC04729F90140838414950423
:101C000009F7F701319780818F3F11F00E94E805B5
:101C1000F0EAFA95F1F7770CCE14DF0409F0AECFB5
:101C200048E050E0B80181E092E00E94722A892BDE
:101C300091F188E0F801A1E0B2E001900D928A955F
:101C4000E1F781E0809300020E94820D9093FF01F2
:101C50008093FE018091FE019091FF010E94730D1F
:101C60000597E8F048E050E061E072E084E494E039
:101C70000E94722A892B51F188E0E1E0F2E0A4E4AD
:101C8000B4E001900D928A95E1F781E01092000294
:101C900007C04623B1CF809100028111DBCF80E0E5
:101CA00028960FB6F894DEBF0FBECDBFDF91CF915F
:101CB0001F910F91FF90EF90DF90CF90BF90AF906A
:101CC0009F908F907F905F904F90089580E0DECF3F
:101CD0008091F90190913505892B8093860180913F
:101CE000FC01882319F10E94820D2091FA013091A4
:101CF000FB01821B930B8838934110F00E94C307AD
:101D0000809186019091FC01892B8093860120E0CF
:101D100088E891E0FC013191CF0131112F5FF1E0B2
:101D20008E389F07B9F721110E94C3078091E805FB
:101D300080959091860189239091E905892B809364
:101D4000860148E050E061EF71E086E891E00E9492
:101D5000722A892BA9F088E0E6E8F1E0A1EFB1E072
:101D600001900D928A95E1F7E091F105F091F2056D
:101D7000309731F00280F381E02D86E891E00995FB
:101D8000089590E080E00E94130590E080E00E94BA
:101D9000FD04109235050E94680E08958093140684
:101DA0000E94C10E089580911406982F9670963067
:101DB00021F488600E94CE0E0895877FFBCF21E03A
:101DC00030E001C0220F8A95EAF720958091140631
:101DD00082230E94CE0E08959091F0018095892370
:101DE0008093F001282F277091F4282F082E000CE3
:101DF000330B9217130659F090910A0292FF07C015
:101E00008595859585950E94DF0E0E94D5070895DA
:101E1000CF93C0910A02C2FB992790F9981791F0CD
:101E200080FBC2F9C0930A026091090284E090E04D
:101E30000E94A42A6C2F82E290E00E94A42A82E0F1
:101E40000E94EC0ECF91089521E030E001C0220FF6
:101E50008A95EAF780911406822B0E94CE0E08958F
:101E60008093FD010E94C10E08951092F901E8E8E7
:101E7000F1E086E0DF011D928A95E9F70E94C10E2C
:101E80000895AAE2B0E0E7E4FFE00C94202A8BE09A
:101E900096E02091F100DC012D93CD01B6E0833175
:101EA0009B07B9F780910C06833009F472C0B8F42F
:101EB000813009F449C0823009F4B3C08091E80050
:101EC00083FF96C280910B0690910C069A3008F021
:101ED0008FC2E92FF0E0EE51F54D0C945C2A8A3068
:101EE00009F48EC08B3009F471C0893039F78091C4
:101EF0000B06813219F780910F069091100600971A
:101F000011F00297D9F68091E800877F8093E8006E
:101F10008091E80082FF38C09091F3008091F20038
:101F2000029731F48091F100813011F0863021F474
:101F30008091F1008093FF058091E8008B7780937A
:101F4000E8000E94B703BACF80910B06813A09F0EE
:101F5000B5CF8091E800877F8093E80080910F06DD
:101F600090911006892B61F468E080E096E070E0C3
:101F70000E9463048091E8008B778093E8009ECFF5
:101F800060E090E080E0F3CF809113068111C0CF34
:101F900095CF80910B06813A09F090CF80910F0682
:101FA00090911006892B09F089CF8091E800877FF6
:101FB0008093E8008091E80080FFFCCF80911501BC
:101FC0008093F1008091E8008E77B9CF80910B0665
:101FD000813209F073CF80910F0690911006892B02
:101FE00009F06CCF8091E800877F8093E8000E9421
:101FF000B70380910D06809315010E94350F5ECFC7
:1020000080910B06813209F059CF8091E800877FDB
:102010008093E8000E94B70380910E068093FE052E
:102020004DCF80910B06813A09F048CF8091E800AE
:10203000877F8093E8008091E80080FFFCCF80914B
:10204000FE05BECF803899F0823809F0D1C1809169
:102050000F068F70873008F0CBC18093E900809124
:10206000EB0085FB882780F91092E90006C080917B
:10207000080690910906911182609091E800977F7F
:102080009093E8008093F1001092F1008091E800B5
:102090008E77AAC1882309F498C1823009F0A8C1BB
:1020A00080910D0681119BC180910F068F702FEFDB
:1020B000280F263008F09CC18093E9002091EB00A6
:1020C00020FF8DC1933031F48091EB0080628093CA
:1020D000EB0085C19091EB0090619093EB0021E0C3
:1020E00030E001C0220F8A95EAF72093EA001092AF
:1020F000EA008091EB008860EACF811179C11091EC
:102100000D061F778091E3008078812B8093E30098
:102110008091E800877F8093E8000E94B703809158
:10212000E80080FFFCCF8091E30080688093E300AB
:1021300082E0111183E0809313065AC180588230E7
:1021400008F056C120910D0630910E062C3DE3E0BB
:102150003E07A1F583E08A838AE289834FB7F8942A
:10216000DE01139620E03EE051E2E32FF0E05093D1
:102170005700E49120FF03C0E295EF703F5FEF70DE
:102180008E2F90E0EA30C0F0C7968D939D932F5F1D
:10219000243159F74FBF8091E800877F8093E80092
:1021A0006AE270E0CE0101960E9463048091E8002B
:1021B0008B778093E8001CC1C096E7CF80910F0613
:1021C00090911006432F55274330510509F44AC01A
:1021D00078F54130510509F485C08BE590E0ECE8D5
:1021E000F4E04230510509F003C12091E800277F57
:1021F0002093E80020911106309112068217930770
:1022000008F49C0140E02115310509F070C041112E
:102210006EC08091E80082FDC9CF809113068823AB
:1022200029F2853019F28091E80083FFF2CFBECF0A
:102230004132510509F447C04232510509F0D8C076
:102240008330910508F0D4C0FC01EE0FFF1FE85861
:10225000FE4F0190F081E02D8B589E4FDC018C9158
:1022600090E01DC0332721303105E9F021153105FB
:1022700079F022303105F9F02330310509F0B8C08A
:10228000E9EFF4E0E4918E2F90E0E9EFF4E007C08D
:10229000E7E3F5E0E4918E2F90E0E7E3F5E00097C7
:1022A00009F4A6C0A2CFE3E2F5E0E4918E2F90E01E
:1022B000E3E2F5E0F4CFE7E1F5E0E4918E2F90E082
:1022C000E7E1F5E0ECCF8330910508F091C0880F8D
:1022D000991FFC01E258FE4F0190F081E02D89E04A
:1022E00090E083CF82E190E0E7EEF4E07ECF809152
:1022F0001306882309F45ACF853009F457CF80910B
:10230000E80083FD53CF8091E80082FD82CF809169
:10231000E80080FF78CF9091F3008091F2002115C2
:10232000310519F08830910550F041E0089709F027
:1023300040E08091E8008E778093E80064CF44917C
:102340004093F1003196215031090196E8CF803851
:1023500009F04EC08091E800877F8093E80080916B
:102360000A068093F10092CE811142C010910D06B1
:102370001230F0F58091E800877F8093E800109399
:102380000A060E94B703112311F084E005C0809172
:10239000E30087FDFACF81E08093130642E061EC11
:1023A00081E00E94D60342E261EC84E00E94D60301
:1023B00042E261EC82E00E94D60342E260EC83E0FC
:1023C0000E94D6038091130613C080910D068130C0
:1023D00079F481E0933009F080E08093090610924F
:1023E000E9008091E800877F8093E8000E94B703AE
:1023F0008091E80083FF0AC08091E800877F809386
:10240000E8008091EB0080628093EB00AA96E3E005
:102410000C943C2A1F920F920FB60F9211242F9307
:102420003F934F935F936F937F938F939F93AF935C
:10243000BF93CF93DF93EF93FF93D091E900DF70C9
:102440008091EC00C82FC17080FDC0E81092E900B7
:102450008091F000877F8093F00078940E94410F74
:102460001092E9008091F00088608093F000CD2BFD
:10247000CF70C093E900FF91EF91DF91CF91BF91B1
:10248000AF919F918F917F916F915F914F913F910C
:102490002F910F900FBE0F901F9018950E94350F2F
:1024A0002FEF84E39CE0215080409040E1F700C092
:1024B000000088E19AE00FB6F894A8958093600038
:1024C0000FBE90936000FFCF882341F080959091DC
:1024D00035058923809335050E94680E0895882369
:1024E00039F090913505982B909335050E94680E30
:1024F0000895882321F00E94CE070E94680E089557
:10250000882339F09091F901982B9093F9010E945A
:10251000680E0895882339F19CEF980F913A28F4BA
:102520000E94DC070E94680E089590E2980F983090
:1025300050F4877091E001C0990F8A95EAF7892FCE
:102540000E94CE07EFCF9BE5980F933028F490E0E0
:1025500080E00E9413050895885A873120F490E0A6
:1025600080E00E94FD040895FF920F931F93CF9384
:10257000DF93F82E0091ED051091EE050115110580
:1025800009F449C01092EC051092EB051092E80591
:102590001092E905D8011696CD91DC919E013A95ED
:1025A00021153F4108F4D07ED1E0C11101C0D0E037
:1025B000D8011996ED91FC911A97309731F01B963E
:1025C0006D917C9180E00995D823DD2339F08CEF63
:1025D0008C0F813A30F58C2F0E94DC07FF2099F098
:1025E000E091ED05F091EE05808584FD0CC08091B1
:1025F000EA05882341F0808191819C0121503109B5
:10260000203B3D45A0F00E94680E1092EE0510920E
:10261000ED051092EA05C801CDB7DEB7E5E00C94F0
:102620003A2A0E94680E8C2F0E948A12D7CF0E94ED
:102630003605E9CFCF93C82F8823A9F08CEF8C0FF4
:10264000813A98F4E8E8F1E08EE891E02191C21730
:10265000B9F18E179F07D1F76C2F86E891E00E94A1
:10266000E3040E94680ECF91089580E28C0F8830B9
:1026700068F4C77021E030E001C0220FCA95EAF784
:102680008091F901822B8093F901EBCFEBE5EC0F00
:10269000E33040F4F0E0E25EFE4F808190E00E9483
:1026A0001305E1CFC85AC731F0F6EC2FF0E0EE0F7A
:1026B000FF1FEF5DFE4F808191810E94FD04D3CF0B
:1026C0008C2F0E94DC070E94680EC6CF1F93CF9309
:1026D000DF93182FEB010E941A13209739F4812FF2
:1026E0000E948A12DF91CF911F9108958FE99FE098
:1026F0000197F1F700C000002197EFCF70E060E094
:10270000893311F460E570E00E94661308950F9319
:102710001F93CF93DF93C62FD42F022FFC0182810A
:102720008823A9F0609317060E94820D90931606E5
:1027300080931506C77081E001C0880FCA95EAF73B
:102740000E948012DF91CF911F910F910895809187
:102750001706681332C080911506909116060E94E4
:10276000730D883C910548F510E21D0FCD17B9F0A7
:1027700080E28C0F883040F4C77081E001C0880F80
:10278000CA95EAF70E947912183048F481E09D2F2B
:10279000977001C0880F9A95EAF70E948012802FE7
:1027A0000E947E13183070F6D77081E001C0880F48
:1027B000DA95EAF70E947912C5CFC77081E001C0AF
:1027C000880FCA95EAF7F6CFB0E0A0E0EAEEF3E1B1
:1027D0000C94192AEC018AE0A82E2881222309F4FE
:1027E0008FC02130C9F599818A81913021F42296D8
:1027F0000E947E1305C0923029F422960E941A137B
:102800002196EBCF933021F422960E948A12F8CFC2
:10281000943011F02196F4CF229630E020E0AE0102
:102820004F5F5F4F8053990B8A30910550F02150D4
:10283000310930F38FE99FE00197F1F700C0000004
:10284000F6CFA29EB001A39E700D11249C01260F0D
:10285000371F8981EA01E3CFE22FF0E0E559FA4F13
:10286000B490822F86958695869590E0FC01E55A76
:10287000FA4FE4902770F12C022E02C0F594E794F1
:102880000A94E2F731E0E322FF24FC01E55BFA4F12
:10289000C490D12C022E02C0D594C7940A94E2F7BA
:1028A00031E0C322DD24FC01E55CFA4F049110E025
:1028B00002C0159507952A95E2F701701127E114DA
:1028C000F10419F081EE0E941A13C114D10419F019
:1028D00086EE0E941A138B2D0E947E13C114D10420
:1028E00019F086EE0E948A12E114F10419F081EECB
:1028F0000E948A120115110509F482CF8CE278CF6B
:10290000CDB7DEB7EAE00C94352ACF93DF93EC0124
:102910000E945E089E01205E31092830310510F0CA
:10292000209741F40E9480128C2F0E941A13DF918D
:10293000CF9108950E946F12F7CF90910A0292FFF3
:1029400010C098E0899F90011124622B6093F001E0
:102950000E94240F0E94820D9093EF018093EE015C
:1029600008950E94240F0895A9E1B0E0EAEBF4E194
:102970000C94112A498B5A8B6B8B7C8B8D8B61113C
:10298000109235051D861E861F86188A85E0FE0179
:102990007196DE01199601900D928A95E1F780916A
:1029A0000A0282FF1CC00E94820D2091EE0130912C
:1029B000EF01821B930B8838934120F08091F00146
:1029C00082FFEBC10E94820D2091FA013091FB0140
:1029D000821B930B8838934110F00E94C3078C85AB
:1029E0009D85892B31F089859A8589238F3F09F050
:1029F000C0C129853A854B855C856D857E858F852F
:102A000098890E941D20C3C048EFC4164CE5D40627
:102A100029F4882379F00E94E320EBCF69EFC616F2
:102A20006CE5D60639F4882329F0809114018111D0
:102A3000F2CFAFC108E915E0E12CB12CA12C88241C
:102A40008394912C2EEF522E44244394F80140811C
:102A5000518166246A94762C20E0822F90E0FC015C
:102A6000EE0FFF1FE40FF51F608171816115710585
:102A700031F0C616D70609F43C012F5FEECFF12CDA
:102A8000FFEF6F167F0609F444C0F8014481F0900F
:102A900014018F2D411180E0F82FF170FF2EF80105
:102AA000258086819B85992309F4F2C0FF2009F4D3
:102AB000EFC0211014C0A401062C01C0440F0A94D9
:102AC000EAF7842B86838091330590913405C29771
:102AD00030F462E370E07093340560933305C40111
:102AE00002C0880F991F2A95E2F70197F801268105
:102AF0002817190671F48091DA059091DB0500978B
:102B000009F449C00E94730DC39708F444C0F8014A
:102B10004482EF28FFEFAF1ABF0A095F1F4F28E07A
:102B2000A216B10409F092CF8B85882309F40CC159
:102B3000EE2009F409C10E94820D9093DB05809379
:102B4000DA0580913705883010F591E0980F909361
:102B5000370598E0FE013996DE01119601900D923D
:102B60009A95E1F73CE0839FC0011124885C9A4F5D
:102B700028E0FE013196DC0101900D922A95E1F7E3
:102B80002FEF3FEFFC0131872087D386C2866996FD
:102B9000E2E10C942D2A8091D8055091D905982F07
:102BA000F0E0E0E0851314C09093D8050E171F07DE
:102BB00009F4AFCF90E0FC01EE0FFF1FE053FA4F96
:102BC000B182A0820196837099278093D905A1CF05
:102BD000282E312CF101EE0FFF1FE053FA4F208118
:102BE0003181F7E0F29FD001F39FB00D1124A85678
:102BF000BA4F2D913C911197398F288F40E020E0FA
:102C000030E0E32FF0E0EE0FFF1F688D798DE60FC7
:102C1000F71F6080718061147104E1F0F801019088
:102C2000F081E02DFF8BEE8B20E005C06616770665
:102C300009F44F2D2F5FE22FF0E0EE0FFF1F6E899A
:102C40007F89E60FF71F608171816115710571F74A
:102C50003F5FD7CF4423C9F0F801231708F0FD01E7
:102C60004482E017F10721F49093D805F42E51CF58
:102C7000981305C0EA17FB0711F49F5F9370910149
:102C80002F5F3F4F822F83708DCFF0E0E0E0F7CFD2
:102C900090E0211020C0B40102C0660F771F2A9572
:102CA000E2F79B01215031098217930731F4442345
:102CB00009F448C0C5010E94A705C401062C01C043
:102CC000880F0A94EAF7982F9095F8018681892356
:102CD0008683F22C1ECF9C01062C02C035952795C9
:102CE0000A94E2F7A90141705527BC0161507109AE
:102CF00086239723892B11F5452B01F1F801828159
:102D00009381892BC1F01B821C821D821E825982F5
:102D10005A820E94820D8160582F9D838C83F80116
:102D2000828193818F83988729813A814B816D813C
:102D30007E810E941D20F8011582BFCFF22FF17015
:102D40002F2EBBCF2F2CB9CF9091D8058091D905CC
:102D5000981731F00E94F220EE2009F44ACE17CFE6
:102D60000E948D201092DB051092DA050E94D50595
:102D7000F3CF61E0CE0109960E94E40A6C018B85D5
:102D8000F7EFCF16FCE5DF0609F03ECE882309F405
:102D900051CE81E0809314012CCE82E00E94EC0E93
:102DA00011CEA5E0B0E0E7EDF6E10C941F2A8C010E
:102DB00090932A0580932905011580E21807C0F435
:102DC000802F0E948A12C8010E945E089801205E2E
:102DD00031092830310518F00115110531F40E9430
:102DE00079122596E4E00C943B2A0E946412F9CFF4
:102DF00080EF89838A831B820E94820D8160782FF5
:102E00009D838C8349815A816B818D810E94B4148A
:102E1000E8CFA5E0B0E0EFE0F7E10C94212A909331
:102E20002A0580932905811520E2920730F40E943B
:102E300085142596E2E00C943D2A80EF89838A83ED
:102E400081E08B830E94820D8160782F9D838C832B
:102E500049815A816B818D810E94B414EACFA7E029
:102E6000B0E0E5E3F7E10C94112A7C01DC01139654
:102E70008D919C911497892B39F08C9111969C918E
:102E800089238F3F09F0C1C52796E2E10C942D2AD2
:102E9000C80182519F45409708F095C58FEF93E098
:102EA0000E94962A8111A8C06EEED62ED00E07E59C
:102EB00012E0D11036C019821A821B821C8299241A
:102EC0009A946801EFEFCE1ADE0AC8010E94962A92
:102ED00089831A82882309F48FC0813009F081C068
:102EE0005801F2E0AF0EB11CC6010E94962AC82E0E
:102EF0008A83882309F480C0C5010E94962AD82EAF
:102F00008FEF8C0D8330D8F4580123E0A20EB11C52
:102F1000DB82DD2021F0CE0101960E94E4138501C1
:102F2000D0CF0115B4E01B0709F466C0C8010E94A8
:102F3000962A811101C0DA940F5F1F4FBACF8BEF31
:102F40008C0D833040F5C8010396DB825C01DD20E7
:102F500031F3580134E0A30EB11C0E94962A8C83F1
:102F60008823E9F20B811C8101304FEF140710F028
:102F7000102F002756E0C51651F087E0C81619F04B
:102F8000C8010E940917C8010E94D116C8CFC80104
:102F90000E940917C4CF94E0C912C1CF5801A4E020
:102FA000AA0EB11CC80103960E94962ADD2021F1C9
:102FB000882311F18150990B989E9001999E300DB4
:102FC0001124ED2DE150FF0BCF01820F931F0197CC
:102FD00008F4A5CFAFE9BFE01197F1F700C00000FA
:102FE000F6CFCE0101960E94E413560198CF81E0FE
:102FF0000E94240F0E94D30E8091F001877009F483
:1030000043CFD70112968C91882309F43DCF80914C
:103010000A0282FF39CF82E00E94EC0E35CF81E0B8
:103020000E94DF0EE7CF82E0E3CF82E0F9CF81E0BC
:1030300080930001E1CF809548221EC5552009F4F8
:1030400047C410938F0100938E010E94D7046093B0
:10305000E4057093E5058093E6059093E7051092EB
:10306000EC051092EB0508C582FB882780F947C55F
:10307000552001F1817043C50E948A12A2C50497B0
:10308000813A910558F46A2D86E891E00E94E304A4
:10309000552009F404C40E94680EAECF0E94680E49
:1030A0008FE39CE90197F1F700C000008A2D0E9490
:1030B0001A13EECF9D819F5F9D83F6C4FC01208192
:1030C00031810217130709F0E3C35110E3C31092D3
:1030D000EA0580E00E94B412E2C3053F4CE5140704
:1030E000C9F0A0F027E245EE66EE063F8CE5180732
:1030F00009F018C4C7010E9487137ECF27E245EE6E
:1031000065EEF8CF26E241EE60EEF4CF27E245EE21
:1031100064EEF0CF26E241EE62EEECCF28E241E031
:10312000EFCF053AFDE51F0709F413C4D0F40136CB
:103130003DE5130709F40DC406314CE5140709F009
:1031400074C58091F9018A7A91E009F490E0909336
:10315000900169E2811165E386E891E00E94E30451
:103160009ACFC8018D5A9D45039730F7F2C38091DD
:103170000902806207303CE51307B9F1809109022A
:10318000806108304CE5140780F180910902806469
:103190002CC00D305CE5150709F4C0C090F4809197
:1031A00009028E7F0B309CE51907F9F08091090226
:1031B0008C600C30ACE51A07C0F0809109028D7F5D
:1031C00014C00F30BCE51B0709F4B8C008F4AAC04E
:1031D0000031FCE51F0709F4B5C0809109028F7B1F
:1031E00001312CE5120709F0DEC380930902DBC32D
:1031F0000F3F3CE5130709F4B3C0A8F50A3F5CE5AF
:10320000150709F479C0C0F404319CE5190709F4E5
:10321000B5C008F4A1C00531BCE51B0709F0C3C364
:103220008091090282FB992790F921E0922790FB77
:1032300082F990FB83F9D9CF0C3FECE51E0709F426
:1032400075C008F45DC00D3F2CE5120709F472C08B
:1032500080910A0283600E3F3CE5130709F0A3C387
:1032600080930A02A0C301364DE5140709F491C00A
:1032700090F401308DE5180709F489C008F474C092
:1032800060E00230ADE51A0709F08DC38EE090E0F2
:103290000E94A42A88C30D3ABDE51B07E9F060F43B
:1032A00090910902892F8E7F90FF8160053AFDE59C
:1032B0001F0709F49ACF77C30E3A2DE5120751F193
:1032C0000F3A3DE5130709F06EC390910A02892F6A
:1032D000877F93FF8860C4CF80910A028860C0CF47
:1032E00080910902826081CF8091090284607DCF44
:1032F00080910902886079CF80910A028160B0CF05
:1033000080910A028260ACCF0E94350F8091090241
:1033100080686BCF80910A02877FA2CF80910902DB
:103320008B7F63CF80910902877F5FCF80910A02F4
:103330008E7F96CF80910A028D7F92CF8091090275
:103340008F7E53CF809109028F7D4FCF0E94350F22
:10335000809109028F7749CF80910902837F45CF01
:1033600080910A028C7F7CCF80910A02982F9095E1
:1033700091708E7F892B90FB81F972CF0E94350F5F
:1033800090910902892F97FB87F980582ECF61E031
:103390007DCF90910902892F8F7E94FF806125CF88
:1033A00085E3E8C30E94350F5FEF84E39CE0515052
:1033B00080409040E1F700C000000E94C604809168
:1033C0000A0282FB882780F991E089270E94080F72
:1033D000F701868197810097C1F10E9442068C0116
:1033E000F701C280B580B2943FE0B3228091F00132
:1033F0008770C1F0AC2CCC20B1F0812F807F80345D
:1034000021F080E2800F883068F080910A0282FF0C
:1034100009C082E00E94EC0E8091F0018770AA241E
:10342000A3948111A12C912E92942FE09222FBE083
:10343000F91508F488C0E92DF0E0E451F54D0C943D
:103440005C2A81E0C3CF80E0C1CF828100811181FD
:10345000882369F0C8010E94770AD82E682FC80116
:103460000E942708B8018D2D0E945A0AB6CFC801C4
:103470000E94F307D82EF6CF212F2F70D22E107F67
:1034800019F0D29490EFD922CC20B9F0DD2069F068
:1034900080E2800F883010F0011109C08091F9019D
:1034A000D82AD092F9010E94680E802F4AC08091DC
:1034B0003505D82AD0923505F6CF802F0E948A1282
:1034C000DD2009F440C080E2800F883010F0011147
:1034D00004C08D2D0E94CE0706C0D0948091350582
:1034E000D822D09235050E94680E2DC0312F3F7032
:1034F000D32E107F103219F0D29480EFD8220023FF
:1035000081F0013009F495C0CC2009F49EC0BB20A5
:1035100009F46BC0F701858180FFC7CF8F70858369
:1035200064C080910A0282FD39C0CC2089F1DD207F
:1035300039F08091F901D82AD092F9010E94680EE1
:1035400080E00E941A13292D2850330B24303105B6
:1035500010F40E942905AA20B1F08091F00180FDAD
:1035600012C0D70112961C928595859585950E946B
:10357000240FC7010E942F178091F0018595859532
:1035800085950E94DF0E60E0C7010E94E40A7CCCB2
:1035900080E00E948A12DD20B1F29BCFCC2049F15D
:1035A000B11004C08091FC018D2920C041E0B4120B
:1035B00010C082FFC8CF8091FC01D82AD81619F21A
:1035C0000E94820D9093FB018093FA01D092FC013E
:1035D000BACF55E0B512E6CF0E94C3079091910192
:1035E0008D2D892B8913809391018D2D0E9480123E
:1035F000AACFB11003C00E94C30712C081E0B81265
:1036000013C08091F9018D2109F49DCF0E94C30759
:10361000909191018D2D809589238913809391013B
:103620008D2D0E9479128FCF95E0B91609F48BCFBA
:10363000E2CFCC2029F0A5E0AB1508F484CFD5CF9C
:10364000B4E0BB1508F47FCFEBCFBB2049F30933BF
:1036500049F4FFEF27EE33E0F15020403040E1F72E
:1036600000C00000802F0E948A126DCF812F8695A6
:103670008695837061F0813009F065CFC801937041
:10368000C11002C090E080E00E94FD045CCFC80140
:103690009370C11002C090E080E00E94130553CFE8
:1036A000812F837089F5C1104ECF402F42954695EA
:1036B0004770440F440F802F8F70042E01C0880F75
:1036C0000A94EAF7202F207104FF07C02FE030E0B2
:1036D00001C0220F4A95EAF72095169516951370AA
:1036E000123069F050F43091FD01113029F0822B35
:1036F00083230E94300F27CF832B822BFACF282BD6
:103700008091FD018227F5CF8695CC2011F0812F85
:103710008170882309F417CF402F42954695477052
:10372000440F440F802F8F70042E01C0880F0A941D
:10373000EAF7202F207104FF07C02FE030E001C01E
:10374000220F4A95EAF720951695169513701230B8
:1037500069F050F430911406113029F0822B832344
:103760000E94CE0EF0CE832B822BFACF282B809195
:1037700014068227F5CF1F70CC2029F0812F0E94DC
:10378000240F802F33CF802F0E947912812F0E9427
:10379000DF0ED9CE023F89F160F4003FB9F0013F5E
:1037A00081F0CC2009F464C0B1107FCE812F8F71DD
:1037B00028C0033F49F1043FA1F780910A0282FD2E
:1037C0002FC0812F8F71CC2011F31BC0CC2081F032
:1037D00044E04B1508F4B7CE1F7181E090E0012E54
:1037E00001C0880F0A94EAF7909114068927B8CF90
:1037F00055E05B1508F4A7CEEFCF812F8F71C11074
:10380000C6CF0E94240F9FCE80E0CC2009F4A8CF21
:103810001F7181E0012E01C0880F0A94EAF7A0CF42
:10382000CC20C9F08091F0018770843041F40E946F
:10383000D507812F8F710E94DF0EA12C84CE84E0EA
:103840008B15D8F31F71812F0E94240F63E0812F05
:103850000E949D14F2CF94E09B1530F40E94D5078E
:1038600064E0812F8F71F4CF81E00E94EC0EE5CFF0
:10387000BB2059F0093309F0F5CEAFEFB7EEE3E026
:10388000A150B040E040E1F7EBCE812F8F717FCFA8
:10389000552029F0DC0118968C9185FF1ACC033F46
:1038A000BCE51B0709F42ECC08F017CC083DFCE55D
:1038B0001F0709F423CC093D2CE5120709F42ECC8F
:1038C000073D3CE5130771F526E241EE61EE12CCAF
:1038D00080918E0190918F010817190781F4109241
:1038E0008F0110928E011092E4051092E50510925E
:1038F000E6051092E7051092EC051092EB05809119
:10390000ED059091EE05009751F2A8E08A1691041A
:1039100008F0D4CB642D0E9487058111C0CF81E0CF
:103920000E94B412D70112968C91882309F418C111
:10393000109217060330BDE51B0708F0F2CB0A3FD3
:10394000ECE51E0730F4C80182509C45449708F00E
:10395000F3CB0E942D0B90930A028093090202314F
:103960004CE5140709F4F2CC08F042CC09308CE5A0
:10397000180709F4C9CC08F00CCC0530ACE51A07DF
:1039800009F4B6CC08F0F3CB0330ECE51E0709F4DC
:10399000A7CC08F0A9CC80910902816002302CE507
:1039A000120709F422CC6091090210910A0284E006
:1039B00090E00E94A42A612F82E290E00E94A42A53
:1039C0000E94350F19CB0031FFE51F0709F40FCB1B
:1039D00001312FE5120709F426CB0F35EDE51E075F
:1039E00009F425CB0036FDE51F0749F00E352DE51E
:1039F0001207F9F480910001882309F418CB109282
:103A0000000180E00E94B412F7CA61E0C7010E9481
:103A1000E40A8C01D70112965C90511039CA00312A
:103A20003FE5130709F4FBCA01314FE5140709F418
:103A3000FCCA80910001882309F431CF480130EE9F
:103A4000831A91084090FC0180919101482A80914D
:103A5000F901482A48E08416910408F0EFCA980159
:103A60002770332781E090E001C0880F2A95EAF79C
:103A7000552009F4E0CA482AD7018D919C910E94F3
:103A8000F30721E030E0190102C0220C331C8A95B3
:103A9000E2F7E091ED05F091EE05FF83EE83609093
:103AA0008E0170908F011D822D81E22FF0E0EE0FCC
:103AB000FF1FE356FB4FC080D180C114D10409F42D
:103AC0001ECF411005C0D60112968C918111F2CA09
:103AD000F601838190E082219321892B09F4EACABF
:103AE0008085982F977009F487E0F8E08F1691048D
:103AF00008F0BECA552009F4B7CA8695817088239C
:103B000009F4D8CAD601AD90BC900A151B0519F46A
:103B1000552009F4CFCAEE81FF81CE16DF0609F4E5
:103B2000C9CAD6011D96ED91FC91309721F0808194
:103B3000882309F4BFCA642DC6010E948705882323
:103B400009F4B8CA0A151B05C1F401151105C9F01D
:103B5000511019C0A614B70409F0ACCA512C13C0F7
:103B60000631BCE51B0709F033CC8091900181112F
:103B700017CC89E20E94DC078ECAA114B10451F768
:103B8000512CB12CA12C80E00E94B412D092EE05F1
:103B9000C092ED0581E08093EA05F601858180936E
:103BA000E80551100EC0AB2861F0F60180819181CB
:103BB0009C0124503109213A310508F05DCA0E9468
:103BC000DC07D6011696AD90BC90C5019A9581157B
:103BD0009F4110F4E0EEBE2277247394C501019753
:103BE000803B9D4508F0712CD6011996ED91FC9112
:103BF0001A97309731F01B966D917C9181E0099571
:103C00007822772079F0F601868197810E945E08FC
:103C10008093E905C501F8E08F16910408F02FCADA
:103C20000E9436050E94680E33CA0A35EDE51E076C
:103C300009F407CC68F401152CE5120709F4B2CB9E
:103C40000E3D1C4509F0C4CB0E940B0C0E944E1285
:103C50000C354DE5140709F4B2CB08F4F4CB073A60
:103C60001D45A1F3B5CBCF93DF938091A901807F50
:103C700009F049C08091A601882309F444C08091CD
:103C8000ED01D091AC016091A4017091A501A091CA
:103C9000A701B091A801C62FC723D817A1F190E0C2
:103CA000109711F0CF3F19F401968770F6CF9C0161
:103CB00043E0220F331F4A95E1F7F901E355FE4F28
:103CC00041814713F1CF40814613EECF428141112C
:103CD000EBCF438154814A1B5B0B483C510520F7D5
:103CE0008091A9018F7080618093A901F901EE5440
:103CF000FE4F80818F708061808384EA91E00E9412
:103D00002F170E94E907DF91CF910895A5E1B0E058
:103D1000ECE8FEE10C94192A8C0185E0F801DE0143
:103D2000519601900D928A95E1F7F801E28064EADC
:103D3000A62E61E0B62E6091A7017091A8016115D1
:103D4000710509F45CC19091A4014091A501892FEE
:103D500084238F3F09F453C120813181C380D480F3
:103D6000F090A601F601E61BF70BFF2009F411C144
:103D70008091A901582F507FE83CF10508F0C4C09C
:103D8000511175C0FE2C43131EC092131CC06091CC
:103D9000AA017091AB01F80146815781641775073C
:103DA00091F4E11010C08F7080618093A901C5016A
:103DB0000E942F178091A901F80185838F2D6596A8
:103DC000EAE00C94352AC114D10429F0822F832310
:103DD0008F3F09F02FC180E0F82FF170DF2E80FFB8
:103DE0003CC08091ED014091AC01841315C0298B3A
:103DF0003A8B89899A890E94A60A292F22952F70C9
:103E00002230F8F0243020F59F70F9F0F801958108
:103E1000907FD9F4D12C1FC090E0FC0153E0EE0F4D
:103E2000FF1F5A95E1F7E355FE4F5181351306C048
:103E30005081251303C05281E5120FC0019687708F
:103E4000D4CF9F7011F0882329F3805E883010F35F
:103E5000C8010E942F17FD2CB1CFEE2009F4AECF80
:103E60008091A90181608093A901F12CA7CF431310
:103E70001BC0921319C04091AA015091AB01F801E7
:103E8000268137814217530779F4E1100DC08583ED
:103E9000C8010E942F1788E0F801A4EAB1E0019060
:103EA0000D928A95E1F78ACFC8010E94B30A882350
:103EB00039F1EE2029F18091A9018032A0F0209102
:103EC000A4013091A5013A8729871B86DD86CC861F
:103ED0008E878091AA019091AB01988B8F87CE013C
:103EE00009960E942F1788E0F801A4EAB1E001903A
:103EF0000D928A95E1F70E94331EFF24F3945ECF62
:103F0000C8010E942F17F9CF51110AC084EA91E02D
:103F10000E942F1788E0F50111928A95E9F7A5CF45
:103F2000431318C0921316C04091AA015091AB01DF
:103F3000F801268137814217530761F4E1100AC066
:103F40008583C8010E942F1788E0F50111928A9598
:103F5000E9F734CFC8010E94B30A882389F2EE2022
:103F600079F28091A901803208F4BDCF2091A4019B
:103F70003091A5013A8329831B82DD82CC828E8316
:103F80008091AA019091AB0198878F83CE01019611
:103F9000A8CFE83CF105C0F6FE2CEE2009F4B0CF26
:103FA00043131FC092131DC02091AA013091AB0191
:103FB000F801868197812817390799F49091A90112
:103FC00090FD69CF907F09F466CF8091A901858328
:103FD000903F09F45DCF982F907F905F8F70892B71
:103FE00056CFC8010E94B30A81117DCF8091A901EB
:103FF00081608093A901C8010E942F17DFCEEE20B7
:1040000009F47ECFC8010E94B30AF82E882309F470
:1040100077CF88E0F801A4EAB1E001900D928A958B
:10402000E1F78091A4019091A5010E94A60A0E9447
:10403000331EC4CE81E08E25CFCEA0E1B0E0E3E216
:10404000F0E20C94212A29873A874B875C876D8799
:104050007E878F87988BCE0109960E94861E8111DC
:1040600012C088E0FE013996DE01119601900D9292
:104070008A95E1F78C859D85892B29F089859A851C
:1040800089238F3F81F58091ED019091AC018913D7
:1040900017C06096E2E00C943D2A93E0AA0FBB1F84
:1040A0009A95E1F7A355BE4F98E0FE013196019035
:1040B0000D929A95E1F78093AC010E94E907E3CF56
:1040C000B8E08B9FC001112483559E4F0E94861E2D
:1040D0008823F9F28091ED0190E00196877099278D
:1040E0008093ED01D0CFA091AC01B0E0CD0101965D
:1040F000877099272091ED012817190671F60E9403
:10410000350F1092AC011092ED0188E0E4EAF1E085
:10411000DF011D928A95E9F7B6CF0F931F93CF93D6
:10412000DF9380913705E0913605CCE081111AC00C
:10413000DF91CF911F910F910895D1E0DE0FD093C1
:1041400036050E2F10E0EC9FF0011124E85CFA4FC9
:1041500083819481892B29F08081918189238F3FEC
:1041600051F4ED2F80913705E81738F31092370599
:1041700010923605DDCFC09FD001C19FB00D112434
:10418000A85CBA4F16968D919C911797892B29F4AC
:1041900018968D919C91019651F420813181428134
:1041A000538164817581868197810E941D20C09F03
:1041B000F001C19FF00D1124E85CFA4F14821382C4
:1041C00010923505CECF1092DB051092DA051092D1
:1041D00014018091D9058093D8050E94D5050E94CD
:1041E0008D200895B0E0A0E0E8EFF0E20C94122AF0
:1041F000C091D80597E0892E01E010E02CE0322E26
:104200003EEF932E442443948091D9058C1309C02A
:104210000E948D200E94D505CDB7DEB7E1E10C9458
:104220002E2AD0E0FE01EE0FFF1FE053FA4F8081EF
:104230009181889ED001899EB00D1124A856BA4F55
:1042400014962C911497211158C050903705E8E32B
:10425000F5E030E020E0712C5D01251508F04BC041
:10426000E284F384D501CD90DC906FEF7FEF612C79
:10427000462D50E0DA01AA0FBB1FAC0DBD1D0D90FD
:10428000BC91A02D109731F0EA16FB0609F4BA0193
:104290006394EECF6F3F7607A9F1D80102C0AA0F51
:1042A000BB1F6A95E2F77A2AB801062C02C0660F96
:1042B000771F0A94E2F7AB014150510974161506B5
:1042C000F9F4329EF001339EF00D1124E85CFA4FB0
:1042D000889ED001899EB00D1124A856BA4F12961F
:1042E0002D913C91139737832683908291829187F9
:1042F000808715964C920E94A7052196C37084CFA3
:10430000148213822F5F3F4F3C96A7CF1F921FB698
:104310001F9211248F939F93AF93BF938091F505C4
:10432000811113C08091F6059091F705A091F805D1
:10433000B091F9054196A11DB11D8093F6059093AA
:10434000F705A093F805B093F905BF91AF919F9140
:104350008F911F901FBE1F901895CDB7DEB7E797BE
:104360000FB6F894DEBF0FBECDBF85B7806885BF9E
:1043700085B7806885BF84B7877F84BF0FB6F89400
:10438000A895809160008861809360001092600021
:104390000FBE80E890E00FB6F89480936100909390
:1043A00061000FBE86EE95E09093850180938401B5
:1043B0000E94C70B0E943B0B0E9415030E94080439
:1043C0008091E20084608093E200789480911306EB
:1043D0008823A1F01091E9001F709091EC00892FC3
:1043E000817090FD80E8182B1092E9008091E80020
:1043F00083FD0E94410F1F701093E90082E084BD8D
:1044000093E095BD9AEF97BD80936E000E94140BC8
:10441000811102C00E941B0A0FE411E095E5E92E0C
:1044200091E0F92ED8018D918D018F3F11F00E94FE
:10443000E805E016F106B1F705E511E08DE5E82E97
:1044400081E0F82EF80181918F018F3F11F00E94D9
:10445000E805E016F106B1F788E0E4E4F4E0DF01F6
:10446000282F1D922A95E9F7E1E0F2E0DF011D9285
:104470008A95E9F790E080E00E949E2A883E9E4F50
:1044800021F40E94140B811102C00E940B0C82E0E7
:1044900090E00E94962A80930D020E942D0B90932B
:1044A0000A02809309020E948E0DEFE3FCE9319726
:1044B000F1F700C000000E948E0D8091440480FF3F
:1044C00008C06FEF7FEF90E080E00E94C22A0E9458
:1044D000C60483E090E00E94962A0E94300F10925A
:1044E0003B0480E880931A020E9411296DE070E07D
:1044F00083E591E00E94F008892BC9F580913B0487
:1045000063E070E081FDA8C080E591E00E94F008C2
:10451000892B69F56DE070E080E491E00E94F0087D
:10452000892B29F50E94D704605A75418F4F9F4F00
:1045300060932D0570932E0580932F059093300581
:10454000EBE3F2E080E092E0DF019C011D9221505C
:104550003040E1F78FEF9FEF90933E0480933D044E
:1045600081E0809332058093310510923C0481E014
:104570008093180253985B9A52985A9A8FE891E068
:104580000197F1F700C000002091180249E152E0C4
:10459000FA018E2F841B821708F461C081E091E03C
:1045A0009093F2058093F10584E494E0A8E0A80FCD
:1045B000ADAB8091130610E4F12E00E112E18530DD
:1045C00009F490C00E948E0DAEE0EA2EA2E0FA2E11
:1045D000B4E4CB2EB4E0DB2E26E132E0D601F701C5
:1045E00091918D912E173F0709F486C09817C1F35A
:1045F00010E0D6010D916D01F70191907F019016A9
:1046000019F19026B12CAA24A394892D8A21A1F016
:10461000B8AA19AB91E0802F8A2109F490E09AABF7
:104620000E94820D8160782F9CAB8BAB48A959A961
:104630006AA98CA90E94B414B394AA0CF6E0BF1224
:10464000E4CFF701319700831F5F183091F60E9485
:10465000D704EE24E39471C08DE491E057CF89B183
:1046600083FB882780F94A9904C090E0892B8193C5
:1046700090CF92E0FBCF80911306843029F10E9405
:104680001A091092F505E8E1F0E00FB6F894A89544
:10469000E09360000FBEF092600083B7817F84607A
:1046A00083BF83B7816083BF7894889583B78E7FFB
:1046B00083BF0FB6F894A8958091600088618093BD
:1046C0006000109260000FBE80910906882351F0AF
:1046D0000E948E0DE4E4F4E08191811184C52DA93E
:1046E0002E13FACF80911306853009F4C4CF0E94AF
:1046F000350F0E94290566CF98137ACF0E94820D4C
:104700008C0180910B0290910C0208171907A1F0FF
:104710008FEF8BA78CA71DA60E94820D8160782F3A
:104720009FA78EA74BA55CA56DA58FA50E94B4146D
:1047300010930C0200930B02E12C8091EB059091F9
:10474000EC05892B09F43EC04091E0055091E1054C
:104750006091E2057091E3052FB7F8948091F6051A
:104760009091F705A091F805B091F9052FBF841B32
:10477000950BA60BB70B4091DC055091DD056091C0
:10478000DE057091DF0584179507A607B707D0F0FF
:104790008091EB059091EC050E9485141092EC0538
:1047A0001092EB051092E0051092E1051092E205DF
:1047B0001092E3051092DC051092DD051092DE05E3
:1047C0001092DF05809114018823F9F08091DA05B9
:1047D0009091DB050097C9F00E94730D209133057D
:1047E000309134052817390780F49091D8058091CD
:1047F000D905981769F00E94F220109234051092A2
:1048000033051092DB051092DA05B12CF12C5DC056
:104810000E948D201092DB051092DA050E94D505CA
:10482000F4CF0B2D10E0E9B1E3FBEE27E0F94A9954
:10483000CBC080E08E2BD801A75EBD4FEC919E2FA0
:104840009370891709F440C0EE0FEE0FE82BEC933C
:10485000EF70F0E0E35AFE4F9801295E3D4F690189
:104860008081D9019C91890F8C9320E0843074F071
:10487000F801EA5EFD4F80818F5F8083B11005C033
:104880006AE070E08AEA0E94661321E0F601808106
:104890008D3F74F4F801EA5EFD4F80818150808382
:1048A000B11005C06AE070E089EA0E94661321E059
:1048B000D6018C91082E000C990B64E070E00E94E8
:1048C000482AF6018083F22AB39480911802B81620
:1048D00008F4A7CFF1100E94D704809132058823F5
:1048E00039F120913D0430913E042115310539F014
:1048F00080913C0461E070E0882309F468C08091F5
:1049000031058823A9F00E94D70400912D0510914C
:104910002E0520912F0530913005601B710B820B05
:10492000930B6F3F7F4F8F4F9F4710F40E941A09E0
:10493000E11001C0F1100E9435090E9429059091F3
:104940003F04891721F080933F040E94D70480918F
:104950001306843009F02DCE83E08093E900809126
:10496000E80082FF26CE8091E80090E085FF06C037
:104970000E943403882309F4F5C091E08091E80097
:104980008B778093E800992309F413CE00912B05CF
:1049900010912C0589810115110509F400C18E3F84
:1049A00009F084C18A81833020F08550833008F07B
:1049B0007DC1EA81EE3008F079C1F0E0E850F54DB4
:1049C000CE0101960C945C2A82E034CF8F5F082FD1
:1049D00010E02B01082E02C0440C551C0A94E2F78B
:1049E000A90144215521452B89F390913B0490FD69
:1049F00044C08295880F807680930F019801369588
:104A000027953695279520931201815E809310019A
:104A10001092130124E630E047E050E06DE071E0D1
:104A200088E70E94B129892B09F069CFA801E5E048
:104A3000440F551FEA95E1F780913B0480FD2BC0A0
:104A4000455C5D4F04E610E020E230E060E488E77A
:104A50000E94D229892B09F052CF0E943509C20148
:104A60008095909540903D0450903E0448225922F4
:104A700050923E0440923D0442CF880F880F880F29
:104A800080930F0110921201895F8093100183E0DF
:104A900080931301BFCFEBE1F2E080E2DF011D92D2
:104AA0008A95E9F7E1E7F1E0FFABEEAB0DE611E047
:104AB00075E7672E71E0772E99249394AEA9BFA96C
:104AC0002D91BFABAEABF80121908F01240E352E96
:104AD000311CC101855C9D4F1C01E22FF0E0E55EB9
:104AE000FD4F30E020E067E0A62EA21AB92C022E7E
:104AF00001C0BB0C0A94EAF7610190E0D6018D91E8
:104B00006D018B216A2D691B6770862E062E000CA5
:104B1000770BB82F01C0BB0F8A94EAF78B2E7195E3
:104B2000619571096770772701C086956A95EAF7E4
:104B3000882A8081882A80829F5F9830F9F62F5FCB
:104B40003F4F31962830310571F6EEA9FFA96E1658
:104B50007F0609F0B3CF04E610E020E230E04BE13D
:104B600052E074CF00E210E09E012F5F3F4F7901C9
:104B70008091E80085FD0AC08091E8008B778093E2
:104B8000E8000E943403882399F3F7CE8091F10066
:104B9000D7018D937D010150110951F7EECE8C3074
:104BA00009F4D0C058F5843009F4B3C058F4823009
:104BB00009F46BC008F09EC0813009F462C08FEF29
:104BC000898374C0863009F4BAC008F4ADC08B3054
:104BD000B1F78091270590912805892B09F466C0CB
:104BE000CE0101960E948F033FEF81EE94E0315099
:104BF00080409040E1F700C0000069CC803109F4AA
:104C0000D3C098F58E3009F4A4C008F49EC08091FA
:104C1000270590912805892B09F448C0EC80F12CD8
:104C20002DE1E216F10408F041C0CA80DB80DC24EB
:104C3000CD24DC248E010F5F1F4FE00EF11EC60154
:104C4000895A9D4F0E151F0589F139EAC31631E0C7
:104C5000D30628F4D80114966C910E94A42A0F5F01
:104C60001F4FBFEFCB1ADB0AEACF823109F4A1C094
:104C700008F49DC0833109F4C6C08E3F09F09FCF70
:104C800098CE1A8289E08B8311C08A81823009F420
:104C9000C0C2833081F0813009F091CF0E94D704E7
:104CA0000E94622A6B837C838D839E83CE01019652
:104CB0000E948F037ECC8091270590912805892B37
:104CC000A9F3809144048B83809145048C83809167
:104CD00046048D83809147048E83809148048F839E
:104CE00080914904888780914A04898780914B0488
:104CF0008A87DCCF8A81823009F061CF6B817C8129
:104D00008D819E810E94622A86E290E00E94A42A00
:104D1000CDCF4C816B818A810E942B0A98278927ED
:104D200098279E838D83C2CF2D813E8132272327F2
:104D300032274C816B818A810E946D09B7CF0E9416
:104D4000AC09B4CF80E18A83B1CF81E08A8389EA5C
:104D50009ACFEC80F12CBDE1EB16F10408F0A6CF60
:104D6000CA80DB80DC24CD24DC248E010F5F1F4F42
:104D7000E00EF11EC601895A9D4F0E151F0509F45C
:104D800095CFE9EACE16E1E0DE0658F40E94962AB5
:104D9000D80114968C93FFEFCF1ADF0A0F5F1F4FD5
:104DA000E9CFF8011482F7CF0E945D097FCF84E03C
:104DB000CACFEC80F12CEDE1EE16F10408F076CFCD
:104DC000CA80DB80DC24CD24DC248E010F5F1F4FE2
:104DD000E00EF11EC6018796E016F10609F466CFD3
:104DE000F0E8CF16F1E0DF0658F40E94962AD801C9
:104DF00014968C93FFEFCF1ADF0A0F5F1F4FEACF95
:104E0000F8011482F7CFEC80F12C2DE1E216F104C9
:104E100008F04CCF0A811B8110270127102700388A
:104E200031E0130708F042CF80E891E0801B910B3E
:104E30008E159F0508F43ACF480187E2880E911C31
:104E4000809127059091280538016E0C7F1C892BD5
:104E5000B9F5680191E0C922DD2400FF0DC0C80149
:104E600086960E94962A9D818927982789278115F1
:104E70009C4511F48FEF8D83570160FE17C0B1E0A0
:104E8000AB1AB10855E0452E512C4C0E5D1E4A0C54
:104E90005B1CC4018E0D9F1D0E94962AF201908119
:104EA00081159C4519F48FEFD2018C93E1E0F0E07D
:104EB000EC0FFD1FEC0DFD1D2FEFCA14DB0428F0D5
:104EC0009E012F5F3F4F790119C094818581811523
:104ED0009C4511F42483258332E0C30ED11C329605
:104EE000ECCF0038A1E01A0720F4F70164810E949A
:104EF000A42AFFEFEF1AFF0A0F5F1F4FC801879622
:104F00000615170571F7D2CE28E0E6E1F1E0DE01E3
:104F1000919601900D922A95E1F720E2DC011D9215
:104F20002A95E9F785E0898388E0FE01B196DE01E4
:104F3000159601900D928A95E1F7B8CE88EA89839B
:104F400081E08A831B821C82B1CE0C81602F70E0CD
:104F5000762F66270B81060F172F111D012E000CCF
:104F6000220B330B45E0000F111F221F331F4A9500
:104F7000D1F7B901A801405E5F4F6F4F7F4F4017D7
:104F800051076207730708F491CE083AB1E01B0796
:104F90002105310508F08ACE493AE1E05E07610556
:104FA000710520F048EA51E060E070E0401B510BD1
:104FB000B801605A7E4F0E94692A78CE4AE150E0DB
:104FC0006FEF70E0CE0107960E947F2A809127053F
:104FD00089830A831B821C8287E08D8384E08E8311
:104FE00065CE81E090E090932C0580932B0582E3C1
:104FF00090E090934304809342040E94820D90932A
:1050000041048093400452CE012B61F1109144047D
:1050100000914B0480914004909141040E94730DD3
:105020008536910540F104FF26C010FF24C00E9480
:10503000820D9093410480934004809142049091AA
:10504000430401979093430480934204892B51F4C5
:1050500010922C0510922B0581E090E0909328058A
:105060008093270580912705898380912B058A836A
:105070008091420408CE82E390E0909343048093B1
:105080004204F0CF10922805109227050FCE40E27F
:1050900050E06FEF70E00E947F2A08CE2B81243011
:1050A00009F460C018F5222309F454C0233009F034
:1050B000FDCD6C812AE0CE018196FC01322F119248
:1050C0003A95E9F7683008F08CC0629FB00111246E
:1050D00069547E4F4AE050E00E94862A80E089832E
:1050E0008AE0FE01B196DE01129623CF253009F445
:1050F00067C0263009F0DACD6C818AE0FE01359672
:10510000DE01919601900D928A95E1F78BA19CA109
:105110008115ACE59A0741F42091270530912805C7
:10512000232B11F490E080E09CA38BA38FEF6830D9
:1051300068F4BAE06B9FB0011124695F7D4F4AE0CB
:1051400050E0CE0181960E94C82A80E089830E94A7
:105150003B0BACCD20E2DC011D922A95E9F788E0FB
:105160008A8391CD6C818AE0FE013596DE019196AD
:1051700001900D928A95E1F789A59AA58115ACE574
:105180009A0741F42091270530912805232B11F42B
:1051900090E080E09AA789A78FEF683068F4BAE0C2
:1051A0006B9FB001112469547E4F4AE050E0CE015C
:1051B00081960E94C82A80E089830E94C70B76CD21
:1051C0006C812AE0CE018196FC01322F11923A9532
:1051D000E9F7683030F4629FB0011124695F7D4FB8
:1051E00079CF8FEF7CCF09BD19BD09B400FEFDCF8B
:1051F0008091D8008F7D8093D8008091E0008260FC
:105200008093E0008091E00081FDFCCF0E94350F8B
:1052100069CA86E290E00E94962A1B821C821D8247
:10522000DECE1092B9008CE08093B8000895B0E013
:10523000A0E0EDE1F9E20C94182AB82EEB010E94EF
:10524000820D6C01EE24E394F12CC431D10560F0A1
:1052500025E0E22EF12CCF3FDC0731F0CE0164E1F6
:1052600070E00E94FD297B0184EAA82E94E8992E23
:105270001092BC00A092BC000E94820D8C01809113
:10528000BC0087FF0DC08091B900887F8830F9F09D
:105290008091B900887F8031D1F00FEF1FEF08C0F7
:1052A000C8010E94730DE816F90648F70EEF1FEFCC
:1052B000CF3FDC07E9F2C6010E94730DC817D9077A
:1052C000B8F6C801CDB7DEB7EBE00C94342AB09243
:1052D000BB009092BC000E94820D8C018091BC00AA
:1052E00087FF0AC08091B900887F883111F080342F
:1052F000A1F610E000E0E5CFC8010E94730DE816AA
:10530000F90660F7D3CF0F931F93CF93DF93EB0191
:105310008093BB0084E88093BC000E94820D8C01C6
:105320008091BC0087FF11C02091B900287F81E0E7
:1053300090E0283211F490E080E0919581959109F8
:10534000DF91CF911F910F910895CF3FDC0741F37B
:10535000C8010E94730DC817D90710F78EEF9FEF91
:10536000EFCFB0E0A0E0E7EBF9E20C941B2A6B0171
:105370008A017901B9010E941729E6010C0D1D1D52
:10538000C017D10711F097FF08C024E92093BC0093
:10539000CDB7DEB7E8E00C94372AB70189910E94B7
:1053A0008329EECFB0E0A0E0E8EDF9E20C941B2AEF
:1053B000C62F6A017901B8010E94172997FD0CC018
:1053C000B8018C2F0E948329E601EC0CFD1CCE1540
:1053D000DF0511F097FF08C024E92093BC00CDB78A
:1053E000DEB7E8E00C94372AB80189910E9483293E
:1053F000EECF84E98093BC000895AA1BBB1B51E14A
:1054000007C0AA1FBB1FA617B70710F0A61BB70B34
:10541000881F991F5A95A9F780959095BC01CD01D9
:1054200008952F923F924F925F926F927F928F9248
:105430009F92AF92BF92CF92DF92EF92FF920F9323
:105440001F93CF93DF93CDB7DEB7CA1BDB0B0FB62D
:10545000F894DEBF0FBECDBF09942A8839884888EA
:105460005F846E847D848C849B84AA84B984C88480
:10547000DF80EE80FD800C811B81AA81B981CE0F77
:10548000D11D0FB6F894DEBF0FBECDBFED0108955C
:1054900097FB072E16F4009407D077FD09D00E94E1
:1054A000FD2907FC05D03EF4909581959F4F089506
:1054B000709561957F4F0895EE0FFF1F0590F49151
:1054C000E02D099469279627692778278727782769
:1054D0000895FB01DC0102C005900D92415050403F
:1054E000D8F70895FB01DC0104C08D91019080196B
:1054F00021F441505040C8F7881B990B0895DC01F6
:1055000001C06D9341505040E0F70895DC01CB019C
:10551000FC01F999FECF06C0F2BDE1BDF89A3196C3
:1055200000B40D9241505040B8F70895F999FECF5C
:1055300092BD81BDF89A992780B50895A8E1B0E0A1
:1055400042E050E00C94882A262FF999FECF92BDB4
:1055500081BDF89A019700B4021639F01FBA20BD38
:105560000FB6F894FA9AF99A0FBE08950396272F6A
:105570000E94A52A0E94A42A252F0E94A52A242F32
:105580000C94A52A0196272F0E94A52A0C94A42AE0
:10559000DC01CB0103C02D910E94D32A4150504021
:1055A000D0F70895262FF999FECF1FBA92BD81BD7D
:1055B00020BD0FB6F894FA9AF99A0FBE0196089595
:1055C000F894FFCF22104A10F8114A10F8117D10FC
:1055D0009E10F811A711B4113C1A3C1A761A761ACB
:1055E000361BA31AA31AA31A501BBB1BCA1BCA1B28
:1055F00084279E27A52756265626DE27F12704282E
:0C560000422847285626562656264E28DB
:10560C0001C304C308C204BE08B908C104002100C8
:10561C007F22000301015C69A059D30DCF0981825F
:10562C0083E200E900EA00B500B600B700CD0083C4
:10563C0001CC008A0192019401210223022402254B
:10564C0002260227022A02B300B4006F007000F693
:10565C00F7313332363435946697C6F5F400FF01D2
:10566C0000010000FFFF0000010001FF0000081016
:10567C0018181008004022320001DE00AC009E0415
:04568C00B704D70484
:00000001FF
