:100000000C9466050C9483050C9483050C9483056D
:100010000C9483050C9483050C9483050C94830540
:100020000C9483050C9483050C941E110C94B21649
:100030000C9486260C9483050C9483050C948305FC
:100040000C9483050C9483050C9483050C94830510
:100050000C9483050C94F7110C9483050C94830580
:100060000C9483050C9483050C9483050C948305F0
:100070000C9483050C9483050C9483050C948305E0
:100080000C9483050C9483050C9483050C948305D0
:100090000C9483050C9483050C9483050C948305C0
:1000A0000C9483050C9483050C9483050501098049
:1000B000A101850319012AB700150126B700950192
:1000C00075108100C0050C0901A101850419012AE0
:1000D000A002150126A002950175108100C00660DE
:1000E000FF0961A1010962150026FF00952075082E
:1000F00081020963150026FF00952075089102C052
:1001000005010906A101050719E029E715002501E8
:10011000950875018102950175088101050719008F
:1001200029FF150026FF00950675088100050819AE
:10013000012905950575019102950175039101C08D
:1001400000DA0281FFD9F1DB20A4A62EAF00A0C007
:1001500000A1C800AED580A81FD300408D14200098
:10016000FD377A585A000004E6D6B4460200210151
:1001700016000000742FE5A3E003AA01655D003DB1
:100180008889C65436C3174FE4F5602D3B56DF21EE
:1001900044B4FF40F91849E5B259552B74A4282BF3
:1001A00052BA4EE1D329566E894CBE8A86793225E1
:1001B000DE38527A68E2ACA3787F1AA530E1877303
:1001C00035CA4B3A82E9046FD6B8AFECC64737A1BF
:1001D0009C656835CE7A8C262B11871502FAE84784
:1001E000F1AADE73BEA755EFE67FE65B2FB30442AC
:1001F0009E627BBCA8235D1A1C0E6C2D35E9F3486A
:10020000B3108AF43FF19D2321848E707EB8706E06
:1002100046E916FFED5133E0EB4BC6F5EA4B2647B6
:100220002CDB7824171DA3507DD1D9387E9A79AA6A
:1002300068268A6FAECD3B584EB9F6C90FB8E4EFC9
:10024000ACFB4001878582DCE86A7424FD6EDB7AB2
:100250001F8A4095C8D124D4BACB1C5AE34F7A8464
:10026000E4A117F0A392E8B04A3544E49FFE530599
:10027000144E08C1B3F7EF9FE35565B1FF0EDE568C
:10028000592693878777871272FFD3B09682E5C38A
:10029000755DED984F1F928F3A1399F5235C02C25A
:1002A000759024ACE615FE78F39EEBA65E22A57C45
:1002B000E8F6666AE461794EF348819E71A7488941
:1002C0004742D03191D85C381EA400213CBE15B6FF
:1002D0003D71D988B310F55A8BE3BA76460E706F2C
:1002E000701524000000000024C46F803DF88F5F6B
:1002F00000018103AB070000F1E13CCEB1C467FB14
:10030000020000000004595A29001A0015001C00C0
:100310000C001300140008001700180012002A0037
:100320002B00160009000B000E003300040007002C
:100330000A000D000F00280035621D0006000500B0
:100340001000370038001B00190011003600E500CE
:10035000E000E2002C412C41E700AE00E300000089
:100360000251E600E400A80029001F00210023003C
:10037000250027001E0020002200240026002A005D
:1003800001000100010052002D00340001000100B5
:10039000010052002E002800010001000100500061
:1003A0004F00380001000100010051002E00010043
:1003B00001000100010001000100AE000100000089
:1003C000010001000100A8000100C85C010001005B
:1003D00052000100C75C01000100000001000100A3
:1003E0000100C35C0100000051000100C25CC45C5C
:1003F000010050004F0001000100CA5C0100010033
:1004000001005200C95C010001000100010052001E
:100410000100010001000100510001000100000085
:10042000010050004F00010000AF00AE09025B0068
:10043000030100A0FA0904000001030101000921E1
:100440001101000122400007058103080001090491
:100450000100020300000009211101000122220015
:10046000070582032000010705030320000109049A
:1004700002000103000000092111010001223200E5
:100480000705840320000112010002000000082972
:100490001753530100010203011C03760069006138
:1004A000006C003A006600360034006300320062DF
:1004B000003300630000000A036C00690074006CE4
:1004C00000000012035300540048004C004D00206F
:1004D000006B00620000000403090400000000003B
:1004E000000000000000000000000000000000000C
:1004F0000000000000000000000000000000007E7E
:100500000F00D4FFFFFFC7000000780000000000CC
:100510000000002A2B28000000000000000000005E
:1005200000000000000029000000002C1E342021E3
:100530002224342627252E362D3738271E1F20212A
:1005400022232425263333362E37381F0405060789
:1005500008090A0B0C0D0E0F1011121314151617A3
:1005600018191A1B1C1D2F3130232D3504050607C1
:1005700008090A0B0C0D0E0F101112131415161783
:1005800018191A1B1C1D2F3130354C07087F08071E
:10059000003E5B4F5B3E003E6B4F6B3E001C3E7C63
:1005A0003E1C00183C7E3C18001C577D571C001C4C
:1005B0005E7F5E1C0000183C180000FFE7C3E7FFE9
:1005C00000001824180000FFE7DBE7FF0030483A7E
:1005D000060E00262979292600407F0505070040E0
:1005E0007F05253F005A3CE73C5A007F3E1C1C0813
:1005F00000081C1C3E7F0014227F2214005F5F0055
:100600005F5F0006097F017F00006689956A0060D0
:10061000606060600094A2FFA2940008047E040859
:100620000010207E20100008082A1C0800081C2A40
:100630000808001E10101010000C1E0C1E0C0030BC
:10064000383E383000060E3E0E0600000000000066
:100650000000005F000000000700070000147F1486
:100660007F1400242A7F2A120023130864620036B4
:100670004956205000000807030000001C224100DA
:10068000000041221C00002A1C7F1C2A0008083E92
:100690000808000080703000000808080808000002
:1006A00000606000002010080402003E5149453EF1
:1006B0000000427F400000724949494600214149FB
:1006C0004D33001814127F10002745454539003C72
:1006D0004A49493100412111090700364949493643
:1006E00000464949291E0000001400000000403463
:1006F0000000000008142241001414141414000017
:1007000041221408000201590906003E415D594E7C
:10071000007C1211127C007F49494936003E41415C
:100720004122007F4141413E007F49494941007FCC
:1007300009090901003E41415173007F0808087F03
:100740000000417F4100002040413F01007F08142C
:100750002241007F40404040007F021C027F007F1A
:100760000408107F003E4141413E007F090909060F
:10077000003E4151215E007F091929460026494962
:1007800049320003017F0103003F4040403F001F0A
:100790002040201F003F4038403F0063140814638E
:1007A000000304780403006159494D4300007F4170
:1007B000414100020408102000004141417F000433
:1007C00002010204004040404040000003070800CE
:1007D000002054547840007F284444380038444472
:1007E000442800384444287F0038545454180000EA
:1007F000087E09020018A4A49C78007F08040478ED
:100800000000447D4000002040403D00007F102853
:1008100044000000417F4000007C04780478007CA4
:100820000804047800384444443800FC1824241890
:100830000018242418FC007C0804040800485454C0
:1008400054240004043F4424003C4040207C001C0D
:100850002040201C003C4030403C004428102844EC
:10086000004C9090907C004464544C440000083646
:10087000410000000077000000004136080000023F
:1008800001020402003C2623263C00000000000078
:1008900000404040F0F8F8FF38FFF8F83FF8F8FF64
:1008A00038FFF8F8F040404000000000000080C031
:1008B000C0C0800000C0C08000000080C0C000C078
:1008C000C0000080C0C00000000000C0C0C0C0C0A8
:1008D00000C0C00000000000000000000000000098
:1008E0000000000000000000000000000000000008
:1008F00000000000000000000000000000000000F8
:1009000000000000000000000000C0F0F8FC3E1EE7
:1009100006010000007F4141417F007F4141417F4E
:10092000000080C0E07E5B4F5BFEC00000C000DCCA
:10093000D7DEDEDED7DC00C00000000000000000D3
:1009400000000000000000000000000000000000A7
:1009500000494949FFFFFFFFE0DFBFBF00BFBFDF26
:10096000E0FFFFFFFF49494900000000001F3F6012
:1009700060E0BF1F007F7F071E381E077F7F007F5C
:100980007F0E1F3B716000000000007F7F0C0C0C8D
:10099000007E7E007F7E0303007F7E03037E7E0356
:1009A000037F7E000F3E703C063C703E0F00327BA2
:1009B00049493F7E007F7E0303001E3F69696F2621
:1009C00000000000000000000000030F1F3F3C7803
:1009D00070600000007F4141417F007F4141417FC5
:1009E00000307B7F7830202030787F3B0003000F81
:1009F0007F0F0F0F7F0F00030000000000000000BA
:100A000000000000000000000000000000000000E6
:100A100000010101070F0F7F0F7F0F0F7E0F0F7F68
:100A20000F7F0F0F07010101000000000000000010
:100A300000000101000000000000000000000000B4
:100A400000000000000000000000000000000000A6
:100A50000000000000000000000000000000000096
:100A60000000000000000000000000000000000086
:100A70000000000000000000000000000000000076
:100A80000000000000000000000000000000000066
:100A90000000000000000000000000000000000056
:100AA0000000000000000000000000000000000046
:100AB0000000000000000000000000000000000036
:100AC00000000000000000000000000011241FBE14
:100AD000CFEFDAE0DEBFCDBF11E0A0E0B1E0E8E1AA
:100AE000F4E602C005900D92AA38B107D9F727E0C5
:100AF000AAE8B1E001C01D92AD32B207E1F70E9451
:100B0000AD260C94E6310C940000E8EDF0E0808115
:100B10008E7F80831092E2001092DA001092E10042
:100B2000A0EEB0E08C9181608C9380818F77808380
:100B300019BCA7EDB0E08C918E7F8C9380818F7E65
:100B400080831092070508952091E4003091E5001C
:100B500095E6A9012091EC00822F817020FF06C04C
:100B60008091E80080FF06C080E008952091E800B1
:100B700022FD1AC080911D05882389F0853089F0F7
:100B80008091EB0085FD0FC02091E4003091E500DD
:100B900042175307F9F29150E1F684E0089582E09C
:100BA000089583E0089581E00895EF92FF920F93F6
:100BB0001F93CF937C018B010E94A405C82F811144
:100BC00017C08091E80085FD0BC08091E8008E770A
:100BD0008093E8000E94A405882399F3C82F08C0D9
:100BE000F70181917F018093F1000150110949F7CC
:100BF0008C2FCF911F910F91FF90EF900895CF937D
:100C0000FC0180911D05843001F5C091E900CF7091
:100C10002091EC00922F917020FD90E8C92B82E08A
:100C20008093E9008091E80080FF0CC050E040E034
:100C300060E270E0CF010E94D5058091E8008E77D8
:100C40008093E800CF70C093E900CF910895809120
:100C5000150587FF13C08091E80082FF06C08091D0
:100C6000E8008B778093E80004C080911D05811116
:100C7000F2CF089580911D058823D9F38091E80073
:100C800080FFF8CF8091E8008E77ECCF982F90937B
:100C9000E900242F762F50E0891731F07091EC0095
:100CA0002091ED005091F00021FD07C09F5F97302B
:100CB00071F78093E90081E008953091EB003E7F69
:100CC0003093EB003091ED003D7F3093ED0030919B
:100CD000EB0031603093EB007093EC002093ED005B
:100CE0005093F0002091EE0027FDE0CF80E00895C2
:100CF000B0E0A0E0EEE7F6E00C94B230C8EDD0E052
:100D000088818F7E8883E7EDF0E080818160808339
:100D100084E082BF81E08093070588818E7F88838D
:100D200002EE10E0F80110821092DA0081EEC82E77
:100D3000D12CF601108288818F7788838881806822
:100D4000888388818F7D888319BC10921D0510923D
:100D50001405109213051092120590EEE92EF12C55
:100D6000F70180818B7F808388818160888342E066
:100D700060E080E00E944606F60180818E7F8083DD
:100D8000F801808181608083808188608083F701A1
:100D900080818E7F8083888180618883CDB7DEB734
:100DA000E8E00C94CE30FC0180911B0590911C056D
:100DB00086179707A0F06115710529F49091E80056
:100DC0009E779093E80090E06115710551F49111C0
:100DD00008C08091E80082FF34C080E00895BC0123
:100DE000F2CF80911D058823C1F18530C1F180913A
:100DF000E80083FD30C08091E80082FDEACF809159
:100E0000E80080FFE1CF8091F3002091F200382FBD
:100E10006115710519F02830310558F091E028303E
:100E2000310509F090E02091E8002E772093E8004A
:100E3000CBCF81918093F100615071092F5F3F4FBB
:100E4000E7CF80911D05882341F0853041F08091E6
:100E5000E80083FFBECF81E0089582E0089583E03B
:100E600008950895089580910905089587E797E703
:100E7000909301088093000888E19AE00FB6F894F7
:100E8000A895809360000FBE90936000FFCF2FB7AE
:100E9000F894609100057091010580910205909190
:100EA00003052FBF08959C01FC0132969FEF80E05F
:100EB0004191461751F09F3F19F4411101C0982FFD
:100EC0008F5F8630A9F79F3F09F40895290F311DE0
:100ED00097FD3A95F901628308952091FD043091C0
:100EE000FE042817390771F09093FE048093FD04E7
:100EF000E091FB04F091FC04309721F00084F1852F
:100F0000E02D099508952091F9043091FA042817ED
:100F1000390771F09093FA048093F904E091FB048F
:100F2000F091FC04309721F00680F781E02D0995BF
:100F30000895E091FB04F091FC04309729F00190B2
:100F4000F081E02D0995089580E00895CF93DF9317
:100F5000EC014091EE045091EF046091F004709127
:100F6000F1042FB7F8948091000590910105A091AC
:100F70000205B09103052FBF841B950BA60BB70B81
:100F8000843F9140A105B10518F58091EE04909140
:100F9000EF04A091F004B091F1048093EA049093DF
:100FA000EB04A093EC04B093ED0484EF91E0A0E097
:100FB000B0E08093E6049093E704A093E804B09334
:100FC000E904D093F604C093F504DF91CF9108951E
:100FD0000E9447076093EA047093EB048093EC044B
:100FE0009093ED0482E390E0A0E0B0E0E2CFFC015A
:100FF0008481862351F492819923B9F069238085F5
:1010000083FF05C081E061110FC080E00895892F42
:101010008F7092959F70982B862F8F7062956F704E
:10102000682B81E09613F1CF089581E0FDCFDC01BC
:101030006091E2048091E304962F891301C0089522
:10104000292F30E0F901EE0FFF1FE652FB4F4081E0
:1010500051814A175B07A1F487E08A9FA0018B9F0B
:10106000500D11244E555B4F81E0FA018483961395
:10107000E6CF2F5F3F4F237033272093E20408957C
:101080002F5F3F4F922F9370D8CF10923E04109253
:101090003D04E2EAF4E08581811102C014821682E7
:1010A000379684E0EA3DF807B1F7089530912205BC
:1010B0008317A0F590E0262F269526952695239F49
:1010C000800D911D1124811522E092073CF5FC0151
:1010D000EB5DFA4F5081677021E030E001C0220FD4
:1010E0006A95EAF74423D9F0252B2517B9F0208318
:1010F00025E0969587952A95E1F721E030E002C03A
:10110000220F331F8A95E2F78091230590912405E1
:10111000822B932B9093240580932305089520958B
:101120002523E3CF80E00895F894E82FE295EF704F
:10113000F0E031A1282F2F7081E090E001C0880FEE
:101140002A95EAF7982F9095932391A392A1892B42
:1011500082A3789408959091D00292FF06C0282F20
:1011600028712830F9F4877F846093FF06C0282F08
:1011700028712831F1F4877E84612091D10220FF0B
:1011800006C0382F38713830D9F4877F816021FF4D
:1011900006C0282F28712831D1F4877E816194FD03
:1011A000877E0895282F24712430F9F68B7F88607C
:1011B000DCCF282F2471243101F78B7E8861DDCFAD
:1011C000382F3171313019F78E7F8860E0CF282FAA
:1011D0002171213121F78E7E8861E1CFCF93DF939A
:1011E000EC0182389105B1F108F040C081339105DE
:1011F00009F49DC048F58932910509F48DC08A979C
:1012000009F49CC0C11522E5D20708F0BDC0C11584
:1012100031E5D30708F025C1C83ED10508F0A3C0C9
:10122000C13ED10588F5C83AD10508F08EC0C53A4F
:10123000D10508F0F6C0C130D10531F1209721F178
:10124000C430D10508F545C08533910509F45FC068
:10125000C997C1F68091D002837009F037C180919F
:10126000D10283FF11C0C9E2D0E00EC0833E9105D8
:1012700099F170F4803E910501F1823E910511F6DD
:101280008091D00282FD21C0CE01DF91CF910895DF
:10129000863E910561F1873E910571F1843E91058D
:1012A00009F0B0CF8091D10281FFEECF8091D002C2
:1012B000C7EED0E084FD0DC0E7CF8091D00280FD65
:1012C00033C09091D10290FFDFCFC3EED0E084FF16
:1012D000DBCFD0E0C0E0D8CF8091D00282FDF3C058
:1012E0009091D10290FDF2C084FFCECFF2CF8091D9
:1012F000D00283FDDDCFC8CF8091D00283FDE9C04D
:101300009091D10291FFF0CFC4EED0E0BDCF80919B
:10131000D00285FFB9CFA7CF8091D00285FDDCC078
:101320008091D10283FFB0CFC9E3D0E0ADCF8091EF
:10133000D00286FFA9CFCAE2D0E0A6CF8091D0022A
:1013400086FFA2CFC1E3D0E09FCFCF3BD10508F607
:10135000C85AD0E0CC0FDD1FC95DDE4F0990D8819F
:10136000C02DD46491CFC11540E5D40708F064C006
:10137000C11580E4D80708F05CC0CE019A958115AC
:101380009F4108F481CFA5CFC11536E5D30718F5E5
:10139000C11545E5D40708F07DC0C11584E5D8071F
:1013A00008F073C09C2F969596959E012370332765
:1013B000C115D34508F45AC0C1E0D0E002C0CC0F3B
:1013C000DD1F2A95E2F730E2939FC0011124C82B5C
:1013D000D92BDA6859CFC1158AE5D80778F4C11539
:1013E00029E5D20708F061C0C11538E5D30708F434
:1013F00070CFDC2FCC27C06FD06A46CFCE0190567D
:101400008115904208F065CF8D2F8F710E94AB0837
:1014100090E0982F882788279F719C012C2BE90149
:1014200042C0C55AD0E0CC5DDE4FC881D0E0D06468
:101430002BCFDF70D06A28CF2C2F269526952370CE
:1014400080E2289F900111248C2F8370C1E0D0E0AE
:1014500002C0CC0FDD1F8A95E2F7C22BD32BDD68CB
:1014600013CFDC2FCC27C16FD06A0ECFC1E0D0E004
:1014700002C0CC0FDD1F2A95E2F720E2929FC00147
:101480001124C82BD92BDC68FFCEDC2FCC27C46FEE
:10149000D06AFACE8C2F0E94AB08C82FD0E0DC2F88
:1014A000CC27CC27DF71D062EFCE8C2F8F700E94BB
:1014B000AB0834E0D695C7953A95E1F7CF709C2FED
:1014C000EC01D069E1CEC2EED0E0DECEC0EED0E0DD
:1014D000DBCEC6EED0E0D8CEC5E3D0E0D5CE80914D
:1014E000C302882331F01092C3021092C2021092FC
:1014F000C102089580959091C00298239093C002F4
:1015000008951092B7021092B6021092B502089593
:10151000EEE8F1E09191891303C0DF0111971C926D
:1015200091E0E439F907B1F708958091B402909100
:101530007302981301C008958F5F8770FACF292F27
:10154000983078F5863068F590E036E0239F800D7E
:10155000911D1124682F677023E0969587952A9531
:10156000E1F7FC01EE0FFF1FE80FF91FE75AFD4FEF
:1015700050E040E080E0219130E0062E02C0369538
:1015800027950A94E2F721703327042E01C0220F19
:101590000A94EAF7822B4F5F5F4F4330510559F7AA
:1015A000089580E00895292F983098F5863088F5C1
:1015B00090E036E0239F800D911D1124282F277085
:1015C00041E001C0440F2A95EAF723E096958795FC
:1015D0002A95E1F7FC01EE0FFF1FE80FF91FE75A0C
:1015E000FD4F30E020E070E05191DF011197CB0119
:1015F000022E02C0969587950A94E2F78170819534
:101600008527842385278C932F5F3F4F2330310517
:1016100059F708959C013A9521153F4150F5FC0179
:10162000EE27F170BC0166277270AC01442754703C
:101630009C012227387094FF0EC080E1EF2B09F443
:1016400080E0672B09F08062452B09F08064232B32
:1016500089F08068089581E0EF2B09F480E0672B22
:1016600009F08260452B09F08460232B19F0886013
:10167000089580E00895EF92FF920F931F93CF9308
:10168000DF93809153029091260391111FC09FE137
:10169000F92EF81AC1E705E010E031E7E32EDE2D60
:1016A000DC1B07C06F2D6D1B41E08C2F0E9456087C
:1016B000DF5FD0171106B4F301501109C150CE36C7
:1016C00071F7CDB7DEB7E6E00C94D03090915202BE
:1016D000282F291B1216DCF4DFE1D91BD53088F343
:1016E000C0E021E7F22E1AE1191B0F2D0C1B6D2F04
:1016F0006C1B40E0802F0E945608612F6C0F41E068
:10170000802F0E945608CF5FC33079F7DACF2223AB
:10171000C1F2DFE1D81BD530A0F2C0E091E7F92E8D
:101720001AE1181B0F2D0C1B612F6C0F40E0802F4E
:101730000E9456086D2F6C1B41E0802F0E945608B6
:10174000CF5FC33079F7BDCFB0E0A0E0EAEAFBE0BD
:101750000C94B130D82F80912603882309F442C01D
:1017600084E9E82E81E0F82E04EF11E0CCE09FE15F
:10177000C92EF801D1808081BD2CB81AB7FE06C0F1
:101780006C2D681B40E08C2F0E945608F701818168
:1017900081937F01F801D1928F01BB2031F06C2D34
:1017A0006D1941E08C2F0E945608CF5FCB3609F7A8
:1017B0008091F301C09153028D1710F5CF3100F5E0
:1017C000CF5FC0935302D093F30180915302909165
:1017D0005202891781F06FE1681B41E08BE60E949D
:1017E000560809C0CCE041E06FE18C2F0E945608FA
:1017F000CF5FCC36C1F7CDB7DEB7E9E00C94CD3082
:10180000D81710F0D111DFCFCC23E9F26FE16C1BB8
:1018100040E08BE60E945608C150D3CFEF92FF9272
:101820000F931F93CF93DF938C0180912603811137
:1018300021C0C1E041E06EE08C2F0E94560841E0DB
:101840006FE18C2F0E945608CF5FC93099F7CFE027
:1018500041E06C2F80E00E94560841E06C2F89E047
:101860000E945608CF5FCF3199F7CDB7DEB7E6E0DB
:101870000C94D030F801D181C081C250DD0FCC0F63
:101880008FE0F82EFD0EEE24E394EC0E42816F2DD6
:101890008E2D0E945608D05FF80142816D2F8E2D4B
:1018A0000E945608CE5FF80142816F2D8C2F0E9456
:1018B0005608F80142816D2F8C2F0E945608D5CF13
:1018C000CF93DF93C0912B07D0912C078A30C1F4BE
:1018D00020912205CE0185529540622F70E00E9432
:1018E0009430281B822F66E00E94DF30C82FC15041
:1018F00018F4DF91CF91089580E20E94600CF7CF39
:101900008D30E9F4C552D54020912205622F70E058
:10191000CE010E949430281B822F9E01280F311D7A
:101920002115324018F080E0D0E0C0E0C80FD11D92
:10193000CB5DDA4FD0932C07C0932B07DACF96E01C
:10194000FE01A5E2B7E001900D929A95E1F7803E85
:1019500008F458C086E0FE0111928A95E9F7C0911B
:101960002B07D0912C0746E050E0BE0185E297E0BE
:101970000E9478319E0125523540892B41F1C901E1
:1019800045E0969587954A95E1F741E050E0BA0128
:1019900002C0660F771F8A95E2F7CB01609123059D
:1019A00070912405862B972BB9016B5F7F4FE5E083
:1019B00076956795EA95E1F702C0440F551F6A9541
:1019C000E2F7842B952B90932405809323052A5FBF
:1019D0003F4F40912205642F70E0C9010E9494306E
:1019E000481B463010F4240F311D211572E03707D3
:1019F00010F030E020E02B5D3A4F30932C0720931D
:101A00002B0777CFF6E08F9FB001112465577A4FEF
:101A100046E050E0CE010E946F31A1CF0F931F939B
:101A2000CF93DF93EC01FC0101900020E9F78F01D7
:101A300001501109C017D10728F0DF91CF911F91F4
:101A40000F91089589910E94600CF4CF8093040552
:101A5000709306056093050580911D058430F9F4A7
:101A60008093E9008FEF9091E800815095FD06C0CA
:101A700095ED9A95F1F700008111F5CF8091E8007E
:101A800085FF0DC050E040E063E070E084E095E049
:101A90000E94D5058091E8008E778093E800089534
:101AA000BC0184E00E94260D0895BC0183E00E94E1
:101AB000260D0895CF93DF93EC0181E08093E90038
:101AC0008FEF9091E800815095FD06C095ED9A95B5
:101AD000F1F700008111F5CF8091E80085FF14C077
:101AE00050E040E068E070E0CE010E94D5058091B2
:101AF000E8008E778093E80088E0FE01AAE0B5E078
:101B000001900D928A95E1F7DF91CF910895B0E0B1
:101B1000A0E0EDE8FDE00C94B2306C017B0164E6DE
:101B200070E088E70E94AE2FEC0197FD12C010E034
:101B300000E0F601E00FF11F849164E670E00E947E
:101B40001A30EC01892B29F40F5F1F4F0E151F056A
:101B500081F70E949030CE01CDB7DEB7E8E00C945B
:101B6000CE3080913B0490913C04911103C091E0F0
:101B700089270895882369F062E070E08AE294E0A2
:101B80000E94870D892B19F080913B0408951092D3
:101B90003B0480913B04EBCFCF93C0913B048091F9
:101BA0003C048823D1F00E944707605A75418F4F4B
:101BB0009F4F609337047093380480933904909357
:101BC0003A04C11108C062E070E088E294E00E942B
:101BD000870D892B29F0C0913B048C2FCF9108955C
:101BE00081E080933B04F7CFCF93DF93C7E5D2E04A
:101BF00060E0CE010E94AA312196C11584E0D80789
:101C0000B9F7DF91CF9108951F93CF93DF93122FF0
:101C10008430E0F46830D0F44630C0F4C42FD0E013
:101C2000CC0FDD1F9CE0699FC00DD11D112490E6F3
:101C3000899FC00DD11D1124632FCE0187960E946C
:101C4000AA31612FCE0188960E94AA31DF91CF91EF
:101C50001F910895CF93C82F6FEF811160EA83E23F
:101C600090E00E94AA316FEFC11169E184E290E037
:101C70000E94AA316FEFC11162E285E290E00E94FA
:101C8000AA31CF910895A4E1B0E0E9E4FEE00C941C
:101C9000AD30A0903104B090320481E090E0909398
:101CA00032048093310498E0892E93E0992EF12C30
:101CB000E12C6401712C1CC083E0E816F104D9F01A
:101CC000F801EE0FFF1FEC0DFD1D25913491402F03
:101CD000672D8E2D0E94040E0F5F1F4F06301105D9
:101CE00059F79CE0C90ED11C7394E8E07E1649F0C8
:101CF00010E000E0E1CF21E030E0402F672D83E0ED
:101D0000E9CFFFEFEF1AFF0A80E6880E911C94E0FE
:101D1000E916F10471F6FE0131967F018AE0119215
:101D20008A95E9F707EB11E04AE050E0B801C701F6
:101D30000E94CE31065F1F4F0730F2E01F07A1F768
:101D40007E018BE0E80EF11C8AE0F70111928A9582
:101D5000E9F78FEF9FEF988B8F8787E08C8B4AE0B6
:101D600050E0B801C7010E94CE31065F1F4F073512
:101D7000F2E01F07A1F7B0923204A09231046496FA
:101D8000EDE00C94C93080E00E942A0E60E086E20B
:101D900090E00E94AA310E94430E0E94F40D81E05F
:101DA0000E942A0E08950F931F93CF93DF938430E0
:101DB00030F5683020F5463010F5C42FD0E0CC0F58
:101DC000DD1F2CE0629FC00DD11D112430E6839FE2
:101DD000C00DD11D1124CE0187960E949C31082F81
:101DE00010E0102F0027CE0188960E949C319801A8
:101DF000282BC901DF91CF911F910F91089590E099
:101E000080E0F8CF462F2091350430913604232B03
:101E100099F4703F39F4603F79F4809133049091E4
:101E200034040895843040F4783030F4663020F47F
:101E3000672F0E94D30E089590E080E00895CF921E
:101E4000DF92FF920F931F93CF93DF936C0100916A
:101E50001E058091C402082BC7E0D0E010E0FC2EE4
:101E6000C8010C2E02C0959587950A94E2F780FD73
:101E70000CC02197A0F7F12C8F2DDF91CF911F91EE
:101E80000F91FF90DF90CF900895B6018C2F0E94A4
:101E9000020F0E94EE08019761F3EECFCF93DF931C
:101EA000EC010E941F0FBE010E94020F0E94EE086B
:101EB000DF91CF910895FC0183819481892B29F0D2
:101EC0008081918189238F3FF1F480E008950E9401
:101ED000EE0892959F70963089F058F4925F9F704B
:101EE000923098F7803F19F030F4883E70F781E027
:101EF00008959A5FF4CF843F41F7F9CF883EB8F355
:101F0000813F19F7F4CF86819781009701F780818F
:101F100091810E944E0FDDCFA5E0B0E0E2E9FFE045
:101F20000C94B7309C01FC01868197810097E1F405
:101F300085E0DE01119601900D928A95E1F7F90195
:101F4000228189819A81222399F0662389F00E9457
:101F50001F0F182F682F89819A810E94D30A6981E7
:101F60007A81812F0E94020F2596E3E00C94D330F2
:101F70000E949F0A182FF3CF83E290E00E949C31C9
:101F8000803A89F484E290E00E949C31893159F4CE
:101F900085E290E00E949C3191E0823209F090E06D
:101FA000892F8170089580E0FCCFCF9384E090E08A
:101FB0000E949C31C82F82E290E00E949C31982FB1
:101FC0008C2FCF910895AAE0B0E0E9EEFFE00C94E9
:101FD000AE3009EB13E087EAC82E83E0D82E97E0F5
:101FE000E92E92E0F92E27E0922E36EAA32E33E076
:101FF000B32E88248394D6010D931D936D014AE07E
:1020000050E0B701CE0101960E948C31F80138965C
:10201000DF01892D1D928A95E9F789819A81D8017E
:1020200011969C938E938F8112968C9312978D812B
:1020300013968C931397888514968C93149789859F
:1020400015968C9315978B819C8117969C938E93F4
:10205000169718961C9218978A8587FF3CC01E9683
:102060001C921E921D9780FF03C0D80118968C9277
:1020700081FF04C0F80190859260908782FF07C0BD
:10208000D80118969C911897946018969C9383FF9A
:1020900004C0F80190859860908784FF07C0D8013C
:1020A00018969C911897906118969C9385FF04C090
:1020B000F801808580628087015F1F4FFAE0EF0E94
:1020C000F11C87E5E81682E0F80609F094CF2A961D
:1020D000ECE00C94CA30F801B686A586C4CFAAE01D
:1020E000B0E0E5E7F0E10C94B230E6E5F3E080E53E
:1020F000DF011D928A95E9F7E2EAF4E088E3DF0167
:102100001D928A95E9F786E5C82E83E0D82E7F01D7
:1021100007EB11E0F701D182C0824AE050E0B8013C
:10212000CE0101960E948C3188E0FE013196D601E5
:1021300001900D928A95E1F789859A85D7011396CA
:102140009C938E931297BAE0CB0ED11CE7E0EE0E73
:10215000F11C065F1F4F0730F2E01F07D9F62A96E1
:10216000E8E00C94CE3068EE7EEF90E080E00E94D4
:10217000C83160E082E090E00E94AA3160E083E034
:1021800090E00E94AA311092C40260E084E090E0E6
:102190000E94AA3164E082E290E00E94AA3160E0ED
:1021A00085E090E00E94AA3160E086E090E00E9425
:1021B000AA316FEF87E090E00E94AA3140E050E042
:1021C000BA0188E090E00E94BC3160E08DE090E0D0
:1021D0000E94AA3140E050E0BA0188E190E00E94FC
:1021E000BC3160E087E190E00E94AA3140E050E01D
:1021F000BA018CE190E00E94BC3170E060E080E2C6
:1022000090E00E94C83140E050E0BA0188E190E0DF
:102210000E94BC3180E00E942A0E0E94C30E40E062
:1022200050E0BA018FE090E00E94BC3140E050E005
:10223000BA0183E190E00E94BC3108951F920F9291
:102240000FB60F9211242F933F934F935F936F9389
:102250007F938F939F93AF93BF93EF93FF9380915F
:10226000E10082FF09C08091E20082FF05C08091F9
:10227000E1008B7F8093E1008091DA0080FF24C031
:102280008091D80080FF20C08091DA008E7F8093FB
:10229000DA008091D90080FF9DC080E189BD82E194
:1022A00089BD09B400FEFDCF81E080931D058091BA
:1022B0000705811109C00E9485050E94780680915A
:1022C000E20084608093E2008091E10080FF17C00B
:1022D0008091E20080FF13C08091E2008E7F8093A6
:1022E000E2008091E20080618093E2008091D8005A
:1022F00080628093D80019BC85E080931D05809191
:10230000E10084FF2BC08091E20084FF27C080E1C0
:1023100089BD82E189BD89B5982F917080FFFBCF7F
:102320008091D8008F7D8093D8008091E1008F7ECE
:102330008093E1008091E2008F7E8093E2008091A3
:10234000E20081608093E20080911405882309F403
:1023500047C084E080931D0580911D058091E100B8
:1023600083FF27C08091E20083FF23C08091E100BA
:10237000877F8093E10082E080931D051092140511
:102380008091E1008E7F8093E1008091E2008E7F5A
:102390008093E2008091E20080618093E20042E05D
:1023A00060E080E00E9446068091F00088608093A3
:1023B000F000FF91EF91BF91AF919F918F917F912D
:1023C0006F915F914F913F912F910F900FBE0F90A2
:1023D0001F90189519BC10921D051092070574CF17
:1023E0008091E30087FD93E090931D05B5CF78942D
:1023F0001F921FB61F9211248F939F93AF93BF9389
:102400008091000590910105A0910205B09103050E
:102410000196A11DB11D8093000590930105A09325
:102420000205B0930305BF91AF919F918F911F90CB
:102430001FBE1F9018959C014FB7F894809100051E
:1024400090910105A0910205B09103054FBF821B39
:10245000930B08952FB7F894809100059091010592
:10246000A0910205B09103052FBF08954F925F928E
:102470007F928F929F92AF92BF92CF92DF92EF9214
:10248000FF920F931F93CF93DF93CDB7DEB72897BB
:102490000FB6F894DEBF0FBECDBF8E010F5F1F4F8A
:1024A00088E0F80111928A95E9F795E5E92E91E027
:1024B000F92E2BE5C22E21E0D22E77247394AA2484
:1024C000A394B12C43E6842E41E0942EF701819130
:1024D0007F018F3F09F447C0F894E82FE295EF7031
:1024E000F0E021A18F70A50102C0440F551F8A950D
:1024F000E2F7CA01922F982B91A392A1809589238C
:1025000082A3789400C08BE5482E81E0582ED80134
:10251000672D6095F20151912F014D919D01215040
:1025200031095F3F09F45DC0852F82958F7090E07F
:10253000FC0180A190E05F7002C0959587955A9547
:10254000E2F780FD4EC04729F901408384149504C9
:1025500009F7F701319780818F3F11F00E949408AD
:10256000F0EAFA95F1F7770CCE14DF0409F0AECF5C
:1025700048E050E0B80188EC92E00E947831892B65
:1025800091F188E0F801A8ECB2E001900D928A95F3
:10259000E1F781E08093C7020E942A129093C6025D
:1025A0008093C5028091C5029091C6020E941B12C1
:1025B0000597E8F048E050E068EC72E08EE493E0C4
:1025C0000E947831892B51F188E0E8ECF2E0AEE42A
:1025D000B3E001900D928A95E1F781E01092C70275
:1025E00007C04623B1CF8091C7028111DBCF80E0C5
:1025F00028960FB6F894DEBF0FBECDBFDF91CF9106
:102600001F910F91FF90EF90DF90CF90BF90AF9010
:102610009F908F907F905F904F90089580E0DECFE5
:102620008091C00290913F04892B80938C0180910E
:10263000C302882319F10E942A122091C10230910D
:10264000C202821B930B8838934110F00E946F0ADC
:1026500080918C019091C302892B80938C0120E0A2
:102660008EE891E0FC013191CF0131112F5FF1E053
:1026700084399F07B9F721110E946F0A8091F204F3
:10268000809590918C0189239091F304892B8093FC
:102690008C0148E050E068EB72E08CE891E00E9429
:1026A0007831892BA9F088E0ECE8F1E0A8EBB2E002
:1026B00001900D928A95E1F7E091FB04F091FC0402
:1026C000309731F00280F381E02D8CE891E009959C
:1026D000089590E080E00E94830790E080E00E94EF
:1026E0006D0710923F040E941013089580931E05F9
:1026F0000E946913089580911E05982F9670963058
:1027000021F488600E9476130895877FFBCF21E033
:1027100030E001C0220F8A95EAF7209580911E05CE
:1027200082230E94761308959091B70280958923A1
:102730008093B702282F277091F4282F082E000CC1
:10274000330B9217130659F09091D10292FF07C0F4
:102750008595859585950E9487130E94810A089525
:10276000CF93C091D102C2FB992790F9981791F0AD
:1027700080FBC2F9C093D1026091D00284E090E066
:102780000E94AA316C2F82E290E00E94AA3182E07E
:102790000E949413CF91089521E030E001C0220FF0
:1027A0008A95EAF780911E05822B0E947613089580
:1027B0008093C4020E94691308951092C002EEE84B
:1027C000F1E086E0DF011D928A95E9F70E94691326
:1027D0000895AAE2B0E0EFEEF3E10C94B73085E1A2
:1027E00095E02091F100DC012D93CD01B5E08D3114
:1027F0009B07B9F780911605833009F472C0B8F4CD
:10280000813009F449C0823009F4B3C08091E800F6
:1028100083FF96C280911505909116059A3008F0B5
:102820008FC2E92FF0E0E851FE4C0C9440318A3021
:1028300009F48EC08B3009F471C0893039F780916A
:102840001505813219F78091190590911A050097A5
:1028500011F00297D9F68091E800877F8093E80015
:102860008091E80082FF38C09091F3008091F200DF
:10287000029731F48091F100813011F0863021F41B
:102880008091F100809309058091E8008B77809317
:10289000E8000E942706BACF80911505813A09F019
:1028A000B5CF8091E800877F8093E800809119057B
:1028B00090911A05892B61F468E08AE095E070E058
:1028C0000E94D3068091E8008B778093E8009ECF2A
:1028D00060E090E080E0F3CF80911D058111C0CFD2
:1028E00095CF80911505813A09F090CF8091190517
:1028F00090911A05892B09F089CF8091E800877F94
:102900008093E8008091E80080FFFCCF8091170160
:102910008093F1008091E8008E77B9CF8091150502
:10292000813209F073CF8091190590911A05892B96
:1029300009F06CCF8091E800877F8093E8000E94C7
:10294000270680911705809317010E94DD135ECF43
:1029500080911505813209F059CF8091E800877F79
:102960008093E8000E94270680911805809308054F
:102970004DCF80911505813A09F048CF8091E8004C
:10298000877F8093E8008091E80080FFFCCF8091F2
:102990000805BECF803899F0823809F0D1C1809106
:1029A00019058F70873008F0CBC18093E9008091C2
:1029B000EB0085FB882780F91092E90006C0809122
:1029C000120590911305911182609091E800977F14
:1029D0009093E8008093F1001092F1008091E8005C
:1029E0008E77AAC1882309F498C1823009F0A8C162
:1029F0008091170581119BC1809119058F702FEF70
:102A0000280F263008F09CC18093E9002091EB004C
:102A100020FF8DC1933031F48091EB008062809370
:102A2000EB0085C19091EB0090619093EB0021E069
:102A300030E001C0220F8A95EAF72093EA00109255
:102A4000EA008091EB008860EACF811179C1109192
:102A500017051F778091E3008078812B8093E30036
:102A60008091E800877F8093E8000E94270680918C
:102A7000E80080FFFCCF8091E30080688093E30052
:102A800082E0111183E080931D055AC18058823085
:102A900008F056C120911705309118052C3DE3E050
:102AA0003E07A1F583E08A838AE289834FB7F894D1
:102AB000DE01139620E03EE051E2E32FF0E0509378
:102AC0005700E49120FF03C0E295EF703F5FEF7085
:102AD0008E2F90E0EA30C0F0C7968D939D932F5FC4
:102AE000243159F74FBF8091E800877F8093E80039
:102AF0006AE270E0CE0101960E94D3068091E80060
:102B00008B778093E8001CC1C096E7CF80911905B0
:102B100090911A05432F55274330510509F44AC0B7
:102B200078F54130510509F485C08BE590E0ECE281
:102B3000F4E04230510509F003C12091E800277FFD
:102B40002093E80020911B0530911C058217930704
:102B500008F49C0140E02115310509F070C04111D5
:102B60006EC08091E80082FDC9CF80911D05882349
:102B700029F2853019F28091E80083FFF2CFBECFB1
:102B80004132510509F447C04232510509F0D8C01D
:102B90008330910508F0D4C0FC01EE0FFF1FE2580E
:102BA000FE4F0190F081E02D85589E4FDC018C9105
:102BB00090E01DC0332721303105E9F021153105A2
:102BC00079F022303105F9F02330310509F0B8C031
:102BD000E9E9F4E0E4918E2F90E0E9E9F4E007C040
:102BE000E7EDF4E0E4918E2F90E0E7EDF4E000975C
:102BF00009F4A6C0A2CFE3ECF4E0E4918E2F90E0BC
:102C0000E3ECF4E0F4CFE7EBF4E0E4918E2F90E016
:102C1000E7EBF4E0ECCF8330910508F091C0880F2A
:102C2000991FFC01EC57FE4F0190F081E02D89E0E7
:102C300090E083CF82E190E0E7E8F4E07ECF8091FE
:102C40001D05882309F45ACF853009F457CF8091A8
:102C5000E80083FD53CF8091E80082FD82CF809110
:102C6000E80080FF78CF9091F3008091F200211569
:102C7000310519F08830910550F041E0089709F0CE
:102C800040E08091E8008E778093E80064CF449123
:102C90004093F1003196215031090196E8CF8038F8
:102CA00009F04EC08091E800877F8093E800809112
:102CB00014058093F10092CE811142C01091170546
:102CC0001230F0F58091E800877F8093E800109340
:102CD00014050E942706112311F084E005C080919D
:102CE000E30087FDFACF81E080931D0542E061ECAF
:102CF00081E00E94460642E261EC84E00E944606C2
:102D000042E261EC82E00E94460642E260EC83E02F
:102D10000E94460680911D0513C0809117058130E1
:102D200079F481E0933009F080E0809313051092EC
:102D3000E9008091E800877F8093E8000E942706E1
:102D40008091E80083FF0AC08091E800877F80932C
:102D5000E8008091EB0080628093EB00AA96E3E0AC
:102D60000C94D3301F920F920FB60F9211242F9311
:102D70003F934F935F936F937F938F939F93AF9303
:102D8000BF93CF93DF93EF93FF93D091E900DF7070
:102D90008091EC00C82FC17080FDC0E81092E9005E
:102DA0008091F000877F8093F00078940E94E9136F
:102DB0001092E9008091F00088608093F000CD2BA4
:102DC000CF70C093E900FF91EF91DF91CF91BF9158
:102DD000AF919F918F917F916F915F914F913F91B3
:102DE0002F910F900FBE0F901F9018950E94DD132A
:102DF0002FEF84E39CE0215080409040E1F700C039
:102E0000000088E19AE00FB6F894A89580936000DE
:102E10000FBE90936000FFCF882341F08095909182
:102E20003F04892380933F040E9410130895882350
:102E300039F090913F04982B90933F040E94101317
:102E40000895882321F00E947A0A0E9410130895A1
:102E5000882339F09091C002982B9093C0020E9471
:102E600010130895882339F19CEF980F913A28F4B4
:102E70000E94880A0E941013089590E2980F9830DB
:102E800050F4877091E001C0990F8A95EAF7892F75
:102E90000E947A0AEFCF9BE5980F933028F490E0D8
:102EA00080E00E9483070895885A873120F490E0DB
:102EB00080E00E946D070895FF920F931F93CF93B8
:102EC000DF93F82E0091F7041091F8040115110515
:102ED00009F449C01092F6041092F5041092F2041D
:102EE0001092F304D8011696CD91DC919E013A958B
:102EF00021153F4108F4D07ED1E0C11101C0D0E0DE
:102F0000D8011996ED91FC911A97309731F01B96E4
:102F10006D917C9180E00995D823DD2339F08CEF09
:102F20008C0F813A30F58C2F0E94880AFF2099F08F
:102F3000E091F704F091F804808584FD0CC0809145
:102F4000F404882341F0808191819C012150310952
:102F5000203B3D45A0F00E9410131092F8041092FF
:102F6000F7041092F404C801CDB7DEB7E5E00C9485
:102F7000D1300E9410138C2F0E943217D7CF0E949D
:102F8000A607E9CFCF93C82F8823A9F08CEF8C0F29
:102F9000813A98F4EEE8F1E084E991E02191C217DA
:102FA000B9F18E179F07D1F76C2F8CE891E00E9442
:102FB00053070E941013CF91089580E28C0F883040
:102FC00068F4C77021E030E001C0220FCA95EAF72B
:102FD0008091C002822B8093C002EBCFEBE5EC0F17
:102FE000E33040F4F0E0EC5DFE4F808190E00E9421
:102FF0008307E1CFC85AC731F0F6EC2FF0E0EE0FAF
:10300000FF1FE95DFE4F808191810E946D07D3CF44
:103010008C2F0E94880A0E941013C6CF1F93CF9353
:10302000DF93182FEB010E94C217209739F4812FEC
:103030000E943217DF91CF911F9108958FE99FE091
:103040000197F1F700C000002197EFCF70E060E03A
:10305000893311F460E570E00E940E1808950F9313
:103060001F93CF93DF93C62FD42F022FFC018281B1
:103070008823A9F0609321050E942A1290932005CD
:1030800080931F05C77081E001C0880FCA95EAF7D9
:103090000E942817DF91CF911F910F910895809181
:1030A0002105681332C080911F05909120050E9470
:1030B0001B12883C910548F510E21D0FCD17B9F0A1
:1030C00080E28C0F883040F4C77081E001C0880F27
:1030D000CA95EAF70E942117183048F481E09D2F25
:1030E000977001C0880F9A95EAF70E942817802FE1
:1030F0000E942618183070F6D77081E001C0880F42
:10310000DA95EAF70E942117C5CFC77081E001C0A8
:10311000880FCA95EAF7F6CFB0E0A0E0E2E9F8E15F
:103120000C94B030EC018AE0A82E2881222309F407
:103130008FC02130C9F599818A81913021F422967E
:103140000E94261805C0923029F422960E94C217C8
:103150002196EBCF933021F422960E943217F8CFBC
:10316000943011F02196F4CF229630E020E0AE01A9
:103170004F5F5F4F8053990B8A30910550F021507B
:10318000310930F38FE99FE00197F1F700C00000AB
:10319000F6CFA29EB001A39E700D11249C01260FB4
:1031A000371F8981EA01E3CFE22FF0E0E55FFA4FB4
:1031B000B490822F86958695869590E0FC01E55027
:1031C000FB4FE4902770F12C022E02C0F594E79497
:1031D0000A94E2F731E0E322FF24FC01E551FB4FC2
:1031E000C490D12C022E02C0D594C7940A94E2F761
:1031F00031E0C322DD24FC01E552FB4F049110E0D5
:1032000002C0159507952A95E2F701701127E11480
:10321000F10419F081EE0E94C217C114D10419F013
:1032200086EE0E94C2178B2D0E942618C114D1046D
:1032300019F086EE0E943217E114F10419F081EEC4
:103240000E9432170115110509F482CF8CE278CF64
:10325000CDB7DEB7EAE00C94CC30CF93DF93EC012E
:103260000E940A0B9E01205E31092830310510F0C2
:10327000209741F40E9428178C2F0E94C217DF91DB
:10328000CF9108950E941717F7CF9091D10292FF26
:1032900010C098E0899F90011124622B6093B702BF
:1032A0000E94CC130E942A129093B6028093B5021A
:1032B00008950E94CC130895A9E1B0E0E2E6F9E197
:1032C0000C94A830498B5A8B6B8B7C8B8D8B611146
:1032D00010923F041D861E861F86188A85E0FE0117
:1032E0007196DE01199601900D928A95E1F7809111
:1032F000D10282FF1CC00E942A122091B502309197
:10330000B602821B930B8838934120F08091B7025C
:1033100082FFEBC10E942A122091C1023091C202A9
:10332000821B930B8838934110F00E946F0A8C85A2
:103330009D85892B31F089859A8589238F3F09F0F6
:10334000C0C129853A854B855C856D857E858F85D5
:1033500098890E941D25C3C048EFC4164CE5D406C9
:1033600029F4882379F00E94E325EBCF69EFC61694
:103370006CE5D60639F4882329F080911601811175
:10338000F2CFAFC102EA14E0E12CB12CA12C8824C9
:103390008394912C2EEF522E44244394F8014081C3
:1033A000518166246A94762C20E0822F90E0FC0103
:1033B000EE0FFF1FE40FF51F60817181611571052C
:1033C00031F0C616D70609F43C012F5FEECFF12C81
:1033D000FFEF6F167F0609F444C0F8014481F090B6
:1033E00016018F2D411180E0F82FF170FF2EF801AA
:1033F000258086819B85992309F4F2C0FF2009F47A
:10340000EFC0211014C0A401062C01C0440F0A947F
:10341000EAF7842B868380913D0490913E04C29705
:1034200030F462E370E070933E0460933D04C401A5
:1034300002C0880F991F2A95E2F70197F8012681AB
:103440002817190671F48091E4049091E50400971F
:1034500009F449C00E941B12C39708F444C0F80144
:103460004482EF28FFEFAF1ABF0A095F1F4F28E021
:10347000A216B10409F092CF8B85882309F40CC100
:10348000EE2009F409C10E942A129093E50480936A
:10349000E40480914104883010F591E0980F9093F6
:1034A000410498E0FE013996DE01119601900D92DB
:1034B0009A95E1F73CE0839FC00111248E5B9B4FFE
:1034C00028E0FE013196DC0101900D922A95E1F78A
:1034D0002FEF3FEFFC0131872087D386C2866996A4
:1034E000E2E10C94C4308091E2045091E304982FFF
:1034F000F0E0E0E0851314C09093E2040E171F077C
:1035000009F4AFCF90E0FC01EE0FFF1FE652FB4F36
:10351000B182A0820196837099278093E304A1CFA2
:10352000282E312CF101EE0FFF1FE652FB4F2081B8
:103530003181F7E0F29FD001F39FB00D1124AE5519
:10354000BB4F2D913C911197398F288F40E020E09F
:1035500030E0E32FF0E0EE0FFF1F688D798DE60F6E
:10356000F71F6080718061147104E1F0F80101902F
:10357000F081E02DFF8BEE8B20E005C0661677060C
:1035800009F44F2D2F5FE22FF0E0EE0FFF1F6E8941
:103590007F89E60FF71F608171816115710571F7F1
:1035A0003F5FD7CF4423C9F0F801231708F0FD018E
:1035B0004482E017F10721F49093E204F42E51CFF6
:1035C000981305C0EA17FB0711F49F5F93709101F0
:1035D0002F5F3F4F822F83708DCFF0E0E0E0F7CF79
:1035E00090E0211020C0B40102C0660F771F2A9519
:1035F000E2F79B01215031098217930731F44423EC
:1036000009F448C0C5010E941708C401062C01C076
:10361000880F0A94EAF7982F9095F80186818923FC
:103620008683F22C1ECF9C01062C02C0359527956F
:103630000A94E2F7A90141705527BC016150710954
:1036400086239723892B11F5452B01F1F8018281FF
:103650009381892BC1F01B821C821D821E8259829C
:103660005A820E942A128160582F9D838C83F80110
:10367000828193818F83988729813A814B816D81E3
:103680007E810E941D25F8011582BFCFF22FF170B7
:103690002F2EBBCF2F2CB9CF9091E2048091E30461
:1036A000981731F00E94F225EE2009F44ACE17CF88
:1036B0000E948D251092E5041092E4040E944508B2
:1036C000F3CF61E0CE0109960E948C0F6C018B85CF
:1036D000F7EFCF16FCE5DF0609F03ECE882309F4AC
:1036E00051CE81E0809316012CCE82E00E9494138B
:1036F00011CEA5E0B0E0EFE7FBE10C94B6308C0111
:103700009093340480933304011580E21807C0F4C9
:10371000802F0E943217C8010E940A0B9801205E78
:1037200031092830310518F00115110531F40E94D6
:1037300021172596E4E00C94D2300E940C17F9CFA3
:1037400080EF89838A831B820E942A128160782FEE
:103750009D838C8349815A816B818D810E945C1984
:10376000E8CFA5E0B0E0E7EBFBE10C94B830909334
:10377000340480933304811520E2920730F40E94D0
:103780002D192596E2E00C94D43080EF89838A834A
:1037900081E08B830E942A128160782F9D838C8325
:1037A00049815A816B818D810E945C19EACFA7E023
:1037B000B0E0EDEDFBE10C94A8307C01DC01139648
:1037C0008D919C911497892B39F08C9111969C9135
:1037D00089238F3F09F05FC62796E2E10C94C4303D
:1037E0000115E4E01E0709F468C0C8010E949C317D
:1037F000811101C0DA940F5F1F4F78C68BEF8C0DDB
:10380000833050F5C8010396DB825C01DD2009F4AA
:10381000A4C6580144E0A40EB11C0E949C318C83C4
:10382000882309F49AC60B811C8101305FEF1507CC
:1038300010F0102F002786E0C81651F097E0C91647
:1038400019F0C8010E94B11BC8010E94791B85C6EE
:10385000C8010E94B11B81C6A4E0CA127EC65801ED
:10386000B4E0AB0EB11CC80103960E949C31DD2070
:1038700021F1882311F18150990B989E9001999E16
:10388000300D1124ED2DE150FF0BCF01820F931F5E
:10389000019708F462C6AFE9BFE01197F1F700C0E5
:1038A0000000F6CFCE0101960E948C18560155C635
:1038B00081E00E94CC130E947B138091B702877035
:1038C00009F48ACFD70112968C91882309F484CF0A
:1038D0008091D10282FF80CF82E00E9494137CCF3E
:1038E00081E00E948713E7CF222309F4D2C582E04A
:1038F000E0CF80915402082E000C990B01966FE1E5
:1039000070E00E94EB305C0180935402892B11F12E
:103910008FE1D82EDA1841E06D2D8CE70E94560811
:1039200041E06D2D8DE70E94560841E06D2D8EE738
:103930000E94560806C540E06D2D8C2D0E94560849
:10394000D394BFE1DB12F7CFC394EFE7CE1601F3B8
:10395000D12CF1CF5CE7C52EFBCF0F35FDE51F075E
:1039600099F000362DE5120749F00E353DE51307B5
:1039700009F0ECC480910001882331F0109200011D
:1039800080E00E945C1799CF81E08093000195CF81
:1039900080954822FEC4552009F447C4109356026E
:1039A000009355020E9447076093EE047093EF0462
:1039B0008093F0049093F1041092F6041092F504B1
:1039C000E8C482FB882780F927C5552001F1817062
:1039D00023C50E943217F5C50497813A910558F422
:1039E0006A2D8CE891E00E945307552009F404C425
:1039F0000E94101362CF0E9410138FE39CE901977D
:103A0000F1F700C000008A2D0E94C217EECF9D8101
:103A10009F5F9D83D6C4FC0120813181021713076B
:103A200009F0E3C35110E3C31092F40480E00E9454
:103A30005C17E2C3053F4CE51407C9F0A0F027E28C
:103A400045EE66EE063F8CE5180709F018C4C7017D
:103A50000E942F1832CF27E245EE65EEF8CF26E21E
:103A600041EE60EEF4CF27E245EE64EEF0CF26E2C1
:103A700041EE62EEECCF28E241E0EFCF053AFDE502
:103A80001F0709F413C4D0F401363DE5130709F408
:103A90000DC406314CE5140709F0C7C58091C0027A
:103AA0008A7A91E009F490E09093570269E28111DB
:103AB00065E38CE891E00E9453079ACFC8018D5AC4
:103AC0009D45039730F7F2C38091D00280620730A2
:103AD0003CE51307B9F18091D002806108304CE5D4
:103AE000140780F18091D00280642CC00D305CE519
:103AF000150709F4C0C090F48091D0028E7F0B307E
:103B00009CE51907F9F08091D0028C600C30ACE58F
:103B10001A07C0F08091D0028D7F14C00F30BCE531
:103B20001B0709F4B8C008F4AAC00031FCE51F0760
:103B300009F4B5C08091D0028F7B01312CE51207CA
:103B400009F0DEC38093D002DBC30F3F3CE51307CF
:103B500009F4B3C0A8F50A3F5CE5150709F479C07C
:103B6000C0F404319CE5190709F4B5C008F4A1C0FC
:103B70000531BCE51B0709F0C3C38091D00282FB6D
:103B8000992790F921E0922790FB82F990FB83F925
:103B9000D9CF0C3FECE51E0709F475C008F45DC0F1
:103BA0000D3F2CE5120709F472C08091D1028360A9
:103BB0000E3F3CE5130709F0A3C38093D102A0C3D5
:103BC00001364DE5140709F491C090F401308DE5FC
:103BD000180709F489C008F474C060E00230ADE54C
:103BE0001A0709F08DC38EE090E00E94AA3188C3C5
:103BF0000D3ABDE51B07E9F060F49091D002892FE2
:103C00008E7F90FF8160053AFDE51F0709F49ACF8A
:103C100077C30E3A2DE5120751F10F3A3DE5130730
:103C200009F06EC39091D102892F877F93FF88603E
:103C3000C4CF8091D1028860C0CF8091D0028260D1
:103C400081CF8091D00284607DCF8091D002886046
:103C500079CF8091D1028160B0CF8091D102826012
:103C6000ACCF0E94DD138091D00280686BCF809131
:103C7000D102877FA2CF8091D0028B7F63CF8091CA
:103C8000D002877F5FCF8091D1028E7F96CF8091C7
:103C9000D1028D7F92CF8091D0028F7E53CF8091C1
:103CA000D0028F7D4FCF0E94DD138091D0028F779D
:103CB00049CF8091D002837F45CF8091D1028C7F04
:103CC0007CCF8091D102982F909591708E7F892B17
:103CD00090FB81F972CF0E94DD139091D002892F61
:103CE00097FB87F980582ECF61E07DCF9091D0026D
:103CF000892F8F7E94FF806125CF85E33AC40E948F
:103D0000DD135FEF84E39CE0515080409040E1F789
:103D100000C000000E9436078091D10282FB8827F4
:103D200080F991E089270E94B013F701868197817D
:103D30000097C1F10E94EE088C01F701C280B580A6
:103D4000B2943FE0B3228091B7028770C1F0AC2CEF
:103D5000CC20B1F0812F807F803421F080E2800F71
:103D6000883068F08091D10282FF09C082E00E9411
:103D700094138091B7028770AA24A3948111A12C77
:103D8000912E92942FE09222FBE0F91508F488C05E
:103D9000E92DF0E0EE50FE4C0C94403181E0C3CFB1
:103DA00080E0C1CF828100811181882369F0C80140
:103DB0000E941F0FD82E682FC8010E94D30AB80195
:103DC0008D2D0E94020FB6CFC8010E949F0AD82EE7
:103DD000F6CF212F2F70D22E107F19F0D29490EFB2
:103DE000D922CC20B9F0DD2069F080E2800F883044
:103DF00010F0011109C08091C002D82AD092C002EF
:103E00000E941013802F4AC080913F04D82AD0927C
:103E10003F04F6CF802F0E943217DD2009F440C006
:103E200080E2800F883010F0011104C08D2D0E94B7
:103E30007A0A06C0D09480913F04D822D0923F04E1
:103E40000E9410132DC0312F3F70D32E107F1032DF
:103E500019F0D29480EFD822002381F0013009F4C8
:103E600095C0CC2009F49EC0BB2009F46BC0F701BB
:103E7000858180FFC7CF8F70858364C08091D10218
:103E800082FD39C0CC2089F1DD2039F08091C0025B
:103E9000D82AD092C0020E94101380E00E94C2175C
:103EA000292D2850330B2430310510F40E94990736
:103EB000AA20B1F08091B70280FD12C0D7011296FE
:103EC0001C928595859585950E94CC13C7010E940B
:103ED000D71B8091B7028595859585950E9487139C
:103EE00060E0C7010E948C0F77CC80E00E943217FF
:103EF000DD20B1F29BCFCC2049F1B11004C08091FC
:103F0000C3028D2920C041E0B41210C082FFC8CF87
:103F10008091C302D82AD81619F20E942A129093CF
:103F2000C2028093C102D092C302BACF55E0B5124B
:103F3000E6CF0E946F0A909158028D2D892B89132C
:103F4000809358028D2D0E942817AACFB11003C06C
:103F50000E946F0A12C081E0B81213C08091C002A3
:103F60008D2109F49DCF0E946F0A909158028D2DEA
:103F7000809589238913809358028D2D0E942117E3
:103F80008FCF95E0B91609F48BCFE2CFCC2029F082
:103F9000A5E0AB1508F484CFD5CFB4E0BB1508F489
:103FA0007FCFEBCFBB2049F3093349F4FFEF27EE76
:103FB00033E0F15020403040E1F700C00000802F96
:103FC0000E9432176DCF812F86958695837061F0A0
:103FD000813009F065CFC8019370C11002C090E034
:103FE00080E00E946D075CCFC8019370C11002C0D1
:103FF00090E080E00E94830753CF812F837089F582
:10400000C1104ECF402F429546954770440F440F44
:10401000802F8F70042E01C0880F0A94EAF7202F9A
:10402000207104FF07C02FE030E001C0220F4A9545
:10403000EAF72095169516951370123069F050F432
:104040003091C402113029F0822B83230E94D813AF
:1040500027CF832B822BFACF282B8091C402822773
:10406000F5CF8695CC2011F0812F8170882309F43B
:1040700017CF402F429546954770440F440F802F2D
:104080008F70042E01C0880F0A94EAF7202F207148
:1040900004FF07C02FE030E001C0220F4A95EAF785
:1040A0002095169516951370123069F050F43091E2
:1040B0001E05113029F0822B83230E947613F0CE47
:1040C000832B822BFACF282B80911E058227F5CFD8
:1040D0001F70CC2029F0812F0E94CC13802F33CF6A
:1040E000802F0E942117812F0E948713D9CE023F73
:1040F00089F160F4003FB9F0013F81F0CC2009F470
:1041000064C0B1107FCE812F8F7128C0033F49F169
:10411000043FA1F78091D10282FD2FC0812F8F71C2
:10412000CC2011F31BC0CC2081F044E04B1508F4E7
:10413000B7CE1F7181E090E0012E01C0880F0A9474
:10414000EAF790911E058927B8CF55E05B1508F472
:10415000A7CEEFCF812F8F71C110C6CF0E94CC1395
:104160009FCE80E0CC2009F4A8CF1F7181E0012E02
:1041700001C0880F0A94EAF7A0CFCC20C9F0809143
:10418000B7028770843041F40E94810A812F8F71B9
:104190000E948713A12C84CE84E08B15D8F31F7165
:1041A000812F0E94CC1363E0812F0E944519F2CF2A
:1041B00094E09B1530F40E94810A64E0812F8F7196
:1041C000F4CF81E00E949413E5CFBB2059F009336E
:1041D00009F0F5CEAFEFB7EEE3E0A150B040E0401C
:1041E000E1F7EBCE812F8F717FCF552029F0DC01D5
:1041F00018968C9185FF1ACC033FBCE51B0709F488
:104200002ECC08F017CC083DFCE51F0709F423CCA1
:10421000093D2CE5120709F42ECC073D3CE51307B8
:1042200071F526E241EE61EE12CC8091550290913B
:1042300056020817190781F410925602109255027F
:104240001092EE041092EF041092F0041092F10418
:104250001092F6041092F5048091F7049091F804FE
:10426000009751F2A8E08A16910408F0D4CB642D8F
:104270000E94F7078111C0CF81E00E945C17D7012F
:1042800012968C91882309F46AC11092210503309B
:10429000BDE51B0708F0F2CB0A3FECE51E0730F442
:1042A000C80182509C45449708F0F3CB0E94D50F7B
:1042B0009093D1028093D00202314CE5140709F4A7
:1042C000F2CC08F042CC09308CE5180709F4C9CCCF
:1042D00008F00CCC0530ACE51A0709F4B6CC08F0B0
:1042E000F3CB0330ECE51E0709F4A7CC08F0A9CC0A
:1042F0008091D002816002302CE5120709F422CCB3
:104300006091D0021091D10284E090E00E94AA3125
:10431000612F82E290E00E94AA310E94DD13CDCA93
:104320000031FFE51F0709F4C3CA01313FE5130758
:1043300009F4DACAC7010E940E0CF70182818111CB
:10434000D8CAD70112965C90511007CB809100011A
:10435000882309F451CF480140EE841A9108409017
:10436000C30280915802482A8091C002482A58E02E
:104370008516910408F00FCB98012770332781E050
:1043800090E001C0880F2A95EAF7552009F400CB88
:10439000482AD7018D919C910E949F0A21E030E02C
:1043A000190102C0220C331C8A95E2F7E091F70450
:1043B000F091F804FF83EE836090550270905602EE
:1043C0001D822D81E22FF0E0EE0FFF1FE955FC4F1B
:1043D000C080D180C114D10409F43ECF411005C082
:1043E000D60112968C91811112CBF601838190E057
:1043F00082219321892B09F40ACB8085982F97700D
:1044000009F487E0F8E08F16910408F0DECA552021
:1044100009F4D7CA86958170882309F4F8CAD601B1
:10442000AD90BC900A151B0519F4552009F4EFCA8C
:10443000EE81FF81CE16DF0609F4E9CAD6011D968A
:10444000ED91FC91309721F08081882309F4DFCA37
:10445000642DC6010E94F707882309F4D8CA0A15FB
:104460001B0509F089C00115110509F48AC0511016
:104470008AC0A614B70409F0CACA512C84C00031FE
:104480004FE5140709F42CCA01315FE5150709F05F
:1044900051CF82E026CA61E0C7010E948C0F8C01D7
:1044A000D70112962C91222351F3E091E302F0E020
:1044B000EE0FFF1FE851FD4F808191818F3FBFE7D5
:1044C0009B0719F0019691838083C80182519F4513
:1044D000409708F025CF8FEF93E00E949C31811127
:1044E000ECC97EEED72ED00E07E512E0D11078C9C8
:1044F00019821A821B821C8299249A946801FFEF08
:10450000CF1ADF0AC8010E949C3189831A8288234E
:1045100009F4D3C9813009F0C5C9580122E0A20EBF
:10452000B11CC6010E949C31C82E8A83882309F4DD
:10453000C4C9C5010E949C31D82E8FEF8C0D8330E9
:1045400008F05CC9580133E0A30EB11CDB82DD200A
:1045500021F0CE0101960E948C188501CFCF063143
:10456000BCE51B0709F0E1CB809157028111C5CB57
:1045700089E20E94880A3CCAA114B10409F079CFEB
:10458000512CB12CA12C80E00E945C17D092F80431
:10459000C092F70481E08093F404F6018581809352
:1045A000F20451100EC0AB2861F0F60180819181B8
:1045B0009C0124503109213A310508F00ACA0E94B1
:1045C000880AD6011696AD90BC90C5019A958115C2
:1045D0009F4110F4E0EEBE2277247394C501019749
:1045E000803B9D4508F0712CD6011996ED91FC9108
:1045F0001A97309731F01B966D917C9181E0099567
:104600007822772079F0F601868197810E940A0B43
:104610008093F304C501F8E08F16910408F0DCC91B
:104620000E94A6070E941013E0C90A35EDE51E0797
:1046300009F4B4CB68F401152CE5120709F45FCB3B
:104640000E3D1C4509F071CB0E94B3100E94F61676
:104650000C354DE5140709F45FCB08F4A1CB073AFC
:104660001D45A1F362CBCF93DF9380917002807FD1
:1046700009F049C080916D02882309F444C08091FB
:10468000B402D091730260916B0270916C02A091A0
:104690006E02B0916F02C62FC723D817A1F190E028
:1046A000109711F0CF3F19F401968770F6CF9C0157
:1046B00043E0220F331F4A95E1F7F901EC58FD4F13
:1046C00041814713F1CF40814613EECF4281411122
:1046D000EBCF438154814A1B5B0B483C510520F7CB
:1046E000809170028F70806180937002F901E758A9
:1046F000FD4F80818F70806180838BE692E00E9405
:10470000D71B0E94950ADF91CF910895A5E1B0E0F3
:10471000ECE8F3E20C94B0308C0185E0F801DE01A6
:10472000519601900D928A95E1F7F801E2806BE6CF
:10473000A62E62E0B62E60916E0270916F02611536
:10474000710509F45CC190916B0240916C02892F54
:1047500084238F3F09F453C120813181C380D480E9
:10476000F0906D02F601E61BF70BFF2009F411C172
:1047700080917002582F507FE83CF10508F0C4C0CA
:10478000511175C0FE2C43131EC092131CC06091C2
:10479000710270917202F8014681578164177507A2
:1047A00091F4E11010C08F70806180937002C50198
:1047B0000E94D71B80917002F80185838F2D65962A
:1047C000EAE00C94CC30C114D10429F0822F832369
:1047D0008F3F09F02FC180E0F82FF170DF2E80FFAE
:1047E0003CC08091B40240917302841315C0298BA0
:1047F0003A8B89899A890E944E0F292F22952F7012
:104800002230F8F0243020F59F70F9F0F8019581FE
:10481000907FD9F4D12C1FC090E0FC0153E0EE0F43
:10482000FF1F5A95E1F7EC58FD4F5181351306C033
:104830005081251303C05281E5120FC00196877085
:10484000D4CF9F7011F0882329F3805E883010F355
:10485000C8010E94D71BFD2CB1CFEE2009F4AECFCA
:1048600080917002816080937002F12CA7CF431376
:104870001BC0921319C04091710250917202F8014D
:10488000268137814217530779F4E1100DC08583E3
:10489000C8010E94D71B88E0F801ABE6B2E00190A6
:1048A0000D928A95E1F78ACFC8010E945B0F882399
:1048B00039F1EE2029F1809170028032A0F0209130
:1048C0006B0230916C023A8729871B86DD86CC8685
:1048D0008E878091710290917202988B8F87CE01A2
:1048E00009960E94D71B88E0F801ABE6B2E0019080
:1048F0000D928A95E1F70E943323FF24F3945ECF53
:10490000C8010E94D71BF9CF51110AC08BE692E073
:104910000E94D71B88E0F50111928A95E9F7A5CF8F
:10492000431318C0921316C0409171025091720245
:10493000F801268137814217530761F4E1100AC05C
:104940008583C8010E94D71B88E0F50111928A95E2
:10495000E9F734CFC8010E945B0F882389F2EE206B
:1049600079F280917002803208F4BDCF20916B0201
:1049700030916C023A8329831B82DD82CC828E8344
:10498000809171029091720298878F83CE01019677
:10499000A8CFE83CF105C0F6FE2CEE2009F4B0CF1C
:1049A00043131FC092131DC02091710230917202F7
:1049B000F801868197812817390799F49091700240
:1049C00090FD69CF907F09F466CF80917002858356
:1049D000903F09F45DCF982F907F905F8F70892B67
:1049E00056CFC8010E945B0F81117DCF809170026C
:1049F000816080937002C8010E94D71BDFCEEE2039
:104A000009F47ECFC8010E945B0FF82E882309F4B9
:104A100077CF88E0F801ABE6B2E001900D928A957D
:104A2000E1F780916B0290916C020E944E0F0E9400
:104A30003323C4CE81E08E25CFCEA0E1B0E0E3E207
:104A4000F5E20C94B83029873A874B875C876D87ED
:104A50007E878F87988BCE0109960E9486238111CD
:104A600012C088E0FE013996DE01119601900D9288
:104A70008A95E1F78C859D85892B29F089859A8512
:104A800089238F3F81F58091B4029091730289133D
:104A900017C06096E2E00C94D43093E0AA0FBB1FDD
:104AA0009A95E1F7AC58BD4F98E0FE013196019020
:104AB0000D929A95E1F7809373020E94950AE3CFD5
:104AC000B8E08B9FC00111248C589D4F0E94862313
:104AD0008823F9F28091B40290E0019687709927BB
:104AE0008093B402D0CFA0917302B0E0CD010196C3
:104AF000877099272091B4022817190671F60E9431
:104B0000DD13109273021092B40288E0EBE6F2E03B
:104B1000DF011D928A95E9F7B6CF0F931F93CF93CC
:104B2000DF9380914104E0914004CCE081111AC0F0
:104B3000DF91CF911F910F910895D1E0DE0FD093B7
:104B400040040E2F10E0EC9FF0011124EE5BFB4FB0
:104B500083819481892B29F08081918189238F3FE2
:104B600051F4ED2F80914104E81738F3109241047D
:104B700010924004DDCFC09FD001C19FB00D112421
:104B8000AE5BBB4F16968D919C911797892B29F49C
:104B900018968D919C91019651F42081318142812A
:104BA000538164817581868197810E941D25C09FF4
:104BB000F001C19FF00D1124EE5BFB4F14821382B4
:104BC00010923F04CECF1092E5041092E4041092AC
:104BD00016018091E3048093E2040E9445080E943C
:104BE0008D250895B0E0A0E0E8EFF5E20C94A9303F
:104BF000C091E20497E0892E01E010E02CE0322E13
:104C00003EEF932E442443948091E3048C1309C017
:104C10000E948D250E944508CDB7DEB7E1E10C94D6
:104C2000C530D0E0FE01EE0FFF1FE652FB4F808142
:104C30009181889ED001899EB00D1124AE55BB4F45
:104C400014962C911497211158C050904104E2E41D
:104C5000F4E030E020E0712C5D01251508F04BC038
:104C6000E284F384D501CD90DC906FEF7FEF612C6F
:104C7000462D50E0DA01AA0FBB1FAC0DBD1D0D90F3
:104C8000BC91A02D109731F0EA16FB0609F4BA0189
:104C90006394EECF6F3F7607A9F1D80102C0AA0F47
:104CA000BB1F6A95E2F77A2AB801062C02C0660F8C
:104CB000771F0A94E2F7AB014150510974161506AB
:104CC000F9F4329EF001339EF00D1124EE5BFB4FA0
:104CD000889ED001899EB00D1124AE55BB4F12960F
:104CE0002D913C91139737832683908291829187EF
:104CF000808715964C920E9417082196C37084CF26
:104D0000148213822F5F3F4F3C96A7CF1F921FB68E
:104D10001F9211248F939F93AF93BF938091FF04B1
:104D2000811113C08091000590910105A0910205A9
:104D3000B09103054196A11DB11D8093000590938C
:104D40000105A0930205B0930305BF91AF919F9118
:104D50008F911F901FBE1F901895CDB7DEB7E797B4
:104D60000FB6F894DEBF0FBECDBF85B7806885BF94
:104D700085B7806885BF84B7877F84BF0FB6F894F6
:104D8000A895809160008861809360001092600017
:104D90000FBE80E890E00FB6F89480936100909386
:104DA00061000FBE82E998E090938B0180938A01A5
:104DB0000E946F100E94E30F0E9485050E947806F2
:104DC0008091E20084608093E200789480911D05D8
:104DD0008823A1F01091E9001F709091EC00892FB9
:104DE000817090FD80E8182B1092E9008091E80016
:104DF00083FD0E94E9131F701093E90082E084BDD7
:104E000093E095BD9AEF97BD80936E000E94BC0F12
:104E1000811102C00E94C30E05E511E0ABE5EA2E48
:104E2000A1E0FA2ED8018D918D018F3F11F00E94E3
:104E30009408E016F106B1F70BE511E0F3E6EF2E6A
:104E4000F1E0FF2EF80181918F018F3F11F00E9458
:104E50009408E016F106B1F788E0EEE4F3E0DF0134
:104E6000282F1D922A95E9F7E8ECF2E0DF011D9268
:104E70008A95E9F790E080E00E94A431883E9E4F39
:104E800021F40E94BC0F811102C00E94B31082E085
:104E900090E00E949C318093D4020E94D50F9093A1
:104EA000D1028093D0020E943612EFE3FCE93197E1
:104EB000F1F700C000000E94361280914E0380FF7F
:104EC00008C06FEF7FEF90E080E00E94C8310E9441
:104ED000360783E090E00E949C310E94D813109224
:104EE000470380E8809322050E94A82F6DE070E0C0
:104EF00083E591E00E94870D892BE9F580914703B6
:104F000063E070E081FDABC080E591E00E94870D19
:104F1000892B89F56DE070E080E491E00E94870DB7
:104F2000892B49F50E944707605A75418F4F9F4F63
:104F300060933704709338048093390490933A0453
:104F4000E5E2F5E080E092E0DF019C011D92215056
:104F50003040E1F7F0932C07E0932B078FEF9FEFA2
:104F6000909324058093230581E080933C048093F3
:104F70003B041092480381E080931C0353985B9A92
:104F800052985A9A8FE891E00197F1F700C000001B
:104F900020911C034DE153E0FA018E2F841B8217F0
:104FA00008F460C081E091E09093FC048093FB04DE
:104FB0008EE493E0A8E0A80FADAB80911D05E0E47E
:104FC000FE2E00E112E1853009F48FC00E943612F6
:104FD00005ED12E07EE4E72E73E0F72E2DED32E0D2
:104FE000D701F80191918D912E173F0709F487C0E1
:104FF0009817C1F3D12CD701CD907D01F801919084
:105000008F019C1419F19C24B12CAA24A394892DFE
:105010008A21A1F0B8AAD9AA91E08C2D8A2109F49D
:1050200090E09AAB0E942A128160782F9CAB8BABE8
:1050300048A959A96AA98CA90E945C19B394AA0C21
:10504000F6E0BF12E4CFF8013197C082D39428E094
:10505000D212D1CF0E944707AA24A39471C08DE435
:1050600091E054CF89B183FB882780F94A9904C025
:1050700090E0892B819391CF92E0FBCF80911D0529
:10508000843029F10E94B10D1092FF04E8E1F0E0B4
:105090000FB6F894A895E09360000FBEF092600000
:1050A00083B7817F846083BF83B7816083BF789437
:1050B000889583B78E7F83BF0FB6F894A8958091AB
:1050C0006000886180936000109260000FBE809144
:1050D0001305882351F00E943612EEE4F3E081912B
:1050E000811118C72DA92E13FACF80911D05853087
:1050F00009F4C4CF0E94DD130E94990767CF98136B
:1051000079CF0E942A128C018091D2029091D30211
:1051100008171907A1F08FEF8BA78CA71DA60E9477
:105120002A128160782F9FA78EA74BA55CA56DA53D
:105130008FA50E945C191093D3020093D202A12C78
:105140008091F5049091F604892B09F43EC04091BA
:10515000EA045091EB046091EC047091ED042FB7D8
:10516000F8948091000590910105A0910205B091FD
:1051700003052FBF841B950BA60BB70B4091E604CC
:105180005091E7046091E8047091E9048417950751
:10519000A607B707D0F08091F5049091F6040E941D
:1051A0002D191092F6041092F5041092EA04109250
:1051B000EB041092EC041092ED041092E6041092AD
:1051C000E7041092E8041092E90480911601882304
:1051D00001F18091E4049091E5040097D1F00E94E0
:1051E0001B1220913D0430913E042817390788F4A2
:1051F0009091E2048091E304981709F40FC20E9491
:10520000F22510923E0410923D041092E504109293
:10521000E404C090E802D090E9020D2C000CEE08E6
:10522000FF0880910D0190E0E8EEF2E021E030E02F
:105230003296821793070CF0FAC18091E4029091A4
:10524000E502A091E602B091E7022FB7F8944090F2
:1052500000055090010560900205709003052FBF76
:10526000481A590A6A0A7B0A10910D0139EC431653
:1052700051046104710414F18091E30290E00196FD
:1052800069E170E00E94EB308093E302880F991F80
:10529000FC01E851FD4F11821082812F183108F076
:1052A00087E18F5F80930D010E9447076093E402BE
:1052B0007093E5028093E6029093E70282E0C816BD
:1052C000D104E104F1040CF4BFC1A0E6BAEEA701D9
:1052D00096010E944D316B017C0198EC199F900161
:1052E0001124032E000C440B550B240D351D461DB7
:1052F000571DA5E0B0E00E944D319B01AC01C701F4
:10530000B6010E94FF3029013A01A1EF4A1651046B
:10531000610471042CF050EF452E512C612C712C3E
:105320008091DF029091E002A091E102B091E2024F
:105330002FB7F894C0900005D0900105E0900205C9
:10534000F09003052FBFC81AD90AEA0AFB0AB5E68E
:10535000CB16D104E104F10484F00E944707609366
:10536000DF027093E0028093E1029093E202809169
:105370001E038093DE024092DD021091DE02A091B6
:10538000DD02A11BBB0BA70196010E94583124E648
:1053900030E040E050E00E942131120F10931E03D4
:1053A000912CB12C44E0E42EF12C80911C03981632
:1053B00008F44EC1B1100E94470780913C04882335
:1053C00009F4E0C085E295E090932C0780932B07C9
:1053D00000911E0380912603811130C00E94A40B0E
:1053E0000E943B0B90E080E00E940E0C10E09FE1D9
:1053F000C92E2FE0922E3AE7832EDC2CD11A812F72
:10540000692D0E94DF30B2E0EB2E911107C041E020
:105410006D2D85E70E94560883E0E82EF12C41E0CF
:105420006D2D882D8F190E945608F394FE10F7CF2A
:105430001D5F113211F781E08093260380E291E035
:105440000E940E0D8091220590E08B5D9A4F909303
:105450002C0780932B0780910E01081305C08091C3
:105460002303803309F44BC000930E0180E3809343
:105470002303C02ED12CF12CE12C10922203C70162
:10548000B6012AE030E040E050E00E94FF30605D6D
:10549000603331F0C114D104E104F10409F460E394
:1054A0006093210360E3FAE0CF16D104E104F10434
:1054B00090F0AAE04A2E512C612C712CC701B60144
:1054C000A30192010E94FF30CA01B901A301920118
:1054D0000E94FF30605D6093200324E6C216D10471
:1054E000E104F10408F407C1C701B60124E630E085
:1054F00040E050E00E94FF30205D20931F038FE1C9
:1055000093E00E940E0D80912403909125030E9448
:105510001B128D32914058F0802F0E94A40B0E94E4
:105520003B0B0E942A1290932503809324038091C1
:105530003C04882371F02091230530912405211526
:10554000310539F08091480361E070E0882309F467
:10555000D5C080913B048823A9F00E9447070091A1
:105560003704109138042091390430913A04601BBB
:10557000710B820B930B6F3F7F4F8F4F9F4710F440
:105580000E94B10DA11001C0B1100E94CC0D0E946B
:10559000990790914903891721F0809349030E944C
:1055A000470780911D05843009F007CD83E0809383
:1055B000E9008091E80082FF00CD8091E80090E052
:1055C00085FF06C00E94A405882309F462C191E00A
:1055D0008091E8008B778093E800992309F4EDCC63
:1055E000009135041091360489810115110509F4E3
:1055F0006DC18E3F09F0F1C18A81833020F0855062
:10560000833008F0EAC1EA81EE3008F0E6C1F0E04C
:10561000E250FE4CCE0101960C9440310E948D2543
:105620001092E5041092E4040E944508F2CD4081F6
:105630005181052E000C660B770BC40ED51EE61E9D
:10564000F71E2F5F3F4FF4CD412C512C320168CE15
:10565000C92CD12CE9B1E3FBEE27E0F94A9949C006
:1056600080E08E2BD601A35EBC4FEC919E2F9370F1
:105670008917E9F1EE0FEE0FE82BEC93EF70F0E0F5
:10568000ED59FE4F8601055E1C4F8081F801908127
:10569000890F808320E0843074F0F601E65EFC4FD1
:1056A00080818F5F8083911005C06AE070E08AEA94
:1056B0000E940E1821E0D8018C918D3F74F4F60100
:1056C000E65EFC4F808181508083911005C06AE0C6
:1056D00070E089EA0E940E1821E0F8018081082E0E
:1056E000000C990BB7010E94EB308083B22A93948F
:1056F0005CCE82E0B6CF20E300CF8F5F882E912C66
:105700002B01082E02C0440C551C0A94E2F7A90193
:1057100044215521452B89F39091470390FD44C0C6
:105720008295880F80768093110194013695279594
:105730003695279520931401815E80931201109273
:10574000150124E630E047E050E06FE071E088E7C3
:105750000E944830892B09F0FCCEE5E0880C991CAA
:10576000EA95E1F78091470380FD2CC0A4014B5DD1
:105770005A4F04E610E020E230E060E488E70E943F
:105780006930892B09F0E5CE0E94CC0DC2018095CD
:10579000909540902305509024054822592250921C
:1057A000240540922305D5CE880F880F880F80935B
:1057B000110110921401895F8093120183E080939C
:1057C0001501BFCFE7E2F3E080E2DF011D928A9589
:1057D000E9F7E7E7F1E0FFABEEAB63E7662E61E0E8
:1057E000762E7BE7C72E71E0D72E07E0AEA9BFA9C2
:1057F0004D91BFABAEABF30181913F01880D992D67
:10580000911D9C012B5D3A4F1901E42FF0E0E95DF9
:10581000FC4F30E020E0F02EF21A11E0022E01C021
:10582000110F0A94EAF7B10190E0DB018D91BD01FF
:1058300081234F2D491B4770E42E042E000C550B7D
:10584000B82F01C0BB0FEA94EAF7EB2E51954195B2
:1058500051094770552701C086954A95EAF7E82A0D
:105860008081E82AE0829F5F9830F9F62F5F3F4FF2
:1058700031962830310579F6EEA9FFA9CE16DF065C
:1058800009F0B4CF04E610E020E230E047E253E054
:1058900074CF00E210E09E012F5F3F4F79018091AD
:1058A000E80085FD0AC08091E8008B778093E800CE
:1058B0000E94A405882399F38ACE8091F100D70134
:1058C0008D937D010150110951F781CE8C3009F47F
:1058D000D0C058F5843009F4B3C058F4823009F4CC
:1058E0006BC008F09EC0813009F462C08FEF8983DD
:1058F00074C0863009F4BAC008F4ADC08B30B1F77B
:105900008091310490913204892B09F466C0CE0154
:1059100001960E94FF053FEF81EE94E031508040F8
:105920009040E1F700C00000D2CA803109F4D3C032
:1059300098F58E3009F4A4C008F49EC0809131041B
:1059400090913204892B09F448C0EC80F12C2DE1B0
:10595000E216F10408F041C0CA80DB80DC24CD24CB
:10596000DC248E010F5F1F4FE00EF11EC601895A25
:105970009D4F0E151F0589F139EAC31631E0D30694
:1059800028F4D80114966C910E94AA310F5F1F4F22
:10599000BFEFCB1ADB0AEACF823109F4A1C008F4C9
:1059A0009DC0833109F4C6C08E3F09F09FCF2BCE36
:1059B0001A8289E08B8311C08A81823009F4C0C2C7
:1059C000833081F0813009F091CF0E9447070E9417
:1059D00046316B837C838D839E83CE0101960E942A
:1059E000FF05EBCA8091310490913204892BA9F311
:1059F00080914E038B8380914F038C838091500361
:105A00008D83809151038E83809152038F83809187
:105A100053038887809154038987809155038A872F
:105A2000DCCF8A81823009F061CF6B817C818D81EE
:105A30009E810E94463186E290E00E94AA31CDCF3D
:105A40004C816B818A810E94D30E982789279827E1
:105A50009E838D83C2CF2D813E813227232732271B
:105A60004C816B818A810E94040EB7CF0E94430E45
:105A7000B4CF80E18A83B1CF81E08A8389EA9ACF6B
:105A8000EC80F12CBDE1EB16F10408F0A6CFCA8042
:105A9000DB80DC24CD24DC248E010F5F1F4FE00E61
:105AA000F11EC601895A9D4F0E151F0509F495CFA9
:105AB000E9EACE16E1E0DE0658F40E949C31D801F6
:105AC00014968C93FFEFCF1ADF0A0F5F1F4FE9CFB9
:105AD000F8011482F7CF0E94F40D7FCF84E0CACF83
