:100000000C94660D0C94830D0C94830D0C94830D4D
:100010000C94830D0C94830D0C94830D0C94830D20
:100020000C94830D0C94830D0C9424160C94AD1B2E
:100030000C948B260C94830D0C94830D0C94830DDF
:100040000C94830D0C94830D0C94830D0C94830DF0
:100050000C94830D0C94FD160C94830D0C94830D5D
:100060000C94830D0C94830D0C94830D0C94830DD0
:100070000C94830D0C94830D0C94830D0C94830DC0
:100080000C94830D0C94830D0C94830D0C94830DB0
:100090000C94830D0C94830D0C94830D0C94830DA0
:1000A0000C94830D0C94830D0C94830D0501098031
:1000B000A101850319012AB700150126B700950192
:1000C00075108100C0050C0901A101850419012AE0
:1000D000A002150126A002950175108100C00660DE
:1000E000FF0961A1010962150026FF00952075082E
:1000F00081020963150026FF00952075089102C052
:1001000005010906A101050719E029E715002501E8
:10011000950875018102950175088101050719008F
:1001200029FF150026FF00950675088100050819AE
:10013000012905950575019102950175039101C08D
:1001400000000000000000000000000000000000AF
:10015000000000000000000000000000000000009F
:10016000000000000000000000000000000000008F
:10017000000000808000000000008040402020201F
:1001800020101010100804020101020C3040800001
:10019000000000000000F8F8F8F8000000000080FF
:1001A00080000000000000000000000000000000CF
:1001B00000000000000000000000000000808080BF
:1001C000000000000000000000000000000000002F
:1001D000000000000000000000000000000000001F
:1001E000000000000000000000000000000000000F
:1001F000001EE10000010102028180800000808079
:10020000000000000000000000800030300000010D
:100210000102040810204387070100B8BCBE9F5F9D
:100220005F4F4C20202020101010100808080808EC
:10023000040404040402020202010101010000009E
:1002400000000000000000000000000000000000AE
:10025000000000000000000000000000000000009E
:10026000000000000000000000000000000000008E
:1002700080700C030000180605989984437C414166
:100280004040202122121111110908080808040415
:1002900008081010101010110F013D7CFCFCFCFC34
:1002A000FC3C0C000000000000000000000000000A
:1002B000000000000000000000000000000000003E
:1002C000000000000000000000000000000000002E
:1002D00000808080808040404040402020202020BE
:1002E0001010101010080808080804040404040280
:1002F00003020201010101010100000000000000F1
:1003000000000000000000000000000000000000ED
:1003100000000000000000000000000000010303D6
:1003200000000000000000000000000000000000CD
:1003300000000000000000000000000000000000BD
:1003400000000000000000000000000000000000AD
:10035000000000000000000000000000000000009D
:10036000000000000000000000000000000000008D
:10037000000000808000000000008040402020201D
:1003800020101010100804020101020C30408000FF
:10039000000000000000000000000000000000005D
:1003A000000000000000000000000000000000004D
:1003B00000000000000000000000000000808080BD
:1003C000000000000000000000000000000000002D
:1003D000000000000000000000000000000000001D
:1003E000000000000000000000000000000000000D
:1003F000001EE100000101020201000000008080F7
:10040000000000000000000000800030300000010B
:10041000E11A06093135018A7C0000808080804025
:100420004040402020202010101010080808080824
:10043000040404040402020202010101010000009C
:1004400000000000000000000000000000000000AC
:10045000000000000000000000000000000000009C
:10046000000000000000000000000000000000008C
:1004700080700C030000000000000000000001017B
:100480000040A021221211111109080808080404D3
:100490000404040402020201010101000000000042
:1004A000000000000000000000000000000000004C
:1004B000000000000000000000000000000000003C
:1004C000000000000000000000000000000000002C
:1004D00000808080808040404040402020202020BC
:1004E000101010101008080808080404040404027E
:1004F000037A7A7979797939310202040408080893
:1005000088888780000000000000000000000000D4
:1005100000000000000000000000000000000000DB
:1005200000000000000000000000000000000000CB
:1005300000000000000000000000000000000000BB
:1005400000000000000000000000000000000000AB
:10055000000000000000000000000000000000009B
:10056000000000000000000000000000000000008B
:10057000000000808000000000008040402020201B
:1005800020101010100804020101020C30408000FD
:10059000000000000000000000000000000000005B
:1005A000000000000000000000000000000000004B
:1005B00000000000000000000000000000808080BB
:1005C000000000000000000000000000000000002B
:1005D000000000000000000000000000000000001B
:1005E000000000000000000000000000000000000B
:1005F000001EE10000010102028180800000808075
:100600000000000000000000008000303000000109
:10061000E11A06093135018A7C0000808080804023
:100620004040402020202010101010080808080822
:10063000040404040402020202010101010000009A
:1006400000000000000000000000000000000000AA
:10065000000000000000000000000000000000009A
:10066000000000000000000000000000000000008A
:1006700080700C030000180605989984C37C4141E2
:100680004040202122121111110908080808040411
:100690000404040402020201010101000000000040
:1006A000000000000000000000000000000000004A
:1006B000000000000000000000000000000000003A
:1006C000000000000000000000000000000000002A
:1006D00000808080808040404040402020202020BA
:1006E000101010101008080808080404040404027C
:1006F00003020201010101010100000000000000ED
:1007000000000000000000000000000000000000E9
:1007100000000000000000000000000000000000D9
:1007200000000000000000000000000000000000C9
:1007300000000000000000000000000000000000B9
:1007400000000000000000000000000000000000A9
:100750000000000000000000000000000000000099
:100760000000000000000000000000000000000089
:100770000000000000000000000080404020202019
:1007800020101010101008080404040830408000E5
:100790000000000000000000000000000000000059
:1007A0000000000000000000000000000000000049
:1007B00000000000000000000000000000808080B9
:1007C0000000000000000000000000000000000029
:1007D0000000000000000000000000000000000019
:1007E0000000000000000000000000000000000009
:1007F00000186482020202020201000000008080F0
:100800000000000000000000008000303000C0C187
:10081000C1C2040810204080000000808080804019
:100820004040402020202010101010080808080820
:100830000404040404020202020101010100000098
:1008400000000000000000000000000000000000A8
:100850000000000000000000000000000000000098
:100860000000000000000000000000000000000088
:10087000C0380403000000000000000C0C0C0D0147
:100880000040A021221211111109080808080404CF
:1008900008081010101010110F01010000000000D6
:1008A0000000000000000000000000000000000048
:1008B0000000000000000000000000000000000038
:1008C0000000000000000000000000000000000028
:1008D00000808080808040404040402020202020B8
:1008E000101010101008080808080404040404027A
:1008F00003020201010101010102020404080808C7
:1009000008080700000000000000000000000000D0
:1009100000000000000000000000000000000000D7
:1009200000000000000000000000000000000000C7
:1009300000000000000000000000000000000000B7
:1009400000000000000000000000000000000000A7
:100950000000000000000000000000000000000097
:100960000000000000000000000000000000000087
:100970000000000000000000000080404020202017
:1009800020101010101008080404040830408000E3
:100990000000000000000000000000000000000057
:1009A0000000000000000000000000000000000047
:1009B00000000000000000000000000000808080B7
:1009C0000000000000000000000000000000000027
:1009D0000000000000000000000000000000000017
:1009E0000000000000000000000000000000000007
:1009F00000186482020202020201000000008080EE
:100A00000000000000000000008000303000C0C185
:100A1000C1C2040810204080000000808080804017
:100A2000404040202020201010101008080808081E
:100A30000404040404020202020101010100000096
:100A400000000000000000000000000000000000A6
:100A50000000000000000000000000000000000096
:100A60000000000000000000000000000000000086
:100A7000C0380403000000000000000C0C0C0D0145
:100A80000040A021221211111109080808080404CD
:100A900008081010101010110F01010000000000D4
:100AA0000000000000000000000000000000000046
:100AB0000000000000000000000000000000000036
:100AC0000000000000000000000000000000000026
:100AD00000808080808040404040402020202020B6
:100AE0001010101010080808080804040404040278
:100AF00003020201010101010102020404080808C5
:100B000008080700000000000000000000000000CE
:100B100000000000000000000000000000000000D5
:100B200000000000000000000000000000000000C5
:100B300000000000000000000000000000000000B5
:100B400000000000000000000000000000000000A5
:100B50000000000000000000000000000000000095
:100B60000000000000000000000000000000000085
:100B700000000000000000000000008080404040B5
:100B80004020202020100804020204186080000089
:100B90000000000000000000000000000000000055
:100BA0000000000000000000000000000000000045
:100BB00000000000000000000000000000808080B5
:100BC0000000000000000000000000000000000025
:100BD0000000000000000000000000000000000015
:100BE0000000000000000000000000000000000005
:100BF000003CC201010202040402010000000000E6
:100C00000000000000000000000000606000818221
:100C10008284081020408000000000808080804096
:100C2000404040202020201010101008080808081C
:100C30000404040404020202020101010100000094
:100C400000000000000000000000000000000000A4
:100C50000000000000000000000000000000000094
:100C60000000000000000000000000000000000084
:100C700080701906000000000000001818181B03FF
:100C80000040A02224141212120B080808080505BF
:100C900009091010101010110F01010000000000D0
:100CA0000000000000000000000000000000000044
:100CB0000000000000000000000000000000000034
:100CC0000000000000000000000000000000000024
:100CD00000808080808040404040402020202020B4
:100CE0001010101010080808080804040404040276
:100CF00003020201010101010102020404080808C3
:100D000008080700000000000000000000000000CC
:100D100000000000000000000000000000000000D3
:100D200000000000000000000000000000000000C3
:100D300000000000000000000000000000000000B3
:100D400000000000000000000000000000000000A3
:100D50000000000000000000000000000000000093
:100D60000000000000000000000000000000000083
:100D70000000008080000000000080404020202013
:100D800020101010100804020101020C30408000F5
:100D90000000000000000000000000000000000053
:100DA0000000000000000000000000000000000043
:100DB00000000000000000000000000000808080B3
:100DC0000000000000000000000000000000000023
:100DD0000000000000000000000000000000000013
:100DE0000000000000000000000000000000000003
:100DF000001EE100000101020201000000008080ED
:100E00000000000000000000008000303000C0C181
:100E1000C1C2040810204080000000808080804013
:100E2000404040202020201010101008080808081A
:100E30000404040404020202020101010100000092
:100E400000000000000000000000000000000000A2
:100E50000000000000000000000000000000000092
:100E60000000000000000000000000000000000082
:100E700080700C03000000000000000C0C0C0D0141
:100E80000040A021221211111109080808080404C9
:100E900008081010101010110F01010000000000D0
:100EA0000000000000000000000000000000000042
:100EB0000000000000000000000000000000000032
:100EC0000000000000000000000000000000000022
:100ED00000808080808040404040402020202020B2
:100EE0001010101010080808080804040404040274
:100EF00003020201010101010102020404080808C1
:100F000008080700000000000000000000000000CA
:100F100000000000000000000000000000000000D1
:100F200000000000000000000000000000000000C1
:100F300000000000000000000000000000000000B1
:100F400000000000000000000000000000000000A1
:100F50000000000000000000000000000000000091
:100F60000000000000000000000000000000000081
:100F70000000000000000000000080404020202011
:100F800020101010100808040202020438408000EB
:100F90000000000000000000000000000000000051
:100FA0000000000000000000000000000000000041
:100FB00000000000000000000000000000808080B1
:100FC0000000000000000000000000000000000021
:100FD0000000000000000000000000000000000011
:100FE0000000000000000000000000000000000001
:100FF000001CE201010202020201000000008080E8
:101000000000000000000000008000303000C0C17F
:10101000C1C2040810204080000000808080804011
:101020004040402020202010101010080808080818
:101030000404040404020202020101010100000090
:1010400000000000000000000000000000000000A0
:101050000000000000000000000000000000000090
:101060000000000000000000000000000000000080
:1010700080700C03000000000000000C0C0C0D013F
:101080000040A021221211111109080808080404C7
:1010900008081010101010110F01010000000000CE
:1010A0000000000000000000000000000000000040
:1010B0000000000000000000000000000000000030
:1010C0000000000000000000000000000000000020
:1010D00000808080808040404040402020202020B0
:1010E0001010101010080808080804040404040272
:1010F00003020201010101010102020404080808BF
:1011000008080700000000000000000000000000C8
:1011100000000000000000000000000000000000CF
:1011200000000000000000000000000000000000BF
:1011300000000000000000000000000000000000AF
:1011400000DA0281FFD9F1DB20A4A62EAF00A0C0F7
:1011500000A1C800AED580A81FD300408D14200088
:10116000FD377A585A000004E6D6B4460200210141
:1011700016000000742FE5A3E003AA01655D003DA1
:101180008889C65436C3174FE4F5602D3B56DF21DE
:1011900044B4FF40F91849E5B259552B74A4282BE3
:1011A00052BA4EE1D329566E894CBE8A86793225D1
:1011B000DE38527A68E2ACA3787F1AA530E18773F3
:1011C00035CA4B3A82E9046FD6B8AFECC64737A1AF
:1011D0009C656835CE7A8C262B11871502FAE84774
:1011E000F1AADE73BEA755EFE67FE65B2FB304429C
:1011F0009E627BBCA8235D1A1C0E6C2D35E9F3485A
:10120000B3108AF43FF19D2321848E707EB8706EF6
:1012100046E916FFED5133E0EB4BC6F5EA4B2647A6
:101220002CDB7824171DA3507DD1D9387E9A79AA5A
:1012300068268A6FAECD3B584EB9F6C90FB8E4EFB9
:10124000ACFB4001878582DCE86A7424FD6EDB7AA2
:101250001F8A4095C8D124D4BACB1C5AE34F7A8454
:10126000E4A117F0A392E8B04A3544E49FFE530589
:10127000144E08C1B3F7EF9FE35565B1FF0EDE567C
:10128000592693878777871272FFD3B09682E5C37A
:10129000755DED984F1F928F3A1399F5235C02C24A
:1012A000759024ACE615FE78F39EEBA65E22A57C35
:1012B000E8F6666AE461794EF348819E71A7488931
:1012C0004742D03191D85C381EA400213CBE15B6EF
:1012D0003D71D988B310F55A8BE3BA76460E706F1C
:1012E000701524000000000024C46F803DF88F5F5B
:1012F00000018103AB070000F1E13CCEB1C467FB04
:10130000020000000004595A29001A0015001C00B0
:101310000C001300140008001700180012002A0027
:101320002B00160009000B000E003300040007001C
:101330000A000D000F00280035621D0006000500A0
:101340001000370038001B00190011003600E500BE
:10135000E000E2002C412C41E700AE00E300000079
:101360000251E600E400A80029001F00210023002C
:10137000250027001E0020002200240026002A004D
:1013800001000100010052002D00340001000100A5
:10139000010052002E002800010001000100500051
:1013A0004F00380001000100010051002E00010033
:1013B00001000100010001000100AE000100000079
:1013C000010001000100A8000100C85C010001004B
:1013D00052000100C75C0100010000000100010093
:1013E0000100C35C0100000051000100C25CC45C4C
:1013F000010050004F0001000100CA5C0100010023
:1014000001005200C95C010001000100010052000E
:101410000100010001000100510001000100000075
:10142000010050004F00010000AF00AE09025B0058
:10143000030100A0FA0904000001030101000921D1
:101440001101000122400007058103080001090481
:101450000100020300000009211101000122220005
:10146000070582032000010705030320000109048A
:1014700002000103000000092111010001223200D5
:101480000705840320000112010002000000082962
:101490001753530100010203011C03760069006128
:1014A000006C003A006600360034006300320062CF
:1014B000003300630000000A036C00690074006CD4
:1014C00000000012035300540048004C004D00205F
:1014D000006B00620000000403090400000000002B
:1014E00000000000000000000000000000000000FC
:1014F0000000000000000000000000000000007E6E
:101500000F00D4FFFFFFC7000000780000000000BC
:101510000000002A2B28000000000000000000004E
:1015200000000000000029000000002C1E342021D3
:101530002224342627252E362D3738271E1F20211A
:1015400022232425263333362E37381F0405060779
:1015500008090A0B0C0D0E0F101112131415161793
:1015600018191A1B1C1D2F3130232D3504050607B1
:1015700008090A0B0C0D0E0F101112131415161773
:1015800018191A1B1C1D2F3130354C07087F08070E
:10159000003E5B4F5B3E003E6B4F6B3E001C3E7C53
:1015A0003E1C00183C7E3C18001C577D571C001C3C
:1015B0005E7F5E1C0000183C180000FFE7C3E7FFD9
:1015C00000001824180000FFE7DBE7FF0030483A6E
:1015D000060E00262979292600407F0505070040D0
:1015E0007F05253F005A3CE73C5A007F3E1C1C0803
:1015F00000081C1C3E7F0014227F2214005F5F0045
:101600005F5F0006097F017F00006689956A0060C0
:10161000606060600094A2FFA2940008047E040849
:101620000010207E20100008082A1C0800081C2A30
:101630000808001E10101010000C1E0C1E0C0030AC
:10164000383E383000060E3E0E0600000000000056
:101650000000005F000000000700070000147F1476
:101660007F1400242A7F2A120023130864620036A4
:101670004956205000000807030000001C224100CA
:10168000000041221C00002A1C7F1C2A0008083E82
:1016900008080000807030000008080808080000F2
:1016A00000606000002010080402003E5149453EE1
:1016B0000000427F400000724949494600214149EB
:1016C0004D33001814127F10002745454539003C62
:1016D0004A49493100412111090700364949493633
:1016E00000464949291E0000001400000000403453
:1016F0000000000008142241001414141414000007
:1017000041221408000201590906003E415D594E6C
:10171000007C1211127C007F49494936003E41414C
:101720004122007F4141413E007F49494941007FBC
:1017300009090901003E41415173007F0808087FF3
:101740000000417F4100002040413F01007F08141C
:101750002241007F40404040007F021C027F007F0A
:101760000408107F003E4141413E007F09090906FF
:10177000003E4151215E007F091929460026494952
:1017800049320003017F0103003F4040403F001FFA
:101790002040201F003F4038403F0063140814637E
:1017A000000304780403006159494D4300007F4160
:1017B000414100020408102000004141417F000423
:1017C00002010204004040404040000003070800BE
:1017D000002054547840007F284444380038444462
:1017E000442800384444287F0038545454180000DA
:1017F000087E09020018A4A49C78007F08040478DD
:101800000000447D4000002040403D00007F102843
:1018100044000000417F4000007C04780478007C94
:101820000804047800384444443800FC1824241880
:101830000018242418FC007C0804040800485454B0
:1018400054240004043F4424003C4040207C001CFD
:101850002040201C003C4030403C004428102844DC
:10186000004C9090907C004464544C440000083636
:10187000410000000077000000004136080000022F
:1018800001020402003C2623263C00000000000068
:1018900000404040F0F8F8FF38FFF8F83FF8F8FF54
:1018A00038FFF8F8F040404000000000000080C021
:1018B000C0C0800000C0C08000000080C0C000C068
:1018C000C0000080C0C00000000000C0C0C0C0C098
:1018D00000C0C00000000000000000000000000088
:1018E00000000000000000000000000000000000F8
:1018F00000000000000000000000000000000000E8
:1019000000000000000000000000C0F0F8FC3E1ED7
:1019100006010000007F4141417F007F4141417F3E
:10192000000080C0E07E5B4F5BFEC00000C000DCBA
:10193000D7DEDEDED7DC00C00000000000000000C3
:101940000000000000000000000000000000000097
:1019500000494949FFFFFFFFE0DFBFBF00BFBFDF16
:10196000E0FFFFFFFF49494900000000001F3F6002
:1019700060E0BF1F007F7F071E381E077F7F007F4C
:101980007F0E1F3B716000000000007F7F0C0C0C7D
:10199000007E7E007F7E0303007F7E03037E7E0346
:1019A000037F7E000F3E703C063C703E0F00327B92
:1019B00049493F7E007F7E0303001E3F69696F2611
:1019C00000000000000000000000030F1F3F3C78F3
:1019D00070600000007F4141417F007F4141417FB5
:1019E00000307B7F7830202030787F3B0003000F71
:1019F0007F0F0F0F7F0F00030000000000000000AA
:101A000000000000000000000000000000000000D6
:101A100000010101070F0F7F0F7F0F0F7E0F0F7F58
:101A20000F7F0F0F07010101000000000000000000
:101A300000000101000000000000000000000000A4
:101A40000000000000000000000000000000000096
:101A50000000000000000000000000000000000086
:101A60000000000000000000000000000000000076
:101A70000000000000000000000000000000000066
:101A80000000000000000000000000000000000056
:101A90000000000000000000000000000000000046
:101AA0000000000000000000000000000000000036
:101AB0000000000000000000000000000000000026
:101AC00000000000000000000000000011241FBE04
:101AD000CFEFDAE0DEBFCDBF11E0A0E0B1E0EAE198
:101AE000F7E602C005900D92AE38B107D9F724E0B1
:101AF000AEE8B1E001C01D92A23DB207E1F70E943D
:101B0000B2260C9467330C940000CF93DF9340917E
:101B1000D0045091D104405D52409A013E5F213083
:101B20003240C0F020E032E0241B350B6091CE0241
:101B30007091CF02FC01CA01240F351FC1E0D0E033
:101B40008217930750F07093CF026093CE02DF911B
:101B5000CF91089520E032E0E9CF4491DC01A05319
:101B6000BD4F5C91451781F04C93AC01A5E05695B3
:101B70004795AA95E1F7DE0102C0AA0FBB1F4A955F
:101B8000E2F7AD016A2B752B01963196D9CFE8EDBE
:101B9000F0E080818E7F80831092E2001092DA0064
:101BA0001092E100A0EEB0E08C9181608C93808176
:101BB0008F77808319BCA7EDB0E08C918E7F8C93DA
:101BC00080818F7E80831092AC0208952091E40082
:101BD0003091E50095E6A9012091EC00822F8170FB
:101BE00020FF06C08091E80080FF06C080E00895D5
:101BF0002091E80022FD1AC08091C202882389F05A
:101C0000853089F08091EB0085FD0FC02091E400C4
:101C10003091E50042175307F9F29150E1F684E064
:101C2000089582E0089583E0089581E00895EF9299
:101C3000FF920F931F93CF937C018B010E94E60DBF
:101C4000C82F811117C08091E80085FD0BC08091DD
:101C5000E8008E778093E8000E94E60D882399F3D0
:101C6000C82F08C0F70181917F018093F1000150D6
:101C7000110949F78C2FCF911F910F91FF90EF9091
:101C80000895CF93FC018091C202843001F5C09188
:101C9000E900CF702091EC00922F917020FD90E828
:101CA000C92B82E08093E9008091E80080FF0CC09E
:101CB00050E040E060E270E0CF010E94170E80919A
:101CC000E8008E778093E800CF70C093E900CF9151
:101CD00008958091BA0287FF13C08091E80082FFC7
:101CE00006C08091E8008B778093E80004C0809163
:101CF000C2028111F2CF08958091C2028823D9F3E4
:101D00008091E80080FFF8CF8091E8008E77ECCFDB
:101D1000982F9093E900242F762F50E0891731F007
:101D20007091EC002091ED005091F00021FD07C072
:101D30009F5F973071F78093E90081E008953091BB
:101D4000EB003E7F3093EB003091ED003D7F309310
:101D5000ED003091EB0031603093EB007093EC00BC
:101D60002093ED005093F0002091EE0027FDE0CF8E
:101D700080E00895B0E0A0E0E0ECFEE00C94B92F24
:101D8000C8EDD0E088818F7E8883E7EDF0E0808128
:101D90008160808384E082BF81E08093AC0288818F
:101DA0008E7F888302EE10E0F80110821092DA0034
:101DB00081EEC82ED12CF601108288818F7788831E
:101DC00088818068888388818F7D888319BC109280
:101DD000C2021092B9021092B8021092B70290EEAD
:101DE000E92EF12CF70180818B7F808388818160CF
:101DF000888342E060E080E00E94880EF6018081E6
:101E00008E7F8083F80180818160808380818860FB
:101E10008083F70180818E7F8083888180618883C1
:101E2000CDB7DEB7E8E00C94D52FFC018091C0025D
:101E30009091C10286179707A0F06115710529F4EA
:101E40009091E8009E779093E80090E0611571050D
:101E500051F4911108C08091E80082FF34C080E005
:101E60000895BC01F2CF8091C2028823C1F1853070
:101E7000C1F18091E80083FD30C08091E80082FDCF
:101E8000EACF8091E80080FFE1CF8091F3002091BC
:101E9000F200382F6115710519F02830310558F01E
:101EA00091E02830310509F090E02091E8002E778C
:101EB0002093E800CBCF81918093F10061507109AC
:101EC0002F5F3F4FE7CF8091C202882341F08530DA
:101ED00041F08091E80083FFBECF81E0089582E069
:101EE000089583E00895089508958091AE020895BD
:101EF00087E797E7909301088093000888E19AE0CC
:101F00000FB6F894A895809360000FBE9093600080
:101F1000FFCF2FB7F8946091A5027091A60280912F
:101F2000A7029091A8022FBF08959C01FC01329650
:101F30009FEF80E04191461751F09F3F19F4411106
:101F400001C0982F8F5F8630A9F79F3F09F408954D
:101F5000290F311D97FD3A95F9016283089520916B
:101F6000A2023091A3022817390771F09093A302BF
:101F70008093A202E091A002F091A102309721F09B
:101F80000084F185E02D0995089520919E023091FD
:101F90009F022817390771F090939F0280939E0249
:101FA000E091A002F091A102309721F00680F78124
:101FB000E02D09950895E091A002F091A1023097DB
:101FC00029F00190F081E02D0995089580E00895B1
:101FD00080E00895F894E82FE295EF70F0E031A1E9
:101FE000282F2F7081E090E001C0880F2A95EAF732
:101FF000982F9095932391A392A1892B82A37894F3
:1020000008959091020292FF06C0282F287128306F
:10201000F9F4877F846093FF06C0282F2871283148
:10202000F1F4877E84612091030220FF06C0382FDF
:1020300038713830D9F4877F816021FF06C0282F9E
:1020400028712831D1F4877E816194FD877E0895BF
:10205000282F24712430F9F68B7F8860DCCF282F5D
:102060002471243101F78B7E8861DDCF382F3171E7
:10207000313019F78E7F8860E0CF282F2171213110
:1020800021F78E7E8861E1CFCF93DF93EC01823818
:102090009105B1F108F040C08133910509F49DC06C
:1020A00048F58932910509F48DC08A9709F49CC0DE
:1020B000C11522E5D20708F0BDC0C11531E5D3072F
:1020C00008F025C1C83ED10508F0A3C0C13ED10526
:1020D00088F5C83AD10508F08EC0C53AD10508F098
:1020E000F6C0C130D10531F1209721F1C430D105BE
:1020F00008F545C08533910509F45FC0C997C1F65D
:1021000080910202837009F037C18091030283FF3E
:1021100011C0C9E2D0E00EC0833E910599F170F480
:10212000803E910501F1823E910511F680910202F7
:1021300082FD21C0CE01DF91CF910895863E9105A9
:1021400061F1873E910571F1843E910509F0B0CFB0
:102150008091030281FFEECF80910202C7EED0E0B2
:1021600084FD0DC0E7CF8091020280FD33C09091C5
:10217000030290FFDFCFC3EED0E084FFDBCFD0E0DF
:10218000C0E0D8CF8091020282FDF3C0909103029B
:1021900090FDF2C084FFCECFF2CF8091020283FD8A
:1021A000DDCFC8CF8091020283FDE9C09091030288
:1021B00091FFF0CFC4EED0E0BDCF8091020285FF49
:1021C000B9CFA7CF8091020285FDDCC080910302C8
:1021D00083FFB0CFC9E3D0E0ADCF8091020286FF8C
:1021E000A9CFCAE2D0E0A6CF8091020286FFA2CF9B
:1021F000C1E3D0E09FCFCF3BD10508F6C85AD0E06D
:10220000CC0FDD1FC65DDE4F0990D881C02DD46490
:1022100091CFC11540E5D40708F064C0C11580E432
:10222000D80708F05CC0CE019A9581159F4108F44B
:1022300081CFA5CFC11536E5D30718F5C11545E502
:10224000D40708F07DC0C11584E5D80708F073C035
:102250009C2F969596959E0123703327C115D345E3
:1022600008F45AC0C1E0D0E002C0CC0FDD1F2A95AF
:10227000E2F730E2939FC0011124C82BD92BDA6812
:1022800059CFC1158AE5D80778F4C11529E5D207D9
:1022900008F061C0C11538E5D30708F470CFDC2F12
:1022A000CC27C06FD06A46CFCE01905681159042A0
:1022B00008F065CF8D2F8F710E94011090E0982F4C
:1022C000882788279F719C012C2BE90142C0C55AA1
:1022D000D0E0C95DDE4FC881D0E0D0642BCFDF7085
:1022E000D06A28CF2C2F26952695237080E2289F30
:1022F000900111248C2F8370C1E0D0E002C0CC0F7C
:10230000DD1F8A95E2F7C22BD32BDD6813CFDC2FBC
:10231000CC27C16FD06A0ECFC1E0D0E002C0CC0F95
:10232000DD1F2A95E2F720E2929FC0011124C82BFD
:10233000D92BDC68FFCEDC2FCC27C46FD06AFACE55
:102340008C2F0E940110C82FD0E0DC2FCC27CC2787
:10235000DF71D062EFCE8C2F8F700E94011034E0BD
:10236000D695C7953A95E1F7CF709C2FEC01D069CF
:10237000E1CEC2EED0E0DECEC0EED0E0DBCEC6EEE7
:10238000D0E0D8CEC5E3D0E0D5CE8091F50188234A
:1023900031F01092F5011092F4011092F3010895BA
:1023A00080959091F20198239093F20108951092F4
:1023B000E8011092E7011092E60108958091E5018D
:1023C0009091B401981301C008958F5F8770FACF80
:1023D000292F983078F5863068F590E036E0239F15
:1023E000800D911D1124682F677023E096958795C5
:1023F0002A95E1F7FC01EE0FFF1FE80FF91FE456E5
:10240000FE4F50E040E080E0219130E0062E02C017
:10241000369527950A94E2F721703327042E01C0E0
:10242000220F0A94EAF7822B4F5F5F4F433051052A
:1024300059F7089580E00895292F983098F586304F
:1024400088F590E036E0239F800D911D1124282F00
:10245000277041E001C0440F2A95EAF723E09695E2
:1024600087952A95E1F7FC01EE0FFF1FE80FF91F92
:10247000E456FE4F30E020E070E05191DF0111970B
:10248000CB01022E02C0969587950A94E2F78170DF
:1024900081958527842385278C932F5F3F4F233099
:1024A000310559F708959C013A9521153F4150F5A2
:1024B000FC01EE27F170BC0166277270AC01442765
:1024C00054709C012227387094FF0EC080E1EF2BDE
:1024D00009F480E0672B09F08062452B09F08064E5
:1024E000232B89F08068089581E0EF2B09F480E0C8
:1024F000672B09F08260452B09F08460232B19F0CB
:102500008860089580E00895809158028F31D8F452
:102510008091990190E0019665E070E00E94F22FB1
:102520008093990124E030E0A901481B590BCA01AE
:10253000982F8827990F805C984F0E94850D0895E9
:1025400080E495E0FACF8832D8F32091980130E00A
:102550002F5F3F4F217033272093980181E090E057
:10256000821B930B982F8827990F805C9E4FE5CF95
:10257000B0E0A0E0EEEBF2E10C94B92F6C017B012E
:1025800064E670E088E70E94B52EEC0197FD12C06A
:1025900010E000E0F601E00FF11F849164E670E0C6
:1025A0000E94212FEC01892B29F40F5F1F4F0E157C
:1025B0001F0581F70E94972FCE01CDB7DEB7E8E067
:1025C0000C94D52F80919C0290919D02911103C093
:1025D00091E089270895882369F062E070E08AE23B
:1025E00094E10E94B812892B19F080919C02089501
:1025F00010929C0280919C02EBCFCF93C0919C02E1
:1026000080919D028823D1F00E94890F605A754104
:102610008F4F9F4F609398027093990280939A0214
:1026200090939B02C11108C062E070E088E294E1DF
:102630000E94B812892B29F0C0919C028C2FCF9157
:10264000089581E080939C02F7CFCF93DF93C091F0
:10265000D004D091D1048A30C1F42091C702CE01B8
:10266000805D9240622F70E00E949B2F281B822F7A
:1026700066E00E94E62FC82FC15018F4DF91CF9179
:10268000089580E20E942513F7CF8D30E9F4C05DF4
:10269000D2402091C702622F70E0CE010E949B2F92
:1026A000281B822F9E01280F311D2115324018F062
:1026B00080E0D0E0C0E0C80FD11DC053DD4FD09303
:1026C000D104C093D004DACF96E0FE01A8ECB2E0CA
:1026D00001900D929A95E1F7803E08F458C086E08B
:1026E000FE0111928A95E9F7C091D004D091D104EE
:1026F00046E050E0BE0188EC92E00E947F309E01EF
:10270000205D3240892B41F1C90145E096958795BE
:102710004A95E1F741E050E0BA0102C0660F771F29
:102720008A95E2F7CB016091CE027091CF02862BA1
:10273000972BB9016B5F7F4FE5E076956795EA953A
:10274000E1F702C0440F551F6A95E2F7842B952BE1
:102750009093CF028093CE022A5F3F4F4091C702F1
:10276000642F70E0C9010E949B2F481B463010F473
:10277000240F311D211572E0370710F030E020E002
:1027800020533D4F3093D1042093D00477CFF6E00F
:102790008F9FB001112465577A4E46E050E0CE017C
:1027A0000E947630A1CF8093A9027093AB02609310
:1027B000AA028091C2028430F9F48093E9008FEF7D
:1027C0009091E800815095FD06C095ED9A95F1F73E
:1027D00000008111F5CF8091E80085FF0DC050E029
:1027E00040E063E070E089EA92E00E94170E809179
:1027F000E8008E778093E8000895BC0184E00E9491
:10280000D3130895BC0183E00E94D3130895CF939E
:10281000DF93EC0181E08093E9008FEF9091E80075
:10282000815095FD06C095ED9A95F1F70000811154
:10283000F5CF8091E80085FF14C050E040E068E0EB
:1028400070E0CE010E94170E8091E8008E77809391
:10285000E80088E0FE01AFEAB2E001900D928A95AF
:10286000E1F7DF91CF910895CF93DF93C7EBD1E0EC
:1028700060E0CE010E9433332196C11584E0D80771
:10288000B9F7DF91CF9108951F93CF93DF93122F64
:102890008430E0F46830D0F44630C0F4C42FD0E087
:1028A000CC0FDD1F9CE0699FC00DD11D112490E667
:1028B000899FC00DD11D1124632FCE0187960E94E0
:1028C0003333612FCE0188960E943333DF91CF914D
:1028D0001F910895B0E0A0E0E0E7F4E10C94B62F7A
:1028E000A0909202B090930281E090E090939302C6
:1028F0008093920298E0C92E93E1D92E10E000E077
:102900007601912C1AC003301105D1F0FE01EE0FB3
:10291000FF1FEE0DFF1D259134914C2F692D802F47
:102920000E9444142196C630D10569F78CE0E80E68
:10293000F11C939488E0981649F0D0E0C0E0E3CF12
:1029400021E030E04C2F692D83E0EACF0F5F1F4F6D
:1029500080E6C80ED11C0430110591F6B0929302A6
:10296000A0929202CDB7DEB7EBE00C94D22FCF93BA
:10297000C82F6FEF811168EC83E290E00E9433333F
:102980006FEFC1116DE384E290E00E9433336FEF8B
:10299000C1116AE685E290E00E943333CF91089539
:1029A00080E00E94B71460E086E290E00E9433333A
:1029B0000E946A140E94341481E00E94B7140895A2
:1029C0000F931F93CF93DF93843030F5683020F559
:1029D000463010F5C42FD0E0CC0FDD1F2CE0629FF5
:1029E000C00DD11D112430E6839FC00DD11D1124CF
:1029F000CE0187960E942533082F10E0102F002764
:102A0000CE0188960E9425339801282BC901DF91B9
:102A1000CF911F910F91089590E080E0F8CF462F5D
:102A20002091960230919702232B99F4703F39F44C
:102A3000603F79F4809194029091950208958430DA
:102A400040F4783030F4663020F4672F0E94E014B0
:102A5000089590E080E00895CF92DF92FF920F9367
:102A60001F93CF93DF936C010091C6028091F60112
:102A7000082BC7E0D0E010E0FC2EC8010C2E02C0ED
:102A8000959587950A94E2F780FD0CC02197A0F7F1
:102A9000F12C8F2DDF91CF911F910F91FF90DF903F
:102AA000CF900895B6018C2F0E940F150E944410FC
:102AB000019761F3EECFCF93DF93EC010E942C15C9
:102AC000BE010E940F150E944410DF91CF9108951E
:102AD000FC0183819481892B29F080819181892354
:102AE0008F3F51F480E00895843FE1F717C0883E9E
:102AF000A8F0813FB9F712C0808191810E945B15D7
:102B000092959F70963099F358F4925F9F7092302F
:102B100048F7803F19F040F7883E20F781E008959C
:102B20009A5FF4CF83E290E00E942533883C89F4D9
:102B300084E290E00E9425338D3359F485E290E0E1
:102B40000E94253391E08A3609F090E0892F817048
:102B5000089580E0FCCFCF9384E090E00E9425337D
:102B6000C82F82E290E00E942533982F8C2FCF91BE
:102B7000089568EE7EEF90E080E00E94513360E0BF
:102B800082E090E00E94333360E083E090E00E94B6
:102B900033331092F60160E084E090E00E9433331A
:102BA00064E082E290E00E94333360E085E090E0F0
:102BB0000E94333360E086E090E00E9433336FEF91
:102BC00087E090E00E94333340E050E0BA0188E0B3
:102BD00090E00E94453360E08DE090E00E94333346
:102BE00040E050E0BA0188E190E00E94453360E0A7
:102BF00087E190E00E94333340E050E0BA018CE17D
:102C000090E00E94453370E060E080E290E00E9436
:102C1000513340E050E0BA0188E190E00E94453332
:102C200080E00E94B7140E94D01440E050E0BA0146
:102C30008FE090E00E94453340E050E0BA0183E12C
:102C400090E00E94453308951F920F920FB60F92A5
:102C500011242F933F934F935F936F937F938F93A1
:102C60009F93AF93BF93EF93FF938091E10082FF17
:102C700009C08091E20082FF05C08091E1008B7F56
:102C80008093E1008091DA0080FF24C08091D80019
:102C900080FF20C08091DA008E7F8093DA008091DF
:102CA000D90080FF9DC080E189BD82E189BD09B462
:102CB00000FEFDCF81E08093C2028091AC028111C1
:102CC00009C00E94C70D0E94BA0E8091E200846084
:102CD0008093E2008091E10080FF17C08091E200C4
:102CE00080FF13C08091E2008E7F8093E20080918C
:102CF000E20080618093E2008091D800806280933E
:102D0000D80019BC85E08093C2028091E10084FF65
:102D10002BC08091E20084FF27C080E189BD82E161
:102D200089BD89B5982F917080FFFBCF8091D80025
:102D30008F7D8093D8008091E1008F7E8093E100A9
:102D40008091E2008F7E8093E2008091E2008160BA
:102D50008093E2008091B902882309F447C084E09F
:102D60008093C2028091C2028091E10083FF27C05C
:102D70008091E20083FF23C08091E100877F8093F0
:102D8000E10082E08093C2021092B9028091E100DA
:102D90008E7F8093E1008091E2008E7F8093E2003D
:102DA0008091E20080618093E20042E060E080E098
:102DB0000E94880E8091F00088608093F000FF915F
:102DC000EF91BF91AF919F918F917F916F915F91A3
:102DD0004F913F912F910F900FBE0F901F9018951C
:102DE00019BC1092C2021092AC0274CF8091E30021
:102DF00087FD93E09093C202B5CF78941F921FB6DF
:102E00001F9211248F939F93AF93BF938091A5023C
:102E10009091A602A091A702B091A8020196A11DCF
:102E2000B11D8093A5029093A602A093A702B09330
:102E3000A802BF91AF919F918F911F901FBE1F90CD
:102E400018959C014FB7F8948091A5029091A60225
:102E5000A091A702B091A8024FBF821B930B0895C7
:102E60002FB7F8948091A5029091A602A091A70295
:102E7000B091A8022FBF08954F925F927F928F92D8
:102E80009F92AF92BF92CF92DF92EF92FF920F93F9
:102E90001F93CF93DF93CDB7DEB728970FB6F89483
:102EA000DEBF0FBECDBF8E010F5F1F4F88E0F80160
:102EB00011928A95E9F798E5E92E91E0F92E2EE531
:102EC000C22E21E0D22E77247394AA24A394B12C8D
:102ED00046E6842E41E0942EF70181917F018F3FD9
:102EE00009F447C0F894E82FE295EF70F0E021A1D3
:102EF0008F70A50102C0440F551F8A95E2F7CA01E1
:102F0000922F982B91A392A18095892382A37894E4
:102F100000C08EE5482E81E0582ED801672D6095BF
:102F2000F20151912F014D919D01215031095F3FD7
:102F300009F45DC0852F82958F7090E0FC0180A11F
:102F400090E05F7002C0959587955A95E2F780FDF5
:102F50004EC04729F90140838414950409F7F7010D
:102F6000319780818F3F11F00E94EA0FF0EAFA95C5
:102F7000F1F7770CCE14DF0409F0AECF48E050E053
:102F8000B8018AEF91E00E947F30892B91F188E0AF
:102F9000F801AAEFB1E001900D928A95E1F781E086
:102FA0008093F9010E9430179093F8018093F70104
:102FB0008091F7019091F8010E9421170597E8F0A0
:102FC00048E050E06AEF71E08AE892E00E947F30CA
:102FD000892B51F188E0EAEFF1E0AAE8B2E0019034
:102FE0000D928A95E1F781E01092F90107C046231E
:102FF000B1CF8091F9018111DBCF80E028960FB627
:10300000F894DEBF0FBECDBFDF91CF911F910F911E
:10301000FF90EF90DF90CF90BF90AF909F908F90F8
:103020007F905F904F90089580E0DECF8091F20115
:103030009091F101892B809390018091F501882373
:1030400019F10E9430172091F3013091F401821B95
:10305000930B8838934110F00E94C5118091900124
:103060009091F501892B8093900120E082E991E015
:10307000FC013191CF0131112F5FF1E088399F07B9
:10308000B9F721110E94C51148E050E069EE71E0E6
:1030900080E991E00E947F30892BA9F088E0E0E987
:1030A000F1E0A9EEB1E001900D928A95E1F7E0918F
:1030B000A002F091A102309731F00280F381E02D5F
:1030C00080E991E00995089590E080E00E94C50FA5
:1030D00090E080E00E94AF0F1092F1010E9416185C
:1030E00008958093C6020E94641808958091C602D4
:1030F000982F9670963021F488600E947118089578
:10310000877FFBCF21E030E001C0220F8A95EAF7EC
:1031100020958091C60282230E9471180895909193
:10312000E801809589238093E801282F277091F486
:10313000282F082E000C330B9217130659F090918C
:10314000030292FF07C08595859585950E94821898
:103150000E94D7110895CF93C0910302C2FB992713
:1031600090F9981791F080FBC2F9C0930302609127
:10317000020284E090E00E9433336C2F82E290E000
:103180000E94333382E00E948F18CF91089521E08E
:1031900030E001C0220F8A95EAF78091C602822BA7
:1031A0000E94711808958093F6010E946418089592
:1031B0001092F201E2E9F1E086E0DF011D928A95CA
:1031C000E9F70E9464180895AAE2B0E0EAEEF8E197
:1031D0000C94BE2F8AEB92E02091F100DC012D933C
:1031E000CD01B2E0823C9B07B9F78091BB028330EE
:1031F00009F472C0B8F4813009F449C0823009F48E
:10320000B3C08091E80083FF96C28091BA0290918A
:10321000BB029A3008F08FC2E92FF0E0E759FC4C6E
:103220000C9447308A3009F48EC08B3009F471C099
:10323000893039F78091BA02813219F78091BE0244
:103240009091BF02009711F00297D9F68091E800A3
:10325000877F8093E8008091E80082FF38C09091DA
:10326000F3008091F200029731F48091F1008130F7
:1032700011F0863021F48091F1008093AE028091AC
:10328000E8008B778093E8000E94690EBACF8091A6
:10329000BA02813A09F0B5CF8091E800877F809328
:1032A000E8008091BE029091BF02892B61F468E032
:1032B0008FEA92E070E00E94150F8091E8008B7712
:1032C0008093E8009ECF60E090E080E0F3CF8091B3
:1032D000C2028111C0CF95CF8091BA02813A09F024
:1032E00090CF8091BE029091BF02892B09F089CFC7
:1032F0008091E800877F8093E8008091E80080FF5C
:10330000FCCF809114018093F1008091E8008E77CA
:10331000B9CF8091BA02813209F073CF8091BE0299
:103320009091BF02892B09F06CCF8091E800877FD4
:103330008093E8000E94690E8091BC028093140182
:103340000E94D8185ECF8091BA02813209F059CF1D
:103350008091E800877F8093E8000E94690E809149
:10336000BD028093AD024DCF8091BA02813A09F03F
:1033700048CF8091E800877F8093E8008091E80043
:1033800080FFFCCF8091AD02BECF803899F08238AB
:1033900009F0D1C18091BE028F70873008F0CBC197
:1033A0008093E9008091EB0085FB882780F91092DB
:1033B000E90006C08091B7029091B8029111826035
:1033C0009091E800977F9093E8008093F10010922D
:1033D000F1008091E8008E77AAC1882309F498C192
:1033E000823009F0A8C18091BC0281119BC18091FB
:1033F000BE028F702FEF280F263008F09CC18093FB
:10340000E9002091EB0020FF8DC1933031F48091D1
:10341000EB0080628093EB0085C19091EB0090619E
:103420009093EB0021E030E001C0220F8A95EAF78B
:103430002093EA001092EA008091EB008860EACFC6
:10344000811179C11091BC021F778091E3008078CF
:10345000812B8093E3008091E800877F8093E800D0
:103460000E94690E8091E80080FFFCCF8091E3000C
:1034700080688093E30082E0111183E08093C202B0
:103480005AC18058823008F056C12091BC02309158
:10349000BD022C3DE3E03E07A1F583E08A838AE28A
:1034A00089834FB7F894DE01139620E03EE051E2A5
:1034B000E32FF0E050935700E49120FF03C0E29522
:1034C000EF703F5FEF708E2F90E0EA30C0F0C7964C
:1034D0008D939D932F5F243159F74FBF8091E80062
:1034E000877F8093E8006AE270E0CE0101960E9437
:1034F000150F8091E8008B778093E8001CC1C0967F
:10350000E7CF8091BE029091BF02432F55274330F1
:10351000510509F44AC078F54130510509F485C0D8
:103520008BE590E0ECE2F4E14230510509F003C193
:103530002091E800277F2093E8002091C00230917D
:10354000C1028217930708F49C0140E02115310560
:1035500009F070C041116EC08091E80082FDC9CFB2
:103560008091C202882329F2853019F28091E80007
:1035700083FFF2CFBECF4132510509F447C042323A
:10358000510509F0D8C08330910508F0D4C0FC0182
:10359000EE0FFF1FEF57FE4F0190F081E02D825894
:1035A0009E4FDC018C9190E01DC033272130310506
:1035B000E9F02115310579F022303105F9F0233099
:1035C000310509F0B8C0E9E9F4E1E4918E2F90E00B
:1035D000E9E9F4E107C0E7EDF4E1E4918E2F90E032
:1035E000E7EDF4E1009709F4A6C0A2CFE3ECF4E123
:1035F000E4918E2F90E0E3ECF4E1F4CFE7EBF4E11B
:10360000E4918E2F90E0E7EBF4E1ECCF833091056D
:1036100008F091C0880F991FFC01E957FE4F0190F7
:10362000F081E02D89E090E083CF82E190E0E7E84F
:10363000F4E17ECF8091C202882309F45ACF85300D
:1036400009F457CF8091E80083FD53CF8091E800C3
:1036500082FD82CF8091E80080FF78CF9091F300C7
:103660008091F2002115310519F08830910550F054
:1036700041E0089709F040E08091E8008E77809360
:10368000E80064CF44914093F10031962150310914
:103690000196E8CF803809F04EC08091E800877F1E
:1036A0008093E8008091B9028093F10092CE81115D
:1036B00042C01091BC021230F0F58091E800877F83
:1036C0008093E8001093B9020E94690E112311F053
:1036D00084E005C08091E30087FDFACF81E080930C
:1036E000C20242E061EC81E00E94880E42E261EC9D
:1036F00084E00E94880E42E261EC82E00E94880E23
:1037000042E260EC83E00E94880E8091C20213C006
:103710008091BC02813079F481E0933009F080E03F
:103720008093B8021092E9008091E800877F80932F
:10373000E8000E94690E8091E80083FF0AC0809132
:10374000E800877F8093E8008091EB00806280939F
:10375000EB00AA96E3E00C94DA2F1F920F920FB6BB
:103760000F9211242F933F934F935F936F937F9307
:103770008F939F93AF93BF93CF93DF93EF93FF9379
:10378000D091E900DF708091EC00C82FC17080FDFE
:10379000C0E81092E9008091F000877F8093F000EC
:1037A00078940E94E4181092E9008091F0008860FB
:1037B0008093F000CD2BCF70C093E900FF91EF9183
:1037C000DF91CF91BF91AF919F918F917F916F9139
:1037D0005F914F913F912F910F900FBE0F901F90CF
:1037E00018950E94D8182FEF84E39CE02150804068
:1037F0009040E1F700C0000088E19AE00FB6F8942D
:10380000A895809360000FBE90936000FFCF88233F
:1038100041F080959091F10189238093F1010E94FC
:1038200016180895882339F09091F101982B909300
:10383000F1010E9416180895882321F00E94D011EA
:103840000E9416180895882339F09091F201982B60
:103850009093F2010E9416180895882391F19CEF2D
:10386000980F913A80F4E2E9F1E028E931E0919192
:10387000891303C0DF0111971C922E173F07B9F778
:103880000E941618089590E2980F983050F48770AF
:1038900091E001C0990F8A95EAF7892F0E94D01113
:1038A000EFCF9BE5980F933028F490E080E00E94E2
:1038B000C50F0895885A873120F490E080E00E9477
:1038C000AF0F0895CF93C82F8823B1F08CEF8C0FE2
:1038D000813A00F5E2E9F1E088E991E0DF012D911C
:1038E000C21761F08A179B07D1F76C2F80E991E02E
:1038F0000E94950F0E941618CF9108952191C2132E
:1039000003C0DF0111971C928E179F07B9F70E9421
:103910001618EBCF80E28C0F883068F4C77021E076
:1039200030E001C0220FCA95EAF78091F201822BA4
:103930008093F201DFCFEBE5EC0FE33040F4F0E0F1
:10394000E95DFE4F808190E00E94C50FD5CFC85A37
:10395000C73190F6EC2FF0E0EE0FFF1FE65DFE4F53
:10396000808191810E94AF0FC7CF1F93CF93DF93C8
:10397000182FEB010E94621C209739F4812F0E94BE
:103980002D1CDF91CF911F9108958FE99FE0019742
:10399000F1F700C000002197EFCF70E060E08933BD
:1039A00011F460E570E00E94B51C08950F931F9319
:1039B000CF93DF93C62FD42F022FFC01828188235F
:1039C000A9F06093C5020E9430179093C4028093BF
:1039D000C302C77081E001C0880FCA95EAF70E9450
:1039E000231CDF91CF911F910F9108958091C50203
:1039F000681332C08091C3029091C4020E942117C3
:103A0000883C910548F510E21D0FCD17B9F080E212
:103A10008C0F883040F4C77081E001C0880FCA95D0
:103A2000EAF70E941C1C183048F481E09D2F977023
:103A300001C0880F9A95EAF70E94231C802F0E94EC
:103A4000CD1C183070F6D77081E001C0880FDA9570
:103A5000EAF70E941C1CC5CFC77081E001C0880F27
:103A6000CA95EAF7F6CFB0E0A0E0E9E3FDE10C94F7
:103A7000B72FEC018AE0A82E2881222309F48FC0F9
:103A80002130C9F599818A81913021F422960E94D2
:103A9000CD1C05C0923029F422960E94621C21960A
:103AA000EBCF933021F422960E942D1CF8CF943056
:103AB00011F02196F4CF229630E020E0AE014F5F66
:103AC0005F4F8053990B8A30910550F02150310996
:103AD00030F38FE99FE00197F1F700C00000F6CFC7
:103AE000A29EB001A39E700D11249C01260F371FCA
:103AF0008981EA01E3CFE22FF0E0E55FFA4EB4906E
:103B0000822F86958695869590E0FC01E550FB4EC8
:103B1000E4902770F12C022E02C0F594E7940A94E9
:103B2000E2F731E0E322FF24FC01E551FB4EC490B3
:103B3000D12C022E02C0D594C7940A94E2F731E04A
:103B4000C322DD24FC01E552FB4E049110E002C0CB
:103B5000159507952A95E2F701701127E114F104F4
:103B600019F081EE0E94621CC114D10419F086EE96
:103B70000E94621C8B2D0E94CD1CC114D10419F02F
:103B800086EE0E942D1CE114F10419F081EE0E94D2
:103B90002D1C0115110509F482CF8CE278CFCDB729
:103BA000DEB7EAE00C94D32F9091030292FF10C08D
:103BB00098E0899F90011124622B6093E8010E9494
:103BC000C7180E9430179093E7018093E60108958B
:103BD0000E94C7180895A7E1B0E0E1EFFDE10C9461
:103BE000BE2F4B8B5C8B6D8B7E8B8F8B61111092FC
:103BF000F1011A8A198A85E0FE017396DE011D968D
:103C000001900D928A95E1F78091030282FF1CC01A
:103C10000E9430172091E6013091E701821B930B3F
:103C20008838934120F08091E80182FF79C00E949A
:103C300030172091F3013091F401821B930B8838E7
:103C4000934110F00E94C51186E0FE013D96DE0111
:103C5000179601900D928A95E1F7CE0107960E9482
:103C60002A25882359F016E08091E5019091B4014E
:103C7000891343C06796E3E00C94DA2F86E0FE01D7
:103C80003796DE01119601900D928A95E1F78A85AB
:103C90009B85892B41F38F81988589238F3F19F369
:103CA0002091B40130E0C9010196877099274091B5
:103CB000E5014817190671F40E94D8181092B40152
:103CC0001092E50186E0EEEAF1E0DF011D928A95AF
:103CD000E9F7C9CF96E0929FD001939FB00D1124D0
:103CE000AB54BE4FFE01319601900D929A95E1F7CB
:103CF0008093B4010E94DE11B6CF819FC0011124D0
:103D00008B549E4F0E942A25882309F4B3CF8091BB
:103D1000E50190E00196877099278093E501A4CF93
:103D200082E00E948F1883CFA5E0B0E0EAE9FEE1CF
:103D30000C94BD2F8C0190939502809394020115F1
:103D400080E21807C0F4802F0E942D1CC8010E9439
:103D500053129801205E31092830310518F0011501
:103D6000110531F40E941C1C2596E4E00C94D92F17
:103D70000E94071CF9CF80EF89838A831B820E94EF
:103D800030178160782F9D838C8349815A816B81A4
:103D90008D810E94EB1DE8CFA5E0B0E0E2EDFEE1F1
:103DA0000C94BD2F8C019093950280939402011581
:103DB00080E21807C0F4C8010E9453129801205EE7
:103DC00031092830310518F00115110549F40E9418
:103DD000231C802F0E94621C2596E4E00C94D92FAE
:103DE0000E94121CF6CF80EF89838A8381E08B8347
:103DF0000E9430178160782F9D838C8349815A817E
:103E00006B818D810E94EB1DE7CFA5E0B0E0EBE078
:103E1000FFE10C94B52F6C01FC0183819481892B07
:103E200031F08081918189238F3F09F077C52596F4
:103E3000ECE00C94D12F0E942C15182F682F89814B
:103E40009A810E941C1269817A81812F0E940F152C
:103E50008C01F6012281222309F456C59056811562
:103E6000F0E29F0750F0905E811530E1930728F053
:103E7000915C81159F4108F064C0C8019927AC018D
:103E8000445051094432510518F08B970E9780F435
:103E9000E0911502F0E0EE0FFF1FE65EFD4F80811E
:103EA00091818F3F5FE7950719F001969183808399
:103EB000C80182519F45409708F0FFC48FEF93E0FF
:103EC0000E9425338111B1C05EEEF52EF00E07EB96
:103ED00011E0F1103FC019821A821B821C829924C2
:103EE0009A9478019FEFE91AF90AC8010E942533D4
:103EF00089831A82882309F498C0813009F08AC026
:103F00005801E2E0AE0EB11CC7010E942533E82E35
:103F10008A83882309F489C0C5010E942533F82EBD
:103F20008FEF8E0D833020F55801F3E0AF0EB11CFA
:103F3000FB82FF2021F0CE0101960E94331D8501F6
:103F4000D0CF90E080E00F3F110511F008F097CF3F
:103F5000C80195CF011584E0180709F466C0C801AF
:103F60000E942533811101C0FA940F5F1F4FB1CF1A
:103F70008BEF8E0D833040F5C8010396FB825C0108
:103F8000FF20E9F2580124E0A20EB11C0E94253363
:103F90008C838823A1F20B811C8101303FEF130732
:103FA00010F0102F002746E0E41651F057E0E51618
:103FB00019F0C8010E94CC1EC8010E94941EBFCFF8
:103FC000C8010E94CC1EBBCF84E0E812B8CF5801D4
:103FD00094E0A90EB11CC80103960E942533FF206E
:103FE00021F1882311F18150990B989E9001999E9F
:103FF000300D1124EF2DE150FF0BCF01820F931FE5
:10400000019708F49CCFEFE9FFE03197F1F700C08A
:104010000000F6CFCE0101960E94331D57018FCFCD
:1040200081E00E94C7180E9476188091E80187708D
:1040300009F4FDCEF6018281882309F4F8CE80913F
:10404000030282FFF4CE82E00E948F18F0CE81E05E
:104050000E948218E8CF222309F45EC482E0E1CFF7
:10406000053FECE51E0709F461C008F45BC0063F9C
:104070003CE5130709F45EC0222309F460C41092E2
:10408000C50203304DE5140708F05BC00A3F5CE54C
:10409000150730F4C80182509C45449708F05CC075
:1040A0000E94AB1590930302809302020231FCE55B
:1040B0001F0709F45FC108F0ABC009303CE51307E6
:1040C00009F432C108F077C005305CE5150709F442
:1040D0001FC108F05EC003309CE5190709F410C148
:1040E00008F012C18091020281600230FCE51F07D6
:1040F00009F48BC0609102021091030284E090E009
:104100000E943333612F82E290E00E9433330E9499
:10411000D8188BCF27E245EE65EEF2C326E241EEDA
:1041200060EEEEC327E245EE64EEEAC326E241EE1E
:1041300062EEE6C327E245EE66EEE2C328E241E026
:10414000EBCF053A8DE5180709F4AACFE0F4013664
:10415000EDE51E0709F4A4CF0631FCE51F0709F0C1
:1041600006C48091F2018A7A91E009F490E090937C
:104170009A0169E2811165E380E991E00E94950F5F
:104180000E94161852CFC8018D5A9D45039720F7FB
:1041900087CF80910202806207302CE51207A9F1D7
:1041A00080910202806108303CE5130770F1809134
:1041B000020280642AC00D304CE5140709F4C2C025
:1041C00080F40B308CE5180709F4B4C0809102022A
:1041D0008C600C309CE51907C0F0809102028D7F45
:1041E00014C00F30ECE51E0709F4BCC008F4AEC0E3
:1041F00000312CE5120709F4B9C0809102028F7BCF
:1042000001313CE5130709F075CF8093020272CFAC
:104210000F3F4CE5140709F4B7C098F50A3F8CE549
:10422000180709F479C0C0F40431ECE51E0709F45D
:10423000B9C008F4A5C005312CE5120709F05ACF22
:104240008091020282FB992790F921E0922790FB4E
:1042500082F990FB83F9D9CF0C3F3CE5130709F4B1
:1042600079C008F45DC00D3F5CE5150709F476C020
:104270000E3F8CE5180709F03DCF80910302836063
:104280003CC001369DE5190709F497C090F4013050
:10429000FDE51F0709F48FC008F47AC060E0023022
:1042A0003DE5130709F026CF8EE090E00E943333FE
:1042B00021CF0D3A4DE51407E9F060F4053A8DE59C
:1042C000180709F017CF90910202892F8E7F90FF77
:1042D00081609BCF0E3A9DE5190781F10F3AEDE51C
:1042E0001E0709F007CF90910302892F877F93FF64
:1042F000886003C080910302886080930302FACE35
:1043000080910202826081CF8091020284607DCF21
:1043100080910202886079CF809103028160EDCFA5
:10432000809103028260E9CF0E94D8188091020236
:1043300080686BCF809102028E7F67CF80910302ED
:10434000877FDBCF809102028B7F5FCF809102025B
:10435000877F5BCF809103028E7FCFCF8091030256
:104360008D7FCBCF809102028F7E4FCF8091020252
:104370008F7D4BCF0E94D818809102028F7745CF56
:1043800080910202837F41CF809103028C7FB5CF61
:1043900080910302982F909591708E7F892B90FBCE
:1043A00081F9ABCF0E94D81890910202892F97FB18
:1043B00087F980582ACF61E077CF90910202892F48
:1043C0008F7E94FF806121CF85E3C3C20E94D818FD
:1043D0002FEF34E34CE0215030404040E1F700C083
:1043E00000000E94780F8091030282FB882780F9E9
:1043F00091E089270E94AB18F6018281008111812A
:10440000882309F445C0C8010E942C15F82E682F96
:10441000C8010E941C12B8018F2D0E940F150E9426
:1044200044108C01882EF601E280B580B2943FE002
:10443000B3228091E8018770C1F0AE2CEE20B1F07C
:10444000812F807F803421F080E2800F883068F0F7
:104450008091030282FF09C082E00E948F18809140
:10446000E8018770AA24A3948111A12C912E929423
:104470002FE09222FBE0F91508F476C0E92DF0E078
:10448000ED58FC4C0C94473081E0B4CF80E0B2CFC3
:10449000C8010E94E811F82EBECF212F2F70F22EF6
:1044A000107F19F0F29490EFF922EE20B9F0FF207E
:1044B00069F080E2800F883010F0811009C080918F
:1044C000F201F82AF092F2010E941618802F4AC0D9
:1044D0008091F101F82AF092F101F6CF802F0E942D
:1044E0002D1CFF2009F440C0005E083010F0811040
:1044F00004C08F2D0E94D01106C0F0948091F1016C
:10450000F822F092F1010E9416182EC0312F3F7050
:10451000F32E107F103219F0F29480EFF8228820E9
:1045200089F041E0841609F491C0EE2009F49AC0A4
:10453000BB2009F467C0F601858180FFC7CF8F706B
:10454000858360C08091030282FD35C0EE2069F151
:10455000FF2039F08091F201F82AF092F2010E94D6
:10456000161880E00E94621C292D2850330B24303D
:10457000310510F40E94DB0FAA2009F458CC809179
:10458000E80180FD54CCF6011282859585958595CC
:104590000E94C718C6010E94051F8091E8018595F9
:1045A000859585950E94821842CC80E00E942D1C42
:1045B000FF20D1F29ECFEE2049F1B11004C08091CE
:1045C000F5018F2920C051E0B51210C082FFCCCF79
:1045D0008091F501F82AF81639F20E94301790936D
:1045E000F4018093F301F092F501BECF85E0B8129B
:1045F000E6CF0E94C51190919B018F2D892B8913C5
:1046000080939B018F2D0E94231CAECFB11003C05D
:104610000E94C51112C091E0B91213C08091F2013D
:104620008F2109F4A1CF0E94C51190919B018F2D7C
:1046300080958923891380939B018F2D0E941C1CD8
:1046400093CFE5E0BE1609F48FCFE2CFEE2029F03C
:10465000F5E0FB1508F488CFD5CF24E02B1508F43E
:1046600083CFEBCFBB2049F3F9E38F1209C02FEFC3
:1046700037EE43E0215030404040E1F700C00000F9
:10468000802F0E942D1C70CF812F86958695837078
:1046900061F0813009F068CFC8019370E11002C069
:1046A00090E080E00E94AF0F5FCFC8019370E110EF
:1046B00002C090E080E00E94C50F56CF812F83702A
:1046C00089F5E11051CF402F429546954770440F30
:1046D000440F802F8F70042E01C0880F0A94EAF7D0
:1046E000202F207104FF07C02FE030E001C0220F0F
:1046F0004A95EAF72095169516951370123069F0D1
:1047000050F43091F601113029F0822B83230E945E
:10471000D3182ACF832B822BFACF282B8091F60136
:104720008227F5CF8695EE2011F0812F81708823A6
:1047300009F41ACF402F429546954770440F440F15
:10474000802F8F70042E01C0880F0A94EAF7202F63
:10475000207104FF07C02FE030E001C0220F4A950E
:10476000EAF72095169516951370123069F050F4FB
:104770003091C602113029F0822B83230E947118D8
:10478000F3CE832B822BFACF282B8091C60282276F
:10479000F5CF1F70EE2029F0812F0E94C718802FBF
:1047A00032CF802F0E941C1C812F0E948218DCCEE9
:1047B000802F52EF8516B1F1581570F090EF8916E1
:1047C000D1F0E1EF8E1691F0EE2009F466C0B11041
:1047D0007DCE812F8F712AC0F3EF8F1651F124EF18
:1047E0008212F2CF8091030282FD2FC0812F8F7140
:1047F000EE20D9F21BC0EE2081F034E03B1508F426
:10480000B3CE1F7181E090E0012E01C0880F0A94A1
:10481000EAF79091C6028927B1CF45E04B1508F41D
:10482000A3CEEFCF812F8F71E110BFCF0E94C718A9
:104830009BCE80E0EE2009F4A1CF1F7181E0012E14
:1048400001C0880F0A94EAF799CFEE20C9F0809151
:10485000E8018770843041F40E94D711812F8F7155
:104860000E948218A12C80CE54E05B15D8F31F71F2
:10487000812F0E94C71863E0812F0E94D41DF2CFC0
:1048800084E08B1530F40E94D71164E0812F8F7182
:10489000F4CF81E00E948F18E5CFBB2059F0893317
:1048A00009F0EECE9FEFE7EEF3E09150E040F040EC
:1048B000E1F7E4CE812F8F7178CF0031FFE51F073C
:1048C00009F4AECB01313FE5130709F4C4CB033F34
:1048D0003CE5130709F422CC08F0C2CB083D5CE5A7
:1048E000150709F417CC093D8CE5180709F426CC07
:1048F000073D9CE5190709F0BFCB26E241EE61EECA
:10490000C6010E94D61C91CB80314FE5940709F473
:104910009ECB81319F45D9F682E09ACB85E0DE01BE
:10492000119601900D928A95E1F7F6012281898115
:104930009A81211180CA0E94E811182F84CA063179
:10494000FCE51F0709F058CD80919A0181113CCDFB
:1049500089E2E2E9F1E028E931E09191891303C0AD
:10496000DF0111971C922E173F07B9F709CC0A35C2
:104970002DE5120709F488CD68F401154CE51407FC
:1049800009F424CD0E3D1C4509F036CD0E94B91521
:104990000E94F11B0C358DE5180709F424CD08F4AD
:1049A00075CD073A1D45A1F327CD1F93CF93DF9314
:1049B0008091B301807F09F049C08091B0018823C4
:1049C00009F444C08091E501D091B4016091AE0139
:1049D0007091AF01A091B101B091B201C62FC72370
:1049E00016E0D81799F190E0109711F0CF3F19F425
:1049F00001968770F6CF189F9001199F300D1124F2
:104A0000F901EB54FE4F41814713F2CF4081461329
:104A1000EFCF42814111ECCF438154814A1B5B0BA4
:104A2000483C510528F78091B3018F7080618093D5
:104A3000B301F901E654FE4F80818F70806180835D
:104A40008EEA91E00E94051F0E94DE11DF91CF9156
:104A50001F910895A1E1B0E0E0E3F5E20C94B72FD7
:104A60008C0185E0F801DE011D9601900D928A957A
:104A7000E1F7F801E2808EEAA82E81E0B82E60917D
:104A8000B1017091B2016115710509F426C19091CF
:104A9000AE014091AF01892F84238F3F09F41DC1DE
:104AA00020813181C380D480F090B001F601E61BF3
:104AB000F70BFF2009F4DCC08091B301582F507F21
:104AC000E83CF10508F09FC051116BC0FE2C431368
:104AD00014C0921312C0E11010C08F7080618093D7
:104AE000B301C5010E94051F8091B301F8018583C0
:104AF0008F2D6196EAE00C94D32FC114D10429F0D4
:104B0000822F83238F3F09F003C180E0F82FF170DB
:104B1000DF2E80FF3CC08091E5014091B40156E05A
:104B2000841315C02D873E878D859E850E945B1559
:104B3000292F22952F702230F0F0243018F59F7025
:104B4000F1F0F8019581907FD1F4D12C1EC090E056
:104B5000589FF001599FF00D1124EB54FE4F6181D5
:104B6000361306C06081261303C06281E6120FC0AF
:104B700001968770D5CF9F7011F0882331F3805E46
:104B8000883018F3C8010E94051FFD2CB1CFEE201C
:104B900009F4AECF8091B30181608093B301F12C11
:104BA000A7CF431306C0921304C0F801EE2009F406
:104BB00079C0C8010E946815882309F1EE20F9F038
:104BC0008091B301803270F02091AE013091AF013D
:104BD00038872F831986DB86CA868C87CE01079695
:104BE0000E94051F86E0F801AEEAB1E001900D9247
:104BF0008A95E1F70E94D524FF24F39479CFC80168
:104C00000E94051FF9CF51110AC08EEA91E00E945F
:104C1000051F86E0F50111928A95E9F7C0CF43138D
:104C20000FC092130DC0E1100BC0F8018583C801BD
:104C30000E94051F86E0F50111928A95E9F758CF89
:104C4000C8010E9468158823D1F2EE20C1F280913C
:104C5000B301803238F22091AE013091AF013A8336
:104C600029831B82DD82CC828E83CE010196B8CF50
:104C7000E83CF105F8F6FE2CEE2009F243131FC0C4
:104C800092131DC08091B30180FD10C0982F907FBA
:104C900069F0F8018583903F31F0982F907F905F05
:104CA0008F70892B8583C8010E94051F86E0F8015B
:104CB000AEEAB1E001900D928A95E1F719CFC801F3
:104CC0000E94681581118ECF8091B301816080931D
:104CD000B301C8010E94051F0BCFEE2009F48FCF4E
:104CE000C8010E946815F82E882309F488CF86E051
:104CF000F801AEEAB1E001900D928A95E1F780915A
:104D0000AE019091AF010E945B150E94D524F0CEB8
:104D100081E08E25FBCE1F921FB61F9211248F9328
:104D20009F93AF93BF938091A402811113C0809190
:104D3000A5029091A602A091A702B091A802419667
:104D4000A11DB11D8093A5029093A602A093A70276
:104D5000B093A802BF91AF919F918F911F901FBEFA
:104D60001F901895CDB7DEB7E5970FB6F894DEBF64
:104D70000FBECDBF85B7806885BF85B7806885BF0A
:104D800084B7877F84BF0FB6F894A89580916000A0
:104D9000886180936000109260000FBE80E890E010
:104DA0000FB6F89480936100909361000FBE88EE77
:104DB0009FE090938F0180938E010E94C70D0E9407
:104DC000BA0E8091E20084608093E2007894809132
:104DD000C2028823A1F01091E9001F709091EC00AD
:104DE000892F817090FD80E8182B1092E900809146
:104DF000E80083FD0E94E4181F701093E90082E030
:104E000084BD93E095BD9AEF97BD80936E000E949C
:104E10009215811102C00E94D01408E511E04EE500
:104E2000E42E41E0F42ED8018D918D018F3F11F0D9
:104E30000E94EA0FE016F106B1F70EE511E036E642
:104E4000E32E31E0F32EF80181918F018F3F11F0B5
:104E50000E94EA0FE016F106B1F788E0EAE8F2E016
:104E6000DF01282F1D922A95E9F7EAEFF1E0DF0133
:104E70001D928A95E9F790E080E00E942D33883EEC
:104E80009E4F21F40E949215811102C00E94B91513
:104E900082E090E00E942533809306020E94AB15C9
:104EA00090930302809302020E943C17EFE3FCE917
:104EB0003197F1F700C000000E943C1780918A02F0
:104EC00080FF08C06FEF7FEF90E080E00E945133D9
:104ED0000E94780F83E090E00E9425330E94D3184F
:104EE0001092830280E88093C7020E94AF2E6DE08B
:104EF00070E083E591E10E94B812892BE9F5809179
:104F0000830263E070E081FDADC080E591E10E9425
:104F1000B812892B89F56DE070E080E491E10E9480
:104F2000B812892B49F50E94890F605A75418F4F3D
:104F30009F4F609398027093990280939A02909386
:104F40009B02E0EDF2E080E092E0DF019C011D9227
:104F500021503040E1F7F093D104E093D0048FEF7B
:104F60009FEF9093CF028093CE0281E080939D02C9
:104F700080939C021092840281E080934E025398A9
:104F80005B9A52985A9A8FE891E00197F1F700C026
:104F9000000020914E024FE452E0FA018E2F841B54
:104FA000821708F462C080E091E09093A1028093A0
:104FB000A0028AE892E0A8E0A80FABAB8091C20201
:104FC00020E4F22E00E112E1853009F491C00E9444
:104FD0003C1787E0A82E82E0B82E9AE8C92E92E00E
:104FE000D92E2FE032E0D601F50191918D912E1747
:104FF0003F0709F487C09817C1F310E0D6010D915F
:105000006D01F50181915F01801721F1982E9026A5
:10501000F12CEE24E394892D8E21A1F0FEA61FA78A
:1050200091E0802F8E2109F490E098AB0E94301718
:105030008160782F9AAB89AB4EA55FA568A98AA934
:105040000E94EB1DF394EE0CF6E0FF12E4CFF501A5
:10505000319700831F5F183089F60E94890FEE2474
:10506000E39471C08DE491E152CF89B183FB88272D
:1050700080F94A9904C090E0892B81938FCF92E008
:10508000FBCF8091C202843029F10E94E21210927B
:10509000A402E8E1F0E00FB6F894A895E093600070
:1050A0000FBEF092600083B7817F846083BF83B7B7
:1050B000816083BF7894889583B78E7F83BF0FB656
:1050C000F894A895809160008861809360001092A8
:1050D00060000FBE8091B802882351F00E943C17F7
:1050E000EAE8F2E0819181111CC62BA92E13FACFB8
:1050F0008091C202853009F4C4CF0E94D8180E9462
:10510000DB0F65CF981379CF0E9430178C01809107
:1051100004029091050208171907A1F08FEF89A7E3
:105120008AA71BA60E9430178160782F9DA78CA7A5
:1051300049A55AA56BA58DA50E94EB1D10930502EC
:1051400000930402E12C40901A0250901B02052C9F
:10515000000C6608770880910C0190E0EAE1F2E02B
:1051600021E030E03296821793070CF0B0C18091B5
:10517000160290911702A0911802B09119026FB710
:10518000F8948090A5029090A602A090A702B090FB
:10519000A8026FBF881A990AAA0ABB0A10910C01CB
:1051A00029EC82169104A104B10414F18091150236
:1051B00090E0019669E170E00E94F22F8093150261
:1051C000880F991FFC01E65EFD4F11821082812F2E
:1051D000183108F087E18F5F80930C010E94890FDE
:1051E000609316027093170280931802909319022D
:1051F00032E043165104610471040CF475C1A0E659
:10520000BAEEA30192010E9454302B013C0188ECBC
:10521000189F90011124032E000C440B550B280DF0
:10522000391D4A1D5B1DA5E0B0E00E9454309B0172
:10523000AC01C301B2010E94063029013A0191EF8D
:1052400049165104610471042CF010EF412E512CC9
:10525000612C712C8091110290911202A091130285
:10526000B09114022FB7F8948090A5029090A602F6
:10527000A090A702B090A8022FBF881A990AAA0A84
:10528000BB0AA5E68A169104A104B10484F00E9429
:10529000890F60931102709312028093130290930E
:1052A0001402809158028093100240920F021091D4
:1052B0001002A0910F02A11BBB0BA50194010E943B
:1052C0005F3024E630E040E050E00E942830120FCA
:1052D00010935802912CF12CB4E0AB2EB12C80919C
:1052E0004E02981608F404C1F1100E94890F8091B3
:1052F0009D02882309F49FC080ED92E09093D10431
:105300008093D00480915802882309F447C10E94F9
:10531000FD124091540250915502609156027091D5
:1053200057022FB7F8948091A5029091A602A09100
:10533000A702B091A8022FBF841B950BA60BB70B39
:10534000893C9105A105B10560F00E94890F609329
:1053500054027093550280935602909357020E9414
:1053600084120E94890F60935002709351028093BF
:105370005202909353028091C70224E0829FC001A1
:105380001124811532E0930714F090E080E08053FF
:105390009D4F9093D1048093D004809158021F9226
:1053A0008F938DE191E09F938F9309E512E01F9316
:1053B0000F930E949330D8010D900020E9F78D01E2
:1053C000015011090F900F900F900F900F900F90B8
:1053D000A9E5CA2EA2E0DA2EC016D10608F427C12C
:1053E00080919D02882371F02091CE023091CF02EE
:1053F0002115310539F08091840261E070E0882345
:1054000009F41CC180919C028823A9F00E94890F95
:10541000009198021091990220919A0230919B027A
:10542000601B710B820B930B6F3F7F4F8F4F9F471A
:1054300010F40E94E212E11001C0F1100E94FD126E
:105440000E94DB0F90918502891721F080938502DD
:105450000E94890F8091C202843009F0AFCD83E0B1
:105460008093E9008091E80082FFA8CD8091E80058
:1054700090E085FF06C00E94E60D882309F4A9C1CB
:1054800091E08091E8008B778093E800992309F4FC
:1054900095CD009196021091970289810115110511
:1054A00009F4B4C18E3F09F039C28A81833020F0FB
:1054B0008550833008F032C2EA81EE3008F02EC207
:1054C000F0E0E158FC4CCE0101960C94473040814D
:1054D0005181052E000C660B770B440E551E661E7F
:1054E000771E2F5F3F4F3ECE412C512C3201B2CE62
:1054F000092D10E0E9B1E3FBEE27E0F94A994CC031
:1055000080E08E2BD801A15BBD4FEC919E2F937054
:10551000891709F43FC0EE0FEE0FE82BEC93EF7004
:10552000F0E0EA59FE4F9801235B3D4F690180810D
:10553000D9019C91890F8C9320E0843074F0F8019C
:10554000E45BFD4F80818F5F8083911005C06AE02E
:1055500070E08AEA0E94B51C21E0F60180818D3F4F
:1055600074F4F801E45BFD4F8081815080839110D9
:1055700005C06AE070E089EA0E94B51C21E0D6010E
:105580008C91082E000C990BB5010E94F22FF601A8
:105590008083F22A9394A3CE82E0B3CF409150024D
:1055A0005091510260915202709153022FB7F894BA
:1055B0008091A5029091A602A091A702B091A802A5
:1055C0002FBF841B950BA60BB70B813C9742A940BC
:1055D000B10518F00E94E212CECE409154025091D3
:1055E000550260915602709157022FB7F89480913E
:1055F000A5029091A602A091A702B091A8022FBF88
:10560000841B950BA60BB70B893C9105A105B10531
:1056100008F4B1CE0E94890F609354027093550232
:1056200080935602909357020E948412A4CEF601F2
:1056300081916F010E942513CFCE8F5F082F10E05C
:105640002B01082E02C0440C551C0A94E2F7A90154
:1056500044215521452B89F39091830290FD44C04C
:105660008295880F807680930F0198013695279553
:105670003695279520931201815E80931001109238
:10568000130124E630E047E050E06DE071E088E788
:105690000E944F2F892B09F0B5CEA801E5E0440FF9
:1056A000551FEA95E1F78091830280FD2BC040539E
:1056B0005D4F04E610E020E230E060E488E70E94FD
:1056C000702F892B09F09ECE0E94FD12C201809599
:1056D00090954090CE025090CF024822592250928D
:1056E000CF024092CE028ECE880F880F880F809313
:1056F0000F0110921201895F8093100183E0809363
:105700001301BFCFE3E6F2E080E2DF011D928A954C
:10571000E9F7EAE7F1E0FDABECAB06E711E07EE785
:10572000672E71E0772E99249394ACA9BDA92D9191
:10573000BDABACABF80121908F01240E352E311C8E
:10574000C10180539D4F1C01E22FF0E0ED59FD4F48
:1057500030E020E067E0A62EA21AB92C022E01C08C
:10576000BB0C0A94EAF7610190E0D6018D916D01BE
:105770008B216A2D691B6770862E062E000C770B15
:10578000B82F01C0BB0F8A94EAF78B2E71956195F3
:1057900071096770772701C086956A95EAF7882AAC
:1057A0008081882A80829F5F9830F9F62F5F3F4F73
:1057B00031962830310571F6ECA9FDA96E167F06E9
:1057C00009F0B3CF04E610E020E230E043E652E017
:1057D00074CF00E210E09E012F5F3F4F790180916E
:1057E000E80085FD0AC08091E8008B778093E8008F
:1057F0000E94E60D882399F343CE8091F100D701F2
:105800008D937D010150110951F73ACE8C3009F486
:10581000D1C058F5843009F4B4C058F4823009F48A
:105820006CC008F09FC0813009F463C08FEF89839A
:1058300075C0863009F4BBC008F4AEC08B30B1F738
:105840008091920290919302892B09F467C0CE0156
:1058500001960E94410E3FEF81EE94E0315080406E
:105860009040E1F700C0000033CB803109F4D5C08F
:10587000A0F58E3009F4A5C008F49FC08091920273
:1058800090919302892B09F449C08C81E82EF12C68
:105890002DE1E216F10408F041C0CA80DB80DC246F
:1058A000CD24DC248E010F5F1F4FE00EF11EC601D8
:1058B00089549E4F0E151F0589F139E4C31632E055
:1058C000D30628F4D80114966C910E9433330F5FED
:1058D0001F4FBFEFCB1ADB0AEACF823109F4A2C017
:1058E00008F49EC0833109F4C8C08E3F09F09ECFF2
:1058F000E3CD1A8289E08B8311C08A81823009F45A
:1059000026C2833081F0813009F090CF0E94890F48
:105910000E944D306B837C838D839E83CE010196E4
:105920000E94410E4BCB8091920290919302892B61
:10593000A9F380918A028B8380918B028C83809162
:105940008C028D8380918D028E8380918E028F8355
:1059500080918F028887809190028987809191023F
:105960008A87DCCF8A81823009F060CF6B817C81AD
:105970008D819E810E944D3086E290E00E943333FB
:10598000CDCF4C816B818A810E94E01498278927B2
:1059900098279E838D83C2CF2D813E813227232776
:1059A00032274C816B818A810E944414B7CF0E94B8
:1059B0006A14B4CF80E18A83B1CF82E08A8389E41C
:1059C0009ACF8C81E82EF12CBDE1EB16F10408F0A2
:1059D000A5CFCA80DB80DC24CD24DC248E010F5FC0
:1059E0001F4FE00EF11EC60189549E4F0E151F0574
:1059F00009F494CFE9E4CE16E2E0DE0658F40E9402
:105A00002533D80114968C93FFEFCF1ADF0A0F5F6E
:105A10001F4FE9CFF8011482F7CF0E9434147ECFD4
:105A200084E0C9CF8C81E82EF12CEDE1EE16F10473
:105A300008F074CFCA80DB80DC24CD24DC248E0106
:105A40000F5F1F4FE00EF11EC6018796E016F106AC
:105A500009F464CFF0E8CF16F1E0DF0658F40E94B5
:105A60002533D80114968C93FFEFCF1ADF0A0F5F0E
:105A70001F4FEACFF8011482F7CFEC80F12C2DE113
:105A8000E216F10408F04ACF0A811B811027012792
:105A90001027003831E0130708F040CF80E891E08C
:105AA000801B910B8E159F0508F438CF480187E2C3
:105AB000880E911C809192029091930238016E0C95
:105AC0007F1C892BB9F5680191E0C922DD2400FF14
:105AD0000DC0C80186960E9425339D81892798278D
